{
  "address": "0xdBd2BaCe25998F67781aA087cEaF8f2a45B5f9B4",
  "abi": [
    {
      "inputs": [],
      "stateMutability": "nonpayable",
      "type": "constructor"
    },
    {
      "anonymous": false,
      "inputs": [
        {
          "indexed": true,
          "internalType": "address",
          "name": "account",
          "type": "address"
        },
        {
          "indexed": true,
          "internalType": "address",
          "name": "operator",
          "type": "address"
        },
        {
          "indexed": false,
          "internalType": "bool",
          "name": "approved",
          "type": "bool"
        }
      ],
      "name": "ApprovalForAll",
      "type": "event"
    },
    {
      "anonymous": false,
      "inputs": [
        {
          "indexed": false,
          "internalType": "uint8",
          "name": "version",
          "type": "uint8"
        }
      ],
      "name": "Initialized",
      "type": "event"
    },
    {
      "anonymous": false,
      "inputs": [
        {
          "indexed": true,
          "internalType": "bytes32",
          "name": "role",
          "type": "bytes32"
        },
        {
          "indexed": true,
          "internalType": "bytes32",
          "name": "previousAdminRole",
          "type": "bytes32"
        },
        {
          "indexed": true,
          "internalType": "bytes32",
          "name": "newAdminRole",
          "type": "bytes32"
        }
      ],
      "name": "RoleAdminChanged",
      "type": "event"
    },
    {
      "anonymous": false,
      "inputs": [
        {
          "indexed": true,
          "internalType": "bytes32",
          "name": "role",
          "type": "bytes32"
        },
        {
          "indexed": true,
          "internalType": "address",
          "name": "account",
          "type": "address"
        },
        {
          "indexed": true,
          "internalType": "address",
          "name": "sender",
          "type": "address"
        }
      ],
      "name": "RoleGranted",
      "type": "event"
    },
    {
      "anonymous": false,
      "inputs": [
        {
          "indexed": true,
          "internalType": "bytes32",
          "name": "role",
          "type": "bytes32"
        },
        {
          "indexed": true,
          "internalType": "address",
          "name": "account",
          "type": "address"
        },
        {
          "indexed": true,
          "internalType": "address",
          "name": "sender",
          "type": "address"
        }
      ],
      "name": "RoleRevoked",
      "type": "event"
    },
    {
      "anonymous": false,
      "inputs": [
        {
          "indexed": true,
          "internalType": "address",
          "name": "operator",
          "type": "address"
        },
        {
          "indexed": true,
          "internalType": "address",
          "name": "from",
          "type": "address"
        },
        {
          "indexed": true,
          "internalType": "address",
          "name": "to",
          "type": "address"
        },
        {
          "indexed": false,
          "internalType": "uint256[]",
          "name": "ids",
          "type": "uint256[]"
        },
        {
          "indexed": false,
          "internalType": "uint256[]",
          "name": "values",
          "type": "uint256[]"
        }
      ],
      "name": "TransferBatch",
      "type": "event"
    },
    {
      "anonymous": false,
      "inputs": [
        {
          "indexed": true,
          "internalType": "address",
          "name": "operator",
          "type": "address"
        },
        {
          "indexed": true,
          "internalType": "address",
          "name": "from",
          "type": "address"
        },
        {
          "indexed": true,
          "internalType": "address",
          "name": "to",
          "type": "address"
        },
        {
          "indexed": false,
          "internalType": "uint256",
          "name": "id",
          "type": "uint256"
        },
        {
          "indexed": false,
          "internalType": "uint256",
          "name": "value",
          "type": "uint256"
        }
      ],
      "name": "TransferSingle",
      "type": "event"
    },
    {
      "anonymous": false,
      "inputs": [
        {
          "indexed": false,
          "internalType": "string",
          "name": "value",
          "type": "string"
        },
        {
          "indexed": true,
          "internalType": "uint256",
          "name": "id",
          "type": "uint256"
        }
      ],
      "name": "URI",
      "type": "event"
    },
    {
      "inputs": [],
      "name": "DEFAULT_ADMIN_ROLE",
      "outputs": [
        {
          "internalType": "bytes32",
          "name": "",
          "type": "bytes32"
        }
      ],
      "stateMutability": "view",
      "type": "function"
    },
    {
      "inputs": [
        {
          "internalType": "address",
          "name": "account",
          "type": "address"
        },
        {
          "internalType": "uint256",
          "name": "id",
          "type": "uint256"
        }
      ],
      "name": "balanceOf",
      "outputs": [
        {
          "internalType": "uint256",
          "name": "",
          "type": "uint256"
        }
      ],
      "stateMutability": "view",
      "type": "function"
    },
    {
      "inputs": [
        {
          "internalType": "address[]",
          "name": "accounts",
          "type": "address[]"
        },
        {
          "internalType": "uint256[]",
          "name": "ids",
          "type": "uint256[]"
        }
      ],
      "name": "balanceOfBatch",
      "outputs": [
        {
          "internalType": "uint256[]",
          "name": "",
          "type": "uint256[]"
        }
      ],
      "stateMutability": "view",
      "type": "function"
    },
    {
      "inputs": [
        {
          "internalType": "address",
          "name": "account",
          "type": "address"
        },
        {
          "internalType": "uint256",
          "name": "id",
          "type": "uint256"
        },
        {
          "internalType": "uint256",
          "name": "value",
          "type": "uint256"
        }
      ],
      "name": "burn",
      "outputs": [],
      "stateMutability": "nonpayable",
      "type": "function"
    },
    {
      "inputs": [
        {
          "internalType": "address",
          "name": "account",
          "type": "address"
        },
        {
          "internalType": "uint256[]",
          "name": "ids",
          "type": "uint256[]"
        },
        {
          "internalType": "uint256[]",
          "name": "values",
          "type": "uint256[]"
        }
      ],
      "name": "burnBatch",
      "outputs": [],
      "stateMutability": "nonpayable",
      "type": "function"
    },
    {
      "inputs": [
        {
          "internalType": "bytes32",
          "name": "role",
          "type": "bytes32"
        }
      ],
      "name": "getRoleAdmin",
      "outputs": [
        {
          "internalType": "bytes32",
          "name": "",
          "type": "bytes32"
        }
      ],
      "stateMutability": "view",
      "type": "function"
    },
    {
      "inputs": [
        {
          "internalType": "address",
          "name": "to",
          "type": "address"
        }
      ],
      "name": "grantMinter",
      "outputs": [],
      "stateMutability": "nonpayable",
      "type": "function"
    },
    {
      "inputs": [
        {
          "internalType": "bytes32",
          "name": "role",
          "type": "bytes32"
        },
        {
          "internalType": "address",
          "name": "account",
          "type": "address"
        }
      ],
      "name": "grantRole",
      "outputs": [],
      "stateMutability": "nonpayable",
      "type": "function"
    },
    {
      "inputs": [
        {
          "internalType": "address",
          "name": "to",
          "type": "address"
        }
      ],
      "name": "grantUriRole",
      "outputs": [],
      "stateMutability": "nonpayable",
      "type": "function"
    },
    {
      "inputs": [
        {
          "internalType": "bytes32",
          "name": "role",
          "type": "bytes32"
        },
        {
          "internalType": "address",
          "name": "account",
          "type": "address"
        }
      ],
      "name": "hasRole",
      "outputs": [
        {
          "internalType": "bool",
          "name": "",
          "type": "bool"
        }
      ],
      "stateMutability": "view",
      "type": "function"
    },
    {
      "inputs": [
        {
          "internalType": "address",
          "name": "_admin",
          "type": "address"
        },
        {
          "internalType": "string",
          "name": "uri_",
          "type": "string"
        }
      ],
      "name": "initialize",
      "outputs": [],
      "stateMutability": "nonpayable",
      "type": "function"
    },
    {
      "inputs": [
        {
          "internalType": "address",
          "name": "account",
          "type": "address"
        },
        {
          "internalType": "address",
          "name": "operator",
          "type": "address"
        }
      ],
      "name": "isApprovedForAll",
      "outputs": [
        {
          "internalType": "bool",
          "name": "",
          "type": "bool"
        }
      ],
      "stateMutability": "view",
      "type": "function"
    },
    {
      "inputs": [
        {
          "internalType": "address",
          "name": "to",
          "type": "address"
        },
        {
          "internalType": "uint256",
          "name": "id",
          "type": "uint256"
        },
        {
          "internalType": "uint256",
          "name": "amount",
          "type": "uint256"
        },
        {
          "internalType": "bytes",
          "name": "data",
          "type": "bytes"
        }
      ],
      "name": "mint",
      "outputs": [],
      "stateMutability": "nonpayable",
      "type": "function"
    },
    {
      "inputs": [
        {
          "internalType": "address",
          "name": "to",
          "type": "address"
        },
        {
          "internalType": "uint256[]",
          "name": "ids",
          "type": "uint256[]"
        },
        {
          "internalType": "uint256[]",
          "name": "amounts",
          "type": "uint256[]"
        },
        {
          "internalType": "bytes",
          "name": "data",
          "type": "bytes"
        }
      ],
      "name": "mintBatch",
      "outputs": [],
      "stateMutability": "nonpayable",
      "type": "function"
    },
    {
      "inputs": [
        {
          "internalType": "bytes32",
          "name": "role",
          "type": "bytes32"
        },
        {
          "internalType": "address",
          "name": "account",
          "type": "address"
        }
      ],
      "name": "renounceRole",
      "outputs": [],
      "stateMutability": "nonpayable",
      "type": "function"
    },
    {
      "inputs": [
        {
          "internalType": "bytes32",
          "name": "role",
          "type": "bytes32"
        },
        {
          "internalType": "address",
          "name": "account",
          "type": "address"
        }
      ],
      "name": "revokeRole",
      "outputs": [],
      "stateMutability": "nonpayable",
      "type": "function"
    },
    {
      "inputs": [
        {
          "internalType": "address",
          "name": "from",
          "type": "address"
        },
        {
          "internalType": "address",
          "name": "to",
          "type": "address"
        },
        {
          "internalType": "uint256[]",
          "name": "ids",
          "type": "uint256[]"
        },
        {
          "internalType": "uint256[]",
          "name": "amounts",
          "type": "uint256[]"
        },
        {
          "internalType": "bytes",
          "name": "data",
          "type": "bytes"
        }
      ],
      "name": "safeBatchTransferFrom",
      "outputs": [],
      "stateMutability": "nonpayable",
      "type": "function"
    },
    {
      "inputs": [
        {
          "internalType": "address",
          "name": "from",
          "type": "address"
        },
        {
          "internalType": "address",
          "name": "to",
          "type": "address"
        },
        {
          "internalType": "uint256",
          "name": "id",
          "type": "uint256"
        },
        {
          "internalType": "uint256",
          "name": "amount",
          "type": "uint256"
        },
        {
          "internalType": "bytes",
          "name": "data",
          "type": "bytes"
        }
      ],
      "name": "safeTransferFrom",
      "outputs": [],
      "stateMutability": "nonpayable",
      "type": "function"
    },
    {
      "inputs": [
        {
          "internalType": "address",
          "name": "operator",
          "type": "address"
        },
        {
          "internalType": "bool",
          "name": "approved",
          "type": "bool"
        }
      ],
      "name": "setApprovalForAll",
      "outputs": [],
      "stateMutability": "nonpayable",
      "type": "function"
    },
    {
      "inputs": [
        {
          "internalType": "string",
          "name": "newuri",
          "type": "string"
        }
      ],
      "name": "setURI",
      "outputs": [],
      "stateMutability": "nonpayable",
      "type": "function"
    },
    {
      "inputs": [
        {
          "internalType": "bytes4",
          "name": "interfaceId",
          "type": "bytes4"
        }
      ],
      "name": "supportsInterface",
      "outputs": [
        {
          "internalType": "bool",
          "name": "",
          "type": "bool"
        }
      ],
      "stateMutability": "view",
      "type": "function"
    },
    {
      "inputs": [
        {
          "internalType": "uint256",
          "name": "",
          "type": "uint256"
        }
      ],
      "name": "uri",
      "outputs": [
        {
          "internalType": "string",
          "name": "",
          "type": "string"
        }
      ],
      "stateMutability": "view",
      "type": "function"
    }
  ],
  "transactionHash": "0x11dc8d3c8c5f52ebd5d9e9fdcd67f1db1101aebec8a0d61907f1804cfc33be73",
  "args": [],
  "numDeployments": 1,
  "solcInputHash": "28db2ba31c7c1d3b527dd39b08626cc2",
  "bytecode": "0x60806040523480156200001157600080fd5b506200001c62000022565b62000152565b6200002e60ff62000031565b50565b60008054610100900460ff1615620000ca578160ff1660011480156200006a575062000068306200014360201b62000a361760201c565b155b620000c25760405162461bcd60e51b815260206004820152602e60248201526000805160206200293f83398151915260448201526d191e481a5b9a5d1a585b1a5e995960921b60648201526084015b60405180910390fd5b506000919050565b60005460ff808416911610620001295760405162461bcd60e51b815260206004820152602e60248201526000805160206200293f83398151915260448201526d191e481a5b9a5d1a585b1a5e995960921b6064820152608401620000b9565b506000805460ff191660ff92909216919091179055600190565b6001600160a01b03163b151590565b6127dd80620001626000396000f3fe608060405234801561001057600080fd5b50600436106101415760003560e01c8063529cc129116100b8578063a22cb4651161007c578063a22cb465146102ba578063d547741f146102cd578063e985e9c5146102e0578063f242432a1461031c578063f399e22e1461032f578063f5298aca1461034257600080fd5b8063529cc129146102665780636b20c45414610279578063731133e91461028c57806391d148541461029f578063a217fddf146102b257600080fd5b8063248a9ca31161010a578063248a9ca3146101d7578063261707fa146101fa5780632eb2c2d61461020d5780632f2ff15d1461022057806336568abe146102335780634e1273f41461024657600080fd5b8062fdd58e1461014657806301ffc9a71461016c57806302fe53051461018f5780630e89341c146101a45780631f7fdffa146101c4575b600080fd5b610159610154366004611a7d565b610355565b6040519081526020015b60405180910390f35b61017f61017a366004611abd565b6103ee565b6040519015158152602001610163565b6101a261019d366004611b22565b6103ff565b005b6101b76101b2366004611b63565b61046d565b6040516101639190611bd4565b6101a26101d2366004611d30565b610501565b6101596101e5366004611b63565b600090815260c9602052604090206001015490565b6101a2610208366004611dc8565b61052c565b6101a261021b366004611de3565b610553565b6101a261022e366004611e8c565b6105e3565b6101a2610241366004611e8c565b610608565b610259610254366004611eb8565b610682565b6040516101639190611fbd565b6101a2610274366004611dc8565b6107ab565b6101a2610287366004611fd0565b6107e0565b6101a261029a366004612043565b610823565b61017f6102ad366004611e8c565b610847565b610159600081565b6101a26102c8366004612097565b610872565b6101a26102db366004611e8c565b61087d565b61017f6102ee3660046120d3565b6001600160a01b03918216600090815260666020908152604080832093909416825291909152205460ff1690565b6101a261032a3660046120fd565b6108a2565b6101a261033d366004612161565b6108e7565b6101a26103503660046121b3565b6109f3565b60006001600160a01b0383166103c65760405162461bcd60e51b815260206004820152602b60248201527f455243313135353a2062616c616e636520717565727920666f7220746865207a60448201526a65726f206164647265737360a81b60648201526084015b60405180910390fd5b5060009081526065602090815260408083206001600160a01b03949094168352929052205490565b60006103f982610a45565b92915050565b7f8e6595ef9afb2a8f70320f393f567bb7a0e6c4ed483caee30f90cc5fcd6659b461042981610a6a565b61046883838080601f016020809104026020016040519081016040528093929190818152602001838380828437600092019190915250610a7792505050565b505050565b60606067805461047c906121e6565b80601f01602080910402602001604051908101604052809291908181526020018280546104a8906121e6565b80156104f55780601f106104ca576101008083540402835291602001916104f5565b820191906000526020600020905b8154815290600101906020018083116104d857829003601f168201915b50505050509050919050565b60008051602061278883398151915261051981610a6a565b61052585858585610a8a565b5050505050565b600061053781610a6a565b61054f60008051602061278883398151915283610bd6565b5050565b6001600160a01b03851633148061056f575061056f85336102ee565b6105d65760405162461bcd60e51b815260206004820152603260248201527f455243313135353a207472616e736665722063616c6c6572206973206e6f74206044820152711bdddb995c881b9bdc88185c1c1c9bdd995960721b60648201526084016103bd565b6105258585858585610c5c565b600082815260c960205260409020600101546105fe81610a6a565b6104688383610bd6565b6001600160a01b03811633146106785760405162461bcd60e51b815260206004820152602f60248201527f416363657373436f6e74726f6c3a2063616e206f6e6c792072656e6f756e636560448201526e103937b632b9903337b91039b2b63360891b60648201526084016103bd565b61054f8282610dfb565b606081518351146106e75760405162461bcd60e51b815260206004820152602960248201527f455243313135353a206163636f756e747320616e6420696473206c656e677468604482015268040dad2e6dac2e8c6d60bb1b60648201526084016103bd565b600083516001600160401b0381111561070257610702611be7565b60405190808252806020026020018201604052801561072b578160200160208202803683370190505b50905060005b84518110156107a35761077685828151811061074f5761074f612221565b602002602001015185838151811061076957610769612221565b6020026020010151610355565b82828151811061078857610788612221565b602090810291909101015261079c8161224d565b9050610731565b509392505050565b60006107b681610a6a565b61054f7f8e6595ef9afb2a8f70320f393f567bb7a0e6c4ed483caee30f90cc5fcd6659b483610bd6565b6001600160a01b0383163314806107fc57506107fc83336102ee565b6108185760405162461bcd60e51b81526004016103bd90612268565b610468838383610e62565b60008051602061278883398151915261083b81610a6a565b61052585858585610fef565b600091825260c9602090815260408084206001600160a01b0393909316845291905290205460ff1690565b61054f3383836110cb565b600082815260c9602052604090206001015461089881610a6a565b6104688383610dfb565b6001600160a01b0385163314806108be57506108be85336102ee565b6108da5760405162461bcd60e51b81526004016103bd90612268565b61052585858585856111ac565b60006108f360016112da565b9050801561090b576000805461ff0019166101001790555b61094a83838080601f01602080910402602001604051908101604052809392919081815260200183838082843760009201919091525061136792505050565b610952611397565b61095a611397565b610965600085610bd6565b61097d60008051602061278883398151915285610bd6565b6109a77f8e6595ef9afb2a8f70320f393f567bb7a0e6c4ed483caee30f90cc5fcd6659b485610bd6565b80156109ed576000805461ff0019169055604051600181527f7f26b83ff96e1f2b6a682f133852f6798a09c465da95921460cefb38474024989060200160405180910390a15b50505050565b6001600160a01b038316331480610a0f5750610a0f83336102ee565b610a2b5760405162461bcd60e51b81526004016103bd90612268565b6104688383836113c0565b6001600160a01b03163b151590565b60006001600160e01b03198216637965db0b60e01b14806103f957506103f9826114c7565b610a748133611517565b50565b805161054f9060679060208401906119cd565b6001600160a01b038416610ab05760405162461bcd60e51b81526004016103bd906122b1565b8151835114610ad15760405162461bcd60e51b81526004016103bd906122f2565b3360005b8451811015610b6e57838181518110610af057610af0612221565b602002602001015160656000878481518110610b0e57610b0e612221565b602002602001015181526020019081526020016000206000886001600160a01b03166001600160a01b031681526020019081526020016000206000828254610b56919061233a565b90915550819050610b668161224d565b915050610ad5565b50846001600160a01b031660006001600160a01b0316826001600160a01b03167f4a39dc06d4c0dbc64b70af90fd698a233a518aa5d07e595d983b8c0526c8f7fb8787604051610bbf929190612352565b60405180910390a46105258160008787878761157b565b610be08282610847565b61054f57600082815260c9602090815260408083206001600160a01b03851684529091529020805460ff19166001179055610c183390565b6001600160a01b0316816001600160a01b0316837f2f8788117e7eff1d82e926ec794901d17c78024a50270940304540a733656f0d60405160405180910390a45050565b8151835114610c7d5760405162461bcd60e51b81526004016103bd906122f2565b6001600160a01b038416610ca35760405162461bcd60e51b81526004016103bd90612380565b3360005b8451811015610d8d576000858281518110610cc457610cc4612221565b602002602001015190506000858381518110610ce257610ce2612221565b60209081029190910181015160008481526065835260408082206001600160a01b038e168352909352919091205490915081811015610d335760405162461bcd60e51b81526004016103bd906123c5565b60008381526065602090815260408083206001600160a01b038e8116855292528083208585039055908b16825281208054849290610d7290849061233a565b9250508190555050505080610d869061224d565b9050610ca7565b50846001600160a01b0316866001600160a01b0316826001600160a01b03167f4a39dc06d4c0dbc64b70af90fd698a233a518aa5d07e595d983b8c0526c8f7fb8787604051610ddd929190612352565b60405180910390a4610df381878787878761157b565b505050505050565b610e058282610847565b1561054f57600082815260c9602090815260408083206001600160a01b0385168085529252808320805460ff1916905551339285917ff6391f5c32d9c69d2a47ea670b442974b53935d1edc7fd64eb21e047a839171b9190a45050565b6001600160a01b038316610e885760405162461bcd60e51b81526004016103bd9061240f565b8051825114610ea95760405162461bcd60e51b81526004016103bd906122f2565b604080516020810190915260009081905233905b8351811015610f82576000848281518110610eda57610eda612221565b602002602001015190506000848381518110610ef857610ef8612221565b60209081029190910181015160008481526065835260408082206001600160a01b038c168352909352919091205490915081811015610f495760405162461bcd60e51b81526004016103bd90612452565b60009283526065602090815260408085206001600160a01b038b1686529091529092209103905580610f7a8161224d565b915050610ebd565b5060006001600160a01b0316846001600160a01b0316826001600160a01b03167f4a39dc06d4c0dbc64b70af90fd698a233a518aa5d07e595d983b8c0526c8f7fb8686604051610fd3929190612352565b60405180910390a46040805160208101909152600090526109ed565b6001600160a01b0384166110155760405162461bcd60e51b81526004016103bd906122b1565b336000611021856116e6565b9050600061102e856116e6565b905060008681526065602090815260408083206001600160a01b038b1684529091528120805487929061106290849061233a565b909155505060408051878152602081018790526001600160a01b03808a1692600092918716917fc3d58168c5ae7397731d063d5bbf3d657854427343f4c083240f7aacaa2d0f62910160405180910390a46110c283600089898989611731565b50505050505050565b816001600160a01b0316836001600160a01b0316141561113f5760405162461bcd60e51b815260206004820152602960248201527f455243313135353a2073657474696e6720617070726f76616c20737461747573604482015268103337b91039b2b63360b91b60648201526084016103bd565b6001600160a01b03838116600081815260666020908152604080832094871680845294825291829020805460ff191686151590811790915591519182527f17307eab39ab6107e8899845ad3d59bd9653f200f220920489ca2b5937696c31910160405180910390a3505050565b6001600160a01b0384166111d25760405162461bcd60e51b81526004016103bd90612380565b3360006111de856116e6565b905060006111eb856116e6565b905060008681526065602090815260408083206001600160a01b038c168452909152902054858110156112305760405162461bcd60e51b81526004016103bd906123c5565b60008781526065602090815260408083206001600160a01b038d8116855292528083208985039055908a1682528120805488929061126f90849061233a565b909155505060408051888152602081018890526001600160a01b03808b16928c821692918816917fc3d58168c5ae7397731d063d5bbf3d657854427343f4c083240f7aacaa2d0f62910160405180910390a46112cf848a8a8a8a8a611731565b505050505050505050565b60008054610100900460ff1615611321578160ff1660011480156112fd5750303b155b6113195760405162461bcd60e51b81526004016103bd90612496565b506000919050565b60005460ff8084169116106113485760405162461bcd60e51b81526004016103bd90612496565b506000805460ff191660ff92909216919091179055600190565b919050565b600054610100900460ff1661138e5760405162461bcd60e51b81526004016103bd906124e4565b610a74816117fb565b600054610100900460ff166113be5760405162461bcd60e51b81526004016103bd906124e4565b565b6001600160a01b0383166113e65760405162461bcd60e51b81526004016103bd9061240f565b3360006113f2846116e6565b905060006113ff846116e6565b6040805160208082018352600091829052888252606581528282206001600160a01b038b168352905220549091508481101561144d5760405162461bcd60e51b81526004016103bd90612452565b60008681526065602090815260408083206001600160a01b038b81168086529184528285208a8703905582518b81529384018a90529092908816917fc3d58168c5ae7397731d063d5bbf3d657854427343f4c083240f7aacaa2d0f62910160405180910390a46040805160208101909152600090526110c2565b60006001600160e01b03198216636cdb3d1360e11b14806114f857506001600160e01b031982166303a24d0760e21b145b806103f957506301ffc9a760e01b6001600160e01b03198316146103f9565b6115218282610847565b61054f57611539816001600160a01b0316601461182b565b61154483602061182b565b60405160200161155592919061252f565b60408051601f198184030181529082905262461bcd60e51b82526103bd91600401611bd4565b6001600160a01b0384163b15610df35760405163bc197c8160e01b81526001600160a01b0385169063bc197c81906115bf90899089908890889088906004016125a4565b602060405180830381600087803b1580156115d957600080fd5b505af1925050508015611609575060408051601f3d908101601f1916820190925261160691810190612602565b60015b6116b65761161561261f565b806308c379a0141561164f575061162a61263b565b806116355750611651565b8060405162461bcd60e51b81526004016103bd9190611bd4565b505b60405162461bcd60e51b815260206004820152603460248201527f455243313135353a207472616e7366657220746f206e6f6e20455243313135356044820152732932b1b2b4bb32b91034b6b83632b6b2b73a32b960611b60648201526084016103bd565b6001600160e01b0319811663bc197c8160e01b146110c25760405162461bcd60e51b81526004016103bd906126c4565b6040805160018082528183019092526060916000919060208083019080368337019050509050828160008151811061172057611720612221565b602090810291909101015292915050565b6001600160a01b0384163b15610df35760405163f23a6e6160e01b81526001600160a01b0385169063f23a6e6190611775908990899088908890889060040161270c565b602060405180830381600087803b15801561178f57600080fd5b505af19250505080156117bf575060408051601f3d908101601f191682019092526117bc91810190612602565b60015b6117cb5761161561261f565b6001600160e01b0319811663f23a6e6160e01b146110c25760405162461bcd60e51b81526004016103bd906126c4565b600054610100900460ff166118225760405162461bcd60e51b81526004016103bd906124e4565b610a7481610a77565b6060600061183a836002612751565b61184590600261233a565b6001600160401b0381111561185c5761185c611be7565b6040519080825280601f01601f191660200182016040528015611886576020820181803683370190505b509050600360fc1b816000815181106118a1576118a1612221565b60200101906001600160f81b031916908160001a905350600f60fb1b816001815181106118d0576118d0612221565b60200101906001600160f81b031916908160001a90535060006118f4846002612751565b6118ff90600161233a565b90505b6001811115611977576f181899199a1a9b1b9c1cb0b131b232b360811b85600f166010811061193357611933612221565b1a60f81b82828151811061194957611949612221565b60200101906001600160f81b031916908160001a90535060049490941c9361197081612770565b9050611902565b5083156119c65760405162461bcd60e51b815260206004820181905260248201527f537472696e67733a20686578206c656e67746820696e73756666696369656e7460448201526064016103bd565b9392505050565b8280546119d9906121e6565b90600052602060002090601f0160209004810192826119fb5760008555611a41565b82601f10611a1457805160ff1916838001178555611a41565b82800160010185558215611a41579182015b82811115611a41578251825591602001919060010190611a26565b50611a4d929150611a51565b5090565b5b80821115611a4d5760008155600101611a52565b80356001600160a01b038116811461136257600080fd5b60008060408385031215611a9057600080fd5b611a9983611a66565b946020939093013593505050565b6001600160e01b031981168114610a7457600080fd5b600060208284031215611acf57600080fd5b81356119c681611aa7565b60008083601f840112611aec57600080fd5b5081356001600160401b03811115611b0357600080fd5b602083019150836020828501011115611b1b57600080fd5b9250929050565b60008060208385031215611b3557600080fd5b82356001600160401b03811115611b4b57600080fd5b611b5785828601611ada565b90969095509350505050565b600060208284031215611b7557600080fd5b5035919050565b60005b83811015611b97578181015183820152602001611b7f565b838111156109ed5750506000910152565b60008151808452611bc0816020860160208601611b7c565b601f01601f19169290920160200192915050565b6020815260006119c66020830184611ba8565b634e487b7160e01b600052604160045260246000fd5b601f8201601f191681016001600160401b0381118282101715611c2257611c22611be7565b6040525050565b60006001600160401b03821115611c4257611c42611be7565b5060051b60200190565b600082601f830112611c5d57600080fd5b81356020611c6a82611c29565b604051611c778282611bfd565b83815260059390931b8501820192828101915086841115611c9757600080fd5b8286015b84811015611cb25780358352918301918301611c9b565b509695505050505050565b600082601f830112611cce57600080fd5b81356001600160401b03811115611ce757611ce7611be7565b604051611cfe601f8301601f191660200182611bfd565b818152846020838601011115611d1357600080fd5b816020850160208301376000918101602001919091529392505050565b60008060008060808587031215611d4657600080fd5b611d4f85611a66565b935060208501356001600160401b0380821115611d6b57600080fd5b611d7788838901611c4c565b94506040870135915080821115611d8d57600080fd5b611d9988838901611c4c565b93506060870135915080821115611daf57600080fd5b50611dbc87828801611cbd565b91505092959194509250565b600060208284031215611dda57600080fd5b6119c682611a66565b600080600080600060a08688031215611dfb57600080fd5b611e0486611a66565b9450611e1260208701611a66565b935060408601356001600160401b0380821115611e2e57600080fd5b611e3a89838a01611c4c565b94506060880135915080821115611e5057600080fd5b611e5c89838a01611c4c565b93506080880135915080821115611e7257600080fd5b50611e7f88828901611cbd565b9150509295509295909350565b60008060408385031215611e9f57600080fd5b82359150611eaf60208401611a66565b90509250929050565b60008060408385031215611ecb57600080fd5b82356001600160401b0380821115611ee257600080fd5b818501915085601f830112611ef657600080fd5b81356020611f0382611c29565b604051611f108282611bfd565b83815260059390931b8501820192828101915089841115611f3057600080fd5b948201945b83861015611f5557611f4686611a66565b82529482019490820190611f35565b96505086013592505080821115611f6b57600080fd5b50611f7885828601611c4c565b9150509250929050565b600081518084526020808501945080840160005b83811015611fb257815187529582019590820190600101611f96565b509495945050505050565b6020815260006119c66020830184611f82565b600080600060608486031215611fe557600080fd5b611fee84611a66565b925060208401356001600160401b038082111561200a57600080fd5b61201687838801611c4c565b9350604086013591508082111561202c57600080fd5b5061203986828701611c4c565b9150509250925092565b6000806000806080858703121561205957600080fd5b61206285611a66565b9350602085013592506040850135915060608501356001600160401b0381111561208b57600080fd5b611dbc87828801611cbd565b600080604083850312156120aa57600080fd5b6120b383611a66565b9150602083013580151581146120c857600080fd5b809150509250929050565b600080604083850312156120e657600080fd5b6120ef83611a66565b9150611eaf60208401611a66565b600080600080600060a0868803121561211557600080fd5b61211e86611a66565b945061212c60208701611a66565b9350604086013592506060860135915060808601356001600160401b0381111561215557600080fd5b611e7f88828901611cbd565b60008060006040848603121561217657600080fd5b61217f84611a66565b925060208401356001600160401b0381111561219a57600080fd5b6121a686828701611ada565b9497909650939450505050565b6000806000606084860312156121c857600080fd5b6121d184611a66565b95602085013595506040909401359392505050565b600181811c908216806121fa57607f821691505b6020821081141561221b57634e487b7160e01b600052602260045260246000fd5b50919050565b634e487b7160e01b600052603260045260246000fd5b634e487b7160e01b600052601160045260246000fd5b600060001982141561226157612261612237565b5060010190565b60208082526029908201527f455243313135353a2063616c6c6572206973206e6f74206f776e6572206e6f7260408201526808185c1c1c9bdd995960ba1b606082015260800190565b60208082526021908201527f455243313135353a206d696e7420746f20746865207a65726f206164647265736040820152607360f81b606082015260800190565b60208082526028908201527f455243313135353a2069647320616e6420616d6f756e7473206c656e677468206040820152670dad2e6dac2e8c6d60c31b606082015260800190565b6000821982111561234d5761234d612237565b500190565b6040815260006123656040830185611f82565b82810360208401526123778185611f82565b95945050505050565b60208082526025908201527f455243313135353a207472616e7366657220746f20746865207a65726f206164604082015264647265737360d81b606082015260800190565b6020808252602a908201527f455243313135353a20696e73756666696369656e742062616c616e636520666f60408201526939103a3930b739b332b960b11b606082015260800190565b60208082526023908201527f455243313135353a206275726e2066726f6d20746865207a65726f206164647260408201526265737360e81b606082015260800190565b60208082526024908201527f455243313135353a206275726e20616d6f756e7420657863656564732062616c604082015263616e636560e01b606082015260800190565b6020808252602e908201527f496e697469616c697a61626c653a20636f6e747261637420697320616c72656160408201526d191e481a5b9a5d1a585b1a5e995960921b606082015260800190565b6020808252602b908201527f496e697469616c697a61626c653a20636f6e7472616374206973206e6f74206960408201526a6e697469616c697a696e6760a81b606082015260800190565b7f416363657373436f6e74726f6c3a206163636f756e7420000000000000000000815260008351612567816017850160208801611b7c565b7001034b99036b4b9b9b4b733903937b6329607d1b6017918401918201528351612598816028840160208801611b7c565b01602801949350505050565b6001600160a01b0386811682528516602082015260a0604082018190526000906125d090830186611f82565b82810360608401526125e28186611f82565b905082810360808401526125f68185611ba8565b98975050505050505050565b60006020828403121561261457600080fd5b81516119c681611aa7565b600060033d11156126385760046000803e5060005160e01c5b90565b600060443d10156126495790565b6040516003193d81016004833e81513d6001600160401b03816024840111818411171561267857505050505090565b82850191508151818111156126905750505050505090565b843d87010160208285010111156126aa5750505050505090565b6126b960208286010187611bfd565b509095945050505050565b60208082526028908201527f455243313135353a204552433131353552656365697665722072656a656374656040820152676420746f6b656e7360c01b606082015260800190565b6001600160a01b03868116825285166020820152604081018490526060810183905260a06080820181905260009061274690830184611ba8565b979650505050505050565b600081600019048311821515161561276b5761276b612237565b500290565b60008161277f5761277f612237565b50600019019056fe9f2df0fed2c77648de5860a4cc508cd0818c85b8b8a1ab4ceeef8d981c8956a6a26469706673582212205fc98c24c0d5974e862891156acdd61771620dc399195ffe1698eebb26104b0364736f6c63430008090033496e697469616c697a61626c653a20636f6e747261637420697320616c726561",
  "devdoc": {
    "kind": "dev",
    "methods": {
      "balanceOf(address,uint256)": {
        "details": "See {IERC1155-balanceOf}. Requirements: - `account` cannot be the zero address."
      },
      "balanceOfBatch(address[],uint256[])": {
        "details": "See {IERC1155-balanceOfBatch}. Requirements: - `accounts` and `ids` must have the same length."
      },
      "constructor": {
        "custom:oz-upgrades-unsafe-allow": "constructor"
      },
      "getRoleAdmin(bytes32)": {
        "details": "Returns the admin role that controls `role`. See {grantRole} and {revokeRole}. To change a role's admin, use {_setRoleAdmin}."
      },
      "grantMinter(address)": {
        "details": "Grants MINTER_ROLE to {a}",
        "params": {
          "to": "address to"
        }
      },
      "grantRole(bytes32,address)": {
        "details": "Grants `role` to `account`. If `account` had not been already granted `role`, emits a {RoleGranted} event. Requirements: - the caller must have ``role``'s admin role."
      },
      "grantUriRole(address)": {
        "details": "Grants URI_ROLE to {a}",
        "params": {
          "to": "address to"
        }
      },
      "hasRole(bytes32,address)": {
        "details": "Returns `true` if `account` has been granted `role`."
      },
      "isApprovedForAll(address,address)": {
        "details": "See {IERC1155-isApprovedForAll}."
      },
      "mint(address,uint256,uint256,bytes)": {
        "details": "Allows MINTER_ROLE to mint NFTs",
        "params": {
          "amount": "to mint",
          "data": "for hooks",
          "id": "tokenId value",
          "to": "address to"
        }
      },
      "mintBatch(address,uint256[],uint256[],bytes)": {
        "details": "Allows caller to mint NFTs (safeMint)",
        "params": {
          "amounts": "to mint",
          "data": "for hooks",
          "ids": "id values",
          "to": "address to"
        }
      },
      "renounceRole(bytes32,address)": {
        "details": "Revokes `role` from the calling account. Roles are often managed via {grantRole} and {revokeRole}: this function's purpose is to provide a mechanism for accounts to lose their privileges if they are compromised (such as when a trusted device is misplaced). If the calling account had been revoked `role`, emits a {RoleRevoked} event. Requirements: - the caller must be `account`."
      },
      "revokeRole(bytes32,address)": {
        "details": "Revokes `role` from `account`. If `account` had been granted `role`, emits a {RoleRevoked} event. Requirements: - the caller must have ``role``'s admin role."
      },
      "safeBatchTransferFrom(address,address,uint256[],uint256[],bytes)": {
        "details": "See {IERC1155-safeBatchTransferFrom}."
      },
      "safeTransferFrom(address,address,uint256,uint256,bytes)": {
        "details": "See {IERC1155-safeTransferFrom}."
      },
      "setApprovalForAll(address,bool)": {
        "details": "See {IERC1155-setApprovalForAll}."
      },
      "setURI(string)": {
        "details": "Allows setting the uri",
        "params": {
          "newuri": "set the baseURI value."
        }
      },
      "uri(uint256)": {
        "details": "See {IERC1155MetadataURI-uri}. This implementation returns the same URI for *all* token types. It relies on the token type ID substitution mechanism https://eips.ethereum.org/EIPS/eip-1155#metadata[defined in the EIP]. Clients calling this function must replace the `\\{id\\}` substring with the actual token type ID."
      }
    },
    "version": 1
  },
  "userdoc": {
    "kind": "user",
    "methods": {
      "grantMinter(address)": {
        "notice": "Must have DEFAULT_ADMIN_ROLE"
      },
      "grantUriRole(address)": {
        "notice": "Must have DEFAULT_ADMIN_ROLE"
      },
      "mint(address,uint256,uint256,bytes)": {
        "notice": "Must have MINTER_ROLE"
      },
      "mintBatch(address,uint256[],uint256[],bytes)": {
        "notice": "Must have MINTER_ROLE"
      },
      "setURI(string)": {
        "notice": "Must have URI_ROLE role!"
      }
    },
    "version": 1
  },
  "storageLayout": {
    "storage": [
      {
        "astId": 623,
        "contract": "contracts/assets/ERC1155/ERC1155Owl.sol:ERC1155Owl",
        "label": "_initialized",
        "offset": 0,
        "slot": "0",
        "type": "t_uint8"
      },
      {
        "astId": 626,
        "contract": "contracts/assets/ERC1155/ERC1155Owl.sol:ERC1155Owl",
        "label": "_initializing",
        "offset": 1,
        "slot": "0",
        "type": "t_bool"
      },
      {
        "astId": 4830,
        "contract": "contracts/assets/ERC1155/ERC1155Owl.sol:ERC1155Owl",
        "label": "__gap",
        "offset": 0,
        "slot": "1",
        "type": "t_array(t_uint256)50_storage"
      },
      {
        "astId": 5077,
        "contract": "contracts/assets/ERC1155/ERC1155Owl.sol:ERC1155Owl",
        "label": "__gap",
        "offset": 0,
        "slot": "51",
        "type": "t_array(t_uint256)50_storage"
      },
      {
        "astId": 787,
        "contract": "contracts/assets/ERC1155/ERC1155Owl.sol:ERC1155Owl",
        "label": "_balances",
        "offset": 0,
        "slot": "101",
        "type": "t_mapping(t_uint256,t_mapping(t_address,t_uint256))"
      },
      {
        "astId": 793,
        "contract": "contracts/assets/ERC1155/ERC1155Owl.sol:ERC1155Owl",
        "label": "_operatorApprovals",
        "offset": 0,
        "slot": "102",
        "type": "t_mapping(t_address,t_mapping(t_address,t_bool))"
      },
      {
        "astId": 795,
        "contract": "contracts/assets/ERC1155/ERC1155Owl.sol:ERC1155Owl",
        "label": "_uri",
        "offset": 0,
        "slot": "103",
        "type": "t_string_storage"
      },
      {
        "astId": 2002,
        "contract": "contracts/assets/ERC1155/ERC1155Owl.sol:ERC1155Owl",
        "label": "__gap",
        "offset": 0,
        "slot": "104",
        "type": "t_array(t_uint256)47_storage"
      },
      {
        "astId": 2254,
        "contract": "contracts/assets/ERC1155/ERC1155Owl.sol:ERC1155Owl",
        "label": "__gap",
        "offset": 0,
        "slot": "151",
        "type": "t_array(t_uint256)50_storage"
      },
      {
        "astId": 39,
        "contract": "contracts/assets/ERC1155/ERC1155Owl.sol:ERC1155Owl",
        "label": "_roles",
        "offset": 0,
        "slot": "201",
        "type": "t_mapping(t_bytes32,t_struct(RoleData)34_storage)"
      },
      {
        "astId": 338,
        "contract": "contracts/assets/ERC1155/ERC1155Owl.sol:ERC1155Owl",
        "label": "__gap",
        "offset": 0,
        "slot": "202",
        "type": "t_array(t_uint256)49_storage"
      }
    ],
    "types": {
      "t_address": {
        "encoding": "inplace",
        "label": "address",
        "numberOfBytes": "20"
      },
      "t_array(t_uint256)47_storage": {
        "base": "t_uint256",
        "encoding": "inplace",
        "label": "uint256[47]",
        "numberOfBytes": "1504"
      },
      "t_array(t_uint256)49_storage": {
        "base": "t_uint256",
        "encoding": "inplace",
        "label": "uint256[49]",
        "numberOfBytes": "1568"
      },
      "t_array(t_uint256)50_storage": {
        "base": "t_uint256",
        "encoding": "inplace",
        "label": "uint256[50]",
        "numberOfBytes": "1600"
      },
      "t_bool": {
        "encoding": "inplace",
        "label": "bool",
        "numberOfBytes": "1"
      },
      "t_bytes32": {
        "encoding": "inplace",
        "label": "bytes32",
        "numberOfBytes": "32"
      },
      "t_mapping(t_address,t_bool)": {
        "encoding": "mapping",
        "key": "t_address",
        "label": "mapping(address => bool)",
        "numberOfBytes": "32",
        "value": "t_bool"
      },
      "t_mapping(t_address,t_mapping(t_address,t_bool))": {
        "encoding": "mapping",
        "key": "t_address",
        "label": "mapping(address => mapping(address => bool))",
        "numberOfBytes": "32",
        "value": "t_mapping(t_address,t_bool)"
      },
      "t_mapping(t_address,t_uint256)": {
        "encoding": "mapping",
        "key": "t_address",
        "label": "mapping(address => uint256)",
        "numberOfBytes": "32",
        "value": "t_uint256"
      },
      "t_mapping(t_bytes32,t_struct(RoleData)34_storage)": {
        "encoding": "mapping",
        "key": "t_bytes32",
        "label": "mapping(bytes32 => struct AccessControlUpgradeable.RoleData)",
        "numberOfBytes": "32",
        "value": "t_struct(RoleData)34_storage"
      },
      "t_mapping(t_uint256,t_mapping(t_address,t_uint256))": {
        "encoding": "mapping",
        "key": "t_uint256",
        "label": "mapping(uint256 => mapping(address => uint256))",
        "numberOfBytes": "32",
        "value": "t_mapping(t_address,t_uint256)"
      },
      "t_string_storage": {
        "encoding": "bytes",
        "label": "string",
        "numberOfBytes": "32"
      },
      "t_struct(RoleData)34_storage": {
        "encoding": "inplace",
        "label": "struct AccessControlUpgradeable.RoleData",
        "members": [
          {
            "astId": 31,
            "contract": "contracts/assets/ERC1155/ERC1155Owl.sol:ERC1155Owl",
            "label": "members",
            "offset": 0,
            "slot": "0",
            "type": "t_mapping(t_address,t_bool)"
          },
          {
            "astId": 33,
            "contract": "contracts/assets/ERC1155/ERC1155Owl.sol:ERC1155Owl",
            "label": "adminRole",
            "offset": 0,
            "slot": "1",
            "type": "t_bytes32"
          }
        ],
        "numberOfBytes": "64"
      },
      "t_uint256": {
        "encoding": "inplace",
        "label": "uint256",
        "numberOfBytes": "32"
      },
      "t_uint8": {
        "encoding": "inplace",
        "label": "uint8",
        "numberOfBytes": "1"
      }
    }
  }
}