{
  "_format": "hh-sol-artifact-1",
  "contractName": "MintGuardAllowlist",
  "sourceName": "contracts/Minter/modules/MintGuard/builds/MintGuardAllowlist.sol",
  "abi": [
    {
      "anonymous": false,
      "inputs": [
        {
          "indexed": false,
          "internalType": "address",
          "name": "minterContract",
          "type": "address"
        },
        {
          "indexed": false,
          "internalType": "uint256",
          "name": "speciesId",
          "type": "uint256"
        },
        {
          "indexed": false,
          "internalType": "address",
          "name": "user",
          "type": "address"
        }
      ],
      "name": "AddAllowedUser",
      "type": "event"
    },
    {
      "anonymous": false,
      "inputs": [
        {
          "indexed": false,
          "internalType": "address",
          "name": "minterContract",
          "type": "address"
        },
        {
          "indexed": false,
          "internalType": "uint256",
          "name": "speciesId",
          "type": "uint256"
        },
        {
          "indexed": false,
          "internalType": "address",
          "name": "user",
          "type": "address"
        }
      ],
      "name": "RemoveAllowedUser",
      "type": "event"
    },
    {
      "inputs": [
        {
          "internalType": "address",
          "name": "minterContract",
          "type": "address"
        },
        {
          "internalType": "uint256",
          "name": "speciesId",
          "type": "uint256"
        },
        {
          "internalType": "address",
          "name": "user",
          "type": "address"
        }
      ],
      "name": "addAllowedUser",
      "outputs": [],
      "stateMutability": "nonpayable",
      "type": "function"
    },
    {
      "inputs": [
        {
          "internalType": "uint256",
          "name": "speciesId",
          "type": "uint256"
        },
        {
          "internalType": "address",
          "name": "user",
          "type": "address"
        }
      ],
      "name": "allowMint",
      "outputs": [
        {
          "internalType": "bool",
          "name": "",
          "type": "bool"
        }
      ],
      "stateMutability": "view",
      "type": "function"
    },
    {
      "inputs": [
        {
          "internalType": "address",
          "name": "minterContract",
          "type": "address"
        },
        {
          "internalType": "uint256",
          "name": "speciesId",
          "type": "uint256"
        },
        {
          "internalType": "address",
          "name": "user",
          "type": "address"
        }
      ],
      "name": "removeAllowedUser",
      "outputs": [],
      "stateMutability": "nonpayable",
      "type": "function"
    },
    {
      "inputs": [
        {
          "internalType": "bytes4",
          "name": "interfaceId",
          "type": "bytes4"
        }
      ],
      "name": "supportsInterface",
      "outputs": [
        {
          "internalType": "bool",
          "name": "",
          "type": "bool"
        }
      ],
      "stateMutability": "view",
      "type": "function"
    }
  ],
  "bytecode": "0x608060405234801561001057600080fd5b50610896806100206000396000f3fe608060405234801561001057600080fd5b506004361061004c5760003560e01c806301ffc9a7146100515780631f22011b14610081578063a2ab1719146100b1578063b166b89d146100cd575b600080fd5b61006b6004803603810190610066919061062b565b6100e9565b6040516100789190610717565b60405180910390f35b61009b60048036038101906100969190610654565b610153565b6040516100a89190610717565b60405180910390f35b6100cb60048036038101906100c691906105dc565b6101ac565b005b6100e760048036038101906100e291906105dc565b610354565b005b60007f01ffc9a7000000000000000000000000000000000000000000000000000000007bffffffffffffffffffffffffffffffffffffffffffffffffffffffff1916827bffffffffffffffffffffffffffffffffffffffffffffffffffffffff1916149050919050565b60008033848460405160200161016b939291906106e0565b60405160208183030381529060405280519060200120905060008082815260200190815260200160002060009054906101000a900460ff1691505092915050565b828260008273ffffffffffffffffffffffffffffffffffffffff16632be6a2a9836040518263ffffffff1660e01b81526004016101e99190610752565b60a06040518083038186803b15801561020157600080fd5b505afa158015610215573d6000803e3d6000fd5b505050506040513d601f19601f820116820180604052508101906102399190610565565b9091929350909150905050809150503373ffffffffffffffffffffffffffffffffffffffff168173ffffffffffffffffffffffffffffffffffffffff16146102b6576040517f08c379a00000000000000000000000000000000000000000000000000000000081526004016102ad90610732565b60405180910390fd5b60008686866040516020016102cd939291906106e0565b604051602081830303815290604052805190602001209050600160008083815260200190815260200160002060006101000a81548160ff0219169083151502179055507ff0c64be7d6de14a2daa1f538dbe9d6447f8714ce3451fc83366958431e7466e6878787604051610343939291906106e0565b60405180910390a150505050505050565b828260008273ffffffffffffffffffffffffffffffffffffffff16632be6a2a9836040518263ffffffff1660e01b81526004016103919190610752565b60a06040518083038186803b1580156103a957600080fd5b505afa1580156103bd573d6000803e3d6000fd5b505050506040513d601f19601f820116820180604052508101906103e19190610565565b9091929350909150905050809150503373ffffffffffffffffffffffffffffffffffffffff168173ffffffffffffffffffffffffffffffffffffffff161461045e576040517f08c379a000000000000000000000000000000000000000000000000000000000815260040161045590610732565b60405180910390fd5b6000868686604051602001610475939291906106e0565b604051602081830303815290604052805190602001209050600080600083815260200190815260200160002060006101000a81548160ff0219169083151502179055507f8265c159ec4ccc320459686416a335d94f59d80ab7b1a9ec22f849a099888e1b8787876040516104eb939291906106e0565b60405180910390a150505050505050565b60008135905061050b8161081b565b92915050565b6000815190506105208161081b565b92915050565b60008135905061053581610832565b92915050565b60008135905061054a81610849565b92915050565b60008151905061055f81610849565b92915050565b600080600080600060a0868803121561057d57600080fd5b600061058b88828901610511565b955050602061059c88828901610511565b94505060406105ad88828901610511565b93505060606105be88828901610550565b92505060806105cf88828901610511565b9150509295509295909350565b6000806000606084860312156105f157600080fd5b60006105ff868287016104fc565b93505060206106108682870161053b565b9250506040610621868287016104fc565b9150509250925092565b60006020828403121561063d57600080fd5b600061064b84828501610526565b91505092915050565b6000806040838503121561066757600080fd5b60006106758582860161053b565b9250506020610686858286016104fc565b9150509250929050565b6106998161077e565b82525050565b6106a881610790565b82525050565b60006106bb600e8361076d565b91506106c6826107f2565b602082019050919050565b6106da816107e8565b82525050565b60006060820190506106f56000830186610690565b61070260208301856106d1565b61070f6040830184610690565b949350505050565b600060208201905061072c600083018461069f565b92915050565b6000602082019050818103600083015261074b816106ae565b9050919050565b600060208201905061076760008301846106d1565b92915050565b600082825260208201905092915050565b6000610789826107c8565b9050919050565b60008115159050919050565b60007fffffffff0000000000000000000000000000000000000000000000000000000082169050919050565b600073ffffffffffffffffffffffffffffffffffffffff82169050919050565b6000819050919050565b7f4e6f7420746865206f776e657221000000000000000000000000000000000000600082015250565b6108248161077e565b811461082f57600080fd5b50565b61083b8161079c565b811461084657600080fd5b50565b610852816107e8565b811461085d57600080fd5b5056fea2646970667358221220d17afefdf52745f44640b0146a7d66b29daf475752d10d0bfd3d3b5392a1318364736f6c63430008040033",
  "linkReferences": {},
  "deployedLinkReferences": {}
}