{
  "contracts/Utils/OZCloneFactory.sol": {
    "OZClonesFactory": {
      "abi": [
        {
          "anonymous": false,
          "inputs": [
            {
              "indexed": false,
              "internalType": "address",
              "name": "instance",
              "type": "address"
            },
            {
              "indexed": false,
              "internalType": "address",
              "name": "implementation",
              "type": "address"
            },
            {
              "indexed": false,
              "internalType": "bytes32",
              "name": "salt",
              "type": "bytes32"
            }
          ],
          "name": "NewClone",
          "type": "event"
        },
        {
          "inputs": [
            {
              "internalType": "address",
              "name": "implementation",
              "type": "address"
            },
            {
              "internalType": "bytes",
              "name": "data",
              "type": "bytes"
            }
          ],
          "name": "clone",
          "outputs": [
            {
              "internalType": "address",
              "name": "instance",
              "type": "address"
            }
          ],
          "stateMutability": "nonpayable",
          "type": "function"
        },
        {
          "inputs": [
            {
              "internalType": "address",
              "name": "implementation",
              "type": "address"
            },
            {
              "internalType": "bytes32",
              "name": "salt",
              "type": "bytes32"
            },
            {
              "internalType": "bytes",
              "name": "data",
              "type": "bytes"
            }
          ],
          "name": "cloneDeterministic",
          "outputs": [
            {
              "internalType": "address",
              "name": "instance",
              "type": "address"
            }
          ],
          "stateMutability": "nonpayable",
          "type": "function"
        },
        {
          "inputs": [
            {
              "internalType": "address",
              "name": "implementation",
              "type": "address"
            },
            {
              "internalType": "bytes32",
              "name": "salt",
              "type": "bytes32"
            }
          ],
          "name": "predictDeterministicAddress",
          "outputs": [
            {
              "internalType": "address",
              "name": "predicted",
              "type": "address"
            }
          ],
          "stateMutability": "view",
          "type": "function"
        }
      ],
      "evm": {
        "bytecode": {
          "linkReferences": {},
          "object": "608060405234801561001057600080fd5b50610a23806100206000396000f3fe608060405234801561001057600080fd5b50600436106100415760003560e01c80630fbe133c14610046578063360d0fad146100765780636e9ebc81146100a6575b600080fd5b610060600480360381019061005b91906105dd565b6100d6565b60405161006d9190610700565b60405180910390f35b610090600480360381019061008b919061053a565b61013c565b60405161009d9190610700565b60405180910390f35b6100c060048036038101906100bb9190610576565b610150565b6040516100cd9190610700565b60405180910390f35b60006100e1836101b5565b90506000825111156100f8576100f7818361028a565b5b7fa8bf987e8fd20c4aae6fff1ca892ea748b539cf0164aefab56c83340007485df81846000801b60405161012e9392919061071b565b60405180910390a192915050565b6000610148838361033c565b905092915050565b600061015c8484610351565b905060008251111561017357610172818361028a565b5b7fa8bf987e8fd20c4aae6fff1ca892ea748b539cf0164aefab56c83340007485df8185856040516101a69392919061071b565b60405180910390a19392505050565b60006040517f3d602d80600a3d3981f3363d3d373d3d3d363d7300000000000000000000000081528260601b60148201527f5af43d82803e903d91602b57fd5bf3000000000000000000000000000000000060288201526037816000f0915050600073ffffffffffffffffffffffffffffffffffffffff168173ffffffffffffffffffffffffffffffffffffffff161415610285576040517f08c379a000000000000000000000000000000000000000000000000000000000815260040161027c90610792565b60405180910390fd5b919050565b60008273ffffffffffffffffffffffffffffffffffffffff16826040516102b191906106e9565b6000604051808303816000865af19150503d80600081146102ee576040519150601f19603f3d011682016040523d82523d6000602084013e6102f3565b606091505b5050905080610337576040517f08c379a000000000000000000000000000000000000000000000000000000000815260040161032e90610752565b60405180910390fd5b505050565b6000610349838330610428565b905092915050565b60006040517f3d602d80600a3d3981f3363d3d373d3d3d363d7300000000000000000000000081528360601b60148201527f5af43d82803e903d91602b57fd5bf300000000000000000000000000000000006028820152826037826000f5915050600073ffffffffffffffffffffffffffffffffffffffff168173ffffffffffffffffffffffffffffffffffffffff161415610422576040517f08c379a000000000000000000000000000000000000000000000000000000000815260040161041990610772565b60405180910390fd5b92915050565b60006040517f3d602d80600a3d3981f3363d3d373d3d3d363d7300000000000000000000000081528460601b60148201527f5af43d82803e903d91602b57fd5bf3ff0000000000000000000000000000000060288201528260601b603882015283604c82015260378120606c820152605560378201209150509392505050565b60006104bb6104b6846107d7565b6107b2565b9050828152602081018484840111156104d357600080fd5b6104de84828561086b565b509392505050565b6000813590506104f5816109bf565b92915050565b60008135905061050a816109d6565b92915050565b600082601f83011261052157600080fd5b81356105318482602086016104a8565b91505092915050565b6000806040838503121561054d57600080fd5b600061055b858286016104e6565b925050602061056c858286016104fb565b9150509250929050565b60008060006060848603121561058b57600080fd5b6000610599868287016104e6565b93505060206105aa868287016104fb565b925050604084013567ffffffffffffffff8111156105c757600080fd5b6105d386828701610510565b9150509250925092565b600080604083850312156105f057600080fd5b60006105fe858286016104e6565b925050602083013567ffffffffffffffff81111561061b57600080fd5b61062785828601610510565b9150509250929050565b61063a8161082f565b82525050565b61064981610841565b82525050565b600061065a82610808565b6106648185610813565b935061067481856020860161087a565b80840191505092915050565b600061068d602d8361081e565b91506106988261091e565b604082019050919050565b60006106b060178361081e565b91506106bb8261096d565b602082019050919050565b60006106d360168361081e565b91506106de82610996565b602082019050919050565b60006106f5828461064f565b915081905092915050565b60006020820190506107156000830184610631565b92915050565b60006060820190506107306000830186610631565b61073d6020830185610631565b61074a6040830184610640565b949350505050565b6000602082019050818103600083015261076b81610680565b9050919050565b6000602082019050818103600083015261078b816106a3565b9050919050565b600060208201905081810360008301526107ab816106c6565b9050919050565b60006107bc6107cd565b90506107c882826108ad565b919050565b6000604051905090565b600067ffffffffffffffff8211156107f2576107f16108de565b5b6107fb8261090d565b9050602081019050919050565b600081519050919050565b600081905092915050565b600082825260208201905092915050565b600061083a8261084b565b9050919050565b6000819050919050565b600073ffffffffffffffffffffffffffffffffffffffff82169050919050565b82818337600083830152505050565b60005b8381101561089857808201518184015260208101905061087d565b838111156108a7576000848401525b50505050565b6108b68261090d565b810181811067ffffffffffffffff821117156108d5576108d46108de565b5b80604052505050565b7f4e487b7100000000000000000000000000000000000000000000000000000000600052604160045260246000fd5b6000601f19601f8301169050919050565b7f43726561746532436c6f6e65466163746f72793a204661696c656420746f206360008201527f616c6c207468652070726f787900000000000000000000000000000000000000602082015250565b7f455243313136373a2063726561746532206661696c6564000000000000000000600082015250565b7f455243313136373a20637265617465206661696c656400000000000000000000600082015250565b6109c88161082f565b81146109d357600080fd5b50565b6109df81610841565b81146109ea57600080fd5b5056fea2646970667358221220d2d8c81332711a732b8f68e387f0a23a50aab7796d93e4b75f1d333532a30daa64736f6c63430008040033",
          "opcodes": "PUSH1 0x80 PUSH1 0x40 MSTORE CALLVALUE DUP1 ISZERO PUSH2 0x10 JUMPI PUSH1 0x0 DUP1 REVERT JUMPDEST POP PUSH2 0xA23 DUP1 PUSH2 0x20 PUSH1 0x0 CODECOPY PUSH1 0x0 RETURN INVALID PUSH1 0x80 PUSH1 0x40 MSTORE CALLVALUE DUP1 ISZERO PUSH2 0x10 JUMPI PUSH1 0x0 DUP1 REVERT JUMPDEST POP PUSH1 0x4 CALLDATASIZE LT PUSH2 0x41 JUMPI PUSH1 0x0 CALLDATALOAD PUSH1 0xE0 SHR DUP1 PUSH4 0xFBE133C EQ PUSH2 0x46 JUMPI DUP1 PUSH4 0x360D0FAD EQ PUSH2 0x76 JUMPI DUP1 PUSH4 0x6E9EBC81 EQ PUSH2 0xA6 JUMPI JUMPDEST PUSH1 0x0 DUP1 REVERT JUMPDEST PUSH2 0x60 PUSH1 0x4 DUP1 CALLDATASIZE SUB DUP2 ADD SWAP1 PUSH2 0x5B SWAP2 SWAP1 PUSH2 0x5DD JUMP JUMPDEST PUSH2 0xD6 JUMP JUMPDEST PUSH1 0x40 MLOAD PUSH2 0x6D SWAP2 SWAP1 PUSH2 0x700 JUMP JUMPDEST PUSH1 0x40 MLOAD DUP1 SWAP2 SUB SWAP1 RETURN JUMPDEST PUSH2 0x90 PUSH1 0x4 DUP1 CALLDATASIZE SUB DUP2 ADD SWAP1 PUSH2 0x8B SWAP2 SWAP1 PUSH2 0x53A JUMP JUMPDEST PUSH2 0x13C JUMP JUMPDEST PUSH1 0x40 MLOAD PUSH2 0x9D SWAP2 SWAP1 PUSH2 0x700 JUMP JUMPDEST PUSH1 0x40 MLOAD DUP1 SWAP2 SUB SWAP1 RETURN JUMPDEST PUSH2 0xC0 PUSH1 0x4 DUP1 CALLDATASIZE SUB DUP2 ADD SWAP1 PUSH2 0xBB SWAP2 SWAP1 PUSH2 0x576 JUMP JUMPDEST PUSH2 0x150 JUMP JUMPDEST PUSH1 0x40 MLOAD PUSH2 0xCD SWAP2 SWAP1 PUSH2 0x700 JUMP JUMPDEST PUSH1 0x40 MLOAD DUP1 SWAP2 SUB SWAP1 RETURN JUMPDEST PUSH1 0x0 PUSH2 0xE1 DUP4 PUSH2 0x1B5 JUMP JUMPDEST SWAP1 POP PUSH1 0x0 DUP3 MLOAD GT ISZERO PUSH2 0xF8 JUMPI PUSH2 0xF7 DUP2 DUP4 PUSH2 0x28A JUMP JUMPDEST JUMPDEST PUSH32 0xA8BF987E8FD20C4AAE6FFF1CA892EA748B539CF0164AEFAB56C83340007485DF DUP2 DUP5 PUSH1 0x0 DUP1 SHL PUSH1 0x40 MLOAD PUSH2 0x12E SWAP4 SWAP3 SWAP2 SWAP1 PUSH2 0x71B JUMP JUMPDEST PUSH1 0x40 MLOAD DUP1 SWAP2 SUB SWAP1 LOG1 SWAP3 SWAP2 POP POP JUMP JUMPDEST PUSH1 0x0 PUSH2 0x148 DUP4 DUP4 PUSH2 0x33C JUMP JUMPDEST SWAP1 POP SWAP3 SWAP2 POP POP JUMP JUMPDEST PUSH1 0x0 PUSH2 0x15C DUP5 DUP5 PUSH2 0x351 JUMP JUMPDEST SWAP1 POP PUSH1 0x0 DUP3 MLOAD GT ISZERO PUSH2 0x173 JUMPI PUSH2 0x172 DUP2 DUP4 PUSH2 0x28A JUMP JUMPDEST JUMPDEST PUSH32 0xA8BF987E8FD20C4AAE6FFF1CA892EA748B539CF0164AEFAB56C83340007485DF DUP2 DUP6 DUP6 PUSH1 0x40 MLOAD PUSH2 0x1A6 SWAP4 SWAP3 SWAP2 SWAP1 PUSH2 0x71B JUMP JUMPDEST PUSH1 0x40 MLOAD DUP1 SWAP2 SUB SWAP1 LOG1 SWAP4 SWAP3 POP POP POP JUMP JUMPDEST PUSH1 0x0 PUSH1 0x40 MLOAD PUSH32 0x3D602D80600A3D3981F3363D3D373D3D3D363D73000000000000000000000000 DUP2 MSTORE DUP3 PUSH1 0x60 SHL PUSH1 0x14 DUP3 ADD MSTORE PUSH32 0x5AF43D82803E903D91602B57FD5BF30000000000000000000000000000000000 PUSH1 0x28 DUP3 ADD MSTORE PUSH1 0x37 DUP2 PUSH1 0x0 CREATE SWAP2 POP POP PUSH1 0x0 PUSH20 0xFFFFFFFFFFFFFFFFFFFFFFFFFFFFFFFFFFFFFFFF AND DUP2 PUSH20 0xFFFFFFFFFFFFFFFFFFFFFFFFFFFFFFFFFFFFFFFF AND EQ ISZERO PUSH2 0x285 JUMPI PUSH1 0x40 MLOAD PUSH32 0x8C379A000000000000000000000000000000000000000000000000000000000 DUP2 MSTORE PUSH1 0x4 ADD PUSH2 0x27C SWAP1 PUSH2 0x792 JUMP JUMPDEST PUSH1 0x40 MLOAD DUP1 SWAP2 SUB SWAP1 REVERT JUMPDEST SWAP2 SWAP1 POP JUMP JUMPDEST PUSH1 0x0 DUP3 PUSH20 0xFFFFFFFFFFFFFFFFFFFFFFFFFFFFFFFFFFFFFFFF AND DUP3 PUSH1 0x40 MLOAD PUSH2 0x2B1 SWAP2 SWAP1 PUSH2 0x6E9 JUMP JUMPDEST PUSH1 0x0 PUSH1 0x40 MLOAD DUP1 DUP4 SUB DUP2 PUSH1 0x0 DUP7 GAS CALL SWAP2 POP POP RETURNDATASIZE DUP1 PUSH1 0x0 DUP2 EQ PUSH2 0x2EE JUMPI PUSH1 0x40 MLOAD SWAP2 POP PUSH1 0x1F NOT PUSH1 0x3F RETURNDATASIZE ADD AND DUP3 ADD PUSH1 0x40 MSTORE RETURNDATASIZE DUP3 MSTORE RETURNDATASIZE PUSH1 0x0 PUSH1 0x20 DUP5 ADD RETURNDATACOPY PUSH2 0x2F3 JUMP JUMPDEST PUSH1 0x60 SWAP2 POP JUMPDEST POP POP SWAP1 POP DUP1 PUSH2 0x337 JUMPI PUSH1 0x40 MLOAD PUSH32 0x8C379A000000000000000000000000000000000000000000000000000000000 DUP2 MSTORE PUSH1 0x4 ADD PUSH2 0x32E SWAP1 PUSH2 0x752 JUMP JUMPDEST PUSH1 0x40 MLOAD DUP1 SWAP2 SUB SWAP1 REVERT JUMPDEST POP POP POP JUMP JUMPDEST PUSH1 0x0 PUSH2 0x349 DUP4 DUP4 ADDRESS PUSH2 0x428 JUMP JUMPDEST SWAP1 POP SWAP3 SWAP2 POP POP JUMP JUMPDEST PUSH1 0x0 PUSH1 0x40 MLOAD PUSH32 0x3D602D80600A3D3981F3363D3D373D3D3D363D73000000000000000000000000 DUP2 MSTORE DUP4 PUSH1 0x60 SHL PUSH1 0x14 DUP3 ADD MSTORE PUSH32 0x5AF43D82803E903D91602B57FD5BF30000000000000000000000000000000000 PUSH1 0x28 DUP3 ADD MSTORE DUP3 PUSH1 0x37 DUP3 PUSH1 0x0 CREATE2 SWAP2 POP POP PUSH1 0x0 PUSH20 0xFFFFFFFFFFFFFFFFFFFFFFFFFFFFFFFFFFFFFFFF AND DUP2 PUSH20 0xFFFFFFFFFFFFFFFFFFFFFFFFFFFFFFFFFFFFFFFF AND EQ ISZERO PUSH2 0x422 JUMPI PUSH1 0x40 MLOAD PUSH32 0x8C379A000000000000000000000000000000000000000000000000000000000 DUP2 MSTORE PUSH1 0x4 ADD PUSH2 0x419 SWAP1 PUSH2 0x772 JUMP JUMPDEST PUSH1 0x40 MLOAD DUP1 SWAP2 SUB SWAP1 REVERT JUMPDEST SWAP3 SWAP2 POP POP JUMP JUMPDEST PUSH1 0x0 PUSH1 0x40 MLOAD PUSH32 0x3D602D80600A3D3981F3363D3D373D3D3D363D73000000000000000000000000 DUP2 MSTORE DUP5 PUSH1 0x60 SHL PUSH1 0x14 DUP3 ADD MSTORE PUSH32 0x5AF43D82803E903D91602B57FD5BF3FF00000000000000000000000000000000 PUSH1 0x28 DUP3 ADD MSTORE DUP3 PUSH1 0x60 SHL PUSH1 0x38 DUP3 ADD MSTORE DUP4 PUSH1 0x4C DUP3 ADD MSTORE PUSH1 0x37 DUP2 KECCAK256 PUSH1 0x6C DUP3 ADD MSTORE PUSH1 0x55 PUSH1 0x37 DUP3 ADD KECCAK256 SWAP2 POP POP SWAP4 SWAP3 POP POP POP JUMP JUMPDEST PUSH1 0x0 PUSH2 0x4BB PUSH2 0x4B6 DUP5 PUSH2 0x7D7 JUMP JUMPDEST PUSH2 0x7B2 JUMP JUMPDEST SWAP1 POP DUP3 DUP2 MSTORE PUSH1 0x20 DUP2 ADD DUP5 DUP5 DUP5 ADD GT ISZERO PUSH2 0x4D3 JUMPI PUSH1 0x0 DUP1 REVERT JUMPDEST PUSH2 0x4DE DUP5 DUP3 DUP6 PUSH2 0x86B JUMP JUMPDEST POP SWAP4 SWAP3 POP POP POP JUMP JUMPDEST PUSH1 0x0 DUP2 CALLDATALOAD SWAP1 POP PUSH2 0x4F5 DUP2 PUSH2 0x9BF JUMP JUMPDEST SWAP3 SWAP2 POP POP JUMP JUMPDEST PUSH1 0x0 DUP2 CALLDATALOAD SWAP1 POP PUSH2 0x50A DUP2 PUSH2 0x9D6 JUMP JUMPDEST SWAP3 SWAP2 POP POP JUMP JUMPDEST PUSH1 0x0 DUP3 PUSH1 0x1F DUP4 ADD SLT PUSH2 0x521 JUMPI PUSH1 0x0 DUP1 REVERT JUMPDEST DUP2 CALLDATALOAD PUSH2 0x531 DUP5 DUP3 PUSH1 0x20 DUP7 ADD PUSH2 0x4A8 JUMP JUMPDEST SWAP2 POP POP SWAP3 SWAP2 POP POP JUMP JUMPDEST PUSH1 0x0 DUP1 PUSH1 0x40 DUP4 DUP6 SUB SLT ISZERO PUSH2 0x54D JUMPI PUSH1 0x0 DUP1 REVERT JUMPDEST PUSH1 0x0 PUSH2 0x55B DUP6 DUP3 DUP7 ADD PUSH2 0x4E6 JUMP JUMPDEST SWAP3 POP POP PUSH1 0x20 PUSH2 0x56C DUP6 DUP3 DUP7 ADD PUSH2 0x4FB JUMP JUMPDEST SWAP2 POP POP SWAP3 POP SWAP3 SWAP1 POP JUMP JUMPDEST PUSH1 0x0 DUP1 PUSH1 0x0 PUSH1 0x60 DUP5 DUP7 SUB SLT ISZERO PUSH2 0x58B JUMPI PUSH1 0x0 DUP1 REVERT JUMPDEST PUSH1 0x0 PUSH2 0x599 DUP7 DUP3 DUP8 ADD PUSH2 0x4E6 JUMP JUMPDEST SWAP4 POP POP PUSH1 0x20 PUSH2 0x5AA DUP7 DUP3 DUP8 ADD PUSH2 0x4FB JUMP JUMPDEST SWAP3 POP POP PUSH1 0x40 DUP5 ADD CALLDATALOAD PUSH8 0xFFFFFFFFFFFFFFFF DUP2 GT ISZERO PUSH2 0x5C7 JUMPI PUSH1 0x0 DUP1 REVERT JUMPDEST PUSH2 0x5D3 DUP7 DUP3 DUP8 ADD PUSH2 0x510 JUMP JUMPDEST SWAP2 POP POP SWAP3 POP SWAP3 POP SWAP3 JUMP JUMPDEST PUSH1 0x0 DUP1 PUSH1 0x40 DUP4 DUP6 SUB SLT ISZERO PUSH2 0x5F0 JUMPI PUSH1 0x0 DUP1 REVERT JUMPDEST PUSH1 0x0 PUSH2 0x5FE DUP6 DUP3 DUP7 ADD PUSH2 0x4E6 JUMP JUMPDEST SWAP3 POP POP PUSH1 0x20 DUP4 ADD CALLDATALOAD PUSH8 0xFFFFFFFFFFFFFFFF DUP2 GT ISZERO PUSH2 0x61B JUMPI PUSH1 0x0 DUP1 REVERT JUMPDEST PUSH2 0x627 DUP6 DUP3 DUP7 ADD PUSH2 0x510 JUMP JUMPDEST SWAP2 POP POP SWAP3 POP SWAP3 SWAP1 POP JUMP JUMPDEST PUSH2 0x63A DUP2 PUSH2 0x82F JUMP JUMPDEST DUP3 MSTORE POP POP JUMP JUMPDEST PUSH2 0x649 DUP2 PUSH2 0x841 JUMP JUMPDEST DUP3 MSTORE POP POP JUMP JUMPDEST PUSH1 0x0 PUSH2 0x65A DUP3 PUSH2 0x808 JUMP JUMPDEST PUSH2 0x664 DUP2 DUP6 PUSH2 0x813 JUMP JUMPDEST SWAP4 POP PUSH2 0x674 DUP2 DUP6 PUSH1 0x20 DUP7 ADD PUSH2 0x87A JUMP JUMPDEST DUP1 DUP5 ADD SWAP2 POP POP SWAP3 SWAP2 POP POP JUMP JUMPDEST PUSH1 0x0 PUSH2 0x68D PUSH1 0x2D DUP4 PUSH2 0x81E JUMP JUMPDEST SWAP2 POP PUSH2 0x698 DUP3 PUSH2 0x91E JUMP JUMPDEST PUSH1 0x40 DUP3 ADD SWAP1 POP SWAP2 SWAP1 POP JUMP JUMPDEST PUSH1 0x0 PUSH2 0x6B0 PUSH1 0x17 DUP4 PUSH2 0x81E JUMP JUMPDEST SWAP2 POP PUSH2 0x6BB DUP3 PUSH2 0x96D JUMP JUMPDEST PUSH1 0x20 DUP3 ADD SWAP1 POP SWAP2 SWAP1 POP JUMP JUMPDEST PUSH1 0x0 PUSH2 0x6D3 PUSH1 0x16 DUP4 PUSH2 0x81E JUMP JUMPDEST SWAP2 POP PUSH2 0x6DE DUP3 PUSH2 0x996 JUMP JUMPDEST PUSH1 0x20 DUP3 ADD SWAP1 POP SWAP2 SWAP1 POP JUMP JUMPDEST PUSH1 0x0 PUSH2 0x6F5 DUP3 DUP5 PUSH2 0x64F JUMP JUMPDEST SWAP2 POP DUP2 SWAP1 POP SWAP3 SWAP2 POP POP JUMP JUMPDEST PUSH1 0x0 PUSH1 0x20 DUP3 ADD SWAP1 POP PUSH2 0x715 PUSH1 0x0 DUP4 ADD DUP5 PUSH2 0x631 JUMP JUMPDEST SWAP3 SWAP2 POP POP JUMP JUMPDEST PUSH1 0x0 PUSH1 0x60 DUP3 ADD SWAP1 POP PUSH2 0x730 PUSH1 0x0 DUP4 ADD DUP7 PUSH2 0x631 JUMP JUMPDEST PUSH2 0x73D PUSH1 0x20 DUP4 ADD DUP6 PUSH2 0x631 JUMP JUMPDEST PUSH2 0x74A PUSH1 0x40 DUP4 ADD DUP5 PUSH2 0x640 JUMP JUMPDEST SWAP5 SWAP4 POP POP POP POP JUMP JUMPDEST PUSH1 0x0 PUSH1 0x20 DUP3 ADD SWAP1 POP DUP2 DUP2 SUB PUSH1 0x0 DUP4 ADD MSTORE PUSH2 0x76B DUP2 PUSH2 0x680 JUMP JUMPDEST SWAP1 POP SWAP2 SWAP1 POP JUMP JUMPDEST PUSH1 0x0 PUSH1 0x20 DUP3 ADD SWAP1 POP DUP2 DUP2 SUB PUSH1 0x0 DUP4 ADD MSTORE PUSH2 0x78B DUP2 PUSH2 0x6A3 JUMP JUMPDEST SWAP1 POP SWAP2 SWAP1 POP JUMP JUMPDEST PUSH1 0x0 PUSH1 0x20 DUP3 ADD SWAP1 POP DUP2 DUP2 SUB PUSH1 0x0 DUP4 ADD MSTORE PUSH2 0x7AB DUP2 PUSH2 0x6C6 JUMP JUMPDEST SWAP1 POP SWAP2 SWAP1 POP JUMP JUMPDEST PUSH1 0x0 PUSH2 0x7BC PUSH2 0x7CD JUMP JUMPDEST SWAP1 POP PUSH2 0x7C8 DUP3 DUP3 PUSH2 0x8AD JUMP JUMPDEST SWAP2 SWAP1 POP JUMP JUMPDEST PUSH1 0x0 PUSH1 0x40 MLOAD SWAP1 POP SWAP1 JUMP JUMPDEST PUSH1 0x0 PUSH8 0xFFFFFFFFFFFFFFFF DUP3 GT ISZERO PUSH2 0x7F2 JUMPI PUSH2 0x7F1 PUSH2 0x8DE JUMP JUMPDEST JUMPDEST PUSH2 0x7FB DUP3 PUSH2 0x90D JUMP JUMPDEST SWAP1 POP PUSH1 0x20 DUP2 ADD SWAP1 POP SWAP2 SWAP1 POP JUMP JUMPDEST PUSH1 0x0 DUP2 MLOAD SWAP1 POP SWAP2 SWAP1 POP JUMP JUMPDEST PUSH1 0x0 DUP2 SWAP1 POP SWAP3 SWAP2 POP POP JUMP JUMPDEST PUSH1 0x0 DUP3 DUP3 MSTORE PUSH1 0x20 DUP3 ADD SWAP1 POP SWAP3 SWAP2 POP POP JUMP JUMPDEST PUSH1 0x0 PUSH2 0x83A DUP3 PUSH2 0x84B JUMP JUMPDEST SWAP1 POP SWAP2 SWAP1 POP JUMP JUMPDEST PUSH1 0x0 DUP2 SWAP1 POP SWAP2 SWAP1 POP JUMP JUMPDEST PUSH1 0x0 PUSH20 0xFFFFFFFFFFFFFFFFFFFFFFFFFFFFFFFFFFFFFFFF DUP3 AND SWAP1 POP SWAP2 SWAP1 POP JUMP JUMPDEST DUP3 DUP2 DUP4 CALLDATACOPY PUSH1 0x0 DUP4 DUP4 ADD MSTORE POP POP POP JUMP JUMPDEST PUSH1 0x0 JUMPDEST DUP4 DUP2 LT ISZERO PUSH2 0x898 JUMPI DUP1 DUP3 ADD MLOAD DUP2 DUP5 ADD MSTORE PUSH1 0x20 DUP2 ADD SWAP1 POP PUSH2 0x87D JUMP JUMPDEST DUP4 DUP2 GT ISZERO PUSH2 0x8A7 JUMPI PUSH1 0x0 DUP5 DUP5 ADD MSTORE JUMPDEST POP POP POP POP JUMP JUMPDEST PUSH2 0x8B6 DUP3 PUSH2 0x90D JUMP JUMPDEST DUP2 ADD DUP2 DUP2 LT PUSH8 0xFFFFFFFFFFFFFFFF DUP3 GT OR ISZERO PUSH2 0x8D5 JUMPI PUSH2 0x8D4 PUSH2 0x8DE JUMP JUMPDEST JUMPDEST DUP1 PUSH1 0x40 MSTORE POP POP POP JUMP JUMPDEST PUSH32 0x4E487B7100000000000000000000000000000000000000000000000000000000 PUSH1 0x0 MSTORE PUSH1 0x41 PUSH1 0x4 MSTORE PUSH1 0x24 PUSH1 0x0 REVERT JUMPDEST PUSH1 0x0 PUSH1 0x1F NOT PUSH1 0x1F DUP4 ADD AND SWAP1 POP SWAP2 SWAP1 POP JUMP JUMPDEST PUSH32 0x43726561746532436C6F6E65466163746F72793A204661696C656420746F2063 PUSH1 0x0 DUP3 ADD MSTORE PUSH32 0x616C6C207468652070726F787900000000000000000000000000000000000000 PUSH1 0x20 DUP3 ADD MSTORE POP JUMP JUMPDEST PUSH32 0x455243313136373A2063726561746532206661696C6564000000000000000000 PUSH1 0x0 DUP3 ADD MSTORE POP JUMP JUMPDEST PUSH32 0x455243313136373A20637265617465206661696C656400000000000000000000 PUSH1 0x0 DUP3 ADD MSTORE POP JUMP JUMPDEST PUSH2 0x9C8 DUP2 PUSH2 0x82F JUMP JUMPDEST DUP2 EQ PUSH2 0x9D3 JUMPI PUSH1 0x0 DUP1 REVERT JUMPDEST POP JUMP JUMPDEST PUSH2 0x9DF DUP2 PUSH2 0x841 JUMP JUMPDEST DUP2 EQ PUSH2 0x9EA JUMPI PUSH1 0x0 DUP1 REVERT JUMPDEST POP JUMP INVALID LOG2 PUSH5 0x6970667358 0x22 SLT KECCAK256 0xD2 0xD8 0xC8 SGT ORIGIN PUSH18 0x1A732B8F68E387F0A23A50AAB7796D93E4B7 0x5F SAR CALLER CALLDATALOAD ORIGIN LOG3 0xD 0xAA PUSH5 0x736F6C6343 STOP ADDMOD DIV STOP CALLER "
        },
        "methodIdentifiers": {
          "clone(address,bytes)": "0fbe133c",
          "cloneDeterministic(address,bytes32,bytes)": "6e9ebc81",
          "predictDeterministicAddress(address,bytes32)": "360d0fad"
        }
      }
    }
  }
}