{
  "address": "0x1Fd2b65F7e23abC6f69EAf5ABf8db73e5a73B73b",
  "abi": [
    {
      "inputs": [],
      "stateMutability": "nonpayable",
      "type": "constructor"
    },
    {
      "anonymous": false,
      "inputs": [
        {
          "indexed": false,
          "internalType": "address",
          "name": "previousAdmin",
          "type": "address"
        },
        {
          "indexed": false,
          "internalType": "address",
          "name": "newAdmin",
          "type": "address"
        }
      ],
      "name": "AdminChanged",
      "type": "event"
    },
    {
      "anonymous": false,
      "inputs": [
        {
          "indexed": true,
          "internalType": "address",
          "name": "beacon",
          "type": "address"
        }
      ],
      "name": "BeaconUpgraded",
      "type": "event"
    },
    {
      "anonymous": false,
      "inputs": [
        {
          "indexed": true,
          "internalType": "address",
          "name": "creator",
          "type": "address"
        },
        {
          "components": [
            {
              "internalType": "enum CraftLib.TokenType",
              "name": "token",
              "type": "uint8"
            },
            {
              "internalType": "enum CraftLib.ConsumableType",
              "name": "consumableType",
              "type": "uint8"
            },
            {
              "internalType": "address",
              "name": "contractAddr",
              "type": "address"
            },
            {
              "internalType": "uint256[]",
              "name": "amounts",
              "type": "uint256[]"
            },
            {
              "internalType": "uint256[]",
              "name": "tokenIds",
              "type": "uint256[]"
            }
          ],
          "indexed": false,
          "internalType": "struct CraftLib.Ingredient[]",
          "name": "inputs",
          "type": "tuple[]"
        },
        {
          "components": [
            {
              "internalType": "enum CraftLib.TokenType",
              "name": "token",
              "type": "uint8"
            },
            {
              "internalType": "enum CraftLib.ConsumableType",
              "name": "consumableType",
              "type": "uint8"
            },
            {
              "internalType": "address",
              "name": "contractAddr",
              "type": "address"
            },
            {
              "internalType": "uint256[]",
              "name": "amounts",
              "type": "uint256[]"
            },
            {
              "internalType": "uint256[]",
              "name": "tokenIds",
              "type": "uint256[]"
            }
          ],
          "indexed": false,
          "internalType": "struct CraftLib.Ingredient[]",
          "name": "outputs",
          "type": "tuple[]"
        }
      ],
      "name": "CreateRecipe",
      "type": "event"
    },
    {
      "anonymous": false,
      "inputs": [
        {
          "indexed": false,
          "internalType": "uint8",
          "name": "version",
          "type": "uint8"
        }
      ],
      "name": "Initialized",
      "type": "event"
    },
    {
      "anonymous": false,
      "inputs": [
        {
          "indexed": true,
          "internalType": "address",
          "name": "previousOwner",
          "type": "address"
        },
        {
          "indexed": true,
          "internalType": "address",
          "name": "newOwner",
          "type": "address"
        }
      ],
      "name": "OwnershipTransferred",
      "type": "event"
    },
    {
      "anonymous": false,
      "inputs": [
        {
          "indexed": false,
          "internalType": "uint256",
          "name": "craftedAmount",
          "type": "uint256"
        },
        {
          "indexed": false,
          "internalType": "uint256",
          "name": "craftableAmount",
          "type": "uint256"
        },
        {
          "indexed": true,
          "internalType": "address",
          "name": "user",
          "type": "address"
        }
      ],
      "name": "RecipeCraft",
      "type": "event"
    },
    {
      "anonymous": false,
      "inputs": [
        {
          "indexed": false,
          "internalType": "uint256",
          "name": "craftableAmount",
          "type": "uint256"
        }
      ],
      "name": "RecipeUpdate",
      "type": "event"
    },
    {
      "anonymous": false,
      "inputs": [
        {
          "indexed": true,
          "internalType": "address",
          "name": "implementation",
          "type": "address"
        }
      ],
      "name": "Upgraded",
      "type": "event"
    },
    {
      "inputs": [],
      "name": "burnAddress",
      "outputs": [
        {
          "internalType": "address",
          "name": "",
          "type": "address"
        }
      ],
      "stateMutability": "view",
      "type": "function"
    },
    {
      "inputs": [
        {
          "internalType": "uint96",
          "name": "craftAmount",
          "type": "uint96"
        },
        {
          "internalType": "uint256[][]",
          "name": "_inputERC721Ids",
          "type": "uint256[][]"
        }
      ],
      "name": "craft",
      "outputs": [],
      "stateMutability": "nonpayable",
      "type": "function"
    },
    {
      "inputs": [],
      "name": "craftableAmount",
      "outputs": [
        {
          "internalType": "uint96",
          "name": "",
          "type": "uint96"
        }
      ],
      "stateMutability": "view",
      "type": "function"
    },
    {
      "inputs": [
        {
          "internalType": "uint96",
          "name": "depositAmount",
          "type": "uint96"
        },
        {
          "internalType": "uint256[][]",
          "name": "_outputsERC721Ids",
          "type": "uint256[][]"
        }
      ],
      "name": "deposit",
      "outputs": [],
      "stateMutability": "nonpayable",
      "type": "function"
    },
    {
      "inputs": [],
      "name": "getImplementation",
      "outputs": [
        {
          "internalType": "address",
          "name": "",
          "type": "address"
        }
      ],
      "stateMutability": "view",
      "type": "function"
    },
    {
      "inputs": [
        {
          "internalType": "uint256",
          "name": "index",
          "type": "uint256"
        }
      ],
      "name": "getInputIngredient",
      "outputs": [
        {
          "internalType": "enum CraftLib.TokenType",
          "name": "token",
          "type": "uint8"
        },
        {
          "internalType": "enum CraftLib.ConsumableType",
          "name": "consumableType",
          "type": "uint8"
        },
        {
          "internalType": "address",
          "name": "contractAddr",
          "type": "address"
        },
        {
          "internalType": "uint256[]",
          "name": "amounts",
          "type": "uint256[]"
        },
        {
          "internalType": "uint256[]",
          "name": "tokenIds",
          "type": "uint256[]"
        }
      ],
      "stateMutability": "view",
      "type": "function"
    },
    {
      "inputs": [],
      "name": "getInputs",
      "outputs": [
        {
          "components": [
            {
              "internalType": "enum CraftLib.TokenType",
              "name": "token",
              "type": "uint8"
            },
            {
              "internalType": "enum CraftLib.ConsumableType",
              "name": "consumableType",
              "type": "uint8"
            },
            {
              "internalType": "address",
              "name": "contractAddr",
              "type": "address"
            },
            {
              "internalType": "uint256[]",
              "name": "amounts",
              "type": "uint256[]"
            },
            {
              "internalType": "uint256[]",
              "name": "tokenIds",
              "type": "uint256[]"
            }
          ],
          "internalType": "struct CraftLib.Ingredient[]",
          "name": "_inputs",
          "type": "tuple[]"
        }
      ],
      "stateMutability": "view",
      "type": "function"
    },
    {
      "inputs": [
        {
          "internalType": "uint256",
          "name": "index",
          "type": "uint256"
        }
      ],
      "name": "getOutputIngredient",
      "outputs": [
        {
          "internalType": "enum CraftLib.TokenType",
          "name": "token",
          "type": "uint8"
        },
        {
          "internalType": "enum CraftLib.ConsumableType",
          "name": "consumableType",
          "type": "uint8"
        },
        {
          "internalType": "address",
          "name": "contractAddr",
          "type": "address"
        },
        {
          "internalType": "uint256[]",
          "name": "amounts",
          "type": "uint256[]"
        },
        {
          "internalType": "uint256[]",
          "name": "tokenIds",
          "type": "uint256[]"
        }
      ],
      "stateMutability": "view",
      "type": "function"
    },
    {
      "inputs": [],
      "name": "getOutputs",
      "outputs": [
        {
          "components": [
            {
              "internalType": "enum CraftLib.TokenType",
              "name": "token",
              "type": "uint8"
            },
            {
              "internalType": "enum CraftLib.ConsumableType",
              "name": "consumableType",
              "type": "uint8"
            },
            {
              "internalType": "address",
              "name": "contractAddr",
              "type": "address"
            },
            {
              "internalType": "uint256[]",
              "name": "amounts",
              "type": "uint256[]"
            },
            {
              "internalType": "uint256[]",
              "name": "tokenIds",
              "type": "uint256[]"
            }
          ],
          "internalType": "struct CraftLib.Ingredient[]",
          "name": "_outputs",
          "type": "tuple[]"
        }
      ],
      "stateMutability": "view",
      "type": "function"
    },
    {
      "inputs": [
        {
          "internalType": "address",
          "name": "_admin",
          "type": "address"
        },
        {
          "internalType": "address",
          "name": "_burnAddress",
          "type": "address"
        },
        {
          "internalType": "uint96",
          "name": "_craftableAmount",
          "type": "uint96"
        },
        {
          "components": [
            {
              "internalType": "enum CraftLib.TokenType",
              "name": "token",
              "type": "uint8"
            },
            {
              "internalType": "enum CraftLib.ConsumableType",
              "name": "consumableType",
              "type": "uint8"
            },
            {
              "internalType": "address",
              "name": "contractAddr",
              "type": "address"
            },
            {
              "internalType": "uint256[]",
              "name": "amounts",
              "type": "uint256[]"
            },
            {
              "internalType": "uint256[]",
              "name": "tokenIds",
              "type": "uint256[]"
            }
          ],
          "internalType": "struct CraftLib.Ingredient[]",
          "name": "_inputs",
          "type": "tuple[]"
        },
        {
          "components": [
            {
              "internalType": "enum CraftLib.TokenType",
              "name": "token",
              "type": "uint8"
            },
            {
              "internalType": "enum CraftLib.ConsumableType",
              "name": "consumableType",
              "type": "uint8"
            },
            {
              "internalType": "address",
              "name": "contractAddr",
              "type": "address"
            },
            {
              "internalType": "uint256[]",
              "name": "amounts",
              "type": "uint256[]"
            },
            {
              "internalType": "uint256[]",
              "name": "tokenIds",
              "type": "uint256[]"
            }
          ],
          "internalType": "struct CraftLib.Ingredient[]",
          "name": "_outputs",
          "type": "tuple[]"
        }
      ],
      "name": "initialize",
      "outputs": [],
      "stateMutability": "nonpayable",
      "type": "function"
    },
    {
      "inputs": [
        {
          "internalType": "address",
          "name": "",
          "type": "address"
        },
        {
          "internalType": "address",
          "name": "",
          "type": "address"
        },
        {
          "internalType": "uint256[]",
          "name": "",
          "type": "uint256[]"
        },
        {
          "internalType": "uint256[]",
          "name": "",
          "type": "uint256[]"
        },
        {
          "internalType": "bytes",
          "name": "",
          "type": "bytes"
        }
      ],
      "name": "onERC1155BatchReceived",
      "outputs": [
        {
          "internalType": "bytes4",
          "name": "",
          "type": "bytes4"
        }
      ],
      "stateMutability": "nonpayable",
      "type": "function"
    },
    {
      "inputs": [
        {
          "internalType": "address",
          "name": "",
          "type": "address"
        },
        {
          "internalType": "address",
          "name": "",
          "type": "address"
        },
        {
          "internalType": "uint256",
          "name": "",
          "type": "uint256"
        },
        {
          "internalType": "uint256",
          "name": "",
          "type": "uint256"
        },
        {
          "internalType": "bytes",
          "name": "",
          "type": "bytes"
        }
      ],
      "name": "onERC1155Received",
      "outputs": [
        {
          "internalType": "bytes4",
          "name": "",
          "type": "bytes4"
        }
      ],
      "stateMutability": "nonpayable",
      "type": "function"
    },
    {
      "inputs": [
        {
          "internalType": "address",
          "name": "",
          "type": "address"
        },
        {
          "internalType": "address",
          "name": "",
          "type": "address"
        },
        {
          "internalType": "uint256",
          "name": "",
          "type": "uint256"
        },
        {
          "internalType": "bytes",
          "name": "",
          "type": "bytes"
        }
      ],
      "name": "onERC721Received",
      "outputs": [
        {
          "internalType": "bytes4",
          "name": "",
          "type": "bytes4"
        }
      ],
      "stateMutability": "nonpayable",
      "type": "function"
    },
    {
      "inputs": [],
      "name": "owner",
      "outputs": [
        {
          "internalType": "address",
          "name": "",
          "type": "address"
        }
      ],
      "stateMutability": "view",
      "type": "function"
    },
    {
      "inputs": [],
      "name": "proxiableUUID",
      "outputs": [
        {
          "internalType": "bytes32",
          "name": "",
          "type": "bytes32"
        }
      ],
      "stateMutability": "view",
      "type": "function"
    },
    {
      "inputs": [
        {
          "internalType": "address",
          "name": "_admin",
          "type": "address"
        },
        {
          "internalType": "address",
          "name": "_burnAddress",
          "type": "address"
        },
        {
          "internalType": "uint96",
          "name": "_craftableAmount",
          "type": "uint96"
        },
        {
          "components": [
            {
              "internalType": "enum CraftLib.TokenType",
              "name": "token",
              "type": "uint8"
            },
            {
              "internalType": "enum CraftLib.ConsumableType",
              "name": "consumableType",
              "type": "uint8"
            },
            {
              "internalType": "address",
              "name": "contractAddr",
              "type": "address"
            },
            {
              "internalType": "uint256[]",
              "name": "amounts",
              "type": "uint256[]"
            },
            {
              "internalType": "uint256[]",
              "name": "tokenIds",
              "type": "uint256[]"
            }
          ],
          "internalType": "struct CraftLib.Ingredient[]",
          "name": "_inputs",
          "type": "tuple[]"
        },
        {
          "components": [
            {
              "internalType": "enum CraftLib.TokenType",
              "name": "token",
              "type": "uint8"
            },
            {
              "internalType": "enum CraftLib.ConsumableType",
              "name": "consumableType",
              "type": "uint8"
            },
            {
              "internalType": "address",
              "name": "contractAddr",
              "type": "address"
            },
            {
              "internalType": "uint256[]",
              "name": "amounts",
              "type": "uint256[]"
            },
            {
              "internalType": "uint256[]",
              "name": "tokenIds",
              "type": "uint256[]"
            }
          ],
          "internalType": "struct CraftLib.Ingredient[]",
          "name": "_outputs",
          "type": "tuple[]"
        }
      ],
      "name": "proxyInitialize",
      "outputs": [],
      "stateMutability": "nonpayable",
      "type": "function"
    },
    {
      "inputs": [],
      "name": "renounceOwnership",
      "outputs": [],
      "stateMutability": "nonpayable",
      "type": "function"
    },
    {
      "inputs": [
        {
          "internalType": "bytes4",
          "name": "interfaceId",
          "type": "bytes4"
        }
      ],
      "name": "supportsInterface",
      "outputs": [
        {
          "internalType": "bool",
          "name": "",
          "type": "bool"
        }
      ],
      "stateMutability": "view",
      "type": "function"
    },
    {
      "inputs": [
        {
          "internalType": "address",
          "name": "newOwner",
          "type": "address"
        }
      ],
      "name": "transferOwnership",
      "outputs": [],
      "stateMutability": "nonpayable",
      "type": "function"
    },
    {
      "inputs": [
        {
          "internalType": "address",
          "name": "newImplementation",
          "type": "address"
        }
      ],
      "name": "upgradeTo",
      "outputs": [],
      "stateMutability": "nonpayable",
      "type": "function"
    },
    {
      "inputs": [
        {
          "internalType": "address",
          "name": "newImplementation",
          "type": "address"
        },
        {
          "internalType": "bytes",
          "name": "data",
          "type": "bytes"
        }
      ],
      "name": "upgradeToAndCall",
      "outputs": [],
      "stateMutability": "payable",
      "type": "function"
    },
    {
      "inputs": [
        {
          "internalType": "uint96",
          "name": "withdrawAmount",
          "type": "uint96"
        }
      ],
      "name": "withdraw",
      "outputs": [],
      "stateMutability": "nonpayable",
      "type": "function"
    }
  ],
  "transactionHash": "0xa164b7b36e0faf88842cfdf6e15847645dabe214bb4d19189c4f61e40e8fbb7c",
  "args": [],
  "numDeployments": 2,
  "solcInputHash": "57b3e492ef4d41253038d732c9b0fa94",
  "bytecode": "0x60a0604052306080523480156200001557600080fd5b506200002062000026565b62000156565b6200003260ff62000035565b50565b60008054610100900460ff1615620000ce578160ff1660011480156200006e57506200006c306200014760201b6200214f1760201c565b155b620000c65760405162461bcd60e51b815260206004820152602e60248201526000805160206200509d83398151915260448201526d191e481a5b9a5d1a585b1a5e995960921b60648201526084015b60405180910390fd5b506000919050565b60005460ff8084169116106200012d5760405162461bcd60e51b815260206004820152602e60248201526000805160206200509d83398151915260448201526d191e481a5b9a5d1a585b1a5e995960921b6064820152608401620000bd565b506000805460ff191660ff92909216919091179055600190565b6001600160a01b03163b151590565b608051614f0f6200018e600039600081816105c00152818161060901528181610692015281816106d201526109140152614f0f6000f3fe6080604052600436106101355760003560e01c80638da5cb5b116100ab578063d2cad82a1161006f578063d2cad82a146103a0578063dee4dea0146103c0578063df5081d6146103e0578063f23a6e6114610400578063f2fde38b1461042c578063f4a3e96d1461044c57600080fd5b80638da5cb5b1461030c578063aaf10f421461032a578063acc4b78b1461033f578063bbe9e39b1461035f578063bc197c811461037457600080fd5b8063505c9f27116100fd578063505c9f271461021957806351776d931461023b57806352d1902d1461025b5780635739a0d41461027e57806370d5ae05146102be578063715018a6146102f757600080fd5b806301ffc9a71461013a578063150b7a021461016f5780632c4e328d146101b35780633659cfe6146101e45780634f1ef28614610206575b600080fd5b34801561014657600080fd5b5061015a610155366004613d80565b61046c565b60405190151581526020015b60405180910390f35b34801561017b57600080fd5b5061019a61018a366004613e74565b630a85bd0160e11b949350505050565b6040516001600160e01b03199091168152602001610166565b3480156101bf57600080fd5b506101d36101ce366004613edf565b6104a3565b604051610166959493929190613f6d565b3480156101f057600080fd5b506102046101ff366004613fc9565b6105b5565b005b610204610214366004613fe6565b610687565b34801561022557600080fd5b5061022e610741565b6040516101669190614035565b34801561024757600080fd5b50610204610256366004614158565b6108c4565b34801561026757600080fd5b50610270610907565b604051908152602001610166565b34801561028a57600080fd5b50610191546102a690600160a01b90046001600160601b031681565b6040516001600160601b039091168152602001610166565b3480156102ca57600080fd5b50610191546102df906001600160a01b031681565b6040516001600160a01b039091168152602001610166565b34801561030357600080fd5b506102046109ba565b34801561031857600080fd5b5060fb546001600160a01b03166102df565b34801561033657600080fd5b506102df6109f0565b34801561034b57600080fd5b5061020461035a3660046141aa565b6109ff565b34801561036b57600080fd5b5061022e610a3e565b34801561038057600080fd5b5061019a61038f3660046142dd565b63bc197c8160e01b95945050505050565b3480156103ac57600080fd5b506101d36103bb366004613edf565b610bb8565b3480156103cc57600080fd5b506102046103db36600461438a565b610bd6565b3480156103ec57600080fd5b506102046103fb366004614158565b611096565b34801561040c57600080fd5b5061019a61041b3660046143a5565b63f23a6e6160e01b95945050505050565b34801561043857600080fd5b50610204610447366004613fc9565b612034565b34801561045857600080fd5b506102046104673660046141aa565b6120cc565b60006001600160e01b03198216630271189760e51b148061049d57506301ffc9a760e01b6001600160e01b03198316145b92915050565b6000806000606080600061019287815481106104c1576104c161440d565b6000918252602091829020600391909102018054600182018054604080518287028101870190915281815293955060ff80841695610100850490911694620100009094046001600160a01b0316936002880192909184919083018282801561054857602002820191906000526020600020905b815481526020019060010190808311610534575b505050505091508080548060200260200160405190810160405280929190818152602001828054801561059a57602002820191906000526020600020905b815481526020019060010190808311610586575b50505050509050955095509550955095505091939590929450565b306001600160a01b037f00000000000000000000000000000000000000000000000000000000000000001614156106075760405162461bcd60e51b81526004016105fe90614423565b60405180910390fd5b7f00000000000000000000000000000000000000000000000000000000000000006001600160a01b031661063961215e565b6001600160a01b03161461065f5760405162461bcd60e51b81526004016105fe9061446f565b6106688161217a565b60408051600080825260208201909252610684918391906121a4565b50565b306001600160a01b037f00000000000000000000000000000000000000000000000000000000000000001614156106d05760405162461bcd60e51b81526004016105fe90614423565b7f00000000000000000000000000000000000000000000000000000000000000006001600160a01b031661070261215e565b6001600160a01b0316146107285760405162461bcd60e51b81526004016105fe9061446f565b6107318261217a565b61073d828260016121a4565b5050565b6060610193805480602002602001604051908101604052809291908181526020016000905b828210156108bb576000848152602090206040805160a08101909152600384029091018054829060ff1660028111156107a1576107a1613ef8565b60028111156107b2576107b2613ef8565b81528154602090910190610100900460ff1660038111156107d5576107d5613ef8565b60038111156107e6576107e6613ef8565b815281546201000090046001600160a01b0316602080830191909152600183018054604080518285028101850182528281529401939283018282801561084b57602002820191906000526020600020905b815481526020019060010190808311610837575b50505050508152602001600282018054806020026020016040519081016040528092919081815260200182805480156108a357602002820191906000526020600020905b81548152602001906001019080831161088f575b50505050508152505081526020019060010190610766565b50505050905090565b60fb546001600160a01b031633146108ee5760405162461bcd60e51b81526004016105fe906144bb565b610902836108fc83856144f0565b3361231e565b505050565b6000306001600160a01b037f000000000000000000000000000000000000000000000000000000000000000016146109a75760405162461bcd60e51b815260206004820152603860248201527f555550535570677261646561626c653a206d757374206e6f742062652063616c60448201527f6c6564207468726f7567682064656c656761746563616c6c000000000000000060648201526084016105fe565b50600080516020614e7383398151915290565b60fb546001600160a01b031633146109e45760405162461bcd60e51b81526004016105fe906144bb565b6109ee600061282c565b565b60006109fa61215e565b905090565b600054610100900460ff16610a265760405162461bcd60e51b81526004016105fe90614563565b610a358787878787878761287e565b50505050505050565b6060610192805480602002602001604051908101604052809291908181526020016000905b828210156108bb576000848152602090206040805160a08101909152600384029091018054829060ff166002811115610a9e57610a9e613ef8565b6002811115610aaf57610aaf613ef8565b81528154602090910190610100900460ff166003811115610ad257610ad2613ef8565b6003811115610ae357610ae3613ef8565b815281546201000090046001600160a01b03166020808301919091526001830180546040805182850281018501825282815294019392830182828015610b4857602002820191906000526020600020905b815481526020019060010190808311610b34575b5050505050815260200160028201805480602002602001604051908101604052809291908181526020018280548015610ba057602002820191906000526020600020905b815481526020019060010190808311610b8c575b50505050508152505081526020019060010190610a63565b6000806000606080600061019387815481106104c1576104c161440d565b60fb546001600160a01b03163314610c005760405162461bcd60e51b81526004016105fe906144bb565b6000816001600160601b031611610c6e5760405162461bcd60e51b815260206004820152602c60248201527f437261667465725472616e736665723a207769746864726177416d6f756e742060448201526b63616e6e6f7420626520302160a01b60648201526084016105fe565b610191546001600160601b03600160a01b90910481169082161115610ce45760405162461bcd60e51b815260206004820152602660248201527f437261667465725472616e736665723a204e6f7420656e6f756768207265736f60448201526575726365732160d01b60648201526084016105fe565b8061019160148282829054906101000a90046001600160601b0316610d0991906145c4565b92506101000a8154816001600160601b0302191690836001600160601b0316021790555060005b6101935481101561104b5760006101938281548110610d5157610d5161440d565b6000918252602082206003909102019150815460ff166002811115610d7857610d78613ef8565b1415610dd3578054610dce906201000090046001600160a01b031633856001600160601b031684600101600081548110610db457610db461440d565b9060005260206000200154610dc991906145ec565b6129fc565b611038565b6001815460ff166002811115610deb57610deb613ef8565b1415610edc5760005b836001600160601b0316811015610ed65781546201000090046001600160a01b03166342842e0e3033600286018054610e2f9060019061460b565b81548110610e3f57610e3f61440d565b90600052602060002001546040518463ffffffff1660e01b8152600401610e6893929190614622565b600060405180830381600087803b158015610e8257600080fd5b505af1158015610e96573d6000803e3d6000fd5b5050505081600201805480610ead57610ead614646565b600190038181906000526020600020016000905590558080610ece9061465c565b915050610df4565b50611038565b6002815460ff166002811115610ef457610ef4613ef8565b14156110385760018101546000906001600160401b03811115610f1957610f19613dbf565b604051908082528060200260200182016040528015610f42578160200160208202803683370190505b50905060005b6001830154811015610fb757846001600160601b0316836001018281548110610f7357610f7361440d565b9060005260206000200154610f8891906145ec565b828281518110610f9a57610f9a61440d565b602090810291909101015280610faf8161465c565b915050610f48565b50815460408051600081526020810191829052631759616b60e11b909152620100009091046001600160a01b031690632eb2c2d69061100490309033906002880190879060248101614704565b600060405180830381600087803b15801561101e57600080fd5b505af1158015611032573d6000803e3d6000fd5b50505050505b50806110438161465c565b915050610d30565b5061019154604051600160a01b9091046001600160601b031681527f36ca321cf0c7fde128087be822283a7ca898c8a5ef818e4e079d29ab777319ff9060200160405180910390a150565b6000836001600160601b0316116111015760405162461bcd60e51b815260206004820152602960248201527f437261667465725472616e736665723a206372616674416d6f756e742063616e6044820152686e6f7420626520302160b81b60648201526084016105fe565b610191546001600160601b03600160a01b909104811690841611156111805760405162461bcd60e51b815260206004820152602f60248201527f437261667465725472616e736665723a204e6f7420656e6f756768207265736f60448201526e757263657320746f2063726166742160881b60648201526084016105fe565b8261019160148282829054906101000a90046001600160601b03166111a591906145c4565b92506101000a8154816001600160601b0302191690836001600160601b031602179055506000805b61019254811015611cd657600061019282815481106111ee576111ee61440d565b6000918252602082206003909102019150815460ff16600281111561121557611215613ef8565b14156113a85760018154610100900460ff16600381111561123857611238613ef8565b14156112a457805461129f906201000090046001600160a01b031633610191546001850180546001600160a01b03909216916001600160601b038c1691906000906112855761128561440d565b906000526020600020015461129a91906145ec565b612a5f565b611cc3565b60008154610100900460ff1660038111156112c1576112c1613ef8565b141561129f57856001600160601b0316816001016000815481106112e7576112e761440d565b90600052602060002001546112fc91906145ec565b81546201000090046001600160a01b03166370a08231336040516001600160e01b031960e084901b1681526001600160a01b03909116600482015260240160206040518083038186803b15801561135257600080fd5b505afa158015611366573d6000803e3d6000fd5b505050506040513d601f19601f8201168201806040525081019061138a9190614756565b101561129f5760405162461bcd60e51b81526004016105fe9061476f565b6001815460ff1660028111156113c0576113c0613ef8565b14156118db57856001600160601b03168585858181106113e2576113e261440d565b90506020028101906113f491906147cc565b90501461145e5760405162461bcd60e51b815260206004820152603260248201527f437261667465725472616e736665723a205f696e70757445524337323149647360448201527116da5748084f4818dc98599d105b5bdd5b9d60721b60648201526084016105fe565b60008585858181106114725761147261440d565b905060200281019061148491906147cc565b80806020026020016040519081016040528093929190818152602001838360200280828437600092019190915250929350600192506114c1915050565b8254610100900460ff1660038111156114dc576114dc613ef8565b14156115b65760005b81518110156115b05782546201000090046001600160a01b03166342842e0e33610191546001600160a01b03168a8a8a8181106115245761152461440d565b905060200281019061153691906147cc565b868181106115465761154661440d565b905060200201356040518463ffffffff1660e01b815260040161156b93929190614622565b600060405180830381600087803b15801561158557600080fd5b505af1158015611599573d6000803e3d6000fd5b5050505080806115a89061465c565b9150506114e5565b506118c8565b60008254610100900460ff1660038111156115d3576115d3613ef8565b14156116c15760005b81518110156115b0578254825133916201000090046001600160a01b031690636352211e908590859081106116135761161361440d565b60200260200101516040518263ffffffff1660e01b815260040161163991815260200190565b60206040518083038186803b15801561165157600080fd5b505afa158015611665573d6000803e3d6000fd5b505050506040513d601f19601f820116820180604052508101906116899190614815565b6001600160a01b0316146116af5760405162461bcd60e51b81526004016105fe90614832565b806116b98161465c565b9150506115dc565b60038254610100900460ff1660038111156116de576116de613ef8565b14156118c85760005b81518110156118c6578254825133916201000090046001600160a01b031690636352211e9085908590811061171e5761171e61440d565b60200260200101516040518263ffffffff1660e01b815260040161174491815260200190565b60206040518083038186803b15801561175c57600080fd5b505afa158015611770573d6000803e3d6000fd5b505050506040513d601f19601f820116820180604052508101906117949190614815565b6001600160a01b0316146117ba5760405162461bcd60e51b81526004016105fe90614832565b60008282815181106117ce576117ce61440d565b6020908102919091018101516000878152610194835260408082205488546201000090046001600160a01b031683526101958552818320848452909452902054909250106118705760405162461bcd60e51b815260206004820152602960248201527f437261667465725472616e736665723a2055736564206f76657220746865206c60448201526834b6b4ba1037b3103760b91b60648201526084016105fe565b83546201000090046001600160a01b031660009081526101956020908152604080832084845290915281208054600192906118ac90849061487e565b909155508291506118be90508161465c565b9150506116e7565b505b6118d360018561487e565b935050611cc3565b6002815460ff1660028111156118f3576118f3613ef8565b1415611cc35760018154610100900460ff16600381111561191657611916613ef8565b1415611a655760018101546000906001600160401b0381111561193b5761193b613dbf565b604051908082528060200260200182016040528015611964578160200160208202803683370190505b50905060005b60018301548110156119d957876001600160601b03168360010182815481106119955761199561440d565b90600052602060002001546119aa91906145ec565b8282815181106119bc576119bc61440d565b6020908102919091010152806119d18161465c565b91505061196a565b5081546101915460408051600081526020810191829052631759616b60e11b909152620100009092046001600160a01b0390811692632eb2c2d692611a2d9233929116906002880190879060248101614704565b600060405180830381600087803b158015611a4757600080fd5b505af1158015611a5b573d6000803e3d6000fd5b5050505050611cc3565b60008154610100900460ff166003811115611a8257611a82613ef8565b1415611cc35760018101546000906001600160401b03811115611aa757611aa7613dbf565b604051908082528060200260200182016040528015611ad0578160200160208202803683370190505b5060018301549091506000906001600160401b03811115611af357611af3613dbf565b604051908082528060200260200182016040528015611b1c578160200160208202803683370190505b50905060005b6001840154811015611bbc57886001600160601b0316846001018281548110611b4d57611b4d61440d565b9060005260206000200154611b6291906145ec565b838281518110611b7457611b7461440d565b602090810291909101015233828281518110611b9257611b9261440d565b6001600160a01b039092166020928302919091019091015280611bb48161465c565b915050611b22565b5082546040516313849cfd60e21b81526000916201000090046001600160a01b031690634e1273f490611bf89085906002890190600401614896565b60006040518083038186803b158015611c1057600080fd5b505afa158015611c24573d6000803e3d6000fd5b505050506040513d6000823e601f3d908101601f19168201604052611c4c91908101906148f6565b905060005b8151811015611cbe57838181518110611c6c57611c6c61440d565b6020026020010151828281518110611c8657611c8661440d565b60200260200101511015611cac5760405162461bcd60e51b81526004016105fe9061476f565b80611cb68161465c565b915050611c51565b505050505b5080611cce8161465c565b9150506111cd565b5060005b61019354811015611fdb5760006101938281548110611cfb57611cfb61440d565b6000918252602082206003909102019150815460ff166002811115611d2257611d22613ef8565b1415611d63578054611d5e906201000090046001600160a01b031633886001600160601b031684600101600081548110610db457610db461440d565b611fc8565b6001815460ff166002811115611d7b57611d7b613ef8565b1415611e6c5760005b866001600160601b0316811015611e665781546201000090046001600160a01b03166342842e0e3033600286018054611dbf9060019061460b565b81548110611dcf57611dcf61440d565b90600052602060002001546040518463ffffffff1660e01b8152600401611df893929190614622565b600060405180830381600087803b158015611e1257600080fd5b505af1158015611e26573d6000803e3d6000fd5b5050505081600201805480611e3d57611e3d614646565b600190038181906000526020600020016000905590558080611e5e9061465c565b915050611d84565b50611fc8565b6002815460ff166002811115611e8457611e84613ef8565b1415611fc85760018101546000906001600160401b03811115611ea957611ea9613dbf565b604051908082528060200260200182016040528015611ed2578160200160208202803683370190505b50905060005b6001830154811015611f4757876001600160601b0316836001018281548110611f0357611f0361440d565b9060005260206000200154611f1891906145ec565b828281518110611f2a57611f2a61440d565b602090810291909101015280611f3f8161465c565b915050611ed8565b50815460408051600081526020810191829052631759616b60e11b909152620100009091046001600160a01b031690632eb2c2d690611f9490309033906002880190879060248101614704565b600060405180830381600087803b158015611fae57600080fd5b505af1158015611fc2573d6000803e3d6000fd5b50505050505b5080611fd38161465c565b915050611cda565b5061019154604080516001600160601b038781168252600160a01b9093049092166020830152805133927fd9b4399bff946a8ce8115e149514e628dbd773a7a931de96f81236602311314c92908290030190a250505050565b60fb546001600160a01b0316331461205e5760405162461bcd60e51b81526004016105fe906144bb565b6001600160a01b0381166120c35760405162461bcd60e51b815260206004820152602660248201527f4f776e61626c653a206e6577206f776e657220697320746865207a65726f206160448201526564647265737360d01b60648201526084016105fe565b6106848161282c565b60006120d86001612a86565b905080156120f0576000805461ff0019166101001790555b6120ff8888888888888861287e565b8015612145576000805461ff0019169055604051600181527f7f26b83ff96e1f2b6a682f133852f6798a09c465da95921460cefb38474024989060200160405180910390a15b5050505050505050565b6001600160a01b03163b151590565b600080516020614e73833981519152546001600160a01b031690565b60fb546001600160a01b031633146106845760405162461bcd60e51b81526004016105fe906144bb565b7f4910fdfa16fed3260ed0e7147f7cc6da11a60208b5b9406d12a635614ffd91435460ff16156121d75761090283612b13565b826001600160a01b03166352d1902d6040518163ffffffff1660e01b815260040160206040518083038186803b15801561221057600080fd5b505afa925050508015612240575060408051601f3d908101601f1916820190925261223d91810190614756565b60015b6122a35760405162461bcd60e51b815260206004820152602e60248201527f45524331393637557067726164653a206e657720696d706c656d656e7461746960448201526d6f6e206973206e6f74205555505360901b60648201526084016105fe565b600080516020614e7383398151915281146123125760405162461bcd60e51b815260206004820152602960248201527f45524331393637557067726164653a20756e737570706f727465642070726f786044820152681a58589b195555525160ba1b60648201526084016105fe565b50610902838383612baf565b6000836001600160601b03161161238b5760405162461bcd60e51b815260206004820152602b60248201527f437261667465725472616e736665723a206465706f736974416d6f756e74206360448201526a616e6e6f7420626520302160a81b60648201526084016105fe565b6000805b6101935481101561279e57600061019382815481106123b0576123b061440d565b6000918252602082206003909102019150815460ff1660028111156123d7576123d7613ef8565b141561241f5761241a8160000160029054906101000a90046001600160a01b03168530896001600160601b0316856001016000815481106112855761128561440d565b61278b565b6001815460ff16600281111561243757612437613ef8565b141561261157856001600160601b03168584815181106124595761245961440d565b602002602001015151146124ce5760405162461bcd60e51b815260206004820152603660248201527f437261667465725472616e736665723a205f6f75747075747345524337323149604482015275191cd6da5748084f4819195c1bdcda5d105b5bdd5b9d60521b60648201526084016105fe565b60005b8584815181106124e3576124e361440d565b6020026020010151518110156125fe578160000160029054906101000a90046001600160a01b03166001600160a01b03166342842e0e863089888151811061252d5761252d61440d565b602002602001015185815181106125465761254661440d565b60200260200101516040518463ffffffff1660e01b815260040161256c93929190614622565b600060405180830381600087803b15801561258657600080fd5b505af115801561259a573d6000803e3d6000fd5b50505050816002018685815181106125b4576125b461440d565b602002602001015182815181106125cd576125cd61440d565b60209081029190910181015182546001810184556000938452919092200155806125f68161465c565b9150506124d1565b5061260a60018461487e565b925061278b565b6002815460ff16600281111561262957612629613ef8565b141561278b5760018101546000906001600160401b0381111561264e5761264e613dbf565b604051908082528060200260200182016040528015612677578160200160208202803683370190505b50905060005b60018301548110156126ec57876001600160601b03168360010182815481106126a8576126a861440d565b90600052602060002001546126bd91906145ec565b8282815181106126cf576126cf61440d565b6020908102919091010152806126e48161465c565b91505061267d565b5081546201000090046001600160a01b0316632eb2c2d68630600286018560006040519080825280601f01601f191660200182016040528015612736576020820181803683370190505b506040518663ffffffff1660e01b8152600401612757959493929190614704565b600060405180830381600087803b15801561277157600080fd5b505af1158015612785573d6000803e3d6000fd5b50505050505b50806127968161465c565b91505061238f565b508361019160148282829054906101000a90046001600160601b03166127c4919061497b565b82546101009290920a6001600160601b0381810219909316918316021790915561019154604051600160a01b90910490911681527f36ca321cf0c7fde128087be822283a7ca898c8a5ef818e4e079d29ab777319ff915060200160405180910390a150505050565b60fb80546001600160a01b038381166001600160a01b0319831681179093556040519116919082907f8be0079c531659141344cd1fd0a4f28419497f9722a3daafe3b4186f6b6457e090600090a35050565b600054610100900460ff166128a55760405162461bcd60e51b81526004016105fe90614563565b6001600160a01b03861661290f5760405162461bcd60e51b815260206004820152602b60248201527f437261667465725472616e736665723a206275726e2061646472657373206d7560448201526a07374206e6f7420626520360ac1b60648201526084016105fe565b826129755760405162461bcd60e51b815260206004820152603060248201527f437261667465725472616e736665723a2041206372616674696e6720696e707560448201526f74206d75737420626520676976656e2160801b60648201526084016105fe565b806129dc5760405162461bcd60e51b815260206004820152603160248201527f437261667465725472616e736665723a2041206372616674696e67206f7574706044820152707574206d75737420626520676976656e2160781b60648201526084016105fe565b6129e4612bd4565b6129ed8761282c565b610a3587878787878787612c03565b6040516001600160a01b03831660248201526044810182905261090290849063a9059cbb60e01b906064015b60408051601f198184030181529190526020810180516001600160e01b03166001600160e01b031990931692909217909152613967565b612a80846323b872dd60e01b858585604051602401612a2893929190614622565b50505050565b60008054610100900460ff1615612acd578160ff166001148015612aa95750303b155b612ac55760405162461bcd60e51b81526004016105fe906149a6565b506000919050565b60005460ff808416911610612af45760405162461bcd60e51b81526004016105fe906149a6565b506000805460ff191660ff92909216919091179055600190565b919050565b6001600160a01b0381163b612b805760405162461bcd60e51b815260206004820152602d60248201527f455243313936373a206e657720696d706c656d656e746174696f6e206973206e60448201526c1bdd08184818dbdb9d1c9858dd609a1b60648201526084016105fe565b600080516020614e7383398151915280546001600160a01b0319166001600160a01b0392909216919091179055565b612bb883613a39565b600082511180612bc55750805b1561090257612a808383613a79565b600054610100900460ff16612bfb5760405162461bcd60e51b81526004016105fe90614563565b6109ee613b6d565b600054610100900460ff16612c2a5760405162461bcd60e51b81526004016105fe90614563565b61019180546001600160a01b0319166001600160a01b03881617905560005b8381101561312a576000858583818110612c6557612c6561440d565b9050602002810190612c7791906149f4565b612c85906020810190614a21565b6002811115612c9657612c96613ef8565b1415612d4557848482818110612cae57612cae61440d565b9050602002810190612cc091906149f4565b612cce9060808101906147cc565b159050612ced5760405162461bcd60e51b81526004016105fe90614a3e565b848482818110612cff57612cff61440d565b9050602002810190612d1191906149f4565b612d1f9060608101906147cc565b9050600114612d405760405162461bcd60e51b81526004016105fe90614a83565b6130cc565b6001858583818110612d5957612d5961440d565b9050602002810190612d6b91906149f4565b612d79906020810190614a21565b6002811115612d8a57612d8a613ef8565b1415612ffc57848482818110612da257612da261440d565b9050602002810190612db491906149f4565b612dc29060808101906147cc565b159050612e1f5760405162461bcd60e51b815260206004820152602560248201527f437261667465725472616e736665723a20746f6b656e4964732e6c656e677468604482015264020213d20360dc1b60648201526084016105fe565b6003858583818110612e3357612e3361440d565b9050602002810190612e4591906149f4565b612e56906040810190602001614ac2565b6003811115612e6757612e67613ef8565b1415612f7b57848482818110612e7f57612e7f61440d565b9050602002810190612e9191906149f4565b612e9f9060608101906147cc565b9050600114612f145760405162461bcd60e51b81526020600482015260476024820152600080516020614eba83398151915260448201527f213d20313b20726571756972656420666f72204e54696d6520436f6e73756d61606482015266626c655479706560c81b608482015260a4016105fe565b848482818110612f2657612f2661440d565b9050602002810190612f3891906149f4565b612f469060608101906147cc565b6000818110612f5757612f5761440d565b905060200201356101946000838152602001908152602001600020819055506130cc565b848482818110612f8d57612f8d61440d565b9050602002810190612f9f91906149f4565b612fad9060608101906147cc565b159050612d405760405162461bcd60e51b81526020600482015260296024820152600080516020614eba8339815191526044820152680213d2031206f7220360bc1b60648201526084016105fe565b60028585838181106130105761301061440d565b905060200281019061302291906149f4565b613030906020810190614a21565b600281111561304157613041613ef8565b14156130cc578484828181106130595761305961440d565b905060200281019061306b91906149f4565b6130799060608101906147cc565b905085858381811061308d5761308d61440d565b905060200281019061309f91906149f4565b6130ad9060808101906147cc565b9050146130cc5760405162461bcd60e51b81526004016105fe90614adf565b6101928585838181106130e1576130e161440d565b90506020028101906130f391906149f4565b8154600181018355600092835260209092209091600302016131158282614bc1565b505080806131229061465c565b915050612c49565b506000805b8281101561372357600084848381811061314b5761314b61440d565b905060200281019061315d91906149f4565b61316b906020810190614a21565b600281111561317c5761317c613ef8565b1415613276578383828181106131945761319461440d565b90506020028101906131a691906149f4565b6131b49060808101906147cc565b1590506131d35760405162461bcd60e51b81526004016105fe90614a3e565b8383828181106131e5576131e561440d565b90506020028101906131f791906149f4565b6132059060608101906147cc565b90506001146132265760405162461bcd60e51b81526004016105fe90614a83565b61019384848381811061323b5761323b61440d565b905060200281019061324d91906149f4565b81546001810183556000928352602090922090916003020161326f8282614bc1565b5050613711565b600184848381811061328a5761328a61440d565b905060200281019061329c91906149f4565b6132aa906020810190614a21565b60028111156132bb576132bb613ef8565b14156135f557866001600160601b03168484838181106132dd576132dd61440d565b90506020028101906132ef91906149f4565b6132fd9060808101906147cc565b9050146133695760405162461bcd60e51b815260206004820152603460248201527f437261667465725472616e736665723a20746f6b656e6964732e6c656e67746860448201527308084f4817d8dc98599d18589b19505b5bdd5b9d60621b60648201526084016105fe565b83838281811061337b5761337b61440d565b905060200281019061338d91906149f4565b61339b9060608101906147cc565b1590506133e45760405162461bcd60e51b815260206004820152602480820152600080516020614eba8339815191526044820152630213d20360e41b60648201526084016105fe565b816133ee8161465c565b92505060006040518060a001604052806001600281111561341157613411613ef8565b81526020018686858181106134285761342861440d565b905060200281019061343a91906149f4565b61344b906040810190602001614ac2565b600381111561345c5761345c613ef8565b81526020018686858181106134735761347361440d565b905060200281019061348591906149f4565b613496906060810190604001613fc9565b6001600160a01b0316815260200160006040519080825280602002602001820160405280156134cf578160200160208202803683370190505b5081526020016000604051908082528060200260200182016040528015613500578160200160208202803683370190505b509052610193805460018181018355600092909252825160039091027ffc8af01f449989052b52093a58fc9f42d0b11f0c6dd5dca0463dab62346ccc6801805493945084939092839160ff19169083600281111561356057613560613ef8565b021790555060208201518154829061ff00191661010083600381111561358857613588613ef8565b0217905550604082015181546001600160a01b03909116620100000262010000600160b01b0319909116178155606082015180516135d0916001840191602090910190613d20565b50608082015180516135ec916002840191602090910190613d20565b50505050613711565b60028484838181106136095761360961440d565b905060200281019061361b91906149f4565b613629906020810190614a21565b600281111561363a5761363a613ef8565b1415613711578383828181106136525761365261440d565b905060200281019061366491906149f4565b6136729060608101906147cc565b90508484838181106136865761368661440d565b905060200281019061369891906149f4565b6136a69060808101906147cc565b9050146136c55760405162461bcd60e51b81526004016105fe90614adf565b6101938484838181106136da576136da61440d565b90506020028101906136ec91906149f4565b81546001810183556000928352602090922090916003020161370e8282614bc1565b50505b8061371b8161465c565b91505061312f565b506000816001600160401b0381111561373e5761373e613dbf565b60405190808252806020026020018201604052801561377157816020015b606081526020019060019003908161375c5790505b5090506000805b848110156138f95760018686838181106137945761379461440d565b90506020028101906137a691906149f4565b6137b4906020810190614a21565b60028111156137c5576137c5613ef8565b14156138e757886001600160601b03166001600160401b038111156137ec576137ec613dbf565b604051908082528060200260200182016040528015613815578160200160208202803683370190505b508383815181106138285761382861440d565b602002602001018190525060005b896001600160601b03168110156138d8578686838181106138595761385961440d565b905060200281019061386b91906149f4565b6138799060808101906147cc565b828181106138895761388961440d565b905060200201358484815181106138a2576138a261440d565b602002602001015182815181106138bb576138bb61440d565b6020908102919091010152806138d08161465c565b915050613836565b50816138e38161465c565b9250505b806138f18161465c565b915050613778565b506001600160601b038816156139145761391488838c61231e565b336001600160a01b03167fa0debf7c9ca45a90f258771b745e3ecfedce2c567503855e392d93e1c7a734b5888888886040516139539493929190614e04565b60405180910390a250505050505050505050565b60006139bc826040518060400160405280602081526020017f5361666545524332303a206c6f772d6c6576656c2063616c6c206661696c6564815250856001600160a01b0316613b9d9092919063ffffffff16565b80519091501561090257808060200190518101906139da9190614e2b565b6109025760405162461bcd60e51b815260206004820152602a60248201527f5361666545524332303a204552433230206f7065726174696f6e20646964206e6044820152691bdd081cdd58d8d9595960b21b60648201526084016105fe565b613a4281612b13565b6040516001600160a01b038216907fbc7cd75a20ee27fd9adebab32041f755214dbc6bffa90cc0225b39da2e5c2d3b90600090a250565b60606001600160a01b0383163b613ae15760405162461bcd60e51b815260206004820152602660248201527f416464726573733a2064656c65676174652063616c6c20746f206e6f6e2d636f6044820152651b9d1c9858dd60d21b60648201526084016105fe565b600080846001600160a01b031684604051613afc9190614e4d565b600060405180830381855af49150503d8060008114613b37576040519150601f19603f3d011682016040523d82523d6000602084013e613b3c565b606091505b5091509150613b648282604051806060016040528060278152602001614e9360279139613bb6565b95945050505050565b600054610100900460ff16613b945760405162461bcd60e51b81526004016105fe90614563565b6109ee3361282c565b6060613bac8484600085613bef565b90505b9392505050565b60608315613bc5575081613baf565b825115613bd55782518084602001fd5b8160405162461bcd60e51b81526004016105fe9190614e5f565b606082471015613c505760405162461bcd60e51b815260206004820152602660248201527f416464726573733a20696e73756666696369656e742062616c616e636520666f6044820152651c8818d85b1b60d21b60648201526084016105fe565b6001600160a01b0385163b613ca75760405162461bcd60e51b815260206004820152601d60248201527f416464726573733a2063616c6c20746f206e6f6e2d636f6e747261637400000060448201526064016105fe565b600080866001600160a01b03168587604051613cc39190614e4d565b60006040518083038185875af1925050503d8060008114613d00576040519150601f19603f3d011682016040523d82523d6000602084013e613d05565b606091505b5091509150613d15828286613bb6565b979650505050505050565b828054828255906000526020600020908101928215613d5b579160200282015b82811115613d5b578251825591602001919060010190613d40565b50613d67929150613d6b565b5090565b5b80821115613d675760008155600101613d6c565b600060208284031215613d9257600080fd5b81356001600160e01b031981168114613baf57600080fd5b6001600160a01b038116811461068457600080fd5b634e487b7160e01b600052604160045260246000fd5b604051601f8201601f191681016001600160401b0381118282101715613dfd57613dfd613dbf565b604052919050565b600082601f830112613e1657600080fd5b81356001600160401b03811115613e2f57613e2f613dbf565b613e42601f8201601f1916602001613dd5565b818152846020838601011115613e5757600080fd5b816020850160208301376000918101602001919091529392505050565b60008060008060808587031215613e8a57600080fd5b8435613e9581613daa565b93506020850135613ea581613daa565b92506040850135915060608501356001600160401b03811115613ec757600080fd5b613ed387828801613e05565b91505092959194509250565b600060208284031215613ef157600080fd5b5035919050565b634e487b7160e01b600052602160045260246000fd5b60038110613f1e57613f1e613ef8565b9052565b60048110613f1e57613f1e613ef8565b600081518084526020808501945080840160005b83811015613f6257815187529582019590820190600101613f46565b509495945050505050565b613f778187613f0e565b613f846020820186613f22565b6001600160a01b038416604082015260a060608201819052600090613fab90830185613f32565b8281036080840152613fbd8185613f32565b98975050505050505050565b600060208284031215613fdb57600080fd5b8135613baf81613daa565b60008060408385031215613ff957600080fd5b823561400481613daa565b915060208301356001600160401b0381111561401f57600080fd5b61402b85828601613e05565b9150509250929050565b60006020808301818452808551808352604092508286019150828160051b87010184880160005b838110156140e857603f19898403018552815160a061407c858351613f0e565b8882015161408c8a870182613f22565b50818801516001600160a01b0316858901526060808301518187018390526140b683880182613f32565b92505050608080830151925085820381870152506140d48183613f32565b96890196945050509086019060010161405c565b509098975050505050505050565b80356001600160601b0381168114612b0e57600080fd5b60008083601f84011261411f57600080fd5b5081356001600160401b0381111561413657600080fd5b6020830191508360208260051b850101111561415157600080fd5b9250929050565b60008060006040848603121561416d57600080fd5b614176846140f6565b925060208401356001600160401b0381111561419157600080fd5b61419d8682870161410d565b9497909650939450505050565b600080600080600080600060a0888a0312156141c557600080fd5b87356141d081613daa565b965060208801356141e081613daa565b95506141ee604089016140f6565b945060608801356001600160401b038082111561420a57600080fd5b6142168b838c0161410d565b909650945060808a013591508082111561422f57600080fd5b5061423c8a828b0161410d565b989b979a50959850939692959293505050565b60006001600160401b0382111561426857614268613dbf565b5060051b60200190565b600082601f83011261428357600080fd5b813560206142986142938361424f565b613dd5565b82815260059290921b840181019181810190868411156142b757600080fd5b8286015b848110156142d257803583529183019183016142bb565b509695505050505050565b600080600080600060a086880312156142f557600080fd5b853561430081613daa565b9450602086013561431081613daa565b935060408601356001600160401b038082111561432c57600080fd5b61433889838a01614272565b9450606088013591508082111561434e57600080fd5b61435a89838a01614272565b9350608088013591508082111561437057600080fd5b5061437d88828901613e05565b9150509295509295909350565b60006020828403121561439c57600080fd5b613baf826140f6565b600080600080600060a086880312156143bd57600080fd5b85356143c881613daa565b945060208601356143d881613daa565b9350604086013592506060860135915060808601356001600160401b0381111561440157600080fd5b61437d88828901613e05565b634e487b7160e01b600052603260045260246000fd5b6020808252602c908201527f46756e6374696f6e206d7573742062652063616c6c6564207468726f7567682060408201526b19195b1959d85d1958d85b1b60a21b606082015260800190565b6020808252602c908201527f46756e6374696f6e206d7573742062652063616c6c6564207468726f7567682060408201526b6163746976652070726f787960a01b606082015260800190565b6020808252818101527f4f776e61626c653a2063616c6c6572206973206e6f7420746865206f776e6572604082015260600190565b60006144fe6142938461424f565b80848252602080830192508560051b85013681111561451c57600080fd5b855b818110156145575780356001600160401b0381111561453d5760008081fd5b61454936828a01614272565b86525093820193820161451e565b50919695505050505050565b6020808252602b908201527f496e697469616c697a61626c653a20636f6e7472616374206973206e6f74206960408201526a6e697469616c697a696e6760a81b606082015260800190565b634e487b7160e01b600052601160045260246000fd5b60006001600160601b03838116908316818110156145e4576145e46145ae565b039392505050565b6000816000190483118215151615614606576146066145ae565b500290565b60008282101561461d5761461d6145ae565b500390565b6001600160a01b039384168152919092166020820152604081019190915260600190565b634e487b7160e01b600052603160045260246000fd5b6000600019821415614670576146706145ae565b5060010190565b6000815480845260208085019450836000528060002060005b83811015613f6257815487529582019560019182019101614690565b60005b838110156146c75781810151838201526020016146af565b83811115612a805750506000910152565b600081518084526146f08160208601602086016146ac565b601f01601f19169290920160200192915050565b6001600160a01b0386811682528516602082015260a06040820181905260009061473090830186614677565b82810360608401526147428186613f32565b90508281036080840152613fbd81856146d8565b60006020828403121561476857600080fd5b5051919050565b60208082526037908201527f437261667465725472616e736665723a2055736572206d697373696e67206d6960408201527f6e696d756d20746f6b656e2062616c616e636528732921000000000000000000606082015260800190565b6000808335601e198436030181126147e357600080fd5b8301803591506001600160401b038211156147fd57600080fd5b6020019150600581901b360382131561415157600080fd5b60006020828403121561482757600080fd5b8151613baf81613daa565b6020808252602c908201527f437261667465725472616e736665723a205573657220646f6573206e6f74206f60408201526b776e20746f6b656e2873292160a01b606082015260800190565b60008219821115614891576148916145ae565b500190565b604080825283519082018190526000906020906060840190828701845b828110156148d85781516001600160a01b0316845292840192908401906001016148b3565b505050838103828501526148ec8186614677565b9695505050505050565b6000602080838503121561490957600080fd5b82516001600160401b0381111561491f57600080fd5b8301601f8101851361493057600080fd5b805161493e6142938261424f565b81815260059190911b8201830190838101908783111561495d57600080fd5b928401925b82841015613d1557835182529284019290840190614962565b60006001600160601b0380831681851680830382111561499d5761499d6145ae565b01949350505050565b6020808252602e908201527f496e697469616c697a61626c653a20636f6e747261637420697320616c72656160408201526d191e481a5b9a5d1a585b1a5e995960921b606082015260800190565b60008235609e19833603018112614a0a57600080fd5b9190910192915050565b6003811061068457600080fd5b600060208284031215614a3357600080fd5b8135613baf81614a14565b60208082526025908201527f437261667465725472616e736665723a20746f6b656e6964732e6c656e677468604082015264020213d20360dc1b606082015260800190565b6020808252602490820152600080516020614eba833981519152604082015263213d203160e01b606082015260800190565b6004811061068457600080fd5b600060208284031215614ad457600080fd5b8135613baf81614ab5565b60208082526032908201527f437261667465725472616e736665723a20746f6b656e6964732e6c656e677468604082015271040427a40c2dadeeadce8e65cd8cadccee8d60731b606082015260800190565b6000813561049d81613daa565b68010000000000000000831115614b5757614b57613dbf565b805483825580841015614b8e576000828152602081208581019083015b80821015614b8a57828255600182019150614b74565b5050505b5060008181526020812083915b85811015614bb9578235825560209092019160019182019101614b9b565b505050505050565b8135614bcc81614a14565b60038110614bdc57614bdc613ef8565b815460ff821691508160ff1982161783556020840135614bfb81614ab5565b60048110614c0b57614c0b613ef8565b61ff008160081b168361ffff19841617178455505050614c58614c3060408401614b31565b82805462010000600160b01b03191660109290921b62010000600160b01b0316919091179055565b614c6560608301836147cc565b614c73818360018601614b3e565b5050614c8260808301836147cc565b612a80818360028601614b3e565b6000808335601e19843603018112614ca757600080fd5b83016020810192503590506001600160401b03811115614cc657600080fd5b8060051b360383131561415157600080fd5b81835260006001600160fb1b03831115614cf157600080fd5b8260051b8083602087013760009401602001938452509192915050565b81835260006020808501808196508560051b81019150846000805b88811015614df6578385038a528235609e19893603018112614d49578283fd5b880160a08135614d5881614a14565b614d628882613f0e565b5087820135614d7081614ab5565b614d7c89890182613f22565b50604080830135614d8c81613daa565b6001600160a01b0316908801526060614da783820184614c90565b83838b0152614db9848b018284614cd8565b93505050506080614dcc81840184614c90565b9350888303828a0152614de0838583614cd8565b9d8a019d98505050938701935050600101614d29565b509298975050505050505050565b604081526000614e18604083018688614d0e565b8281036020840152613d15818587614d0e565b600060208284031215614e3d57600080fd5b81518015158114613baf57600080fd5b60008251614a0a8184602087016146ac565b602081526000613baf60208301846146d856fe360894a13ba1a3210667c828492db98dca3e2076cc3735a920a3ca505d382bbc416464726573733a206c6f772d6c6576656c2064656c65676174652063616c6c206661696c6564437261667465725472616e736665723a20616d6f756e74732e6c656e67746820a26469706673582212201e2b0507e008240b3800dd7ffae9348e0caa5b38d1ce5b04c7c40d072e52b1a764736f6c63430008090033496e697469616c697a61626c653a20636f6e747261637420697320616c726561",
  "devdoc": {
    "details": "Pluggable Crafting Contract.",
    "kind": "dev",
    "methods": {
      "constructor": {
        "custom:oz-upgrades-unsafe-allow": "constructor"
      },
      "craft(uint96,uint256[][])": {
        "details": "Used to craft. Consumes inputs and transfers outputs.",
        "params": {
          "_inputERC721Ids": "Array of pre-approved NFTs for crafting usage.",
          "craftAmount": "How many times to craft"
        }
      },
      "deposit(uint96,uint256[][])": {
        "details": "Used to deposit recipe outputs.",
        "params": {
          "_outputsERC721Ids": "2D-array of ERC721 tokens used in crafting",
          "depositAmount": "How many times the recipe should be craftable"
        }
      },
      "getInputIngredient(uint256)": {
        "details": "Returns all details for a specific ingredient (including amounts/tokenIds)",
        "params": {
          "index": "ingredient index to return details for"
        },
        "returns": {
          "amounts": "amount of each token",
          "consumableType": "consumable type",
          "contractAddr": "token contract address",
          "token": "token type",
          "tokenIds": "token ids"
        }
      },
      "getInputs()": {
        "details": "Returns all inputs (without `amounts` or `tokenIds`)"
      },
      "getOutputIngredient(uint256)": {
        "details": "Returns all details for a specific ingredient (including amounts/tokenIds)",
        "params": {
          "index": "ingredient index to return details for"
        },
        "returns": {
          "amounts": "amount of each token",
          "consumableType": "consumable type",
          "contractAddr": "token contract address",
          "token": "token type",
          "tokenIds": "token ids"
        }
      },
      "getOutputs()": {
        "details": "Returns all outputs (without `amounts` or `tokenIds`)"
      },
      "initialize(address,address,uint96,(uint8,uint8,address,uint256[],uint256[])[],(uint8,uint8,address,uint256[],uint256[])[])": {
        "details": "Configures crafting recipe with inputs/outputs",
        "params": {
          "_burnAddress": "Burn address for burn inputs",
          "_inputs": "inputs for recipe",
          "_outputs": "outputs for recipe"
        }
      },
      "onERC721Received(address,address,uint256,bytes)": {
        "details": "See {IERC721Receiver-onERC721Received}. Always returns `IERC721Receiver.onERC721Received.selector`."
      },
      "owner()": {
        "details": "Returns the address of the current owner."
      },
      "proxiableUUID()": {
        "details": "Implementation of the ERC1822 {proxiableUUID} function. This returns the storage slot used by the implementation. It is used to validate that the this implementation remains valid after an upgrade. IMPORTANT: A proxy pointing at a proxiable contract should not be considered proxiable itself, because this risks bricking a proxy that upgrades to it, by delegating to itself until out of gas. Thus it is critical that this function revert if invoked through a proxy. This is guaranteed by the `notDelegated` modifier."
      },
      "renounceOwnership()": {
        "details": "Leaves the contract without owner. It will not be possible to call `onlyOwner` functions anymore. Can only be called by the current owner. NOTE: Renouncing ownership will leave the contract without an owner, thereby removing any functionality that is only available to the owner."
      },
      "supportsInterface(bytes4)": {
        "details": "See {IERC165-supportsInterface}."
      },
      "transferOwnership(address)": {
        "details": "Transfers ownership of the contract to a new account (`newOwner`). Can only be called by the current owner."
      },
      "upgradeTo(address)": {
        "details": "Upgrade the implementation of the proxy to `newImplementation`. Calls {_authorizeUpgrade}. Emits an {Upgraded} event."
      },
      "upgradeToAndCall(address,bytes)": {
        "details": "Upgrade the implementation of the proxy to `newImplementation`, and subsequently execute the function call encoded in `data`. Calls {_authorizeUpgrade}. Emits an {Upgraded} event."
      },
      "withdraw(uint96)": {
        "details": "Used to withdraw recipe outputs. Reverse logic as deposit().",
        "params": {
          "withdrawAmount": "How many times the craft outputs should be withdrawn"
        }
      }
    },
    "version": 1
  },
  "userdoc": {
    "kind": "user",
    "methods": {
      "craft(uint96,uint256[][])": {
        "notice": "Craft {craftAmount}"
      },
      "deposit(uint96,uint256[][])": {
        "notice": "Must be recipe creator. Automatically sends from `msg.sender`"
      },
      "initialize(address,address,uint96,(uint8,uint8,address,uint256[],uint256[])[],(uint8,uint8,address,uint256[],uint256[])[])": {
        "notice": "Create recipe"
      },
      "withdraw(uint96)": {
        "notice": "Must be recipe creator"
      }
    },
    "version": 1
  },
  "storageLayout": {
    "storage": [
      {
        "astId": 1012,
        "contract": "contracts/plugins/Crafter/CrafterTransfer.sol:CrafterTransfer",
        "label": "_initialized",
        "offset": 0,
        "slot": "0",
        "type": "t_uint8"
      },
      {
        "astId": 1015,
        "contract": "contracts/plugins/Crafter/CrafterTransfer.sol:CrafterTransfer",
        "label": "_initializing",
        "offset": 1,
        "slot": "0",
        "type": "t_bool"
      },
      {
        "astId": 5070,
        "contract": "contracts/plugins/Crafter/CrafterTransfer.sol:CrafterTransfer",
        "label": "__gap",
        "offset": 0,
        "slot": "1",
        "type": "t_array(t_uint256)50_storage"
      },
      {
        "astId": 5662,
        "contract": "contracts/plugins/Crafter/CrafterTransfer.sol:CrafterTransfer",
        "label": "__gap",
        "offset": 0,
        "slot": "51",
        "type": "t_array(t_uint256)50_storage"
      },
      {
        "astId": 2919,
        "contract": "contracts/plugins/Crafter/CrafterTransfer.sol:CrafterTransfer",
        "label": "__gap",
        "offset": 0,
        "slot": "101",
        "type": "t_array(t_uint256)50_storage"
      },
      {
        "astId": 2865,
        "contract": "contracts/plugins/Crafter/CrafterTransfer.sol:CrafterTransfer",
        "label": "__gap",
        "offset": 0,
        "slot": "151",
        "type": "t_array(t_uint256)50_storage"
      },
      {
        "astId": 5355,
        "contract": "contracts/plugins/Crafter/CrafterTransfer.sol:CrafterTransfer",
        "label": "__gap",
        "offset": 0,
        "slot": "201",
        "type": "t_array(t_uint256)50_storage"
      },
      {
        "astId": 423,
        "contract": "contracts/plugins/Crafter/CrafterTransfer.sol:CrafterTransfer",
        "label": "_owner",
        "offset": 0,
        "slot": "251",
        "type": "t_address"
      },
      {
        "astId": 535,
        "contract": "contracts/plugins/Crafter/CrafterTransfer.sol:CrafterTransfer",
        "label": "__gap",
        "offset": 0,
        "slot": "252",
        "type": "t_array(t_uint256)49_storage"
      },
      {
        "astId": 994,
        "contract": "contracts/plugins/Crafter/CrafterTransfer.sol:CrafterTransfer",
        "label": "__gap",
        "offset": 0,
        "slot": "301",
        "type": "t_array(t_uint256)50_storage"
      },
      {
        "astId": 1282,
        "contract": "contracts/plugins/Crafter/CrafterTransfer.sol:CrafterTransfer",
        "label": "__gap",
        "offset": 0,
        "slot": "351",
        "type": "t_array(t_uint256)50_storage"
      },
      {
        "astId": 11489,
        "contract": "contracts/plugins/Crafter/CrafterTransfer.sol:CrafterTransfer",
        "label": "burnAddress",
        "offset": 0,
        "slot": "401",
        "type": "t_address"
      },
      {
        "astId": 11491,
        "contract": "contracts/plugins/Crafter/CrafterTransfer.sol:CrafterTransfer",
        "label": "craftableAmount",
        "offset": 20,
        "slot": "401",
        "type": "t_uint96"
      },
      {
        "astId": 11495,
        "contract": "contracts/plugins/Crafter/CrafterTransfer.sol:CrafterTransfer",
        "label": "inputs",
        "offset": 0,
        "slot": "402",
        "type": "t_array(t_struct(Ingredient)9937_storage)dyn_storage"
      },
      {
        "astId": 11499,
        "contract": "contracts/plugins/Crafter/CrafterTransfer.sol:CrafterTransfer",
        "label": "outputs",
        "offset": 0,
        "slot": "403",
        "type": "t_array(t_struct(Ingredient)9937_storage)dyn_storage"
      },
      {
        "astId": 11503,
        "contract": "contracts/plugins/Crafter/CrafterTransfer.sol:CrafterTransfer",
        "label": "nUse",
        "offset": 0,
        "slot": "404",
        "type": "t_mapping(t_uint256,t_uint256)"
      },
      {
        "astId": 11509,
        "contract": "contracts/plugins/Crafter/CrafterTransfer.sol:CrafterTransfer",
        "label": "usedERC721Inputs",
        "offset": 0,
        "slot": "405",
        "type": "t_mapping(t_address,t_mapping(t_uint256,t_uint256))"
      }
    ],
    "types": {
      "t_address": {
        "encoding": "inplace",
        "label": "address",
        "numberOfBytes": "20"
      },
      "t_array(t_struct(Ingredient)9937_storage)dyn_storage": {
        "base": "t_struct(Ingredient)9937_storage",
        "encoding": "dynamic_array",
        "label": "struct CraftLib.Ingredient[]",
        "numberOfBytes": "32"
      },
      "t_array(t_uint256)49_storage": {
        "base": "t_uint256",
        "encoding": "inplace",
        "label": "uint256[49]",
        "numberOfBytes": "1568"
      },
      "t_array(t_uint256)50_storage": {
        "base": "t_uint256",
        "encoding": "inplace",
        "label": "uint256[50]",
        "numberOfBytes": "1600"
      },
      "t_array(t_uint256)dyn_storage": {
        "base": "t_uint256",
        "encoding": "dynamic_array",
        "label": "uint256[]",
        "numberOfBytes": "32"
      },
      "t_bool": {
        "encoding": "inplace",
        "label": "bool",
        "numberOfBytes": "1"
      },
      "t_enum(ConsumableType)9918": {
        "encoding": "inplace",
        "label": "enum CraftLib.ConsumableType",
        "numberOfBytes": "1"
      },
      "t_enum(TokenType)9922": {
        "encoding": "inplace",
        "label": "enum CraftLib.TokenType",
        "numberOfBytes": "1"
      },
      "t_mapping(t_address,t_mapping(t_uint256,t_uint256))": {
        "encoding": "mapping",
        "key": "t_address",
        "label": "mapping(address => mapping(uint256 => uint256))",
        "numberOfBytes": "32",
        "value": "t_mapping(t_uint256,t_uint256)"
      },
      "t_mapping(t_uint256,t_uint256)": {
        "encoding": "mapping",
        "key": "t_uint256",
        "label": "mapping(uint256 => uint256)",
        "numberOfBytes": "32",
        "value": "t_uint256"
      },
      "t_struct(Ingredient)9937_storage": {
        "encoding": "inplace",
        "label": "struct CraftLib.Ingredient",
        "members": [
          {
            "astId": 9925,
            "contract": "contracts/plugins/Crafter/CrafterTransfer.sol:CrafterTransfer",
            "label": "token",
            "offset": 0,
            "slot": "0",
            "type": "t_enum(TokenType)9922"
          },
          {
            "astId": 9928,
            "contract": "contracts/plugins/Crafter/CrafterTransfer.sol:CrafterTransfer",
            "label": "consumableType",
            "offset": 1,
            "slot": "0",
            "type": "t_enum(ConsumableType)9918"
          },
          {
            "astId": 9930,
            "contract": "contracts/plugins/Crafter/CrafterTransfer.sol:CrafterTransfer",
            "label": "contractAddr",
            "offset": 2,
            "slot": "0",
            "type": "t_address"
          },
          {
            "astId": 9933,
            "contract": "contracts/plugins/Crafter/CrafterTransfer.sol:CrafterTransfer",
            "label": "amounts",
            "offset": 0,
            "slot": "1",
            "type": "t_array(t_uint256)dyn_storage"
          },
          {
            "astId": 9936,
            "contract": "contracts/plugins/Crafter/CrafterTransfer.sol:CrafterTransfer",
            "label": "tokenIds",
            "offset": 0,
            "slot": "2",
            "type": "t_array(t_uint256)dyn_storage"
          }
        ],
        "numberOfBytes": "96"
      },
      "t_uint256": {
        "encoding": "inplace",
        "label": "uint256",
        "numberOfBytes": "32"
      },
      "t_uint8": {
        "encoding": "inplace",
        "label": "uint8",
        "numberOfBytes": "1"
      },
      "t_uint96": {
        "encoding": "inplace",
        "label": "uint96",
        "numberOfBytes": "12"
      }
    }
  }
}