{
  "address": "0x70d466e7a8D285e894783EDEeb559FF45ba3Eec4",
  "abi": [
    {
      "inputs": [],
      "stateMutability": "nonpayable",
      "type": "constructor"
    },
    {
      "anonymous": false,
      "inputs": [
        {
          "indexed": true,
          "internalType": "address",
          "name": "account",
          "type": "address"
        },
        {
          "indexed": true,
          "internalType": "address",
          "name": "operator",
          "type": "address"
        },
        {
          "indexed": false,
          "internalType": "bool",
          "name": "approved",
          "type": "bool"
        }
      ],
      "name": "ApprovalForAll",
      "type": "event"
    },
    {
      "anonymous": false,
      "inputs": [
        {
          "indexed": false,
          "internalType": "uint8",
          "name": "version",
          "type": "uint8"
        }
      ],
      "name": "Initialized",
      "type": "event"
    },
    {
      "anonymous": false,
      "inputs": [
        {
          "indexed": true,
          "internalType": "bytes32",
          "name": "role",
          "type": "bytes32"
        },
        {
          "indexed": true,
          "internalType": "bytes32",
          "name": "previousAdminRole",
          "type": "bytes32"
        },
        {
          "indexed": true,
          "internalType": "bytes32",
          "name": "newAdminRole",
          "type": "bytes32"
        }
      ],
      "name": "RoleAdminChanged",
      "type": "event"
    },
    {
      "anonymous": false,
      "inputs": [
        {
          "indexed": true,
          "internalType": "bytes32",
          "name": "role",
          "type": "bytes32"
        },
        {
          "indexed": true,
          "internalType": "address",
          "name": "account",
          "type": "address"
        },
        {
          "indexed": true,
          "internalType": "address",
          "name": "sender",
          "type": "address"
        }
      ],
      "name": "RoleGranted",
      "type": "event"
    },
    {
      "anonymous": false,
      "inputs": [
        {
          "indexed": true,
          "internalType": "bytes32",
          "name": "role",
          "type": "bytes32"
        },
        {
          "indexed": true,
          "internalType": "address",
          "name": "account",
          "type": "address"
        },
        {
          "indexed": true,
          "internalType": "address",
          "name": "sender",
          "type": "address"
        }
      ],
      "name": "RoleRevoked",
      "type": "event"
    },
    {
      "anonymous": false,
      "inputs": [
        {
          "indexed": true,
          "internalType": "address",
          "name": "operator",
          "type": "address"
        },
        {
          "indexed": true,
          "internalType": "address",
          "name": "from",
          "type": "address"
        },
        {
          "indexed": true,
          "internalType": "address",
          "name": "to",
          "type": "address"
        },
        {
          "indexed": false,
          "internalType": "uint256[]",
          "name": "ids",
          "type": "uint256[]"
        },
        {
          "indexed": false,
          "internalType": "uint256[]",
          "name": "values",
          "type": "uint256[]"
        }
      ],
      "name": "TransferBatch",
      "type": "event"
    },
    {
      "anonymous": false,
      "inputs": [
        {
          "indexed": true,
          "internalType": "address",
          "name": "operator",
          "type": "address"
        },
        {
          "indexed": true,
          "internalType": "address",
          "name": "from",
          "type": "address"
        },
        {
          "indexed": true,
          "internalType": "address",
          "name": "to",
          "type": "address"
        },
        {
          "indexed": false,
          "internalType": "uint256",
          "name": "id",
          "type": "uint256"
        },
        {
          "indexed": false,
          "internalType": "uint256",
          "name": "value",
          "type": "uint256"
        }
      ],
      "name": "TransferSingle",
      "type": "event"
    },
    {
      "anonymous": false,
      "inputs": [
        {
          "indexed": false,
          "internalType": "string",
          "name": "value",
          "type": "string"
        },
        {
          "indexed": true,
          "internalType": "uint256",
          "name": "id",
          "type": "uint256"
        }
      ],
      "name": "URI",
      "type": "event"
    },
    {
      "inputs": [],
      "name": "DEFAULT_ADMIN_ROLE",
      "outputs": [
        {
          "internalType": "bytes32",
          "name": "",
          "type": "bytes32"
        }
      ],
      "stateMutability": "view",
      "type": "function"
    },
    {
      "inputs": [
        {
          "internalType": "address",
          "name": "account",
          "type": "address"
        },
        {
          "internalType": "uint256",
          "name": "id",
          "type": "uint256"
        }
      ],
      "name": "balanceOf",
      "outputs": [
        {
          "internalType": "uint256",
          "name": "",
          "type": "uint256"
        }
      ],
      "stateMutability": "view",
      "type": "function"
    },
    {
      "inputs": [
        {
          "internalType": "address[]",
          "name": "accounts",
          "type": "address[]"
        },
        {
          "internalType": "uint256[]",
          "name": "ids",
          "type": "uint256[]"
        }
      ],
      "name": "balanceOfBatch",
      "outputs": [
        {
          "internalType": "uint256[]",
          "name": "",
          "type": "uint256[]"
        }
      ],
      "stateMutability": "view",
      "type": "function"
    },
    {
      "inputs": [
        {
          "internalType": "address",
          "name": "account",
          "type": "address"
        },
        {
          "internalType": "uint256",
          "name": "id",
          "type": "uint256"
        },
        {
          "internalType": "uint256",
          "name": "value",
          "type": "uint256"
        }
      ],
      "name": "burn",
      "outputs": [],
      "stateMutability": "nonpayable",
      "type": "function"
    },
    {
      "inputs": [
        {
          "internalType": "address",
          "name": "account",
          "type": "address"
        },
        {
          "internalType": "uint256[]",
          "name": "ids",
          "type": "uint256[]"
        },
        {
          "internalType": "uint256[]",
          "name": "values",
          "type": "uint256[]"
        }
      ],
      "name": "burnBatch",
      "outputs": [],
      "stateMutability": "nonpayable",
      "type": "function"
    },
    {
      "inputs": [
        {
          "internalType": "bytes32",
          "name": "role",
          "type": "bytes32"
        }
      ],
      "name": "getRoleAdmin",
      "outputs": [
        {
          "internalType": "bytes32",
          "name": "",
          "type": "bytes32"
        }
      ],
      "stateMutability": "view",
      "type": "function"
    },
    {
      "inputs": [
        {
          "internalType": "address",
          "name": "to",
          "type": "address"
        }
      ],
      "name": "grantMinter",
      "outputs": [],
      "stateMutability": "nonpayable",
      "type": "function"
    },
    {
      "inputs": [
        {
          "internalType": "bytes32",
          "name": "role",
          "type": "bytes32"
        },
        {
          "internalType": "address",
          "name": "account",
          "type": "address"
        }
      ],
      "name": "grantRole",
      "outputs": [],
      "stateMutability": "nonpayable",
      "type": "function"
    },
    {
      "inputs": [
        {
          "internalType": "address",
          "name": "to",
          "type": "address"
        }
      ],
      "name": "grantUriRole",
      "outputs": [],
      "stateMutability": "nonpayable",
      "type": "function"
    },
    {
      "inputs": [
        {
          "internalType": "bytes32",
          "name": "role",
          "type": "bytes32"
        },
        {
          "internalType": "address",
          "name": "account",
          "type": "address"
        }
      ],
      "name": "hasRole",
      "outputs": [
        {
          "internalType": "bool",
          "name": "",
          "type": "bool"
        }
      ],
      "stateMutability": "view",
      "type": "function"
    },
    {
      "inputs": [
        {
          "internalType": "address",
          "name": "_admin",
          "type": "address"
        },
        {
          "internalType": "string",
          "name": "uri_",
          "type": "string"
        }
      ],
      "name": "initialize",
      "outputs": [],
      "stateMutability": "nonpayable",
      "type": "function"
    },
    {
      "inputs": [
        {
          "internalType": "address",
          "name": "account",
          "type": "address"
        },
        {
          "internalType": "address",
          "name": "operator",
          "type": "address"
        }
      ],
      "name": "isApprovedForAll",
      "outputs": [
        {
          "internalType": "bool",
          "name": "",
          "type": "bool"
        }
      ],
      "stateMutability": "view",
      "type": "function"
    },
    {
      "inputs": [
        {
          "internalType": "address",
          "name": "to",
          "type": "address"
        },
        {
          "internalType": "uint256",
          "name": "id",
          "type": "uint256"
        },
        {
          "internalType": "uint256",
          "name": "amount",
          "type": "uint256"
        },
        {
          "internalType": "bytes",
          "name": "data",
          "type": "bytes"
        }
      ],
      "name": "mint",
      "outputs": [],
      "stateMutability": "nonpayable",
      "type": "function"
    },
    {
      "inputs": [
        {
          "internalType": "address",
          "name": "to",
          "type": "address"
        },
        {
          "internalType": "uint256[]",
          "name": "ids",
          "type": "uint256[]"
        },
        {
          "internalType": "uint256[]",
          "name": "amounts",
          "type": "uint256[]"
        },
        {
          "internalType": "bytes",
          "name": "data",
          "type": "bytes"
        }
      ],
      "name": "mintBatch",
      "outputs": [],
      "stateMutability": "nonpayable",
      "type": "function"
    },
    {
      "inputs": [
        {
          "internalType": "address",
          "name": "_admin",
          "type": "address"
        },
        {
          "internalType": "string",
          "name": "uri_",
          "type": "string"
        }
      ],
      "name": "proxyInitialize",
      "outputs": [],
      "stateMutability": "nonpayable",
      "type": "function"
    },
    {
      "inputs": [
        {
          "internalType": "bytes32",
          "name": "role",
          "type": "bytes32"
        },
        {
          "internalType": "address",
          "name": "account",
          "type": "address"
        }
      ],
      "name": "renounceRole",
      "outputs": [],
      "stateMutability": "nonpayable",
      "type": "function"
    },
    {
      "inputs": [
        {
          "internalType": "bytes32",
          "name": "role",
          "type": "bytes32"
        },
        {
          "internalType": "address",
          "name": "account",
          "type": "address"
        }
      ],
      "name": "revokeRole",
      "outputs": [],
      "stateMutability": "nonpayable",
      "type": "function"
    },
    {
      "inputs": [
        {
          "internalType": "address",
          "name": "from",
          "type": "address"
        },
        {
          "internalType": "address",
          "name": "to",
          "type": "address"
        },
        {
          "internalType": "uint256[]",
          "name": "ids",
          "type": "uint256[]"
        },
        {
          "internalType": "uint256[]",
          "name": "amounts",
          "type": "uint256[]"
        },
        {
          "internalType": "bytes",
          "name": "data",
          "type": "bytes"
        }
      ],
      "name": "safeBatchTransferFrom",
      "outputs": [],
      "stateMutability": "nonpayable",
      "type": "function"
    },
    {
      "inputs": [
        {
          "internalType": "address",
          "name": "from",
          "type": "address"
        },
        {
          "internalType": "address",
          "name": "to",
          "type": "address"
        },
        {
          "internalType": "uint256",
          "name": "id",
          "type": "uint256"
        },
        {
          "internalType": "uint256",
          "name": "amount",
          "type": "uint256"
        },
        {
          "internalType": "bytes",
          "name": "data",
          "type": "bytes"
        }
      ],
      "name": "safeTransferFrom",
      "outputs": [],
      "stateMutability": "nonpayable",
      "type": "function"
    },
    {
      "inputs": [
        {
          "internalType": "address",
          "name": "operator",
          "type": "address"
        },
        {
          "internalType": "bool",
          "name": "approved",
          "type": "bool"
        }
      ],
      "name": "setApprovalForAll",
      "outputs": [],
      "stateMutability": "nonpayable",
      "type": "function"
    },
    {
      "inputs": [
        {
          "internalType": "string",
          "name": "newuri",
          "type": "string"
        }
      ],
      "name": "setURI",
      "outputs": [],
      "stateMutability": "nonpayable",
      "type": "function"
    },
    {
      "inputs": [
        {
          "internalType": "bytes4",
          "name": "interfaceId",
          "type": "bytes4"
        }
      ],
      "name": "supportsInterface",
      "outputs": [
        {
          "internalType": "bool",
          "name": "",
          "type": "bool"
        }
      ],
      "stateMutability": "view",
      "type": "function"
    },
    {
      "inputs": [
        {
          "internalType": "uint256",
          "name": "",
          "type": "uint256"
        }
      ],
      "name": "uri",
      "outputs": [
        {
          "internalType": "string",
          "name": "",
          "type": "string"
        }
      ],
      "stateMutability": "view",
      "type": "function"
    }
  ],
  "transactionHash": "0x02b4795b96d47040849fa3cc95d71f8df54640c0a6a3c258d2b83548d788a67c",
  "args": [],
  "numDeployments": 2,
  "solcInputHash": "3d9b202b97f6d6146cc9765ecde615f3",
  "bytecode": "0x60806040523480156200001157600080fd5b506200001c62000022565b62000152565b6200002e60ff62000031565b50565b60008054610100900460ff1615620000ca578160ff1660011480156200006a575062000068306200014360201b62000a5f1760201c565b155b620000c25760405162461bcd60e51b815260206004820152602e602482015260008051602062002a2583398151915260448201526d191e481a5b9a5d1a585b1a5e995960921b60648201526084015b60405180910390fd5b506000919050565b60005460ff808416911610620001295760405162461bcd60e51b815260206004820152602e602482015260008051602062002a2583398151915260448201526d191e481a5b9a5d1a585b1a5e995960921b6064820152608401620000b9565b506000805460ff191660ff92909216919091179055600190565b6001600160a01b03163b151590565b6128c380620001626000396000f3fe608060405234801561001057600080fd5b506004361061014c5760003560e01c8063529cc129116100c3578063a22cb4651161007c578063a22cb465146102d8578063d547741f146102eb578063e985e9c5146102fe578063f242432a1461033a578063f399e22e1461034d578063f5298aca1461036057600080fd5b8063529cc129146102715780636b20c45414610284578063731133e91461029757806391d14854146102aa578063a17715e8146102bd578063a217fddf146102d057600080fd5b8063248a9ca311610115578063248a9ca3146101e2578063261707fa146102055780632eb2c2d6146102185780632f2ff15d1461022b57806336568abe1461023e5780634e1273f41461025157600080fd5b8062fdd58e1461015157806301ffc9a71461017757806302fe53051461019a5780630e89341c146101af5780631f7fdffa146101cf575b600080fd5b61016461015f366004611b63565b610373565b6040519081526020015b60405180910390f35b61018a610185366004611ba3565b61040c565b604051901515815260200161016e565b6101ad6101a8366004611c08565b61041d565b005b6101c26101bd366004611c49565b61048b565b60405161016e9190611cba565b6101ad6101dd366004611e16565b61051f565b6101646101f0366004611c49565b600090815260c9602052604090206001015490565b6101ad610213366004611eae565b61054a565b6101ad610226366004611ec9565b610571565b6101ad610239366004611f72565b610601565b6101ad61024c366004611f72565b610626565b61026461025f366004611f9e565b6106a0565b60405161016e91906120a3565b6101ad61027f366004611eae565b6107c9565b6101ad6102923660046120b6565b6107fe565b6101ad6102a5366004612129565b610841565b61018a6102b8366004611f72565b610865565b6101ad6102cb36600461217d565b610890565b610164600081565b6101ad6102e63660046121cf565b6108f7565b6101ad6102f9366004611f72565b610902565b61018a61030c36600461220b565b6001600160a01b03918216600090815260666020908152604080832093909416825291909152205460ff1690565b6101ad610348366004612235565b610927565b6101ad61035b36600461217d565b61096c565b6101ad61036e366004612299565b610a1c565b60006001600160a01b0383166103e45760405162461bcd60e51b815260206004820152602b60248201527f455243313135353a2062616c616e636520717565727920666f7220746865207a60448201526a65726f206164647265737360a81b60648201526084015b60405180910390fd5b5060009081526065602090815260408083206001600160a01b03949094168352929052205490565b600061041782610a6e565b92915050565b7f8e6595ef9afb2a8f70320f393f567bb7a0e6c4ed483caee30f90cc5fcd6659b461044781610a93565b61048683838080601f016020809104026020016040519081016040528093929190818152602001838380828437600092019190915250610aa092505050565b505050565b60606067805461049a906122cc565b80601f01602080910402602001604051908101604052809291908181526020018280546104c6906122cc565b80156105135780601f106104e857610100808354040283529160200191610513565b820191906000526020600020905b8154815290600101906020018083116104f657829003601f168201915b50505050509050919050565b60008051602061286e83398151915261053781610a93565b61054385858585610ab3565b5050505050565b600061055581610a93565b61056d60008051602061286e83398151915283610bff565b5050565b6001600160a01b03851633148061058d575061058d853361030c565b6105f45760405162461bcd60e51b815260206004820152603260248201527f455243313135353a207472616e736665722063616c6c6572206973206e6f74206044820152711bdddb995c881b9bdc88185c1c1c9bdd995960721b60648201526084016103db565b6105438585858585610c85565b600082815260c9602052604090206001015461061c81610a93565b6104868383610bff565b6001600160a01b03811633146106965760405162461bcd60e51b815260206004820152602f60248201527f416363657373436f6e74726f6c3a2063616e206f6e6c792072656e6f756e636560448201526e103937b632b9903337b91039b2b63360891b60648201526084016103db565b61056d8282610e24565b606081518351146107055760405162461bcd60e51b815260206004820152602960248201527f455243313135353a206163636f756e747320616e6420696473206c656e677468604482015268040dad2e6dac2e8c6d60bb1b60648201526084016103db565b600083516001600160401b0381111561072057610720611ccd565b604051908082528060200260200182016040528015610749578160200160208202803683370190505b50905060005b84518110156107c15761079485828151811061076d5761076d612307565b602002602001015185838151811061078757610787612307565b6020026020010151610373565b8282815181106107a6576107a6612307565b60209081029190910101526107ba81612333565b905061074f565b509392505050565b60006107d481610a93565b61056d7f8e6595ef9afb2a8f70320f393f567bb7a0e6c4ed483caee30f90cc5fcd6659b483610bff565b6001600160a01b03831633148061081a575061081a833361030c565b6108365760405162461bcd60e51b81526004016103db9061234e565b610486838383610e8b565b60008051602061286e83398151915261085981610a93565b61054385858585611018565b600091825260c9602090815260408084206001600160a01b0393909316845291905290205460ff1690565b600054610100900460ff166108b75760405162461bcd60e51b81526004016103db90612397565b6104868383838080601f0160208091040260200160405190810160405280939291908181526020018383808284376000920191909152506110f492505050565b61056d33838361113d565b600082815260c9602052604090206001015461091d81610a93565b6104868383610e24565b6001600160a01b0385163314806109435750610943853361030c565b61095f5760405162461bcd60e51b81526004016103db9061234e565b610543858585858561121e565b6000610978600161134c565b90508015610990576000805461ff0019166101001790555b6109d08484848080601f0160208091040260200160405190810160405280939291908181526020018383808284376000920191909152506110f492505050565b8015610a16576000805461ff0019169055604051600181527f7f26b83ff96e1f2b6a682f133852f6798a09c465da95921460cefb38474024989060200160405180910390a15b50505050565b6001600160a01b038316331480610a385750610a38833361030c565b610a545760405162461bcd60e51b81526004016103db9061234e565b6104868383836113d9565b6001600160a01b03163b151590565b60006001600160e01b03198216637965db0b60e01b14806104175750610417826114e0565b610a9d8133611530565b50565b805161056d906067906020840190611ab3565b6001600160a01b038416610ad95760405162461bcd60e51b81526004016103db906123e2565b8151835114610afa5760405162461bcd60e51b81526004016103db90612423565b3360005b8451811015610b9757838181518110610b1957610b19612307565b602002602001015160656000878481518110610b3757610b37612307565b602002602001015181526020019081526020016000206000886001600160a01b03166001600160a01b031681526020019081526020016000206000828254610b7f919061246b565b90915550819050610b8f81612333565b915050610afe565b50846001600160a01b031660006001600160a01b0316826001600160a01b03167f4a39dc06d4c0dbc64b70af90fd698a233a518aa5d07e595d983b8c0526c8f7fb8787604051610be8929190612483565b60405180910390a461054381600087878787611594565b610c098282610865565b61056d57600082815260c9602090815260408083206001600160a01b03851684529091529020805460ff19166001179055610c413390565b6001600160a01b0316816001600160a01b0316837f2f8788117e7eff1d82e926ec794901d17c78024a50270940304540a733656f0d60405160405180910390a45050565b8151835114610ca65760405162461bcd60e51b81526004016103db90612423565b6001600160a01b038416610ccc5760405162461bcd60e51b81526004016103db906124b1565b3360005b8451811015610db6576000858281518110610ced57610ced612307565b602002602001015190506000858381518110610d0b57610d0b612307565b60209081029190910181015160008481526065835260408082206001600160a01b038e168352909352919091205490915081811015610d5c5760405162461bcd60e51b81526004016103db906124f6565b60008381526065602090815260408083206001600160a01b038e8116855292528083208585039055908b16825281208054849290610d9b90849061246b565b9250508190555050505080610daf90612333565b9050610cd0565b50846001600160a01b0316866001600160a01b0316826001600160a01b03167f4a39dc06d4c0dbc64b70af90fd698a233a518aa5d07e595d983b8c0526c8f7fb8787604051610e06929190612483565b60405180910390a4610e1c818787878787611594565b505050505050565b610e2e8282610865565b1561056d57600082815260c9602090815260408083206001600160a01b0385168085529252808320805460ff1916905551339285917ff6391f5c32d9c69d2a47ea670b442974b53935d1edc7fd64eb21e047a839171b9190a45050565b6001600160a01b038316610eb15760405162461bcd60e51b81526004016103db90612540565b8051825114610ed25760405162461bcd60e51b81526004016103db90612423565b604080516020810190915260009081905233905b8351811015610fab576000848281518110610f0357610f03612307565b602002602001015190506000848381518110610f2157610f21612307565b60209081029190910181015160008481526065835260408082206001600160a01b038c168352909352919091205490915081811015610f725760405162461bcd60e51b81526004016103db90612583565b60009283526065602090815260408085206001600160a01b038b1686529091529092209103905580610fa381612333565b915050610ee6565b5060006001600160a01b0316846001600160a01b0316826001600160a01b03167f4a39dc06d4c0dbc64b70af90fd698a233a518aa5d07e595d983b8c0526c8f7fb8686604051610ffc929190612483565b60405180910390a4604080516020810190915260009052610a16565b6001600160a01b03841661103e5760405162461bcd60e51b81526004016103db906123e2565b33600061104a856116ff565b90506000611057856116ff565b905060008681526065602090815260408083206001600160a01b038b1684529091528120805487929061108b90849061246b565b909155505060408051878152602081018790526001600160a01b03808a1692600092918716917fc3d58168c5ae7397731d063d5bbf3d657854427343f4c083240f7aacaa2d0f62910160405180910390a46110eb8360008989898961174a565b50505050505050565b600054610100900460ff1661111b5760405162461bcd60e51b81526004016103db90612397565b61112482611814565b61112d81611888565b6111356118b8565b61056d6118b8565b816001600160a01b0316836001600160a01b031614156111b15760405162461bcd60e51b815260206004820152602960248201527f455243313135353a2073657474696e6720617070726f76616c20737461747573604482015268103337b91039b2b63360b91b60648201526084016103db565b6001600160a01b03838116600081815260666020908152604080832094871680845294825291829020805460ff191686151590811790915591519182527f17307eab39ab6107e8899845ad3d59bd9653f200f220920489ca2b5937696c31910160405180910390a3505050565b6001600160a01b0384166112445760405162461bcd60e51b81526004016103db906124b1565b336000611250856116ff565b9050600061125d856116ff565b905060008681526065602090815260408083206001600160a01b038c168452909152902054858110156112a25760405162461bcd60e51b81526004016103db906124f6565b60008781526065602090815260408083206001600160a01b038d8116855292528083208985039055908a168252812080548892906112e190849061246b565b909155505060408051888152602081018890526001600160a01b03808b16928c821692918816917fc3d58168c5ae7397731d063d5bbf3d657854427343f4c083240f7aacaa2d0f62910160405180910390a4611341848a8a8a8a8a61174a565b505050505050505050565b60008054610100900460ff1615611393578160ff16600114801561136f5750303b155b61138b5760405162461bcd60e51b81526004016103db906125c7565b506000919050565b60005460ff8084169116106113ba5760405162461bcd60e51b81526004016103db906125c7565b506000805460ff191660ff92909216919091179055600190565b919050565b6001600160a01b0383166113ff5760405162461bcd60e51b81526004016103db90612540565b33600061140b846116ff565b90506000611418846116ff565b6040805160208082018352600091829052888252606581528282206001600160a01b038b16835290522054909150848110156114665760405162461bcd60e51b81526004016103db90612583565b60008681526065602090815260408083206001600160a01b038b81168086529184528285208a8703905582518b81529384018a90529092908816917fc3d58168c5ae7397731d063d5bbf3d657854427343f4c083240f7aacaa2d0f62910160405180910390a46040805160208101909152600090526110eb565b60006001600160e01b03198216636cdb3d1360e11b148061151157506001600160e01b031982166303a24d0760e21b145b8061041757506301ffc9a760e01b6001600160e01b0319831614610417565b61153a8282610865565b61056d57611552816001600160a01b031660146118e1565b61155d8360206118e1565b60405160200161156e929190612615565b60408051601f198184030181529082905262461bcd60e51b82526103db91600401611cba565b6001600160a01b0384163b15610e1c5760405163bc197c8160e01b81526001600160a01b0385169063bc197c81906115d8908990899088908890889060040161268a565b602060405180830381600087803b1580156115f257600080fd5b505af1925050508015611622575060408051601f3d908101601f1916820190925261161f918101906126e8565b60015b6116cf5761162e612705565b806308c379a014156116685750611643612721565b8061164e575061166a565b8060405162461bcd60e51b81526004016103db9190611cba565b505b60405162461bcd60e51b815260206004820152603460248201527f455243313135353a207472616e7366657220746f206e6f6e20455243313135356044820152732932b1b2b4bb32b91034b6b83632b6b2b73a32b960611b60648201526084016103db565b6001600160e01b0319811663bc197c8160e01b146110eb5760405162461bcd60e51b81526004016103db906127aa565b6040805160018082528183019092526060916000919060208083019080368337019050509050828160008151811061173957611739612307565b602090810291909101015292915050565b6001600160a01b0384163b15610e1c5760405163f23a6e6160e01b81526001600160a01b0385169063f23a6e619061178e90899089908890889088906004016127f2565b602060405180830381600087803b1580156117a857600080fd5b505af19250505080156117d8575060408051601f3d908101601f191682019092526117d5918101906126e8565b60015b6117e45761162e612705565b6001600160e01b0319811663f23a6e6160e01b146110eb5760405162461bcd60e51b81526004016103db906127aa565b600054610100900460ff1661183b5760405162461bcd60e51b81526004016103db90612397565b611846600082610bff565b61185e60008051602061286e83398151915282610bff565b610a9d7f8e6595ef9afb2a8f70320f393f567bb7a0e6c4ed483caee30f90cc5fcd6659b482610bff565b600054610100900460ff166118af5760405162461bcd60e51b81526004016103db90612397565b610a9d81611a83565b600054610100900460ff166118df5760405162461bcd60e51b81526004016103db90612397565b565b606060006118f0836002612837565b6118fb90600261246b565b6001600160401b0381111561191257611912611ccd565b6040519080825280601f01601f19166020018201604052801561193c576020820181803683370190505b509050600360fc1b8160008151811061195757611957612307565b60200101906001600160f81b031916908160001a905350600f60fb1b8160018151811061198657611986612307565b60200101906001600160f81b031916908160001a90535060006119aa846002612837565b6119b590600161246b565b90505b6001811115611a2d576f181899199a1a9b1b9c1cb0b131b232b360811b85600f16601081106119e9576119e9612307565b1a60f81b8282815181106119ff576119ff612307565b60200101906001600160f81b031916908160001a90535060049490941c93611a2681612856565b90506119b8565b508315611a7c5760405162461bcd60e51b815260206004820181905260248201527f537472696e67733a20686578206c656e67746820696e73756666696369656e7460448201526064016103db565b9392505050565b600054610100900460ff16611aaa5760405162461bcd60e51b81526004016103db90612397565b610a9d81610aa0565b828054611abf906122cc565b90600052602060002090601f016020900481019282611ae15760008555611b27565b82601f10611afa57805160ff1916838001178555611b27565b82800160010185558215611b27579182015b82811115611b27578251825591602001919060010190611b0c565b50611b33929150611b37565b5090565b5b80821115611b335760008155600101611b38565b80356001600160a01b03811681146113d457600080fd5b60008060408385031215611b7657600080fd5b611b7f83611b4c565b946020939093013593505050565b6001600160e01b031981168114610a9d57600080fd5b600060208284031215611bb557600080fd5b8135611a7c81611b8d565b60008083601f840112611bd257600080fd5b5081356001600160401b03811115611be957600080fd5b602083019150836020828501011115611c0157600080fd5b9250929050565b60008060208385031215611c1b57600080fd5b82356001600160401b03811115611c3157600080fd5b611c3d85828601611bc0565b90969095509350505050565b600060208284031215611c5b57600080fd5b5035919050565b60005b83811015611c7d578181015183820152602001611c65565b83811115610a165750506000910152565b60008151808452611ca6816020860160208601611c62565b601f01601f19169290920160200192915050565b602081526000611a7c6020830184611c8e565b634e487b7160e01b600052604160045260246000fd5b601f8201601f191681016001600160401b0381118282101715611d0857611d08611ccd565b6040525050565b60006001600160401b03821115611d2857611d28611ccd565b5060051b60200190565b600082601f830112611d4357600080fd5b81356020611d5082611d0f565b604051611d5d8282611ce3565b83815260059390931b8501820192828101915086841115611d7d57600080fd5b8286015b84811015611d985780358352918301918301611d81565b509695505050505050565b600082601f830112611db457600080fd5b81356001600160401b03811115611dcd57611dcd611ccd565b604051611de4601f8301601f191660200182611ce3565b818152846020838601011115611df957600080fd5b816020850160208301376000918101602001919091529392505050565b60008060008060808587031215611e2c57600080fd5b611e3585611b4c565b935060208501356001600160401b0380821115611e5157600080fd5b611e5d88838901611d32565b94506040870135915080821115611e7357600080fd5b611e7f88838901611d32565b93506060870135915080821115611e9557600080fd5b50611ea287828801611da3565b91505092959194509250565b600060208284031215611ec057600080fd5b611a7c82611b4c565b600080600080600060a08688031215611ee157600080fd5b611eea86611b4c565b9450611ef860208701611b4c565b935060408601356001600160401b0380821115611f1457600080fd5b611f2089838a01611d32565b94506060880135915080821115611f3657600080fd5b611f4289838a01611d32565b93506080880135915080821115611f5857600080fd5b50611f6588828901611da3565b9150509295509295909350565b60008060408385031215611f8557600080fd5b82359150611f9560208401611b4c565b90509250929050565b60008060408385031215611fb157600080fd5b82356001600160401b0380821115611fc857600080fd5b818501915085601f830112611fdc57600080fd5b81356020611fe982611d0f565b604051611ff68282611ce3565b83815260059390931b850182019282810191508984111561201657600080fd5b948201945b8386101561203b5761202c86611b4c565b8252948201949082019061201b565b9650508601359250508082111561205157600080fd5b5061205e85828601611d32565b9150509250929050565b600081518084526020808501945080840160005b838110156120985781518752958201959082019060010161207c565b509495945050505050565b602081526000611a7c6020830184612068565b6000806000606084860312156120cb57600080fd5b6120d484611b4c565b925060208401356001600160401b03808211156120f057600080fd5b6120fc87838801611d32565b9350604086013591508082111561211257600080fd5b5061211f86828701611d32565b9150509250925092565b6000806000806080858703121561213f57600080fd5b61214885611b4c565b9350602085013592506040850135915060608501356001600160401b0381111561217157600080fd5b611ea287828801611da3565b60008060006040848603121561219257600080fd5b61219b84611b4c565b925060208401356001600160401b038111156121b657600080fd5b6121c286828701611bc0565b9497909650939450505050565b600080604083850312156121e257600080fd5b6121eb83611b4c565b91506020830135801515811461220057600080fd5b809150509250929050565b6000806040838503121561221e57600080fd5b61222783611b4c565b9150611f9560208401611b4c565b600080600080600060a0868803121561224d57600080fd5b61225686611b4c565b945061226460208701611b4c565b9350604086013592506060860135915060808601356001600160401b0381111561228d57600080fd5b611f6588828901611da3565b6000806000606084860312156122ae57600080fd5b6122b784611b4c565b95602085013595506040909401359392505050565b600181811c908216806122e057607f821691505b6020821081141561230157634e487b7160e01b600052602260045260246000fd5b50919050565b634e487b7160e01b600052603260045260246000fd5b634e487b7160e01b600052601160045260246000fd5b60006000198214156123475761234761231d565b5060010190565b60208082526029908201527f455243313135353a2063616c6c6572206973206e6f74206f776e6572206e6f7260408201526808185c1c1c9bdd995960ba1b606082015260800190565b6020808252602b908201527f496e697469616c697a61626c653a20636f6e7472616374206973206e6f74206960408201526a6e697469616c697a696e6760a81b606082015260800190565b60208082526021908201527f455243313135353a206d696e7420746f20746865207a65726f206164647265736040820152607360f81b606082015260800190565b60208082526028908201527f455243313135353a2069647320616e6420616d6f756e7473206c656e677468206040820152670dad2e6dac2e8c6d60c31b606082015260800190565b6000821982111561247e5761247e61231d565b500190565b6040815260006124966040830185612068565b82810360208401526124a88185612068565b95945050505050565b60208082526025908201527f455243313135353a207472616e7366657220746f20746865207a65726f206164604082015264647265737360d81b606082015260800190565b6020808252602a908201527f455243313135353a20696e73756666696369656e742062616c616e636520666f60408201526939103a3930b739b332b960b11b606082015260800190565b60208082526023908201527f455243313135353a206275726e2066726f6d20746865207a65726f206164647260408201526265737360e81b606082015260800190565b60208082526024908201527f455243313135353a206275726e20616d6f756e7420657863656564732062616c604082015263616e636560e01b606082015260800190565b6020808252602e908201527f496e697469616c697a61626c653a20636f6e747261637420697320616c72656160408201526d191e481a5b9a5d1a585b1a5e995960921b606082015260800190565b7f416363657373436f6e74726f6c3a206163636f756e742000000000000000000081526000835161264d816017850160208801611c62565b7001034b99036b4b9b9b4b733903937b6329607d1b601791840191820152835161267e816028840160208801611c62565b01602801949350505050565b6001600160a01b0386811682528516602082015260a0604082018190526000906126b690830186612068565b82810360608401526126c88186612068565b905082810360808401526126dc8185611c8e565b98975050505050505050565b6000602082840312156126fa57600080fd5b8151611a7c81611b8d565b600060033d111561271e5760046000803e5060005160e01c5b90565b600060443d101561272f5790565b6040516003193d81016004833e81513d6001600160401b03816024840111818411171561275e57505050505090565b82850191508151818111156127765750505050505090565b843d87010160208285010111156127905750505050505090565b61279f60208286010187611ce3565b509095945050505050565b60208082526028908201527f455243313135353a204552433131353552656365697665722072656a656374656040820152676420746f6b656e7360c01b606082015260800190565b6001600160a01b03868116825285166020820152604081018490526060810183905260a06080820181905260009061282c90830184611c8e565b979650505050505050565b60008160001904831182151516156128515761285161231d565b500290565b6000816128655761286561231d565b50600019019056fe9f2df0fed2c77648de5860a4cc508cd0818c85b8b8a1ab4ceeef8d981c8956a6a26469706673582212209bc0cc98de9d2c6939eaf39b40b98a14c7c56e3b39ea1b27e6024e1371cca67664736f6c63430008090033496e697469616c697a61626c653a20636f6e747261637420697320616c726561",
  "devdoc": {
    "kind": "dev",
    "methods": {
      "balanceOf(address,uint256)": {
        "details": "See {IERC1155-balanceOf}. Requirements: - `account` cannot be the zero address."
      },
      "balanceOfBatch(address[],uint256[])": {
        "details": "See {IERC1155-balanceOfBatch}. Requirements: - `accounts` and `ids` must have the same length."
      },
      "constructor": {
        "custom:oz-upgrades-unsafe-allow": "constructor"
      },
      "getRoleAdmin(bytes32)": {
        "details": "Returns the admin role that controls `role`. See {grantRole} and {revokeRole}. To change a role's admin, use {_setRoleAdmin}."
      },
      "grantMinter(address)": {
        "details": "Grants MINTER_ROLE to {a}",
        "params": {
          "to": "address to"
        }
      },
      "grantRole(bytes32,address)": {
        "details": "Grants `role` to `account`. If `account` had not been already granted `role`, emits a {RoleGranted} event. Requirements: - the caller must have ``role``'s admin role."
      },
      "grantUriRole(address)": {
        "details": "Grants URI_ROLE to {a}",
        "params": {
          "to": "address to"
        }
      },
      "hasRole(bytes32,address)": {
        "details": "Returns `true` if `account` has been granted `role`."
      },
      "isApprovedForAll(address,address)": {
        "details": "See {IERC1155-isApprovedForAll}."
      },
      "mint(address,uint256,uint256,bytes)": {
        "details": "Allows MINTER_ROLE to mint NFTs",
        "params": {
          "amount": "to mint",
          "data": "for hooks",
          "id": "tokenId value",
          "to": "address to"
        }
      },
      "mintBatch(address,uint256[],uint256[],bytes)": {
        "details": "Allows caller to mint NFTs (safeMint)",
        "params": {
          "amounts": "to mint",
          "data": "for hooks",
          "ids": "id values",
          "to": "address to"
        }
      },
      "renounceRole(bytes32,address)": {
        "details": "Revokes `role` from the calling account. Roles are often managed via {grantRole} and {revokeRole}: this function's purpose is to provide a mechanism for accounts to lose their privileges if they are compromised (such as when a trusted device is misplaced). If the calling account had been revoked `role`, emits a {RoleRevoked} event. Requirements: - the caller must be `account`."
      },
      "revokeRole(bytes32,address)": {
        "details": "Revokes `role` from `account`. If `account` had been granted `role`, emits a {RoleRevoked} event. Requirements: - the caller must have ``role``'s admin role."
      },
      "safeBatchTransferFrom(address,address,uint256[],uint256[],bytes)": {
        "details": "See {IERC1155-safeBatchTransferFrom}."
      },
      "safeTransferFrom(address,address,uint256,uint256,bytes)": {
        "details": "See {IERC1155-safeTransferFrom}."
      },
      "setApprovalForAll(address,bool)": {
        "details": "See {IERC1155-setApprovalForAll}."
      },
      "setURI(string)": {
        "details": "Allows setting the uri",
        "params": {
          "newuri": "set the baseURI value."
        }
      },
      "uri(uint256)": {
        "details": "See {IERC1155MetadataURI-uri}. This implementation returns the same URI for *all* token types. It relies on the token type ID substitution mechanism https://eips.ethereum.org/EIPS/eip-1155#metadata[defined in the EIP]. Clients calling this function must replace the `\\{id\\}` substring with the actual token type ID."
      }
    },
    "version": 1
  },
  "userdoc": {
    "kind": "user",
    "methods": {
      "grantMinter(address)": {
        "notice": "Must have DEFAULT_ADMIN_ROLE"
      },
      "grantUriRole(address)": {
        "notice": "Must have DEFAULT_ADMIN_ROLE"
      },
      "mint(address,uint256,uint256,bytes)": {
        "notice": "Must have MINTER_ROLE"
      },
      "mintBatch(address,uint256[],uint256[],bytes)": {
        "notice": "Must have MINTER_ROLE"
      },
      "setURI(string)": {
        "notice": "Must have URI_ROLE role!"
      }
    },
    "version": 1
  },
  "storageLayout": {
    "storage": [
      {
        "astId": 1012,
        "contract": "contracts/assets/ERC1155/ERC1155Owl.sol:ERC1155Owl",
        "label": "_initialized",
        "offset": 0,
        "slot": "0",
        "type": "t_uint8"
      },
      {
        "astId": 1015,
        "contract": "contracts/assets/ERC1155/ERC1155Owl.sol:ERC1155Owl",
        "label": "_initializing",
        "offset": 1,
        "slot": "0",
        "type": "t_bool"
      },
      {
        "astId": 5355,
        "contract": "contracts/assets/ERC1155/ERC1155Owl.sol:ERC1155Owl",
        "label": "__gap",
        "offset": 0,
        "slot": "1",
        "type": "t_array(t_uint256)50_storage"
      },
      {
        "astId": 5662,
        "contract": "contracts/assets/ERC1155/ERC1155Owl.sol:ERC1155Owl",
        "label": "__gap",
        "offset": 0,
        "slot": "51",
        "type": "t_array(t_uint256)50_storage"
      },
      {
        "astId": 1312,
        "contract": "contracts/assets/ERC1155/ERC1155Owl.sol:ERC1155Owl",
        "label": "_balances",
        "offset": 0,
        "slot": "101",
        "type": "t_mapping(t_uint256,t_mapping(t_address,t_uint256))"
      },
      {
        "astId": 1318,
        "contract": "contracts/assets/ERC1155/ERC1155Owl.sol:ERC1155Owl",
        "label": "_operatorApprovals",
        "offset": 0,
        "slot": "102",
        "type": "t_mapping(t_address,t_mapping(t_address,t_bool))"
      },
      {
        "astId": 1320,
        "contract": "contracts/assets/ERC1155/ERC1155Owl.sol:ERC1155Owl",
        "label": "_uri",
        "offset": 0,
        "slot": "103",
        "type": "t_string_storage"
      },
      {
        "astId": 2527,
        "contract": "contracts/assets/ERC1155/ERC1155Owl.sol:ERC1155Owl",
        "label": "__gap",
        "offset": 0,
        "slot": "104",
        "type": "t_array(t_uint256)47_storage"
      },
      {
        "astId": 2779,
        "contract": "contracts/assets/ERC1155/ERC1155Owl.sol:ERC1155Owl",
        "label": "__gap",
        "offset": 0,
        "slot": "151",
        "type": "t_array(t_uint256)50_storage"
      },
      {
        "astId": 39,
        "contract": "contracts/assets/ERC1155/ERC1155Owl.sol:ERC1155Owl",
        "label": "_roles",
        "offset": 0,
        "slot": "201",
        "type": "t_mapping(t_bytes32,t_struct(RoleData)34_storage)"
      },
      {
        "astId": 338,
        "contract": "contracts/assets/ERC1155/ERC1155Owl.sol:ERC1155Owl",
        "label": "__gap",
        "offset": 0,
        "slot": "202",
        "type": "t_array(t_uint256)49_storage"
      }
    ],
    "types": {
      "t_address": {
        "encoding": "inplace",
        "label": "address",
        "numberOfBytes": "20"
      },
      "t_array(t_uint256)47_storage": {
        "base": "t_uint256",
        "encoding": "inplace",
        "label": "uint256[47]",
        "numberOfBytes": "1504"
      },
      "t_array(t_uint256)49_storage": {
        "base": "t_uint256",
        "encoding": "inplace",
        "label": "uint256[49]",
        "numberOfBytes": "1568"
      },
      "t_array(t_uint256)50_storage": {
        "base": "t_uint256",
        "encoding": "inplace",
        "label": "uint256[50]",
        "numberOfBytes": "1600"
      },
      "t_bool": {
        "encoding": "inplace",
        "label": "bool",
        "numberOfBytes": "1"
      },
      "t_bytes32": {
        "encoding": "inplace",
        "label": "bytes32",
        "numberOfBytes": "32"
      },
      "t_mapping(t_address,t_bool)": {
        "encoding": "mapping",
        "key": "t_address",
        "label": "mapping(address => bool)",
        "numberOfBytes": "32",
        "value": "t_bool"
      },
      "t_mapping(t_address,t_mapping(t_address,t_bool))": {
        "encoding": "mapping",
        "key": "t_address",
        "label": "mapping(address => mapping(address => bool))",
        "numberOfBytes": "32",
        "value": "t_mapping(t_address,t_bool)"
      },
      "t_mapping(t_address,t_uint256)": {
        "encoding": "mapping",
        "key": "t_address",
        "label": "mapping(address => uint256)",
        "numberOfBytes": "32",
        "value": "t_uint256"
      },
      "t_mapping(t_bytes32,t_struct(RoleData)34_storage)": {
        "encoding": "mapping",
        "key": "t_bytes32",
        "label": "mapping(bytes32 => struct AccessControlUpgradeable.RoleData)",
        "numberOfBytes": "32",
        "value": "t_struct(RoleData)34_storage"
      },
      "t_mapping(t_uint256,t_mapping(t_address,t_uint256))": {
        "encoding": "mapping",
        "key": "t_uint256",
        "label": "mapping(uint256 => mapping(address => uint256))",
        "numberOfBytes": "32",
        "value": "t_mapping(t_address,t_uint256)"
      },
      "t_string_storage": {
        "encoding": "bytes",
        "label": "string",
        "numberOfBytes": "32"
      },
      "t_struct(RoleData)34_storage": {
        "encoding": "inplace",
        "label": "struct AccessControlUpgradeable.RoleData",
        "members": [
          {
            "astId": 31,
            "contract": "contracts/assets/ERC1155/ERC1155Owl.sol:ERC1155Owl",
            "label": "members",
            "offset": 0,
            "slot": "0",
            "type": "t_mapping(t_address,t_bool)"
          },
          {
            "astId": 33,
            "contract": "contracts/assets/ERC1155/ERC1155Owl.sol:ERC1155Owl",
            "label": "adminRole",
            "offset": 0,
            "slot": "1",
            "type": "t_bytes32"
          }
        ],
        "numberOfBytes": "64"
      },
      "t_uint256": {
        "encoding": "inplace",
        "label": "uint256",
        "numberOfBytes": "32"
      },
      "t_uint8": {
        "encoding": "inplace",
        "label": "uint8",
        "numberOfBytes": "1"
      }
    }
  }
}