{
  "address": "0x93CC0cA9158cC2C9Eb17785537Ac7ADE65D141CD",
  "abi": [
    {
      "inputs": [],
      "stateMutability": "nonpayable",
      "type": "constructor"
    },
    {
      "anonymous": false,
      "inputs": [
        {
          "indexed": true,
          "internalType": "address",
          "name": "owner",
          "type": "address"
        },
        {
          "indexed": true,
          "internalType": "address",
          "name": "approved",
          "type": "address"
        },
        {
          "indexed": true,
          "internalType": "uint256",
          "name": "tokenId",
          "type": "uint256"
        }
      ],
      "name": "Approval",
      "type": "event"
    },
    {
      "anonymous": false,
      "inputs": [
        {
          "indexed": true,
          "internalType": "address",
          "name": "owner",
          "type": "address"
        },
        {
          "indexed": true,
          "internalType": "address",
          "name": "operator",
          "type": "address"
        },
        {
          "indexed": false,
          "internalType": "bool",
          "name": "approved",
          "type": "bool"
        }
      ],
      "name": "ApprovalForAll",
      "type": "event"
    },
    {
      "anonymous": false,
      "inputs": [
        {
          "indexed": false,
          "internalType": "uint8",
          "name": "version",
          "type": "uint8"
        }
      ],
      "name": "Initialized",
      "type": "event"
    },
    {
      "anonymous": false,
      "inputs": [
        {
          "indexed": true,
          "internalType": "bytes32",
          "name": "role",
          "type": "bytes32"
        },
        {
          "indexed": true,
          "internalType": "bytes32",
          "name": "previousAdminRole",
          "type": "bytes32"
        },
        {
          "indexed": true,
          "internalType": "bytes32",
          "name": "newAdminRole",
          "type": "bytes32"
        }
      ],
      "name": "RoleAdminChanged",
      "type": "event"
    },
    {
      "anonymous": false,
      "inputs": [
        {
          "indexed": true,
          "internalType": "bytes32",
          "name": "role",
          "type": "bytes32"
        },
        {
          "indexed": true,
          "internalType": "address",
          "name": "account",
          "type": "address"
        },
        {
          "indexed": true,
          "internalType": "address",
          "name": "sender",
          "type": "address"
        }
      ],
      "name": "RoleGranted",
      "type": "event"
    },
    {
      "anonymous": false,
      "inputs": [
        {
          "indexed": true,
          "internalType": "bytes32",
          "name": "role",
          "type": "bytes32"
        },
        {
          "indexed": true,
          "internalType": "address",
          "name": "account",
          "type": "address"
        },
        {
          "indexed": true,
          "internalType": "address",
          "name": "sender",
          "type": "address"
        }
      ],
      "name": "RoleRevoked",
      "type": "event"
    },
    {
      "anonymous": false,
      "inputs": [
        {
          "indexed": true,
          "internalType": "address",
          "name": "from",
          "type": "address"
        },
        {
          "indexed": true,
          "internalType": "address",
          "name": "to",
          "type": "address"
        },
        {
          "indexed": true,
          "internalType": "uint256",
          "name": "tokenId",
          "type": "uint256"
        }
      ],
      "name": "Transfer",
      "type": "event"
    },
    {
      "inputs": [],
      "name": "DEFAULT_ADMIN_ROLE",
      "outputs": [
        {
          "internalType": "bytes32",
          "name": "",
          "type": "bytes32"
        }
      ],
      "stateMutability": "view",
      "type": "function"
    },
    {
      "inputs": [
        {
          "internalType": "address",
          "name": "to",
          "type": "address"
        },
        {
          "internalType": "uint256",
          "name": "tokenId",
          "type": "uint256"
        }
      ],
      "name": "approve",
      "outputs": [],
      "stateMutability": "nonpayable",
      "type": "function"
    },
    {
      "inputs": [
        {
          "internalType": "address",
          "name": "owner",
          "type": "address"
        }
      ],
      "name": "balanceOf",
      "outputs": [
        {
          "internalType": "uint256",
          "name": "",
          "type": "uint256"
        }
      ],
      "stateMutability": "view",
      "type": "function"
    },
    {
      "inputs": [],
      "name": "baseURI",
      "outputs": [
        {
          "internalType": "string",
          "name": "",
          "type": "string"
        }
      ],
      "stateMutability": "view",
      "type": "function"
    },
    {
      "inputs": [
        {
          "internalType": "uint256",
          "name": "tokenId",
          "type": "uint256"
        }
      ],
      "name": "burn",
      "outputs": [],
      "stateMutability": "nonpayable",
      "type": "function"
    },
    {
      "inputs": [
        {
          "internalType": "uint256",
          "name": "tokenId",
          "type": "uint256"
        }
      ],
      "name": "exists",
      "outputs": [
        {
          "internalType": "bool",
          "name": "",
          "type": "bool"
        }
      ],
      "stateMutability": "view",
      "type": "function"
    },
    {
      "inputs": [
        {
          "internalType": "uint256",
          "name": "tokenId",
          "type": "uint256"
        }
      ],
      "name": "getApproved",
      "outputs": [
        {
          "internalType": "address",
          "name": "",
          "type": "address"
        }
      ],
      "stateMutability": "view",
      "type": "function"
    },
    {
      "inputs": [
        {
          "internalType": "bytes32",
          "name": "role",
          "type": "bytes32"
        }
      ],
      "name": "getRoleAdmin",
      "outputs": [
        {
          "internalType": "bytes32",
          "name": "",
          "type": "bytes32"
        }
      ],
      "stateMutability": "view",
      "type": "function"
    },
    {
      "inputs": [
        {
          "internalType": "address",
          "name": "to",
          "type": "address"
        }
      ],
      "name": "grantMinter",
      "outputs": [],
      "stateMutability": "nonpayable",
      "type": "function"
    },
    {
      "inputs": [
        {
          "internalType": "bytes32",
          "name": "role",
          "type": "bytes32"
        },
        {
          "internalType": "address",
          "name": "account",
          "type": "address"
        }
      ],
      "name": "grantRole",
      "outputs": [],
      "stateMutability": "nonpayable",
      "type": "function"
    },
    {
      "inputs": [
        {
          "internalType": "address",
          "name": "to",
          "type": "address"
        }
      ],
      "name": "grantUriRole",
      "outputs": [],
      "stateMutability": "nonpayable",
      "type": "function"
    },
    {
      "inputs": [
        {
          "internalType": "bytes32",
          "name": "role",
          "type": "bytes32"
        },
        {
          "internalType": "address",
          "name": "account",
          "type": "address"
        }
      ],
      "name": "hasRole",
      "outputs": [
        {
          "internalType": "bool",
          "name": "",
          "type": "bool"
        }
      ],
      "stateMutability": "view",
      "type": "function"
    },
    {
      "inputs": [
        {
          "internalType": "address",
          "name": "_admin",
          "type": "address"
        },
        {
          "internalType": "string",
          "name": "_name",
          "type": "string"
        },
        {
          "internalType": "string",
          "name": "_symbol",
          "type": "string"
        },
        {
          "internalType": "string",
          "name": "baseURI_",
          "type": "string"
        }
      ],
      "name": "initialize",
      "outputs": [],
      "stateMutability": "nonpayable",
      "type": "function"
    },
    {
      "inputs": [
        {
          "internalType": "address",
          "name": "owner",
          "type": "address"
        },
        {
          "internalType": "address",
          "name": "operator",
          "type": "address"
        }
      ],
      "name": "isApprovedForAll",
      "outputs": [
        {
          "internalType": "bool",
          "name": "",
          "type": "bool"
        }
      ],
      "stateMutability": "view",
      "type": "function"
    },
    {
      "inputs": [
        {
          "internalType": "address",
          "name": "to",
          "type": "address"
        },
        {
          "internalType": "uint256",
          "name": "tokenId",
          "type": "uint256"
        }
      ],
      "name": "mint",
      "outputs": [],
      "stateMutability": "nonpayable",
      "type": "function"
    },
    {
      "inputs": [],
      "name": "name",
      "outputs": [
        {
          "internalType": "string",
          "name": "",
          "type": "string"
        }
      ],
      "stateMutability": "view",
      "type": "function"
    },
    {
      "inputs": [
        {
          "internalType": "uint256",
          "name": "tokenId",
          "type": "uint256"
        }
      ],
      "name": "ownerOf",
      "outputs": [
        {
          "internalType": "address",
          "name": "",
          "type": "address"
        }
      ],
      "stateMutability": "view",
      "type": "function"
    },
    {
      "inputs": [
        {
          "internalType": "address",
          "name": "_admin",
          "type": "address"
        },
        {
          "internalType": "string",
          "name": "_name",
          "type": "string"
        },
        {
          "internalType": "string",
          "name": "_symbol",
          "type": "string"
        },
        {
          "internalType": "string",
          "name": "baseURI_",
          "type": "string"
        }
      ],
      "name": "proxyInitialize",
      "outputs": [],
      "stateMutability": "nonpayable",
      "type": "function"
    },
    {
      "inputs": [
        {
          "internalType": "bytes32",
          "name": "role",
          "type": "bytes32"
        },
        {
          "internalType": "address",
          "name": "account",
          "type": "address"
        }
      ],
      "name": "renounceRole",
      "outputs": [],
      "stateMutability": "nonpayable",
      "type": "function"
    },
    {
      "inputs": [
        {
          "internalType": "bytes32",
          "name": "role",
          "type": "bytes32"
        },
        {
          "internalType": "address",
          "name": "account",
          "type": "address"
        }
      ],
      "name": "revokeRole",
      "outputs": [],
      "stateMutability": "nonpayable",
      "type": "function"
    },
    {
      "inputs": [
        {
          "internalType": "address",
          "name": "to",
          "type": "address"
        },
        {
          "internalType": "uint256",
          "name": "tokenId",
          "type": "uint256"
        }
      ],
      "name": "safeMint",
      "outputs": [],
      "stateMutability": "nonpayable",
      "type": "function"
    },
    {
      "inputs": [
        {
          "internalType": "address",
          "name": "from",
          "type": "address"
        },
        {
          "internalType": "address",
          "name": "to",
          "type": "address"
        },
        {
          "internalType": "uint256",
          "name": "tokenId",
          "type": "uint256"
        }
      ],
      "name": "safeTransferFrom",
      "outputs": [],
      "stateMutability": "nonpayable",
      "type": "function"
    },
    {
      "inputs": [
        {
          "internalType": "address",
          "name": "from",
          "type": "address"
        },
        {
          "internalType": "address",
          "name": "to",
          "type": "address"
        },
        {
          "internalType": "uint256",
          "name": "tokenId",
          "type": "uint256"
        },
        {
          "internalType": "bytes",
          "name": "_data",
          "type": "bytes"
        }
      ],
      "name": "safeTransferFrom",
      "outputs": [],
      "stateMutability": "nonpayable",
      "type": "function"
    },
    {
      "inputs": [
        {
          "internalType": "address",
          "name": "operator",
          "type": "address"
        },
        {
          "internalType": "bool",
          "name": "approved",
          "type": "bool"
        }
      ],
      "name": "setApprovalForAll",
      "outputs": [],
      "stateMutability": "nonpayable",
      "type": "function"
    },
    {
      "inputs": [
        {
          "internalType": "string",
          "name": "baseURI_",
          "type": "string"
        }
      ],
      "name": "setBaseURI",
      "outputs": [],
      "stateMutability": "nonpayable",
      "type": "function"
    },
    {
      "inputs": [
        {
          "internalType": "bytes4",
          "name": "interfaceId",
          "type": "bytes4"
        }
      ],
      "name": "supportsInterface",
      "outputs": [
        {
          "internalType": "bool",
          "name": "",
          "type": "bool"
        }
      ],
      "stateMutability": "view",
      "type": "function"
    },
    {
      "inputs": [],
      "name": "symbol",
      "outputs": [
        {
          "internalType": "string",
          "name": "",
          "type": "string"
        }
      ],
      "stateMutability": "view",
      "type": "function"
    },
    {
      "inputs": [
        {
          "internalType": "uint256",
          "name": "tokenId",
          "type": "uint256"
        }
      ],
      "name": "tokenURI",
      "outputs": [
        {
          "internalType": "string",
          "name": "",
          "type": "string"
        }
      ],
      "stateMutability": "view",
      "type": "function"
    },
    {
      "inputs": [
        {
          "internalType": "address",
          "name": "from",
          "type": "address"
        },
        {
          "internalType": "address",
          "name": "to",
          "type": "address"
        },
        {
          "internalType": "uint256",
          "name": "tokenId",
          "type": "uint256"
        }
      ],
      "name": "transferFrom",
      "outputs": [],
      "stateMutability": "nonpayable",
      "type": "function"
    }
  ],
  "transactionHash": "0x0fa9ab020abbc4090f63e2af6c42597a632e43217db4744ef6ffdecffbf2364d",
  "args": [],
  "numDeployments": 2,
  "solcInputHash": "3d9b202b97f6d6146cc9765ecde615f3",
  "bytecode": "0x60806040523480156200001157600080fd5b506200001c62000022565b62000152565b6200002e60ff62000031565b50565b60008054610100900460ff1615620000ca578160ff1660011480156200006a575062000068306200014360201b62000dfd1760201c565b155b620000c25760405162461bcd60e51b815260206004820152602e6024820152600080516020620025f383398151915260448201526d191e481a5b9a5d1a585b1a5e995960921b60648201526084015b60405180910390fd5b506000919050565b60005460ff808416911610620001295760405162461bcd60e51b815260206004820152602e6024820152600080516020620025f383398151915260448201526d191e481a5b9a5d1a585b1a5e995960921b6064820152608401620000b9565b506000805460ff191660ff92909216919091179055600190565b6001600160a01b03163b151590565b61249180620001626000396000f3fe608060405234801561001057600080fd5b50600436106101cf5760003560e01c806355f804b31161010457806395d89b41116100a2578063b88d4fde11610071578063b88d4fde146103dd578063c87b56dd146103f0578063d547741f14610403578063e985e9c51461041657600080fd5b806395d89b41146103a7578063a1448194146103af578063a217fddf146103c2578063a22cb465146103ca57600080fd5b80636c0360eb116100de5780636c0360eb1461036657806370a082311461036e5780638b18c3db1461038157806391d148541461039457600080fd5b806355f804b31461032d5780635f1e6f6d146103405780636352211e1461035357600080fd5b80632f2ff15d1161017157806342842e0e1161014b57806342842e0e146102e157806342966c68146102f45780634f558e7914610307578063529cc1291461031a57600080fd5b80632f2ff15d146102a857806336568abe146102bb57806340c10f19146102ce57600080fd5b8063095ea7b3116101ad578063095ea7b31461023c57806323b872dd14610251578063248a9ca314610264578063261707fa1461029557600080fd5b806301ffc9a7146101d457806306fdde03146101fc578063081812fc14610211575b600080fd5b6101e76101e2366004611ce9565b610452565b60405190151581526020015b60405180910390f35b610204610463565b6040516101f39190611d5e565b61022461021f366004611d71565b6104f5565b6040516001600160a01b0390911681526020016101f3565b61024f61024a366004611da1565b61058f565b005b61024f61025f366004611dcb565b6106a5565b610287610272366004611d71565b600090815260c9602052604090206001015490565b6040519081526020016101f3565b61024f6102a3366004611e07565b6106d7565b61024f6102b6366004611e22565b6106fe565b61024f6102c9366004611e22565b610723565b61024f6102dc366004611da1565b61079d565b61024f6102ef366004611dcb565b6107bf565b61024f610302366004611d71565b6107da565b6101e7610315366004611d71565b610854565b61024f610328366004611e07565b610873565b61024f61033b366004611e97565b6108a8565b61024f61034e366004611ed9565b6108e4565b610224610361366004611d71565b610a00565b610204610a77565b61028761037c366004611e07565b610b05565b61024f61038f366004611ed9565b610b8c565b6101e76103a2366004611e22565b610c64565b610204610c8f565b61024f6103bd366004611da1565b610c9e565b610287600081565b61024f6103d8366004611f84565b610cc0565b61024f6103eb366004611fd6565b610ccb565b6102046103fe366004611d71565b610cfd565b61024f610411366004611e22565b610dd8565b6101e76104243660046120b2565b6001600160a01b039182166000908152606a6020908152604080832093909416825291909152205460ff1690565b600061045d82610e0c565b92915050565b606060658054610472906120dc565b80601f016020809104026020016040519081016040528092919081815260200182805461049e906120dc565b80156104eb5780601f106104c0576101008083540402835291602001916104eb565b820191906000526020600020905b8154815290600101906020018083116104ce57829003601f168201915b5050505050905090565b6000818152606760205260408120546001600160a01b03166105735760405162461bcd60e51b815260206004820152602c60248201527f4552433732313a20617070726f76656420717565727920666f72206e6f6e657860448201526b34b9ba32b73a103a37b5b2b760a11b60648201526084015b60405180910390fd5b506000908152606960205260409020546001600160a01b031690565b600061059a82610a00565b9050806001600160a01b0316836001600160a01b031614156106085760405162461bcd60e51b815260206004820152602160248201527f4552433732313a20617070726f76616c20746f2063757272656e74206f776e656044820152603960f91b606482015260840161056a565b336001600160a01b038216148061062457506106248133610424565b6106965760405162461bcd60e51b815260206004820152603860248201527f4552433732313a20617070726f76652063616c6c6572206973206e6f74206f7760448201527f6e6572206e6f7220617070726f76656420666f7220616c6c0000000000000000606482015260840161056a565b6106a08383610e31565b505050565b6106b0335b82610e9f565b6106cc5760405162461bcd60e51b815260040161056a90612117565b6106a0838383610f96565b60006106e281611132565b6106fa60008051602061243c8339815191528361113c565b5050565b600082815260c9602052604090206001015461071981611132565b6106a0838361113c565b6001600160a01b03811633146107935760405162461bcd60e51b815260206004820152602f60248201527f416363657373436f6e74726f6c3a2063616e206f6e6c792072656e6f756e636560448201526e103937b632b9903337b91039b2b63360891b606482015260840161056a565b6106fa82826111c2565b60008051602061243c8339815191526107b581611132565b6106a08383611229565b6106a083838360405180602001604052806000815250610ccb565b6107e3336106aa565b6108485760405162461bcd60e51b815260206004820152603060248201527f4552433732314275726e61626c653a2063616c6c6572206973206e6f74206f7760448201526f1b995c881b9bdc88185c1c1c9bdd995960821b606482015260840161056a565b6108518161136b565b50565b6000818152606760205260408120546001600160a01b0316151561045d565b600061087e81611132565b6106fa7f8e6595ef9afb2a8f70320f393f567bb7a0e6c4ed483caee30f90cc5fcd6659b48361113c565b7f8e6595ef9afb2a8f70320f393f567bb7a0e6c4ed483caee30f90cc5fcd6659b46108d281611132565b6108de60fb8484611bc6565b50505050565b60006108f06001611406565b90508015610908576000805461ff0019166101001790555b6109b08888888080601f01602080910402602001604051908101604052809392919081815260200183838082843760009201919091525050604080516020601f8c018190048102820181019092528a815292508a915089908190840183828082843760009201919091525050604080516020601f8b01819004810282018101909252898152925089915088908190840183828082843760009201919091525061149392505050565b80156109f6576000805461ff0019169055604051600181527f7f26b83ff96e1f2b6a682f133852f6798a09c465da95921460cefb38474024989060200160405180910390a15b5050505050505050565b6000818152606760205260408120546001600160a01b03168061045d5760405162461bcd60e51b815260206004820152602960248201527f4552433732313a206f776e657220717565727920666f72206e6f6e657869737460448201526832b73a103a37b5b2b760b91b606482015260840161056a565b60fb8054610a84906120dc565b80601f0160208091040260200160405190810160405280929190818152602001828054610ab0906120dc565b8015610afd5780601f10610ad257610100808354040283529160200191610afd565b820191906000526020600020905b815481529060010190602001808311610ae057829003601f168201915b505050505081565b60006001600160a01b038216610b705760405162461bcd60e51b815260206004820152602a60248201527f4552433732313a2062616c616e636520717565727920666f7220746865207a65604482015269726f206164647265737360b01b606482015260840161056a565b506001600160a01b031660009081526068602052604090205490565b600054610100900460ff16610bb35760405162461bcd60e51b815260040161056a90612168565b610c5b8787878080601f01602080910402602001604051908101604052809392919081815260200183838082843760009201919091525050604080516020601f8b01819004810282018101909252898152925089915088908190840183828082843760009201919091525050604080516020601f8a01819004810282018101909252888152925088915087908190840183828082843760009201919091525061149392505050565b50505050505050565b600091825260c9602090815260408084206001600160a01b0393909316845291905290205460ff1690565b606060668054610472906120dc565b60008051602061243c833981519152610cb681611132565b6106a083836114de565b6106fa3383836114f8565b610cd53383610e9f565b610cf15760405162461bcd60e51b815260040161056a90612117565b6108de848484846115c7565b6000818152606760205260409020546060906001600160a01b0316610d7c5760405162461bcd60e51b815260206004820152602f60248201527f4552433732314d657461646174613a2055524920717565727920666f72206e6f60448201526e3732bc34b9ba32b73a103a37b5b2b760891b606482015260840161056a565b6000610d866115fa565b90506000815111610da65760405180602001604052806000815250610dd1565b80610db084611609565b604051602001610dc19291906121b3565b6040516020818303038152906040525b9392505050565b600082815260c96020526040902060010154610df381611132565b6106a083836111c2565b6001600160a01b03163b151590565b60006001600160e01b03198216637965db0b60e01b148061045d575061045d82611707565b600081815260696020526040902080546001600160a01b0319166001600160a01b0384169081179091558190610e6682610a00565b6001600160a01b03167f8c5be1e5ebec7d5bd14f71427d1e84f3dd0314c0f7b2291e5b200ac8c7c3b92560405160405180910390a45050565b6000818152606760205260408120546001600160a01b0316610f185760405162461bcd60e51b815260206004820152602c60248201527f4552433732313a206f70657261746f7220717565727920666f72206e6f6e657860448201526b34b9ba32b73a103a37b5b2b760a11b606482015260840161056a565b6000610f2383610a00565b9050806001600160a01b0316846001600160a01b03161480610f6a57506001600160a01b038082166000908152606a602090815260408083209388168352929052205460ff165b80610f8e5750836001600160a01b0316610f83846104f5565b6001600160a01b0316145b949350505050565b826001600160a01b0316610fa982610a00565b6001600160a01b03161461100d5760405162461bcd60e51b815260206004820152602560248201527f4552433732313a207472616e736665722066726f6d20696e636f72726563742060448201526437bbb732b960d91b606482015260840161056a565b6001600160a01b03821661106f5760405162461bcd60e51b8152602060048201526024808201527f4552433732313a207472616e7366657220746f20746865207a65726f206164646044820152637265737360e01b606482015260840161056a565b61107a600082610e31565b6001600160a01b03831660009081526068602052604081208054600192906110a39084906121f8565b90915550506001600160a01b03821660009081526068602052604081208054600192906110d190849061220f565b909155505060008181526067602052604080822080546001600160a01b0319166001600160a01b0386811691821790925591518493918716917fddf252ad1be2c89b69c2b068fc378daa952ba7f163c4a11628f55a4df523b3ef91a4505050565b6108518133611757565b6111468282610c64565b6106fa57600082815260c9602090815260408083206001600160a01b03851684529091529020805460ff1916600117905561117e3390565b6001600160a01b0316816001600160a01b0316837f2f8788117e7eff1d82e926ec794901d17c78024a50270940304540a733656f0d60405160405180910390a45050565b6111cc8282610c64565b156106fa57600082815260c9602090815260408083206001600160a01b0385168085529252808320805460ff1916905551339285917ff6391f5c32d9c69d2a47ea670b442974b53935d1edc7fd64eb21e047a839171b9190a45050565b6001600160a01b03821661127f5760405162461bcd60e51b815260206004820181905260248201527f4552433732313a206d696e7420746f20746865207a65726f2061646472657373604482015260640161056a565b6000818152606760205260409020546001600160a01b0316156112e45760405162461bcd60e51b815260206004820152601c60248201527f4552433732313a20746f6b656e20616c7265616479206d696e74656400000000604482015260640161056a565b6001600160a01b038216600090815260686020526040812080546001929061130d90849061220f565b909155505060008181526067602052604080822080546001600160a01b0319166001600160a01b03861690811790915590518392907fddf252ad1be2c89b69c2b068fc378daa952ba7f163c4a11628f55a4df523b3ef908290a45050565b600061137682610a00565b9050611383600083610e31565b6001600160a01b03811660009081526068602052604081208054600192906113ac9084906121f8565b909155505060008281526067602052604080822080546001600160a01b0319169055518391906001600160a01b038416907fddf252ad1be2c89b69c2b068fc378daa952ba7f163c4a11628f55a4df523b3ef908390a45050565b60008054610100900460ff161561144d578160ff1660011480156114295750303b155b6114455760405162461bcd60e51b815260040161056a90612227565b506000919050565b60005460ff8084169116106114745760405162461bcd60e51b815260040161056a90612227565b506000805460ff191660ff92909216919091179055600190565b919050565b600054610100900460ff166114ba5760405162461bcd60e51b815260040161056a90612168565b6114c484826117bb565b6114ce8383611842565b6114d6611873565b6108de611873565b6106fa82826040518060200160405280600081525061189c565b816001600160a01b0316836001600160a01b0316141561155a5760405162461bcd60e51b815260206004820152601960248201527f4552433732313a20617070726f766520746f2063616c6c657200000000000000604482015260640161056a565b6001600160a01b038381166000818152606a6020908152604080832094871680845294825291829020805460ff191686151590811790915591519182527f17307eab39ab6107e8899845ad3d59bd9653f200f220920489ca2b5937696c31910160405180910390a3505050565b6115d2848484610f96565b6115de848484846118cf565b6108de5760405162461bcd60e51b815260040161056a90612275565b606060fb8054610472906120dc565b60608161162d5750506040805180820190915260018152600360fc1b602082015290565b8160005b81156116575780611641816122c7565b91506116509050600a836122f8565b9150611631565b60008167ffffffffffffffff81111561167257611672611fc0565b6040519080825280601f01601f19166020018201604052801561169c576020820181803683370190505b5090505b8415610f8e576116b16001836121f8565b91506116be600a8661230c565b6116c990603061220f565b60f81b8183815181106116de576116de612320565b60200101906001600160f81b031916908160001a905350611700600a866122f8565b94506116a0565b60006001600160e01b031982166380ac58cd60e01b148061173857506001600160e01b03198216635b5e139f60e01b145b8061045d57506301ffc9a760e01b6001600160e01b031983161461045d565b6117618282610c64565b6106fa57611779816001600160a01b031660146119dc565b6117848360206119dc565b604051602001611795929190612336565b60408051601f198184030181529082905262461bcd60e51b825261056a91600401611d5e565b600054610100900460ff166117e25760405162461bcd60e51b815260040161056a90612168565b6117ed60008361113c565b61180560008051602061243c8339815191528361113c565b61182f7f8e6595ef9afb2a8f70320f393f567bb7a0e6c4ed483caee30f90cc5fcd6659b48361113c565b80516106a09060fb906020840190611c4a565b600054610100900460ff166118695760405162461bcd60e51b815260040161056a90612168565b6106fa8282611b78565b600054610100900460ff1661189a5760405162461bcd60e51b815260040161056a90612168565b565b6118a68383611229565b6118b360008484846118cf565b6106a05760405162461bcd60e51b815260040161056a90612275565b60006001600160a01b0384163b156119d157604051630a85bd0160e11b81526001600160a01b0385169063150b7a02906119139033908990889088906004016123ab565b602060405180830381600087803b15801561192d57600080fd5b505af192505050801561195d575060408051601f3d908101601f1916820190925261195a918101906123e8565b60015b6119b7573d80801561198b576040519150601f19603f3d011682016040523d82523d6000602084013e611990565b606091505b5080516119af5760405162461bcd60e51b815260040161056a90612275565b805181602001fd5b6001600160e01b031916630a85bd0160e11b149050610f8e565b506001949350505050565b606060006119eb836002612405565b6119f690600261220f565b67ffffffffffffffff811115611a0e57611a0e611fc0565b6040519080825280601f01601f191660200182016040528015611a38576020820181803683370190505b509050600360fc1b81600081518110611a5357611a53612320565b60200101906001600160f81b031916908160001a905350600f60fb1b81600181518110611a8257611a82612320565b60200101906001600160f81b031916908160001a9053506000611aa6846002612405565b611ab190600161220f565b90505b6001811115611b29576f181899199a1a9b1b9c1cb0b131b232b360811b85600f1660108110611ae557611ae5612320565b1a60f81b828281518110611afb57611afb612320565b60200101906001600160f81b031916908160001a90535060049490941c93611b2281612424565b9050611ab4565b508315610dd15760405162461bcd60e51b815260206004820181905260248201527f537472696e67733a20686578206c656e67746820696e73756666696369656e74604482015260640161056a565b600054610100900460ff16611b9f5760405162461bcd60e51b815260040161056a90612168565b8151611bb2906065906020850190611c4a565b5080516106a0906066906020840190611c4a565b828054611bd2906120dc565b90600052602060002090601f016020900481019282611bf45760008555611c3a565b82601f10611c0d5782800160ff19823516178555611c3a565b82800160010185558215611c3a579182015b82811115611c3a578235825591602001919060010190611c1f565b50611c46929150611cbe565b5090565b828054611c56906120dc565b90600052602060002090601f016020900481019282611c785760008555611c3a565b82601f10611c9157805160ff1916838001178555611c3a565b82800160010185558215611c3a579182015b82811115611c3a578251825591602001919060010190611ca3565b5b80821115611c465760008155600101611cbf565b6001600160e01b03198116811461085157600080fd5b600060208284031215611cfb57600080fd5b8135610dd181611cd3565b60005b83811015611d21578181015183820152602001611d09565b838111156108de5750506000910152565b60008151808452611d4a816020860160208601611d06565b601f01601f19169290920160200192915050565b602081526000610dd16020830184611d32565b600060208284031215611d8357600080fd5b5035919050565b80356001600160a01b038116811461148e57600080fd5b60008060408385031215611db457600080fd5b611dbd83611d8a565b946020939093013593505050565b600080600060608486031215611de057600080fd5b611de984611d8a565b9250611df760208501611d8a565b9150604084013590509250925092565b600060208284031215611e1957600080fd5b610dd182611d8a565b60008060408385031215611e3557600080fd5b82359150611e4560208401611d8a565b90509250929050565b60008083601f840112611e6057600080fd5b50813567ffffffffffffffff811115611e7857600080fd5b602083019150836020828501011115611e9057600080fd5b9250929050565b60008060208385031215611eaa57600080fd5b823567ffffffffffffffff811115611ec157600080fd5b611ecd85828601611e4e565b90969095509350505050565b60008060008060008060006080888a031215611ef457600080fd5b611efd88611d8a565b9650602088013567ffffffffffffffff80821115611f1a57600080fd5b611f268b838c01611e4e565b909850965060408a0135915080821115611f3f57600080fd5b611f4b8b838c01611e4e565b909650945060608a0135915080821115611f6457600080fd5b50611f718a828b01611e4e565b989b979a50959850939692959293505050565b60008060408385031215611f9757600080fd5b611fa083611d8a565b915060208301358015158114611fb557600080fd5b809150509250929050565b634e487b7160e01b600052604160045260246000fd5b60008060008060808587031215611fec57600080fd5b611ff585611d8a565b935061200360208601611d8a565b925060408501359150606085013567ffffffffffffffff8082111561202757600080fd5b818701915087601f83011261203b57600080fd5b81358181111561204d5761204d611fc0565b604051601f8201601f19908116603f0116810190838211818310171561207557612075611fc0565b816040528281528a602084870101111561208e57600080fd5b82602086016020830137600060208483010152809550505050505092959194509250565b600080604083850312156120c557600080fd5b6120ce83611d8a565b9150611e4560208401611d8a565b600181811c908216806120f057607f821691505b6020821081141561211157634e487b7160e01b600052602260045260246000fd5b50919050565b60208082526031908201527f4552433732313a207472616e736665722063616c6c6572206973206e6f74206f6040820152701ddb995c881b9bdc88185c1c1c9bdd9959607a1b606082015260800190565b6020808252602b908201527f496e697469616c697a61626c653a20636f6e7472616374206973206e6f74206960408201526a6e697469616c697a696e6760a81b606082015260800190565b600083516121c5818460208801611d06565b8351908301906121d9818360208801611d06565b01949350505050565b634e487b7160e01b600052601160045260246000fd5b60008282101561220a5761220a6121e2565b500390565b60008219821115612222576122226121e2565b500190565b6020808252602e908201527f496e697469616c697a61626c653a20636f6e747261637420697320616c72656160408201526d191e481a5b9a5d1a585b1a5e995960921b606082015260800190565b60208082526032908201527f4552433732313a207472616e7366657220746f206e6f6e20455243373231526560408201527131b2b4bb32b91034b6b83632b6b2b73a32b960711b606082015260800190565b60006000198214156122db576122db6121e2565b5060010190565b634e487b7160e01b600052601260045260246000fd5b600082612307576123076122e2565b500490565b60008261231b5761231b6122e2565b500690565b634e487b7160e01b600052603260045260246000fd5b7f416363657373436f6e74726f6c3a206163636f756e742000000000000000000081526000835161236e816017850160208801611d06565b7001034b99036b4b9b9b4b733903937b6329607d1b601791840191820152835161239f816028840160208801611d06565b01602801949350505050565b6001600160a01b03858116825284166020820152604081018390526080606082018190526000906123de90830184611d32565b9695505050505050565b6000602082840312156123fa57600080fd5b8151610dd181611cd3565b600081600019048311821515161561241f5761241f6121e2565b500290565b600081612433576124336121e2565b50600019019056fe9f2df0fed2c77648de5860a4cc508cd0818c85b8b8a1ab4ceeef8d981c8956a6a2646970667358221220f5a7e0ec6b011e05aa016af0640a99483e5791c880617083f61d00851fac301864736f6c63430008090033496e697469616c697a61626c653a20636f6e747261637420697320616c726561",
  "devdoc": {
    "kind": "dev",
    "methods": {
      "approve(address,uint256)": {
        "details": "See {IERC721-approve}."
      },
      "balanceOf(address)": {
        "details": "See {IERC721-balanceOf}."
      },
      "burn(uint256)": {
        "details": "Burns `tokenId`. See {ERC721-_burn}. Requirements: - The caller must own `tokenId` or be an approved operator."
      },
      "constructor": {
        "custom:oz-upgrades-unsafe-allow": "constructor"
      },
      "getApproved(uint256)": {
        "details": "See {IERC721-getApproved}."
      },
      "getRoleAdmin(bytes32)": {
        "details": "Returns the admin role that controls `role`. See {grantRole} and {revokeRole}. To change a role's admin, use {_setRoleAdmin}."
      },
      "grantMinter(address)": {
        "details": "Grants MINTER_ROLE to {a}",
        "params": {
          "to": "address to"
        }
      },
      "grantRole(bytes32,address)": {
        "details": "Grants `role` to `account`. If `account` had not been already granted `role`, emits a {RoleGranted} event. Requirements: - the caller must have ``role``'s admin role."
      },
      "grantUriRole(address)": {
        "details": "Grants URI_ROLE to {a}",
        "params": {
          "to": "address to"
        }
      },
      "hasRole(bytes32,address)": {
        "details": "Returns `true` if `account` has been granted `role`."
      },
      "isApprovedForAll(address,address)": {
        "details": "See {IERC721-isApprovedForAll}."
      },
      "mint(address,uint256)": {
        "details": "Allows MINTER_ROLE to mint NFTs",
        "params": {
          "to": "address to",
          "tokenId": "tokenId value"
        }
      },
      "name()": {
        "details": "See {IERC721Metadata-name}."
      },
      "ownerOf(uint256)": {
        "details": "See {IERC721-ownerOf}."
      },
      "renounceRole(bytes32,address)": {
        "details": "Revokes `role` from the calling account. Roles are often managed via {grantRole} and {revokeRole}: this function's purpose is to provide a mechanism for accounts to lose their privileges if they are compromised (such as when a trusted device is misplaced). If the calling account had been revoked `role`, emits a {RoleRevoked} event. Requirements: - the caller must be `account`."
      },
      "revokeRole(bytes32,address)": {
        "details": "Revokes `role` from `account`. If `account` had been granted `role`, emits a {RoleRevoked} event. Requirements: - the caller must have ``role``'s admin role."
      },
      "safeMint(address,uint256)": {
        "details": "Allows caller to mint NFTs (safeMint)",
        "params": {
          "to": "address to",
          "tokenId": "tokenId value"
        }
      },
      "safeTransferFrom(address,address,uint256)": {
        "details": "See {IERC721-safeTransferFrom}."
      },
      "safeTransferFrom(address,address,uint256,bytes)": {
        "details": "See {IERC721-safeTransferFrom}."
      },
      "setApprovalForAll(address,bool)": {
        "details": "See {IERC721-setApprovalForAll}."
      },
      "setBaseURI(string)": {
        "details": "Allows setting the baseURI",
        "params": {
          "baseURI_": "set the baseURI value."
        }
      },
      "symbol()": {
        "details": "See {IERC721Metadata-symbol}."
      },
      "tokenURI(uint256)": {
        "details": "See {IERC721Metadata-tokenURI}."
      },
      "transferFrom(address,address,uint256)": {
        "details": "See {IERC721-transferFrom}."
      }
    },
    "version": 1
  },
  "userdoc": {
    "kind": "user",
    "methods": {
      "grantMinter(address)": {
        "notice": "Must have DEFAULT_ADMIN_ROLE"
      },
      "grantUriRole(address)": {
        "notice": "Must have DEFAULT_ADMIN_ROLE"
      },
      "mint(address,uint256)": {
        "notice": "Must have MINTER_ROLE"
      },
      "safeMint(address,uint256)": {
        "notice": "Must have MINTER_ROLE"
      },
      "setBaseURI(string)": {
        "notice": "Must have URI_ROLE role!"
      }
    },
    "version": 1
  },
  "storageLayout": {
    "storage": [
      {
        "astId": 1012,
        "contract": "contracts/assets/ERC721/ERC721Owl.sol:ERC721Owl",
        "label": "_initialized",
        "offset": 0,
        "slot": "0",
        "type": "t_uint8"
      },
      {
        "astId": 1015,
        "contract": "contracts/assets/ERC721/ERC721Owl.sol:ERC721Owl",
        "label": "_initializing",
        "offset": 1,
        "slot": "0",
        "type": "t_bool"
      },
      {
        "astId": 5355,
        "contract": "contracts/assets/ERC721/ERC721Owl.sol:ERC721Owl",
        "label": "__gap",
        "offset": 0,
        "slot": "1",
        "type": "t_array(t_uint256)50_storage"
      },
      {
        "astId": 5662,
        "contract": "contracts/assets/ERC721/ERC721Owl.sol:ERC721Owl",
        "label": "__gap",
        "offset": 0,
        "slot": "51",
        "type": "t_array(t_uint256)50_storage"
      },
      {
        "astId": 3951,
        "contract": "contracts/assets/ERC721/ERC721Owl.sol:ERC721Owl",
        "label": "_name",
        "offset": 0,
        "slot": "101",
        "type": "t_string_storage"
      },
      {
        "astId": 3953,
        "contract": "contracts/assets/ERC721/ERC721Owl.sol:ERC721Owl",
        "label": "_symbol",
        "offset": 0,
        "slot": "102",
        "type": "t_string_storage"
      },
      {
        "astId": 3957,
        "contract": "contracts/assets/ERC721/ERC721Owl.sol:ERC721Owl",
        "label": "_owners",
        "offset": 0,
        "slot": "103",
        "type": "t_mapping(t_uint256,t_address)"
      },
      {
        "astId": 3961,
        "contract": "contracts/assets/ERC721/ERC721Owl.sol:ERC721Owl",
        "label": "_balances",
        "offset": 0,
        "slot": "104",
        "type": "t_mapping(t_address,t_uint256)"
      },
      {
        "astId": 3965,
        "contract": "contracts/assets/ERC721/ERC721Owl.sol:ERC721Owl",
        "label": "_tokenApprovals",
        "offset": 0,
        "slot": "105",
        "type": "t_mapping(t_uint256,t_address)"
      },
      {
        "astId": 3971,
        "contract": "contracts/assets/ERC721/ERC721Owl.sol:ERC721Owl",
        "label": "_operatorApprovals",
        "offset": 0,
        "slot": "106",
        "type": "t_mapping(t_address,t_mapping(t_address,t_bool))"
      },
      {
        "astId": 4812,
        "contract": "contracts/assets/ERC721/ERC721Owl.sol:ERC721Owl",
        "label": "__gap",
        "offset": 0,
        "slot": "107",
        "type": "t_array(t_uint256)44_storage"
      },
      {
        "astId": 4996,
        "contract": "contracts/assets/ERC721/ERC721Owl.sol:ERC721Owl",
        "label": "__gap",
        "offset": 0,
        "slot": "151",
        "type": "t_array(t_uint256)50_storage"
      },
      {
        "astId": 39,
        "contract": "contracts/assets/ERC721/ERC721Owl.sol:ERC721Owl",
        "label": "_roles",
        "offset": 0,
        "slot": "201",
        "type": "t_mapping(t_bytes32,t_struct(RoleData)34_storage)"
      },
      {
        "astId": 338,
        "contract": "contracts/assets/ERC721/ERC721Owl.sol:ERC721Owl",
        "label": "__gap",
        "offset": 0,
        "slot": "202",
        "type": "t_array(t_uint256)49_storage"
      },
      {
        "astId": 9684,
        "contract": "contracts/assets/ERC721/ERC721Owl.sol:ERC721Owl",
        "label": "baseURI",
        "offset": 0,
        "slot": "251",
        "type": "t_string_storage"
      }
    ],
    "types": {
      "t_address": {
        "encoding": "inplace",
        "label": "address",
        "numberOfBytes": "20"
      },
      "t_array(t_uint256)44_storage": {
        "base": "t_uint256",
        "encoding": "inplace",
        "label": "uint256[44]",
        "numberOfBytes": "1408"
      },
      "t_array(t_uint256)49_storage": {
        "base": "t_uint256",
        "encoding": "inplace",
        "label": "uint256[49]",
        "numberOfBytes": "1568"
      },
      "t_array(t_uint256)50_storage": {
        "base": "t_uint256",
        "encoding": "inplace",
        "label": "uint256[50]",
        "numberOfBytes": "1600"
      },
      "t_bool": {
        "encoding": "inplace",
        "label": "bool",
        "numberOfBytes": "1"
      },
      "t_bytes32": {
        "encoding": "inplace",
        "label": "bytes32",
        "numberOfBytes": "32"
      },
      "t_mapping(t_address,t_bool)": {
        "encoding": "mapping",
        "key": "t_address",
        "label": "mapping(address => bool)",
        "numberOfBytes": "32",
        "value": "t_bool"
      },
      "t_mapping(t_address,t_mapping(t_address,t_bool))": {
        "encoding": "mapping",
        "key": "t_address",
        "label": "mapping(address => mapping(address => bool))",
        "numberOfBytes": "32",
        "value": "t_mapping(t_address,t_bool)"
      },
      "t_mapping(t_address,t_uint256)": {
        "encoding": "mapping",
        "key": "t_address",
        "label": "mapping(address => uint256)",
        "numberOfBytes": "32",
        "value": "t_uint256"
      },
      "t_mapping(t_bytes32,t_struct(RoleData)34_storage)": {
        "encoding": "mapping",
        "key": "t_bytes32",
        "label": "mapping(bytes32 => struct AccessControlUpgradeable.RoleData)",
        "numberOfBytes": "32",
        "value": "t_struct(RoleData)34_storage"
      },
      "t_mapping(t_uint256,t_address)": {
        "encoding": "mapping",
        "key": "t_uint256",
        "label": "mapping(uint256 => address)",
        "numberOfBytes": "32",
        "value": "t_address"
      },
      "t_string_storage": {
        "encoding": "bytes",
        "label": "string",
        "numberOfBytes": "32"
      },
      "t_struct(RoleData)34_storage": {
        "encoding": "inplace",
        "label": "struct AccessControlUpgradeable.RoleData",
        "members": [
          {
            "astId": 31,
            "contract": "contracts/assets/ERC721/ERC721Owl.sol:ERC721Owl",
            "label": "members",
            "offset": 0,
            "slot": "0",
            "type": "t_mapping(t_address,t_bool)"
          },
          {
            "astId": 33,
            "contract": "contracts/assets/ERC721/ERC721Owl.sol:ERC721Owl",
            "label": "adminRole",
            "offset": 0,
            "slot": "1",
            "type": "t_bytes32"
          }
        ],
        "numberOfBytes": "64"
      },
      "t_uint256": {
        "encoding": "inplace",
        "label": "uint256",
        "numberOfBytes": "32"
      },
      "t_uint8": {
        "encoding": "inplace",
        "label": "uint8",
        "numberOfBytes": "1"
      }
    }
  }
}