{
  "address": "0x42e1Fb3EAbD05608CB2652CA5C90F4cbE4ce4B1F",
  "abi": [
    {
      "inputs": [],
      "stateMutability": "nonpayable",
      "type": "constructor"
    },
    {
      "anonymous": false,
      "inputs": [
        {
          "indexed": false,
          "internalType": "address",
          "name": "previousAdmin",
          "type": "address"
        },
        {
          "indexed": false,
          "internalType": "address",
          "name": "newAdmin",
          "type": "address"
        }
      ],
      "name": "AdminChanged",
      "type": "event"
    },
    {
      "anonymous": false,
      "inputs": [
        {
          "indexed": true,
          "internalType": "address",
          "name": "beacon",
          "type": "address"
        }
      ],
      "name": "BeaconUpgraded",
      "type": "event"
    },
    {
      "anonymous": false,
      "inputs": [
        {
          "indexed": false,
          "internalType": "uint256",
          "name": "craftedAmount",
          "type": "uint256"
        },
        {
          "indexed": false,
          "internalType": "uint256",
          "name": "craftableAmount",
          "type": "uint256"
        },
        {
          "indexed": true,
          "internalType": "address",
          "name": "user",
          "type": "address"
        }
      ],
      "name": "Craft",
      "type": "event"
    },
    {
      "anonymous": false,
      "inputs": [
        {
          "indexed": true,
          "internalType": "address",
          "name": "creator",
          "type": "address"
        },
        {
          "components": [
            {
              "internalType": "enum PluginsCore.TokenType",
              "name": "token",
              "type": "uint8"
            },
            {
              "internalType": "enum PluginsCore.ConsumableType",
              "name": "consumableType",
              "type": "uint8"
            },
            {
              "internalType": "address",
              "name": "contractAddr",
              "type": "address"
            },
            {
              "internalType": "uint256[]",
              "name": "amounts",
              "type": "uint256[]"
            },
            {
              "internalType": "uint256[]",
              "name": "tokenIds",
              "type": "uint256[]"
            }
          ],
          "indexed": false,
          "internalType": "struct PluginsCore.Ingredient[]",
          "name": "inputs",
          "type": "tuple[]"
        },
        {
          "components": [
            {
              "internalType": "enum PluginsCore.TokenType",
              "name": "token",
              "type": "uint8"
            },
            {
              "internalType": "enum PluginsCore.ConsumableType",
              "name": "consumableType",
              "type": "uint8"
            },
            {
              "internalType": "address",
              "name": "contractAddr",
              "type": "address"
            },
            {
              "internalType": "uint256[]",
              "name": "amounts",
              "type": "uint256[]"
            },
            {
              "internalType": "uint256[]",
              "name": "tokenIds",
              "type": "uint256[]"
            }
          ],
          "indexed": false,
          "internalType": "struct PluginsCore.Ingredient[]",
          "name": "outputs",
          "type": "tuple[]"
        }
      ],
      "name": "Create",
      "type": "event"
    },
    {
      "anonymous": false,
      "inputs": [
        {
          "indexed": false,
          "internalType": "uint8",
          "name": "version",
          "type": "uint8"
        }
      ],
      "name": "Initialized",
      "type": "event"
    },
    {
      "anonymous": false,
      "inputs": [
        {
          "indexed": true,
          "internalType": "bytes32",
          "name": "role",
          "type": "bytes32"
        },
        {
          "indexed": true,
          "internalType": "bytes32",
          "name": "previousAdminRole",
          "type": "bytes32"
        },
        {
          "indexed": true,
          "internalType": "bytes32",
          "name": "newAdminRole",
          "type": "bytes32"
        }
      ],
      "name": "RoleAdminChanged",
      "type": "event"
    },
    {
      "anonymous": false,
      "inputs": [
        {
          "indexed": true,
          "internalType": "bytes32",
          "name": "role",
          "type": "bytes32"
        },
        {
          "indexed": true,
          "internalType": "address",
          "name": "account",
          "type": "address"
        },
        {
          "indexed": true,
          "internalType": "address",
          "name": "sender",
          "type": "address"
        }
      ],
      "name": "RoleGranted",
      "type": "event"
    },
    {
      "anonymous": false,
      "inputs": [
        {
          "indexed": true,
          "internalType": "bytes32",
          "name": "role",
          "type": "bytes32"
        },
        {
          "indexed": true,
          "internalType": "address",
          "name": "account",
          "type": "address"
        },
        {
          "indexed": true,
          "internalType": "address",
          "name": "sender",
          "type": "address"
        }
      ],
      "name": "RoleRevoked",
      "type": "event"
    },
    {
      "anonymous": false,
      "inputs": [
        {
          "indexed": true,
          "internalType": "uint256",
          "name": "routeId",
          "type": "uint256"
        },
        {
          "indexed": true,
          "internalType": "address",
          "name": "sender",
          "type": "address"
        },
        {
          "indexed": true,
          "internalType": "bytes",
          "name": "data",
          "type": "bytes"
        }
      ],
      "name": "RouterError",
      "type": "event"
    },
    {
      "anonymous": false,
      "inputs": [
        {
          "indexed": false,
          "internalType": "uint256",
          "name": "craftableAmount",
          "type": "uint256"
        }
      ],
      "name": "Update",
      "type": "event"
    },
    {
      "anonymous": false,
      "inputs": [
        {
          "indexed": true,
          "internalType": "address",
          "name": "implementation",
          "type": "address"
        }
      ],
      "name": "Upgraded",
      "type": "event"
    },
    {
      "inputs": [],
      "name": "DEFAULT_ADMIN_ROLE",
      "outputs": [
        {
          "internalType": "bytes32",
          "name": "",
          "type": "bytes32"
        }
      ],
      "stateMutability": "view",
      "type": "function"
    },
    {
      "inputs": [],
      "name": "VERSION",
      "outputs": [
        {
          "internalType": "string",
          "name": "",
          "type": "string"
        }
      ],
      "stateMutability": "view",
      "type": "function"
    },
    {
      "inputs": [],
      "name": "burnAddress",
      "outputs": [
        {
          "internalType": "address",
          "name": "",
          "type": "address"
        }
      ],
      "stateMutability": "view",
      "type": "function"
    },
    {
      "inputs": [
        {
          "internalType": "uint96",
          "name": "amount",
          "type": "uint96"
        },
        {
          "internalType": "uint256[][]",
          "name": "_inputERC721Ids",
          "type": "uint256[][]"
        }
      ],
      "name": "craft",
      "outputs": [],
      "stateMutability": "nonpayable",
      "type": "function"
    },
    {
      "inputs": [],
      "name": "craftableAmount",
      "outputs": [
        {
          "internalType": "uint96",
          "name": "",
          "type": "uint96"
        }
      ],
      "stateMutability": "view",
      "type": "function"
    },
    {
      "inputs": [
        {
          "internalType": "uint96",
          "name": "amount",
          "type": "uint96"
        },
        {
          "internalType": "uint256[][]",
          "name": "_outputsERC721Ids",
          "type": "uint256[][]"
        }
      ],
      "name": "deposit",
      "outputs": [],
      "stateMutability": "nonpayable",
      "type": "function"
    },
    {
      "inputs": [],
      "name": "getImplementation",
      "outputs": [
        {
          "internalType": "address",
          "name": "",
          "type": "address"
        }
      ],
      "stateMutability": "view",
      "type": "function"
    },
    {
      "inputs": [
        {
          "internalType": "uint256",
          "name": "index",
          "type": "uint256"
        }
      ],
      "name": "getInputIngredient",
      "outputs": [
        {
          "internalType": "enum PluginsCore.TokenType",
          "name": "token",
          "type": "uint8"
        },
        {
          "internalType": "enum PluginsCore.ConsumableType",
          "name": "consumableType",
          "type": "uint8"
        },
        {
          "internalType": "address",
          "name": "contractAddr",
          "type": "address"
        },
        {
          "internalType": "uint256[]",
          "name": "amounts",
          "type": "uint256[]"
        },
        {
          "internalType": "uint256[]",
          "name": "tokenIds",
          "type": "uint256[]"
        }
      ],
      "stateMutability": "view",
      "type": "function"
    },
    {
      "inputs": [],
      "name": "getInputs",
      "outputs": [
        {
          "components": [
            {
              "internalType": "enum PluginsCore.TokenType",
              "name": "token",
              "type": "uint8"
            },
            {
              "internalType": "enum PluginsCore.ConsumableType",
              "name": "consumableType",
              "type": "uint8"
            },
            {
              "internalType": "address",
              "name": "contractAddr",
              "type": "address"
            },
            {
              "internalType": "uint256[]",
              "name": "amounts",
              "type": "uint256[]"
            },
            {
              "internalType": "uint256[]",
              "name": "tokenIds",
              "type": "uint256[]"
            }
          ],
          "internalType": "struct PluginsCore.Ingredient[]",
          "name": "_inputs",
          "type": "tuple[]"
        }
      ],
      "stateMutability": "view",
      "type": "function"
    },
    {
      "inputs": [
        {
          "internalType": "uint256",
          "name": "index",
          "type": "uint256"
        }
      ],
      "name": "getOutputIngredient",
      "outputs": [
        {
          "internalType": "enum PluginsCore.TokenType",
          "name": "token",
          "type": "uint8"
        },
        {
          "internalType": "enum PluginsCore.ConsumableType",
          "name": "consumableType",
          "type": "uint8"
        },
        {
          "internalType": "address",
          "name": "contractAddr",
          "type": "address"
        },
        {
          "internalType": "uint256[]",
          "name": "amounts",
          "type": "uint256[]"
        },
        {
          "internalType": "uint256[]",
          "name": "tokenIds",
          "type": "uint256[]"
        }
      ],
      "stateMutability": "view",
      "type": "function"
    },
    {
      "inputs": [],
      "name": "getOutputs",
      "outputs": [
        {
          "components": [
            {
              "internalType": "enum PluginsCore.TokenType",
              "name": "token",
              "type": "uint8"
            },
            {
              "internalType": "enum PluginsCore.ConsumableType",
              "name": "consumableType",
              "type": "uint8"
            },
            {
              "internalType": "address",
              "name": "contractAddr",
              "type": "address"
            },
            {
              "internalType": "uint256[]",
              "name": "amounts",
              "type": "uint256[]"
            },
            {
              "internalType": "uint256[]",
              "name": "tokenIds",
              "type": "uint256[]"
            }
          ],
          "internalType": "struct PluginsCore.Ingredient[]",
          "name": "_outputs",
          "type": "tuple[]"
        }
      ],
      "stateMutability": "view",
      "type": "function"
    },
    {
      "inputs": [
        {
          "internalType": "bytes32",
          "name": "role",
          "type": "bytes32"
        }
      ],
      "name": "getRoleAdmin",
      "outputs": [
        {
          "internalType": "bytes32",
          "name": "",
          "type": "bytes32"
        }
      ],
      "stateMutability": "view",
      "type": "function"
    },
    {
      "inputs": [
        {
          "internalType": "bytes32",
          "name": "role",
          "type": "bytes32"
        },
        {
          "internalType": "address",
          "name": "account",
          "type": "address"
        }
      ],
      "name": "grantRole",
      "outputs": [],
      "stateMutability": "nonpayable",
      "type": "function"
    },
    {
      "inputs": [
        {
          "internalType": "address",
          "name": "to",
          "type": "address"
        }
      ],
      "name": "grantRouter",
      "outputs": [],
      "stateMutability": "nonpayable",
      "type": "function"
    },
    {
      "inputs": [
        {
          "internalType": "bytes32",
          "name": "role",
          "type": "bytes32"
        },
        {
          "internalType": "address",
          "name": "account",
          "type": "address"
        }
      ],
      "name": "hasRole",
      "outputs": [
        {
          "internalType": "bool",
          "name": "",
          "type": "bool"
        }
      ],
      "stateMutability": "view",
      "type": "function"
    },
    {
      "inputs": [
        {
          "internalType": "address",
          "name": "_admin",
          "type": "address"
        },
        {
          "internalType": "address",
          "name": "_burnAddress",
          "type": "address"
        },
        {
          "internalType": "uint96",
          "name": "_craftableAmount",
          "type": "uint96"
        },
        {
          "components": [
            {
              "internalType": "enum PluginsCore.TokenType",
              "name": "token",
              "type": "uint8"
            },
            {
              "internalType": "enum PluginsCore.ConsumableType",
              "name": "consumableType",
              "type": "uint8"
            },
            {
              "internalType": "address",
              "name": "contractAddr",
              "type": "address"
            },
            {
              "internalType": "uint256[]",
              "name": "amounts",
              "type": "uint256[]"
            },
            {
              "internalType": "uint256[]",
              "name": "tokenIds",
              "type": "uint256[]"
            }
          ],
          "internalType": "struct PluginsCore.Ingredient[]",
          "name": "_inputs",
          "type": "tuple[]"
        },
        {
          "components": [
            {
              "internalType": "enum PluginsCore.TokenType",
              "name": "token",
              "type": "uint8"
            },
            {
              "internalType": "enum PluginsCore.ConsumableType",
              "name": "consumableType",
              "type": "uint8"
            },
            {
              "internalType": "address",
              "name": "contractAddr",
              "type": "address"
            },
            {
              "internalType": "uint256[]",
              "name": "amounts",
              "type": "uint256[]"
            },
            {
              "internalType": "uint256[]",
              "name": "tokenIds",
              "type": "uint256[]"
            }
          ],
          "internalType": "struct PluginsCore.Ingredient[]",
          "name": "_outputs",
          "type": "tuple[]"
        },
        {
          "internalType": "address",
          "name": "_forwarder",
          "type": "address"
        }
      ],
      "name": "initialize",
      "outputs": [],
      "stateMutability": "nonpayable",
      "type": "function"
    },
    {
      "inputs": [
        {
          "internalType": "address",
          "name": "forwarder",
          "type": "address"
        }
      ],
      "name": "isTrustedForwarder",
      "outputs": [
        {
          "internalType": "bool",
          "name": "",
          "type": "bool"
        }
      ],
      "stateMutability": "view",
      "type": "function"
    },
    {
      "inputs": [
        {
          "internalType": "address",
          "name": "",
          "type": "address"
        },
        {
          "internalType": "address",
          "name": "",
          "type": "address"
        },
        {
          "internalType": "uint256[]",
          "name": "",
          "type": "uint256[]"
        },
        {
          "internalType": "uint256[]",
          "name": "",
          "type": "uint256[]"
        },
        {
          "internalType": "bytes",
          "name": "",
          "type": "bytes"
        }
      ],
      "name": "onERC1155BatchReceived",
      "outputs": [
        {
          "internalType": "bytes4",
          "name": "",
          "type": "bytes4"
        }
      ],
      "stateMutability": "nonpayable",
      "type": "function"
    },
    {
      "inputs": [
        {
          "internalType": "address",
          "name": "",
          "type": "address"
        },
        {
          "internalType": "address",
          "name": "",
          "type": "address"
        },
        {
          "internalType": "uint256",
          "name": "",
          "type": "uint256"
        },
        {
          "internalType": "uint256",
          "name": "",
          "type": "uint256"
        },
        {
          "internalType": "bytes",
          "name": "",
          "type": "bytes"
        }
      ],
      "name": "onERC1155Received",
      "outputs": [
        {
          "internalType": "bytes4",
          "name": "",
          "type": "bytes4"
        }
      ],
      "stateMutability": "nonpayable",
      "type": "function"
    },
    {
      "inputs": [
        {
          "internalType": "address",
          "name": "",
          "type": "address"
        },
        {
          "internalType": "address",
          "name": "",
          "type": "address"
        },
        {
          "internalType": "uint256",
          "name": "",
          "type": "uint256"
        },
        {
          "internalType": "bytes",
          "name": "",
          "type": "bytes"
        }
      ],
      "name": "onERC721Received",
      "outputs": [
        {
          "internalType": "bytes4",
          "name": "",
          "type": "bytes4"
        }
      ],
      "stateMutability": "nonpayable",
      "type": "function"
    },
    {
      "inputs": [],
      "name": "proxiableUUID",
      "outputs": [
        {
          "internalType": "bytes32",
          "name": "",
          "type": "bytes32"
        }
      ],
      "stateMutability": "view",
      "type": "function"
    },
    {
      "inputs": [
        {
          "internalType": "address",
          "name": "_admin",
          "type": "address"
        },
        {
          "internalType": "address",
          "name": "_burnAddress",
          "type": "address"
        },
        {
          "internalType": "uint96",
          "name": "_craftableAmount",
          "type": "uint96"
        },
        {
          "components": [
            {
              "internalType": "enum PluginsCore.TokenType",
              "name": "token",
              "type": "uint8"
            },
            {
              "internalType": "enum PluginsCore.ConsumableType",
              "name": "consumableType",
              "type": "uint8"
            },
            {
              "internalType": "address",
              "name": "contractAddr",
              "type": "address"
            },
            {
              "internalType": "uint256[]",
              "name": "amounts",
              "type": "uint256[]"
            },
            {
              "internalType": "uint256[]",
              "name": "tokenIds",
              "type": "uint256[]"
            }
          ],
          "internalType": "struct PluginsCore.Ingredient[]",
          "name": "_inputs",
          "type": "tuple[]"
        },
        {
          "components": [
            {
              "internalType": "enum PluginsCore.TokenType",
              "name": "token",
              "type": "uint8"
            },
            {
              "internalType": "enum PluginsCore.ConsumableType",
              "name": "consumableType",
              "type": "uint8"
            },
            {
              "internalType": "address",
              "name": "contractAddr",
              "type": "address"
            },
            {
              "internalType": "uint256[]",
              "name": "amounts",
              "type": "uint256[]"
            },
            {
              "internalType": "uint256[]",
              "name": "tokenIds",
              "type": "uint256[]"
            }
          ],
          "internalType": "struct PluginsCore.Ingredient[]",
          "name": "_outputs",
          "type": "tuple[]"
        },
        {
          "internalType": "address",
          "name": "_forwarder",
          "type": "address"
        }
      ],
      "name": "proxyInitialize",
      "outputs": [],
      "stateMutability": "nonpayable",
      "type": "function"
    },
    {
      "inputs": [
        {
          "internalType": "bytes32",
          "name": "role",
          "type": "bytes32"
        },
        {
          "internalType": "address",
          "name": "account",
          "type": "address"
        }
      ],
      "name": "renounceRole",
      "outputs": [],
      "stateMutability": "nonpayable",
      "type": "function"
    },
    {
      "inputs": [
        {
          "internalType": "bytes32",
          "name": "role",
          "type": "bytes32"
        },
        {
          "internalType": "address",
          "name": "account",
          "type": "address"
        }
      ],
      "name": "revokeRole",
      "outputs": [],
      "stateMutability": "nonpayable",
      "type": "function"
    },
    {
      "inputs": [
        {
          "internalType": "bytes4",
          "name": "interfaceId",
          "type": "bytes4"
        }
      ],
      "name": "supportsInterface",
      "outputs": [
        {
          "internalType": "bool",
          "name": "",
          "type": "bool"
        }
      ],
      "stateMutability": "view",
      "type": "function"
    },
    {
      "inputs": [
        {
          "internalType": "address",
          "name": "newImplementation",
          "type": "address"
        }
      ],
      "name": "upgradeTo",
      "outputs": [],
      "stateMutability": "nonpayable",
      "type": "function"
    },
    {
      "inputs": [
        {
          "internalType": "address",
          "name": "newImplementation",
          "type": "address"
        },
        {
          "internalType": "bytes",
          "name": "data",
          "type": "bytes"
        }
      ],
      "name": "upgradeToAndCall",
      "outputs": [],
      "stateMutability": "payable",
      "type": "function"
    },
    {
      "inputs": [],
      "name": "versionRecipient",
      "outputs": [
        {
          "internalType": "string",
          "name": "",
          "type": "string"
        }
      ],
      "stateMutability": "pure",
      "type": "function"
    },
    {
      "inputs": [
        {
          "internalType": "uint96",
          "name": "amount",
          "type": "uint96"
        }
      ],
      "name": "withdraw",
      "outputs": [],
      "stateMutability": "nonpayable",
      "type": "function"
    }
  ],
  "transactionHash": "0x6b2afc8f4f83fa1d9e2c3600b996552dd8bccb6c8229337342d5c2bf1f3a6207",
  "args": [],
  "numDeployments": 1,
  "solcInputHash": "28b4d2e2155903f56ed1fc988848ec0f",
  "bytecode": "0x60a0604052306080523480156200001557600080fd5b506200002062000026565b620000e8565b600054610100900460ff1615620000935760405162461bcd60e51b815260206004820152602760248201527f496e697469616c697a61626c653a20636f6e747261637420697320696e697469604482015266616c697a696e6760c81b606482015260840160405180910390fd5b60005460ff9081161015620000e6576000805460ff191660ff9081179091556040519081527f7f26b83ff96e1f2b6a682f133852f6798a09c465da95921460cefb38474024989060200160405180910390a15b565b60805161511e620001206000396000818161085c0152818161089c01528181610a4601528181610a860152610ca5015261511e6000f3fe6080604052600436106101c25760003560e01c80635739a0d4116100f7578063bbe9e39b11610095578063dee4dea011610064578063dee4dea014610576578063df5081d614610596578063f23a6e61146105b6578063ffa1ad74146105e257600080fd5b8063bbe9e39b146104f5578063bc197c811461050a578063d2cad82a14610536578063d547741f1461055657600080fd5b806391d14854116100d157806391d148541461048b57806398c76d25146104ab578063a217fddf146104cb578063aaf10f42146104e057600080fd5b80635739a0d4146103f257806370d5ae051461043257806384f863251461046b57600080fd5b8063486ff0cd11610164578063505c9f271161013e578063505c9f271461037b57806351776d931461039d57806352d1902d146103bd578063572b6c05146103d257600080fd5b8063486ff0cd146103115780634bd09160146103485780634f1ef2861461036857600080fd5b80632c4e328d116101a05780632c4e328d1461027e5780632f2ff15d146102af57806336568abe146102d15780633659cfe6146102f157600080fd5b806301ffc9a7146101c7578063150b7a02146101fc578063248a9ca314610240575b600080fd5b3480156101d357600080fd5b506101e76101e23660046140ab565b610612565b60405190151581526020015b60405180910390f35b34801561020857600080fd5b506102276102173660046141d7565b630a85bd0160e11b949350505050565b6040516001600160e01b031990911681526020016101f3565b34801561024c57600080fd5b5061027061025b366004614242565b600090815260c9602052604090206001015490565b6040519081526020016101f3565b34801561028a57600080fd5b5061029e610299366004614242565b610682565b6040516101f39594939291906142ca565b3480156102bb57600080fd5b506102cf6102ca366004614327565b610794565b005b3480156102dd57600080fd5b506102cf6102ec366004614327565b6107be565b3480156102fd57600080fd5b506102cf61030c366004614357565b610851565b34801561031d57600080fd5b50604080518082019091526005815264191719171b60d91b60208201525b6040516101f391906143cc565b34801561035457600080fd5b506102cf610363366004614441565b61091a565b6102cf6103763660046144f9565b610a3b565b34801561038757600080fd5b50610390610af1565b6040516101f39190614548565b3480156103a957600080fd5b506102cf6103b836600461460b565b610c74565b3480156103c957600080fd5b50610270610c98565b3480156103de57600080fd5b506101e76103ed366004614357565b610d4b565b3480156103fe57600080fd5b5061015f5461041a90600160a01b90046001600160601b031681565b6040516001600160601b0390911681526020016101f3565b34801561043e57600080fd5b5061015f54610453906001600160a01b031681565b6040516001600160a01b0390911681526020016101f3565b34801561047757600080fd5b506102cf610486366004614441565b610d65565b34801561049757600080fd5b506101e76104a6366004614327565b610da6565b3480156104b757600080fd5b506102cf6104c6366004614357565b610dd1565b3480156104d757600080fd5b50610270600081565b3480156104ec57600080fd5b50610453610df4565b34801561050157600080fd5b50610390610e03565b34801561051657600080fd5b506102276105253660046146eb565b63bc197c8160e01b95945050505050565b34801561054257600080fd5b5061029e610551366004614242565b610f7d565b34801561056257600080fd5b506102cf610571366004614327565b610f9b565b34801561058257600080fd5b506102cf610591366004614798565b610fc0565b3480156105a257600080fd5b506102cf6105b136600461460b565b611021565b3480156105c257600080fd5b506102276105d13660046147b3565b63f23a6e6160e01b95945050505050565b3480156105ee57600080fd5b5061033b6040518060400160405280600481526020016376302e3160e01b81525081565b60006040518060400160405280600481526020016376302e3160e01b815250604051602001610641919061481b565b604051602081830303815290604052805190602001206001600160e01b031916826001600160e01b031916148061067c575061067c826110b0565b92915050565b6000806000606080600061016087815481106106a0576106a0614860565b6000918252602091829020600391909102018054600182018054604080518287028101870190915281815293955060ff80841695610100850490911694620100009094046001600160a01b0316936002880192909184919083018282801561072757602002820191906000526020600020905b815481526020019060010190808311610713575b505050505091508080548060200260200160405190810160405280929190818152602001828054801561077957602002820191906000526020600020905b815481526020019060010190808311610765575b50505050509050955095509550955095505091939590929450565b600082815260c960205260409020600101546107af816110d5565b6107b983836110e6565b505050565b6107c661116d565b6001600160a01b0316816001600160a01b0316146108435760405162461bcd60e51b815260206004820152602f60248201527f416363657373436f6e74726f6c3a2063616e206f6e6c792072656e6f756e636560448201526e103937b632b9903337b91039b2b63360891b60648201526084015b60405180910390fd5b61084d82826111aa565b5050565b306001600160a01b037f000000000000000000000000000000000000000000000000000000000000000016141561089a5760405162461bcd60e51b815260040161083a90614876565b7f00000000000000000000000000000000000000000000000000000000000000006001600160a01b03166108cc61122f565b6001600160a01b0316146108f25760405162461bcd60e51b815260040161083a906148c2565b6108fb8161124b565b6040805160008082526020820190925261091791839190611256565b50565b600054610100900460ff161580801561093a5750600054600160ff909116105b806109545750303b158015610954575060005460ff166001145b6109b75760405162461bcd60e51b815260206004820152602e60248201527f496e697469616c697a61626c653a20636f6e747261637420697320616c72656160448201526d191e481a5b9a5d1a585b1a5e995960921b606482015260840161083a565b6000805460ff1916600117905580156109da576000805461ff0019166101001790555b6109ea89898989898989896113d0565b8015610a30576000805461ff0019169055604051600181527f7f26b83ff96e1f2b6a682f133852f6798a09c465da95921460cefb38474024989060200160405180910390a15b505050505050505050565b306001600160a01b037f0000000000000000000000000000000000000000000000000000000000000000161415610a845760405162461bcd60e51b815260040161083a90614876565b7f00000000000000000000000000000000000000000000000000000000000000006001600160a01b0316610ab661122f565b6001600160a01b031614610adc5760405162461bcd60e51b815260040161083a906148c2565b610ae58261124b565b61084d82826001611256565b6060610161805480602002602001604051908101604052809291908181526020016000905b82821015610c6b576000848152602090206040805160a08101909152600384029091018054829060ff166002811115610b5157610b5161425b565b6002811115610b6257610b6261425b565b81528154602090910190610100900460ff166002811115610b8557610b8561425b565b6002811115610b9657610b9661425b565b815281546201000090046001600160a01b03166020808301919091526001830180546040805182850281018501825282815294019392830182828015610bfb57602002820191906000526020600020905b815481526020019060010190808311610be7575b5050505050815260200160028201805480602002602001604051908101604052809291908181526020018280548015610c5357602002820191906000526020600020905b815481526020019060010190808311610c3f575b50505050508152505081526020019060010190610b16565b50505050905090565b6000610c7f816110d5565b610c9284610c8d848661490e565b611411565b50505050565b6000306001600160a01b037f00000000000000000000000000000000000000000000000000000000000000001614610d385760405162461bcd60e51b815260206004820152603860248201527f555550535570677261646561626c653a206d757374206e6f742062652063616c60448201527f6c6564207468726f7567682064656c656761746563616c6c0000000000000000606482015260840161083a565b5060008051602061508283398151915290565b600061067c6000805160206150c983398151915283610da6565b600054610100900460ff16610d8c5760405162461bcd60e51b815260040161083a90614981565b610d9c88888888888888886113d0565b5050505050505050565b600091825260c9602090815260408084206001600160a01b0393909316845291905290205460ff1690565b6000610ddc816110d5565b61084d6000805160206150c9833981519152836110e6565b6000610dfe61122f565b905090565b6060610160805480602002602001604051908101604052809291908181526020016000905b82821015610c6b576000848152602090206040805160a08101909152600384029091018054829060ff166002811115610e6357610e6361425b565b6002811115610e7457610e7461425b565b81528154602090910190610100900460ff166002811115610e9757610e9761425b565b6002811115610ea857610ea861425b565b815281546201000090046001600160a01b03166020808301919091526001830180546040805182850281018501825282815294019392830182828015610f0d57602002820191906000526020600020905b815481526020019060010190808311610ef9575b5050505050815260200160028201805480602002602001604051908101604052809291908181526020018280548015610f6557602002820191906000526020600020905b815481526020019060010190808311610f51575b50505050508152505081526020019060010190610e28565b6000806000606080600061016187815481106106a0576106a0614860565b600082815260c96020526040902060010154610fb6816110d5565b6107b983836111aa565b6000610fcb816110d5565b610fd68260006114c8565b61015f54604051600160a01b9091046001600160601b031681527f164f7b2ab803097dab5e39f06d2e4f3c3ddc5d4171abbdcc3e76443b8359c7f59060200160405180910390a15050565b6110328361102d61116d565b6114c8565b6110468282856001600160601b03166119ba565b61104e61116d565b61015f54604080516001600160601b038781168252600160a01b90930490921660208301526001600160a01b0392909216917f6217dc42881238756608f383b0663c681e9550fce2f9d2ae9a619bdcc0d3cb25910160405180910390a2505050565b60006001600160e01b03198216630271189760e51b148061067c575061067c826119dd565b610917816110e161116d565b611a12565b6110f08282610da6565b61084d57600082815260c9602090815260408083206001600160a01b03851684529091529020805460ff1916600117905561112961116d565b6001600160a01b0316816001600160a01b0316837f2f8788117e7eff1d82e926ec794901d17c78024a50270940304540a733656f0d60405160405180910390a45050565b60006014361080159061119357506111936000805160206150c983398151915233610da6565b156111a5575060131936013560601c90565b503390565b6111b48282610da6565b1561084d57600082815260c9602090815260408083206001600160a01b03851684529091529020805460ff191690556111eb61116d565b6001600160a01b0316816001600160a01b0316837ff6391f5c32d9c69d2a47ea670b442974b53935d1edc7fd64eb21e047a839171b60405160405180910390a45050565b600080516020615082833981519152546001600160a01b031690565b600061084d816110d5565b7f4910fdfa16fed3260ed0e7147f7cc6da11a60208b5b9406d12a635614ffd91435460ff1615611289576107b983611a76565b826001600160a01b03166352d1902d6040518163ffffffff1660e01b815260040160206040518083038186803b1580156112c257600080fd5b505afa9250505080156112f2575060408051601f3d908101601f191682019092526112ef918101906149cc565b60015b6113555760405162461bcd60e51b815260206004820152602e60248201527f45524331393637557067726164653a206e657720696d706c656d656e7461746960448201526d6f6e206973206e6f74205555505360901b606482015260840161083a565b60008051602061508283398151915281146113c45760405162461bcd60e51b815260206004820152602960248201527f45524331393637557067726164653a20756e737570706f727465642070726f786044820152681a58589b195555525160ba1b606482015260840161083a565b506107b9838383611b12565b600054610100900460ff166113f75760405162461bcd60e51b815260040161083a90614981565b61140688888787878787611b37565b610d9c868484611ca9565b6000826001600160601b03161161146a5760405162461bcd60e51b815260206004820181905260248201527f437261667465724d696e743a20616d6f756e742063616e6e6f74206265203021604482015260640161083a565b8161015f60148282829054906101000a90046001600160601b031661148f91906149fb565b92506101000a8154816001600160601b0302191690836001600160601b03160217905550610fd6826001600160601b0316826000611d31565b6000826001600160601b0316116115215760405162461bcd60e51b815260206004820181905260248201527f437261667465724d696e743a20616d6f756e742063616e6e6f74206265203021604482015260640161083a565b61015f546001600160601b03600160a01b9091048116908316111561159c5760405162461bcd60e51b815260206004820152602b60248201527f437261667465724d696e743a204e6f7420656e6f756768207265736f7572636560448201526a7320746f2063726166742160a81b606482015260840161083a565b8161015f60148282829054906101000a90046001600160601b03166115c19190614a26565b92506101000a8154816001600160601b0302191690836001600160601b0316021790555060005b610161548110156107b9576000610161828154811061160957611609614860565b6000918252602082206003909102019150815460ff1660028111156116305761163061425b565b14801561164557506001600160a01b03831615155b156117005780546201000090046001600160a01b03166340c10f1961166861116d565b866001600160601b03168460010160008154811061168857611688614860565b906000526020600020015461169d9190614a4e565b6040516001600160e01b031960e085901b1681526001600160a01b0390921660048301526024820152604401600060405180830381600087803b1580156116e357600080fd5b505af11580156116f7573d6000803e3d6000fd5b505050506119a7565b6001815460ff1660028111156117185761171861425b565b141561182e5760005b846001600160601b0316811015611828576001600160a01b038416156117ec5781546201000090046001600160a01b03166340c10f1961175f61116d565b60028501805461177190600190614a6d565b8154811061178157611781614860565b6000918252602090912001546040516001600160e01b031960e085901b1681526001600160a01b0390921660048301526024820152604401600060405180830381600087803b1580156117d357600080fd5b505af11580156117e7573d6000803e3d6000fd5b505050505b816002018054806117ff576117ff614a84565b60019003818190600052602060002001600090559055808061182090614a9a565b915050611721565b506119a7565b6002815460ff1660028111156118465761184661425b565b14801561185b57506001600160a01b03831615155b156119a75760018101546000906001600160401b0381111561187f5761187f6140fa565b6040519080825280602002602001820160405280156118a8578160200160208202803683370190505b50905060005b600183015481101561191d57856001600160601b03168360010182815481106118d9576118d9614860565b90600052602060002001546118ee9190614a4e565b82828151811061190057611900614860565b60209081029190910101528061191581614a9a565b9150506118ae565b5081546201000090046001600160a01b0316631f7fdffa61193c61116d565b604080516000815260208101918290526001600160e01b031960e085901b1690915261197391906002870190869060248101614aea565b600060405180830381600087803b15801561198d57600080fd5b505af11580156119a1573d6000803e3d6000fd5b50505050505b50806119b281614a9a565b9150506115e8565b6107b96101606119c861116d565b61015f546001600160a01b0316868686611fca565b60006001600160e01b03198216637965db0b60e01b148061067c57506301ffc9a760e01b6001600160e01b031983161461067c565b611a1c8282610da6565b61084d57611a34816001600160a01b0316601461291c565b611a3f83602061291c565b604051602001611a50929190614b34565b60408051601f198184030181529082905262461bcd60e51b825261083a916004016143cc565b6001600160a01b0381163b611ae35760405162461bcd60e51b815260206004820152602d60248201527f455243313936373a206e657720696d706c656d656e746174696f6e206973206e60448201526c1bdd08184818dbdb9d1c9858dd609a1b606482015260840161083a565b60008051602061508283398151915280546001600160a01b0319166001600160a01b0392909216919091179055565b611b1b83612abe565b600082511180611b285750805b156107b957610c928383612afe565b600054610100900460ff16611b5e5760405162461bcd60e51b815260040161083a90614981565b6001600160a01b038616611bc45760405162461bcd60e51b815260206004820152602760248201527f43726166746572436f72653a206275726e2061646472657373206d757374206e60448201526606f7420626520360cc1b606482015260840161083a565b83611c265760405162461bcd60e51b815260206004820152602c60248201527f43726166746572436f72653a2041206372616674696e6720696e707574206d7560448201526b737420626520676976656e2160a01b606482015260840161083a565b81611c895760405162461bcd60e51b815260206004820152602d60248201527f43726166746572436f72653a2041206372616674696e67206f7574707574206d60448201526c75737420626520676976656e2160981b606482015260840161083a565b611c938782612bf2565b611ca08686868686612c46565b50505050505050565b600054610100900460ff16611cd05760405162461bcd60e51b815260040161083a90614981565b6000611cee611cdf8385614bb6565b856001600160601b0316612c93565b90506000611d0f611cff8486614bb6565b866001600160601b03168461337f565b90506001600160601b03851615611d2a57611d2a8582611411565b5050505050565b6000805b61016154811015611d2a5760006101618281548110611d5657611d56614860565b6000918252602090912060039091020190506001815460ff166002811115611d8057611d8061425b565b1415611fb75785858481518110611d9957611d99614860565b60200260200101515114611e035760405162461bcd60e51b815260206004820152602b60248201527f437261667465724d696e743a205f6f7574707574734552433732314964735b6960448201526a1748084f48185b5bdd5b9d60aa1b606482015260840161083a565b60005b858481518110611e1857611e18614860565b602002602001015151811015611fa8578160000160029054906101000a90046001600160a01b03166001600160a01b0316634f558e79878681518110611e6057611e60614860565b60200260200101518381518110611e7957611e79614860565b60200260200101516040518263ffffffff1660e01b8152600401611e9f91815260200190565b60206040518083038186803b158015611eb757600080fd5b505afa158015611ecb573d6000803e3d6000fd5b505050506040513d601f19601f82011682018060405250810190611eef9190614cae565b15611f485760405162461bcd60e51b815260206004820152602360248201527f437261667465724d696e743a20746f6b656e496420616c7265616479206d696e6044820152621d195960ea1b606482015260840161083a565b81600201868581518110611f5e57611f5e614860565b60200260200101518281518110611f7757611f77614860565b6020908102919091018101518254600181018455600093845291909220015580611fa081614a9a565b915050611e06565b50611fb4600184614cd0565b92505b5080611fc281614a9a565b915050611d35565b6000805b8754811015610d9c576000888281548110611feb57611feb614860565b6000918252602082206003909102019150815460ff1660028111156120125761201261425b565b141561215b5760018154610100900460ff1660028111156120355761203561425b565b141561208e576120898160000160029054906101000a90046001600160a01b03168989878560010160008154811061206f5761206f614860565b90600052602060002001546120849190614a4e565b61352a565b612909565b83816001016000815481106120a5576120a5614860565b90600052602060002001546120ba9190614a4e565b81546040516370a0823160e01b81526001600160a01b038b8116600483015262010000909204909116906370a082319060240160206040518083038186803b15801561210557600080fd5b505afa158015612119573d6000803e3d6000fd5b505050506040513d601f19601f8201168201806040525081019061213d91906149cc565b10156120895760405162461bcd60e51b815260040161083a90614ce8565b6001815460ff1660028111156121735761217361425b565b141561255c57600086868581811061218d5761218d614860565b905060200281019061219f9190614d3b565b80806020026020016040519081016040528093929190818152602001838360200280828437600092019190915250508251929350505085146122355760405162461bcd60e51b815260206004820152602960248201527f506c7567696e73436f72653a205f696e7075744552433732314964735b695d20604482015268084f48185b5bdd5b9d60ba1b606482015260840161083a565b60018254610100900460ff1660028111156122525761225261425b565b14156123295760005b8151811015612323578260000160029054906101000a90046001600160a01b03166001600160a01b03166342842e0e8b8b85858151811061229e5761229e614860565b60209081029190910101516040516001600160e01b031960e086901b1681526001600160a01b0393841660048201529290911660248301526044820152606401600060405180830381600087803b1580156122f857600080fd5b505af115801561230c573d6000803e3d6000fd5b50505050808061231b90614a9a565b91505061225b565b50612549565b60005b815181101561254757825482516001600160a01b03808d16926201000090041690636352211e9085908590811061236557612365614860565b60200260200101516040518263ffffffff1660e01b815260040161238b91815260200190565b60206040518083038186803b1580156123a357600080fd5b505afa1580156123b7573d6000803e3d6000fd5b505050506040513d601f19601f820116820180604052508101906123db9190614d84565b6001600160a01b0316146124425760405162461bcd60e51b815260206004820152602860248201527f506c7567696e73436f72653a205573657220646f6573206e6f74206f776e20746044820152676f6b656e2873292160c01b606482015260840161083a565b600082828151811061245657612456614860565b602090810291909101810151600087815260fb835260408082205488546201000090046001600160a01b0316835260fc8552818320848452909452902054909250106124f25760405162461bcd60e51b815260206004820152602560248201527f506c7567696e73436f72653a2055736564206f76657220746865206c696d69746044820152641037b3103760d91b606482015260840161083a565b83546201000090046001600160a01b0316600090815260fc60209081526040808320848452909152812080546001929061252d908490614cd0565b9091555082915061253f905081614a9a565b91505061232c565b505b612554600185614cd0565b935050612909565b60018154610100900460ff1660028111156125795761257961425b565b14156126d65760018101546000906001600160401b0381111561259e5761259e6140fa565b6040519080825280602002602001820160405280156125c7578160200160208202803683370190505b50905060005b600183015481101561263357858360010182815481106125ef576125ef614860565b90600052602060002001546126049190614a4e565b82828151811061261657612616614860565b60209081029190910101528061262b81614a9a565b9150506125cd565b5081546201000090046001600160a01b0316632eb2c2d68a8a600286018560006040519080825280601f01601f19166020018201604052801561267d576020820181803683370190505b506040518663ffffffff1660e01b815260040161269e959493929190614da1565b600060405180830381600087803b1580156126b857600080fd5b505af11580156126cc573d6000803e3d6000fd5b5050505050612909565b60018101546000906001600160401b038111156126f5576126f56140fa565b60405190808252806020026020018201604052801561271e578160200160208202803683370190505b5060018301549091506000906001600160401b03811115612741576127416140fa565b60405190808252806020026020018201604052801561276a578160200160208202803683370190505b50905060005b6001840154811015612802578684600101828154811061279257612792614860565b90600052602060002001546127a79190614a4e565b8382815181106127b9576127b9614860565b6020026020010181815250508a8282815181106127d8576127d8614860565b6001600160a01b0390921660209283029190910190910152806127fa81614a9a565b915050612770565b5082546040516313849cfd60e21b81526000916201000090046001600160a01b031690634e1273f49061283e9085906002890190600401614df3565b60006040518083038186803b15801561285657600080fd5b505afa15801561286a573d6000803e3d6000fd5b505050506040513d6000823e601f3d908101601f191682016040526128929190810190614e53565b905060005b8151811015612904578381815181106128b2576128b2614860565b60200260200101518282815181106128cc576128cc614860565b602002602001015110156128f25760405162461bcd60e51b815260040161083a90614ce8565b806128fc81614a9a565b915050612897565b505050505b508061291481614a9a565b915050611fce565b6060600061292b836002614a4e565b612936906002614cd0565b6001600160401b0381111561294d5761294d6140fa565b6040519080825280601f01601f191660200182016040528015612977576020820181803683370190505b509050600360fc1b8160008151811061299257612992614860565b60200101906001600160f81b031916908160001a905350600f60fb1b816001815181106129c1576129c1614860565b60200101906001600160f81b031916908160001a90535060006129e5846002614a4e565b6129f0906001614cd0565b90505b6001811115612a68576f181899199a1a9b1b9c1cb0b131b232b360811b85600f1660108110612a2457612a24614860565b1a60f81b828281518110612a3a57612a3a614860565b60200101906001600160f81b031916908160001a90535060049490941c93612a6181614ed8565b90506129f3565b508315612ab75760405162461bcd60e51b815260206004820181905260248201527f537472696e67733a20686578206c656e67746820696e73756666696369656e74604482015260640161083a565b9392505050565b612ac781611a76565b6040516001600160a01b038216907fbc7cd75a20ee27fd9adebab32041f755214dbc6bffa90cc0225b39da2e5c2d3b90600090a250565b60606001600160a01b0383163b612b665760405162461bcd60e51b815260206004820152602660248201527f416464726573733a2064656c65676174652063616c6c20746f206e6f6e2d636f6044820152651b9d1c9858dd60d21b606482015260840161083a565b600080846001600160a01b031684604051612b819190614eef565b600060405180830381855af49150503d8060008114612bbc576040519150601f19603f3d011682016040523d82523d6000602084013e612bc1565b606091505b5091509150612be982826040518060600160405280602781526020016150a260279139613584565b95945050505050565b600054610100900460ff16612c195760405162461bcd60e51b815260040161083a90614981565b612c2382826135bd565b612c2e6000836110e6565b61084d6000805160206150c9833981519152826110e6565b600054610100900460ff16612c6d5760405162461bcd60e51b815260040161083a90614981565b61015f80546001600160a01b0319166001600160a01b038716179055611d2a84846135e4565b600080805b8451811015613377576000858281518110612cb557612cb5614860565b6020026020010151600001516002811115612cd257612cd261425b565b1415612eb057848181518110612cea57612cea614860565b60200260200101516080015151600014612d505760405162461bcd60e51b815260206004820152602160248201527f43726166746572436f72653a20746f6b656e6964732e6c656e67746820213d206044820152600360fc1b606482015260840161083a565b848181518110612d6257612d62614860565b60200260200101516060015151600114612dbe5760405162461bcd60e51b815260206004820181905260248201527f43726166746572436f72653a20616d6f756e74732e6c656e67746820213d2031604482015260640161083a565b610161858281518110612dd357612dd3614860565b60209081029190910181015182546001818101855560009485529290932081516003909402018054919390929091839160ff1990911690836002811115612e1c57612e1c61425b565b021790555060208201518154829061ff001916610100836002811115612e4457612e4461425b565b0217905550604082015181546001600160a01b03909116620100000262010000600160b01b031990911617815560608201518051612e8c91600184019160209091019061404b565b5060808201518051612ea891600284019160209091019061404b565b505050613365565b6001858281518110612ec457612ec4614860565b6020026020010151600001516002811115612ee157612ee161425b565b14156131d55783858281518110612efa57612efa614860565b6020026020010151608001515114612f6d5760405162461bcd60e51b815260206004820152603060248201527f43726166746572436f72653a20746f6b656e6964732e6c656e67746820213d2060448201526f17d8dc98599d18589b19505b5bdd5b9d60821b606482015260840161083a565b848181518110612f7f57612f7f614860565b60200260200101516060015151600014612fdb5760405162461bcd60e51b815260206004820181905260248201527f43726166746572436f72653a20616d6f756e74732e6c656e67746820213d2030604482015260640161083a565b81612fe581614a9a565b92505060006040518060a00160405280600160028111156130085761300861425b565b815260200187848151811061301f5761301f614860565b602002602001015160200151600281111561303c5761303c61425b565b815260200187848151811061305357613053614860565b6020026020010151604001516001600160a01b0316815260200160006001600160401b03811115613086576130866140fa565b6040519080825280602002602001820160405280156130af578160200160208202803683370190505b50815260200160006040519080825280602002602001820160405280156130e0578160200160208202803683370190505b509052610161805460018181018355600092909252825160039091027fafbb1c043347995df017ce3291b765e028ad5f784d2aa00c3f5e073760a4de8b01805493945084939092839160ff1916908360028111156131405761314061425b565b021790555060208201518154829061ff0019166101008360028111156131685761316861425b565b0217905550604082015181546001600160a01b03909116620100000262010000600160b01b0319909116178155606082015180516131b091600184019160209091019061404b565b50608082015180516131cc91600284019160209091019061404b565b50505050613365565b8481815181106131e7576131e7614860565b6020026020010151606001515185828151811061320657613206614860565b60200260200101516080015151146132775760405162461bcd60e51b815260206004820152602e60248201527f43726166746572436f72653a20746f6b656e6964732e6c656e67746820213d2060448201526d0c2dadeeadce8e65cd8cadccee8d60931b606482015260840161083a565b61016185828151811061328c5761328c614860565b60209081029190910181015182546001818101855560009485529290932081516003909402018054919390929091839160ff19909116908360028111156132d5576132d561425b565b021790555060208201518154829061ff0019166101008360028111156132fd576132fd61425b565b0217905550604082015181546001600160a01b03909116620100000262010000600160b01b03199091161781556060820151805161334591600184019160209091019061404b565b506080820151805161336191600284019160209091019061404b565b5050505b8061336f81614a9a565b915050612c98565b509392505050565b60606000826001600160401b0381111561339b5761339b6140fa565b6040519080825280602002602001820160405280156133ce57816020015b60608152602001906001900390816133b95790505b5090506000805b865181101561351f5760018782815181106133f2576133f2614860565b602002602001015160000151600281111561340f5761340f61425b565b141561350d57856001600160401b0381111561342d5761342d6140fa565b604051908082528060200260200182016040528015613456578160200160208202803683370190505b5083838151811061346957613469614860565b602002602001018190525060005b868110156134fe5787828151811061349157613491614860565b60200260200101516080015181815181106134ae576134ae614860565b60200260200101518484815181106134c8576134c8614860565b602002602001015182815181106134e1576134e1614860565b6020908102919091010152806134f681614a9a565b915050613477565b508161350981614a9a565b9250505b8061351781614a9a565b9150506133d5565b509095945050505050565b604080516001600160a01b0385811660248301528416604482015260648082018490528251808303909101815260849091019091526020810180516001600160e01b03166323b872dd60e01b179052610c929085906135f1565b60608315613593575081612ab7565b8251156135a35782518084602001fd5b8160405162461bcd60e51b815260040161083a91906143cc565b600054610100900460ff1661084d5760405162461bcd60e51b815260040161083a90614981565b61084d82826101606136c3565b6000613646826040518060400160405280602081526020017f5361666545524332303a206c6f772d6c6576656c2063616c6c206661696c6564815250856001600160a01b0316613f039092919063ffffffff16565b8051909150156107b957808060200190518101906136649190614cae565b6107b95760405162461bcd60e51b815260206004820152602a60248201527f5361666545524332303a204552433230206f7065726174696f6e20646964206e6044820152691bdd081cdd58d8d9595960b21b606482015260840161083a565b60005b82811015610c925760008484838181106136e2576136e2614860565b90506020028101906136f49190614f0b565b613702906020810190614f21565b905060008160028111156137185761371861425b565b141561393c5784848381811061373057613730614860565b90506020028101906137429190614f0b565b613750906080810190614d3b565b1590506137a95760405162461bcd60e51b815260206004820152602160248201527f506c7567696e73436f72653a20746f6b656e6964732e6c656e67746820213d206044820152600360fc1b606482015260840161083a565b8484838181106137bb576137bb614860565b90506020028101906137cd9190614f0b565b6137db906060810190614d3b565b905060011461382c5760405162461bcd60e51b815260206004820181905260248201527f506c7567696e73436f72653a20616d6f756e74732e6c656e67746820213d2031604482015260640161083a565b600085858481811061384057613840614860565b90506020028101906138529190614f0b565b613863906040810190602001614f21565b60028111156138745761387461425b565b14806138c55750600185858481811061388f5761388f614860565b90506020028101906138a19190614f0b565b6138b2906040810190602001614f21565b60028111156138c3576138c361425b565b145b6139375760405162461bcd60e51b815260206004820152603a60248201527f506c7567696e73436f72653a20455243323020636f6e73756d61626c6554797060448201527f65206e6f7420756e6166666563746564206f72206275726e6564000000000000606482015260840161083a565b613ea6565b60018160028111156139505761395061425b565b1415613ccf5784848381811061396857613968614860565b905060200281019061397a9190614f0b565b613988906080810190614d3b565b1590506139e15760405162461bcd60e51b815260206004820152602160248201527f506c7567696e73436f72653a20746f6b656e4964732e6c656e67746820213d206044820152600360fc1b606482015260840161083a565b60018585848181106139f5576139f5614860565b9050602002810190613a079190614f0b565b613a18906040810190602001614f21565b6002811115613a2957613a2961425b565b1480613a7a57506002858584818110613a4457613a44614860565b9050602002810190613a569190614f0b565b613a67906040810190602001614f21565b6002811115613a7857613a7861425b565b145b613ae55760405162461bcd60e51b815260206004820152603660248201527f506c7567696e73436f72653a2045524337323120636f6e73756d61626c6554796044820152757065206e6f74206275726e6564206f72204e54696d6560501b606482015260840161083a565b6002858584818110613af957613af9614860565b9050602002810190613b0b9190614f0b565b613b1c906040810190602001614f21565b6002811115613b2d57613b2d61425b565b1415613c4e57848483818110613b4557613b45614860565b9050602002810190613b579190614f0b565b613b65906060810190614d3b565b9050600114613be85760405162461bcd60e51b815260206004820152604360248201527f506c7567696e73436f72653a20616d6f756e74732e6c656e67746820213d203160448201527f3b20726571756972656420666f72204e54696d6520436f6e73756d61626c655460648201526279706560e81b608482015260a40161083a565b848483818110613bfa57613bfa614860565b9050602002810190613c0c9190614f0b565b613c1a906060810190614d3b565b6000818110613c2b57613c2b614860565b9050602002013560fb600084815260200190815260200160002081905550613ea6565b848483818110613c6057613c60614860565b9050602002810190613c729190614f0b565b613c80906060810190614d3b565b1590506139375760405162461bcd60e51b815260206004820181905260248201527f506c7567696e73436f72653a20616d6f756e74732e6c656e67746820213d2030604482015260640161083a565b848483818110613ce157613ce1614860565b9050602002810190613cf39190614f0b565b613d01906060810190614d3b565b9050858584818110613d1557613d15614860565b9050602002810190613d279190614f0b565b613d35906080810190614d3b565b905014613d9b5760405162461bcd60e51b815260206004820152602e60248201527f506c7567696e73436f72653a20746f6b656e6964732e6c656e67746820213d2060448201526d0c2dadeeadce8e65cd8cadccee8d60931b606482015260840161083a565b6000858584818110613daf57613daf614860565b9050602002810190613dc19190614f0b565b613dd2906040810190602001614f21565b6002811115613de357613de361425b565b1480613e3457506001858584818110613dfe57613dfe614860565b9050602002810190613e109190614f0b565b613e21906040810190602001614f21565b6002811115613e3257613e3261425b565b145b613ea65760405162461bcd60e51b815260206004820152603c60248201527f506c7567696e73436f72653a204552433131353520636f6e73756d61626c655460448201527f797065206e6f7420756e6166666563746564206f72206275726e656400000000606482015260840161083a565b82858584818110613eb957613eb9614860565b9050602002810190613ecb9190614f0b565b815460018101835560009283526020909220909160030201613eed8282614fc1565b5050508080613efb90614a9a565b9150506136c6565b6060613f128484600085613f1a565b949350505050565b606082471015613f7b5760405162461bcd60e51b815260206004820152602660248201527f416464726573733a20696e73756666696369656e742062616c616e636520666f6044820152651c8818d85b1b60d21b606482015260840161083a565b6001600160a01b0385163b613fd25760405162461bcd60e51b815260206004820152601d60248201527f416464726573733a2063616c6c20746f206e6f6e2d636f6e7472616374000000604482015260640161083a565b600080866001600160a01b03168587604051613fee9190614eef565b60006040518083038185875af1925050503d806000811461402b576040519150601f19603f3d011682016040523d82523d6000602084013e614030565b606091505b5091509150614040828286613584565b979650505050505050565b828054828255906000526020600020908101928215614086579160200282015b8281111561408657825182559160200191906001019061406b565b50614092929150614096565b5090565b5b808211156140925760008155600101614097565b6000602082840312156140bd57600080fd5b81356001600160e01b031981168114612ab757600080fd5b6001600160a01b038116811461091757600080fd5b80356140f5816140d5565b919050565b634e487b7160e01b600052604160045260246000fd5b60405160a081016001600160401b0381118282101715614132576141326140fa565b60405290565b604051601f8201601f191681016001600160401b0381118282101715614160576141606140fa565b604052919050565b600082601f83011261417957600080fd5b81356001600160401b03811115614192576141926140fa565b6141a5601f8201601f1916602001614138565b8181528460208386010111156141ba57600080fd5b816020850160208301376000918101602001919091529392505050565b600080600080608085870312156141ed57600080fd5b84356141f8816140d5565b93506020850135614208816140d5565b92506040850135915060608501356001600160401b0381111561422a57600080fd5b61423687828801614168565b91505092959194509250565b60006020828403121561425457600080fd5b5035919050565b634e487b7160e01b600052602160045260246000fd5b6003811061091757634e487b7160e01b600052602160045260246000fd5b600081518084526020808501945080840160005b838110156142bf578151875295820195908201906001016142a3565b509495945050505050565b6142d386614271565b8581526142df85614271565b84602082015260018060a01b038416604082015260a06060820152600061430960a083018561428f565b828103608084015261431b818561428f565b98975050505050505050565b6000806040838503121561433a57600080fd5b82359150602083013561434c816140d5565b809150509250929050565b60006020828403121561436957600080fd5b8135612ab7816140d5565b60005b8381101561438f578181015183820152602001614377565b83811115610c925750506000910152565b600081518084526143b8816020860160208601614374565b601f01601f19169290920160200192915050565b602081526000612ab760208301846143a0565b80356001600160601b03811681146140f557600080fd5b60008083601f84011261440857600080fd5b5081356001600160401b0381111561441f57600080fd5b6020830191508360208260051b850101111561443a57600080fd5b9250929050565b60008060008060008060008060c0898b03121561445d57600080fd5b8835614468816140d5565b97506020890135614478816140d5565b965061448660408a016143df565b955060608901356001600160401b03808211156144a257600080fd5b6144ae8c838d016143f6565b909750955060808b01359150808211156144c757600080fd5b506144d48b828c016143f6565b90945092505060a08901356144e8816140d5565b809150509295985092959890939650565b6000806040838503121561450c57600080fd5b8235614517816140d5565b915060208301356001600160401b0381111561453257600080fd5b61453e85828601614168565b9150509250929050565b60006020808301818452808551808352604092508286019150828160051b87010184880160005b838110156145fd57603f19898403018552815160a0815161458f81614271565b85528189015161459e81614271565b858a0152818801516001600160a01b0316888601526060808301518187018390526145cb8388018261428f565b92505050608080830151925085820381870152506145e9818361428f565b96890196945050509086019060010161456f565b509098975050505050505050565b60008060006040848603121561462057600080fd5b614629846143df565b925060208401356001600160401b0381111561464457600080fd5b614650868287016143f6565b9497909650939450505050565b60006001600160401b03821115614676576146766140fa565b5060051b60200190565b600082601f83011261469157600080fd5b813560206146a66146a18361465d565b614138565b82815260059290921b840181019181810190868411156146c557600080fd5b8286015b848110156146e057803583529183019183016146c9565b509695505050505050565b600080600080600060a0868803121561470357600080fd5b853561470e816140d5565b9450602086013561471e816140d5565b935060408601356001600160401b038082111561473a57600080fd5b61474689838a01614680565b9450606088013591508082111561475c57600080fd5b61476889838a01614680565b9350608088013591508082111561477e57600080fd5b5061478b88828901614168565b9150509295509295909350565b6000602082840312156147aa57600080fd5b612ab7826143df565b600080600080600060a086880312156147cb57600080fd5b85356147d6816140d5565b945060208601356147e6816140d5565b9350604086013592506060860135915060808601356001600160401b0381111561480f57600080fd5b61478b88828901614168565b7f4f574c50726f746f636f6c3a2f2f437261667465724d696e742f00000000000081526000825161485381601a850160208701614374565b91909101601a0192915050565b634e487b7160e01b600052603260045260246000fd5b6020808252602c908201527f46756e6374696f6e206d7573742062652063616c6c6564207468726f7567682060408201526b19195b1959d85d1958d85b1b60a21b606082015260800190565b6020808252602c908201527f46756e6374696f6e206d7573742062652063616c6c6564207468726f7567682060408201526b6163746976652070726f787960a01b606082015260800190565b600061491c6146a18461465d565b80848252602080830192508560051b85013681111561493a57600080fd5b855b818110156149755780356001600160401b0381111561495b5760008081fd5b61496736828a01614680565b86525093820193820161493c565b50919695505050505050565b6020808252602b908201527f496e697469616c697a61626c653a20636f6e7472616374206973206e6f74206960408201526a6e697469616c697a696e6760a81b606082015260800190565b6000602082840312156149de57600080fd5b5051919050565b634e487b7160e01b600052601160045260246000fd5b60006001600160601b03808316818516808303821115614a1d57614a1d6149e5565b01949350505050565b60006001600160601b0383811690831681811015614a4657614a466149e5565b039392505050565b6000816000190483118215151615614a6857614a686149e5565b500290565b600082821015614a7f57614a7f6149e5565b500390565b634e487b7160e01b600052603160045260246000fd5b6000600019821415614aae57614aae6149e5565b5060010190565b6000815480845260208085019450836000528060002060005b838110156142bf57815487529582019560019182019101614ace565b6001600160a01b0385168152608060208201819052600090614b0e90830186614ab5565b8281036040840152614b20818661428f565b9050828103606084015261404081856143a0565b7f416363657373436f6e74726f6c3a206163636f756e7420000000000000000000815260008351614b6c816017850160208801614374565b7001034b99036b4b9b9b4b733903937b6329607d1b6017918401918201528351614b9d816028840160208801614374565b01602801949350505050565b6003811061091757600080fd5b6000614bc46146a18461465d565b80848252602080830192508560051b850136811115614be257600080fd5b855b818110156149755780356001600160401b0380821115614c045760008081fd5b818901915060a08236031215614c1a5760008081fd5b614c22614110565b8235614c2d81614ba9565b815282860135614c3c81614ba9565b818701526040614c4d8482016140ea565b9082015260608381013583811115614c655760008081fd5b614c7136828701614680565b82840152505060808084013583811115614c8b5760008081fd5b614c9736828701614680565b918301919091525087525050938201938201614be4565b600060208284031215614cc057600080fd5b81518015158114612ab757600080fd5b60008219821115614ce357614ce36149e5565b500190565b60208082526033908201527f506c7567696e73436f72653a2055736572206d697373696e67206d696e696d756040820152726d20746f6b656e2062616c616e63652873292160681b606082015260800190565b6000808335601e19843603018112614d5257600080fd5b8301803591506001600160401b03821115614d6c57600080fd5b6020019150600581901b360382131561443a57600080fd5b600060208284031215614d9657600080fd5b8151612ab7816140d5565b6001600160a01b0386811682528516602082015260a060408201819052600090614dcd90830186614ab5565b8281036060840152614ddf818661428f565b9050828103608084015261431b81856143a0565b604080825283519082018190526000906020906060840190828701845b82811015614e355781516001600160a01b031684529284019290840190600101614e10565b50505083810382850152614e498186614ab5565b9695505050505050565b60006020808385031215614e6657600080fd5b82516001600160401b03811115614e7c57600080fd5b8301601f81018513614e8d57600080fd5b8051614e9b6146a18261465d565b81815260059190911b82018301908381019087831115614eba57600080fd5b928401925b8284101561404057835182529284019290840190614ebf565b600081614ee757614ee76149e5565b506000190190565b60008251614f01818460208701614374565b9190910192915050565b60008235609e19833603018112614f0157600080fd5b600060208284031215614f3357600080fd5b8135612ab781614ba9565b68010000000000000000831115614f5757614f576140fa565b805483825580841015614f8e576000828152602081208581019083015b80821015614f8a57828255600182019150614f74565b5050505b5060008181526020812083915b85811015614fb9578235825560209092019160019182019101614f9b565b505050505050565b8135614fcc81614ba9565b614fd581614271565b815460ff821691508160ff1982161783556020840135614ff481614ba9565b614ffd81614271565b61ff008160081b169050808361ffff198416171784556040850135615021816140d5565b6001600160b01b0319929092169092179190911760109190911b62010000600160b01b03161781556150566060830183614d3b565b615064818360018601614f3e565b50506150736080830183614d3b565b610c92818360028601614f3e56fe360894a13ba1a3210667c828492db98dca3e2076cc3735a920a3ca505d382bbc416464726573733a206c6f772d6c6576656c2064656c65676174652063616c6c206661696c65647a05a596cb0ce7fdea8a1e1ec73be300bdb35097c944ce1897202f7a13122eb2a26469706673582212209c2667eb88f8d6cb36bf2b06b4ceb08a8a06fef37857016b4c648fcf99471d3364736f6c63430008090033",
  "devdoc": {
    "details": "Contract module that enables crafting of different types of assets (ERC20, ERC721, ERC1155) whose crafting outputs are minted to the caller. Crafting configuration is designated by two {Ingredient}[]. One array is the `inputs` and the other is the `outputs`. The contract allows for the `inputs` to be redeemed for the `outputs`, `craftableAmount` times. ``` struct Ingredient {     TokenType token;     ConsumableType consumableType;     address contractAddr;     uint256[] amounts;     uint256[] tokenIds; } ``` Configuration is set in the initializers and cannot be edited once the contract has been launched Other configurations will require their own contract to be deployed However, `craftableAmount` can be dynamically updated through the {deposit} and {withdraw} functions which are only accessible to `DEFAULT_ADMIN_ROLE` Each Ingredient has a `consumableType` field.* This field is for the `inputs` elements and ignored by the `outputs` elements. ERC20 and ERC1155 `inputs` elements can be `unaffected` or `burned`. `unaffected` will check for ownership/balance while `burned` will send the asset(s) to the `burnAddress`. ERC721 inputs can be `NTime` or `burned`. `NTime` allows for a specfic `tokenId` to only be used 'n times', as defined by contract deployer. ERC20 `inputs` and `outputs` elements should have one number in the `amounts` array denoting ERC20 token amount requirement.* `tokenIds` should be empty. NTime consumable type ERC721 inputs should have empty `tokenIds` and `amounts[0]` equal to `n` - the maximum number of times the input can be used.* Burned ERC721 `inputs` elements should have * empty `amounts` and `tokenIds` array. This contract accepts *all* `tokenId`s from an ERC721 contract as inputs. ERC721 `outputs` elements must have empty `amounts` array. `tokenIds` array length should be `craftableAmount`. The `tokenIds` array will contain the `tokenIds` to be transferred out when {craft} is called. Important to note that output transfers will be from the *end* of the array since `.pop()` is used. ERC1155 `inputs` and `outputs` elements should have the length of `amounts` and `tokenIds` array be the same. The indices will be linked where each index denotes how much of each ERC1155 `tokenId` is required. This module is used through composition. It can be deployed to create crafting logic with asset contracts that are already on chain and active; plug-and-play, so to speak.",
    "kind": "dev",
    "methods": {
      "constructor": {
        "custom:oz-upgrades-unsafe-allow": "constructor"
      },
      "craft(uint96,uint256[][])": {
        "details": "Used to craft. Consumes inputs and mints outputs.",
        "params": {
          "_inputERC721Ids": "Array of pre-approved NFTs for crafting usage. Example of `_inputERC721Ids` with `amount = 2` with 3 `Ingredient`s in `inputs` with `TokenType.ERC721` ``` [  [1, 2]  [3, 4]  [5, 6] ] ```",
          "amount": "How many times to craft"
        }
      },
      "deposit(uint96,uint256[][])": {
        "details": "Used to deposit configuration outputs.",
        "params": {
          "_outputsERC721Ids": "2D-array of ERC721 tokens used in crafting Example of `_outputERC721Ids` with `amount = 2` with 3 `Ingredient`s in `outputs` with `TokenType.ERC721` ``` [  [1, 2]  [3, 4]  [5, 6] ] ```",
          "amount": "How many more times the configuration should be craftable"
        }
      },
      "getInputIngredient(uint256)": {
        "details": "Returns all details for a specific ingredient (including amounts/tokenIds)",
        "params": {
          "index": "ingredient index to return details for"
        },
        "returns": {
          "amounts": "amount of each token",
          "consumableType": "consumable type",
          "contractAddr": "token contract address",
          "token": "token type",
          "tokenIds": "token ids"
        }
      },
      "getInputs()": {
        "details": "Returns all inputs (without `amounts` or `tokenIds`)"
      },
      "getOutputIngredient(uint256)": {
        "details": "Returns all details for a specific ingredient (including amounts/tokenIds)",
        "params": {
          "index": "ingredient index to return details for"
        },
        "returns": {
          "amounts": "amount of each token",
          "consumableType": "consumable type",
          "contractAddr": "token contract address",
          "token": "token type",
          "tokenIds": "token ids"
        }
      },
      "getOutputs()": {
        "details": "Returns all outputs (without `amounts` or `tokenIds`)"
      },
      "getRoleAdmin(bytes32)": {
        "details": "Returns the admin role that controls `role`. See {grantRole} and {revokeRole}. To change a role's admin, use {_setRoleAdmin}."
      },
      "grantRole(bytes32,address)": {
        "details": "Grants `role` to `account`. If `account` had not been already granted `role`, emits a {RoleGranted} event. Requirements: - the caller must have ``role``'s admin role. May emit a {RoleGranted} event."
      },
      "grantRouter(address)": {
        "details": "Grants ROUTER_ROLE to {a}",
        "params": {
          "to": "address to"
        }
      },
      "hasRole(bytes32,address)": {
        "details": "Returns `true` if `account` has been granted `role`."
      },
      "initialize(address,address,uint96,(uint8,uint8,address,uint256[],uint256[])[],(uint8,uint8,address,uint256[],uint256[])[],address)": {
        "details": "Initializes contract (replaces constructor in proxy pattern)",
        "params": {
          "_admin": "owner, can control outputs on contract",
          "_burnAddress": "Burn address for burn inputs",
          "_craftableAmount": "limit on the number of times this configuration can be crafted",
          "_forwarder": "trusted forwarder address for openGSN",
          "_inputs": "inputs for configuration",
          "_outputs": "outputs for configuration"
        }
      },
      "isTrustedForwarder(address)": {
        "details": "Return trusted forwarder status."
      },
      "onERC721Received(address,address,uint256,bytes)": {
        "details": "See {IERC721Receiver-onERC721Received}. Always returns `IERC721Receiver.onERC721Received.selector`."
      },
      "proxiableUUID()": {
        "details": "Implementation of the ERC1822 {proxiableUUID} function. This returns the storage slot used by the implementation. It is used to validate that the this implementation remains valid after an upgrade. IMPORTANT: A proxy pointing at a proxiable contract should not be considered proxiable itself, because this risks bricking a proxy that upgrades to it, by delegating to itself until out of gas. Thus it is critical that this function revert if invoked through a proxy. This is guaranteed by the `notDelegated` modifier."
      },
      "proxyInitialize(address,address,uint96,(uint8,uint8,address,uint256[],uint256[])[],(uint8,uint8,address,uint256[],uint256[])[],address)": {
        "details": "Initializes contract through beacon proxy (replaces constructor in proxy pattern)"
      },
      "renounceRole(bytes32,address)": {
        "details": "Revokes `role` from the calling account. Roles are often managed via {grantRole} and {revokeRole}: this function's purpose is to provide a mechanism for accounts to lose their privileges if they are compromised (such as when a trusted device is misplaced). If the calling account had been revoked `role`, emits a {RoleRevoked} event. Requirements: - the caller must be `account`. May emit a {RoleRevoked} event."
      },
      "revokeRole(bytes32,address)": {
        "details": "Revokes `role` from `account`. If `account` had been granted `role`, emits a {RoleRevoked} event. Requirements: - the caller must have ``role``'s admin role. May emit a {RoleRevoked} event."
      },
      "supportsInterface(bytes4)": {
        "details": "ERC165 Support",
        "params": {
          "interfaceId": "hash of the interface testing for"
        },
        "returns": {
          "_0": "bool whether interface is supported"
        }
      },
      "upgradeTo(address)": {
        "details": "Upgrade the implementation of the proxy to `newImplementation`. Calls {_authorizeUpgrade}. Emits an {Upgraded} event."
      },
      "upgradeToAndCall(address,bytes)": {
        "details": "Upgrade the implementation of the proxy to `newImplementation`, and subsequently execute the function call encoded in `data`. Calls {_authorizeUpgrade}. Emits an {Upgraded} event."
      },
      "withdraw(uint96)": {
        "details": "Used to withdraw configuration outputs out of contract by decreasing `craftableAmount`.",
        "params": {
          "amount": "How many sets of outputs should be withdrawn"
        }
      }
    },
    "version": 1
  },
  "userdoc": {
    "kind": "user",
    "methods": {
      "craft(uint96,uint256[][])": {
        "notice": "Craft `amount`"
      },
      "deposit(uint96,uint256[][])": {
        "notice": "Must be `DEFAULT_ADMIN_ROLE`."
      },
      "grantRouter(address)": {
        "notice": "Must have owner role"
      },
      "isTrustedForwarder(address)": {
        "notice": "**REQUIRED FOR GSN**"
      },
      "withdraw(uint96)": {
        "notice": "Must be `DEFAULT_ADMIN_ROLE`"
      }
    },
    "version": 1
  },
  "storageLayout": {
    "storage": [
      {
        "astId": 3091,
        "contract": "contracts/plugins/Crafter/CrafterMint.sol:CrafterMint",
        "label": "_initialized",
        "offset": 0,
        "slot": "0",
        "type": "t_uint8"
      },
      {
        "astId": 3094,
        "contract": "contracts/plugins/Crafter/CrafterMint.sol:CrafterMint",
        "label": "_initializing",
        "offset": 1,
        "slot": "0",
        "type": "t_bool"
      },
      {
        "astId": 3073,
        "contract": "contracts/plugins/Crafter/CrafterMint.sol:CrafterMint",
        "label": "__gap",
        "offset": 0,
        "slot": "1",
        "type": "t_array(t_uint256)50_storage"
      },
      {
        "astId": 3370,
        "contract": "contracts/plugins/Crafter/CrafterMint.sol:CrafterMint",
        "label": "__gap",
        "offset": 0,
        "slot": "51",
        "type": "t_array(t_uint256)50_storage"
      },
      {
        "astId": 7537,
        "contract": "contracts/plugins/Crafter/CrafterMint.sol:CrafterMint",
        "label": "__gap",
        "offset": 0,
        "slot": "101",
        "type": "t_array(t_uint256)50_storage"
      },
      {
        "astId": 7941,
        "contract": "contracts/plugins/Crafter/CrafterMint.sol:CrafterMint",
        "label": "__gap",
        "offset": 0,
        "slot": "151",
        "type": "t_array(t_uint256)50_storage"
      },
      {
        "astId": 2110,
        "contract": "contracts/plugins/Crafter/CrafterMint.sol:CrafterMint",
        "label": "_roles",
        "offset": 0,
        "slot": "201",
        "type": "t_mapping(t_bytes32,t_struct(RoleData)2105_storage)"
      },
      {
        "astId": 2409,
        "contract": "contracts/plugins/Crafter/CrafterMint.sol:CrafterMint",
        "label": "__gap",
        "offset": 0,
        "slot": "202",
        "type": "t_array(t_uint256)49_storage"
      },
      {
        "astId": 21452,
        "contract": "contracts/plugins/Crafter/CrafterMint.sol:CrafterMint",
        "label": "nUse",
        "offset": 0,
        "slot": "251",
        "type": "t_mapping(t_uint256,t_uint256)"
      },
      {
        "astId": 21458,
        "contract": "contracts/plugins/Crafter/CrafterMint.sol:CrafterMint",
        "label": "usedERC721Inputs",
        "offset": 0,
        "slot": "252",
        "type": "t_mapping(t_address,t_mapping(t_uint256,t_uint256))"
      },
      {
        "astId": 22036,
        "contract": "contracts/plugins/Crafter/CrafterMint.sol:CrafterMint",
        "label": "__gap",
        "offset": 0,
        "slot": "253",
        "type": "t_array(t_uint256)48_storage"
      },
      {
        "astId": 7252,
        "contract": "contracts/plugins/Crafter/CrafterMint.sol:CrafterMint",
        "label": "__gap",
        "offset": 0,
        "slot": "301",
        "type": "t_array(t_uint256)50_storage"
      },
      {
        "astId": 17622,
        "contract": "contracts/plugins/Crafter/CrafterMint.sol:CrafterMint",
        "label": "burnAddress",
        "offset": 0,
        "slot": "351",
        "type": "t_address"
      },
      {
        "astId": 17624,
        "contract": "contracts/plugins/Crafter/CrafterMint.sol:CrafterMint",
        "label": "craftableAmount",
        "offset": 20,
        "slot": "351",
        "type": "t_uint96"
      },
      {
        "astId": 17628,
        "contract": "contracts/plugins/Crafter/CrafterMint.sol:CrafterMint",
        "label": "inputs",
        "offset": 0,
        "slot": "352",
        "type": "t_array(t_struct(Ingredient)21448_storage)dyn_storage"
      },
      {
        "astId": 17632,
        "contract": "contracts/plugins/Crafter/CrafterMint.sol:CrafterMint",
        "label": "outputs",
        "offset": 0,
        "slot": "353",
        "type": "t_array(t_struct(Ingredient)21448_storage)dyn_storage"
      },
      {
        "astId": 18143,
        "contract": "contracts/plugins/Crafter/CrafterMint.sol:CrafterMint",
        "label": "__gap",
        "offset": 0,
        "slot": "354",
        "type": "t_array(t_uint256)46_storage"
      },
      {
        "astId": 5007,
        "contract": "contracts/plugins/Crafter/CrafterMint.sol:CrafterMint",
        "label": "__gap",
        "offset": 0,
        "slot": "400",
        "type": "t_array(t_uint256)50_storage"
      },
      {
        "astId": 4953,
        "contract": "contracts/plugins/Crafter/CrafterMint.sol:CrafterMint",
        "label": "__gap",
        "offset": 0,
        "slot": "450",
        "type": "t_array(t_uint256)50_storage"
      }
    ],
    "types": {
      "t_address": {
        "encoding": "inplace",
        "label": "address",
        "numberOfBytes": "20"
      },
      "t_array(t_struct(Ingredient)21448_storage)dyn_storage": {
        "base": "t_struct(Ingredient)21448_storage",
        "encoding": "dynamic_array",
        "label": "struct PluginsCore.Ingredient[]",
        "numberOfBytes": "32"
      },
      "t_array(t_uint256)46_storage": {
        "base": "t_uint256",
        "encoding": "inplace",
        "label": "uint256[46]",
        "numberOfBytes": "1472"
      },
      "t_array(t_uint256)48_storage": {
        "base": "t_uint256",
        "encoding": "inplace",
        "label": "uint256[48]",
        "numberOfBytes": "1536"
      },
      "t_array(t_uint256)49_storage": {
        "base": "t_uint256",
        "encoding": "inplace",
        "label": "uint256[49]",
        "numberOfBytes": "1568"
      },
      "t_array(t_uint256)50_storage": {
        "base": "t_uint256",
        "encoding": "inplace",
        "label": "uint256[50]",
        "numberOfBytes": "1600"
      },
      "t_array(t_uint256)dyn_storage": {
        "base": "t_uint256",
        "encoding": "dynamic_array",
        "label": "uint256[]",
        "numberOfBytes": "32"
      },
      "t_bool": {
        "encoding": "inplace",
        "label": "bool",
        "numberOfBytes": "1"
      },
      "t_bytes32": {
        "encoding": "inplace",
        "label": "bytes32",
        "numberOfBytes": "32"
      },
      "t_enum(ConsumableType)21429": {
        "encoding": "inplace",
        "label": "enum PluginsCore.ConsumableType",
        "numberOfBytes": "1"
      },
      "t_enum(TokenType)21433": {
        "encoding": "inplace",
        "label": "enum PluginsCore.TokenType",
        "numberOfBytes": "1"
      },
      "t_mapping(t_address,t_bool)": {
        "encoding": "mapping",
        "key": "t_address",
        "label": "mapping(address => bool)",
        "numberOfBytes": "32",
        "value": "t_bool"
      },
      "t_mapping(t_address,t_mapping(t_uint256,t_uint256))": {
        "encoding": "mapping",
        "key": "t_address",
        "label": "mapping(address => mapping(uint256 => uint256))",
        "numberOfBytes": "32",
        "value": "t_mapping(t_uint256,t_uint256)"
      },
      "t_mapping(t_bytes32,t_struct(RoleData)2105_storage)": {
        "encoding": "mapping",
        "key": "t_bytes32",
        "label": "mapping(bytes32 => struct AccessControlUpgradeable.RoleData)",
        "numberOfBytes": "32",
        "value": "t_struct(RoleData)2105_storage"
      },
      "t_mapping(t_uint256,t_uint256)": {
        "encoding": "mapping",
        "key": "t_uint256",
        "label": "mapping(uint256 => uint256)",
        "numberOfBytes": "32",
        "value": "t_uint256"
      },
      "t_struct(Ingredient)21448_storage": {
        "encoding": "inplace",
        "label": "struct PluginsCore.Ingredient",
        "members": [
          {
            "astId": 21436,
            "contract": "contracts/plugins/Crafter/CrafterMint.sol:CrafterMint",
            "label": "token",
            "offset": 0,
            "slot": "0",
            "type": "t_enum(TokenType)21433"
          },
          {
            "astId": 21439,
            "contract": "contracts/plugins/Crafter/CrafterMint.sol:CrafterMint",
            "label": "consumableType",
            "offset": 1,
            "slot": "0",
            "type": "t_enum(ConsumableType)21429"
          },
          {
            "astId": 21441,
            "contract": "contracts/plugins/Crafter/CrafterMint.sol:CrafterMint",
            "label": "contractAddr",
            "offset": 2,
            "slot": "0",
            "type": "t_address"
          },
          {
            "astId": 21444,
            "contract": "contracts/plugins/Crafter/CrafterMint.sol:CrafterMint",
            "label": "amounts",
            "offset": 0,
            "slot": "1",
            "type": "t_array(t_uint256)dyn_storage"
          },
          {
            "astId": 21447,
            "contract": "contracts/plugins/Crafter/CrafterMint.sol:CrafterMint",
            "label": "tokenIds",
            "offset": 0,
            "slot": "2",
            "type": "t_array(t_uint256)dyn_storage"
          }
        ],
        "numberOfBytes": "96"
      },
      "t_struct(RoleData)2105_storage": {
        "encoding": "inplace",
        "label": "struct AccessControlUpgradeable.RoleData",
        "members": [
          {
            "astId": 2102,
            "contract": "contracts/plugins/Crafter/CrafterMint.sol:CrafterMint",
            "label": "members",
            "offset": 0,
            "slot": "0",
            "type": "t_mapping(t_address,t_bool)"
          },
          {
            "astId": 2104,
            "contract": "contracts/plugins/Crafter/CrafterMint.sol:CrafterMint",
            "label": "adminRole",
            "offset": 0,
            "slot": "1",
            "type": "t_bytes32"
          }
        ],
        "numberOfBytes": "64"
      },
      "t_uint256": {
        "encoding": "inplace",
        "label": "uint256",
        "numberOfBytes": "32"
      },
      "t_uint8": {
        "encoding": "inplace",
        "label": "uint8",
        "numberOfBytes": "1"
      },
      "t_uint96": {
        "encoding": "inplace",
        "label": "uint96",
        "numberOfBytes": "12"
      }
    }
  }
}