{
  "address": "0xD1E81F611EFc578B64c4aDdfD756291AA0d3bf58",
  "abi": [
    {
      "inputs": [],
      "stateMutability": "nonpayable",
      "type": "constructor"
    },
    {
      "anonymous": false,
      "inputs": [
        {
          "indexed": false,
          "internalType": "address",
          "name": "previousAdmin",
          "type": "address"
        },
        {
          "indexed": false,
          "internalType": "address",
          "name": "newAdmin",
          "type": "address"
        }
      ],
      "name": "AdminChanged",
      "type": "event"
    },
    {
      "anonymous": false,
      "inputs": [
        {
          "indexed": true,
          "internalType": "address",
          "name": "beacon",
          "type": "address"
        }
      ],
      "name": "BeaconUpgraded",
      "type": "event"
    },
    {
      "anonymous": false,
      "inputs": [
        {
          "indexed": true,
          "internalType": "address",
          "name": "sender",
          "type": "address"
        },
        {
          "indexed": true,
          "internalType": "uint256",
          "name": "amount",
          "type": "uint256"
        }
      ],
      "name": "Bid",
      "type": "event"
    },
    {
      "anonymous": false,
      "inputs": [
        {
          "indexed": true,
          "internalType": "address",
          "name": "seller",
          "type": "address"
        },
        {
          "indexed": true,
          "internalType": "address",
          "name": "contractAddr",
          "type": "address"
        },
        {
          "indexed": false,
          "internalType": "uint256",
          "name": "tokenId",
          "type": "uint256"
        }
      ],
      "name": "Claim",
      "type": "event"
    },
    {
      "anonymous": false,
      "inputs": [
        {
          "indexed": false,
          "internalType": "uint8",
          "name": "version",
          "type": "uint8"
        }
      ],
      "name": "Initialized",
      "type": "event"
    },
    {
      "anonymous": false,
      "inputs": [
        {
          "indexed": true,
          "internalType": "bytes32",
          "name": "role",
          "type": "bytes32"
        },
        {
          "indexed": true,
          "internalType": "bytes32",
          "name": "previousAdminRole",
          "type": "bytes32"
        },
        {
          "indexed": true,
          "internalType": "bytes32",
          "name": "newAdminRole",
          "type": "bytes32"
        }
      ],
      "name": "RoleAdminChanged",
      "type": "event"
    },
    {
      "anonymous": false,
      "inputs": [
        {
          "indexed": true,
          "internalType": "bytes32",
          "name": "role",
          "type": "bytes32"
        },
        {
          "indexed": true,
          "internalType": "address",
          "name": "account",
          "type": "address"
        },
        {
          "indexed": true,
          "internalType": "address",
          "name": "sender",
          "type": "address"
        }
      ],
      "name": "RoleGranted",
      "type": "event"
    },
    {
      "anonymous": false,
      "inputs": [
        {
          "indexed": true,
          "internalType": "bytes32",
          "name": "role",
          "type": "bytes32"
        },
        {
          "indexed": true,
          "internalType": "address",
          "name": "account",
          "type": "address"
        },
        {
          "indexed": true,
          "internalType": "address",
          "name": "sender",
          "type": "address"
        }
      ],
      "name": "RoleRevoked",
      "type": "event"
    },
    {
      "anonymous": false,
      "inputs": [
        {
          "indexed": false,
          "internalType": "uint256",
          "name": "startTime",
          "type": "uint256"
        }
      ],
      "name": "Start",
      "type": "event"
    },
    {
      "anonymous": false,
      "inputs": [
        {
          "indexed": true,
          "internalType": "address",
          "name": "implementation",
          "type": "address"
        }
      ],
      "name": "Upgraded",
      "type": "event"
    },
    {
      "inputs": [],
      "name": "BancorFormula",
      "outputs": [],
      "stateMutability": "nonpayable",
      "type": "function"
    },
    {
      "inputs": [],
      "name": "DEFAULT_ADMIN_ROLE",
      "outputs": [
        {
          "internalType": "bytes32",
          "name": "",
          "type": "bytes32"
        }
      ],
      "stateMutability": "view",
      "type": "function"
    },
    {
      "inputs": [],
      "name": "acceptableToken",
      "outputs": [
        {
          "internalType": "address",
          "name": "",
          "type": "address"
        }
      ],
      "stateMutability": "view",
      "type": "function"
    },
    {
      "inputs": [],
      "name": "asset",
      "outputs": [
        {
          "internalType": "enum AuctionLib.TokenType",
          "name": "token",
          "type": "uint8"
        },
        {
          "internalType": "address",
          "name": "contractAddr",
          "type": "address"
        },
        {
          "internalType": "uint256",
          "name": "tokenId",
          "type": "uint256"
        }
      ],
      "stateMutability": "view",
      "type": "function"
    },
    {
      "inputs": [],
      "name": "auctionDuration",
      "outputs": [
        {
          "internalType": "uint256",
          "name": "",
          "type": "uint256"
        }
      ],
      "stateMutability": "view",
      "type": "function"
    },
    {
      "inputs": [],
      "name": "bid",
      "outputs": [],
      "stateMutability": "nonpayable",
      "type": "function"
    },
    {
      "inputs": [],
      "name": "claim",
      "outputs": [],
      "stateMutability": "nonpayable",
      "type": "function"
    },
    {
      "inputs": [],
      "name": "endPrice",
      "outputs": [
        {
          "internalType": "uint256",
          "name": "",
          "type": "uint256"
        }
      ],
      "stateMutability": "view",
      "type": "function"
    },
    {
      "inputs": [],
      "name": "getCurrentPrice",
      "outputs": [
        {
          "internalType": "uint256",
          "name": "",
          "type": "uint256"
        }
      ],
      "stateMutability": "view",
      "type": "function"
    },
    {
      "inputs": [],
      "name": "getImplementation",
      "outputs": [
        {
          "internalType": "address",
          "name": "",
          "type": "address"
        }
      ],
      "stateMutability": "view",
      "type": "function"
    },
    {
      "inputs": [
        {
          "internalType": "bytes32",
          "name": "role",
          "type": "bytes32"
        }
      ],
      "name": "getRoleAdmin",
      "outputs": [
        {
          "internalType": "bytes32",
          "name": "",
          "type": "bytes32"
        }
      ],
      "stateMutability": "view",
      "type": "function"
    },
    {
      "inputs": [
        {
          "internalType": "bytes32",
          "name": "role",
          "type": "bytes32"
        },
        {
          "internalType": "address",
          "name": "account",
          "type": "address"
        }
      ],
      "name": "grantRole",
      "outputs": [],
      "stateMutability": "nonpayable",
      "type": "function"
    },
    {
      "inputs": [
        {
          "internalType": "address",
          "name": "to",
          "type": "address"
        }
      ],
      "name": "grantRouter",
      "outputs": [],
      "stateMutability": "nonpayable",
      "type": "function"
    },
    {
      "inputs": [
        {
          "internalType": "bytes32",
          "name": "role",
          "type": "bytes32"
        },
        {
          "internalType": "address",
          "name": "account",
          "type": "address"
        }
      ],
      "name": "hasRole",
      "outputs": [
        {
          "internalType": "bool",
          "name": "",
          "type": "bool"
        }
      ],
      "stateMutability": "view",
      "type": "function"
    },
    {
      "inputs": [
        {
          "internalType": "address payable",
          "name": "_seller",
          "type": "address"
        },
        {
          "components": [
            {
              "internalType": "enum AuctionLib.TokenType",
              "name": "token",
              "type": "uint8"
            },
            {
              "internalType": "address",
              "name": "contractAddr",
              "type": "address"
            },
            {
              "internalType": "uint256",
              "name": "tokenId",
              "type": "uint256"
            }
          ],
          "internalType": "struct AuctionLib.Asset",
          "name": "_asset",
          "type": "tuple"
        },
        {
          "internalType": "address",
          "name": "ERC20contractAddress",
          "type": "address"
        },
        {
          "internalType": "uint256",
          "name": "_startPrice",
          "type": "uint256"
        },
        {
          "internalType": "uint256",
          "name": "_endPrice",
          "type": "uint256"
        },
        {
          "internalType": "uint256",
          "name": "_auctionDuration",
          "type": "uint256"
        },
        {
          "internalType": "bool",
          "name": "_isNonLinear",
          "type": "bool"
        },
        {
          "internalType": "uint256",
          "name": "_saleFee",
          "type": "uint256"
        },
        {
          "internalType": "address payable",
          "name": "_saleFeeAddress",
          "type": "address"
        },
        {
          "internalType": "address",
          "name": "_forwarder",
          "type": "address"
        }
      ],
      "name": "initialize",
      "outputs": [],
      "stateMutability": "nonpayable",
      "type": "function"
    },
    {
      "inputs": [],
      "name": "isBought",
      "outputs": [
        {
          "internalType": "bool",
          "name": "",
          "type": "bool"
        }
      ],
      "stateMutability": "view",
      "type": "function"
    },
    {
      "inputs": [],
      "name": "isNonLinear",
      "outputs": [
        {
          "internalType": "bool",
          "name": "",
          "type": "bool"
        }
      ],
      "stateMutability": "view",
      "type": "function"
    },
    {
      "inputs": [
        {
          "internalType": "address",
          "name": "forwarder",
          "type": "address"
        }
      ],
      "name": "isTrustedForwarder",
      "outputs": [
        {
          "internalType": "bool",
          "name": "",
          "type": "bool"
        }
      ],
      "stateMutability": "view",
      "type": "function"
    },
    {
      "inputs": [
        {
          "internalType": "address",
          "name": "",
          "type": "address"
        },
        {
          "internalType": "address",
          "name": "",
          "type": "address"
        },
        {
          "internalType": "uint256[]",
          "name": "",
          "type": "uint256[]"
        },
        {
          "internalType": "uint256[]",
          "name": "",
          "type": "uint256[]"
        },
        {
          "internalType": "bytes",
          "name": "",
          "type": "bytes"
        }
      ],
      "name": "onERC1155BatchReceived",
      "outputs": [
        {
          "internalType": "bytes4",
          "name": "",
          "type": "bytes4"
        }
      ],
      "stateMutability": "nonpayable",
      "type": "function"
    },
    {
      "inputs": [
        {
          "internalType": "address",
          "name": "",
          "type": "address"
        },
        {
          "internalType": "address",
          "name": "",
          "type": "address"
        },
        {
          "internalType": "uint256",
          "name": "",
          "type": "uint256"
        },
        {
          "internalType": "uint256",
          "name": "",
          "type": "uint256"
        },
        {
          "internalType": "bytes",
          "name": "",
          "type": "bytes"
        }
      ],
      "name": "onERC1155Received",
      "outputs": [
        {
          "internalType": "bytes4",
          "name": "",
          "type": "bytes4"
        }
      ],
      "stateMutability": "nonpayable",
      "type": "function"
    },
    {
      "inputs": [
        {
          "internalType": "address",
          "name": "",
          "type": "address"
        },
        {
          "internalType": "address",
          "name": "",
          "type": "address"
        },
        {
          "internalType": "uint256",
          "name": "",
          "type": "uint256"
        },
        {
          "internalType": "bytes",
          "name": "",
          "type": "bytes"
        }
      ],
      "name": "onERC721Received",
      "outputs": [
        {
          "internalType": "bytes4",
          "name": "",
          "type": "bytes4"
        }
      ],
      "stateMutability": "nonpayable",
      "type": "function"
    },
    {
      "inputs": [
        {
          "internalType": "uint256",
          "name": "_baseN",
          "type": "uint256"
        },
        {
          "internalType": "uint256",
          "name": "_baseD",
          "type": "uint256"
        },
        {
          "internalType": "uint32",
          "name": "_expN",
          "type": "uint32"
        },
        {
          "internalType": "uint32",
          "name": "_expD",
          "type": "uint32"
        }
      ],
      "name": "power",
      "outputs": [
        {
          "internalType": "uint256",
          "name": "",
          "type": "uint256"
        },
        {
          "internalType": "uint8",
          "name": "",
          "type": "uint8"
        }
      ],
      "stateMutability": "view",
      "type": "function"
    },
    {
      "inputs": [],
      "name": "proxiableUUID",
      "outputs": [
        {
          "internalType": "bytes32",
          "name": "",
          "type": "bytes32"
        }
      ],
      "stateMutability": "view",
      "type": "function"
    },
    {
      "inputs": [
        {
          "internalType": "address payable",
          "name": "_seller",
          "type": "address"
        },
        {
          "components": [
            {
              "internalType": "enum AuctionLib.TokenType",
              "name": "token",
              "type": "uint8"
            },
            {
              "internalType": "address",
              "name": "contractAddr",
              "type": "address"
            },
            {
              "internalType": "uint256",
              "name": "tokenId",
              "type": "uint256"
            }
          ],
          "internalType": "struct AuctionLib.Asset",
          "name": "_asset",
          "type": "tuple"
        },
        {
          "internalType": "address",
          "name": "ERC20contractAddress",
          "type": "address"
        },
        {
          "internalType": "uint256",
          "name": "_startPrice",
          "type": "uint256"
        },
        {
          "internalType": "uint256",
          "name": "_endPrice",
          "type": "uint256"
        },
        {
          "internalType": "uint256",
          "name": "_auctionDuration",
          "type": "uint256"
        },
        {
          "internalType": "bool",
          "name": "_isNonLinear",
          "type": "bool"
        },
        {
          "internalType": "uint256",
          "name": "_saleFee",
          "type": "uint256"
        },
        {
          "internalType": "address payable",
          "name": "_saleFeeAddress",
          "type": "address"
        },
        {
          "internalType": "address",
          "name": "_forwarder",
          "type": "address"
        }
      ],
      "name": "proxyInitialize",
      "outputs": [],
      "stateMutability": "nonpayable",
      "type": "function"
    },
    {
      "inputs": [
        {
          "internalType": "bytes32",
          "name": "role",
          "type": "bytes32"
        },
        {
          "internalType": "address",
          "name": "account",
          "type": "address"
        }
      ],
      "name": "renounceRole",
      "outputs": [],
      "stateMutability": "nonpayable",
      "type": "function"
    },
    {
      "inputs": [
        {
          "internalType": "bytes32",
          "name": "role",
          "type": "bytes32"
        },
        {
          "internalType": "address",
          "name": "account",
          "type": "address"
        }
      ],
      "name": "revokeRole",
      "outputs": [],
      "stateMutability": "nonpayable",
      "type": "function"
    },
    {
      "inputs": [],
      "name": "saleFee",
      "outputs": [
        {
          "internalType": "uint256",
          "name": "",
          "type": "uint256"
        }
      ],
      "stateMutability": "view",
      "type": "function"
    },
    {
      "inputs": [],
      "name": "saleFeeAddress",
      "outputs": [
        {
          "internalType": "address payable",
          "name": "",
          "type": "address"
        }
      ],
      "stateMutability": "view",
      "type": "function"
    },
    {
      "inputs": [],
      "name": "seller",
      "outputs": [
        {
          "internalType": "address payable",
          "name": "",
          "type": "address"
        }
      ],
      "stateMutability": "view",
      "type": "function"
    },
    {
      "inputs": [],
      "name": "startPrice",
      "outputs": [
        {
          "internalType": "uint256",
          "name": "",
          "type": "uint256"
        }
      ],
      "stateMutability": "view",
      "type": "function"
    },
    {
      "inputs": [],
      "name": "startTime",
      "outputs": [
        {
          "internalType": "uint256",
          "name": "",
          "type": "uint256"
        }
      ],
      "stateMutability": "view",
      "type": "function"
    },
    {
      "inputs": [
        {
          "internalType": "bytes4",
          "name": "interfaceId",
          "type": "bytes4"
        }
      ],
      "name": "supportsInterface",
      "outputs": [
        {
          "internalType": "bool",
          "name": "",
          "type": "bool"
        }
      ],
      "stateMutability": "view",
      "type": "function"
    },
    {
      "inputs": [
        {
          "internalType": "address",
          "name": "newImplementation",
          "type": "address"
        }
      ],
      "name": "upgradeTo",
      "outputs": [],
      "stateMutability": "nonpayable",
      "type": "function"
    },
    {
      "inputs": [
        {
          "internalType": "address",
          "name": "newImplementation",
          "type": "address"
        },
        {
          "internalType": "bytes",
          "name": "data",
          "type": "bytes"
        }
      ],
      "name": "upgradeToAndCall",
      "outputs": [],
      "stateMutability": "payable",
      "type": "function"
    },
    {
      "inputs": [],
      "name": "version",
      "outputs": [
        {
          "internalType": "string",
          "name": "",
          "type": "string"
        }
      ],
      "stateMutability": "view",
      "type": "function"
    },
    {
      "inputs": [],
      "name": "versionRecipient",
      "outputs": [
        {
          "internalType": "string",
          "name": "",
          "type": "string"
        }
      ],
      "stateMutability": "pure",
      "type": "function"
    }
  ],
  "transactionHash": "0x224e90d2235ccaaf76e17e902da9f55cb6eeba824122bd0d94bf2373a19274e0",
  "args": [],
  "numDeployments": 1,
  "solcInputHash": "28b4d2e2155903f56ed1fc988848ec0f",
  "bytecode": "0x60a0604052306080523480156200001557600080fd5b506200002062000026565b620000e8565b600054610100900460ff1615620000935760405162461bcd60e51b815260206004820152602760248201527f496e697469616c697a61626c653a20636f6e747261637420697320696e697469604482015266616c697a696e6760c81b606482015260840160405180910390fd5b60005460ff9081161015620000e6576000805460ff191660ff9081179091556040519081527f7f26b83ff96e1f2b6a682f133852f6798a09c465da95921460cefb38474024989060200160405180910390a15b565b608051614a406200012060003960008181611498015281816114d8015281816118a7015281816118e7015261195f0152614a406000f3fe60806040526004361061020e5760003560e01c80634f1ef28611610118578063a217fddf116100a0578063d547741f1161006f578063d547741f14610e85578063de99f2cb14610ea5578063eb91d37e14610ec6578063f1a9af8914610edb578063f23a6e6114610ef257600080fd5b8063a217fddf14610e18578063aaf10f4214610e2d578063b868723e14610e42578063bc197c8114610e5957600080fd5b806378e97925116100e757806378e9792514610d855780637cf8f92514610d9c57806387bcaeb314610db757806391d1485414610dd857806398c76d2514610df857600080fd5b80634f1ef28614610d0d57806352d1902d14610d2057806354fd4d5014610d35578063572b6c0514610d6557600080fd5b80632f2ff15d1161019b578063373404621161016a578063373404621461041f57806338d52e0f1461043f578063433986851461047f578063486ff0cd14610cc15780634e71d92d14610cf857600080fd5b80632f2ff15d1461038857806332833d51146103a857806336568abe146103df5780633659cfe6146103ff57600080fd5b8063150b7a02116101e2578063150b7a02146102c6578063178021e31461030a5780631998aeef14610321578063248a9ca3146103385780632ebcd11f1461036857600080fd5b8062e2ca371461021357806301ffc9a71461024857806308551a53146102685780630cbf54c8146102a1575b600080fd5b34801561021f57600080fd5b5061021b5461023390610100900460ff1681565b60405190151581526020015b60405180910390f35b34801561025457600080fd5b50610233610263366004613dcc565b610f1e565b34801561027457600080fd5b5061021454610289906001600160a01b031681565b6040516001600160a01b03909116815260200161023f565b3480156102ad57600080fd5b506102b86102165481565b60405190815260200161023f565b3480156102d257600080fd5b506102f16102e1366004613ec2565b630a85bd0160e11b949350505050565b6040516001600160e01b0319909116815260200161023f565b34801561031657600080fd5b506102b861021a5481565b34801561032d57600080fd5b50610336610f8e565b005b34801561034457600080fd5b506102b8610353366004613f2e565b600090815260c9602052604090206001015490565b34801561037457600080fd5b50610336610383366004613f55565b6112a0565b34801561039457600080fd5b506103366103a336600461400d565b6112e5565b3480156103b457600080fd5b506103c86103c3366004614056565b61130f565b6040805192835260ff90911660208301520161023f565b3480156103eb57600080fd5b506103366103fa36600461400d565b6113ff565b34801561040b57600080fd5b5061033661041a36600461409c565b61148d565b34801561042b57600080fd5b5061033661043a366004613f55565b611556565b34801561044b57600080fd5b5061021154610212546104709160ff8116916101009091046001600160a01b03169083565b60405161023f939291906140cf565b34801561048b57600080fd5b50610336701c35fedd14ffffffffffffffffffffffff6101b155701b0ce43b323fffffffffffffffffffffff6101b2557019f0028ec1ffffffffffffffffffffffff6101b3557018ded91f0e7fffffffffffffffffffffff6101b4557017d8ec7f0417ffffffffffffffffffffff6101b5557016ddc6556cdbffffffffffffffffffffff6101b6557015ecf52776a1ffffffffffffffffffffff6101b7557015060c256cb2ffffffffffffffffffffff6101b855701428a2f98d72ffffffffffffffffffffff6101b9557013545598e5c23fffffffffffffffffffff6101ba55701288c4161ce1dfffffffffffffffffffff6101bb557011c592761c666fffffffffffffffffffff6101bc5570110a688680a757ffffffffffffffffffff6101bd55701056f1b5bedf77ffffffffffffffffffff6101be55700faadceceeff8bffffffffffffffffffff6101bf55700f05dc6b27edadffffffffffffffffffff6101c055700e67a5a25da4107fffffffffffffffffff6101c155700dcff115b14eedffffffffffffffffffff6101c255700d3e7a392431239fffffffffffffffffff6101c355700cb2ff529eb71e4fffffffffffffffffff6101c455700c2d415c3db974afffffffffffffffffff6101c555700bad03e7d883f69bffffffffffffffffff6101c655700b320d03b2c343d5ffffffffffffffffff6101c755700abc25204e02828dffffffffffffffffff6101c855700a4b16f74ee4bb207fffffffffffffffff6101c9557009deaf736ac1f569ffffffffffffffffff6101ca55700976bd9952c7aa957fffffffffffffffff6101cb557009131271922eaa606fffffffffffffffff6101cc557008b380f3558668c46fffffffffffffffff6101cd55700857ddf0117efa215bffffffffffffffff6101ce557007ffffffffffffffffffffffffffffffff6101cf557007abbf6f6abb9d087fffffffffffffffff6101d05570075af62cbac95f7dfa7fffffffffffffff6101d15570070d7fb7452e187ac13fffffffffffffff6101d2557006c3390ecc8af379295fffffffffffffff6101d35570067c00a3b07ffc01fd6fffffffffffffff6101d455700637b647c39cbb9d3d27ffffffffffffff6101d5557005f63b1fc104dbd39587ffffffffffffff6101d6557005b771955b36e12f7235ffffffffffffff6101d75570057b3d49dda84556d6f6ffffffffffffff6101d85570054183095b2c8ececf30ffffffffffffff6101d95570050a28be635ca2b888f77fffffffffffff6101da557004d5156639708c9db33c3fffffffffffff6101db557004a23105873875bd52dfdfffffffffffff6101dc55700471649d87199aa990756fffffffffffff6101dd557004429a21a029d4c1457cfbffffffffffff6101de55700415bc6d6fb7dd71af2cb3ffffffffffff6101df557003eab73b3bbfe282243ce1ffffffffffff6101e0557003c1771ac9fb6b4c18e229ffffffffffff6101e155700399e96897690418f785257fffffffffff6101e255700373fc456c53bb779bf0ea9fffffffffff6101e35570034f9e8e490c48e67e6ab8bfffffffffff6101e45570032cbfd4a7adc790560b3337ffffffffff6101e55570030b50570f6e5d2acca94613ffffffffff6101e6557002eb40f9f620fda6b56c2861ffffffffff6101e7557002cc8340ecb0d0f520a6af58ffffffffff6101e8557002af09481380a0a35cf1ba02ffffffffff6101e955700292c5bdd3b92ec810287b1b3fffffffff6101ea55700277abdcdab07d5a77ac6d6b9fffffffff6101eb5570025daf6654b1eaa55fd64df5efffffffff6101ec55700244c49c648baa98192dce88b7ffffffff6101ed5570022ce03cd5619a311b2471268bffffffff6101ee55700215f77c045fbe885654a44a0fffffffff6101ef557001ffffffffffffffffffffffffffffffff6101f0557001eaefdbdaaee7421fc4d3ede5ffffffff6101f1557001d6bd8b2eb257df7e8ca57b09bfffffff6101f2557001c35fedd14b861eb0443f7f133fffffff6101f3557001b0ce43b322bcde4a56e8ada5afffffff6101f45570019f0028ec1fff007f5a195a39dfffffff6101f55570018ded91f0e72ee74f49b15ba527ffffff6101f65570017d8ec7f04136f4e5615fd41a63ffffff6101f75570016ddc6556cdb84bdc8d12d22e6fffffff6101f85570015ecf52776a1155b5bd8395814f7fffff6101f95570015060c256cb23b3b3cc3754cf40ffffff6101fa557001428a2f98d728ae223ddab715be3fffff6101fb5570013545598e5c23276ccf0ede68034fffff6101fc557001288c4161ce1d6f54b7f61081194fffff6101fd5570011c592761c666aa641d5a01a40f17ffff6101fe55700110a688680a7530515f3e6e6cfdcdffff6101ff557001056f1b5bedf75c6bcb2ce8aed428ffff610200556ffaadceceeff8a0890f3875f008277fff610201556ff05dc6b27edad306388a600f6ba0bfff610202556fe67a5a25da41063de1495d5b18cdbfff610203556fdcff115b14eedde6fc3aa5353f2e4fff610204556fd3e7a3924312399f9aae2e0f868f8fff610205556fcb2ff529eb71e41582cccd5a1ee26fff610206556fc2d415c3db974ab32a51840c0b67edff610207556fbad03e7d883f69ad5b0a186184e06bff610208556fb320d03b2c343d4829abd6075f0cc5ff610209556fabc25204e02828d73c6e80bcdb1a95bf61020a556fa4b16f74ee4bb2040a1ec6c15fbbf2df61020b556f9deaf736ac1f569deb1b5ae3f36c130f61020c556f976bd9952c7aa957f5937d790ef6503761020d556f9131271922eaa6064b73a22d0bd4f2bf61020e556f8b380f3558668c46c91c49a2f8e967b961020f556f857ddf0117efa215952912839f6473e661021055565b348015610ccd57600080fd5b50604080518082019091526005815264191719171b60d91b60208201525b60405161023f9190614166565b348015610d0457600080fd5b5061033661167b565b610336610d1b366004614179565b61189c565b348015610d2c57600080fd5b506102b8611952565b348015610d4157600080fd5b50610ceb6040518060400160405280600481526020016376302e3160e01b81525081565b348015610d7157600080fd5b50610233610d8036600461409c565b611a05565b348015610d9157600080fd5b506102b86102195481565b348015610da857600080fd5b5061021b546102339060ff1681565b348015610dc357600080fd5b5061021554610289906001600160a01b031681565b348015610de457600080fd5b50610233610df336600461400d565b611a1b565b348015610e0457600080fd5b50610336610e1336600461409c565b611a46565b348015610e2457600080fd5b506102b8600081565b348015610e3957600080fd5b50610289611a69565b348015610e4e57600080fd5b506102b86102185481565b348015610e6557600080fd5b506102f1610e7436600461423e565b63bc197c8160e01b95945050505050565b348015610e9157600080fd5b50610336610ea036600461400d565b611a78565b348015610eb157600080fd5b5061021354610289906001600160a01b031681565b348015610ed257600080fd5b506102b8611a9d565b348015610ee757600080fd5b506102b86102175481565b348015610efe57600080fd5b506102f1610f0d3660046142ec565b63f23a6e6160e01b95945050505050565b60006040518060400160405280600481526020016376302e3160e01b815250604051602001610f4d9190614355565b604051602081830303815290604052805190602001206001600160e01b031916826001600160e01b0319161480610f885750610f8882611c47565b92915050565b6102165461021954610fa091906143b0565b4210610fe95760405162461bcd60e51b8152602060048201526013602482015272111d5d18da105d58dd1a5bdb8e88195b991959606a1b60448201526064015b60405180910390fd5b61021b54610100900460ff161561105f5760405162461bcd60e51b815260206004820152603460248201527f447574636841756374696f6e3a20736f6d65626f64792068617320616c726561604482015273647920626f756768742074686973206974656d2160601b6064820152608401610fe0565b6000611069611a9d565b610213549091506110b6906001600160a01b0316611085611c6c565b6102155461021a546001600160a01b03909116906064906110a79087906143c8565b6110b191906143fd565b611ca9565b61021354611105906001600160a01b03166110cf611c6c565b6102145461021a546001600160a01b03909116906064906110f19087906143c8565b6110fb91906143fd565b6110b19086614411565b60006102115460ff16600181111561111f5761111f6140b9565b14156111a3576102115461010090046001600160a01b03166342842e0e30611145611c6c565b610212546040516001600160e01b031960e086901b16815261116c93929190600401614428565b600060405180830381600087803b15801561118657600080fd5b505af115801561119a573d6000803e3d6000fd5b5050505061124f565b60016102115460ff1660018111156111bd576111bd6140b9565b141561124f576102115461010090046001600160a01b031663f242432a306111e3611c6c565b61021254604080516000815260208101918290526001600160e01b031960e087901b1690915261121c939291906001906024810161444c565b600060405180830381600087803b15801561123657600080fd5b505af115801561124a573d6000803e3d6000fd5b505050505b61021b805461ff00191661010017905580611268611c6c565b6001600160a01b03167fe684a55f31b79eca403df938249029212a5925ec6be8012e099b45bc1019e5d260405160405180910390a350565b600054610100900460ff166112c75760405162461bcd60e51b8152600401610fe090614486565b6112d98a8a8a8a8a8a8a8a8a8a611d07565b50505050505050505050565b600082815260c9602052604090206001015461130081611d57565b61130a8383611d68565b505050565b600080600160811b8610611325576113256144d1565b600080866113376001607f1b8a6143c8565b61134191906143fd565b905070015bf0a8b1457695355fb8ac404e7a79e381101561136c5761136581611def565b9150611378565b61137581612368565b91505b60008563ffffffff168763ffffffff168461139391906143c8565b61139d91906143fd565b9050600160831b8110156113c2576113b48161245d565b607f945094505050506113f6565b60006113cd82612a88565b90506113e96113dd82607f6144e7565b60ff1683901c82612b50565b955093506113f692505050565b94509492505050565b611407611c6c565b6001600160a01b0316816001600160a01b03161461147f5760405162461bcd60e51b815260206004820152602f60248201527f416363657373436f6e74726f6c3a2063616e206f6e6c792072656e6f756e636560448201526e103937b632b9903337b91039b2b63360891b6064820152608401610fe0565b61148982826131b7565b5050565b306001600160a01b037f00000000000000000000000000000000000000000000000000000000000000001614156114d65760405162461bcd60e51b8152600401610fe09061450a565b7f00000000000000000000000000000000000000000000000000000000000000006001600160a01b031661150861323c565b6001600160a01b03161461152e5760405162461bcd60e51b8152600401610fe090614556565b61153781613258565b6040805160008082526020820190925261155391839190613263565b50565b600054610100900460ff16158080156115765750600054600160ff909116105b806115905750303b158015611590575060005460ff166001145b6115f35760405162461bcd60e51b815260206004820152602e60248201527f496e697469616c697a61626c653a20636f6e747261637420697320616c72656160448201526d191e481a5b9a5d1a585b1a5e995960921b6064820152608401610fe0565b6000805460ff191660011790558015611616576000805461ff0019166101001790555b6116288b8b8b8b8b8b8b8b8b8b611d07565b801561166e576000805461ff0019169055604051600181527f7f26b83ff96e1f2b6a682f133852f6798a09c465da95921460cefb38474024989060200160405180910390a15b5050505050505050505050565b600061168681611d57565b610216546102195461169891906143b0565b4210156117035760405162461bcd60e51b815260206004820152603360248201527f447574636841756374696f6e3a2063616e6e6f7420636c61696d207768656e2060448201527261756374696f6e206973206f6e676f696e672160681b6064820152608401610fe0565b60006102115460ff16600181111561171d5761171d6140b9565b141561179d57610211546102145461021254604051632142170760e11b81526101009093046001600160a01b03908116936342842e0e9361176693309390911691600401614428565b600060405180830381600087803b15801561178057600080fd5b505af1158015611794573d6000803e3d6000fd5b50505050611845565b60016102115460ff1660018111156117b7576117b76140b9565b14156118455761021154610214546102125460408051600081526020810191829052637921219560e11b9091526001600160a01b0361010090940484169363f242432a9361181293309392909116916001906024810161444c565b600060405180830381600087803b15801561182c57600080fd5b505af1158015611840573d6000803e3d6000fd5b505050505b6102115461021454610212546040519081526101009092046001600160a01b03908116929116907f70eb43c4a8ae8c40502dcf22436c509c28d6ff421cf07c491be56984bd9870689060200160405180910390a350565b306001600160a01b037f00000000000000000000000000000000000000000000000000000000000000001614156118e55760405162461bcd60e51b8152600401610fe09061450a565b7f00000000000000000000000000000000000000000000000000000000000000006001600160a01b031661191761323c565b6001600160a01b03161461193d5760405162461bcd60e51b8152600401610fe090614556565b61194682613258565b61148982826001613263565b6000306001600160a01b037f000000000000000000000000000000000000000000000000000000000000000016146119f25760405162461bcd60e51b815260206004820152603860248201527f555550535570677261646561626c653a206d757374206e6f742062652063616c60448201527f6c6564207468726f7567682064656c656761746563616c6c00000000000000006064820152608401610fe0565b506000805160206149a483398151915290565b6000610f886000805160206149eb833981519152835b600091825260c9602090815260408084206001600160a01b0393909316845291905290205460ff1690565b6000611a5181611d57565b6114896000805160206149eb83398151915283611d68565b6000611a7361323c565b905090565b600082815260c96020526040902060010154611a9381611d57565b61130a83836131b7565b60006102165461021954611ab191906143b0565b4210611acd5761021854611a7390670de0b6b3a76400006143c8565b61021b5460ff1615611bdd57600080611b0b6102185461021754611af19190614411565b60016102195442611b029190614411565b6102165461130f565b90925090506000611b1d82600261469c565b611b2f84670de0b6b3a76400006143c8565b611b3991906143fd565b9050600061021754610218546001611b5191906146ab565b611b5b91906146ec565b6102185461021754611b6d9190614411565b611b7f90670de0b6b3a764000061472b565b611b8991906147b0565b905061021754670de0b6b3a7640000611ba2919061472b565b81670de0b6b3a7640000611bb6858361472b565b611bc091906147b0565b611bca91906146ec565b611bd491906146ab565b94505050505090565b6102185461021754611bef9190614411565b6102165461021954611c019042614411565b611c1390670de0b6b3a76400006143c8565b611c1d91906143fd565b611c2791906143c8565b61021754611c3d90670de0b6b3a76400006143c8565b611a739190614411565b60006001600160e01b03198216630271189760e51b1480610f885750610f88826133dd565b600060143610801590611c925750611c926000805160206149eb83398151915233611a1b565b15611ca4575060131936013560601c90565b503390565b611d01846323b872dd60e01b858585604051602401611cca93929190614428565b60408051601f198184030181529190526020810180516001600160e01b03166001600160e01b031990931692909217909152613412565b50505050565b600054610100900460ff16611d2e5760405162461bcd60e51b8152600401610fe090614486565b611d388a826134e4565b6112d98a611d4b368c90038c018c6147de565b8a8a8a8a8a8a8a613538565b61155381611d63611c6c565b6137cc565b611d728282611a1b565b61148957600082815260c9602090815260408083206001600160a01b03851684529091529020805460ff19166001179055611dab611c6c565b6001600160a01b0316816001600160a01b0316837f2f8788117e7eff1d82e926ec794901d17c78024a50270940304540a733656f0d60405160405180910390a45050565b6000808080806fd3094c70f034de4b96ff7d5b6f99fcd88610611e4857611e1a6001607e1b856143b0565b93506fd3094c70f034de4b96ff7d5b6f99fcd8611e3b6001607f1b886143c8565b611e4591906143fd565b95505b6fa45af1e1f40c333b3de1db4dd55f29a78610611e9b57611e6d6001607d1b856143b0565b93506fa45af1e1f40c333b3de1db4dd55f29a7611e8e6001607f1b886143c8565b611e9891906143fd565b95505b6f910b022db7ae67ce76b441c27035c6a18610611eee57611ec06001607c1b856143b0565b93506f910b022db7ae67ce76b441c27035c6a1611ee16001607f1b886143c8565b611eeb91906143fd565b95505b6f88415abbe9a76bead8d00cf112e4d4a88610611f4157611f136001607b1b856143b0565b93506f88415abbe9a76bead8d00cf112e4d4a8611f346001607f1b886143c8565b611f3e91906143fd565b95505b6f84102b00893f64c705e841d5d4064bd38610611f9457611f666001607a1b856143b0565b93506f84102b00893f64c705e841d5d4064bd3611f876001607f1b886143c8565b611f9191906143fd565b95505b6f8204055aaef1c8bd5c3259f4822735a28610611fe757611fb9600160791b856143b0565b93506f8204055aaef1c8bd5c3259f4822735a2611fda6001607f1b886143c8565b611fe491906143fd565b95505b6f810100ab00222d861931c15e39b44e99861061203a5761200c600160781b856143b0565b93506f810100ab00222d861931c15e39b44e9961202d6001607f1b886143c8565b61203791906143fd565b95505b6f808040155aabbbe9451521693554f733861061208d5761205f600160771b856143b0565b93506f808040155aabbbe9451521693554f7336120806001607f1b886143c8565b61208a91906143fd565b95505b61209b6001607f1b87614411565b92508291506001607f1b6120af83806143c8565b6120b991906143fd565b9050600160801b6120ca8482614411565b6120d490846143c8565b6120de91906143fd565b6120e890856143b0565b93506001607f1b6120f982846143c8565b61210391906143fd565b9150600160811b612124846faaaaaaaaaaaaaaaaaaaaaaaaaaaaaaaa614411565b61212e90846143c8565b61213891906143fd565b61214290856143b0565b93506001607f1b61215382846143c8565b61215d91906143fd565b9150600360801b61217e846f99999999999999999999999999999999614411565b61218890846143c8565b61219291906143fd565b61219c90856143b0565b93506001607f1b6121ad82846143c8565b6121b791906143fd565b9150600160821b6121d8846f92492492492492492492492492492492614411565b6121e290846143c8565b6121ec91906143fd565b6121f690856143b0565b93506001607f1b61220782846143c8565b61221191906143fd565b9150600560801b612232846f8e38e38e38e38e38e38e38e38e38e38e614411565b61223c90846143c8565b61224691906143fd565b61225090856143b0565b93506001607f1b61226182846143c8565b61226b91906143fd565b9150600360811b61228c846f8ba2e8ba2e8ba2e8ba2e8ba2e8ba2e8b614411565b61229690846143c8565b6122a091906143fd565b6122aa90856143b0565b93506001607f1b6122bb82846143c8565b6122c591906143fd565b9150600760801b6122e6846f89d89d89d89d89d89d89d89d89d89d89614411565b6122f090846143c8565b6122fa91906143fd565b61230490856143b0565b93506001607f1b61231582846143c8565b61231f91906143fd565b9150600160831b612340846f88888888888888888888888888888888614411565b61234a90846143c8565b61235491906143fd565b61235e90856143b0565b9695505050505050565b600080600160801b83106123ac57600061238e6123896001607f1b866143fd565b613830565b60ff811694851c949091506123a8906001607f1b906143c8565b9150505b6001607f1b83111561242157607f5b60ff81161561241f576001607f1b6123d385806143c8565b6123dd91906143fd565b9350600160801b841061240f57600193841c936123fa90826144e7565b60ff166001901b8261240c91906143b0565b91505b6124188161484d565b90506123bb565b505b6f05b9de1d10bf4103d647b0955897ba8061244c6f03f80fe03f80fe03f80fe03f80fe03f8836143c8565b61245691906143fd565b9392505050565b60008080806124706001607c1b8661486a565b91508190506001607f1b61248482806143c8565b61248e91906143fd565b90506124a2816710e1b3be415a00006143c8565b6124ac90846143b0565b92506001607f1b6124bd83836143c8565b6124c791906143fd565b90506124db816705a0913f6b1e00006143c8565b6124e590846143b0565b92506001607f1b6124f683836143c8565b61250091906143fd565b905061251481670168244fdac780006143c8565b61251e90846143b0565b92506001607f1b61252f83836143c8565b61253991906143fd565b905061254c81664807432bc180006143c8565b61255690846143b0565b92506001607f1b61256783836143c8565b61257191906143fd565b905061258481660c0135dca040006143c8565b61258e90846143b0565b92506001607f1b61259f83836143c8565b6125a991906143fd565b90506125bc816601b707b1cdc0006143c8565b6125c690846143b0565b92506001607f1b6125d783836143c8565b6125e191906143fd565b90506125f3816536e0f639b8006143c8565b6125fd90846143b0565b92506001607f1b61260e83836143c8565b61261891906143fd565b905061262a81650618fee9f8006143c8565b61263490846143b0565b92506001607f1b61264583836143c8565b61264f91906143fd565b905061266081649c197dcc006143c8565b61266a90846143b0565b92506001607f1b61267b83836143c8565b61268591906143fd565b905061269681640e30dce4006143c8565b6126a090846143b0565b92506001607f1b6126b183836143c8565b6126bb91906143fd565b90506126cc8164012ebd13006143c8565b6126d690846143b0565b92506001607f1b6126e783836143c8565b6126f191906143fd565b9050612701816317499f006143c8565b61270b90846143b0565b92506001607f1b61271c83836143c8565b61272691906143fd565b9050612736816301a9d4806143c8565b61274090846143b0565b92506001607f1b61275183836143c8565b61275b91906143fd565b905061276a81621c63806143c8565b61277490846143b0565b92506001607f1b61278583836143c8565b61278f91906143fd565b905061279e816201c6386143c8565b6127a890846143b0565b92506001607f1b6127b983836143c8565b6127c391906143fd565b90506127d181611ab86143c8565b6127db90846143b0565b92506001607f1b6127ec83836143c8565b6127f691906143fd565b90506128048161017c6143c8565b61280e90846143b0565b92506001607f1b61281f83836143c8565b61282991906143fd565b90506128368160146143c8565b61284090846143b0565b92506001607f1b61285183836143c8565b61285b91906143fd565b90506128688160016143c8565b61287290846143b0565b92506001607f1b8261288c6721c3677c82b40000866143fd565b61289691906143b0565b6128a091906143b0565b92506001607c1b8516156128e85770018ebef9eac820ae8682b9793ac6d1e7766128db847001c3d6a24ed82218787d624d3e5eba95f96143c8565b6128e591906143fd565b92505b6001607d1b85161561292e577001368b2fc6f9609fe7aceb46aa619baed46129218470018ebef9eac820ae8682b9793ac6d1e7786143c8565b61292b91906143fd565b92505b6001607e1b851615612973576fbc5ab1b16779be3575bd8f0520a9f21f612966847001368b2fc6f9609fe7aceb46aa619baed56143c8565b61297091906143fd565b92505b6001607f1b8516156129b7576f454aaa8efe072e7f6ddbab84b40a55c96129aa846fbc5ab1b16779be3575bd8f0520a9f21e6143c8565b6129b491906143fd565b92505b600160801b8516156129fb576f0960aadc109e7a3bf4578099615711ea6129ee846f454aaa8efe072e7f6ddbab84b40a55c56143c8565b6129f891906143fd565b92505b600160811b851615612a3e576e2bf84208204f5977f9a8cf01fdce3d612a31846f0960aadc109e7a3bf4578099615711d76143c8565b612a3b91906143fd565b92505b600160821b851615612a7f576d03c6ab775dd0b95b4cbee7e65d11612a72846e2bf84208204f5977f9a8cf01fdc3076143c8565b612a7c91906143fd565b92505b50909392505050565b60006020607f5b60ff8116612a9e83600161487e565b60ff161015612af25760006002612ab5838561487e565b612abf91906148a3565b9050846101918260ff1660808110612ad957612ad96145a2565b015410612ae857809250612aec565b8091505b50612a8f565b836101918260ff1660808110612b0a57612b0a6145a2565b015410612b18579392505050565b836101918360ff1660808110612b3057612b306145a2565b015410612b3e575092915050565b612b466144d1565b5060009392505050565b6000828160ff8416612b6283806143c8565b901c9150612b80826f03442c4e6074a82f1797f72ac00000006143c8565b612b8a90826143b0565b905060ff8416612b9a86846143c8565b901c9150612bb8826f0116b96f757c380fb287fd0e400000006143c8565b612bc290826143b0565b905060ff8416612bd286846143c8565b901c9150612bef826e45ae5bdd5f0e03eca1ff43900000006143c8565b612bf990826143b0565b905060ff8416612c0986846143c8565b901c9150612c26826e0defabf91302cd95b9ffda500000006143c8565b612c3090826143b0565b905060ff8416612c4086846143c8565b901c9150612c5d826e02529ca9832b22439efff9b80000006143c8565b612c6790826143b0565b905060ff8416612c7786846143c8565b901c9150612c93826d54f1cf12bd04e516b6da880000006143c8565b612c9d90826143b0565b905060ff8416612cad86846143c8565b901c9150612cc9826d0a9e39e257a09ca2d6db510000006143c8565b612cd390826143b0565b905060ff8416612ce386846143c8565b901c9150612cff826d012e066e7b839fa050c3090000006143c8565b612d0990826143b0565b905060ff8416612d1986846143c8565b901c9150612d34826c1e33d7d926c329a1ad1a8000006143c8565b612d3e90826143b0565b905060ff8416612d4e86846143c8565b901c9150612d69826c02bee513bdb4a6b19b5f8000006143c8565b612d7390826143b0565b905060ff8416612d8386846143c8565b901c9150612d9d826b3a9316fa79b88eccf2a000006143c8565b612da790826143b0565b905060ff8416612db786846143c8565b901c9150612dd1826b048177ebe1fa8123752000006143c8565b612ddb90826143b0565b905060ff8416612deb86846143c8565b901c9150612e04826a5263fe90242dcbacf000006143c8565b612e0e90826143b0565b905060ff8416612e1e86846143c8565b901c9150612e37826a057e22099c030d941000006143c8565b612e4190826143b0565b905060ff8416612e5186846143c8565b901c9150612e69826957e22099c030d94100006143c8565b612e7390826143b0565b905060ff8416612e8386846143c8565b901c9150612e9b8269052b6b545699763100006143c8565b612ea590826143b0565b905060ff8416612eb586846143c8565b901c9150612ecc82684985f67696bf7480006143c8565b612ed690826143b0565b905060ff8416612ee686846143c8565b901c9150612efd826803dea12ea99e4980006143c8565b612f0790826143b0565b905060ff8416612f1786846143c8565b901c9150612f2d826731880f2214b6e0006143c8565b612f3790826143b0565b905060ff8416612f4786846143c8565b901c9150612f5d8267025bcff56eb360006143c8565b612f6790826143b0565b905060ff8416612f7786846143c8565b901c9150612f8c82661b722e10ab10006143c8565b612f9690826143b0565b905060ff8416612fa686846143c8565b901c9150612fbb826601317c700770006143c8565b612fc590826143b0565b905060ff8416612fd586846143c8565b901c9150612fe982650cba84aafa006143c8565b612ff390826143b0565b905060ff841661300386846143c8565b901c9150613016826482573a0a006143c8565b61302090826143b0565b905060ff841661303086846143c8565b901c9150613043826405035ad9006143c8565b61304d90826143b0565b905060ff841661305d86846143c8565b901c915061306f82632f881b006143c8565b61307990826143b0565b905060ff841661308986846143c8565b901c915061309b826301b293406143c8565b6130a590826143b0565b905060ff84166130b586846143c8565b901c91506130c682620efc406143c8565b6130d090826143b0565b905060ff84166130e086846143c8565b901c91506130f082617fe06143c8565b6130fa90826143b0565b905060ff841661310a86846143c8565b901c915061311a826104206143c8565b61312490826143b0565b905060ff841661313486846143c8565b901c91506131438260216143c8565b61314d90826143b0565b905060ff841661315d86846143c8565b901c915061316c8260016143c8565b61317690826143b0565b9050600160ff85161b8561319a6f0688589cc0e9505e2f2fee5580000000846143fd565b6131a491906143b0565b6131ae91906143b0565b95945050505050565b6131c18282611a1b565b1561148957600082815260c9602090815260408083206001600160a01b03851684529091529020805460ff191690556131f8611c6c565b6001600160a01b0316816001600160a01b0316837ff6391f5c32d9c69d2a47ea670b442974b53935d1edc7fd64eb21e047a839171b60405160405180910390a45050565b6000805160206149a4833981519152546001600160a01b031690565b600061148981611d57565b7f4910fdfa16fed3260ed0e7147f7cc6da11a60208b5b9406d12a635614ffd91435460ff16156132965761130a8361389c565b826001600160a01b03166352d1902d6040518163ffffffff1660e01b815260040160206040518083038186803b1580156132cf57600080fd5b505afa9250505080156132ff575060408051601f3d908101601f191682019092526132fc918101906148c5565b60015b6133625760405162461bcd60e51b815260206004820152602e60248201527f45524331393637557067726164653a206e657720696d706c656d656e7461746960448201526d6f6e206973206e6f74205555505360901b6064820152608401610fe0565b6000805160206149a483398151915281146133d15760405162461bcd60e51b815260206004820152602960248201527f45524331393637557067726164653a20756e737570706f727465642070726f786044820152681a58589b195555525160ba1b6064820152608401610fe0565b5061130a838383613938565b60006001600160e01b03198216637965db0b60e01b1480610f8857506301ffc9a760e01b6001600160e01b0319831614610f88565b6000613467826040518060400160405280602081526020017f5361666545524332303a206c6f772d6c6576656c2063616c6c206661696c6564815250856001600160a01b031661395d9092919063ffffffff16565b80519091501561130a578080602001905181019061348591906148de565b61130a5760405162461bcd60e51b815260206004820152602a60248201527f5361666545524332303a204552433230206f7065726174696f6e20646964206e6044820152691bdd081cdd58d8d9595960b21b6064820152608401610fe0565b600054610100900460ff1661350b5760405162461bcd60e51b8152600401610fe090614486565b6135158282613974565b613520600083611d68565b6114896000805160206149eb83398151915282611d68565b600054610100900460ff1661355f5760405162461bcd60e51b8152600401610fe090614486565b8486116135d45760405162461bcd60e51b815260206004820152603860248201527f447574636841756374696f6e3a207374617274207072696365206d757374206260448201527f652067726561746572207468616e20656e6420707269636500000000000000006064820152608401610fe0565b875161021180548a9290829060ff1916600183818111156135f7576135f76140b9565b021790555060208201518154610100600160a81b0319166101006001600160a01b039283160217825560409092015160019091015561021380546001600160a01b03199081168a841617909155610214805482168c841617905561021686905561021788905561021887905561021b805461ffff191686151561ff00191617905561021a84905561021580549091169183169190911790556000885160018111156136a4576136a46140b9565b1415613720576020880151610214546040808b015190516323b872dd60e01b81526001600160a01b03938416936323b872dd936136e993911691309190600401614428565b600060405180830381600087803b15801561370357600080fd5b505af1158015613717573d6000803e3d6000fd5b505050506137bc565b600188516001811115613735576137356140b9565b14156137bc57602088810151610214546040808c015181516000815294850191829052637921219560e11b9091526001600160a01b039283169363f242432a9361378993169130916001906024810161444c565b600060405180830381600087803b1580156137a357600080fd5b505af11580156137b7573d6000803e3d6000fd5b505050505b5050426102195550505050505050565b6137d68282611a1b565b611489576137ee816001600160a01b0316601461399b565b6137f983602061399b565b60405160200161380a9291906148fb565b60408051601f198184030181529082905262461bcd60e51b8252610fe091600401614166565b600080610100831015613863575b600183111561385e57600192831c92613857908261487e565b905061383e565b610f88565b60805b60ff81161561389557600160ff82161b841061388a5760ff81169390931c92908117905b60011c607f16613866565b5092915050565b6001600160a01b0381163b6139095760405162461bcd60e51b815260206004820152602d60248201527f455243313936373a206e657720696d706c656d656e746174696f6e206973206e60448201526c1bdd08184818dbdb9d1c9858dd609a1b6064820152608401610fe0565b6000805160206149a483398151915280546001600160a01b0319166001600160a01b0392909216919091179055565b61394183613b37565b60008251118061394e5750805b1561130a57611d018383613b77565b606061396c8484600085613c62565b949350505050565b600054610100900460ff166114895760405162461bcd60e51b8152600401610fe090614486565b606060006139aa8360026143c8565b6139b59060026143b0565b67ffffffffffffffff8111156139cd576139cd613e0b565b6040519080825280601f01601f1916602001820160405280156139f7576020820181803683370190505b509050600360fc1b81600081518110613a1257613a126145a2565b60200101906001600160f81b031916908160001a905350600f60fb1b81600181518110613a4157613a416145a2565b60200101906001600160f81b031916908160001a9053506000613a658460026143c8565b613a709060016143b0565b90505b6001811115613ae8576f181899199a1a9b1b9c1cb0b131b232b360811b85600f1660108110613aa457613aa46145a2565b1a60f81b828281518110613aba57613aba6145a2565b60200101906001600160f81b031916908160001a90535060049490941c93613ae181614970565b9050613a73565b5083156124565760405162461bcd60e51b815260206004820181905260248201527f537472696e67733a20686578206c656e67746820696e73756666696369656e746044820152606401610fe0565b613b408161389c565b6040516001600160a01b038216907fbc7cd75a20ee27fd9adebab32041f755214dbc6bffa90cc0225b39da2e5c2d3b90600090a250565b60606001600160a01b0383163b613bdf5760405162461bcd60e51b815260206004820152602660248201527f416464726573733a2064656c65676174652063616c6c20746f206e6f6e2d636f6044820152651b9d1c9858dd60d21b6064820152608401610fe0565b600080846001600160a01b031684604051613bfa9190614987565b600060405180830381855af49150503d8060008114613c35576040519150601f19603f3d011682016040523d82523d6000602084013e613c3a565b606091505b50915091506131ae82826040518060600160405280602781526020016149c460279139613d93565b606082471015613cc35760405162461bcd60e51b815260206004820152602660248201527f416464726573733a20696e73756666696369656e742062616c616e636520666f6044820152651c8818d85b1b60d21b6064820152608401610fe0565b6001600160a01b0385163b613d1a5760405162461bcd60e51b815260206004820152601d60248201527f416464726573733a2063616c6c20746f206e6f6e2d636f6e74726163740000006044820152606401610fe0565b600080866001600160a01b03168587604051613d369190614987565b60006040518083038185875af1925050503d8060008114613d73576040519150601f19603f3d011682016040523d82523d6000602084013e613d78565b606091505b5091509150613d88828286613d93565b979650505050505050565b60608315613da2575081612456565b825115613db25782518084602001fd5b8160405162461bcd60e51b8152600401610fe09190614166565b600060208284031215613dde57600080fd5b81356001600160e01b03198116811461245657600080fd5b6001600160a01b038116811461155357600080fd5b634e487b7160e01b600052604160045260246000fd5b604051601f8201601f1916810167ffffffffffffffff81118282101715613e4a57613e4a613e0b565b604052919050565b600082601f830112613e6357600080fd5b813567ffffffffffffffff811115613e7d57613e7d613e0b565b613e90601f8201601f1916602001613e21565b818152846020838601011115613ea557600080fd5b816020850160208301376000918101602001919091529392505050565b60008060008060808587031215613ed857600080fd5b8435613ee381613df6565b93506020850135613ef381613df6565b925060408501359150606085013567ffffffffffffffff811115613f1657600080fd5b613f2287828801613e52565b91505092959194509250565b600060208284031215613f4057600080fd5b5035919050565b801515811461155357600080fd5b6000806000806000806000806000808a8c03610180811215613f7657600080fd5b8b35613f8181613df6565b9a506060601f1982011215613f9557600080fd5b5060208b01985060808b0135613faa81613df6565b975060a08b0135965060c08b0135955060e08b013594506101008b0135613fd081613f47565b93506101208b013592506101408b0135613fe981613df6565b91506101608b0135613ffa81613df6565b809150509295989b9194979a5092959850565b6000806040838503121561402057600080fd5b82359150602083013561403281613df6565b809150509250929050565b803563ffffffff8116811461405157600080fd5b919050565b6000806000806080858703121561406c57600080fd5b84359350602085013592506140836040860161403d565b91506140916060860161403d565b905092959194509250565b6000602082840312156140ae57600080fd5b813561245681613df6565b634e487b7160e01b600052602160045260246000fd5b60608101600285106140f157634e487b7160e01b600052602160045260246000fd5b9381526001600160a01b0392909216602083015260409091015290565b60005b83811015614129578181015183820152602001614111565b83811115611d015750506000910152565b6000815180845261415281602086016020860161410e565b601f01601f19169290920160200192915050565b602081526000612456602083018461413a565b6000806040838503121561418c57600080fd5b823561419781613df6565b9150602083013567ffffffffffffffff8111156141b357600080fd5b6141bf85828601613e52565b9150509250929050565b600082601f8301126141da57600080fd5b8135602067ffffffffffffffff8211156141f6576141f6613e0b565b8160051b614205828201613e21565b928352848101820192828101908785111561421f57600080fd5b83870192505b84831015613d8857823582529183019190830190614225565b600080600080600060a0868803121561425657600080fd5b853561426181613df6565b9450602086013561427181613df6565b9350604086013567ffffffffffffffff8082111561428e57600080fd5b61429a89838a016141c9565b945060608801359150808211156142b057600080fd5b6142bc89838a016141c9565b935060808801359150808211156142d257600080fd5b506142df88828901613e52565b9150509295509295909350565b600080600080600060a0868803121561430457600080fd5b853561430f81613df6565b9450602086013561431f81613df6565b93506040860135925060608601359150608086013567ffffffffffffffff81111561434957600080fd5b6142df88828901613e52565b7f4f574c50726f746f636f6c3a2f2f447574636841756374696f6e2f000000000081526000825161438d81601b85016020870161410e565b91909101601b0192915050565b634e487b7160e01b600052601160045260246000fd5b600082198211156143c3576143c361439a565b500190565b60008160001904831182151516156143e2576143e261439a565b500290565b634e487b7160e01b600052601260045260246000fd5b60008261440c5761440c6143e7565b500490565b6000828210156144235761442361439a565b500390565b6001600160a01b039384168152919092166020820152604081019190915260600190565b6001600160a01b03868116825285166020820152604081018490526060810183905260a060808201819052600090613d889083018461413a565b6020808252602b908201527f496e697469616c697a61626c653a20636f6e7472616374206973206e6f74206960408201526a6e697469616c697a696e6760a81b606082015260800190565b634e487b7160e01b600052600160045260246000fd5b600060ff821660ff8416808210156145015761450161439a565b90039392505050565b6020808252602c908201527f46756e6374696f6e206d7573742062652063616c6c6564207468726f7567682060408201526b19195b1959d85d1958d85b1b60a21b606082015260800190565b6020808252602c908201527f46756e6374696f6e206d7573742062652063616c6c6564207468726f7567682060408201526b6163746976652070726f787960a01b606082015260800190565b634e487b7160e01b600052603260045260246000fd5b600181815b808511156145f35781600019048211156145d9576145d961439a565b808516156145e657918102915b93841c93908002906145bd565b509250929050565b60008261460a57506001610f88565b8161461757506000610f88565b816001811461462d576002811461463757614653565b6001915050610f88565b60ff8411156146485761464861439a565b50506001821b610f88565b5060208310610133831016604e8410600b8410161715614676575081810a610f88565b61468083836145b8565b80600019048211156146945761469461439a565b029392505050565b600061245660ff8416836145fb565b600080821280156001600160ff1b03849003851316156146cd576146cd61439a565b600160ff1b83900384128116156146e6576146e661439a565b50500190565b60008083128015600160ff1b85018412161561470a5761470a61439a565b6001600160ff1b03840183138116156147255761472561439a565b50500390565b60006001600160ff1b03818413828413808216868404861116156147515761475161439a565b600160ff1b60008712828116878305891216156147705761477061439a565b6000871292508782058712848416161561478c5761478c61439a565b878505871281841616156147a2576147a261439a565b505050929093029392505050565b6000826147bf576147bf6143e7565b600160ff1b8214600019841416156147d9576147d961439a565b500590565b6000606082840312156147f057600080fd5b6040516060810181811067ffffffffffffffff8211171561481357614813613e0b565b60405282356002811061482557600080fd5b8152602083013561483581613df6565b60208201526040928301359281019290925250919050565b600060ff8216806148605761486061439a565b6000190192915050565b600082614879576148796143e7565b500690565b600060ff821660ff84168060ff0382111561489b5761489b61439a565b019392505050565b600060ff8316806148b6576148b66143e7565b8060ff84160491505092915050565b6000602082840312156148d757600080fd5b5051919050565b6000602082840312156148f057600080fd5b815161245681613f47565b7f416363657373436f6e74726f6c3a206163636f756e742000000000000000000081526000835161493381601785016020880161410e565b7001034b99036b4b9b9b4b733903937b6329607d1b601791840191820152835161496481602884016020880161410e565b01602801949350505050565b60008161497f5761497f61439a565b506000190190565b6000825161499981846020870161410e565b919091019291505056fe360894a13ba1a3210667c828492db98dca3e2076cc3735a920a3ca505d382bbc416464726573733a206c6f772d6c6576656c2064656c65676174652063616c6c206661696c65647a05a596cb0ce7fdea8a1e1ec73be300bdb35097c944ce1897202f7a13122eb2a26469706673582212203ec9f994279ff308f6cb1b3d5027a52480f7edf1201323742aa0e056e9db230b64736f6c63430008090033",
  "devdoc": {
    "details": "This contract is a simple on-chain Dutch Auction with a pricing view function that decreases over a set period of time. In a Dutch Auction, the seller defines a starting ceiling price and an ending floor price that then decreases over time based on either a linear or nonlinear function. If a bid is made at any point, the bid must match the current price. Once a bid is made, the auction ends and the owner will receive the current price in which the bid was made in ERC20 tokens. The asset is then transferred to the bidder.",
    "kind": "dev",
    "methods": {
      "bid()": {
        "details": "Allows a user to bid at the current price"
      },
      "claim()": {
        "details": "Allows the owner to claim back the asset if nobody bids and auction expires"
      },
      "constructor": {
        "custom:oz-upgrades-unsafe-allow": "constructor"
      },
      "getCurrentPrice()": {
        "details": "Returns the current price of the asset based on the timestamp and type of function",
        "returns": {
          "_0": "uint256 price of the asset"
        }
      },
      "getRoleAdmin(bytes32)": {
        "details": "Returns the admin role that controls `role`. See {grantRole} and {revokeRole}. To change a role's admin, use {_setRoleAdmin}."
      },
      "grantRole(bytes32,address)": {
        "details": "Grants `role` to `account`. If `account` had not been already granted `role`, emits a {RoleGranted} event. Requirements: - the caller must have ``role``'s admin role. May emit a {RoleGranted} event."
      },
      "grantRouter(address)": {
        "details": "Grants ROUTER_ROLE to {a}",
        "params": {
          "to": "address to"
        }
      },
      "hasRole(bytes32,address)": {
        "details": "Returns `true` if `account` has been granted `role`."
      },
      "initialize(address,(uint8,address,uint256),address,uint256,uint256,uint256,bool,uint256,address,address)": {
        "details": "Create auction instance",
        "params": {
          "ERC20contractAddress": "address of ERC20 token accepted as payment",
          "_asset": "struct containing information of the asset to be listed",
          "_auctionDuration": "duration of auction (in seconds)",
          "_endPrice": "lowest price that seller is willing to accept",
          "_forwarder": "the address for the Trusted Forwarder for Open GSN integration",
          "_isNonLinear": "set true if the seller wants to set a nonlinear decrease in price",
          "_saleFee": "the percentage of the sale to be sent to the original owner as commission",
          "_saleFeeAddress": "the address to which the sale fee is sent",
          "_seller": "address of seller for auction",
          "_startPrice": "highest starting price to start the auction"
        }
      },
      "isTrustedForwarder(address)": {
        "details": "Return trusted forwarder status."
      },
      "onERC721Received(address,address,uint256,bytes)": {
        "details": "See {IERC721Receiver-onERC721Received}. Always returns `IERC721Receiver.onERC721Received.selector`."
      },
      "proxiableUUID()": {
        "details": "Implementation of the ERC1822 {proxiableUUID} function. This returns the storage slot used by the implementation. It is used to validate that the this implementation remains valid after an upgrade. IMPORTANT: A proxy pointing at a proxiable contract should not be considered proxiable itself, because this risks bricking a proxy that upgrades to it, by delegating to itself until out of gas. Thus it is critical that this function revert if invoked through a proxy. This is guaranteed by the `notDelegated` modifier."
      },
      "renounceRole(bytes32,address)": {
        "details": "Revokes `role` from the calling account. Roles are often managed via {grantRole} and {revokeRole}: this function's purpose is to provide a mechanism for accounts to lose their privileges if they are compromised (such as when a trusted device is misplaced). If the calling account had been revoked `role`, emits a {RoleRevoked} event. Requirements: - the caller must be `account`. May emit a {RoleRevoked} event."
      },
      "revokeRole(bytes32,address)": {
        "details": "Revokes `role` from `account`. If `account` had been granted `role`, emits a {RoleRevoked} event. Requirements: - the caller must have ``role``'s admin role. May emit a {RoleRevoked} event."
      },
      "supportsInterface(bytes4)": {
        "details": "ERC165 Support",
        "params": {
          "interfaceId": "hash of the interface testing for"
        },
        "returns": {
          "_0": "bool whether interface is supported"
        }
      },
      "upgradeTo(address)": {
        "details": "Upgrade the implementation of the proxy to `newImplementation`. Calls {_authorizeUpgrade}. Emits an {Upgraded} event."
      },
      "upgradeToAndCall(address,bytes)": {
        "details": "Upgrade the implementation of the proxy to `newImplementation`, and subsequently execute the function call encoded in `data`. Calls {_authorizeUpgrade}. Emits an {Upgraded} event."
      }
    },
    "version": 1
  },
  "userdoc": {
    "kind": "user",
    "methods": {
      "bid()": {
        "notice": "The required ERC20 tokens must be pre-approved before calling!"
      },
      "grantRouter(address)": {
        "notice": "Must have owner role"
      },
      "isTrustedForwarder(address)": {
        "notice": "**REQUIRED FOR GSN**"
      },
      "power(uint256,uint256,uint32,uint32)": {
        "notice": "General Description: Determine a value of precision. Calculate an integer approximation of (_baseN / _baseD) ^ (_expN / _expD) * 2 ^ precision. Return the result along with the precision used. Detailed Description: Instead of calculating \"base ^ exp\", we calculate \"e ^ (log(base) * exp)\". The value of \"log(base)\" is represented with an integer slightly smaller than \"log(base) * 2 ^ precision\". The larger \"precision\" is, the more accurately this value represents the real value. However, the larger \"precision\" is, the more bits are required in order to store this value. And the exponentiation function, which takes \"x\" and calculates \"e ^ x\", is limited to a maximum exponent (maximum value of \"x\"). This maximum exponent depends on the \"precision\" used, and it is given by \"maxExpArray[precision] >> (MAX_PRECISION - precision)\". Hence we need to determine the highest precision which can be used for the given input, before calling the exponentiation function. This allows us to compute \"base ^ exp\" with maximum accuracy and without exceeding 256 bits in any of the intermediate computations. This functions assumes that \"_expN < 2 ^ 256 / log(MAX_NUM - 1)\", otherwise the multiplication should be replaced with a \"safeMul\"."
      }
    },
    "version": 1
  },
  "storageLayout": {
    "storage": [
      {
        "astId": 3091,
        "contract": "contracts/finance/DutchAuction.sol:DutchAuction",
        "label": "_initialized",
        "offset": 0,
        "slot": "0",
        "type": "t_uint8"
      },
      {
        "astId": 3094,
        "contract": "contracts/finance/DutchAuction.sol:DutchAuction",
        "label": "_initializing",
        "offset": 1,
        "slot": "0",
        "type": "t_bool"
      },
      {
        "astId": 3073,
        "contract": "contracts/finance/DutchAuction.sol:DutchAuction",
        "label": "__gap",
        "offset": 0,
        "slot": "1",
        "type": "t_array(t_uint256)50_storage"
      },
      {
        "astId": 3370,
        "contract": "contracts/finance/DutchAuction.sol:DutchAuction",
        "label": "__gap",
        "offset": 0,
        "slot": "51",
        "type": "t_array(t_uint256)50_storage"
      },
      {
        "astId": 7537,
        "contract": "contracts/finance/DutchAuction.sol:DutchAuction",
        "label": "__gap",
        "offset": 0,
        "slot": "101",
        "type": "t_array(t_uint256)50_storage"
      },
      {
        "astId": 7941,
        "contract": "contracts/finance/DutchAuction.sol:DutchAuction",
        "label": "__gap",
        "offset": 0,
        "slot": "151",
        "type": "t_array(t_uint256)50_storage"
      },
      {
        "astId": 2110,
        "contract": "contracts/finance/DutchAuction.sol:DutchAuction",
        "label": "_roles",
        "offset": 0,
        "slot": "201",
        "type": "t_mapping(t_bytes32,t_struct(RoleData)2105_storage)"
      },
      {
        "astId": 2409,
        "contract": "contracts/finance/DutchAuction.sol:DutchAuction",
        "label": "__gap",
        "offset": 0,
        "slot": "202",
        "type": "t_array(t_uint256)49_storage"
      },
      {
        "astId": 7252,
        "contract": "contracts/finance/DutchAuction.sol:DutchAuction",
        "label": "__gap",
        "offset": 0,
        "slot": "251",
        "type": "t_array(t_uint256)50_storage"
      },
      {
        "astId": 5007,
        "contract": "contracts/finance/DutchAuction.sol:DutchAuction",
        "label": "__gap",
        "offset": 0,
        "slot": "301",
        "type": "t_array(t_uint256)50_storage"
      },
      {
        "astId": 4953,
        "contract": "contracts/finance/DutchAuction.sol:DutchAuction",
        "label": "__gap",
        "offset": 0,
        "slot": "351",
        "type": "t_array(t_uint256)50_storage"
      },
      {
        "astId": 27047,
        "contract": "contracts/finance/DutchAuction.sol:DutchAuction",
        "label": "maxExpArray",
        "offset": 0,
        "slot": "401",
        "type": "t_array(t_uint256)128_storage"
      },
      {
        "astId": 14554,
        "contract": "contracts/finance/DutchAuction.sol:DutchAuction",
        "label": "asset",
        "offset": 0,
        "slot": "529",
        "type": "t_struct(Asset)14497_storage"
      },
      {
        "astId": 14556,
        "contract": "contracts/finance/DutchAuction.sol:DutchAuction",
        "label": "acceptableToken",
        "offset": 0,
        "slot": "531",
        "type": "t_address"
      },
      {
        "astId": 14558,
        "contract": "contracts/finance/DutchAuction.sol:DutchAuction",
        "label": "seller",
        "offset": 0,
        "slot": "532",
        "type": "t_address_payable"
      },
      {
        "astId": 14560,
        "contract": "contracts/finance/DutchAuction.sol:DutchAuction",
        "label": "saleFeeAddress",
        "offset": 0,
        "slot": "533",
        "type": "t_address_payable"
      },
      {
        "astId": 14562,
        "contract": "contracts/finance/DutchAuction.sol:DutchAuction",
        "label": "auctionDuration",
        "offset": 0,
        "slot": "534",
        "type": "t_uint256"
      },
      {
        "astId": 14564,
        "contract": "contracts/finance/DutchAuction.sol:DutchAuction",
        "label": "startPrice",
        "offset": 0,
        "slot": "535",
        "type": "t_uint256"
      },
      {
        "astId": 14566,
        "contract": "contracts/finance/DutchAuction.sol:DutchAuction",
        "label": "endPrice",
        "offset": 0,
        "slot": "536",
        "type": "t_uint256"
      },
      {
        "astId": 14568,
        "contract": "contracts/finance/DutchAuction.sol:DutchAuction",
        "label": "startTime",
        "offset": 0,
        "slot": "537",
        "type": "t_uint256"
      },
      {
        "astId": 14570,
        "contract": "contracts/finance/DutchAuction.sol:DutchAuction",
        "label": "saleFee",
        "offset": 0,
        "slot": "538",
        "type": "t_uint256"
      },
      {
        "astId": 14572,
        "contract": "contracts/finance/DutchAuction.sol:DutchAuction",
        "label": "isNonLinear",
        "offset": 0,
        "slot": "539",
        "type": "t_bool"
      },
      {
        "astId": 14574,
        "contract": "contracts/finance/DutchAuction.sol:DutchAuction",
        "label": "isBought",
        "offset": 1,
        "slot": "539",
        "type": "t_bool"
      }
    ],
    "types": {
      "t_address": {
        "encoding": "inplace",
        "label": "address",
        "numberOfBytes": "20"
      },
      "t_address_payable": {
        "encoding": "inplace",
        "label": "address payable",
        "numberOfBytes": "20"
      },
      "t_array(t_uint256)128_storage": {
        "base": "t_uint256",
        "encoding": "inplace",
        "label": "uint256[128]",
        "numberOfBytes": "4096"
      },
      "t_array(t_uint256)49_storage": {
        "base": "t_uint256",
        "encoding": "inplace",
        "label": "uint256[49]",
        "numberOfBytes": "1568"
      },
      "t_array(t_uint256)50_storage": {
        "base": "t_uint256",
        "encoding": "inplace",
        "label": "uint256[50]",
        "numberOfBytes": "1600"
      },
      "t_bool": {
        "encoding": "inplace",
        "label": "bool",
        "numberOfBytes": "1"
      },
      "t_bytes32": {
        "encoding": "inplace",
        "label": "bytes32",
        "numberOfBytes": "32"
      },
      "t_enum(TokenType)14489": {
        "encoding": "inplace",
        "label": "enum AuctionLib.TokenType",
        "numberOfBytes": "1"
      },
      "t_mapping(t_address,t_bool)": {
        "encoding": "mapping",
        "key": "t_address",
        "label": "mapping(address => bool)",
        "numberOfBytes": "32",
        "value": "t_bool"
      },
      "t_mapping(t_bytes32,t_struct(RoleData)2105_storage)": {
        "encoding": "mapping",
        "key": "t_bytes32",
        "label": "mapping(bytes32 => struct AccessControlUpgradeable.RoleData)",
        "numberOfBytes": "32",
        "value": "t_struct(RoleData)2105_storage"
      },
      "t_struct(Asset)14497_storage": {
        "encoding": "inplace",
        "label": "struct AuctionLib.Asset",
        "members": [
          {
            "astId": 14492,
            "contract": "contracts/finance/DutchAuction.sol:DutchAuction",
            "label": "token",
            "offset": 0,
            "slot": "0",
            "type": "t_enum(TokenType)14489"
          },
          {
            "astId": 14494,
            "contract": "contracts/finance/DutchAuction.sol:DutchAuction",
            "label": "contractAddr",
            "offset": 1,
            "slot": "0",
            "type": "t_address"
          },
          {
            "astId": 14496,
            "contract": "contracts/finance/DutchAuction.sol:DutchAuction",
            "label": "tokenId",
            "offset": 0,
            "slot": "1",
            "type": "t_uint256"
          }
        ],
        "numberOfBytes": "64"
      },
      "t_struct(RoleData)2105_storage": {
        "encoding": "inplace",
        "label": "struct AccessControlUpgradeable.RoleData",
        "members": [
          {
            "astId": 2102,
            "contract": "contracts/finance/DutchAuction.sol:DutchAuction",
            "label": "members",
            "offset": 0,
            "slot": "0",
            "type": "t_mapping(t_address,t_bool)"
          },
          {
            "astId": 2104,
            "contract": "contracts/finance/DutchAuction.sol:DutchAuction",
            "label": "adminRole",
            "offset": 0,
            "slot": "1",
            "type": "t_bytes32"
          }
        ],
        "numberOfBytes": "64"
      },
      "t_uint256": {
        "encoding": "inplace",
        "label": "uint256",
        "numberOfBytes": "32"
      },
      "t_uint8": {
        "encoding": "inplace",
        "label": "uint8",
        "numberOfBytes": "1"
      }
    }
  }
}