{
  "address": "0x28e9139F3eE1f17efAAe8660F82890b5DEea277b",
  "abi": [
    {
      "inputs": [],
      "stateMutability": "nonpayable",
      "type": "constructor"
    },
    {
      "anonymous": false,
      "inputs": [
        {
          "indexed": false,
          "internalType": "address",
          "name": "previousAdmin",
          "type": "address"
        },
        {
          "indexed": false,
          "internalType": "address",
          "name": "newAdmin",
          "type": "address"
        }
      ],
      "name": "AdminChanged",
      "type": "event"
    },
    {
      "anonymous": false,
      "inputs": [
        {
          "indexed": true,
          "internalType": "address",
          "name": "beacon",
          "type": "address"
        }
      ],
      "name": "BeaconUpgraded",
      "type": "event"
    },
    {
      "anonymous": false,
      "inputs": [
        {
          "indexed": true,
          "internalType": "address",
          "name": "sender",
          "type": "address"
        },
        {
          "indexed": false,
          "internalType": "uint256",
          "name": "amount",
          "type": "uint256"
        }
      ],
      "name": "Bid",
      "type": "event"
    },
    {
      "anonymous": false,
      "inputs": [
        {
          "indexed": false,
          "internalType": "uint8",
          "name": "version",
          "type": "uint8"
        }
      ],
      "name": "Initialized",
      "type": "event"
    },
    {
      "anonymous": false,
      "inputs": [
        {
          "indexed": true,
          "internalType": "bytes32",
          "name": "role",
          "type": "bytes32"
        },
        {
          "indexed": true,
          "internalType": "bytes32",
          "name": "previousAdminRole",
          "type": "bytes32"
        },
        {
          "indexed": true,
          "internalType": "bytes32",
          "name": "newAdminRole",
          "type": "bytes32"
        }
      ],
      "name": "RoleAdminChanged",
      "type": "event"
    },
    {
      "anonymous": false,
      "inputs": [
        {
          "indexed": true,
          "internalType": "bytes32",
          "name": "role",
          "type": "bytes32"
        },
        {
          "indexed": true,
          "internalType": "address",
          "name": "account",
          "type": "address"
        },
        {
          "indexed": true,
          "internalType": "address",
          "name": "sender",
          "type": "address"
        }
      ],
      "name": "RoleGranted",
      "type": "event"
    },
    {
      "anonymous": false,
      "inputs": [
        {
          "indexed": true,
          "internalType": "bytes32",
          "name": "role",
          "type": "bytes32"
        },
        {
          "indexed": true,
          "internalType": "address",
          "name": "account",
          "type": "address"
        },
        {
          "indexed": true,
          "internalType": "address",
          "name": "sender",
          "type": "address"
        }
      ],
      "name": "RoleRevoked",
      "type": "event"
    },
    {
      "anonymous": false,
      "inputs": [
        {
          "indexed": false,
          "internalType": "uint256",
          "name": "startTime",
          "type": "uint256"
        }
      ],
      "name": "Start",
      "type": "event"
    },
    {
      "anonymous": false,
      "inputs": [
        {
          "indexed": true,
          "internalType": "address",
          "name": "implementation",
          "type": "address"
        }
      ],
      "name": "Upgraded",
      "type": "event"
    },
    {
      "anonymous": false,
      "inputs": [
        {
          "indexed": true,
          "internalType": "address",
          "name": "bidder",
          "type": "address"
        },
        {
          "indexed": false,
          "internalType": "uint256",
          "name": "amount",
          "type": "uint256"
        }
      ],
      "name": "Withdraw",
      "type": "event"
    },
    {
      "inputs": [],
      "name": "DEFAULT_ADMIN_ROLE",
      "outputs": [
        {
          "internalType": "bytes32",
          "name": "",
          "type": "bytes32"
        }
      ],
      "stateMutability": "view",
      "type": "function"
    },
    {
      "inputs": [],
      "name": "acceptableToken",
      "outputs": [
        {
          "internalType": "address",
          "name": "",
          "type": "address"
        }
      ],
      "stateMutability": "view",
      "type": "function"
    },
    {
      "inputs": [],
      "name": "asset",
      "outputs": [
        {
          "internalType": "enum AuctionLib.TokenType",
          "name": "token",
          "type": "uint8"
        },
        {
          "internalType": "address",
          "name": "contractAddr",
          "type": "address"
        },
        {
          "internalType": "uint256",
          "name": "tokenId",
          "type": "uint256"
        }
      ],
      "stateMutability": "view",
      "type": "function"
    },
    {
      "inputs": [],
      "name": "auctionDuration",
      "outputs": [
        {
          "internalType": "uint256",
          "name": "",
          "type": "uint256"
        }
      ],
      "stateMutability": "view",
      "type": "function"
    },
    {
      "inputs": [
        {
          "internalType": "uint256",
          "name": "amount",
          "type": "uint256"
        }
      ],
      "name": "bid",
      "outputs": [],
      "stateMutability": "nonpayable",
      "type": "function"
    },
    {
      "inputs": [
        {
          "internalType": "address",
          "name": "",
          "type": "address"
        }
      ],
      "name": "bids",
      "outputs": [
        {
          "internalType": "uint256",
          "name": "",
          "type": "uint256"
        }
      ],
      "stateMutability": "view",
      "type": "function"
    },
    {
      "inputs": [],
      "name": "endAt",
      "outputs": [
        {
          "internalType": "uint256",
          "name": "",
          "type": "uint256"
        }
      ],
      "stateMutability": "view",
      "type": "function"
    },
    {
      "inputs": [],
      "name": "getCurrentBid",
      "outputs": [
        {
          "internalType": "uint256",
          "name": "",
          "type": "uint256"
        }
      ],
      "stateMutability": "view",
      "type": "function"
    },
    {
      "inputs": [],
      "name": "getImplementation",
      "outputs": [
        {
          "internalType": "address",
          "name": "",
          "type": "address"
        }
      ],
      "stateMutability": "view",
      "type": "function"
    },
    {
      "inputs": [],
      "name": "getRemainingTime",
      "outputs": [
        {
          "internalType": "uint256",
          "name": "",
          "type": "uint256"
        }
      ],
      "stateMutability": "view",
      "type": "function"
    },
    {
      "inputs": [
        {
          "internalType": "bytes32",
          "name": "role",
          "type": "bytes32"
        }
      ],
      "name": "getRoleAdmin",
      "outputs": [
        {
          "internalType": "bytes32",
          "name": "",
          "type": "bytes32"
        }
      ],
      "stateMutability": "view",
      "type": "function"
    },
    {
      "inputs": [
        {
          "internalType": "bytes32",
          "name": "role",
          "type": "bytes32"
        },
        {
          "internalType": "address",
          "name": "account",
          "type": "address"
        }
      ],
      "name": "grantRole",
      "outputs": [],
      "stateMutability": "nonpayable",
      "type": "function"
    },
    {
      "inputs": [
        {
          "internalType": "address",
          "name": "to",
          "type": "address"
        }
      ],
      "name": "grantRouter",
      "outputs": [],
      "stateMutability": "nonpayable",
      "type": "function"
    },
    {
      "inputs": [
        {
          "internalType": "bytes32",
          "name": "role",
          "type": "bytes32"
        },
        {
          "internalType": "address",
          "name": "account",
          "type": "address"
        }
      ],
      "name": "hasRole",
      "outputs": [
        {
          "internalType": "bool",
          "name": "",
          "type": "bool"
        }
      ],
      "stateMutability": "view",
      "type": "function"
    },
    {
      "inputs": [],
      "name": "highestBidder",
      "outputs": [
        {
          "internalType": "address",
          "name": "",
          "type": "address"
        }
      ],
      "stateMutability": "view",
      "type": "function"
    },
    {
      "inputs": [
        {
          "internalType": "address payable",
          "name": "_seller",
          "type": "address"
        },
        {
          "components": [
            {
              "internalType": "enum AuctionLib.TokenType",
              "name": "token",
              "type": "uint8"
            },
            {
              "internalType": "address",
              "name": "contractAddr",
              "type": "address"
            },
            {
              "internalType": "uint256",
              "name": "tokenId",
              "type": "uint256"
            }
          ],
          "internalType": "struct AuctionLib.Asset",
          "name": "_asset",
          "type": "tuple"
        },
        {
          "internalType": "address",
          "name": "ERC20contractAddress",
          "type": "address"
        },
        {
          "internalType": "uint256",
          "name": "_startPrice",
          "type": "uint256"
        },
        {
          "internalType": "uint256",
          "name": "_auctionDuration",
          "type": "uint256"
        },
        {
          "internalType": "uint256",
          "name": "_resetTime",
          "type": "uint256"
        },
        {
          "internalType": "uint256",
          "name": "_saleFee",
          "type": "uint256"
        },
        {
          "internalType": "address payable",
          "name": "_saleFeeAddress",
          "type": "address"
        },
        {
          "internalType": "address",
          "name": "_forwarder",
          "type": "address"
        }
      ],
      "name": "initialize",
      "outputs": [],
      "stateMutability": "nonpayable",
      "type": "function"
    },
    {
      "inputs": [
        {
          "internalType": "address",
          "name": "forwarder",
          "type": "address"
        }
      ],
      "name": "isTrustedForwarder",
      "outputs": [
        {
          "internalType": "bool",
          "name": "",
          "type": "bool"
        }
      ],
      "stateMutability": "view",
      "type": "function"
    },
    {
      "inputs": [
        {
          "internalType": "address",
          "name": "",
          "type": "address"
        },
        {
          "internalType": "address",
          "name": "",
          "type": "address"
        },
        {
          "internalType": "uint256[]",
          "name": "",
          "type": "uint256[]"
        },
        {
          "internalType": "uint256[]",
          "name": "",
          "type": "uint256[]"
        },
        {
          "internalType": "bytes",
          "name": "",
          "type": "bytes"
        }
      ],
      "name": "onERC1155BatchReceived",
      "outputs": [
        {
          "internalType": "bytes4",
          "name": "",
          "type": "bytes4"
        }
      ],
      "stateMutability": "nonpayable",
      "type": "function"
    },
    {
      "inputs": [
        {
          "internalType": "address",
          "name": "",
          "type": "address"
        },
        {
          "internalType": "address",
          "name": "",
          "type": "address"
        },
        {
          "internalType": "uint256",
          "name": "",
          "type": "uint256"
        },
        {
          "internalType": "uint256",
          "name": "",
          "type": "uint256"
        },
        {
          "internalType": "bytes",
          "name": "",
          "type": "bytes"
        }
      ],
      "name": "onERC1155Received",
      "outputs": [
        {
          "internalType": "bytes4",
          "name": "",
          "type": "bytes4"
        }
      ],
      "stateMutability": "nonpayable",
      "type": "function"
    },
    {
      "inputs": [
        {
          "internalType": "address",
          "name": "",
          "type": "address"
        },
        {
          "internalType": "address",
          "name": "",
          "type": "address"
        },
        {
          "internalType": "uint256",
          "name": "",
          "type": "uint256"
        },
        {
          "internalType": "bytes",
          "name": "",
          "type": "bytes"
        }
      ],
      "name": "onERC721Received",
      "outputs": [
        {
          "internalType": "bytes4",
          "name": "",
          "type": "bytes4"
        }
      ],
      "stateMutability": "nonpayable",
      "type": "function"
    },
    {
      "inputs": [],
      "name": "ownerClaim",
      "outputs": [],
      "stateMutability": "nonpayable",
      "type": "function"
    },
    {
      "inputs": [],
      "name": "ownerClaimed",
      "outputs": [
        {
          "internalType": "bool",
          "name": "",
          "type": "bool"
        }
      ],
      "stateMutability": "view",
      "type": "function"
    },
    {
      "inputs": [],
      "name": "proxiableUUID",
      "outputs": [
        {
          "internalType": "bytes32",
          "name": "",
          "type": "bytes32"
        }
      ],
      "stateMutability": "view",
      "type": "function"
    },
    {
      "inputs": [
        {
          "internalType": "address payable",
          "name": "_seller",
          "type": "address"
        },
        {
          "components": [
            {
              "internalType": "enum AuctionLib.TokenType",
              "name": "token",
              "type": "uint8"
            },
            {
              "internalType": "address",
              "name": "contractAddr",
              "type": "address"
            },
            {
              "internalType": "uint256",
              "name": "tokenId",
              "type": "uint256"
            }
          ],
          "internalType": "struct AuctionLib.Asset",
          "name": "_asset",
          "type": "tuple"
        },
        {
          "internalType": "address",
          "name": "ERC20contractAddress",
          "type": "address"
        },
        {
          "internalType": "uint256",
          "name": "_startPrice",
          "type": "uint256"
        },
        {
          "internalType": "uint256",
          "name": "_auctionDuration",
          "type": "uint256"
        },
        {
          "internalType": "uint256",
          "name": "_resetTime",
          "type": "uint256"
        },
        {
          "internalType": "uint256",
          "name": "_saleFee",
          "type": "uint256"
        },
        {
          "internalType": "address payable",
          "name": "_saleFeeAddress",
          "type": "address"
        },
        {
          "internalType": "address",
          "name": "_forwarder",
          "type": "address"
        }
      ],
      "name": "proxyInitialize",
      "outputs": [],
      "stateMutability": "nonpayable",
      "type": "function"
    },
    {
      "inputs": [
        {
          "internalType": "bytes32",
          "name": "role",
          "type": "bytes32"
        },
        {
          "internalType": "address",
          "name": "account",
          "type": "address"
        }
      ],
      "name": "renounceRole",
      "outputs": [],
      "stateMutability": "nonpayable",
      "type": "function"
    },
    {
      "inputs": [],
      "name": "resetTime",
      "outputs": [
        {
          "internalType": "uint256",
          "name": "",
          "type": "uint256"
        }
      ],
      "stateMutability": "view",
      "type": "function"
    },
    {
      "inputs": [
        {
          "internalType": "bytes32",
          "name": "role",
          "type": "bytes32"
        },
        {
          "internalType": "address",
          "name": "account",
          "type": "address"
        }
      ],
      "name": "revokeRole",
      "outputs": [],
      "stateMutability": "nonpayable",
      "type": "function"
    },
    {
      "inputs": [],
      "name": "saleFee",
      "outputs": [
        {
          "internalType": "uint256",
          "name": "",
          "type": "uint256"
        }
      ],
      "stateMutability": "view",
      "type": "function"
    },
    {
      "inputs": [],
      "name": "saleFeeAddress",
      "outputs": [
        {
          "internalType": "address payable",
          "name": "",
          "type": "address"
        }
      ],
      "stateMutability": "view",
      "type": "function"
    },
    {
      "inputs": [],
      "name": "seller",
      "outputs": [
        {
          "internalType": "address payable",
          "name": "",
          "type": "address"
        }
      ],
      "stateMutability": "view",
      "type": "function"
    },
    {
      "inputs": [],
      "name": "startPrice",
      "outputs": [
        {
          "internalType": "uint256",
          "name": "",
          "type": "uint256"
        }
      ],
      "stateMutability": "view",
      "type": "function"
    },
    {
      "inputs": [
        {
          "internalType": "bytes4",
          "name": "interfaceId",
          "type": "bytes4"
        }
      ],
      "name": "supportsInterface",
      "outputs": [
        {
          "internalType": "bool",
          "name": "",
          "type": "bool"
        }
      ],
      "stateMutability": "view",
      "type": "function"
    },
    {
      "inputs": [
        {
          "internalType": "address",
          "name": "newImplementation",
          "type": "address"
        }
      ],
      "name": "upgradeTo",
      "outputs": [],
      "stateMutability": "nonpayable",
      "type": "function"
    },
    {
      "inputs": [
        {
          "internalType": "address",
          "name": "newImplementation",
          "type": "address"
        },
        {
          "internalType": "bytes",
          "name": "data",
          "type": "bytes"
        }
      ],
      "name": "upgradeToAndCall",
      "outputs": [],
      "stateMutability": "payable",
      "type": "function"
    },
    {
      "inputs": [],
      "name": "version",
      "outputs": [
        {
          "internalType": "string",
          "name": "",
          "type": "string"
        }
      ],
      "stateMutability": "view",
      "type": "function"
    },
    {
      "inputs": [],
      "name": "versionRecipient",
      "outputs": [
        {
          "internalType": "string",
          "name": "",
          "type": "string"
        }
      ],
      "stateMutability": "pure",
      "type": "function"
    },
    {
      "inputs": [],
      "name": "winnerClaim",
      "outputs": [],
      "stateMutability": "nonpayable",
      "type": "function"
    },
    {
      "inputs": [],
      "name": "winnerClaimed",
      "outputs": [
        {
          "internalType": "bool",
          "name": "",
          "type": "bool"
        }
      ],
      "stateMutability": "view",
      "type": "function"
    },
    {
      "inputs": [],
      "name": "withdraw",
      "outputs": [],
      "stateMutability": "nonpayable",
      "type": "function"
    }
  ],
  "transactionHash": "0x3b9b5dc8b1d80c678cd180febf0768f30e5b237d5b66eecab7cd298fd39f4804",
  "args": [],
  "numDeployments": 1,
  "solcInputHash": "28b4d2e2155903f56ed1fc988848ec0f",
  "bytecode": "0x60a0604052306080523480156200001557600080fd5b506200002062000026565b620000e8565b600054610100900460ff1615620000935760405162461bcd60e51b815260206004820152602760248201527f496e697469616c697a61626c653a20636f6e747261637420697320696e697469604482015266616c697a696e6760c81b606482015260840160405180910390fd5b60005460ff9081161015620000e6576000805460ff191660ff9081179091556040519081527f7f26b83ff96e1f2b6a682f133852f6798a09c465da95921460cefb38474024989060200160405180910390a15b565b608051612cd262000120600039600081816108bb015281816108fb0152818161123a0152818161127a01526112f20152612cd26000f3fe6080604052600436106102305760003560e01c8063572b6c051161012e578063a217fddf116100ab578063d547741f1161006f578063d547741f146106ea578063de99f2cb1461070a578063efb98bcf1461072b578063f1a9af8914610740578063f23a6e611461075757600080fd5b8063a217fddf1461065f578063a2abe93e14610674578063aaf10f4214610689578063bc197c811461069e578063c4211d9c146106ca57600080fd5b80637f1ecfe0116100f25780637f1ecfe0146105ae57806387bcaeb3146105dd57806391d14854146105fe57806391f901571461061e57806398c76d251461063f57600080fd5b8063572b6c051461051057806362ea82db1461053057806365a114f11461055e5780636c66cbb9146105755780637cc3ae8c1461059757600080fd5b80633659cfe6116101bc5780634bc99a71116101805780634bc99a71146104835780634dbe5889146104a35780634f1ef286146104b857806352d1902d146104cb57806354fd4d50146104e057600080fd5b80633659cfe6146103b757806338d52e0f146103d75780633ccfd60b14610417578063454a2ab31461042c578063486ff0cd1461044c57600080fd5b8063178021e311610203578063178021e31461030c578063180cc7ca14610323578063248a9ca3146103455780632f2ff15d1461037557806336568abe1461039757600080fd5b806301ffc9a71461023557806308551a531461026a5780630cbf54c8146102a3578063150b7a02146102c8575b600080fd5b34801561024157600080fd5b506102556102503660046123c7565b610783565b60405190151581526020015b60405180910390f35b34801561027657600080fd5b506101945461028b906001600160a01b031681565b6040516001600160a01b039091168152602001610261565b3480156102af57600080fd5b506102ba6101975481565b604051908152602001610261565b3480156102d457600080fd5b506102f36102e33660046124bd565b630a85bd0160e11b949350505050565b6040516001600160e01b03199091168152602001610261565b34801561031857600080fd5b506102ba61019a5481565b34801561032f57600080fd5b506101955461025590600160a01b900460ff1681565b34801561035157600080fd5b506102ba610360366004612529565b600090815260c9602052604090206001015490565b34801561038157600080fd5b50610395610390366004612542565b6107f3565b005b3480156103a357600080fd5b506103956103b2366004612542565b61081d565b3480156103c357600080fd5b506103956103d2366004612572565b6108b0565b3480156103e357600080fd5b5061019154610192546104089160ff8116916101009091046001600160a01b03169083565b604051610261939291906125a5565b34801561042357600080fd5b50610395610979565b34801561043857600080fd5b50610395610447366004612529565b610b41565b34801561045857600080fd5b50604080518082019091526005815264191719171b60d91b60208201525b604051610261919061263c565b34801561048f57600080fd5b5061039561049e36600461264f565b610d70565b3480156104af57600080fd5b50610395610e93565b6103956104c63660046126f3565b61122f565b3480156104d757600080fd5b506102ba6112e5565b3480156104ec57600080fd5b506104766040518060400160405280600481526020016376302e3160e01b81525081565b34801561051c57600080fd5b5061025561052b366004612572565b611398565b34801561053c57600080fd5b506102ba61054b366004612572565b61019c6020526000908152604090205481565b34801561056a57600080fd5b506102ba6101995481565b34801561058157600080fd5b506101955461025590600160a81b900460ff1681565b3480156105a357600080fd5b506102ba6101965481565b3480156105ba57600080fd5b5061019b546001600160a01b0316600090815261019c60205260409020546102ba565b3480156105e957600080fd5b506101955461028b906001600160a01b031681565b34801561060a57600080fd5b50610255610619366004612542565b6113ae565b34801561062a57600080fd5b5061019b5461028b906001600160a01b031681565b34801561064b57600080fd5b5061039561065a366004612572565b6113d9565b34801561066b57600080fd5b506102ba600081565b34801561068057600080fd5b506103956113fc565b34801561069557600080fd5b5061028b61164a565b3480156106aa57600080fd5b506102f36106b93660046127b8565b63bc197c8160e01b95945050505050565b3480156106d657600080fd5b506103956106e536600461264f565b611659565b3480156106f657600080fd5b50610395610705366004612542565b61169c565b34801561071657600080fd5b506101935461028b906001600160a01b031681565b34801561073757600080fd5b506102ba6116c1565b34801561074c57600080fd5b506102ba6101985481565b34801561076357600080fd5b506102f3610772366004612866565b63f23a6e6160e01b95945050505050565b60006040518060400160405280600481526020016376302e3160e01b8152506040516020016107b291906128cf565b604051602081830303815290604052805190602001206001600160e01b031916826001600160e01b03191614806107ed57506107ed826116e2565b92915050565b600082815260c9602052604090206001015461080e81611707565b6108188383611718565b505050565b61082561179f565b6001600160a01b0316816001600160a01b0316146108a25760405162461bcd60e51b815260206004820152602f60248201527f416363657373436f6e74726f6c3a2063616e206f6e6c792072656e6f756e636560448201526e103937b632b9903337b91039b2b63360891b60648201526084015b60405180910390fd5b6108ac82826117dc565b5050565b306001600160a01b037f00000000000000000000000000000000000000000000000000000000000000001614156108f95760405162461bcd60e51b815260040161089990612914565b7f00000000000000000000000000000000000000000000000000000000000000006001600160a01b031661092b611861565b6001600160a01b0316146109515760405162461bcd60e51b815260040161089990612960565b61095a8161187d565b6040805160008082526020820190925261097691839190611888565b50565b61019b546001600160a01b031661098e61179f565b6001600160a01b03161415610a015760405162461bcd60e51b815260206004820152603360248201527f456e676c69736841756374696f6e3a207468652068696768657374206269646460448201527265722063616e6e6f742077697468647261772160681b6064820152608401610899565b600061019c6000610a1061179f565b6001600160a01b03166001600160a01b03168152602001908152602001600020549050600061019c6000610a4261179f565b6001600160a01b039081168252602082019290925260400160002091909155610193541663a9059cbb610a7361179f565b6040516001600160e01b031960e084901b1681526001600160a01b03909116600482015260248101849052604401602060405180830381600087803b158015610abb57600080fd5b505af1158015610acf573d6000803e3d6000fd5b505050506040513d601f19601f82011682018060405250810190610af391906129ac565b50610afc61179f565b6001600160a01b03167f884edad9ce6fa2440d8a54cc123490eb96d2768479d49ff9c7366125a942436482604051610b3691815260200190565b60405180910390a250565b610196544210610b8b5760405162461bcd60e51b8152602060048201526015602482015274115b99db1a5cda105d58dd1a5bdb8e88195b991959605a1b6044820152606401610899565b61019b546001600160a01b0316600090815261019c60205260409020548111610bf65760405162461bcd60e51b815260206004820181905260248201527f456e676c69736841756374696f6e3a2076616c7565203c3d20686967686573746044820152606401610899565b610bfe61179f565b61019b80546001600160a01b0319166001600160a01b0392909216919091179055600061019c81610c2d61179f565b6001600160a01b03166001600160a01b0316815260200190815260200160002054905061019c6000610c5d61179f565b6001600160a01b03168152602081019190915260400160002054610c8190836129e4565b61019c6000610c8e61179f565b6001600160a01b03166001600160a01b031681526020019081526020016000206000828254610cbd91906129fb565b909155505061019354610ceb906001600160a01b0316610cdb61179f565b30610ce685876129e4565b611a02565b610199544261019654610cfe91906129e4565b1015610d225761019954610d1290426129fb565b610d1d906001612a13565b610196555b610d2a61179f565b6001600160a01b03167fe684a55f31b79eca403df938249029212a5925ec6be8012e099b45bc1019e5d283604051610d6491815260200190565b60405180910390a25050565b600054610100900460ff1615808015610d905750600054600160ff909116105b80610daa5750303b158015610daa575060005460ff166001145b610e0d5760405162461bcd60e51b815260206004820152602e60248201527f496e697469616c697a61626c653a20636f6e747261637420697320616c72656160448201526d191e481a5b9a5d1a585b1a5e995960921b6064820152608401610899565b6000805460ff191660011790558015610e30576000805461ff0019166101001790555b610e418a8a8a8a8a8a8a8a8a611a5a565b8015610e87576000805461ff0019169055604051600181527f7f26b83ff96e1f2b6a682f133852f6798a09c465da95921460cefb38474024989060200160405180910390a15b50505050505050505050565b6000610e9e81611707565b61019654421015610eed5760405162461bcd60e51b8152602060048201526019602482015278115b99db1a5cda105d58dd1a5bdb8e881b9bdd08195b991959603a1b6044820152606401610899565b61019554600160a01b900460ff1615610f5a5760405162461bcd60e51b815260206004820152602960248201527f456e676c69736841756374696f6e3a206f776e65722068617320616c726561646044820152681e4818db185a5b595960ba1b6064820152608401610899565b610195805460ff60a01b1916600160a01b17905561019b546001600160a01b03161561114257610193546101955461019b546001600160a01b03908116600090815261019c602052604090205461019a549382169363a9059cbb9390921691606491610fc591612a13565b610fcf9190612a32565b6040516001600160e01b031960e085901b1681526001600160a01b0390921660048301526024820152604401602060405180830381600087803b15801561101557600080fd5b505af1158015611029573d6000803e3d6000fd5b505050506040513d601f19601f8201168201806040525081019061104d91906129ac565b50610193546101945461019b546001600160a01b03908116600090815261019c602052604090205461019a549382169363a9059cbb939092169160649161109391612a13565b61109d9190612a32565b61019b546001600160a01b0316600090815261019c60205260409020546110c491906129e4565b6040516001600160e01b031960e085901b1681526001600160a01b0390921660048301526024820152604401602060405180830381600087803b15801561110a57600080fd5b505af115801561111e573d6000803e3d6000fd5b505050506040513d601f19601f820116820180604052508101906108ac91906129ac565b60006101915460ff16600181111561115c5761115c61258f565b14156111da57610191546101945461019254604051632142170760e11b81526101009093046001600160a01b03908116936342842e0e936111a593309390911691600401612a54565b600060405180830381600087803b1580156111bf57600080fd5b505af11580156111d3573d6000803e3d6000fd5b5050505050565b61019154610194546101925460408051600081526020810191829052637921219560e11b9091526001600160a01b0361010090940484169363f242432a936111a5933093929091169160019060248101612a78565b306001600160a01b037f00000000000000000000000000000000000000000000000000000000000000001614156112785760405162461bcd60e51b815260040161089990612914565b7f00000000000000000000000000000000000000000000000000000000000000006001600160a01b03166112aa611861565b6001600160a01b0316146112d05760405162461bcd60e51b815260040161089990612960565b6112d98261187d565b6108ac82826001611888565b6000306001600160a01b037f000000000000000000000000000000000000000000000000000000000000000016146113855760405162461bcd60e51b815260206004820152603860248201527f555550535570677261646561626c653a206d757374206e6f742062652063616c60448201527f6c6564207468726f7567682064656c656761746563616c6c00000000000000006064820152608401610899565b50600080516020612c3683398151915290565b60006107ed600080516020612c7d833981519152835b600091825260c9602090815260408084206001600160a01b0393909316845291905290205460ff1690565b60006113e481611707565b6108ac600080516020612c7d83398151915283611718565b6101965442101561144b5760405162461bcd60e51b8152602060048201526019602482015278115b99db1a5cda105d58dd1a5bdb8e881b9bdd08195b991959603a1b6044820152606401610899565b61019554600160a81b900460ff16156114b95760405162461bcd60e51b815260206004820152602a60248201527f456e676c69736841756374696f6e3a2077696e6e65722068617320616c726561604482015269191e4818db185a5b595960b21b6064820152608401610899565b61019b546001600160a01b03166114ce61179f565b6001600160a01b03161461154a5760405162461bcd60e51b815260206004820152603960248201527f456e676c69736841756374696f6e3a20796f7520617265206e6f74207468652060448201527f77696e6e65722c20796f752063616e6e6f7420636c61696d21000000000000006064820152608401610899565b610195805460ff60a81b1916600160a81b17905560006101915460ff1660018111156115785761157861258f565b14156115f5576101915461019b5461019254604051632142170760e11b81526101009093046001600160a01b03908116936342842e0e936115c193309390911691600401612a54565b600060405180830381600087803b1580156115db57600080fd5b505af11580156115ef573d6000803e3d6000fd5b50505050565b6101915461019b546101925460408051600081526020810191829052637921219560e11b9091526001600160a01b0361010090940484169363f242432a936115c1933093929091169160019060248101612a78565b6000611654611861565b905090565b600054610100900460ff166116805760405162461bcd60e51b815260040161089990612ab2565b611691898989898989898989611a5a565b505050505050505050565b600082815260c960205260409020600101546116b781611707565b61081883836117dc565b60006101965442106116d35750600090565b426101965461165491906129e4565b60006001600160e01b03198216630271189760e51b14806107ed57506107ed82611a9b565b6109768161171361179f565b611ad0565b61172282826113ae565b6108ac57600082815260c9602090815260408083206001600160a01b03851684529091529020805460ff1916600117905561175b61179f565b6001600160a01b0316816001600160a01b0316837f2f8788117e7eff1d82e926ec794901d17c78024a50270940304540a733656f0d60405160405180910390a45050565b6000601436108015906117c557506117c5600080516020612c7d833981519152336113ae565b156117d7575060131936013560601c90565b503390565b6117e682826113ae565b156108ac57600082815260c9602090815260408083206001600160a01b03851684529091529020805460ff1916905561181d61179f565b6001600160a01b0316816001600160a01b0316837ff6391f5c32d9c69d2a47ea670b442974b53935d1edc7fd64eb21e047a839171b60405160405180910390a45050565b600080516020612c36833981519152546001600160a01b031690565b60006108ac81611707565b7f4910fdfa16fed3260ed0e7147f7cc6da11a60208b5b9406d12a635614ffd91435460ff16156118bb5761081883611b34565b826001600160a01b03166352d1902d6040518163ffffffff1660e01b815260040160206040518083038186803b1580156118f457600080fd5b505afa925050508015611924575060408051601f3d908101601f1916820190925261192191810190612afd565b60015b6119875760405162461bcd60e51b815260206004820152602e60248201527f45524331393637557067726164653a206e657720696d706c656d656e7461746960448201526d6f6e206973206e6f74205555505360901b6064820152608401610899565b600080516020612c3683398151915281146119f65760405162461bcd60e51b815260206004820152602960248201527f45524331393637557067726164653a20756e737570706f727465642070726f786044820152681a58589b195555525160ba1b6064820152608401610899565b50610818838383611bd0565b6115ef846323b872dd60e01b858585604051602401611a2393929190612a54565b60408051601f198184030181529190526020810180516001600160e01b03166001600160e01b031990931692909217909152611bf5565b600054610100900460ff16611a815760405162461bcd60e51b815260040161089990612ab2565b611a8b8982611cc7565b6116918989898989898989611d1b565b60006001600160e01b03198216637965db0b60e01b14806107ed57506301ffc9a760e01b6001600160e01b03198316146107ed565b611ada82826113ae565b6108ac57611af2816001600160a01b03166014611f48565b611afd836020611f48565b604051602001611b0e929190612b16565b60408051601f198184030181529082905262461bcd60e51b82526108999160040161263c565b6001600160a01b0381163b611ba15760405162461bcd60e51b815260206004820152602d60248201527f455243313936373a206e657720696d706c656d656e746174696f6e206973206e60448201526c1bdd08184818dbdb9d1c9858dd609a1b6064820152608401610899565b600080516020612c3683398151915280546001600160a01b0319166001600160a01b0392909216919091179055565b611bd9836120eb565b600082511180611be65750805b15610818576115ef838361212b565b6000611c4a826040518060400160405280602081526020017f5361666545524332303a206c6f772d6c6576656c2063616c6c206661696c6564815250856001600160a01b031661221f9092919063ffffffff16565b8051909150156108185780806020019051810190611c6891906129ac565b6108185760405162461bcd60e51b815260206004820152602a60248201527f5361666545524332303a204552433230206f7065726174696f6e20646964206e6044820152691bdd081cdd58d8d9595960b21b6064820152608401610899565b600054610100900460ff16611cee5760405162461bcd60e51b815260040161089990612ab2565b611cf88282612236565b611d03600083611718565b6108ac600080516020612c7d83398151915282611718565b600054610100900460ff16611d425760405162461bcd60e51b815260040161089990612ab2565b6064821115611db05760405162461bcd60e51b815260206004820152603460248201527f456e676c69736841756374696f6e3a2073616c654665652063616e6e6f742062604482015273652061626f7665203130302070657263656e742160601b6064820152608401610899565b86610191611dbe8282612b8b565b505061019380546001600160a01b038089166001600160a01b03199283161790925561019480548b841690831617905561019786905561019887905561019985905561019a84905561019580549284169290911691909117905560006101915460ff166001811115611e3257611e3261258f565b1415611eb1576101915461019454610192546040516323b872dd60e01b81526001600160a01b036101009094048416936323b872dd93611e7a93911691309190600401612a54565b600060405180830381600087803b158015611e9457600080fd5b505af1158015611ea8573d6000803e3d6000fd5b50505050611f25565b60016101915460ff166001811115611ecb57611ecb61258f565b14156102305761019154610194546101925460408051600081526020810191829052637921219560e11b9091526101009093046001600160a01b039081169363f242432a93611e7a93921691309160019060248101612a78565b611f30846001612a13565b611f3a90426129fb565b610196555050505050505050565b60606000611f57836002612a13565b611f629060026129fb565b67ffffffffffffffff811115611f7a57611f7a612406565b6040519080825280601f01601f191660200182016040528015611fa4576020820181803683370190505b509050600360fc1b81600081518110611fbf57611fbf612bec565b60200101906001600160f81b031916908160001a905350600f60fb1b81600181518110611fee57611fee612bec565b60200101906001600160f81b031916908160001a9053506000612012846002612a13565b61201d9060016129fb565b90505b6001811115612095576f181899199a1a9b1b9c1cb0b131b232b360811b85600f166010811061205157612051612bec565b1a60f81b82828151811061206757612067612bec565b60200101906001600160f81b031916908160001a90535060049490941c9361208e81612c02565b9050612020565b5083156120e45760405162461bcd60e51b815260206004820181905260248201527f537472696e67733a20686578206c656e67746820696e73756666696369656e746044820152606401610899565b9392505050565b6120f481611b34565b6040516001600160a01b038216907fbc7cd75a20ee27fd9adebab32041f755214dbc6bffa90cc0225b39da2e5c2d3b90600090a250565b60606001600160a01b0383163b6121935760405162461bcd60e51b815260206004820152602660248201527f416464726573733a2064656c65676174652063616c6c20746f206e6f6e2d636f6044820152651b9d1c9858dd60d21b6064820152608401610899565b600080846001600160a01b0316846040516121ae9190612c19565b600060405180830381855af49150503d80600081146121e9576040519150601f19603f3d011682016040523d82523d6000602084013e6121ee565b606091505b50915091506122168282604051806060016040528060278152602001612c566027913961225d565b95945050505050565b606061222e8484600085612296565b949350505050565b600054610100900460ff166108ac5760405162461bcd60e51b815260040161089990612ab2565b6060831561226c5750816120e4565b82511561227c5782518084602001fd5b8160405162461bcd60e51b8152600401610899919061263c565b6060824710156122f75760405162461bcd60e51b815260206004820152602660248201527f416464726573733a20696e73756666696369656e742062616c616e636520666f6044820152651c8818d85b1b60d21b6064820152608401610899565b6001600160a01b0385163b61234e5760405162461bcd60e51b815260206004820152601d60248201527f416464726573733a2063616c6c20746f206e6f6e2d636f6e74726163740000006044820152606401610899565b600080866001600160a01b0316858760405161236a9190612c19565b60006040518083038185875af1925050503d80600081146123a7576040519150601f19603f3d011682016040523d82523d6000602084013e6123ac565b606091505b50915091506123bc82828661225d565b979650505050505050565b6000602082840312156123d957600080fd5b81356001600160e01b0319811681146120e457600080fd5b6001600160a01b038116811461097657600080fd5b634e487b7160e01b600052604160045260246000fd5b604051601f8201601f1916810167ffffffffffffffff8111828210171561244557612445612406565b604052919050565b600082601f83011261245e57600080fd5b813567ffffffffffffffff81111561247857612478612406565b61248b601f8201601f191660200161241c565b8181528460208386010111156124a057600080fd5b816020850160208301376000918101602001919091529392505050565b600080600080608085870312156124d357600080fd5b84356124de816123f1565b935060208501356124ee816123f1565b925060408501359150606085013567ffffffffffffffff81111561251157600080fd5b61251d8782880161244d565b91505092959194509250565b60006020828403121561253b57600080fd5b5035919050565b6000806040838503121561255557600080fd5b823591506020830135612567816123f1565b809150509250929050565b60006020828403121561258457600080fd5b81356120e4816123f1565b634e487b7160e01b600052602160045260246000fd5b60608101600285106125c757634e487b7160e01b600052602160045260246000fd5b9381526001600160a01b0392909216602083015260409091015290565b60005b838110156125ff5781810151838201526020016125e7565b838111156115ef5750506000910152565b600081518084526126288160208601602086016125e4565b601f01601f19169290920160200192915050565b6020815260006120e46020830184612610565b6000806000806000806000806000898b0361016081121561266f57600080fd5b8a3561267a816123f1565b99506060601f198201121561268e57600080fd5b5060208a01975060808a01356126a3816123f1565b965060a08a0135955060c08a0135945060e08a013593506101008a013592506101208a01356126d1816123f1565b91506101408a01356126e2816123f1565b809150509295985092959850929598565b6000806040838503121561270657600080fd5b8235612711816123f1565b9150602083013567ffffffffffffffff81111561272d57600080fd5b6127398582860161244d565b9150509250929050565b600082601f83011261275457600080fd5b8135602067ffffffffffffffff82111561277057612770612406565b8160051b61277f82820161241c565b928352848101820192828101908785111561279957600080fd5b83870192505b848310156123bc5782358252918301919083019061279f565b600080600080600060a086880312156127d057600080fd5b85356127db816123f1565b945060208601356127eb816123f1565b9350604086013567ffffffffffffffff8082111561280857600080fd5b61281489838a01612743565b9450606088013591508082111561282a57600080fd5b61283689838a01612743565b9350608088013591508082111561284c57600080fd5b506128598882890161244d565b9150509295509295909350565b600080600080600060a0868803121561287e57600080fd5b8535612889816123f1565b94506020860135612899816123f1565b93506040860135925060608601359150608086013567ffffffffffffffff8111156128c357600080fd5b6128598882890161244d565b7f4f574c50726f746f636f6c3a2f2f456e676c69736841756374696f6e2f00000081526000825161290781601d8501602087016125e4565b91909101601d0192915050565b6020808252602c908201527f46756e6374696f6e206d7573742062652063616c6c6564207468726f7567682060408201526b19195b1959d85d1958d85b1b60a21b606082015260800190565b6020808252602c908201527f46756e6374696f6e206d7573742062652063616c6c6564207468726f7567682060408201526b6163746976652070726f787960a01b606082015260800190565b6000602082840312156129be57600080fd5b815180151581146120e457600080fd5b634e487b7160e01b600052601160045260246000fd5b6000828210156129f6576129f66129ce565b500390565b60008219821115612a0e57612a0e6129ce565b500190565b6000816000190483118215151615612a2d57612a2d6129ce565b500290565b600082612a4f57634e487b7160e01b600052601260045260246000fd5b500490565b6001600160a01b039384168152919092166020820152604081019190915260600190565b6001600160a01b03868116825285166020820152604081018490526060810183905260a0608082018190526000906123bc90830184612610565b6020808252602b908201527f496e697469616c697a61626c653a20636f6e7472616374206973206e6f74206960408201526a6e697469616c697a696e6760a81b606082015260800190565b600060208284031215612b0f57600080fd5b5051919050565b7f416363657373436f6e74726f6c3a206163636f756e7420000000000000000000815260008351612b4e8160178501602088016125e4565b7001034b99036b4b9b9b4b733903937b6329607d1b6017918401918201528351612b7f8160288401602088016125e4565b01602801949350505050565b813560028110612b9a57600080fd5b815460ff821691508160ff1982161783556020840135612bb9816123f1565b6001600160a81b03199190911690911760089190911b610100600160a81b03161781556040919091013560019190910155565b634e487b7160e01b600052603260045260246000fd5b600081612c1157612c116129ce565b506000190190565b60008251612c2b8184602087016125e4565b919091019291505056fe360894a13ba1a3210667c828492db98dca3e2076cc3735a920a3ca505d382bbc416464726573733a206c6f772d6c6576656c2064656c65676174652063616c6c206661696c65647a05a596cb0ce7fdea8a1e1ec73be300bdb35097c944ce1897202f7a13122eb2a264697066735822122019473696469c3a6c3ff372f9702bf9a17f7c2b6c89cd0b820c52932b75c9a76164736f6c63430008090033",
  "devdoc": {
    "details": "This contract is a standard English Auction smart contract that allows bidders to keep bidding until the highest bidder wins the asset. In an English Auction, the owner defines the starting price and bidders can make bids that are higher than the current price.* The auction duration is defined by the bids being made and if they are made within the resetTime. Theoretically, the auction can go on forever if higher bids continue to be made within the resetTime period.* Once the ending time is passed, the auction finishes and the NFT is transferred to the highest bidder.",
    "kind": "dev",
    "methods": {
      "bid(uint256)": {
        "details": "Allow a user to place a bid that must be higher than the highest bid",
        "params": {
          "amount": "to bid by the bidder"
        }
      },
      "constructor": {
        "custom:oz-upgrades-unsafe-allow": "constructor"
      },
      "getCurrentBid()": {
        "details": "Returns the current highest bid"
      },
      "getRemainingTime()": {
        "details": "Returns the remaining time in the auction"
      },
      "getRoleAdmin(bytes32)": {
        "details": "Returns the admin role that controls `role`. See {grantRole} and {revokeRole}. To change a role's admin, use {_setRoleAdmin}."
      },
      "grantRole(bytes32,address)": {
        "details": "Grants `role` to `account`. If `account` had not been already granted `role`, emits a {RoleGranted} event. Requirements: - the caller must have ``role``'s admin role. May emit a {RoleGranted} event."
      },
      "grantRouter(address)": {
        "details": "Grants ROUTER_ROLE to {a}",
        "params": {
          "to": "address to"
        }
      },
      "hasRole(bytes32,address)": {
        "details": "Returns `true` if `account` has been granted `role`."
      },
      "initialize(address,(uint8,address,uint256),address,uint256,uint256,uint256,uint256,address,address)": {
        "details": "Create English Auction instance",
        "params": {
          "ERC20contractAddress": "address of ERC20 token accepted as payment",
          "_asset": "struct containing information of the asset to be listed",
          "_auctionDuration": "duration of auction (in seconds)",
          "_forwarder": "the address for the Trusted Forwarder for Open GSN integration",
          "_resetTime": "time at which the auction resets when a bid is made within this time frame (in seconds)",
          "_saleFee": "the percentage of the sale to be sent to the original owner as commission",
          "_saleFeeAddress": "the address to which the sale fee is sent",
          "_seller": "address of seller for auction",
          "_startPrice": "start bid on nft"
        }
      },
      "isTrustedForwarder(address)": {
        "details": "Return trusted forwarder status."
      },
      "onERC721Received(address,address,uint256,bytes)": {
        "details": "See {IERC721Receiver-onERC721Received}. Always returns `IERC721Receiver.onERC721Received.selector`."
      },
      "ownerClaim()": {
        "details": "Allows owner to claim bid. The seller must call to transfer the ERC20 to themselves"
      },
      "proxiableUUID()": {
        "details": "Implementation of the ERC1822 {proxiableUUID} function. This returns the storage slot used by the implementation. It is used to validate that the this implementation remains valid after an upgrade. IMPORTANT: A proxy pointing at a proxiable contract should not be considered proxiable itself, because this risks bricking a proxy that upgrades to it, by delegating to itself until out of gas. Thus it is critical that this function revert if invoked through a proxy. This is guaranteed by the `notDelegated` modifier."
      },
      "renounceRole(bytes32,address)": {
        "details": "Revokes `role` from the calling account. Roles are often managed via {grantRole} and {revokeRole}: this function's purpose is to provide a mechanism for accounts to lose their privileges if they are compromised (such as when a trusted device is misplaced). If the calling account had been revoked `role`, emits a {RoleRevoked} event. Requirements: - the caller must be `account`. May emit a {RoleRevoked} event."
      },
      "revokeRole(bytes32,address)": {
        "details": "Revokes `role` from `account`. If `account` had been granted `role`, emits a {RoleRevoked} event. Requirements: - the caller must have ``role``'s admin role. May emit a {RoleRevoked} event."
      },
      "supportsInterface(bytes4)": {
        "details": "ERC165 Support",
        "params": {
          "interfaceId": "hash of the interface testing for"
        },
        "returns": {
          "_0": "bool whether interface is supported"
        }
      },
      "upgradeTo(address)": {
        "details": "Upgrade the implementation of the proxy to `newImplementation`. Calls {_authorizeUpgrade}. Emits an {Upgraded} event."
      },
      "upgradeToAndCall(address,bytes)": {
        "details": "Upgrade the implementation of the proxy to `newImplementation`, and subsequently execute the function call encoded in `data`. Calls {_authorizeUpgrade}. Emits an {Upgraded} event."
      },
      "winnerClaim()": {
        "details": "Allows auction winner to claim the asset they won and transfers ownership"
      },
      "withdraw()": {
        "details": "Allows a user to withdraw their bid."
      }
    },
    "version": 1
  },
  "userdoc": {
    "kind": "user",
    "methods": {
      "grantRouter(address)": {
        "notice": "Must have owner role"
      },
      "isTrustedForwarder(address)": {
        "notice": "**REQUIRED FOR GSN**"
      },
      "withdraw()": {
        "notice": "Highest bidder cannot withdraw"
      }
    },
    "version": 1
  },
  "storageLayout": {
    "storage": [
      {
        "astId": 3091,
        "contract": "contracts/finance/EnglishAuction.sol:EnglishAuction",
        "label": "_initialized",
        "offset": 0,
        "slot": "0",
        "type": "t_uint8"
      },
      {
        "astId": 3094,
        "contract": "contracts/finance/EnglishAuction.sol:EnglishAuction",
        "label": "_initializing",
        "offset": 1,
        "slot": "0",
        "type": "t_bool"
      },
      {
        "astId": 3073,
        "contract": "contracts/finance/EnglishAuction.sol:EnglishAuction",
        "label": "__gap",
        "offset": 0,
        "slot": "1",
        "type": "t_array(t_uint256)50_storage"
      },
      {
        "astId": 3370,
        "contract": "contracts/finance/EnglishAuction.sol:EnglishAuction",
        "label": "__gap",
        "offset": 0,
        "slot": "51",
        "type": "t_array(t_uint256)50_storage"
      },
      {
        "astId": 7537,
        "contract": "contracts/finance/EnglishAuction.sol:EnglishAuction",
        "label": "__gap",
        "offset": 0,
        "slot": "101",
        "type": "t_array(t_uint256)50_storage"
      },
      {
        "astId": 7941,
        "contract": "contracts/finance/EnglishAuction.sol:EnglishAuction",
        "label": "__gap",
        "offset": 0,
        "slot": "151",
        "type": "t_array(t_uint256)50_storage"
      },
      {
        "astId": 2110,
        "contract": "contracts/finance/EnglishAuction.sol:EnglishAuction",
        "label": "_roles",
        "offset": 0,
        "slot": "201",
        "type": "t_mapping(t_bytes32,t_struct(RoleData)2105_storage)"
      },
      {
        "astId": 2409,
        "contract": "contracts/finance/EnglishAuction.sol:EnglishAuction",
        "label": "__gap",
        "offset": 0,
        "slot": "202",
        "type": "t_array(t_uint256)49_storage"
      },
      {
        "astId": 7252,
        "contract": "contracts/finance/EnglishAuction.sol:EnglishAuction",
        "label": "__gap",
        "offset": 0,
        "slot": "251",
        "type": "t_array(t_uint256)50_storage"
      },
      {
        "astId": 5007,
        "contract": "contracts/finance/EnglishAuction.sol:EnglishAuction",
        "label": "__gap",
        "offset": 0,
        "slot": "301",
        "type": "t_array(t_uint256)50_storage"
      },
      {
        "astId": 4953,
        "contract": "contracts/finance/EnglishAuction.sol:EnglishAuction",
        "label": "__gap",
        "offset": 0,
        "slot": "351",
        "type": "t_array(t_uint256)50_storage"
      },
      {
        "astId": 15231,
        "contract": "contracts/finance/EnglishAuction.sol:EnglishAuction",
        "label": "asset",
        "offset": 0,
        "slot": "401",
        "type": "t_struct(Asset)14497_storage"
      },
      {
        "astId": 15233,
        "contract": "contracts/finance/EnglishAuction.sol:EnglishAuction",
        "label": "acceptableToken",
        "offset": 0,
        "slot": "403",
        "type": "t_address"
      },
      {
        "astId": 15235,
        "contract": "contracts/finance/EnglishAuction.sol:EnglishAuction",
        "label": "seller",
        "offset": 0,
        "slot": "404",
        "type": "t_address_payable"
      },
      {
        "astId": 15237,
        "contract": "contracts/finance/EnglishAuction.sol:EnglishAuction",
        "label": "saleFeeAddress",
        "offset": 0,
        "slot": "405",
        "type": "t_address_payable"
      },
      {
        "astId": 15239,
        "contract": "contracts/finance/EnglishAuction.sol:EnglishAuction",
        "label": "ownerClaimed",
        "offset": 20,
        "slot": "405",
        "type": "t_bool"
      },
      {
        "astId": 15241,
        "contract": "contracts/finance/EnglishAuction.sol:EnglishAuction",
        "label": "winnerClaimed",
        "offset": 21,
        "slot": "405",
        "type": "t_bool"
      },
      {
        "astId": 15243,
        "contract": "contracts/finance/EnglishAuction.sol:EnglishAuction",
        "label": "endAt",
        "offset": 0,
        "slot": "406",
        "type": "t_uint256"
      },
      {
        "astId": 15245,
        "contract": "contracts/finance/EnglishAuction.sol:EnglishAuction",
        "label": "auctionDuration",
        "offset": 0,
        "slot": "407",
        "type": "t_uint256"
      },
      {
        "astId": 15247,
        "contract": "contracts/finance/EnglishAuction.sol:EnglishAuction",
        "label": "startPrice",
        "offset": 0,
        "slot": "408",
        "type": "t_uint256"
      },
      {
        "astId": 15249,
        "contract": "contracts/finance/EnglishAuction.sol:EnglishAuction",
        "label": "resetTime",
        "offset": 0,
        "slot": "409",
        "type": "t_uint256"
      },
      {
        "astId": 15251,
        "contract": "contracts/finance/EnglishAuction.sol:EnglishAuction",
        "label": "saleFee",
        "offset": 0,
        "slot": "410",
        "type": "t_uint256"
      },
      {
        "astId": 15253,
        "contract": "contracts/finance/EnglishAuction.sol:EnglishAuction",
        "label": "highestBidder",
        "offset": 0,
        "slot": "411",
        "type": "t_address"
      },
      {
        "astId": 15257,
        "contract": "contracts/finance/EnglishAuction.sol:EnglishAuction",
        "label": "bids",
        "offset": 0,
        "slot": "412",
        "type": "t_mapping(t_address,t_uint256)"
      }
    ],
    "types": {
      "t_address": {
        "encoding": "inplace",
        "label": "address",
        "numberOfBytes": "20"
      },
      "t_address_payable": {
        "encoding": "inplace",
        "label": "address payable",
        "numberOfBytes": "20"
      },
      "t_array(t_uint256)49_storage": {
        "base": "t_uint256",
        "encoding": "inplace",
        "label": "uint256[49]",
        "numberOfBytes": "1568"
      },
      "t_array(t_uint256)50_storage": {
        "base": "t_uint256",
        "encoding": "inplace",
        "label": "uint256[50]",
        "numberOfBytes": "1600"
      },
      "t_bool": {
        "encoding": "inplace",
        "label": "bool",
        "numberOfBytes": "1"
      },
      "t_bytes32": {
        "encoding": "inplace",
        "label": "bytes32",
        "numberOfBytes": "32"
      },
      "t_enum(TokenType)14489": {
        "encoding": "inplace",
        "label": "enum AuctionLib.TokenType",
        "numberOfBytes": "1"
      },
      "t_mapping(t_address,t_bool)": {
        "encoding": "mapping",
        "key": "t_address",
        "label": "mapping(address => bool)",
        "numberOfBytes": "32",
        "value": "t_bool"
      },
      "t_mapping(t_address,t_uint256)": {
        "encoding": "mapping",
        "key": "t_address",
        "label": "mapping(address => uint256)",
        "numberOfBytes": "32",
        "value": "t_uint256"
      },
      "t_mapping(t_bytes32,t_struct(RoleData)2105_storage)": {
        "encoding": "mapping",
        "key": "t_bytes32",
        "label": "mapping(bytes32 => struct AccessControlUpgradeable.RoleData)",
        "numberOfBytes": "32",
        "value": "t_struct(RoleData)2105_storage"
      },
      "t_struct(Asset)14497_storage": {
        "encoding": "inplace",
        "label": "struct AuctionLib.Asset",
        "members": [
          {
            "astId": 14492,
            "contract": "contracts/finance/EnglishAuction.sol:EnglishAuction",
            "label": "token",
            "offset": 0,
            "slot": "0",
            "type": "t_enum(TokenType)14489"
          },
          {
            "astId": 14494,
            "contract": "contracts/finance/EnglishAuction.sol:EnglishAuction",
            "label": "contractAddr",
            "offset": 1,
            "slot": "0",
            "type": "t_address"
          },
          {
            "astId": 14496,
            "contract": "contracts/finance/EnglishAuction.sol:EnglishAuction",
            "label": "tokenId",
            "offset": 0,
            "slot": "1",
            "type": "t_uint256"
          }
        ],
        "numberOfBytes": "64"
      },
      "t_struct(RoleData)2105_storage": {
        "encoding": "inplace",
        "label": "struct AccessControlUpgradeable.RoleData",
        "members": [
          {
            "astId": 2102,
            "contract": "contracts/finance/EnglishAuction.sol:EnglishAuction",
            "label": "members",
            "offset": 0,
            "slot": "0",
            "type": "t_mapping(t_address,t_bool)"
          },
          {
            "astId": 2104,
            "contract": "contracts/finance/EnglishAuction.sol:EnglishAuction",
            "label": "adminRole",
            "offset": 0,
            "slot": "1",
            "type": "t_bytes32"
          }
        ],
        "numberOfBytes": "64"
      },
      "t_uint256": {
        "encoding": "inplace",
        "label": "uint256",
        "numberOfBytes": "32"
      },
      "t_uint8": {
        "encoding": "inplace",
        "label": "uint8",
        "numberOfBytes": "1"
      }
    }
  }
}