{
  "address": "0xDdE49F4aC07CdFa60B0559803EeE4A520c2611ED",
  "abi": [
    {
      "anonymous": false,
      "inputs": [
        {
          "indexed": false,
          "internalType": "uint8",
          "name": "version",
          "type": "uint8"
        }
      ],
      "name": "Initialized",
      "type": "event"
    },
    {
      "anonymous": false,
      "inputs": [
        {
          "indexed": false,
          "internalType": "address",
          "name": "instance",
          "type": "address"
        },
        {
          "indexed": false,
          "internalType": "address",
          "name": "implementation",
          "type": "address"
        },
        {
          "indexed": false,
          "internalType": "bytes32",
          "name": "salt",
          "type": "bytes32"
        }
      ],
      "name": "NewClone",
      "type": "event"
    },
    {
      "inputs": [
        {
          "internalType": "address",
          "name": "implementation",
          "type": "address"
        },
        {
          "internalType": "bytes",
          "name": "data",
          "type": "bytes"
        }
      ],
      "name": "clone",
      "outputs": [
        {
          "internalType": "address",
          "name": "instance",
          "type": "address"
        }
      ],
      "stateMutability": "nonpayable",
      "type": "function"
    },
    {
      "inputs": [
        {
          "internalType": "address",
          "name": "implementation",
          "type": "address"
        },
        {
          "internalType": "bytes32",
          "name": "salt",
          "type": "bytes32"
        },
        {
          "internalType": "bytes",
          "name": "data",
          "type": "bytes"
        }
      ],
      "name": "cloneDeterministic",
      "outputs": [
        {
          "internalType": "address",
          "name": "instance",
          "type": "address"
        }
      ],
      "stateMutability": "nonpayable",
      "type": "function"
    },
    {
      "inputs": [
        {
          "internalType": "address",
          "name": "implementation",
          "type": "address"
        },
        {
          "internalType": "bytes32",
          "name": "salt",
          "type": "bytes32"
        },
        {
          "internalType": "bytes",
          "name": "data",
          "type": "bytes"
        }
      ],
      "name": "predictDeterministicAddress",
      "outputs": [
        {
          "internalType": "address",
          "name": "predicted",
          "type": "address"
        }
      ],
      "stateMutability": "view",
      "type": "function"
    }
  ],
  "transactionHash": "0xaa7eee06beee373f24ae9235d71aa507bfa66dee2b80d867d4ef967b4aca1122",
  "args": [],
  "numDeployments": 1,
  "solcInputHash": "28b4d2e2155903f56ed1fc988848ec0f",
  "bytecode": "0x608060405234801561001057600080fd5b506107df806100206000396000f3fe608060405234801561001057600080fd5b50600436106100415760003560e01c80630fbe133c146100465780636e9ebc8114610075578063c228e7ea14610088575b600080fd5b61005961005436600461061e565b61009b565b6040516001600160a01b03909116815260200160405180910390f35b61005961008336600461066c565b610130565b61005961009636600461066c565b6101f5565b60006100a683610236565b8251909150156100e0576100de82604051806060016040528060288152602001610782602891396001600160a01b03841691906102d8565b505b604080516001600160a01b0383811682528516602082015260008183015290517fa8bf987e8fd20c4aae6fff1ca892ea748b539cf0164aefab56c83340007485df9181900360600190a192915050565b6000823383604051602001610147939291906106f3565b60405160208183030381529060405280519060200120925061016984846102ee565b8251909150156101a3576101a182604051806060016040528060288152602001610782602891396001600160a01b03841691906102d8565b505b604080516001600160a01b038084168252861660208201529081018490527fa8bf987e8fd20c4aae6fff1ca892ea748b539cf0164aefab56c83340007485df9060600160405180910390a19392505050565b600082338360405160200161020c939291906106f3565b60405160208183030381529060405280519060200120925061022e8484610394565b949350505050565b6000604051733d602d80600a3d3981f3363d3d373d3d3d363d7360601b81528260601b60148201526e5af43d82803e903d91602b57fd5bf360881b60288201526037816000f09150506001600160a01b0381166102d35760405162461bcd60e51b8152602060048201526016602482015275115490cc4c4d8dce8818dc99585d194819985a5b195960521b60448201526064015b60405180910390fd5b919050565b606061022e84846000856103fa565b9392505050565b6000604051733d602d80600a3d3981f3363d3d373d3d3d363d7360601b81528360601b60148201526e5af43d82803e903d91602b57fd5bf360881b6028820152826037826000f59150506001600160a01b03811661038e5760405162461bcd60e51b815260206004820152601760248201527f455243313136373a2063726561746532206661696c656400000000000000000060448201526064016102ca565b92915050565b60006102e7838330604051733d602d80600a3d3981f3363d3d373d3d3d363d7360601b8152606093841b60148201526f5af43d82803e903d91602b57fd5bf3ff60801b6028820152921b6038830152604c8201526037808220606c830152605591012090565b60608247101561045b5760405162461bcd60e51b815260206004820152602660248201527f416464726573733a20696e73756666696369656e742062616c616e636520666f6044820152651c8818d85b1b60d21b60648201526084016102ca565b6001600160a01b0385163b6104b25760405162461bcd60e51b815260206004820152601d60248201527f416464726573733a2063616c6c20746f206e6f6e2d636f6e747261637400000060448201526064016102ca565b600080866001600160a01b031685876040516104ce9190610732565b60006040518083038185875af1925050503d806000811461050b576040519150601f19603f3d011682016040523d82523d6000602084013e610510565b606091505b509150915061052082828661052b565b979650505050505050565b6060831561053a5750816102e7565b82511561054a5782518084602001fd5b8160405162461bcd60e51b81526004016102ca919061074e565b80356001600160a01b03811681146102d357600080fd5b634e487b7160e01b600052604160045260246000fd5b600082601f8301126105a257600080fd5b813567ffffffffffffffff808211156105bd576105bd61057b565b604051601f8301601f19908116603f011681019082821181831017156105e5576105e561057b565b816040528381528660208588010111156105fe57600080fd5b836020870160208301376000602085830101528094505050505092915050565b6000806040838503121561063157600080fd5b61063a83610564565b9150602083013567ffffffffffffffff81111561065657600080fd5b61066285828601610591565b9150509250929050565b60008060006060848603121561068157600080fd5b61068a84610564565b925060208401359150604084013567ffffffffffffffff8111156106ad57600080fd5b6106b986828701610591565b9150509250925092565b60005b838110156106de5781810151838201526020016106c6565b838111156106ed576000848401525b50505050565b8381526bffffffffffffffffffffffff198360601b166020820152600082516107238160348501602087016106c3565b91909101603401949350505050565b600082516107448184602087016106c3565b9190910192915050565b602081526000825180602084015261076d8160408501602087016106c3565b601f01601f1916919091016040019291505056fe45524331313637466163746f72793a204661696c656420746f2063616c6c207468652070726f7879a26469706673582212207fe370c45143546b912d5747804c46d76f85ab8c31136d297ab1b3f87011e6c764736f6c63430008090033",
  "devdoc": {
    "details": "ERC1167 Minimal Proxy Factory",
    "kind": "dev",
    "methods": {},
    "version": 1
  },
  "userdoc": {
    "kind": "user",
    "methods": {},
    "version": 1
  },
  "storageLayout": {
    "storage": [
      {
        "astId": 3091,
        "contract": "contracts/proxy/ERC1167/ERC1167Factory.sol:ERC1167Factory",
        "label": "_initialized",
        "offset": 0,
        "slot": "0",
        "type": "t_uint8"
      },
      {
        "astId": 3094,
        "contract": "contracts/proxy/ERC1167/ERC1167Factory.sol:ERC1167Factory",
        "label": "_initializing",
        "offset": 1,
        "slot": "0",
        "type": "t_bool"
      },
      {
        "astId": 7537,
        "contract": "contracts/proxy/ERC1167/ERC1167Factory.sol:ERC1167Factory",
        "label": "__gap",
        "offset": 0,
        "slot": "1",
        "type": "t_array(t_uint256)50_storage"
      }
    ],
    "types": {
      "t_array(t_uint256)50_storage": {
        "base": "t_uint256",
        "encoding": "inplace",
        "label": "uint256[50]",
        "numberOfBytes": "1600"
      },
      "t_bool": {
        "encoding": "inplace",
        "label": "bool",
        "numberOfBytes": "1"
      },
      "t_uint256": {
        "encoding": "inplace",
        "label": "uint256",
        "numberOfBytes": "32"
      },
      "t_uint8": {
        "encoding": "inplace",
        "label": "uint8",
        "numberOfBytes": "1"
      }
    }
  }
}