{
  "address": "0x000F22F98A6a68E80F7456d75F409CD7359F9cB3",
  "abi": [
    {
      "inputs": [],
      "stateMutability": "nonpayable",
      "type": "constructor"
    },
    {
      "anonymous": false,
      "inputs": [
        {
          "indexed": false,
          "internalType": "address",
          "name": "previousAdmin",
          "type": "address"
        },
        {
          "indexed": false,
          "internalType": "address",
          "name": "newAdmin",
          "type": "address"
        }
      ],
      "name": "AdminChanged",
      "type": "event"
    },
    {
      "anonymous": false,
      "inputs": [
        {
          "indexed": true,
          "internalType": "address",
          "name": "account",
          "type": "address"
        },
        {
          "indexed": true,
          "internalType": "address",
          "name": "operator",
          "type": "address"
        },
        {
          "indexed": false,
          "internalType": "bool",
          "name": "approved",
          "type": "bool"
        }
      ],
      "name": "ApprovalForAll",
      "type": "event"
    },
    {
      "anonymous": false,
      "inputs": [
        {
          "indexed": true,
          "internalType": "address",
          "name": "beacon",
          "type": "address"
        }
      ],
      "name": "BeaconUpgraded",
      "type": "event"
    },
    {
      "anonymous": false,
      "inputs": [
        {
          "indexed": false,
          "internalType": "uint8",
          "name": "version",
          "type": "uint8"
        }
      ],
      "name": "Initialized",
      "type": "event"
    },
    {
      "anonymous": false,
      "inputs": [
        {
          "indexed": true,
          "internalType": "bytes32",
          "name": "role",
          "type": "bytes32"
        },
        {
          "indexed": true,
          "internalType": "bytes32",
          "name": "previousAdminRole",
          "type": "bytes32"
        },
        {
          "indexed": true,
          "internalType": "bytes32",
          "name": "newAdminRole",
          "type": "bytes32"
        }
      ],
      "name": "RoleAdminChanged",
      "type": "event"
    },
    {
      "anonymous": false,
      "inputs": [
        {
          "indexed": true,
          "internalType": "bytes32",
          "name": "role",
          "type": "bytes32"
        },
        {
          "indexed": true,
          "internalType": "address",
          "name": "account",
          "type": "address"
        },
        {
          "indexed": true,
          "internalType": "address",
          "name": "sender",
          "type": "address"
        }
      ],
      "name": "RoleGranted",
      "type": "event"
    },
    {
      "anonymous": false,
      "inputs": [
        {
          "indexed": true,
          "internalType": "bytes32",
          "name": "role",
          "type": "bytes32"
        },
        {
          "indexed": true,
          "internalType": "address",
          "name": "account",
          "type": "address"
        },
        {
          "indexed": true,
          "internalType": "address",
          "name": "sender",
          "type": "address"
        }
      ],
      "name": "RoleRevoked",
      "type": "event"
    },
    {
      "anonymous": false,
      "inputs": [
        {
          "indexed": true,
          "internalType": "address",
          "name": "operator",
          "type": "address"
        },
        {
          "indexed": true,
          "internalType": "address",
          "name": "from",
          "type": "address"
        },
        {
          "indexed": true,
          "internalType": "address",
          "name": "to",
          "type": "address"
        },
        {
          "indexed": false,
          "internalType": "uint256[]",
          "name": "ids",
          "type": "uint256[]"
        },
        {
          "indexed": false,
          "internalType": "uint256[]",
          "name": "values",
          "type": "uint256[]"
        }
      ],
      "name": "TransferBatch",
      "type": "event"
    },
    {
      "anonymous": false,
      "inputs": [
        {
          "indexed": true,
          "internalType": "address",
          "name": "operator",
          "type": "address"
        },
        {
          "indexed": true,
          "internalType": "address",
          "name": "from",
          "type": "address"
        },
        {
          "indexed": true,
          "internalType": "address",
          "name": "to",
          "type": "address"
        },
        {
          "indexed": false,
          "internalType": "uint256",
          "name": "id",
          "type": "uint256"
        },
        {
          "indexed": false,
          "internalType": "uint256",
          "name": "value",
          "type": "uint256"
        }
      ],
      "name": "TransferSingle",
      "type": "event"
    },
    {
      "anonymous": false,
      "inputs": [
        {
          "indexed": false,
          "internalType": "string",
          "name": "value",
          "type": "string"
        },
        {
          "indexed": true,
          "internalType": "uint256",
          "name": "id",
          "type": "uint256"
        }
      ],
      "name": "URI",
      "type": "event"
    },
    {
      "anonymous": false,
      "inputs": [
        {
          "indexed": true,
          "internalType": "address",
          "name": "implementation",
          "type": "address"
        }
      ],
      "name": "Upgraded",
      "type": "event"
    },
    {
      "inputs": [],
      "name": "DEFAULT_ADMIN_ROLE",
      "outputs": [
        {
          "internalType": "bytes32",
          "name": "",
          "type": "bytes32"
        }
      ],
      "stateMutability": "view",
      "type": "function"
    },
    {
      "inputs": [
        {
          "internalType": "address",
          "name": "account",
          "type": "address"
        },
        {
          "internalType": "uint256",
          "name": "id",
          "type": "uint256"
        }
      ],
      "name": "balanceOf",
      "outputs": [
        {
          "internalType": "uint256",
          "name": "",
          "type": "uint256"
        }
      ],
      "stateMutability": "view",
      "type": "function"
    },
    {
      "inputs": [
        {
          "internalType": "address[]",
          "name": "accounts",
          "type": "address[]"
        },
        {
          "internalType": "uint256[]",
          "name": "ids",
          "type": "uint256[]"
        }
      ],
      "name": "balanceOfBatch",
      "outputs": [
        {
          "internalType": "uint256[]",
          "name": "",
          "type": "uint256[]"
        }
      ],
      "stateMutability": "view",
      "type": "function"
    },
    {
      "inputs": [
        {
          "internalType": "address",
          "name": "account",
          "type": "address"
        },
        {
          "internalType": "uint256",
          "name": "id",
          "type": "uint256"
        },
        {
          "internalType": "uint256",
          "name": "value",
          "type": "uint256"
        }
      ],
      "name": "burn",
      "outputs": [],
      "stateMutability": "nonpayable",
      "type": "function"
    },
    {
      "inputs": [
        {
          "internalType": "address",
          "name": "account",
          "type": "address"
        },
        {
          "internalType": "uint256[]",
          "name": "ids",
          "type": "uint256[]"
        },
        {
          "internalType": "uint256[]",
          "name": "values",
          "type": "uint256[]"
        }
      ],
      "name": "burnBatch",
      "outputs": [],
      "stateMutability": "nonpayable",
      "type": "function"
    },
    {
      "inputs": [],
      "name": "contractURI",
      "outputs": [
        {
          "internalType": "string",
          "name": "",
          "type": "string"
        }
      ],
      "stateMutability": "view",
      "type": "function"
    },
    {
      "inputs": [],
      "name": "getImplementation",
      "outputs": [
        {
          "internalType": "address",
          "name": "",
          "type": "address"
        }
      ],
      "stateMutability": "view",
      "type": "function"
    },
    {
      "inputs": [
        {
          "internalType": "bytes32",
          "name": "role",
          "type": "bytes32"
        }
      ],
      "name": "getRoleAdmin",
      "outputs": [
        {
          "internalType": "bytes32",
          "name": "",
          "type": "bytes32"
        }
      ],
      "stateMutability": "view",
      "type": "function"
    },
    {
      "inputs": [
        {
          "internalType": "address",
          "name": "to",
          "type": "address"
        }
      ],
      "name": "grantMinter",
      "outputs": [],
      "stateMutability": "nonpayable",
      "type": "function"
    },
    {
      "inputs": [
        {
          "internalType": "bytes32",
          "name": "role",
          "type": "bytes32"
        },
        {
          "internalType": "address",
          "name": "account",
          "type": "address"
        }
      ],
      "name": "grantRole",
      "outputs": [],
      "stateMutability": "nonpayable",
      "type": "function"
    },
    {
      "inputs": [
        {
          "internalType": "address",
          "name": "to",
          "type": "address"
        }
      ],
      "name": "grantRouter",
      "outputs": [],
      "stateMutability": "nonpayable",
      "type": "function"
    },
    {
      "inputs": [
        {
          "internalType": "address",
          "name": "to",
          "type": "address"
        }
      ],
      "name": "grantUriRole",
      "outputs": [],
      "stateMutability": "nonpayable",
      "type": "function"
    },
    {
      "inputs": [
        {
          "internalType": "bytes32",
          "name": "role",
          "type": "bytes32"
        },
        {
          "internalType": "address",
          "name": "account",
          "type": "address"
        }
      ],
      "name": "hasRole",
      "outputs": [
        {
          "internalType": "bool",
          "name": "",
          "type": "bool"
        }
      ],
      "stateMutability": "view",
      "type": "function"
    },
    {
      "inputs": [
        {
          "internalType": "address",
          "name": "_admin",
          "type": "address"
        },
        {
          "internalType": "string",
          "name": "uri_",
          "type": "string"
        },
        {
          "internalType": "string",
          "name": "newContractURI",
          "type": "string"
        },
        {
          "internalType": "address",
          "name": "_forwarder",
          "type": "address"
        }
      ],
      "name": "initialize",
      "outputs": [],
      "stateMutability": "nonpayable",
      "type": "function"
    },
    {
      "inputs": [
        {
          "internalType": "address",
          "name": "account",
          "type": "address"
        },
        {
          "internalType": "address",
          "name": "operator",
          "type": "address"
        }
      ],
      "name": "isApprovedForAll",
      "outputs": [
        {
          "internalType": "bool",
          "name": "",
          "type": "bool"
        }
      ],
      "stateMutability": "view",
      "type": "function"
    },
    {
      "inputs": [
        {
          "internalType": "address",
          "name": "forwarder",
          "type": "address"
        }
      ],
      "name": "isTrustedForwarder",
      "outputs": [
        {
          "internalType": "bool",
          "name": "",
          "type": "bool"
        }
      ],
      "stateMutability": "view",
      "type": "function"
    },
    {
      "inputs": [
        {
          "internalType": "address",
          "name": "to",
          "type": "address"
        },
        {
          "internalType": "uint256",
          "name": "id",
          "type": "uint256"
        },
        {
          "internalType": "uint256",
          "name": "amount",
          "type": "uint256"
        },
        {
          "internalType": "bytes",
          "name": "data",
          "type": "bytes"
        }
      ],
      "name": "mint",
      "outputs": [],
      "stateMutability": "nonpayable",
      "type": "function"
    },
    {
      "inputs": [
        {
          "internalType": "address",
          "name": "to",
          "type": "address"
        },
        {
          "internalType": "uint256[]",
          "name": "ids",
          "type": "uint256[]"
        },
        {
          "internalType": "uint256[]",
          "name": "amounts",
          "type": "uint256[]"
        },
        {
          "internalType": "bytes",
          "name": "data",
          "type": "bytes"
        }
      ],
      "name": "mintBatch",
      "outputs": [],
      "stateMutability": "nonpayable",
      "type": "function"
    },
    {
      "inputs": [],
      "name": "proxiableUUID",
      "outputs": [
        {
          "internalType": "bytes32",
          "name": "",
          "type": "bytes32"
        }
      ],
      "stateMutability": "view",
      "type": "function"
    },
    {
      "inputs": [
        {
          "internalType": "address",
          "name": "_admin",
          "type": "address"
        },
        {
          "internalType": "string",
          "name": "uri_",
          "type": "string"
        },
        {
          "internalType": "string",
          "name": "newContractURI",
          "type": "string"
        },
        {
          "internalType": "address",
          "name": "_forwarder",
          "type": "address"
        }
      ],
      "name": "proxyInitialize",
      "outputs": [],
      "stateMutability": "nonpayable",
      "type": "function"
    },
    {
      "inputs": [
        {
          "internalType": "bytes32",
          "name": "role",
          "type": "bytes32"
        },
        {
          "internalType": "address",
          "name": "account",
          "type": "address"
        }
      ],
      "name": "renounceRole",
      "outputs": [],
      "stateMutability": "nonpayable",
      "type": "function"
    },
    {
      "inputs": [
        {
          "internalType": "bytes32",
          "name": "role",
          "type": "bytes32"
        },
        {
          "internalType": "address",
          "name": "account",
          "type": "address"
        }
      ],
      "name": "revokeRole",
      "outputs": [],
      "stateMutability": "nonpayable",
      "type": "function"
    },
    {
      "inputs": [
        {
          "internalType": "address",
          "name": "from",
          "type": "address"
        },
        {
          "internalType": "address",
          "name": "to",
          "type": "address"
        },
        {
          "internalType": "uint256[]",
          "name": "ids",
          "type": "uint256[]"
        },
        {
          "internalType": "uint256[]",
          "name": "amounts",
          "type": "uint256[]"
        },
        {
          "internalType": "bytes",
          "name": "data",
          "type": "bytes"
        }
      ],
      "name": "safeBatchTransferFrom",
      "outputs": [],
      "stateMutability": "nonpayable",
      "type": "function"
    },
    {
      "inputs": [
        {
          "internalType": "address",
          "name": "from",
          "type": "address"
        },
        {
          "internalType": "address",
          "name": "to",
          "type": "address"
        },
        {
          "internalType": "uint256",
          "name": "id",
          "type": "uint256"
        },
        {
          "internalType": "uint256",
          "name": "amount",
          "type": "uint256"
        },
        {
          "internalType": "bytes",
          "name": "data",
          "type": "bytes"
        }
      ],
      "name": "safeTransferFrom",
      "outputs": [],
      "stateMutability": "nonpayable",
      "type": "function"
    },
    {
      "inputs": [
        {
          "internalType": "address",
          "name": "operator",
          "type": "address"
        },
        {
          "internalType": "bool",
          "name": "approved",
          "type": "bool"
        }
      ],
      "name": "setApprovalForAll",
      "outputs": [],
      "stateMutability": "nonpayable",
      "type": "function"
    },
    {
      "inputs": [
        {
          "internalType": "string",
          "name": "newContractURI",
          "type": "string"
        }
      ],
      "name": "setContractURI",
      "outputs": [],
      "stateMutability": "nonpayable",
      "type": "function"
    },
    {
      "inputs": [
        {
          "internalType": "string",
          "name": "newuri",
          "type": "string"
        }
      ],
      "name": "setURI",
      "outputs": [],
      "stateMutability": "nonpayable",
      "type": "function"
    },
    {
      "inputs": [
        {
          "internalType": "bytes4",
          "name": "interfaceId",
          "type": "bytes4"
        }
      ],
      "name": "supportsInterface",
      "outputs": [
        {
          "internalType": "bool",
          "name": "",
          "type": "bool"
        }
      ],
      "stateMutability": "view",
      "type": "function"
    },
    {
      "inputs": [
        {
          "internalType": "address",
          "name": "newImplementation",
          "type": "address"
        }
      ],
      "name": "upgradeTo",
      "outputs": [],
      "stateMutability": "nonpayable",
      "type": "function"
    },
    {
      "inputs": [
        {
          "internalType": "address",
          "name": "newImplementation",
          "type": "address"
        },
        {
          "internalType": "bytes",
          "name": "data",
          "type": "bytes"
        }
      ],
      "name": "upgradeToAndCall",
      "outputs": [],
      "stateMutability": "payable",
      "type": "function"
    },
    {
      "inputs": [
        {
          "internalType": "uint256",
          "name": "",
          "type": "uint256"
        }
      ],
      "name": "uri",
      "outputs": [
        {
          "internalType": "string",
          "name": "",
          "type": "string"
        }
      ],
      "stateMutability": "view",
      "type": "function"
    },
    {
      "inputs": [],
      "name": "version",
      "outputs": [
        {
          "internalType": "string",
          "name": "",
          "type": "string"
        }
      ],
      "stateMutability": "view",
      "type": "function"
    },
    {
      "inputs": [],
      "name": "versionRecipient",
      "outputs": [
        {
          "internalType": "string",
          "name": "",
          "type": "string"
        }
      ],
      "stateMutability": "pure",
      "type": "function"
    }
  ],
  "transactionHash": "0xf83395e68ac695000dc6f10796f15a4908c2d713a2afa6282db587b815188aca",
  "args": [],
  "numDeployments": 1,
  "solcInputHash": "28b4d2e2155903f56ed1fc988848ec0f",
  "bytecode": "0x60a0604052306080523480156200001557600080fd5b506200002062000026565b620000e8565b600054610100900460ff1615620000935760405162461bcd60e51b815260206004820152602760248201527f496e697469616c697a61626c653a20636f6e747261637420697320696e697469604482015266616c697a696e6760c81b606482015260840160405180910390fd5b60005460ff9081161015620000e6576000805460ff191660ff9081179091556040519081527f7f26b83ff96e1f2b6a682f133852f6798a09c465da95921460cefb38474024989060200160405180910390a15b565b60805161366862000120600039600081816109e201528181610a2201528181610bd401528181610c140152610caf01526136686000f3fe6080604052600436106101ed5760003560e01c806354fd4d501161010d57806398c76d25116100a0578063d547741f1161006f578063d547741f146105c9578063e8a3d485146105e9578063e985e9c5146105fe578063f242432a14610647578063f5298aca1461066757600080fd5b806398c76d2514610547578063a217fddf14610567578063a22cb4651461057c578063aaf10f421461059c57600080fd5b8063731133e9116100dc578063731133e9146104c75780637b983bf3146104e757806391d1485414610507578063938e3d7b1461052757600080fd5b806354fd4d5014610437578063572b6c0514610467578063613d25bb146104875780636b20c454146104a757600080fd5b80632f2ff15d116101855780634e1273f4116101545780634e1273f4146103c25780634f1ef286146103ef578063529cc1291461040257806352d1902d1461042257600080fd5b80632f2ff15d1461033457806336568abe146103545780633659cfe614610374578063486ff0cd1461039457600080fd5b80631f7fdffa116101c15780631f7fdffa146102a4578063248a9ca3146102c4578063261707fa146102f45780632eb2c2d61461031457600080fd5b8062fdd58e146101f257806301ffc9a71461022557806302fe5305146102555780630e89341c14610277575b600080fd5b3480156101fe57600080fd5b5061021261020d366004612741565b610687565b6040519081526020015b60405180910390f35b34801561023157600080fd5b50610245610240366004612781565b61071f565b604051901515815260200161021c565b34801561026157600080fd5b506102756102703660046127e6565b61078f565b005b34801561028357600080fd5b50610297610292366004612827565b6107eb565b60405161021c9190612898565b3480156102b057600080fd5b506102756102bf3660046129f4565b61087f565b3480156102d057600080fd5b506102126102df366004612827565b600090815260c9602052604090206001015490565b34801561030057600080fd5b5061027561030f366004612a8c565b6108aa565b34801561032057600080fd5b5061027561032f366004612aa7565b6108d1565b34801561034057600080fd5b5061027561034f366004612b50565b610928565b34801561036057600080fd5b5061027561036f366004612b50565b61094d565b34801561038057600080fd5b5061027561038f366004612a8c565b6109d7565b3480156103a057600080fd5b50604080518082019091526005815264191719171b60d91b6020820152610297565b3480156103ce57600080fd5b506103e26103dd366004612b7c565b610aa0565b60405161021c9190612c81565b6102756103fd366004612c94565b610bc9565b34801561040e57600080fd5b5061027561041d366004612a8c565b610c7f565b34801561042e57600080fd5b50610212610ca2565b34801561044357600080fd5b506102976040518060400160405280600481526020016376302e3160e01b81525081565b34801561047357600080fd5b50610245610482366004612a8c565b610d56565b34801561049357600080fd5b506102756104a2366004612cd7565b610d70565b3480156104b357600080fd5b506102756104c2366004612d66565b610ec4565b3480156104d357600080fd5b506102756104e2366004612dd9565b610f19565b3480156104f357600080fd5b50610275610502366004612cd7565b610f3d565b34801561051357600080fd5b50610245610522366004612b50565b610fb1565b34801561053357600080fd5b506102756105423660046127e6565b610fdc565b34801561055357600080fd5b50610275610562366004612a8c565b611007565b34801561057357600080fd5b50610212600081565b34801561058857600080fd5b50610275610597366004612e2d565b61102a565b3480156105a857600080fd5b506105b161103c565b6040516001600160a01b03909116815260200161021c565b3480156105d557600080fd5b506102756105e4366004612b50565b61104b565b3480156105f557600080fd5b50610297611070565b34801561060a57600080fd5b50610245610619366004612e69565b6001600160a01b03918216600090815260fc6020908152604080832093909416825291909152205460ff1690565b34801561065357600080fd5b50610275610662366004612e93565b611103565b34801561067357600080fd5b50610275610682366004612ef7565b61115a565b60006001600160a01b0383166106f75760405162461bcd60e51b815260206004820152602a60248201527f455243313135353a2061646472657373207a65726f206973206e6f742061207660448201526930b634b21037bbb732b960b11b60648201526084015b60405180910390fd5b50600090815260fb602090815260408083206001600160a01b03949094168352929052205490565b60006040518060400160405280600481526020016376302e3160e01b81525060405160200161074e9190612f2a565b604051602081830303815290604052805190602001206001600160e01b031916826001600160e01b03191614806107895750610789826111af565b92915050565b6000805160206136138339815191526107a7816111ef565b6107e683838080601f01602080910402602001604051908101604052809392919081815260200183838082843760009201919091525061120092505050565b505050565b606060fd80546107fa90612f6f565b80601f016020809104026020016040519081016040528092919081815260200182805461082690612f6f565b80156108735780601f1061084857610100808354040283529160200191610873565b820191906000526020600020905b81548152906001019060200180831161085657829003601f168201915b50505050509050919050565b6000805160206135d3833981519152610897816111ef565b6108a385858585611213565b5050505050565b60006108b5816111ef565b6108cd6000805160206135d38339815191528361136a565b5050565b6108d96113f1565b6001600160a01b0316856001600160a01b031614806108ff57506108ff856106196113f1565b61091b5760405162461bcd60e51b81526004016106ee90612faa565b6108a385858585856113fb565b600082815260c96020526040902060010154610943816111ef565b6107e6838361136a565b6109556113f1565b6001600160a01b0316816001600160a01b0316146109cd5760405162461bcd60e51b815260206004820152602f60248201527f416363657373436f6e74726f6c3a2063616e206f6e6c792072656e6f756e636560448201526e103937b632b9903337b91039b2b63360891b60648201526084016106ee565b6108cd828261159d565b306001600160a01b037f0000000000000000000000000000000000000000000000000000000000000000161415610a205760405162461bcd60e51b81526004016106ee90612ff9565b7f00000000000000000000000000000000000000000000000000000000000000006001600160a01b0316610a52611622565b6001600160a01b031614610a785760405162461bcd60e51b81526004016106ee90613045565b610a818161163e565b60408051600080825260208201909252610a9d91839190611649565b50565b60608151835114610b055760405162461bcd60e51b815260206004820152602960248201527f455243313135353a206163636f756e747320616e6420696473206c656e677468604482015268040dad2e6dac2e8c6d60bb1b60648201526084016106ee565b600083516001600160401b03811115610b2057610b206128ab565b604051908082528060200260200182016040528015610b49578160200160208202803683370190505b50905060005b8451811015610bc157610b94858281518110610b6d57610b6d613091565b6020026020010151858381518110610b8757610b87613091565b6020026020010151610687565b828281518110610ba657610ba6613091565b6020908102919091010152610bba816130bd565b9050610b4f565b509392505050565b306001600160a01b037f0000000000000000000000000000000000000000000000000000000000000000161415610c125760405162461bcd60e51b81526004016106ee90612ff9565b7f00000000000000000000000000000000000000000000000000000000000000006001600160a01b0316610c44611622565b6001600160a01b031614610c6a5760405162461bcd60e51b81526004016106ee90613045565b610c738261163e565b6108cd82826001611649565b6000610c8a816111ef565b6108cd6000805160206136138339815191528361136a565b6000306001600160a01b037f00000000000000000000000000000000000000000000000000000000000000001614610d425760405162461bcd60e51b815260206004820152603860248201527f555550535570677261646561626c653a206d757374206e6f742062652063616c60448201527f6c6564207468726f7567682064656c656761746563616c6c000000000000000060648201526084016106ee565b5060008051602061358c8339815191525b90565b60006107896000805160206135f383398151915283610fb1565b600054610100900460ff1615808015610d905750600054600160ff909116105b80610daa5750303b158015610daa575060005460ff166001145b610e0d5760405162461bcd60e51b815260206004820152602e60248201527f496e697469616c697a61626c653a20636f6e747261637420697320616c72656160448201526d191e481a5b9a5d1a585b1a5e995960921b60648201526084016106ee565b6000805460ff191660011790558015610e30576000805461ff0019166101001790555b610e758787878080601f0160208091040260200160405190810160405280939291908181526020018383808284376000920191909152508992508891508790506117c3565b8015610ebb576000805461ff0019169055604051600181527f7f26b83ff96e1f2b6a682f133852f6798a09c465da95921460cefb38474024989060200160405180910390a15b50505050505050565b610ecc6113f1565b6001600160a01b0316836001600160a01b03161480610ef25750610ef2836106196113f1565b610f0e5760405162461bcd60e51b81526004016106ee90612faa565b6107e6838383611842565b6000805160206135d3833981519152610f31816111ef565b6108a3858585856119d9565b600054610100900460ff16610f645760405162461bcd60e51b81526004016106ee906130d8565b610fa98686868080601f0160208091040260200160405190810160405280939291908181526020018383808284376000920191909152508892508791508690506117c3565b505050505050565b600091825260c9602090815260408084206001600160a01b0393909316845291905290205460ff1690565b600080516020613613833981519152610ff4816111ef565b61100161015f8484612618565b50505050565b6000611012816111ef565b6108cd6000805160206135f38339815191528361136a565b6108cd6110356113f1565b8383611ab7565b6000611046611622565b905090565b600082815260c96020526040902060010154611066816111ef565b6107e6838361159d565b606061015f805461108090612f6f565b80601f01602080910402602001604051908101604052809291908181526020018280546110ac90612f6f565b80156110f95780601f106110ce576101008083540402835291602001916110f9565b820191906000526020600020905b8154815290600101906020018083116110dc57829003601f168201915b5050505050905090565b61110b6113f1565b6001600160a01b0316856001600160a01b031614806111315750611131856106196113f1565b61114d5760405162461bcd60e51b81526004016106ee90612faa565b6108a38585858585611b98565b6111626113f1565b6001600160a01b0316836001600160a01b031614806111885750611188836106196113f1565b6111a45760405162461bcd60e51b81526004016106ee90612faa565b6107e6838383611cd1565b60006001600160e01b03198216636cdb3d1360e11b14806111e057506001600160e01b031982166303a24d0760e21b145b80610789575061078982611de3565b610a9d816111fb6113f1565b611e18565b80516108cd9060fd90602084019061269c565b6001600160a01b0384166112395760405162461bcd60e51b81526004016106ee90613123565b815183511461125a5760405162461bcd60e51b81526004016106ee90613164565b60006112646113f1565b905060005b84518110156113025783818151811061128457611284613091565b602002602001015160fb60008784815181106112a2576112a2613091565b602002602001015181526020019081526020016000206000886001600160a01b03166001600160a01b0316815260200190815260200160002060008282546112ea91906131ac565b909155508190506112fa816130bd565b915050611269565b50846001600160a01b031660006001600160a01b0316826001600160a01b03167f4a39dc06d4c0dbc64b70af90fd698a233a518aa5d07e595d983b8c0526c8f7fb87876040516113539291906131c4565b60405180910390a46108a381600087878787611e7c565b6113748282610fb1565b6108cd57600082815260c9602090815260408083206001600160a01b03851684529091529020805460ff191660011790556113ad6113f1565b6001600160a01b0316816001600160a01b0316837f2f8788117e7eff1d82e926ec794901d17c78024a50270940304540a733656f0d60405160405180910390a45050565b6000611046611fe7565b815183511461141c5760405162461bcd60e51b81526004016106ee90613164565b6001600160a01b0384166114425760405162461bcd60e51b81526004016106ee906131e9565b600061144c6113f1565b905060005b845181101561153757600085828151811061146e5761146e613091565b60200260200101519050600085838151811061148c5761148c613091565b602090810291909101810151600084815260fb835260408082206001600160a01b038e1683529093529190912054909150818110156114dd5760405162461bcd60e51b81526004016106ee9061322e565b600083815260fb602090815260408083206001600160a01b038e8116855292528083208585039055908b1682528120805484929061151c9084906131ac565b9250508190555050505080611530906130bd565b9050611451565b50846001600160a01b0316866001600160a01b0316826001600160a01b03167f4a39dc06d4c0dbc64b70af90fd698a233a518aa5d07e595d983b8c0526c8f7fb87876040516115879291906131c4565b60405180910390a4610fa9818787878787611e7c565b6115a78282610fb1565b156108cd57600082815260c9602090815260408083206001600160a01b03851684529091529020805460ff191690556115de6113f1565b6001600160a01b0316816001600160a01b0316837ff6391f5c32d9c69d2a47ea670b442974b53935d1edc7fd64eb21e047a839171b60405160405180910390a45050565b60008051602061358c833981519152546001600160a01b031690565b60006108cd816111ef565b7f4910fdfa16fed3260ed0e7147f7cc6da11a60208b5b9406d12a635614ffd91435460ff161561167c576107e683612024565b826001600160a01b03166352d1902d6040518163ffffffff1660e01b815260040160206040518083038186803b1580156116b557600080fd5b505afa9250505080156116e5575060408051601f3d908101601f191682019092526116e291810190613278565b60015b6117485760405162461bcd60e51b815260206004820152602e60248201527f45524331393637557067726164653a206e657720696d706c656d656e7461746960448201526d6f6e206973206e6f74205555505360901b60648201526084016106ee565b60008051602061358c83398151915281146117b75760405162461bcd60e51b815260206004820152602960248201527f45524331393637557067726164653a20756e737570706f727465642070726f786044820152681a58589b195555525160ba1b60648201526084016106ee565b506107e68383836120c0565b600054610100900460ff166117ea5760405162461bcd60e51b81526004016106ee906130d8565b6117f3846120e5565b6117fd8582612115565b61180860008661136a565b6118206000805160206135d38339815191528661136a565b6118386000805160206136138339815191528661136a565b6108a38383612169565b6001600160a01b0383166118685760405162461bcd60e51b81526004016106ee90613291565b80518251146118895760405162461bcd60e51b81526004016106ee90613164565b60006118936113f1565b604080516020810190915260009052905060005b835181101561196c5760008482815181106118c4576118c4613091565b6020026020010151905060008483815181106118e2576118e2613091565b602090810291909101810151600084815260fb835260408082206001600160a01b038c1683529093529190912054909150818110156119335760405162461bcd60e51b81526004016106ee906132d4565b600092835260fb602090815260408085206001600160a01b038b1686529091529092209103905580611964816130bd565b9150506118a7565b5060006001600160a01b0316846001600160a01b0316826001600160a01b03167f4a39dc06d4c0dbc64b70af90fd698a233a518aa5d07e595d983b8c0526c8f7fb86866040516119bd9291906131c4565b60405180910390a4604080516020810190915260009052611001565b6001600160a01b0384166119ff5760405162461bcd60e51b81526004016106ee90613123565b6000611a096113f1565b90506000611a168561219d565b90506000611a238561219d565b9050600086815260fb602090815260408083206001600160a01b038b16845290915281208054879290611a579084906131ac565b909155505060408051878152602081018790526001600160a01b03808a1692600092918716917fc3d58168c5ae7397731d063d5bbf3d657854427343f4c083240f7aacaa2d0f62910160405180910390a4610ebb836000898989896121e8565b816001600160a01b0316836001600160a01b03161415611b2b5760405162461bcd60e51b815260206004820152602960248201527f455243313135353a2073657474696e6720617070726f76616c20737461747573604482015268103337b91039b2b63360b91b60648201526084016106ee565b6001600160a01b03838116600081815260fc6020908152604080832094871680845294825291829020805460ff191686151590811790915591519182527f17307eab39ab6107e8899845ad3d59bd9653f200f220920489ca2b5937696c31910160405180910390a3505050565b6001600160a01b038416611bbe5760405162461bcd60e51b81526004016106ee906131e9565b6000611bc86113f1565b90506000611bd58561219d565b90506000611be28561219d565b9050600086815260fb602090815260408083206001600160a01b038c16845290915290205485811015611c275760405162461bcd60e51b81526004016106ee9061322e565b600087815260fb602090815260408083206001600160a01b038d8116855292528083208985039055908a16825281208054889290611c669084906131ac565b909155505060408051888152602081018890526001600160a01b03808b16928c821692918816917fc3d58168c5ae7397731d063d5bbf3d657854427343f4c083240f7aacaa2d0f62910160405180910390a4611cc6848a8a8a8a8a6121e8565b505050505050505050565b6001600160a01b038316611cf75760405162461bcd60e51b81526004016106ee90613291565b6000611d016113f1565b90506000611d0e8461219d565b90506000611d1b8461219d565b604080516020808201835260009182905288825260fb81528282206001600160a01b038b1683529052205490915084811015611d695760405162461bcd60e51b81526004016106ee906132d4565b600086815260fb602090815260408083206001600160a01b038b81168086529184528285208a8703905582518b81529384018a90529092908816917fc3d58168c5ae7397731d063d5bbf3d657854427343f4c083240f7aacaa2d0f62910160405180910390a4604080516020810190915260009052610ebb565b60006001600160e01b03198216637965db0b60e01b148061078957506301ffc9a760e01b6001600160e01b0319831614610789565b611e228282610fb1565b6108cd57611e3a816001600160a01b031660146122b2565b611e458360206122b2565b604051602001611e56929190613318565b60408051601f198184030181529082905262461bcd60e51b82526106ee91600401612898565b6001600160a01b0384163b15610fa95760405163bc197c8160e01b81526001600160a01b0385169063bc197c8190611ec0908990899088908890889060040161338d565b602060405180830381600087803b158015611eda57600080fd5b505af1925050508015611f0a575060408051601f3d908101601f19168201909252611f07918101906133eb565b60015b611fb757611f16613408565b806308c379a01415611f505750611f2b613423565b80611f365750611f52565b8060405162461bcd60e51b81526004016106ee9190612898565b505b60405162461bcd60e51b815260206004820152603460248201527f455243313135353a207472616e7366657220746f206e6f6e20455243313135356044820152732932b1b2b4bb32b91034b6b83632b6b2b73a32b960611b60648201526084016106ee565b6001600160e01b0319811663bc197c8160e01b14610ebb5760405162461bcd60e51b81526004016106ee906134ac565b60006014361080159061200d575061200d6000805160206135f383398151915233610fb1565b1561201f575060131936013560601c90565b503390565b6001600160a01b0381163b6120915760405162461bcd60e51b815260206004820152602d60248201527f455243313936373a206e657720696d706c656d656e746174696f6e206973206e60448201526c1bdd08184818dbdb9d1c9858dd609a1b60648201526084016106ee565b60008051602061358c83398151915280546001600160a01b0319166001600160a01b0392909216919091179055565b6120c983612454565b6000825111806120d65750805b156107e6576110018383612494565b600054610100900460ff1661210c5760405162461bcd60e51b81526004016106ee906130d8565b610a9d81612588565b600054610100900460ff1661213c5760405162461bcd60e51b81526004016106ee906130d8565b61214682826125b8565b61215160008361136a565b6108cd6000805160206135f38339815191528261136a565b600054610100900460ff166121905760405162461bcd60e51b81526004016106ee906130d8565b6107e661015f8383612618565b604080516001808252818301909252606091600091906020808301908036833701905050905082816000815181106121d7576121d7613091565b602090810291909101015292915050565b6001600160a01b0384163b15610fa95760405163f23a6e6160e01b81526001600160a01b0385169063f23a6e619061222c90899089908890889088906004016134f4565b602060405180830381600087803b15801561224657600080fd5b505af1925050508015612276575060408051601f3d908101601f19168201909252612273918101906133eb565b60015b61228257611f16613408565b6001600160e01b0319811663f23a6e6160e01b14610ebb5760405162461bcd60e51b81526004016106ee906134ac565b606060006122c1836002613539565b6122cc9060026131ac565b6001600160401b038111156122e3576122e36128ab565b6040519080825280601f01601f19166020018201604052801561230d576020820181803683370190505b509050600360fc1b8160008151811061232857612328613091565b60200101906001600160f81b031916908160001a905350600f60fb1b8160018151811061235757612357613091565b60200101906001600160f81b031916908160001a905350600061237b846002613539565b6123869060016131ac565b90505b60018111156123fe576f181899199a1a9b1b9c1cb0b131b232b360811b85600f16601081106123ba576123ba613091565b1a60f81b8282815181106123d0576123d0613091565b60200101906001600160f81b031916908160001a90535060049490941c936123f781613558565b9050612389565b50831561244d5760405162461bcd60e51b815260206004820181905260248201527f537472696e67733a20686578206c656e67746820696e73756666696369656e7460448201526064016106ee565b9392505050565b61245d81612024565b6040516001600160a01b038216907fbc7cd75a20ee27fd9adebab32041f755214dbc6bffa90cc0225b39da2e5c2d3b90600090a250565b60606001600160a01b0383163b6124fc5760405162461bcd60e51b815260206004820152602660248201527f416464726573733a2064656c65676174652063616c6c20746f206e6f6e2d636f6044820152651b9d1c9858dd60d21b60648201526084016106ee565b600080846001600160a01b031684604051612517919061356f565b600060405180830381855af49150503d8060008114612552576040519150601f19603f3d011682016040523d82523d6000602084013e612557565b606091505b509150915061257f82826040518060600160405280602781526020016135ac602791396125df565b95945050505050565b600054610100900460ff166125af5760405162461bcd60e51b81526004016106ee906130d8565b610a9d81611200565b600054610100900460ff166108cd5760405162461bcd60e51b81526004016106ee906130d8565b606083156125ee57508161244d565b8251156125fe5782518084602001fd5b8160405162461bcd60e51b81526004016106ee9190612898565b82805461262490612f6f565b90600052602060002090601f016020900481019282612646576000855561268c565b82601f1061265f5782800160ff1982351617855561268c565b8280016001018555821561268c579182015b8281111561268c578235825591602001919060010190612671565b50612698929150612710565b5090565b8280546126a890612f6f565b90600052602060002090601f0160209004810192826126ca576000855561268c565b82601f106126e357805160ff191683800117855561268c565b8280016001018555821561268c579182015b8281111561268c5782518255916020019190600101906126f5565b5b808211156126985760008155600101612711565b80356001600160a01b038116811461273c57600080fd5b919050565b6000806040838503121561275457600080fd5b61275d83612725565b946020939093013593505050565b6001600160e01b031981168114610a9d57600080fd5b60006020828403121561279357600080fd5b813561244d8161276b565b60008083601f8401126127b057600080fd5b5081356001600160401b038111156127c757600080fd5b6020830191508360208285010111156127df57600080fd5b9250929050565b600080602083850312156127f957600080fd5b82356001600160401b0381111561280f57600080fd5b61281b8582860161279e565b90969095509350505050565b60006020828403121561283957600080fd5b5035919050565b60005b8381101561285b578181015183820152602001612843565b838111156110015750506000910152565b60008151808452612884816020860160208601612840565b601f01601f19169290920160200192915050565b60208152600061244d602083018461286c565b634e487b7160e01b600052604160045260246000fd5b601f8201601f191681016001600160401b03811182821017156128e6576128e66128ab565b6040525050565b60006001600160401b03821115612906576129066128ab565b5060051b60200190565b600082601f83011261292157600080fd5b8135602061292e826128ed565b60405161293b82826128c1565b83815260059390931b850182019282810191508684111561295b57600080fd5b8286015b84811015612976578035835291830191830161295f565b509695505050505050565b600082601f83011261299257600080fd5b81356001600160401b038111156129ab576129ab6128ab565b6040516129c2601f8301601f1916602001826128c1565b8181528460208386010111156129d757600080fd5b816020850160208301376000918101602001919091529392505050565b60008060008060808587031215612a0a57600080fd5b612a1385612725565b935060208501356001600160401b0380821115612a2f57600080fd5b612a3b88838901612910565b94506040870135915080821115612a5157600080fd5b612a5d88838901612910565b93506060870135915080821115612a7357600080fd5b50612a8087828801612981565b91505092959194509250565b600060208284031215612a9e57600080fd5b61244d82612725565b600080600080600060a08688031215612abf57600080fd5b612ac886612725565b9450612ad660208701612725565b935060408601356001600160401b0380821115612af257600080fd5b612afe89838a01612910565b94506060880135915080821115612b1457600080fd5b612b2089838a01612910565b93506080880135915080821115612b3657600080fd5b50612b4388828901612981565b9150509295509295909350565b60008060408385031215612b6357600080fd5b82359150612b7360208401612725565b90509250929050565b60008060408385031215612b8f57600080fd5b82356001600160401b0380821115612ba657600080fd5b818501915085601f830112612bba57600080fd5b81356020612bc7826128ed565b604051612bd482826128c1565b83815260059390931b8501820192828101915089841115612bf457600080fd5b948201945b83861015612c1957612c0a86612725565b82529482019490820190612bf9565b96505086013592505080821115612c2f57600080fd5b50612c3c85828601612910565b9150509250929050565b600081518084526020808501945080840160005b83811015612c7657815187529582019590820190600101612c5a565b509495945050505050565b60208152600061244d6020830184612c46565b60008060408385031215612ca757600080fd5b612cb083612725565b915060208301356001600160401b03811115612ccb57600080fd5b612c3c85828601612981565b60008060008060008060808789031215612cf057600080fd5b612cf987612725565b955060208701356001600160401b0380821115612d1557600080fd5b612d218a838b0161279e565b90975095506040890135915080821115612d3a57600080fd5b50612d4789828a0161279e565b9094509250612d5a905060608801612725565b90509295509295509295565b600080600060608486031215612d7b57600080fd5b612d8484612725565b925060208401356001600160401b0380821115612da057600080fd5b612dac87838801612910565b93506040860135915080821115612dc257600080fd5b50612dcf86828701612910565b9150509250925092565b60008060008060808587031215612def57600080fd5b612df885612725565b9350602085013592506040850135915060608501356001600160401b03811115612e2157600080fd5b612a8087828801612981565b60008060408385031215612e4057600080fd5b612e4983612725565b915060208301358015158114612e5e57600080fd5b809150509250929050565b60008060408385031215612e7c57600080fd5b612e8583612725565b9150612b7360208401612725565b600080600080600060a08688031215612eab57600080fd5b612eb486612725565b9450612ec260208701612725565b9350604086013592506060860135915060808601356001600160401b03811115612eeb57600080fd5b612b4388828901612981565b600080600060608486031215612f0c57600080fd5b612f1584612725565b95602085013595506040909401359392505050565b7f4f574c50726f746f636f6c3a2f2f455243313135354f776c2f00000000000000815260008251612f62816019850160208701612840565b9190910160190192915050565b600181811c90821680612f8357607f821691505b60208210811415612fa457634e487b7160e01b600052602260045260246000fd5b50919050565b6020808252602f908201527f455243313135353a2063616c6c6572206973206e6f7420746f6b656e206f776e60408201526e195c881b9bdc88185c1c1c9bdd9959608a1b606082015260800190565b6020808252602c908201527f46756e6374696f6e206d7573742062652063616c6c6564207468726f7567682060408201526b19195b1959d85d1958d85b1b60a21b606082015260800190565b6020808252602c908201527f46756e6374696f6e206d7573742062652063616c6c6564207468726f7567682060408201526b6163746976652070726f787960a01b606082015260800190565b634e487b7160e01b600052603260045260246000fd5b634e487b7160e01b600052601160045260246000fd5b60006000198214156130d1576130d16130a7565b5060010190565b6020808252602b908201527f496e697469616c697a61626c653a20636f6e7472616374206973206e6f74206960408201526a6e697469616c697a696e6760a81b606082015260800190565b60208082526021908201527f455243313135353a206d696e7420746f20746865207a65726f206164647265736040820152607360f81b606082015260800190565b60208082526028908201527f455243313135353a2069647320616e6420616d6f756e7473206c656e677468206040820152670dad2e6dac2e8c6d60c31b606082015260800190565b600082198211156131bf576131bf6130a7565b500190565b6040815260006131d76040830185612c46565b828103602084015261257f8185612c46565b60208082526025908201527f455243313135353a207472616e7366657220746f20746865207a65726f206164604082015264647265737360d81b606082015260800190565b6020808252602a908201527f455243313135353a20696e73756666696369656e742062616c616e636520666f60408201526939103a3930b739b332b960b11b606082015260800190565b60006020828403121561328a57600080fd5b5051919050565b60208082526023908201527f455243313135353a206275726e2066726f6d20746865207a65726f206164647260408201526265737360e81b606082015260800190565b60208082526024908201527f455243313135353a206275726e20616d6f756e7420657863656564732062616c604082015263616e636560e01b606082015260800190565b7f416363657373436f6e74726f6c3a206163636f756e7420000000000000000000815260008351613350816017850160208801612840565b7001034b99036b4b9b9b4b733903937b6329607d1b6017918401918201528351613381816028840160208801612840565b01602801949350505050565b6001600160a01b0386811682528516602082015260a0604082018190526000906133b990830186612c46565b82810360608401526133cb8186612c46565b905082810360808401526133df818561286c565b98975050505050505050565b6000602082840312156133fd57600080fd5b815161244d8161276b565b600060033d1115610d535760046000803e5060005160e01c90565b600060443d10156134315790565b6040516003193d81016004833e81513d6001600160401b03816024840111818411171561346057505050505090565b82850191508151818111156134785750505050505090565b843d87010160208285010111156134925750505050505090565b6134a1602082860101876128c1565b509095945050505050565b60208082526028908201527f455243313135353a204552433131353552656365697665722072656a656374656040820152676420746f6b656e7360c01b606082015260800190565b6001600160a01b03868116825285166020820152604081018490526060810183905260a06080820181905260009061352e9083018461286c565b979650505050505050565b6000816000190483118215151615613553576135536130a7565b500290565b600081613567576135676130a7565b506000190190565b60008251613581818460208701612840565b919091019291505056fe360894a13ba1a3210667c828492db98dca3e2076cc3735a920a3ca505d382bbc416464726573733a206c6f772d6c6576656c2064656c65676174652063616c6c206661696c65649f2df0fed2c77648de5860a4cc508cd0818c85b8b8a1ab4ceeef8d981c8956a67a05a596cb0ce7fdea8a1e1ec73be300bdb35097c944ce1897202f7a13122eb28e6595ef9afb2a8f70320f393f567bb7a0e6c4ed483caee30f90cc5fcd6659b4a26469706673582212201505e343f92129b47ae453fd75eec360323f786165e568294e155922b730c1c164736f6c63430008090033",
  "devdoc": {
    "kind": "dev",
    "methods": {
      "balanceOf(address,uint256)": {
        "details": "See {IERC1155-balanceOf}. Requirements: - `account` cannot be the zero address."
      },
      "balanceOfBatch(address[],uint256[])": {
        "details": "See {IERC1155-balanceOfBatch}. Requirements: - `accounts` and `ids` must have the same length."
      },
      "constructor": {
        "custom:oz-upgrades-unsafe-allow": "constructor"
      },
      "contractURI()": {
        "details": "Defines collection-wide metadata that is URI-accessible"
      },
      "getRoleAdmin(bytes32)": {
        "details": "Returns the admin role that controls `role`. See {grantRole} and {revokeRole}. To change a role's admin, use {_setRoleAdmin}."
      },
      "grantMinter(address)": {
        "details": "Grants MINTER_ROLE to {a}",
        "params": {
          "to": "address to"
        }
      },
      "grantRole(bytes32,address)": {
        "details": "Grants `role` to `account`. If `account` had not been already granted `role`, emits a {RoleGranted} event. Requirements: - the caller must have ``role``'s admin role. May emit a {RoleGranted} event."
      },
      "grantRouter(address)": {
        "details": "Grants ROUTER_ROLE to {a}",
        "params": {
          "to": "address to"
        }
      },
      "grantUriRole(address)": {
        "details": "Grants URI_ROLE to {a}",
        "params": {
          "to": "address to"
        }
      },
      "hasRole(bytes32,address)": {
        "details": "Returns `true` if `account` has been granted `role`."
      },
      "isApprovedForAll(address,address)": {
        "details": "See {IERC1155-isApprovedForAll}."
      },
      "isTrustedForwarder(address)": {
        "details": "Return trusted forwarder status."
      },
      "mint(address,uint256,uint256,bytes)": {
        "details": "Allows MINTER_ROLE to mint NFTs",
        "params": {
          "amount": "to mint",
          "data": "for hooks",
          "id": "tokenId value",
          "to": "address to"
        }
      },
      "mintBatch(address,uint256[],uint256[],bytes)": {
        "details": "Allows caller to mint NFTs (safeMint)",
        "params": {
          "amounts": "to mint",
          "data": "for hooks",
          "ids": "id values",
          "to": "address to"
        }
      },
      "proxiableUUID()": {
        "details": "Implementation of the ERC1822 {proxiableUUID} function. This returns the storage slot used by the implementation. It is used to validate that the this implementation remains valid after an upgrade. IMPORTANT: A proxy pointing at a proxiable contract should not be considered proxiable itself, because this risks bricking a proxy that upgrades to it, by delegating to itself until out of gas. Thus it is critical that this function revert if invoked through a proxy. This is guaranteed by the `notDelegated` modifier."
      },
      "renounceRole(bytes32,address)": {
        "details": "Revokes `role` from the calling account. Roles are often managed via {grantRole} and {revokeRole}: this function's purpose is to provide a mechanism for accounts to lose their privileges if they are compromised (such as when a trusted device is misplaced). If the calling account had been revoked `role`, emits a {RoleRevoked} event. Requirements: - the caller must be `account`. May emit a {RoleRevoked} event."
      },
      "revokeRole(bytes32,address)": {
        "details": "Revokes `role` from `account`. If `account` had been granted `role`, emits a {RoleRevoked} event. Requirements: - the caller must have ``role``'s admin role. May emit a {RoleRevoked} event."
      },
      "safeBatchTransferFrom(address,address,uint256[],uint256[],bytes)": {
        "details": "See {IERC1155-safeBatchTransferFrom}."
      },
      "safeTransferFrom(address,address,uint256,uint256,bytes)": {
        "details": "See {IERC1155-safeTransferFrom}."
      },
      "setApprovalForAll(address,bool)": {
        "details": "See {IERC1155-setApprovalForAll}."
      },
      "setContractURI(string)": {
        "details": "Allows setting the contract uri",
        "params": {
          "newContractURI": "set the contractURI_ value."
        }
      },
      "setURI(string)": {
        "details": "Allows setting the uri",
        "params": {
          "newuri": "set the baseURI value."
        }
      },
      "upgradeTo(address)": {
        "details": "Upgrade the implementation of the proxy to `newImplementation`. Calls {_authorizeUpgrade}. Emits an {Upgraded} event."
      },
      "upgradeToAndCall(address,bytes)": {
        "details": "Upgrade the implementation of the proxy to `newImplementation`, and subsequently execute the function call encoded in `data`. Calls {_authorizeUpgrade}. Emits an {Upgraded} event."
      },
      "uri(uint256)": {
        "details": "See {IERC1155MetadataURI-uri}. This implementation returns the same URI for *all* token types. It relies on the token type ID substitution mechanism https://eips.ethereum.org/EIPS/eip-1155#metadata[defined in the EIP]. Clients calling this function must replace the `\\{id\\}` substring with the actual token type ID."
      }
    },
    "version": 1
  },
  "userdoc": {
    "kind": "user",
    "methods": {
      "grantMinter(address)": {
        "notice": "Must have DEFAULT_ADMIN_ROLE"
      },
      "grantRouter(address)": {
        "notice": "Must have owner role"
      },
      "grantUriRole(address)": {
        "notice": "Must have DEFAULT_ADMIN_ROLE"
      },
      "isTrustedForwarder(address)": {
        "notice": "**REQUIRED FOR GSN**"
      },
      "mint(address,uint256,uint256,bytes)": {
        "notice": "Must have MINTER_ROLE"
      },
      "mintBatch(address,uint256[],uint256[],bytes)": {
        "notice": "Must have MINTER_ROLE"
      },
      "setContractURI(string)": {
        "notice": "Must have URI_ROLE role!"
      },
      "setURI(string)": {
        "notice": "Must have URI_ROLE role!"
      }
    },
    "version": 1
  },
  "storageLayout": {
    "storage": [
      {
        "astId": 3091,
        "contract": "contracts/assets/ERC1155/ERC1155Owl.sol:ERC1155Owl",
        "label": "_initialized",
        "offset": 0,
        "slot": "0",
        "type": "t_uint8"
      },
      {
        "astId": 3094,
        "contract": "contracts/assets/ERC1155/ERC1155Owl.sol:ERC1155Owl",
        "label": "_initializing",
        "offset": 1,
        "slot": "0",
        "type": "t_bool"
      },
      {
        "astId": 3073,
        "contract": "contracts/assets/ERC1155/ERC1155Owl.sol:ERC1155Owl",
        "label": "__gap",
        "offset": 0,
        "slot": "1",
        "type": "t_array(t_uint256)50_storage"
      },
      {
        "astId": 3370,
        "contract": "contracts/assets/ERC1155/ERC1155Owl.sol:ERC1155Owl",
        "label": "__gap",
        "offset": 0,
        "slot": "51",
        "type": "t_array(t_uint256)50_storage"
      },
      {
        "astId": 7537,
        "contract": "contracts/assets/ERC1155/ERC1155Owl.sol:ERC1155Owl",
        "label": "__gap",
        "offset": 0,
        "slot": "101",
        "type": "t_array(t_uint256)50_storage"
      },
      {
        "astId": 7941,
        "contract": "contracts/assets/ERC1155/ERC1155Owl.sol:ERC1155Owl",
        "label": "__gap",
        "offset": 0,
        "slot": "151",
        "type": "t_array(t_uint256)50_storage"
      },
      {
        "astId": 2110,
        "contract": "contracts/assets/ERC1155/ERC1155Owl.sol:ERC1155Owl",
        "label": "_roles",
        "offset": 0,
        "slot": "201",
        "type": "t_mapping(t_bytes32,t_struct(RoleData)2105_storage)"
      },
      {
        "astId": 2409,
        "contract": "contracts/assets/ERC1155/ERC1155Owl.sol:ERC1155Owl",
        "label": "__gap",
        "offset": 0,
        "slot": "202",
        "type": "t_array(t_uint256)49_storage"
      },
      {
        "astId": 3400,
        "contract": "contracts/assets/ERC1155/ERC1155Owl.sol:ERC1155Owl",
        "label": "_balances",
        "offset": 0,
        "slot": "251",
        "type": "t_mapping(t_uint256,t_mapping(t_address,t_uint256))"
      },
      {
        "astId": 3406,
        "contract": "contracts/assets/ERC1155/ERC1155Owl.sol:ERC1155Owl",
        "label": "_operatorApprovals",
        "offset": 0,
        "slot": "252",
        "type": "t_mapping(t_address,t_mapping(t_address,t_bool))"
      },
      {
        "astId": 3408,
        "contract": "contracts/assets/ERC1155/ERC1155Owl.sol:ERC1155Owl",
        "label": "_uri",
        "offset": 0,
        "slot": "253",
        "type": "t_string_storage"
      },
      {
        "astId": 4615,
        "contract": "contracts/assets/ERC1155/ERC1155Owl.sol:ERC1155Owl",
        "label": "__gap",
        "offset": 0,
        "slot": "254",
        "type": "t_array(t_uint256)47_storage"
      },
      {
        "astId": 4867,
        "contract": "contracts/assets/ERC1155/ERC1155Owl.sol:ERC1155Owl",
        "label": "__gap",
        "offset": 0,
        "slot": "301",
        "type": "t_array(t_uint256)50_storage"
      },
      {
        "astId": 12841,
        "contract": "contracts/assets/ERC1155/ERC1155Owl.sol:ERC1155Owl",
        "label": "contractURI_",
        "offset": 0,
        "slot": "351",
        "type": "t_string_storage"
      }
    ],
    "types": {
      "t_address": {
        "encoding": "inplace",
        "label": "address",
        "numberOfBytes": "20"
      },
      "t_array(t_uint256)47_storage": {
        "base": "t_uint256",
        "encoding": "inplace",
        "label": "uint256[47]",
        "numberOfBytes": "1504"
      },
      "t_array(t_uint256)49_storage": {
        "base": "t_uint256",
        "encoding": "inplace",
        "label": "uint256[49]",
        "numberOfBytes": "1568"
      },
      "t_array(t_uint256)50_storage": {
        "base": "t_uint256",
        "encoding": "inplace",
        "label": "uint256[50]",
        "numberOfBytes": "1600"
      },
      "t_bool": {
        "encoding": "inplace",
        "label": "bool",
        "numberOfBytes": "1"
      },
      "t_bytes32": {
        "encoding": "inplace",
        "label": "bytes32",
        "numberOfBytes": "32"
      },
      "t_mapping(t_address,t_bool)": {
        "encoding": "mapping",
        "key": "t_address",
        "label": "mapping(address => bool)",
        "numberOfBytes": "32",
        "value": "t_bool"
      },
      "t_mapping(t_address,t_mapping(t_address,t_bool))": {
        "encoding": "mapping",
        "key": "t_address",
        "label": "mapping(address => mapping(address => bool))",
        "numberOfBytes": "32",
        "value": "t_mapping(t_address,t_bool)"
      },
      "t_mapping(t_address,t_uint256)": {
        "encoding": "mapping",
        "key": "t_address",
        "label": "mapping(address => uint256)",
        "numberOfBytes": "32",
        "value": "t_uint256"
      },
      "t_mapping(t_bytes32,t_struct(RoleData)2105_storage)": {
        "encoding": "mapping",
        "key": "t_bytes32",
        "label": "mapping(bytes32 => struct AccessControlUpgradeable.RoleData)",
        "numberOfBytes": "32",
        "value": "t_struct(RoleData)2105_storage"
      },
      "t_mapping(t_uint256,t_mapping(t_address,t_uint256))": {
        "encoding": "mapping",
        "key": "t_uint256",
        "label": "mapping(uint256 => mapping(address => uint256))",
        "numberOfBytes": "32",
        "value": "t_mapping(t_address,t_uint256)"
      },
      "t_string_storage": {
        "encoding": "bytes",
        "label": "string",
        "numberOfBytes": "32"
      },
      "t_struct(RoleData)2105_storage": {
        "encoding": "inplace",
        "label": "struct AccessControlUpgradeable.RoleData",
        "members": [
          {
            "astId": 2102,
            "contract": "contracts/assets/ERC1155/ERC1155Owl.sol:ERC1155Owl",
            "label": "members",
            "offset": 0,
            "slot": "0",
            "type": "t_mapping(t_address,t_bool)"
          },
          {
            "astId": 2104,
            "contract": "contracts/assets/ERC1155/ERC1155Owl.sol:ERC1155Owl",
            "label": "adminRole",
            "offset": 0,
            "slot": "1",
            "type": "t_bytes32"
          }
        ],
        "numberOfBytes": "64"
      },
      "t_uint256": {
        "encoding": "inplace",
        "label": "uint256",
        "numberOfBytes": "32"
      },
      "t_uint8": {
        "encoding": "inplace",
        "label": "uint8",
        "numberOfBytes": "1"
      }
    }
  }
}