{
  "address": "0x9A820a3aE9EA89a5a7953bdAC937242C4E147756",
  "abi": [
    {
      "inputs": [],
      "stateMutability": "nonpayable",
      "type": "constructor"
    },
    {
      "anonymous": false,
      "inputs": [
        {
          "indexed": false,
          "internalType": "address",
          "name": "previousAdmin",
          "type": "address"
        },
        {
          "indexed": false,
          "internalType": "address",
          "name": "newAdmin",
          "type": "address"
        }
      ],
      "name": "AdminChanged",
      "type": "event"
    },
    {
      "anonymous": false,
      "inputs": [
        {
          "indexed": true,
          "internalType": "address",
          "name": "owner",
          "type": "address"
        },
        {
          "indexed": true,
          "internalType": "address",
          "name": "approved",
          "type": "address"
        },
        {
          "indexed": true,
          "internalType": "uint256",
          "name": "tokenId",
          "type": "uint256"
        }
      ],
      "name": "Approval",
      "type": "event"
    },
    {
      "anonymous": false,
      "inputs": [
        {
          "indexed": true,
          "internalType": "address",
          "name": "owner",
          "type": "address"
        },
        {
          "indexed": true,
          "internalType": "address",
          "name": "operator",
          "type": "address"
        },
        {
          "indexed": false,
          "internalType": "bool",
          "name": "approved",
          "type": "bool"
        }
      ],
      "name": "ApprovalForAll",
      "type": "event"
    },
    {
      "anonymous": false,
      "inputs": [
        {
          "indexed": true,
          "internalType": "address",
          "name": "beacon",
          "type": "address"
        }
      ],
      "name": "BeaconUpgraded",
      "type": "event"
    },
    {
      "anonymous": false,
      "inputs": [
        {
          "indexed": false,
          "internalType": "uint8",
          "name": "version",
          "type": "uint8"
        }
      ],
      "name": "Initialized",
      "type": "event"
    },
    {
      "anonymous": false,
      "inputs": [
        {
          "indexed": true,
          "internalType": "bytes32",
          "name": "role",
          "type": "bytes32"
        },
        {
          "indexed": true,
          "internalType": "bytes32",
          "name": "previousAdminRole",
          "type": "bytes32"
        },
        {
          "indexed": true,
          "internalType": "bytes32",
          "name": "newAdminRole",
          "type": "bytes32"
        }
      ],
      "name": "RoleAdminChanged",
      "type": "event"
    },
    {
      "anonymous": false,
      "inputs": [
        {
          "indexed": true,
          "internalType": "bytes32",
          "name": "role",
          "type": "bytes32"
        },
        {
          "indexed": true,
          "internalType": "address",
          "name": "account",
          "type": "address"
        },
        {
          "indexed": true,
          "internalType": "address",
          "name": "sender",
          "type": "address"
        }
      ],
      "name": "RoleGranted",
      "type": "event"
    },
    {
      "anonymous": false,
      "inputs": [
        {
          "indexed": true,
          "internalType": "bytes32",
          "name": "role",
          "type": "bytes32"
        },
        {
          "indexed": true,
          "internalType": "address",
          "name": "account",
          "type": "address"
        },
        {
          "indexed": true,
          "internalType": "address",
          "name": "sender",
          "type": "address"
        }
      ],
      "name": "RoleRevoked",
      "type": "event"
    },
    {
      "anonymous": false,
      "inputs": [
        {
          "indexed": true,
          "internalType": "address",
          "name": "from",
          "type": "address"
        },
        {
          "indexed": true,
          "internalType": "address",
          "name": "to",
          "type": "address"
        },
        {
          "indexed": true,
          "internalType": "uint256",
          "name": "tokenId",
          "type": "uint256"
        }
      ],
      "name": "Transfer",
      "type": "event"
    },
    {
      "anonymous": false,
      "inputs": [
        {
          "indexed": true,
          "internalType": "address",
          "name": "implementation",
          "type": "address"
        }
      ],
      "name": "Upgraded",
      "type": "event"
    },
    {
      "inputs": [],
      "name": "DEFAULT_ADMIN_ROLE",
      "outputs": [
        {
          "internalType": "bytes32",
          "name": "",
          "type": "bytes32"
        }
      ],
      "stateMutability": "view",
      "type": "function"
    },
    {
      "inputs": [],
      "name": "VERSION",
      "outputs": [
        {
          "internalType": "string",
          "name": "",
          "type": "string"
        }
      ],
      "stateMutability": "view",
      "type": "function"
    },
    {
      "inputs": [
        {
          "internalType": "address",
          "name": "to",
          "type": "address"
        },
        {
          "internalType": "uint256",
          "name": "tokenId",
          "type": "uint256"
        }
      ],
      "name": "approve",
      "outputs": [],
      "stateMutability": "nonpayable",
      "type": "function"
    },
    {
      "inputs": [
        {
          "internalType": "address",
          "name": "owner",
          "type": "address"
        }
      ],
      "name": "balanceOf",
      "outputs": [
        {
          "internalType": "uint256",
          "name": "",
          "type": "uint256"
        }
      ],
      "stateMutability": "view",
      "type": "function"
    },
    {
      "inputs": [],
      "name": "baseURI",
      "outputs": [
        {
          "internalType": "string",
          "name": "",
          "type": "string"
        }
      ],
      "stateMutability": "view",
      "type": "function"
    },
    {
      "inputs": [
        {
          "internalType": "uint256",
          "name": "tokenId",
          "type": "uint256"
        }
      ],
      "name": "burn",
      "outputs": [],
      "stateMutability": "nonpayable",
      "type": "function"
    },
    {
      "inputs": [],
      "name": "contractURI",
      "outputs": [
        {
          "internalType": "string",
          "name": "",
          "type": "string"
        }
      ],
      "stateMutability": "view",
      "type": "function"
    },
    {
      "inputs": [
        {
          "internalType": "uint256",
          "name": "tokenId",
          "type": "uint256"
        }
      ],
      "name": "exists",
      "outputs": [
        {
          "internalType": "bool",
          "name": "",
          "type": "bool"
        }
      ],
      "stateMutability": "view",
      "type": "function"
    },
    {
      "inputs": [
        {
          "internalType": "uint256",
          "name": "tokenId",
          "type": "uint256"
        }
      ],
      "name": "getApproved",
      "outputs": [
        {
          "internalType": "address",
          "name": "",
          "type": "address"
        }
      ],
      "stateMutability": "view",
      "type": "function"
    },
    {
      "inputs": [],
      "name": "getImplementation",
      "outputs": [
        {
          "internalType": "address",
          "name": "",
          "type": "address"
        }
      ],
      "stateMutability": "view",
      "type": "function"
    },
    {
      "inputs": [
        {
          "internalType": "bytes32",
          "name": "role",
          "type": "bytes32"
        }
      ],
      "name": "getRoleAdmin",
      "outputs": [
        {
          "internalType": "bytes32",
          "name": "",
          "type": "bytes32"
        }
      ],
      "stateMutability": "view",
      "type": "function"
    },
    {
      "inputs": [
        {
          "internalType": "address",
          "name": "to",
          "type": "address"
        }
      ],
      "name": "grantMinter",
      "outputs": [],
      "stateMutability": "nonpayable",
      "type": "function"
    },
    {
      "inputs": [
        {
          "internalType": "bytes32",
          "name": "role",
          "type": "bytes32"
        },
        {
          "internalType": "address",
          "name": "account",
          "type": "address"
        }
      ],
      "name": "grantRole",
      "outputs": [],
      "stateMutability": "nonpayable",
      "type": "function"
    },
    {
      "inputs": [
        {
          "internalType": "address",
          "name": "to",
          "type": "address"
        }
      ],
      "name": "grantRouter",
      "outputs": [],
      "stateMutability": "nonpayable",
      "type": "function"
    },
    {
      "inputs": [
        {
          "internalType": "address",
          "name": "to",
          "type": "address"
        }
      ],
      "name": "grantUriRole",
      "outputs": [],
      "stateMutability": "nonpayable",
      "type": "function"
    },
    {
      "inputs": [
        {
          "internalType": "bytes32",
          "name": "role",
          "type": "bytes32"
        },
        {
          "internalType": "address",
          "name": "account",
          "type": "address"
        }
      ],
      "name": "hasRole",
      "outputs": [
        {
          "internalType": "bool",
          "name": "",
          "type": "bool"
        }
      ],
      "stateMutability": "view",
      "type": "function"
    },
    {
      "inputs": [
        {
          "internalType": "address",
          "name": "_admin",
          "type": "address"
        },
        {
          "internalType": "string",
          "name": "_name",
          "type": "string"
        },
        {
          "internalType": "string",
          "name": "_symbol",
          "type": "string"
        },
        {
          "internalType": "string",
          "name": "baseURI_",
          "type": "string"
        },
        {
          "internalType": "address",
          "name": "_forwarder",
          "type": "address"
        }
      ],
      "name": "initialize",
      "outputs": [],
      "stateMutability": "nonpayable",
      "type": "function"
    },
    {
      "inputs": [
        {
          "internalType": "address",
          "name": "owner",
          "type": "address"
        },
        {
          "internalType": "address",
          "name": "operator",
          "type": "address"
        }
      ],
      "name": "isApprovedForAll",
      "outputs": [
        {
          "internalType": "bool",
          "name": "",
          "type": "bool"
        }
      ],
      "stateMutability": "view",
      "type": "function"
    },
    {
      "inputs": [
        {
          "internalType": "address",
          "name": "forwarder",
          "type": "address"
        }
      ],
      "name": "isTrustedForwarder",
      "outputs": [
        {
          "internalType": "bool",
          "name": "",
          "type": "bool"
        }
      ],
      "stateMutability": "view",
      "type": "function"
    },
    {
      "inputs": [
        {
          "internalType": "address",
          "name": "to",
          "type": "address"
        },
        {
          "internalType": "uint256",
          "name": "tokenId",
          "type": "uint256"
        }
      ],
      "name": "mint",
      "outputs": [],
      "stateMutability": "nonpayable",
      "type": "function"
    },
    {
      "inputs": [],
      "name": "name",
      "outputs": [
        {
          "internalType": "string",
          "name": "",
          "type": "string"
        }
      ],
      "stateMutability": "view",
      "type": "function"
    },
    {
      "inputs": [
        {
          "internalType": "uint256",
          "name": "tokenId",
          "type": "uint256"
        }
      ],
      "name": "ownerOf",
      "outputs": [
        {
          "internalType": "address",
          "name": "",
          "type": "address"
        }
      ],
      "stateMutability": "view",
      "type": "function"
    },
    {
      "inputs": [],
      "name": "proxiableUUID",
      "outputs": [
        {
          "internalType": "bytes32",
          "name": "",
          "type": "bytes32"
        }
      ],
      "stateMutability": "view",
      "type": "function"
    },
    {
      "inputs": [
        {
          "internalType": "address",
          "name": "_admin",
          "type": "address"
        },
        {
          "internalType": "string",
          "name": "_name",
          "type": "string"
        },
        {
          "internalType": "string",
          "name": "_symbol",
          "type": "string"
        },
        {
          "internalType": "string",
          "name": "baseURI_",
          "type": "string"
        },
        {
          "internalType": "address",
          "name": "_forwarder",
          "type": "address"
        }
      ],
      "name": "proxyInitialize",
      "outputs": [],
      "stateMutability": "nonpayable",
      "type": "function"
    },
    {
      "inputs": [
        {
          "internalType": "bytes32",
          "name": "role",
          "type": "bytes32"
        },
        {
          "internalType": "address",
          "name": "account",
          "type": "address"
        }
      ],
      "name": "renounceRole",
      "outputs": [],
      "stateMutability": "nonpayable",
      "type": "function"
    },
    {
      "inputs": [
        {
          "internalType": "bytes32",
          "name": "role",
          "type": "bytes32"
        },
        {
          "internalType": "address",
          "name": "account",
          "type": "address"
        }
      ],
      "name": "revokeRole",
      "outputs": [],
      "stateMutability": "nonpayable",
      "type": "function"
    },
    {
      "inputs": [
        {
          "internalType": "address",
          "name": "to",
          "type": "address"
        },
        {
          "internalType": "uint256",
          "name": "tokenId",
          "type": "uint256"
        }
      ],
      "name": "safeMint",
      "outputs": [],
      "stateMutability": "nonpayable",
      "type": "function"
    },
    {
      "inputs": [
        {
          "internalType": "address",
          "name": "from",
          "type": "address"
        },
        {
          "internalType": "address",
          "name": "to",
          "type": "address"
        },
        {
          "internalType": "uint256",
          "name": "tokenId",
          "type": "uint256"
        }
      ],
      "name": "safeTransferFrom",
      "outputs": [],
      "stateMutability": "nonpayable",
      "type": "function"
    },
    {
      "inputs": [
        {
          "internalType": "address",
          "name": "from",
          "type": "address"
        },
        {
          "internalType": "address",
          "name": "to",
          "type": "address"
        },
        {
          "internalType": "uint256",
          "name": "tokenId",
          "type": "uint256"
        },
        {
          "internalType": "bytes",
          "name": "data",
          "type": "bytes"
        }
      ],
      "name": "safeTransferFrom",
      "outputs": [],
      "stateMutability": "nonpayable",
      "type": "function"
    },
    {
      "inputs": [
        {
          "internalType": "address",
          "name": "operator",
          "type": "address"
        },
        {
          "internalType": "bool",
          "name": "approved",
          "type": "bool"
        }
      ],
      "name": "setApprovalForAll",
      "outputs": [],
      "stateMutability": "nonpayable",
      "type": "function"
    },
    {
      "inputs": [
        {
          "internalType": "string",
          "name": "baseURI_",
          "type": "string"
        }
      ],
      "name": "setBaseURI",
      "outputs": [],
      "stateMutability": "nonpayable",
      "type": "function"
    },
    {
      "inputs": [
        {
          "internalType": "bytes4",
          "name": "interfaceId",
          "type": "bytes4"
        }
      ],
      "name": "supportsInterface",
      "outputs": [
        {
          "internalType": "bool",
          "name": "",
          "type": "bool"
        }
      ],
      "stateMutability": "view",
      "type": "function"
    },
    {
      "inputs": [],
      "name": "symbol",
      "outputs": [
        {
          "internalType": "string",
          "name": "",
          "type": "string"
        }
      ],
      "stateMutability": "view",
      "type": "function"
    },
    {
      "inputs": [
        {
          "internalType": "uint256",
          "name": "tokenId",
          "type": "uint256"
        }
      ],
      "name": "tokenURI",
      "outputs": [
        {
          "internalType": "string",
          "name": "",
          "type": "string"
        }
      ],
      "stateMutability": "view",
      "type": "function"
    },
    {
      "inputs": [
        {
          "internalType": "address",
          "name": "from",
          "type": "address"
        },
        {
          "internalType": "address",
          "name": "to",
          "type": "address"
        },
        {
          "internalType": "uint256",
          "name": "tokenId",
          "type": "uint256"
        }
      ],
      "name": "transferFrom",
      "outputs": [],
      "stateMutability": "nonpayable",
      "type": "function"
    },
    {
      "inputs": [
        {
          "internalType": "address",
          "name": "newImplementation",
          "type": "address"
        }
      ],
      "name": "upgradeTo",
      "outputs": [],
      "stateMutability": "nonpayable",
      "type": "function"
    },
    {
      "inputs": [
        {
          "internalType": "address",
          "name": "newImplementation",
          "type": "address"
        },
        {
          "internalType": "bytes",
          "name": "data",
          "type": "bytes"
        }
      ],
      "name": "upgradeToAndCall",
      "outputs": [],
      "stateMutability": "payable",
      "type": "function"
    },
    {
      "inputs": [],
      "name": "versionRecipient",
      "outputs": [
        {
          "internalType": "string",
          "name": "",
          "type": "string"
        }
      ],
      "stateMutability": "pure",
      "type": "function"
    }
  ],
  "transactionHash": "0x3f59b3acc7514cb2b330393a2c69feb6783ebfb7389e2ba651970dce49605c72",
  "args": [],
  "numDeployments": 1,
  "solcInputHash": "28b4d2e2155903f56ed1fc988848ec0f",
  "bytecode": "0x60a0604052306080523480156200001557600080fd5b506200002062000026565b620000e8565b600054610100900460ff1615620000935760405162461bcd60e51b815260206004820152602760248201527f496e697469616c697a61626c653a20636f6e747261637420697320696e697469604482015266616c697a696e6760c81b606482015260840160405180910390fd5b60005460ff9081161015620000e6576000805460ff191660ff9081179091556040519081527f7f26b83ff96e1f2b6a682f133852f6798a09c465da95921460cefb38474024989060200160405180910390a15b565b6080516130de6200012060003960008181610c5c01528181610c9c01528181610e6d01528181610ead0152610f7901526130de6000f3fe6080604052600436106102255760003560e01c806352d1902d11610123578063a1448194116100ab578063c87b56dd1161006f578063c87b56dd14610663578063d547741f14610683578063e8a3d485146106a3578063e985e9c5146106b8578063ffa1ad741461070257600080fd5b8063a1448194146105d9578063a217fddf146105f9578063a22cb4651461060e578063aaf10f421461062e578063b88d4fde1461064357600080fd5b80636c0360eb116100f25780636c0360eb1461054f57806370a082311461056457806391d148541461058457806395d89b41146105a457806398c76d25146105b957600080fd5b806352d1902d146104da57806355f804b3146104ef578063572b6c051461050f5780636352211e1461052f57600080fd5b806336568abe116101b1578063486ff0cd11610175578063486ff0cd146104395780634e59dacd146104675780634f1ef286146104875780634f558e791461049a578063529cc129146104ba57600080fd5b806336568abe146103995780633659cfe6146103b957806340c10f19146103d957806342842e0e146103f957806342966c681461041957600080fd5b8063095ea7b3116101f8578063095ea7b3146102db57806323b872dd146102fb578063248a9ca31461031b578063261707fa146103595780632f2ff15d1461037957600080fd5b806301ffc9a71461022a57806306fdde031461025f578063081812fc1461028157806308277dda146102b9575b600080fd5b34801561023657600080fd5b5061024a6102453660046126b7565b610732565b60405190151581526020015b60405180910390f35b34801561026b57600080fd5b506102746107a2565b604051610256919061272c565b34801561028d57600080fd5b506102a161029c36600461273f565b610834565b6040516001600160a01b039091168152602001610256565b3480156102c557600080fd5b506102d96102d43660046127bd565b61085b565b005b3480156102e757600080fd5b506102d96102f6366004612878565b610a1b565b34801561030757600080fd5b506102d96103163660046128a2565b610b43565b34801561032757600080fd5b5061034b61033636600461273f565b600090815260c9602052604090206001015490565b604051908152602001610256565b34801561036557600080fd5b506102d96103743660046128de565b610b7b565b34801561038557600080fd5b506102d96103943660046128f9565b610ba2565b3480156103a557600080fd5b506102d96103b43660046128f9565b610bc7565b3480156103c557600080fd5b506102d96103d43660046128de565b610c51565b3480156103e557600080fd5b506102d96103f4366004612878565b610d1a565b34801561040557600080fd5b506102d96104143660046128a2565b610d3c565b34801561042557600080fd5b506102d961043436600461273f565b610d57565b34801561044557600080fd5b50604080518082019091526005815264191719171b60d91b6020820152610274565b34801561047357600080fd5b506102d96104823660046127bd565b610d87565b6102d96104953660046129c8565b610e62565b3480156104a657600080fd5b5061024a6104b536600461273f565b610f18565b3480156104c657600080fd5b506102d96104d53660046128de565b610f37565b3480156104e657600080fd5b5061034b610f6c565b3480156104fb57600080fd5b506102d961050a366004612a16565b61101f565b34801561051b57600080fd5b5061024a61052a3660046128de565b61105c565b34801561053b57600080fd5b506102a161054a36600461273f565b611076565b34801561055b57600080fd5b506102746110d6565b34801561057057600080fd5b5061034b61057f3660046128de565b611165565b34801561059057600080fd5b5061024a61059f3660046128f9565b6111eb565b3480156105b057600080fd5b50610274611216565b3480156105c557600080fd5b506102d96105d43660046128de565b611225565b3480156105e557600080fd5b506102d96105f4366004612878565b611248565b34801561060557600080fd5b5061034b600081565b34801561061a57600080fd5b506102d9610629366004612a58565b61126a565b34801561063a57600080fd5b506102a161127c565b34801561064f57600080fd5b506102d961065e366004612a94565b61128b565b34801561066f57600080fd5b5061027461067e36600461273f565b6112c4565b34801561068f57600080fd5b506102d961069e3660046128f9565b61132b565b3480156106af57600080fd5b50610274611350565b3480156106c457600080fd5b5061024a6106d3366004612afc565b6001600160a01b0391821660009081526101006020908152604080832093909416825291909152205460ff1690565b34801561070e57600080fd5b506102746040518060400160405280600481526020016376302e3160e01b81525081565b60006040518060400160405280600481526020016376302e3160e01b8152506040516020016107619190612b26565b604051602081830303815290604052805190602001206001600160e01b031916826001600160e01b031916148061079c575061079c82611379565b92915050565b606060fb80546107b190612b6b565b80601f01602080910402602001604051908101604052809291908181526020018280546107dd90612b6b565b801561082a5780601f106107ff5761010080835404028352916020019161082a565b820191906000526020600020905b81548152906001019060200180831161080d57829003601f168201915b5050505050905090565b600061083f826113b9565b50600090815260ff60205260409020546001600160a01b031690565b600054610100900460ff161580801561087b5750600054600160ff909116105b806108955750303b158015610895575060005460ff166001145b6108fd5760405162461bcd60e51b815260206004820152602e60248201527f496e697469616c697a61626c653a20636f6e747261637420697320616c72656160448201526d191e481a5b9a5d1a585b1a5e995960921b60648201526084015b60405180910390fd5b6000805460ff191660011790558015610920576000805461ff0019166101001790555b6109ca8989898080601f01602080910402602001604051908101604052809392919081815260200183838082843760009201919091525050604080516020601f8d018190048102820181019092528b815292508b91508a908190840183828082843760009201919091525050604080516020601f8c018190048102820181019092528a815292508a9150899081908401838280828437600092019190915250899250611418915050565b8015610a10576000805461ff0019169055604051600181527f7f26b83ff96e1f2b6a682f133852f6798a09c465da95921460cefb38474024989060200160405180910390a15b505050505050505050565b6000610a2682611076565b9050806001600160a01b0316836001600160a01b03161415610a945760405162461bcd60e51b815260206004820152602160248201527f4552433732313a20617070726f76616c20746f2063757272656e74206f776e656044820152603960f91b60648201526084016108f4565b806001600160a01b0316610aa66114b0565b6001600160a01b03161480610ac25750610ac2816106d36114b0565b610b345760405162461bcd60e51b815260206004820152603e60248201527f4552433732313a20617070726f76652063616c6c6572206973206e6f7420746f60448201527f6b656e206f776e6572206e6f7220617070726f76656420666f7220616c6c000060648201526084016108f4565b610b3e83836114ba565b505050565b610b54610b4e6114b0565b82611528565b610b705760405162461bcd60e51b81526004016108f490612ba6565b610b3e8383836115a8565b6000610b8681611744565b610b9e60008051602061306983398151915283611755565b5050565b600082815260c96020526040902060010154610bbd81611744565b610b3e8383611755565b610bcf6114b0565b6001600160a01b0316816001600160a01b031614610c475760405162461bcd60e51b815260206004820152602f60248201527f416363657373436f6e74726f6c3a2063616e206f6e6c792072656e6f756e636560448201526e103937b632b9903337b91039b2b63360891b60648201526084016108f4565b610b9e82826117dc565b306001600160a01b037f0000000000000000000000000000000000000000000000000000000000000000161415610c9a5760405162461bcd60e51b81526004016108f490612bf4565b7f00000000000000000000000000000000000000000000000000000000000000006001600160a01b0316610ccc611861565b6001600160a01b031614610cf25760405162461bcd60e51b81526004016108f490612c40565b610cfb8161187d565b60408051600080825260208201909252610d1791839190611888565b50565b600080516020613069833981519152610d3281611744565b610b3e8383611a02565b610b3e8383836040518060200160405280600081525061128b565b610d62610b4e6114b0565b610d7e5760405162461bcd60e51b81526004016108f490612ba6565b610d1781611b44565b600054610100900460ff16610dae5760405162461bcd60e51b81526004016108f490612c8c565b610e588888888080601f01602080910402602001604051908101604052809392919081815260200183838082843760009201919091525050604080516020601f8c018190048102820181019092528a815292508a915089908190840183828082843760009201919091525050604080516020601f8b018190048102820181019092528981529250899150889081908401838280828437600092019190915250889250611418915050565b5050505050505050565b306001600160a01b037f0000000000000000000000000000000000000000000000000000000000000000161415610eab5760405162461bcd60e51b81526004016108f490612bf4565b7f00000000000000000000000000000000000000000000000000000000000000006001600160a01b0316610edd611861565b6001600160a01b031614610f035760405162461bcd60e51b81526004016108f490612c40565b610f0c8261187d565b610b9e82826001611888565b600081815260fd60205260408120546001600160a01b0316151561079c565b6000610f4281611744565b610b9e7f8e6595ef9afb2a8f70320f393f567bb7a0e6c4ed483caee30f90cc5fcd6659b483611755565b6000306001600160a01b037f0000000000000000000000000000000000000000000000000000000000000000161461100c5760405162461bcd60e51b815260206004820152603860248201527f555550535570677261646561626c653a206d757374206e6f742062652063616c60448201527f6c6564207468726f7567682064656c656761746563616c6c000000000000000060648201526084016108f4565b5060008051602061302283398151915290565b7f8e6595ef9afb2a8f70320f393f567bb7a0e6c4ed483caee30f90cc5fcd6659b461104981611744565b61105661015f8484612594565b50505050565b600061079c600080516020613089833981519152836111eb565b600081815260fd60205260408120546001600160a01b03168061079c5760405162461bcd60e51b8152602060048201526018602482015277115490cdcc8c4e881a5b9d985b1a59081d1bdad95b88125160421b60448201526064016108f4565b61015f80546110e490612b6b565b80601f016020809104026020016040519081016040528092919081815260200182805461111090612b6b565b801561115d5780601f106111325761010080835404028352916020019161115d565b820191906000526020600020905b81548152906001019060200180831161114057829003601f168201915b505050505081565b60006001600160a01b0382166111cf5760405162461bcd60e51b815260206004820152602960248201527f4552433732313a2061646472657373207a65726f206973206e6f7420612076616044820152683634b21037bbb732b960b91b60648201526084016108f4565b506001600160a01b0316600090815260fe602052604090205490565b600091825260c9602090815260408084206001600160a01b0393909316845291905290205460ff1690565b606060fc80546107b190612b6b565b600061123081611744565b610b9e60008051602061308983398151915283611755565b60008051602061306983398151915261126081611744565b610b3e8383611bdf565b610b9e6112756114b0565b8383611bf9565b6000611286611861565b905090565b61129c6112966114b0565b83611528565b6112b85760405162461bcd60e51b81526004016108f490612ba6565b61105684848484611cc9565b60606112cf826113b9565b60006112d9611cfc565b905060008151116112f95760405180602001604052806000815250611324565b8061130384611d0c565b604051602001611314929190612cd7565b6040516020818303038152906040525b9392505050565b600082815260c9602052604090206001015461134681611744565b610b3e83836117dc565b606061015f6040516020016113659190612d06565b604051602081830303815290604052905090565b60006001600160e01b031982166380ac58cd60e01b14806113aa57506001600160e01b03198216635b5e139f60e01b145b8061079c575061079c82611e0a565b600081815260fd60205260409020546001600160a01b0316610d175760405162461bcd60e51b8152602060048201526018602482015277115490cdcc8c4e881a5b9d985b1a59081d1bdad95b88125160421b60448201526064016108f4565b600054610100900460ff1661143f5760405162461bcd60e51b81526004016108f490612c8c565b6114498484611e3f565b6114538582611e70565b61145e600086611755565b61147660008051602061306983398151915286611755565b6114a07f8e6595ef9afb2a8f70320f393f567bb7a0e6c4ed483caee30f90cc5fcd6659b486611755565b6114a982611ec4565b5050505050565b6000611286611f09565b600081815260ff6020526040902080546001600160a01b0319166001600160a01b03841690811790915581906114ef82611076565b6001600160a01b03167f8c5be1e5ebec7d5bd14f71427d1e84f3dd0314c0f7b2291e5b200ac8c7c3b92560405160405180910390a45050565b60008061153483611076565b9050806001600160a01b0316846001600160a01b0316148061157c57506001600160a01b038082166000908152610100602090815260408083209388168352929052205460ff165b806115a05750836001600160a01b031661159584610834565b6001600160a01b0316145b949350505050565b826001600160a01b03166115bb82611076565b6001600160a01b03161461161f5760405162461bcd60e51b815260206004820152602560248201527f4552433732313a207472616e736665722066726f6d20696e636f72726563742060448201526437bbb732b960d91b60648201526084016108f4565b6001600160a01b0382166116815760405162461bcd60e51b8152602060048201526024808201527f4552433732313a207472616e7366657220746f20746865207a65726f206164646044820152637265737360e01b60648201526084016108f4565b61168c6000826114ba565b6001600160a01b038316600090815260fe602052604081208054600192906116b5908490612dcd565b90915550506001600160a01b038216600090815260fe602052604081208054600192906116e3908490612de4565b9091555050600081815260fd602052604080822080546001600160a01b0319166001600160a01b0386811691821790925591518493918716917fddf252ad1be2c89b69c2b068fc378daa952ba7f163c4a11628f55a4df523b3ef91a4505050565b610d17816117506114b0565b611f46565b61175f82826111eb565b610b9e57600082815260c9602090815260408083206001600160a01b03851684529091529020805460ff191660011790556117986114b0565b6001600160a01b0316816001600160a01b0316837f2f8788117e7eff1d82e926ec794901d17c78024a50270940304540a733656f0d60405160405180910390a45050565b6117e682826111eb565b15610b9e57600082815260c9602090815260408083206001600160a01b03851684529091529020805460ff1916905561181d6114b0565b6001600160a01b0316816001600160a01b0316837ff6391f5c32d9c69d2a47ea670b442974b53935d1edc7fd64eb21e047a839171b60405160405180910390a45050565b600080516020613022833981519152546001600160a01b031690565b6000610b9e81611744565b7f4910fdfa16fed3260ed0e7147f7cc6da11a60208b5b9406d12a635614ffd91435460ff16156118bb57610b3e83611faa565b826001600160a01b03166352d1902d6040518163ffffffff1660e01b815260040160206040518083038186803b1580156118f457600080fd5b505afa925050508015611924575060408051601f3d908101601f1916820190925261192191810190612dfc565b60015b6119875760405162461bcd60e51b815260206004820152602e60248201527f45524331393637557067726164653a206e657720696d706c656d656e7461746960448201526d6f6e206973206e6f74205555505360901b60648201526084016108f4565b60008051602061302283398151915281146119f65760405162461bcd60e51b815260206004820152602960248201527f45524331393637557067726164653a20756e737570706f727465642070726f786044820152681a58589b195555525160ba1b60648201526084016108f4565b50610b3e838383612046565b6001600160a01b038216611a585760405162461bcd60e51b815260206004820181905260248201527f4552433732313a206d696e7420746f20746865207a65726f206164647265737360448201526064016108f4565b600081815260fd60205260409020546001600160a01b031615611abd5760405162461bcd60e51b815260206004820152601c60248201527f4552433732313a20746f6b656e20616c7265616479206d696e7465640000000060448201526064016108f4565b6001600160a01b038216600090815260fe60205260408120805460019290611ae6908490612de4565b9091555050600081815260fd602052604080822080546001600160a01b0319166001600160a01b03861690811790915590518392907fddf252ad1be2c89b69c2b068fc378daa952ba7f163c4a11628f55a4df523b3ef908290a45050565b6000611b4f82611076565b9050611b5c6000836114ba565b6001600160a01b038116600090815260fe60205260408120805460019290611b85908490612dcd565b9091555050600082815260fd602052604080822080546001600160a01b0319169055518391906001600160a01b038416907fddf252ad1be2c89b69c2b068fc378daa952ba7f163c4a11628f55a4df523b3ef908390a45050565b610b9e82826040518060200160405280600081525061206b565b816001600160a01b0316836001600160a01b03161415611c5b5760405162461bcd60e51b815260206004820152601960248201527f4552433732313a20617070726f766520746f2063616c6c65720000000000000060448201526064016108f4565b6001600160a01b0383811660008181526101006020908152604080832094871680845294825291829020805460ff191686151590811790915591519182527f17307eab39ab6107e8899845ad3d59bd9653f200f220920489ca2b5937696c31910160405180910390a3505050565b611cd48484846115a8565b611ce08484848461209e565b6110565760405162461bcd60e51b81526004016108f490612e15565b606061015f80546107b190612b6b565b606081611d305750506040805180820190915260018152600360fc1b602082015290565b8160005b8115611d5a5780611d4481612e67565b9150611d539050600a83612e98565b9150611d34565b60008167ffffffffffffffff811115611d7557611d75612925565b6040519080825280601f01601f191660200182016040528015611d9f576020820181803683370190505b5090505b84156115a057611db4600183612dcd565b9150611dc1600a86612eac565b611dcc906030612de4565b60f81b818381518110611de157611de1612ec0565b60200101906001600160f81b031916908160001a905350611e03600a86612e98565b9450611da3565b60006001600160e01b03198216637965db0b60e01b148061079c57506301ffc9a760e01b6001600160e01b031983161461079c565b600054610100900460ff16611e665760405162461bcd60e51b81526004016108f490612c8c565b610b9e82826121b2565b600054610100900460ff16611e975760405162461bcd60e51b81526004016108f490612c8c565b611ea18282612200565b611eac600083611755565b610b9e60008051602061308983398151915282611755565b600054610100900460ff16611eeb5760405162461bcd60e51b81526004016108f490612c8c565b611ef3612227565b50508051610b9e9061015f906020840190612618565b600060143610801590611f2f5750611f2f600080516020613089833981519152336111eb565b15611f41575060131936013560601c90565b503390565b611f5082826111eb565b610b9e57611f68816001600160a01b0316601461223a565b611f7383602061223a565b604051602001611f84929190612ed6565b60408051601f198184030181529082905262461bcd60e51b82526108f49160040161272c565b6001600160a01b0381163b6120175760405162461bcd60e51b815260206004820152602d60248201527f455243313936373a206e657720696d706c656d656e746174696f6e206973206e60448201526c1bdd08184818dbdb9d1c9858dd609a1b60648201526084016108f4565b60008051602061302283398151915280546001600160a01b0319166001600160a01b0392909216919091179055565b61204f836123d6565b60008251118061205c5750805b15610b3e576110568383612416565b6120758383611a02565b612082600084848461209e565b610b3e5760405162461bcd60e51b81526004016108f490612e15565b60006001600160a01b0384163b156121a757836001600160a01b031663150b7a026120c76114b0565b8786866040518563ffffffff1660e01b81526004016120e99493929190612f4b565b602060405180830381600087803b15801561210357600080fd5b505af1925050508015612133575060408051601f3d908101601f1916820190925261213091810190612f88565b60015b61218d573d808015612161576040519150601f19603f3d011682016040523d82523d6000602084013e612166565b606091505b5080516121855760405162461bcd60e51b81526004016108f490612e15565b805181602001fd5b6001600160e01b031916630a85bd0160e11b1490506115a0565b506001949350505050565b600054610100900460ff166121d95760405162461bcd60e51b81526004016108f490612c8c565b81516121ec9060fb906020850190612618565b508051610b3e9060fc906020840190612618565b600054610100900460ff16610b9e5760405162461bcd60e51b81526004016108f490612c8c565b36600061223261250a565b915091509091565b60606000612249836002612fa5565b612254906002612de4565b67ffffffffffffffff81111561226c5761226c612925565b6040519080825280601f01601f191660200182016040528015612296576020820181803683370190505b509050600360fc1b816000815181106122b1576122b1612ec0565b60200101906001600160f81b031916908160001a905350600f60fb1b816001815181106122e0576122e0612ec0565b60200101906001600160f81b031916908160001a9053506000612304846002612fa5565b61230f906001612de4565b90505b6001811115612387576f181899199a1a9b1b9c1cb0b131b232b360811b85600f166010811061234357612343612ec0565b1a60f81b82828151811061235957612359612ec0565b60200101906001600160f81b031916908160001a90535060049490941c9361238081612fc4565b9050612312565b5083156113245760405162461bcd60e51b815260206004820181905260248201527f537472696e67733a20686578206c656e67746820696e73756666696369656e7460448201526064016108f4565b6123df81611faa565b6040516001600160a01b038216907fbc7cd75a20ee27fd9adebab32041f755214dbc6bffa90cc0225b39da2e5c2d3b90600090a250565b60606001600160a01b0383163b61247e5760405162461bcd60e51b815260206004820152602660248201527f416464726573733a2064656c65676174652063616c6c20746f206e6f6e2d636f6044820152651b9d1c9858dd60d21b60648201526084016108f4565b600080846001600160a01b0316846040516124999190612fdb565b600060405180830381855af49150503d80600081146124d4576040519150601f19603f3d011682016040523d82523d6000602084013e6124d9565b606091505b509150915061250182826040518060600160405280602781526020016130426027913961255b565b95945050505050565b366000601482108015906125315750612531600080516020613089833981519152336111eb565b156125525760008036612545601482612dcd565b9261223293929190612ff7565b50600091369150565b6060831561256a575081611324565b82511561257a5782518084602001fd5b8160405162461bcd60e51b81526004016108f4919061272c565b8280546125a090612b6b565b90600052602060002090601f0160209004810192826125c25760008555612608565b82601f106125db5782800160ff19823516178555612608565b82800160010185558215612608579182015b828111156126085782358255916020019190600101906125ed565b5061261492915061268c565b5090565b82805461262490612b6b565b90600052602060002090601f0160209004810192826126465760008555612608565b82601f1061265f57805160ff1916838001178555612608565b82800160010185558215612608579182015b82811115612608578251825591602001919060010190612671565b5b80821115612614576000815560010161268d565b6001600160e01b031981168114610d1757600080fd5b6000602082840312156126c957600080fd5b8135611324816126a1565b60005b838110156126ef5781810151838201526020016126d7565b838111156110565750506000910152565b600081518084526127188160208601602086016126d4565b601f01601f19169290920160200192915050565b6020815260006113246020830184612700565b60006020828403121561275157600080fd5b5035919050565b80356001600160a01b038116811461276f57600080fd5b919050565b60008083601f84011261278657600080fd5b50813567ffffffffffffffff81111561279e57600080fd5b6020830191508360208285010111156127b657600080fd5b9250929050565b60008060008060008060008060a0898b0312156127d957600080fd5b6127e289612758565b9750602089013567ffffffffffffffff808211156127ff57600080fd5b61280b8c838d01612774565b909950975060408b013591508082111561282457600080fd5b6128308c838d01612774565b909750955060608b013591508082111561284957600080fd5b506128568b828c01612774565b9094509250612869905060808a01612758565b90509295985092959890939650565b6000806040838503121561288b57600080fd5b61289483612758565b946020939093013593505050565b6000806000606084860312156128b757600080fd5b6128c084612758565b92506128ce60208501612758565b9150604084013590509250925092565b6000602082840312156128f057600080fd5b61132482612758565b6000806040838503121561290c57600080fd5b8235915061291c60208401612758565b90509250929050565b634e487b7160e01b600052604160045260246000fd5b600082601f83011261294c57600080fd5b813567ffffffffffffffff8082111561296757612967612925565b604051601f8301601f19908116603f0116810190828211818310171561298f5761298f612925565b816040528381528660208588010111156129a857600080fd5b836020870160208301376000602085830101528094505050505092915050565b600080604083850312156129db57600080fd5b6129e483612758565b9150602083013567ffffffffffffffff811115612a0057600080fd5b612a0c8582860161293b565b9150509250929050565b60008060208385031215612a2957600080fd5b823567ffffffffffffffff811115612a4057600080fd5b612a4c85828601612774565b90969095509350505050565b60008060408385031215612a6b57600080fd5b612a7483612758565b915060208301358015158114612a8957600080fd5b809150509250929050565b60008060008060808587031215612aaa57600080fd5b612ab385612758565b9350612ac160208601612758565b925060408501359150606085013567ffffffffffffffff811115612ae457600080fd5b612af08782880161293b565b91505092959194509250565b60008060408385031215612b0f57600080fd5b612b1883612758565b915061291c60208401612758565b7f4f574c50726f746f636f6c3a2f2f4552433732314f776c2f0000000000000000815260008251612b5e8160188501602087016126d4565b9190910160180192915050565b600181811c90821680612b7f57607f821691505b60208210811415612ba057634e487b7160e01b600052602260045260246000fd5b50919050565b6020808252602e908201527f4552433732313a2063616c6c6572206973206e6f7420746f6b656e206f776e6560408201526d1c881b9bdc88185c1c1c9bdd995960921b606082015260800190565b6020808252602c908201527f46756e6374696f6e206d7573742062652063616c6c6564207468726f7567682060408201526b19195b1959d85d1958d85b1b60a21b606082015260800190565b6020808252602c908201527f46756e6374696f6e206d7573742062652063616c6c6564207468726f7567682060408201526b6163746976652070726f787960a01b606082015260800190565b6020808252602b908201527f496e697469616c697a61626c653a20636f6e7472616374206973206e6f74206960408201526a6e697469616c697a696e6760a81b606082015260800190565b60008351612ce98184602088016126d4565b835190830190612cfd8183602088016126d4565b01949350505050565b600080835481600182811c915080831680612d2257607f831692505b6020808410821415612d4257634e487b7160e01b86526022600452602486fd5b818015612d565760018114612d6757612d94565b60ff19861689528489019650612d94565b60008a81526020902060005b86811015612d8c5781548b820152908501908301612d73565b505084890196505b5050505050506115a0816c36b2ba30b230ba30973539b7b760991b8152600d0190565b634e487b7160e01b600052601160045260246000fd5b600082821015612ddf57612ddf612db7565b500390565b60008219821115612df757612df7612db7565b500190565b600060208284031215612e0e57600080fd5b5051919050565b60208082526032908201527f4552433732313a207472616e7366657220746f206e6f6e20455243373231526560408201527131b2b4bb32b91034b6b83632b6b2b73a32b960711b606082015260800190565b6000600019821415612e7b57612e7b612db7565b5060010190565b634e487b7160e01b600052601260045260246000fd5b600082612ea757612ea7612e82565b500490565b600082612ebb57612ebb612e82565b500690565b634e487b7160e01b600052603260045260246000fd5b7f416363657373436f6e74726f6c3a206163636f756e7420000000000000000000815260008351612f0e8160178501602088016126d4565b7001034b99036b4b9b9b4b733903937b6329607d1b6017918401918201528351612f3f8160288401602088016126d4565b01602801949350505050565b6001600160a01b0385811682528416602082015260408101839052608060608201819052600090612f7e90830184612700565b9695505050505050565b600060208284031215612f9a57600080fd5b8151611324816126a1565b6000816000190483118215151615612fbf57612fbf612db7565b500290565b600081612fd357612fd3612db7565b506000190190565b60008251612fed8184602087016126d4565b9190910192915050565b6000808585111561300757600080fd5b8386111561301457600080fd5b505082019391909203915056fe360894a13ba1a3210667c828492db98dca3e2076cc3735a920a3ca505d382bbc416464726573733a206c6f772d6c6576656c2064656c65676174652063616c6c206661696c65649f2df0fed2c77648de5860a4cc508cd0818c85b8b8a1ab4ceeef8d981c8956a67a05a596cb0ce7fdea8a1e1ec73be300bdb35097c944ce1897202f7a13122eb2a26469706673582212204129affe97af297678fef26f763db9810f7e7c9cbbc4454aa3f6865b136bc60e64736f6c63430008090033",
  "devdoc": {
    "details": "This implements the standard OwlProtocol `ERC721` contract that is an extension of Openzeppelin's `ERC721BurnableUpgradeable`. Initializations happens through initializers for compatibility with a EIP1167 minimal-proxy deployment strategy.",
    "kind": "dev",
    "methods": {
      "approve(address,uint256)": {
        "details": "See {IERC721-approve}."
      },
      "balanceOf(address)": {
        "details": "See {IERC721-balanceOf}."
      },
      "burn(uint256)": {
        "details": "Burns `tokenId`. See {ERC721-_burn}. Requirements: - The caller must own `tokenId` or be an approved operator."
      },
      "constructor": {
        "custom:oz-upgrades-unsafe-allow": "constructor"
      },
      "contractURI()": {
        "details": "Returns collection-wide URI-accessible metadata"
      },
      "exists(uint256)": {
        "details": "exposing `_exists`"
      },
      "getApproved(uint256)": {
        "details": "See {IERC721-getApproved}."
      },
      "getRoleAdmin(bytes32)": {
        "details": "Returns the admin role that controls `role`. See {grantRole} and {revokeRole}. To change a role's admin, use {_setRoleAdmin}."
      },
      "grantMinter(address)": {
        "details": "Grants MINTER_ROLE to `to`",
        "params": {
          "to": "address tos"
        }
      },
      "grantRole(bytes32,address)": {
        "details": "Grants `role` to `account`. If `account` had not been already granted `role`, emits a {RoleGranted} event. Requirements: - the caller must have ``role``'s admin role. May emit a {RoleGranted} event."
      },
      "grantRouter(address)": {
        "details": "Grants ROUTER_ROLE to {a}",
        "params": {
          "to": "address to"
        }
      },
      "grantUriRole(address)": {
        "details": "Grants URI_ROLE to `a`",
        "params": {
          "to": "address to"
        }
      },
      "hasRole(bytes32,address)": {
        "details": "Returns `true` if `account` has been granted `role`."
      },
      "initialize(address,string,string,string,address)": {
        "details": "Initializes an ERC721Owl contract",
        "params": {
          "_admin": "admin for contract",
          "_forwarder": "address for trusted forwarder for open GSN",
          "_name": "name for contract",
          "_symbol": "symbol for contract",
          "baseURI_": "base URI for contract"
        }
      },
      "isApprovedForAll(address,address)": {
        "details": "See {IERC721-isApprovedForAll}."
      },
      "isTrustedForwarder(address)": {
        "details": "Return trusted forwarder status."
      },
      "mint(address,uint256)": {
        "details": "Allows MINTER_ROLE to mint NFTs",
        "params": {
          "to": "address to",
          "tokenId": "tokenId value"
        }
      },
      "name()": {
        "details": "See {IERC721Metadata-name}."
      },
      "ownerOf(uint256)": {
        "details": "See {IERC721-ownerOf}."
      },
      "proxiableUUID()": {
        "details": "Implementation of the ERC1822 {proxiableUUID} function. This returns the storage slot used by the implementation. It is used to validate that the this implementation remains valid after an upgrade. IMPORTANT: A proxy pointing at a proxiable contract should not be considered proxiable itself, because this risks bricking a proxy that upgrades to it, by delegating to itself until out of gas. Thus it is critical that this function revert if invoked through a proxy. This is guaranteed by the `notDelegated` modifier."
      },
      "proxyInitialize(address,string,string,string,address)": {
        "details": "Initializes contract through beacon proxy (replaces constructor in proxy pattern)"
      },
      "renounceRole(bytes32,address)": {
        "details": "Revokes `role` from the calling account. Roles are often managed via {grantRole} and {revokeRole}: this function's purpose is to provide a mechanism for accounts to lose their privileges if they are compromised (such as when a trusted device is misplaced). If the calling account had been revoked `role`, emits a {RoleRevoked} event. Requirements: - the caller must be `account`. May emit a {RoleRevoked} event."
      },
      "revokeRole(bytes32,address)": {
        "details": "Revokes `role` from `account`. If `account` had been granted `role`, emits a {RoleRevoked} event. Requirements: - the caller must have ``role``'s admin role. May emit a {RoleRevoked} event."
      },
      "safeMint(address,uint256)": {
        "details": "Allows caller to mint NFTs (safeMint)",
        "params": {
          "to": "address to",
          "tokenId": "tokenId value"
        }
      },
      "safeTransferFrom(address,address,uint256)": {
        "details": "See {IERC721-safeTransferFrom}."
      },
      "safeTransferFrom(address,address,uint256,bytes)": {
        "details": "See {IERC721-safeTransferFrom}."
      },
      "setApprovalForAll(address,bool)": {
        "details": "See {IERC721-setApprovalForAll}."
      },
      "setBaseURI(string)": {
        "details": "Allows setting the baseURI",
        "params": {
          "baseURI_": "set the baseURI value."
        }
      },
      "supportsInterface(bytes4)": {
        "details": "ERC165 Support",
        "params": {
          "interfaceId": "hash of the interface testing for"
        },
        "returns": {
          "_0": "bool whether interface is supported"
        }
      },
      "symbol()": {
        "details": "See {IERC721Metadata-symbol}."
      },
      "tokenURI(uint256)": {
        "details": "See {IERC721Metadata-tokenURI}."
      },
      "transferFrom(address,address,uint256)": {
        "details": "See {IERC721-transferFrom}."
      },
      "upgradeTo(address)": {
        "details": "Upgrade the implementation of the proxy to `newImplementation`. Calls {_authorizeUpgrade}. Emits an {Upgraded} event."
      },
      "upgradeToAndCall(address,bytes)": {
        "details": "Upgrade the implementation of the proxy to `newImplementation`, and subsequently execute the function call encoded in `data`. Calls {_authorizeUpgrade}. Emits an {Upgraded} event."
      }
    },
    "version": 1
  },
  "userdoc": {
    "kind": "user",
    "methods": {
      "grantMinter(address)": {
        "notice": "Must have DEFAULT_ADMIN_ROLE"
      },
      "grantRouter(address)": {
        "notice": "Must have owner role"
      },
      "grantUriRole(address)": {
        "notice": "Must have DEFAULT_ADMIN_ROLE"
      },
      "isTrustedForwarder(address)": {
        "notice": "**REQUIRED FOR GSN**"
      },
      "mint(address,uint256)": {
        "notice": "Must have MINTER_ROLE"
      },
      "safeMint(address,uint256)": {
        "notice": "Must have MINTER_ROLE"
      },
      "setBaseURI(string)": {
        "notice": "Must have URI_ROLE role!"
      }
    },
    "version": 1
  },
  "storageLayout": {
    "storage": [
      {
        "astId": 3091,
        "contract": "contracts/assets/ERC721/ERC721Owl.sol:ERC721Owl",
        "label": "_initialized",
        "offset": 0,
        "slot": "0",
        "type": "t_uint8"
      },
      {
        "astId": 3094,
        "contract": "contracts/assets/ERC721/ERC721Owl.sol:ERC721Owl",
        "label": "_initializing",
        "offset": 1,
        "slot": "0",
        "type": "t_bool"
      },
      {
        "astId": 3073,
        "contract": "contracts/assets/ERC721/ERC721Owl.sol:ERC721Owl",
        "label": "__gap",
        "offset": 0,
        "slot": "1",
        "type": "t_array(t_uint256)50_storage"
      },
      {
        "astId": 3370,
        "contract": "contracts/assets/ERC721/ERC721Owl.sol:ERC721Owl",
        "label": "__gap",
        "offset": 0,
        "slot": "51",
        "type": "t_array(t_uint256)50_storage"
      },
      {
        "astId": 7537,
        "contract": "contracts/assets/ERC721/ERC721Owl.sol:ERC721Owl",
        "label": "__gap",
        "offset": 0,
        "slot": "101",
        "type": "t_array(t_uint256)50_storage"
      },
      {
        "astId": 7941,
        "contract": "contracts/assets/ERC721/ERC721Owl.sol:ERC721Owl",
        "label": "__gap",
        "offset": 0,
        "slot": "151",
        "type": "t_array(t_uint256)50_storage"
      },
      {
        "astId": 2110,
        "contract": "contracts/assets/ERC721/ERC721Owl.sol:ERC721Owl",
        "label": "_roles",
        "offset": 0,
        "slot": "201",
        "type": "t_mapping(t_bytes32,t_struct(RoleData)2105_storage)"
      },
      {
        "astId": 2409,
        "contract": "contracts/assets/ERC721/ERC721Owl.sol:ERC721Owl",
        "label": "__gap",
        "offset": 0,
        "slot": "202",
        "type": "t_array(t_uint256)49_storage"
      },
      {
        "astId": 6132,
        "contract": "contracts/assets/ERC721/ERC721Owl.sol:ERC721Owl",
        "label": "_name",
        "offset": 0,
        "slot": "251",
        "type": "t_string_storage"
      },
      {
        "astId": 6134,
        "contract": "contracts/assets/ERC721/ERC721Owl.sol:ERC721Owl",
        "label": "_symbol",
        "offset": 0,
        "slot": "252",
        "type": "t_string_storage"
      },
      {
        "astId": 6138,
        "contract": "contracts/assets/ERC721/ERC721Owl.sol:ERC721Owl",
        "label": "_owners",
        "offset": 0,
        "slot": "253",
        "type": "t_mapping(t_uint256,t_address)"
      },
      {
        "astId": 6142,
        "contract": "contracts/assets/ERC721/ERC721Owl.sol:ERC721Owl",
        "label": "_balances",
        "offset": 0,
        "slot": "254",
        "type": "t_mapping(t_address,t_uint256)"
      },
      {
        "astId": 6146,
        "contract": "contracts/assets/ERC721/ERC721Owl.sol:ERC721Owl",
        "label": "_tokenApprovals",
        "offset": 0,
        "slot": "255",
        "type": "t_mapping(t_uint256,t_address)"
      },
      {
        "astId": 6152,
        "contract": "contracts/assets/ERC721/ERC721Owl.sol:ERC721Owl",
        "label": "_operatorApprovals",
        "offset": 0,
        "slot": "256",
        "type": "t_mapping(t_address,t_mapping(t_address,t_bool))"
      },
      {
        "astId": 6994,
        "contract": "contracts/assets/ERC721/ERC721Owl.sol:ERC721Owl",
        "label": "__gap",
        "offset": 0,
        "slot": "257",
        "type": "t_array(t_uint256)44_storage"
      },
      {
        "astId": 7178,
        "contract": "contracts/assets/ERC721/ERC721Owl.sol:ERC721Owl",
        "label": "__gap",
        "offset": 0,
        "slot": "301",
        "type": "t_array(t_uint256)50_storage"
      },
      {
        "astId": 13364,
        "contract": "contracts/assets/ERC721/ERC721Owl.sol:ERC721Owl",
        "label": "baseURI",
        "offset": 0,
        "slot": "351",
        "type": "t_string_storage"
      },
      {
        "astId": 13653,
        "contract": "contracts/assets/ERC721/ERC721Owl.sol:ERC721Owl",
        "label": "__gap",
        "offset": 0,
        "slot": "352",
        "type": "t_array(t_uint256)49_storage"
      }
    ],
    "types": {
      "t_address": {
        "encoding": "inplace",
        "label": "address",
        "numberOfBytes": "20"
      },
      "t_array(t_uint256)44_storage": {
        "base": "t_uint256",
        "encoding": "inplace",
        "label": "uint256[44]",
        "numberOfBytes": "1408"
      },
      "t_array(t_uint256)49_storage": {
        "base": "t_uint256",
        "encoding": "inplace",
        "label": "uint256[49]",
        "numberOfBytes": "1568"
      },
      "t_array(t_uint256)50_storage": {
        "base": "t_uint256",
        "encoding": "inplace",
        "label": "uint256[50]",
        "numberOfBytes": "1600"
      },
      "t_bool": {
        "encoding": "inplace",
        "label": "bool",
        "numberOfBytes": "1"
      },
      "t_bytes32": {
        "encoding": "inplace",
        "label": "bytes32",
        "numberOfBytes": "32"
      },
      "t_mapping(t_address,t_bool)": {
        "encoding": "mapping",
        "key": "t_address",
        "label": "mapping(address => bool)",
        "numberOfBytes": "32",
        "value": "t_bool"
      },
      "t_mapping(t_address,t_mapping(t_address,t_bool))": {
        "encoding": "mapping",
        "key": "t_address",
        "label": "mapping(address => mapping(address => bool))",
        "numberOfBytes": "32",
        "value": "t_mapping(t_address,t_bool)"
      },
      "t_mapping(t_address,t_uint256)": {
        "encoding": "mapping",
        "key": "t_address",
        "label": "mapping(address => uint256)",
        "numberOfBytes": "32",
        "value": "t_uint256"
      },
      "t_mapping(t_bytes32,t_struct(RoleData)2105_storage)": {
        "encoding": "mapping",
        "key": "t_bytes32",
        "label": "mapping(bytes32 => struct AccessControlUpgradeable.RoleData)",
        "numberOfBytes": "32",
        "value": "t_struct(RoleData)2105_storage"
      },
      "t_mapping(t_uint256,t_address)": {
        "encoding": "mapping",
        "key": "t_uint256",
        "label": "mapping(uint256 => address)",
        "numberOfBytes": "32",
        "value": "t_address"
      },
      "t_string_storage": {
        "encoding": "bytes",
        "label": "string",
        "numberOfBytes": "32"
      },
      "t_struct(RoleData)2105_storage": {
        "encoding": "inplace",
        "label": "struct AccessControlUpgradeable.RoleData",
        "members": [
          {
            "astId": 2102,
            "contract": "contracts/assets/ERC721/ERC721Owl.sol:ERC721Owl",
            "label": "members",
            "offset": 0,
            "slot": "0",
            "type": "t_mapping(t_address,t_bool)"
          },
          {
            "astId": 2104,
            "contract": "contracts/assets/ERC721/ERC721Owl.sol:ERC721Owl",
            "label": "adminRole",
            "offset": 0,
            "slot": "1",
            "type": "t_bytes32"
          }
        ],
        "numberOfBytes": "64"
      },
      "t_uint256": {
        "encoding": "inplace",
        "label": "uint256",
        "numberOfBytes": "32"
      },
      "t_uint8": {
        "encoding": "inplace",
        "label": "uint8",
        "numberOfBytes": "1"
      }
    }
  }
}