{
  "address": "0xf602C10eE3002D70a2C97bA23691394B7883df97",
  "abi": [
    {
      "inputs": [
        {
          "internalType": "uint256",
          "name": "mintAmount",
          "type": "uint256"
        },
        {
          "internalType": "string",
          "name": "coinName",
          "type": "string"
        },
        {
          "internalType": "string",
          "name": "coinTicker",
          "type": "string"
        }
      ],
      "stateMutability": "nonpayable",
      "type": "constructor"
    },
    {
      "anonymous": false,
      "inputs": [
        {
          "indexed": true,
          "internalType": "address",
          "name": "owner",
          "type": "address"
        },
        {
          "indexed": true,
          "internalType": "address",
          "name": "spender",
          "type": "address"
        },
        {
          "indexed": false,
          "internalType": "uint256",
          "name": "value",
          "type": "uint256"
        }
      ],
      "name": "Approval",
      "type": "event"
    },
    {
      "anonymous": false,
      "inputs": [
        {
          "indexed": true,
          "internalType": "address",
          "name": "from",
          "type": "address"
        },
        {
          "indexed": true,
          "internalType": "address",
          "name": "to",
          "type": "address"
        },
        {
          "indexed": false,
          "internalType": "uint256",
          "name": "value",
          "type": "uint256"
        }
      ],
      "name": "Transfer",
      "type": "event"
    },
    {
      "inputs": [
        {
          "internalType": "address",
          "name": "owner",
          "type": "address"
        },
        {
          "internalType": "address",
          "name": "spender",
          "type": "address"
        }
      ],
      "name": "allowance",
      "outputs": [
        {
          "internalType": "uint256",
          "name": "",
          "type": "uint256"
        }
      ],
      "stateMutability": "view",
      "type": "function"
    },
    {
      "inputs": [
        {
          "internalType": "address",
          "name": "spender",
          "type": "address"
        },
        {
          "internalType": "uint256",
          "name": "amount",
          "type": "uint256"
        }
      ],
      "name": "approve",
      "outputs": [
        {
          "internalType": "bool",
          "name": "",
          "type": "bool"
        }
      ],
      "stateMutability": "nonpayable",
      "type": "function"
    },
    {
      "inputs": [
        {
          "internalType": "address",
          "name": "account",
          "type": "address"
        }
      ],
      "name": "balanceOf",
      "outputs": [
        {
          "internalType": "uint256",
          "name": "",
          "type": "uint256"
        }
      ],
      "stateMutability": "view",
      "type": "function"
    },
    {
      "inputs": [],
      "name": "decimals",
      "outputs": [
        {
          "internalType": "uint8",
          "name": "",
          "type": "uint8"
        }
      ],
      "stateMutability": "view",
      "type": "function"
    },
    {
      "inputs": [
        {
          "internalType": "address",
          "name": "spender",
          "type": "address"
        },
        {
          "internalType": "uint256",
          "name": "subtractedValue",
          "type": "uint256"
        }
      ],
      "name": "decreaseAllowance",
      "outputs": [
        {
          "internalType": "bool",
          "name": "",
          "type": "bool"
        }
      ],
      "stateMutability": "nonpayable",
      "type": "function"
    },
    {
      "inputs": [
        {
          "internalType": "address",
          "name": "spender",
          "type": "address"
        },
        {
          "internalType": "uint256",
          "name": "addedValue",
          "type": "uint256"
        }
      ],
      "name": "increaseAllowance",
      "outputs": [
        {
          "internalType": "bool",
          "name": "",
          "type": "bool"
        }
      ],
      "stateMutability": "nonpayable",
      "type": "function"
    },
    {
      "inputs": [
        {
          "internalType": "address",
          "name": "forwarder",
          "type": "address"
        }
      ],
      "name": "isTrustedForwarder",
      "outputs": [
        {
          "internalType": "bool",
          "name": "",
          "type": "bool"
        }
      ],
      "stateMutability": "view",
      "type": "function"
    },
    {
      "inputs": [
        {
          "internalType": "address",
          "name": "to",
          "type": "address"
        },
        {
          "internalType": "uint256",
          "name": "amount",
          "type": "uint256"
        }
      ],
      "name": "mint",
      "outputs": [],
      "stateMutability": "nonpayable",
      "type": "function"
    },
    {
      "inputs": [],
      "name": "name",
      "outputs": [
        {
          "internalType": "string",
          "name": "",
          "type": "string"
        }
      ],
      "stateMutability": "view",
      "type": "function"
    },
    {
      "inputs": [
        {
          "internalType": "address",
          "name": "forwarder",
          "type": "address"
        }
      ],
      "name": "setTrustedForwarder",
      "outputs": [],
      "stateMutability": "nonpayable",
      "type": "function"
    },
    {
      "inputs": [],
      "name": "symbol",
      "outputs": [
        {
          "internalType": "string",
          "name": "",
          "type": "string"
        }
      ],
      "stateMutability": "view",
      "type": "function"
    },
    {
      "inputs": [],
      "name": "totalSupply",
      "outputs": [
        {
          "internalType": "uint256",
          "name": "",
          "type": "uint256"
        }
      ],
      "stateMutability": "view",
      "type": "function"
    },
    {
      "inputs": [
        {
          "internalType": "address",
          "name": "to",
          "type": "address"
        },
        {
          "internalType": "uint256",
          "name": "amount",
          "type": "uint256"
        }
      ],
      "name": "transfer",
      "outputs": [
        {
          "internalType": "bool",
          "name": "",
          "type": "bool"
        }
      ],
      "stateMutability": "nonpayable",
      "type": "function"
    },
    {
      "inputs": [
        {
          "internalType": "address",
          "name": "from",
          "type": "address"
        },
        {
          "internalType": "address",
          "name": "to",
          "type": "address"
        },
        {
          "internalType": "uint256",
          "name": "amount",
          "type": "uint256"
        }
      ],
      "name": "transferFrom",
      "outputs": [
        {
          "internalType": "bool",
          "name": "",
          "type": "bool"
        }
      ],
      "stateMutability": "nonpayable",
      "type": "function"
    },
    {
      "inputs": [],
      "name": "trustedForwarder",
      "outputs": [
        {
          "internalType": "address",
          "name": "",
          "type": "address"
        }
      ],
      "stateMutability": "view",
      "type": "function"
    },
    {
      "inputs": [],
      "name": "versionRecipient",
      "outputs": [
        {
          "internalType": "string",
          "name": "",
          "type": "string"
        }
      ],
      "stateMutability": "pure",
      "type": "function"
    }
  ],
  "transactionHash": "0x0c5aabe31b3d41c2d64214da7226c032b86636af390ae1f9d2d6e8a3c1f44269",
  "args": [
    0,
    "name",
    "ticker"
  ],
  "numDeployments": 1,
  "solcInputHash": "28b4d2e2155903f56ed1fc988848ec0f",
  "bytecode": "0x60806040523480156200001157600080fd5b5060405162000f0f38038062000f0f833981016040819052620000349162000347565b8151829082906200004d906004906020850190620001d4565b50805162000063906005906020840190620001d4565b505050826200007c576b033b2e3c9fd0803ce800000092505b620000916200008a6200009a565b84620000b6565b5050506200041f565b6000620000b16200019e60201b6200048f1760201c565b905090565b6001600160a01b038216620001115760405162461bcd60e51b815260206004820152601f60248201527f45524332303a206d696e7420746f20746865207a65726f206164647265737300604482015260640160405180910390fd5b8060036000828254620001259190620003bb565b90915550506001600160a01b0382166000908152600160205260408120805483929062000154908490620003bb565b90915550506040518181526001600160a01b038316906000907fddf252ad1be2c89b69c2b068fc378daa952ba7f163c4a11628f55a4df523b3ef9060200160405180910390a35050565b600060143610801590620001bc57506000546001600160a01b031633145b15620001cf575060131936013560601c90565b503390565b828054620001e290620003e2565b90600052602060002090601f01602090048101928262000206576000855562000251565b82601f106200022157805160ff191683800117855562000251565b8280016001018555821562000251579182015b828111156200025157825182559160200191906001019062000234565b506200025f92915062000263565b5090565b5b808211156200025f576000815560010162000264565b634e487b7160e01b600052604160045260246000fd5b600082601f830112620002a257600080fd5b81516001600160401b0380821115620002bf57620002bf6200027a565b604051601f8301601f19908116603f01168101908282118183101715620002ea57620002ea6200027a565b816040528381526020925086838588010111156200030757600080fd5b600091505b838210156200032b57858201830151818301840152908201906200030c565b838211156200033d5760008385830101525b9695505050505050565b6000806000606084860312156200035d57600080fd5b835160208501519093506001600160401b03808211156200037d57600080fd5b6200038b8783880162000290565b93506040860151915080821115620003a257600080fd5b50620003b18682870162000290565b9150509250925092565b60008219821115620003dd57634e487b7160e01b600052601160045260246000fd5b500190565b600181811c90821680620003f757607f821691505b602082108114156200041957634e487b7160e01b600052602260045260246000fd5b50919050565b610ae0806200042f6000396000f3fe608060405234801561001057600080fd5b50600436106101005760003560e01c8063572b6c0511610097578063a457c2d711610066578063a457c2d714610231578063a9059cbb14610244578063da74222814610257578063dd62ed3e1461028357600080fd5b8063572b6c05146101c357806370a08231146101e55780637da0a8771461020e57806395d89b411461022957600080fd5b8063313ce567116100d3578063313ce5671461016b578063395093511461017a57806340c10f191461018d578063486ff0cd146101a257600080fd5b806306fdde0314610105578063095ea7b31461012357806318160ddd1461014657806323b872dd14610158575b600080fd5b61010d610296565b60405161011a919061091d565b60405180910390f35b61013661013136600461098e565b610328565b604051901515815260200161011a565b6003545b60405190815260200161011a565b6101366101663660046109b8565b61034a565b6040516012815260200161011a565b61013661018836600461098e565b610378565b6101a061019b36600461098e565b6103a4565b005b604080518082019091526005815264191719171b60d91b602082015261010d565b6101366101d13660046109f4565b6000546001600160a01b0391821691161490565b61014a6101f33660046109f4565b6001600160a01b031660009081526001602052604090205490565b6000546040516001600160a01b03909116815260200161011a565b61010d6103b2565b61013661023f36600461098e565b6103c1565b61013661025236600461098e565b61044c565b6101a06102653660046109f4565b600080546001600160a01b0319166001600160a01b03831617905550565b61014a610291366004610a16565b610464565b6060600480546102a590610a49565b80601f01602080910402602001604051908101604052809291908181526020018280546102d190610a49565b801561031e5780601f106102f35761010080835404028352916020019161031e565b820191906000526020600020905b81548152906001019060200180831161030157829003601f168201915b5050505050905090565b6000806103336104c3565b90506103408185856104d2565b5060019392505050565b6000806103556104c3565b90506103628582856105f6565b61036d858585610670565b506001949350505050565b6000806103836104c3565b90506103408185856103958589610464565b61039f9190610a84565b6104d2565b6103ae828261083e565b5050565b6060600580546102a590610a49565b6000806103cc6104c3565b905060006103da8286610464565b90508381101561043f5760405162461bcd60e51b815260206004820152602560248201527f45524332303a2064656372656173656420616c6c6f77616e63652062656c6f77604482015264207a65726f60d81b60648201526084015b60405180910390fd5b61036d82868684036104d2565b6000806104576104c3565b9050610340818585610670565b6001600160a01b03918216600090815260026020908152604080832093909416825291909152205490565b6000601436108015906104ac57506000546001600160a01b031633145b156104be575060131936013560601c90565b503390565b60006104cd61048f565b905090565b6001600160a01b0383166105345760405162461bcd60e51b8152602060048201526024808201527f45524332303a20617070726f76652066726f6d20746865207a65726f206164646044820152637265737360e01b6064820152608401610436565b6001600160a01b0382166105955760405162461bcd60e51b815260206004820152602260248201527f45524332303a20617070726f766520746f20746865207a65726f206164647265604482015261737360f01b6064820152608401610436565b6001600160a01b0383811660008181526002602090815260408083209487168084529482529182902085905590518481527f8c5be1e5ebec7d5bd14f71427d1e84f3dd0314c0f7b2291e5b200ac8c7c3b925910160405180910390a3505050565b60006106028484610464565b9050600019811461066a578181101561065d5760405162461bcd60e51b815260206004820152601d60248201527f45524332303a20696e73756666696369656e7420616c6c6f77616e63650000006044820152606401610436565b61066a84848484036104d2565b50505050565b6001600160a01b0383166106d45760405162461bcd60e51b815260206004820152602560248201527f45524332303a207472616e736665722066726f6d20746865207a65726f206164604482015264647265737360d81b6064820152608401610436565b6001600160a01b0382166107365760405162461bcd60e51b815260206004820152602360248201527f45524332303a207472616e7366657220746f20746865207a65726f206164647260448201526265737360e81b6064820152608401610436565b6001600160a01b038316600090815260016020526040902054818110156107ae5760405162461bcd60e51b815260206004820152602660248201527f45524332303a207472616e7366657220616d6f756e7420657863656564732062604482015265616c616e636560d01b6064820152608401610436565b6001600160a01b038085166000908152600160205260408082208585039055918516815290812080548492906107e5908490610a84565b92505081905550826001600160a01b0316846001600160a01b03167fddf252ad1be2c89b69c2b068fc378daa952ba7f163c4a11628f55a4df523b3ef8460405161083191815260200190565b60405180910390a361066a565b6001600160a01b0382166108945760405162461bcd60e51b815260206004820152601f60248201527f45524332303a206d696e7420746f20746865207a65726f2061646472657373006044820152606401610436565b80600360008282546108a69190610a84565b90915550506001600160a01b038216600090815260016020526040812080548392906108d3908490610a84565b90915550506040518181526001600160a01b038316906000907fddf252ad1be2c89b69c2b068fc378daa952ba7f163c4a11628f55a4df523b3ef9060200160405180910390a35050565b600060208083528351808285015260005b8181101561094a5785810183015185820160400152820161092e565b8181111561095c576000604083870101525b50601f01601f1916929092016040019392505050565b80356001600160a01b038116811461098957600080fd5b919050565b600080604083850312156109a157600080fd5b6109aa83610972565b946020939093013593505050565b6000806000606084860312156109cd57600080fd5b6109d684610972565b92506109e460208501610972565b9150604084013590509250925092565b600060208284031215610a0657600080fd5b610a0f82610972565b9392505050565b60008060408385031215610a2957600080fd5b610a3283610972565b9150610a4060208401610972565b90509250929050565b600181811c90821680610a5d57607f821691505b60208210811415610a7e57634e487b7160e01b600052602260045260246000fd5b50919050565b60008219821115610aa557634e487b7160e01b600052601160045260246000fd5b50019056fea2646970667358221220e162825986add88dce219c94a03a0aae9c77b9111882e70fd43adcb794e4cd8364736f6c63430008090033",
  "devdoc": {
    "details": "**INTERNAL TOOL** Used to factory ERC20 coins for unit testing",
    "kind": "dev",
    "methods": {
      "allowance(address,address)": {
        "details": "See {IERC20-allowance}."
      },
      "approve(address,uint256)": {
        "details": "See {IERC20-approve}. NOTE: If `amount` is the maximum `uint256`, the allowance is not updated on `transferFrom`. This is semantically equivalent to an infinite approval. Requirements: - `spender` cannot be the zero address."
      },
      "balanceOf(address)": {
        "details": "See {IERC20-balanceOf}."
      },
      "constructor": {
        "details": "Creates ERC20 token",
        "params": {
          "coinName": "name used to identify coin",
          "coinTicker": "ticker used to identify coin",
          "mintAmount": "how much should be minted and given to `msg.sender`. Pass `mintAmount=0` to create `1_000_000_000_000_000_000_000_000_000` coins."
        }
      },
      "decimals()": {
        "details": "Returns the number of decimals used to get its user representation. For example, if `decimals` equals `2`, a balance of `505` tokens should be displayed to a user as `5.05` (`505 / 10 ** 2`). Tokens usually opt for a value of 18, imitating the relationship between Ether and Wei. This is the value {ERC20} uses, unless this function is overridden; NOTE: This information is only used for _display_ purposes: it in no way affects any of the arithmetic of the contract, including {IERC20-balanceOf} and {IERC20-transfer}."
      },
      "decreaseAllowance(address,uint256)": {
        "details": "Atomically decreases the allowance granted to `spender` by the caller. This is an alternative to {approve} that can be used as a mitigation for problems described in {IERC20-approve}. Emits an {Approval} event indicating the updated allowance. Requirements: - `spender` cannot be the zero address. - `spender` must have allowance for the caller of at least `subtractedValue`."
      },
      "increaseAllowance(address,uint256)": {
        "details": "Atomically increases the allowance granted to `spender` by the caller. This is an alternative to {approve} that can be used as a mitigation for problems described in {IERC20-approve}. Emits an {Approval} event indicating the updated allowance. Requirements: - `spender` cannot be the zero address."
      },
      "name()": {
        "details": "Returns the name of the token."
      },
      "symbol()": {
        "details": "Returns the symbol of the token, usually a shorter version of the name."
      },
      "totalSupply()": {
        "details": "See {IERC20-totalSupply}."
      },
      "transfer(address,uint256)": {
        "details": "See {IERC20-transfer}. Requirements: - `to` cannot be the zero address. - the caller must have a balance of at least `amount`."
      },
      "transferFrom(address,address,uint256)": {
        "details": "See {IERC20-transferFrom}. Emits an {Approval} event indicating the updated allowance. This is not required by the EIP. See the note at the beginning of {ERC20}. NOTE: Does not update the allowance if the current allowance is the maximum `uint256`. Requirements: - `from` and `to` cannot be the zero address. - `from` must have a balance of at least `amount`. - the caller must have allowance for ``from``'s tokens of at least `amount`."
      }
    },
    "version": 1
  },
  "userdoc": {
    "kind": "user",
    "methods": {
      "isTrustedForwarder(address)": {
        "notice": "return if the forwarder is trusted to forward relayed transactions to us. the forwarder is required to verify the sender's signature, and verify the call is not a replay."
      }
    },
    "version": 1
  },
  "storageLayout": {
    "storage": [
      {
        "astId": 781,
        "contract": "contracts/testing/FactoryERC20.sol:FactoryERC20",
        "label": "_trustedForwarder",
        "offset": 0,
        "slot": "0",
        "type": "t_address"
      },
      {
        "astId": 9484,
        "contract": "contracts/testing/FactoryERC20.sol:FactoryERC20",
        "label": "_balances",
        "offset": 0,
        "slot": "1",
        "type": "t_mapping(t_address,t_uint256)"
      },
      {
        "astId": 9490,
        "contract": "contracts/testing/FactoryERC20.sol:FactoryERC20",
        "label": "_allowances",
        "offset": 0,
        "slot": "2",
        "type": "t_mapping(t_address,t_mapping(t_address,t_uint256))"
      },
      {
        "astId": 9492,
        "contract": "contracts/testing/FactoryERC20.sol:FactoryERC20",
        "label": "_totalSupply",
        "offset": 0,
        "slot": "3",
        "type": "t_uint256"
      },
      {
        "astId": 9494,
        "contract": "contracts/testing/FactoryERC20.sol:FactoryERC20",
        "label": "_name",
        "offset": 0,
        "slot": "4",
        "type": "t_string_storage"
      },
      {
        "astId": 9496,
        "contract": "contracts/testing/FactoryERC20.sol:FactoryERC20",
        "label": "_symbol",
        "offset": 0,
        "slot": "5",
        "type": "t_string_storage"
      }
    ],
    "types": {
      "t_address": {
        "encoding": "inplace",
        "label": "address",
        "numberOfBytes": "20"
      },
      "t_mapping(t_address,t_mapping(t_address,t_uint256))": {
        "encoding": "mapping",
        "key": "t_address",
        "label": "mapping(address => mapping(address => uint256))",
        "numberOfBytes": "32",
        "value": "t_mapping(t_address,t_uint256)"
      },
      "t_mapping(t_address,t_uint256)": {
        "encoding": "mapping",
        "key": "t_address",
        "label": "mapping(address => uint256)",
        "numberOfBytes": "32",
        "value": "t_uint256"
      },
      "t_string_storage": {
        "encoding": "bytes",
        "label": "string",
        "numberOfBytes": "32"
      },
      "t_uint256": {
        "encoding": "inplace",
        "label": "uint256",
        "numberOfBytes": "32"
      }
    }
  }
}