{
  "address": "0x05484C5722BD007Dd485703F9989197f4297689f",
  "abi": [
    {
      "inputs": [],
      "stateMutability": "nonpayable",
      "type": "constructor"
    },
    {
      "anonymous": false,
      "inputs": [
        {
          "indexed": false,
          "internalType": "address",
          "name": "previousAdmin",
          "type": "address"
        },
        {
          "indexed": false,
          "internalType": "address",
          "name": "newAdmin",
          "type": "address"
        }
      ],
      "name": "AdminChanged",
      "type": "event"
    },
    {
      "anonymous": false,
      "inputs": [
        {
          "indexed": true,
          "internalType": "address",
          "name": "beacon",
          "type": "address"
        }
      ],
      "name": "BeaconUpgraded",
      "type": "event"
    },
    {
      "anonymous": false,
      "inputs": [
        {
          "indexed": false,
          "internalType": "uint8",
          "name": "version",
          "type": "uint8"
        }
      ],
      "name": "Initialized",
      "type": "event"
    },
    {
      "anonymous": false,
      "inputs": [
        {
          "indexed": true,
          "internalType": "address",
          "name": "previousOwner",
          "type": "address"
        },
        {
          "indexed": true,
          "internalType": "address",
          "name": "newOwner",
          "type": "address"
        }
      ],
      "name": "OwnershipTransferred",
      "type": "event"
    },
    {
      "anonymous": false,
      "inputs": [
        {
          "indexed": false,
          "internalType": "uint256",
          "name": "",
          "type": "uint256"
        }
      ],
      "name": "PostRelayed",
      "type": "event"
    },
    {
      "anonymous": false,
      "inputs": [
        {
          "indexed": false,
          "internalType": "uint256",
          "name": "",
          "type": "uint256"
        }
      ],
      "name": "PreRelayed",
      "type": "event"
    },
    {
      "anonymous": false,
      "inputs": [
        {
          "indexed": true,
          "internalType": "bytes32",
          "name": "role",
          "type": "bytes32"
        },
        {
          "indexed": true,
          "internalType": "bytes32",
          "name": "previousAdminRole",
          "type": "bytes32"
        },
        {
          "indexed": true,
          "internalType": "bytes32",
          "name": "newAdminRole",
          "type": "bytes32"
        }
      ],
      "name": "RoleAdminChanged",
      "type": "event"
    },
    {
      "anonymous": false,
      "inputs": [
        {
          "indexed": true,
          "internalType": "bytes32",
          "name": "role",
          "type": "bytes32"
        },
        {
          "indexed": true,
          "internalType": "address",
          "name": "account",
          "type": "address"
        },
        {
          "indexed": true,
          "internalType": "address",
          "name": "sender",
          "type": "address"
        }
      ],
      "name": "RoleGranted",
      "type": "event"
    },
    {
      "anonymous": false,
      "inputs": [
        {
          "indexed": true,
          "internalType": "bytes32",
          "name": "role",
          "type": "bytes32"
        },
        {
          "indexed": true,
          "internalType": "address",
          "name": "account",
          "type": "address"
        },
        {
          "indexed": true,
          "internalType": "address",
          "name": "sender",
          "type": "address"
        }
      ],
      "name": "RoleRevoked",
      "type": "event"
    },
    {
      "anonymous": false,
      "inputs": [
        {
          "indexed": false,
          "internalType": "address",
          "name": "target",
          "type": "address"
        }
      ],
      "name": "TargetSet",
      "type": "event"
    },
    {
      "anonymous": false,
      "inputs": [
        {
          "indexed": true,
          "internalType": "address",
          "name": "implementation",
          "type": "address"
        }
      ],
      "name": "Upgraded",
      "type": "event"
    },
    {
      "inputs": [],
      "name": "CALLDATA_SIZE_LIMIT",
      "outputs": [
        {
          "internalType": "uint256",
          "name": "",
          "type": "uint256"
        }
      ],
      "stateMutability": "view",
      "type": "function"
    },
    {
      "inputs": [],
      "name": "DEFAULT_ADMIN_ROLE",
      "outputs": [
        {
          "internalType": "bytes32",
          "name": "",
          "type": "bytes32"
        }
      ],
      "stateMutability": "view",
      "type": "function"
    },
    {
      "inputs": [],
      "name": "FORWARDER_HUB_OVERHEAD",
      "outputs": [
        {
          "internalType": "uint256",
          "name": "",
          "type": "uint256"
        }
      ],
      "stateMutability": "view",
      "type": "function"
    },
    {
      "inputs": [],
      "name": "PAYMASTER_ACCEPTANCE_BUDGET",
      "outputs": [
        {
          "internalType": "uint256",
          "name": "",
          "type": "uint256"
        }
      ],
      "stateMutability": "view",
      "type": "function"
    },
    {
      "inputs": [],
      "name": "POST_RELAYED_CALL_GAS_LIMIT",
      "outputs": [
        {
          "internalType": "uint256",
          "name": "",
          "type": "uint256"
        }
      ],
      "stateMutability": "view",
      "type": "function"
    },
    {
      "inputs": [],
      "name": "PRE_RELAYED_CALL_GAS_LIMIT",
      "outputs": [
        {
          "internalType": "uint256",
          "name": "",
          "type": "uint256"
        }
      ],
      "stateMutability": "view",
      "type": "function"
    },
    {
      "inputs": [
        {
          "components": [
            {
              "components": [
                {
                  "internalType": "address",
                  "name": "from",
                  "type": "address"
                },
                {
                  "internalType": "address",
                  "name": "to",
                  "type": "address"
                },
                {
                  "internalType": "uint256",
                  "name": "value",
                  "type": "uint256"
                },
                {
                  "internalType": "uint256",
                  "name": "gas",
                  "type": "uint256"
                },
                {
                  "internalType": "uint256",
                  "name": "nonce",
                  "type": "uint256"
                },
                {
                  "internalType": "bytes",
                  "name": "data",
                  "type": "bytes"
                },
                {
                  "internalType": "uint256",
                  "name": "validUntil",
                  "type": "uint256"
                }
              ],
              "internalType": "struct IForwarder.ForwardRequest",
              "name": "request",
              "type": "tuple"
            },
            {
              "components": [
                {
                  "internalType": "uint256",
                  "name": "gasPrice",
                  "type": "uint256"
                },
                {
                  "internalType": "uint256",
                  "name": "pctRelayFee",
                  "type": "uint256"
                },
                {
                  "internalType": "uint256",
                  "name": "baseRelayFee",
                  "type": "uint256"
                },
                {
                  "internalType": "address",
                  "name": "relayWorker",
                  "type": "address"
                },
                {
                  "internalType": "address",
                  "name": "paymaster",
                  "type": "address"
                },
                {
                  "internalType": "address",
                  "name": "forwarder",
                  "type": "address"
                },
                {
                  "internalType": "bytes",
                  "name": "paymasterData",
                  "type": "bytes"
                },
                {
                  "internalType": "uint256",
                  "name": "clientId",
                  "type": "uint256"
                }
              ],
              "internalType": "struct GsnTypes.RelayData",
              "name": "relayData",
              "type": "tuple"
            }
          ],
          "internalType": "struct GsnTypes.RelayRequest",
          "name": "relayRequest",
          "type": "tuple"
        }
      ],
      "name": "_verifyForwarder",
      "outputs": [],
      "stateMutability": "view",
      "type": "function"
    },
    {
      "inputs": [],
      "name": "getGasAndDataLimits",
      "outputs": [
        {
          "components": [
            {
              "internalType": "uint256",
              "name": "acceptanceBudget",
              "type": "uint256"
            },
            {
              "internalType": "uint256",
              "name": "preRelayedCallGasLimit",
              "type": "uint256"
            },
            {
              "internalType": "uint256",
              "name": "postRelayedCallGasLimit",
              "type": "uint256"
            },
            {
              "internalType": "uint256",
              "name": "calldataSizeLimit",
              "type": "uint256"
            }
          ],
          "internalType": "struct IPaymaster.GasAndDataLimits",
          "name": "limits",
          "type": "tuple"
        }
      ],
      "stateMutability": "view",
      "type": "function"
    },
    {
      "inputs": [],
      "name": "getHubAddr",
      "outputs": [
        {
          "internalType": "address",
          "name": "",
          "type": "address"
        }
      ],
      "stateMutability": "view",
      "type": "function"
    },
    {
      "inputs": [],
      "name": "getImplementation",
      "outputs": [
        {
          "internalType": "address",
          "name": "",
          "type": "address"
        }
      ],
      "stateMutability": "view",
      "type": "function"
    },
    {
      "inputs": [],
      "name": "getRelayHubDeposit",
      "outputs": [
        {
          "internalType": "uint256",
          "name": "",
          "type": "uint256"
        }
      ],
      "stateMutability": "view",
      "type": "function"
    },
    {
      "inputs": [
        {
          "internalType": "bytes32",
          "name": "role",
          "type": "bytes32"
        }
      ],
      "name": "getRoleAdmin",
      "outputs": [
        {
          "internalType": "bytes32",
          "name": "",
          "type": "bytes32"
        }
      ],
      "stateMutability": "view",
      "type": "function"
    },
    {
      "inputs": [
        {
          "internalType": "bytes32",
          "name": "role",
          "type": "bytes32"
        },
        {
          "internalType": "address",
          "name": "account",
          "type": "address"
        }
      ],
      "name": "grantRole",
      "outputs": [],
      "stateMutability": "nonpayable",
      "type": "function"
    },
    {
      "inputs": [
        {
          "internalType": "address",
          "name": "to",
          "type": "address"
        }
      ],
      "name": "grantRouter",
      "outputs": [],
      "stateMutability": "nonpayable",
      "type": "function"
    },
    {
      "inputs": [
        {
          "internalType": "bytes32",
          "name": "role",
          "type": "bytes32"
        },
        {
          "internalType": "address",
          "name": "account",
          "type": "address"
        }
      ],
      "name": "hasRole",
      "outputs": [
        {
          "internalType": "bool",
          "name": "",
          "type": "bool"
        }
      ],
      "stateMutability": "view",
      "type": "function"
    },
    {
      "inputs": [
        {
          "internalType": "address",
          "name": "_admin",
          "type": "address"
        },
        {
          "internalType": "address",
          "name": "_target",
          "type": "address"
        },
        {
          "internalType": "address",
          "name": "_forwarder",
          "type": "address"
        }
      ],
      "name": "initialize",
      "outputs": [],
      "stateMutability": "nonpayable",
      "type": "function"
    },
    {
      "inputs": [
        {
          "internalType": "address",
          "name": "forwarder",
          "type": "address"
        }
      ],
      "name": "isTrustedForwarder",
      "outputs": [
        {
          "internalType": "bool",
          "name": "",
          "type": "bool"
        }
      ],
      "stateMutability": "view",
      "type": "function"
    },
    {
      "inputs": [],
      "name": "owner",
      "outputs": [
        {
          "internalType": "address",
          "name": "",
          "type": "address"
        }
      ],
      "stateMutability": "view",
      "type": "function"
    },
    {
      "inputs": [
        {
          "internalType": "bytes",
          "name": "context",
          "type": "bytes"
        },
        {
          "internalType": "bool",
          "name": "success",
          "type": "bool"
        },
        {
          "internalType": "uint256",
          "name": "gasUseWithoutPost",
          "type": "uint256"
        },
        {
          "components": [
            {
              "internalType": "uint256",
              "name": "gasPrice",
              "type": "uint256"
            },
            {
              "internalType": "uint256",
              "name": "pctRelayFee",
              "type": "uint256"
            },
            {
              "internalType": "uint256",
              "name": "baseRelayFee",
              "type": "uint256"
            },
            {
              "internalType": "address",
              "name": "relayWorker",
              "type": "address"
            },
            {
              "internalType": "address",
              "name": "paymaster",
              "type": "address"
            },
            {
              "internalType": "address",
              "name": "forwarder",
              "type": "address"
            },
            {
              "internalType": "bytes",
              "name": "paymasterData",
              "type": "bytes"
            },
            {
              "internalType": "uint256",
              "name": "clientId",
              "type": "uint256"
            }
          ],
          "internalType": "struct GsnTypes.RelayData",
          "name": "relayData",
          "type": "tuple"
        }
      ],
      "name": "postRelayedCall",
      "outputs": [],
      "stateMutability": "nonpayable",
      "type": "function"
    },
    {
      "inputs": [
        {
          "components": [
            {
              "components": [
                {
                  "internalType": "address",
                  "name": "from",
                  "type": "address"
                },
                {
                  "internalType": "address",
                  "name": "to",
                  "type": "address"
                },
                {
                  "internalType": "uint256",
                  "name": "value",
                  "type": "uint256"
                },
                {
                  "internalType": "uint256",
                  "name": "gas",
                  "type": "uint256"
                },
                {
                  "internalType": "uint256",
                  "name": "nonce",
                  "type": "uint256"
                },
                {
                  "internalType": "bytes",
                  "name": "data",
                  "type": "bytes"
                },
                {
                  "internalType": "uint256",
                  "name": "validUntil",
                  "type": "uint256"
                }
              ],
              "internalType": "struct IForwarder.ForwardRequest",
              "name": "request",
              "type": "tuple"
            },
            {
              "components": [
                {
                  "internalType": "uint256",
                  "name": "gasPrice",
                  "type": "uint256"
                },
                {
                  "internalType": "uint256",
                  "name": "pctRelayFee",
                  "type": "uint256"
                },
                {
                  "internalType": "uint256",
                  "name": "baseRelayFee",
                  "type": "uint256"
                },
                {
                  "internalType": "address",
                  "name": "relayWorker",
                  "type": "address"
                },
                {
                  "internalType": "address",
                  "name": "paymaster",
                  "type": "address"
                },
                {
                  "internalType": "address",
                  "name": "forwarder",
                  "type": "address"
                },
                {
                  "internalType": "bytes",
                  "name": "paymasterData",
                  "type": "bytes"
                },
                {
                  "internalType": "uint256",
                  "name": "clientId",
                  "type": "uint256"
                }
              ],
              "internalType": "struct GsnTypes.RelayData",
              "name": "relayData",
              "type": "tuple"
            }
          ],
          "internalType": "struct GsnTypes.RelayRequest",
          "name": "relayRequest",
          "type": "tuple"
        },
        {
          "internalType": "bytes",
          "name": "signature",
          "type": "bytes"
        },
        {
          "internalType": "bytes",
          "name": "approvalData",
          "type": "bytes"
        },
        {
          "internalType": "uint256",
          "name": "maxPossibleGas",
          "type": "uint256"
        }
      ],
      "name": "preRelayedCall",
      "outputs": [
        {
          "internalType": "bytes",
          "name": "context",
          "type": "bytes"
        },
        {
          "internalType": "bool",
          "name": "",
          "type": "bool"
        }
      ],
      "stateMutability": "nonpayable",
      "type": "function"
    },
    {
      "inputs": [],
      "name": "proxiableUUID",
      "outputs": [
        {
          "internalType": "bytes32",
          "name": "",
          "type": "bytes32"
        }
      ],
      "stateMutability": "view",
      "type": "function"
    },
    {
      "inputs": [
        {
          "internalType": "address",
          "name": "_admin",
          "type": "address"
        },
        {
          "internalType": "address",
          "name": "_target",
          "type": "address"
        },
        {
          "internalType": "address",
          "name": "_forwarder",
          "type": "address"
        }
      ],
      "name": "proxyinitialize",
      "outputs": [],
      "stateMutability": "nonpayable",
      "type": "function"
    },
    {
      "inputs": [
        {
          "internalType": "address",
          "name": "target",
          "type": "address"
        }
      ],
      "name": "removeTarget",
      "outputs": [],
      "stateMutability": "nonpayable",
      "type": "function"
    },
    {
      "inputs": [],
      "name": "renounceOwnership",
      "outputs": [],
      "stateMutability": "nonpayable",
      "type": "function"
    },
    {
      "inputs": [
        {
          "internalType": "bytes32",
          "name": "role",
          "type": "bytes32"
        },
        {
          "internalType": "address",
          "name": "account",
          "type": "address"
        }
      ],
      "name": "renounceRole",
      "outputs": [],
      "stateMutability": "nonpayable",
      "type": "function"
    },
    {
      "inputs": [
        {
          "internalType": "bytes32",
          "name": "role",
          "type": "bytes32"
        },
        {
          "internalType": "address",
          "name": "account",
          "type": "address"
        }
      ],
      "name": "revokeRole",
      "outputs": [],
      "stateMutability": "nonpayable",
      "type": "function"
    },
    {
      "inputs": [
        {
          "internalType": "contract IRelayHub",
          "name": "hub",
          "type": "address"
        }
      ],
      "name": "setRelayHub",
      "outputs": [],
      "stateMutability": "nonpayable",
      "type": "function"
    },
    {
      "inputs": [
        {
          "internalType": "address",
          "name": "target",
          "type": "address"
        }
      ],
      "name": "setTarget",
      "outputs": [],
      "stateMutability": "nonpayable",
      "type": "function"
    },
    {
      "inputs": [
        {
          "internalType": "address",
          "name": "forwarder",
          "type": "address"
        }
      ],
      "name": "setTrustedForwarder",
      "outputs": [],
      "stateMutability": "nonpayable",
      "type": "function"
    },
    {
      "inputs": [
        {
          "internalType": "bytes4",
          "name": "interfaceId",
          "type": "bytes4"
        }
      ],
      "name": "supportsInterface",
      "outputs": [
        {
          "internalType": "bool",
          "name": "",
          "type": "bool"
        }
      ],
      "stateMutability": "view",
      "type": "function"
    },
    {
      "inputs": [
        {
          "internalType": "address",
          "name": "newOwner",
          "type": "address"
        }
      ],
      "name": "transferOwnership",
      "outputs": [],
      "stateMutability": "nonpayable",
      "type": "function"
    },
    {
      "inputs": [],
      "name": "trustedForwarder",
      "outputs": [
        {
          "internalType": "address",
          "name": "",
          "type": "address"
        }
      ],
      "stateMutability": "view",
      "type": "function"
    },
    {
      "inputs": [
        {
          "internalType": "address",
          "name": "newImplementation",
          "type": "address"
        }
      ],
      "name": "upgradeTo",
      "outputs": [],
      "stateMutability": "nonpayable",
      "type": "function"
    },
    {
      "inputs": [
        {
          "internalType": "address",
          "name": "newImplementation",
          "type": "address"
        },
        {
          "internalType": "bytes",
          "name": "data",
          "type": "bytes"
        }
      ],
      "name": "upgradeToAndCall",
      "outputs": [],
      "stateMutability": "payable",
      "type": "function"
    },
    {
      "inputs": [],
      "name": "versionPaymaster",
      "outputs": [
        {
          "internalType": "string",
          "name": "",
          "type": "string"
        }
      ],
      "stateMutability": "view",
      "type": "function"
    },
    {
      "inputs": [],
      "name": "versionRecipient",
      "outputs": [
        {
          "internalType": "string",
          "name": "",
          "type": "string"
        }
      ],
      "stateMutability": "pure",
      "type": "function"
    },
    {
      "inputs": [
        {
          "internalType": "uint256",
          "name": "amount",
          "type": "uint256"
        },
        {
          "internalType": "address payable",
          "name": "target",
          "type": "address"
        }
      ],
      "name": "withdrawRelayHubDepositTo",
      "outputs": [],
      "stateMutability": "nonpayable",
      "type": "function"
    },
    {
      "stateMutability": "payable",
      "type": "receive"
    }
  ],
  "transactionHash": "0x2d68e6a91bd3a94bff2a44db4915b0d238b8c87cad1dd0bda186587c2a0d93fd",
  "args": [],
  "numDeployments": 1,
  "solcInputHash": "28b4d2e2155903f56ed1fc988848ec0f",
  "bytecode": "0x60a0604052306080523480156200001557600080fd5b506200002a620000246200003a565b62000056565b62000034620000a8565b620001c4565b6000620000516200016a60201b6200110d1760201c565b905090565b60fb80546001600160a01b038381166001600160a01b0319831681179093556040519116919082907f8be0079c531659141344cd1fd0a4f28419497f9722a3daafe3b4186f6b6457e090600090a35050565b600054610100900460ff1615620001155760405162461bcd60e51b815260206004820152602760248201527f496e697469616c697a61626c653a20636f6e747261637420697320696e697469604482015266616c697a696e6760c81b606482015260840160405180910390fd5b60005460ff908116101562000168576000805460ff191660ff9081179091556040519081527f7f26b83ff96e1f2b6a682f133852f6798a09c465da95921460cefb38474024989060200160405180910390a15b565b600060143610801590620001ac57503360009081527fda8fd4968d5cdf85a357e312d49efd29ed9d8f17f8771f725a66d82a5331e31c602052604090205460ff165b15620001bf575060131936013560601c90565b503390565b60805161234b620001fc60003960008181610a5101528181610a9101528181610b4c01528181610b8c0152610c04015261234b6000f3fe60806040526004361061021d5760003560e01c80637bb0526411610123578063b039a88f116100ab578063d5d7ff3c1161006f578063d5d7ff3c14610726578063da74222814610746578063df463a6614610766578063f2fde38b1461077b578063f9c002f71461079b57600080fd5b8063b039a88f14610671578063b90b41cf146106b9578063bbdaa3c9146106cf578063c0c53b8b146106e6578063d547741f1461070657600080fd5b8063921276ea116100f2578063921276ea146105d957806398c76d2514610607578063a217fddf14610627578063a5dcd07b1461063c578063aaf10f421461065c57600080fd5b80637bb052641461055d5780637da0a8771461057d5780638da5cb5b1461059b57806391d14854146105b957600080fd5b80634a36e21c116101a65780635c5e3db1116101755780635c5e3db1146104c0578063715018a6146104d657806374e861d6146104eb57806376fa01c31461051d578063776d1a011461053d57600080fd5b80634a36e21c146104585780634f1ef2861461047857806352d1902d1461048b578063572b6c05146104a057600080fd5b80632d14c4b7116101ed5780632d14c4b71461039f5780632f2ff15d146103c157806336568abe146103e15780633659cfe614610401578063486ff0cd1461042157600080fd5b8062be5dd4146102e557806301ffc9a71461031c578063248a9ca31461034c5780632afe31c11461038a57600080fd5b366102e05760fc546001600160a01b031661027f5760405162461bcd60e51b815260206004820152601960248201527f72656c6179206875622061646472657373206e6f74207365740000000000000060448201526064015b60405180910390fd5b60fc5460405163aa67c91960e01b81523060048201526001600160a01b039091169063aa67c9199034906024016000604051808303818588803b1580156102c557600080fd5b505af11580156102d9573d6000803e3d6000fd5b5050505050005b600080fd5b3480156102f157600080fd5b50610305610300366004611c8d565b6107b2565b604051610313929190611d82565b60405180910390f35b34801561032857600080fd5b5061033c610337366004611da6565b610866565b6040519015158152602001610313565b34801561035857600080fd5b5061037c610367366004611dd0565b600090815260c9602052604090206001015490565b604051908152602001610313565b34801561039657600080fd5b5061037c61089d565b3480156103ab57600080fd5b506103bf6103ba366004611dfe565b61091e565b005b3480156103cd57600080fd5b506103bf6103dc366004611dfe565b61098e565b3480156103ed57600080fd5b506103bf6103fc366004611dfe565b6109b8565b34801561040d57600080fd5b506103bf61041c366004611e2e565b610a46565b34801561042d57600080fd5b50604080518082019091526005815264191719171b60d91b60208201525b6040516103139190611e4b565b34801561046457600080fd5b506103bf610473366004611e5e565b610b0f565b6103bf610486366004611ebf565b610b41565b34801561049757600080fd5b5061037c610bf7565b3480156104ac57600080fd5b5061033c6104bb366004611e2e565b610caa565b3480156104cc57600080fd5b5061037c61290481565b3480156104e257600080fd5b506103bf610cc4565b3480156104f757600080fd5b5060fc546001600160a01b03165b6040516001600160a01b039091168152602001610313565b34801561052957600080fd5b506103bf610538366004611f91565b610cd8565b34801561054957600080fd5b506103bf610558366004611e2e565b610d1d565b34801561056957600080fd5b506103bf610578366004611e2e565b610d83565b34801561058957600080fd5b5060fd546001600160a01b0316610505565b3480156105a757600080fd5b5060fb546001600160a01b0316610505565b3480156105c557600080fd5b5061033c6105d4366004611dfe565b610dad565b3480156105e557600080fd5b50604080518082019091526005815264322e302e3360d81b602082015261044b565b34801561061357600080fd5b506103bf610622366004611e2e565b610dd8565b34801561063357600080fd5b5061037c600081565b34801561064857600080fd5b506103bf610657366004612021565b610dfb565b34801561066857600080fd5b50610505610e7f565b34801561067d57600080fd5b50610686610e89565b60405161031391908151815260208083015190820152604080830151908201526060918201519181019190915260800190565b3480156106c557600080fd5b5061037c61c35081565b3480156106db57600080fd5b5061037c6201adb081565b3480156106f257600080fd5b506103bf610701366004611e5e565b610ef2565b34801561071257600080fd5b506103bf610721366004611dfe565b611009565b34801561073257600080fd5b506103bf610741366004611e2e565b61102e565b34801561075257600080fd5b506103bf610761366004611e2e565b61105b565b34801561077257600080fd5b5061037c611085565b34801561078757600080fd5b506103bf610796366004611e2e565b611097565b3480156107a757600080fd5b5061037c620186a081565b606060006107bf88610dfb565b60fe60006107cd8a8061205e565b6107de906040810190602001611e2e565b6001600160a01b0316815260208101919091526040016000205460ff16151560011461080957600080fd5b6040514281527f1fab8d24eefec3578055fc7f1c7cce1b10153c6731e0b5ca8147e8916d884b459060200160405180910390a1604080514260208201520160408051601f1981840301815291905298600098509650505050505050565b60006001600160e01b03198216637965db0b60e01b148061089757506301ffc9a760e01b6001600160e01b03198316145b92915050565b60fc546040516370a0823160e01b81523060048201526000916001600160a01b0316906370a082319060240160206040518083038186803b1580156108e157600080fd5b505afa1580156108f5573d6000803e3d6000fd5b505050506040513d601f19601f82011682018060405250810190610919919061207e565b905090565b61092661114a565b60fc54604051627b8a6760e11b8152600481018490526001600160a01b0383811660248301529091169062f714ce90604401600060405180830381600087803b15801561097257600080fd5b505af1158015610986573d6000803e3d6000fd5b505050505050565b600082815260c960205260409020600101546109a9816111c3565b6109b383836111d4565b505050565b6109c061125b565b6001600160a01b0316816001600160a01b031614610a385760405162461bcd60e51b815260206004820152602f60248201527f416363657373436f6e74726f6c3a2063616e206f6e6c792072656e6f756e636560448201526e103937b632b9903337b91039b2b63360891b6064820152608401610276565b610a428282611265565b5050565b306001600160a01b037f0000000000000000000000000000000000000000000000000000000000000000161415610a8f5760405162461bcd60e51b815260040161027690612097565b7f00000000000000000000000000000000000000000000000000000000000000006001600160a01b0316610ac16112ea565b6001600160a01b031614610ae75760405162461bcd60e51b8152600401610276906120e3565b610af081611306565b60408051600080825260208201909252610b0c91839190611311565b50565b600054610100900460ff16610b365760405162461bcd60e51b81526004016102769061212f565b6109b383838361148b565b306001600160a01b037f0000000000000000000000000000000000000000000000000000000000000000161415610b8a5760405162461bcd60e51b815260040161027690612097565b7f00000000000000000000000000000000000000000000000000000000000000006001600160a01b0316610bbc6112ea565b6001600160a01b031614610be25760405162461bcd60e51b8152600401610276906120e3565b610beb82611306565b610a4282826001611311565b6000306001600160a01b037f00000000000000000000000000000000000000000000000000000000000000001614610c975760405162461bcd60e51b815260206004820152603860248201527f555550535570677261646561626c653a206d757374206e6f742062652063616c60448201527f6c6564207468726f7567682064656c656761746563616c6c00000000000000006064820152608401610276565b506000805160206122af83398151915290565b60006108976000805160206122f683398151915283610dad565b610ccc61114a565b610cd660006114c5565b565b7f142c6d2c03c5b3fcbb162bc0e230bbaae8c9032eb624a8fd44658e00efa63c90610d0585870187611dd0565b60405190815260200160405180910390a15050505050565b6000610d28816111c3565b6001600160a01b038216600081815260fe6020908152604091829020805460ff1916600117905590519182527f3bfb4bbf112628248058745a3c57e35b13369386e474b8e56c552f3063a4a196910160405180910390a15050565b610d8b61114a565b60fc80546001600160a01b0319166001600160a01b0392909216919091179055565b600091825260c9602090815260408084206001600160a01b0393909316845291905290205460ff1690565b6000610de3816111c3565b610a426000805160206122f6833981519152836111d4565b610e08602082018261217a565b610e199060c081019060a001611e2e565b60fd546001600160a01b03908116911614610e765760405162461bcd60e51b815260206004820152601860248201527f466f72776172646572206973206e6f74207472757374656400000000000000006044820152606401610276565b610b0c81611517565b60006109196112ea565b610eb46040518060800160405280600081526020016000815260200160008152602001600081525090565b604051806080016040528061c350620186a0610ed091906121a6565b8152602001620186a081526020016201adb08152602001612904815250905090565b600054610100900460ff1615808015610f125750600054600160ff909116105b80610f2c5750303b158015610f2c575060005460ff166001145b610f8f5760405162461bcd60e51b815260206004820152602e60248201527f496e697469616c697a61626c653a20636f6e747261637420697320616c72656160448201526d191e481a5b9a5d1a585b1a5e995960921b6064820152608401610276565b6000805460ff191660011790558015610fb2576000805461ff0019166101001790555b610fbd84848461148b565b8015611003576000805461ff0019169055604051600181527f7f26b83ff96e1f2b6a682f133852f6798a09c465da95921460cefb38474024989060200160405180910390a15b50505050565b600082815260c96020526040902060010154611024816111c3565b6109b38383611265565b6000611039816111c3565b506001600160a01b0316600090815260fe60205260409020805460ff19169055565b61106361114a565b60fd80546001600160a01b0319166001600160a01b0392909216919091179055565b61109461c350620186a06121a6565b81565b61109f61114a565b6001600160a01b0381166111045760405162461bcd60e51b815260206004820152602660248201527f4f776e61626c653a206e6577206f776e657220697320746865207a65726f206160448201526564647265737360d01b6064820152608401610276565b610b0c816114c5565b60006014361080159061113357506111336000805160206122f683398151915233610dad565b15611145575060131936013560601c90565b503390565b61115261125b565b6001600160a01b031661116d60fb546001600160a01b031690565b6001600160a01b031614610cd65760405162461bcd60e51b815260206004820181905260248201527f4f776e61626c653a2063616c6c6572206973206e6f7420746865206f776e65726044820152606401610276565b610b0c816111cf61125b565b6116fb565b6111de8282610dad565b610a4257600082815260c9602090815260408083206001600160a01b03851684529091529020805460ff1916600117905561121761125b565b6001600160a01b0316816001600160a01b0316837f2f8788117e7eff1d82e926ec794901d17c78024a50270940304540a733656f0d60405160405180910390a45050565b600061091961110d565b61126f8282610dad565b15610a4257600082815260c9602090815260408083206001600160a01b03851684529091529020805460ff191690556112a661125b565b6001600160a01b0316816001600160a01b0316837ff6391f5c32d9c69d2a47ea670b442974b53935d1edc7fd64eb21e047a839171b60405160405180910390a45050565b6000805160206122af833981519152546001600160a01b031690565b6000610a42816111c3565b7f4910fdfa16fed3260ed0e7147f7cc6da11a60208b5b9406d12a635614ffd91435460ff1615611344576109b38361175f565b826001600160a01b03166352d1902d6040518163ffffffff1660e01b815260040160206040518083038186803b15801561137d57600080fd5b505afa9250505080156113ad575060408051601f3d908101601f191682019092526113aa9181019061207e565b60015b6114105760405162461bcd60e51b815260206004820152602e60248201527f45524331393637557067726164653a206e657720696d706c656d656e7461746960448201526d6f6e206973206e6f74205555505360901b6064820152608401610276565b6000805160206122af833981519152811461147f5760405162461bcd60e51b815260206004820152602960248201527f45524331393637557067726164653a20756e737570706f727465642070726f786044820152681a58589b195555525160ba1b6064820152608401610276565b506109b38383836117fb565b600054610100900460ff166114b25760405162461bcd60e51b81526004016102769061212f565b6114bc8382611820565b6109b382611874565b60fb80546001600160a01b038381166001600160a01b0319831681179093556040519116919082907f8be0079c531659141344cd1fd0a4f28419497f9722a3daafe3b4186f6b6457e090600090a35050565b600080611524838061205e565b611535906040810190602001611e2e565b6001600160a01b031663572b6c0560e01b611553602086018661217a565b6115649060c081019060a001611e2e565b6040516001600160a01b03909116602482015260440160408051601f198184030181529181526020820180516001600160e01b03166001600160e01b03199094169390931790925290516115b891906121be565b600060405180830381855afa9150503d80600081146115f3576040519150601f19603f3d011682016040523d82523d6000602084013e6115f8565b606091505b50915091508161164a5760405162461bcd60e51b815260206004820152601c60248201527f697354727573746564466f727761726465723a207265766572746564000000006044820152606401610276565b805160201461169b5760405162461bcd60e51b815260206004820181905260248201527f697354727573746564466f727761726465723a2062616420726573706f6e73656044820152606401610276565b808060200190518101906116af91906121d0565b6109b35760405162461bcd60e51b815260206004820152601f60248201527f696e76616c696420666f7277617264657220666f7220726563697069656e74006044820152606401610276565b6117058282610dad565b610a425761171d816001600160a01b031660146118f5565b6117288360206118f5565b6040516020016117399291906121ed565b60408051601f198184030181529082905262461bcd60e51b825261027691600401611e4b565b6001600160a01b0381163b6117cc5760405162461bcd60e51b815260206004820152602d60248201527f455243313936373a206e657720696d706c656d656e746174696f6e206973206e60448201526c1bdd08184818dbdb9d1c9858dd609a1b6064820152608401610276565b6000805160206122af83398151915280546001600160a01b0319166001600160a01b0392909216919091179055565b61180483611a98565b6000825111806118115750805b156109b3576110038383611ad8565b600054610100900460ff166118475760405162461bcd60e51b81526004016102769061212f565b6118518282611bcc565b61185c6000836111d4565b610a426000805160206122f6833981519152826111d4565b600054610100900460ff1661189b5760405162461bcd60e51b81526004016102769061212f565b6001600160a01b038116600081815260fe6020908152604091829020805460ff1916600117905590519182527f3bfb4bbf112628248058745a3c57e35b13369386e474b8e56c552f3063a4a196910160405180910390a150565b60606000611904836002612262565b61190f9060026121a6565b67ffffffffffffffff81111561192757611927611ea9565b6040519080825280601f01601f191660200182016040528015611951576020820181803683370190505b509050600360fc1b8160008151811061196c5761196c612281565b60200101906001600160f81b031916908160001a905350600f60fb1b8160018151811061199b5761199b612281565b60200101906001600160f81b031916908160001a90535060006119bf846002612262565b6119ca9060016121a6565b90505b6001811115611a42576f181899199a1a9b1b9c1cb0b131b232b360811b85600f16601081106119fe576119fe612281565b1a60f81b828281518110611a1457611a14612281565b60200101906001600160f81b031916908160001a90535060049490941c93611a3b81612297565b90506119cd565b508315611a915760405162461bcd60e51b815260206004820181905260248201527f537472696e67733a20686578206c656e67746820696e73756666696369656e746044820152606401610276565b9392505050565b611aa18161175f565b6040516001600160a01b038216907fbc7cd75a20ee27fd9adebab32041f755214dbc6bffa90cc0225b39da2e5c2d3b90600090a250565b60606001600160a01b0383163b611b405760405162461bcd60e51b815260206004820152602660248201527f416464726573733a2064656c65676174652063616c6c20746f206e6f6e2d636f6044820152651b9d1c9858dd60d21b6064820152608401610276565b600080846001600160a01b031684604051611b5b91906121be565b600060405180830381855af49150503d8060008114611b96576040519150601f19603f3d011682016040523d82523d6000602084013e611b9b565b606091505b5091509150611bc382826040518060600160405280602781526020016122cf60279139611bf3565b95945050505050565b600054610100900460ff16610a425760405162461bcd60e51b81526004016102769061212f565b60608315611c02575081611a91565b825115611c125782518084602001fd5b8160405162461bcd60e51b81526004016102769190611e4b565b600060408284031215611c3e57600080fd5b50919050565b60008083601f840112611c5657600080fd5b50813567ffffffffffffffff811115611c6e57600080fd5b602083019150836020828501011115611c8657600080fd5b9250929050565b60008060008060008060808789031215611ca657600080fd5b863567ffffffffffffffff80821115611cbe57600080fd5b611cca8a838b01611c2c565b97506020890135915080821115611ce057600080fd5b611cec8a838b01611c44565b90975095506040890135915080821115611d0557600080fd5b50611d1289828a01611c44565b979a9699509497949695606090950135949350505050565b60005b83811015611d45578181015183820152602001611d2d565b838111156110035750506000910152565b60008151808452611d6e816020860160208601611d2a565b601f01601f19169290920160200192915050565b604081526000611d956040830185611d56565b905082151560208301529392505050565b600060208284031215611db857600080fd5b81356001600160e01b031981168114611a9157600080fd5b600060208284031215611de257600080fd5b5035919050565b6001600160a01b0381168114610b0c57600080fd5b60008060408385031215611e1157600080fd5b823591506020830135611e2381611de9565b809150509250929050565b600060208284031215611e4057600080fd5b8135611a9181611de9565b602081526000611a916020830184611d56565b600080600060608486031215611e7357600080fd5b8335611e7e81611de9565b92506020840135611e8e81611de9565b91506040840135611e9e81611de9565b809150509250925092565b634e487b7160e01b600052604160045260246000fd5b60008060408385031215611ed257600080fd5b8235611edd81611de9565b9150602083013567ffffffffffffffff80821115611efa57600080fd5b818501915085601f830112611f0e57600080fd5b813581811115611f2057611f20611ea9565b604051601f8201601f19908116603f01168101908382118183101715611f4857611f48611ea9565b81604052828152886020848701011115611f6157600080fd5b8260208601602083013760006020848301015280955050505050509250929050565b8015158114610b0c57600080fd5b600080600080600060808688031215611fa957600080fd5b853567ffffffffffffffff80821115611fc157600080fd5b611fcd89838a01611c44565b909750955060208801359150611fe282611f83565b9093506040870135925060608701359080821115611fff57600080fd5b508601610100818903121561201357600080fd5b809150509295509295909350565b60006020828403121561203357600080fd5b813567ffffffffffffffff81111561204a57600080fd5b61205684828501611c2c565b949350505050565b6000823560de1983360301811261207457600080fd5b9190910192915050565b60006020828403121561209057600080fd5b5051919050565b6020808252602c908201527f46756e6374696f6e206d7573742062652063616c6c6564207468726f7567682060408201526b19195b1959d85d1958d85b1b60a21b606082015260800190565b6020808252602c908201527f46756e6374696f6e206d7573742062652063616c6c6564207468726f7567682060408201526b6163746976652070726f787960a01b606082015260800190565b6020808252602b908201527f496e697469616c697a61626c653a20636f6e7472616374206973206e6f74206960408201526a6e697469616c697a696e6760a81b606082015260800190565b6000823560fe1983360301811261207457600080fd5b634e487b7160e01b600052601160045260246000fd5b600082198211156121b9576121b9612190565b500190565b60008251612074818460208701611d2a565b6000602082840312156121e257600080fd5b8151611a9181611f83565b7f416363657373436f6e74726f6c3a206163636f756e7420000000000000000000815260008351612225816017850160208801611d2a565b7001034b99036b4b9b9b4b733903937b6329607d1b6017918401918201528351612256816028840160208801611d2a565b01602801949350505050565b600081600019048311821515161561227c5761227c612190565b500290565b634e487b7160e01b600052603260045260246000fd5b6000816122a6576122a6612190565b50600019019056fe360894a13ba1a3210667c828492db98dca3e2076cc3735a920a3ca505d382bbc416464726573733a206c6f772d6c6576656c2064656c65676174652063616c6c206661696c65647a05a596cb0ce7fdea8a1e1ec73be300bdb35097c944ce1897202f7a13122eb2a2646970667358221220804befe5fce95b8585d926c16b4784c4ef5ad9cacdec673ac0c125ab36d9203064736f6c63430008090033",
  "devdoc": {
    "details": "This paymaster will approve transactions sent through a relay provider by the target contracts that are updated in the 'targets' mapping. This mapping maps an address to a boolean to indicate whether or not the address can be approved or not for gasless transactions https://docs.opengsn.org/tutorials/integration.html#creating_a_paymaster",
    "kind": "dev",
    "methods": {
      "constructor": {
        "custom:oz-upgrades-unsafe-allow": "constructor"
      },
      "getRoleAdmin(bytes32)": {
        "details": "Returns the admin role that controls `role`. See {grantRole} and {revokeRole}. To change a role's admin, use {_setRoleAdmin}."
      },
      "grantRole(bytes32,address)": {
        "details": "Grants `role` to `account`. If `account` had not been already granted `role`, emits a {RoleGranted} event. Requirements: - the caller must have ``role``'s admin role. May emit a {RoleGranted} event."
      },
      "grantRouter(address)": {
        "details": "Grants ROUTER_ROLE to {a}",
        "params": {
          "to": "address to"
        }
      },
      "hasRole(bytes32,address)": {
        "details": "Returns `true` if `account` has been granted `role`."
      },
      "initialize(address,address,address)": {
        "details": "initializes a paymaster contract",
        "params": {
          "_admin": "admin of the paymaster",
          "_forwarder": "address for the trusted forwarder for open GSN",
          "_target": "the target address that should be approved for gasless transactions"
        }
      },
      "isTrustedForwarder(address)": {
        "details": "Return trusted forwarder status."
      },
      "owner()": {
        "details": "Returns the address of the current owner."
      },
      "postRelayedCall(bytes,bool,uint256,(uint256,uint256,uint256,address,address,address,bytes,uint256))": {
        "details": "function that performs all bookkeeping after a function call has been made."
      },
      "preRelayedCall(((address,address,uint256,uint256,uint256,bytes,uint256),(uint256,uint256,uint256,address,address,address,bytes,uint256)),bytes,bytes,uint256)": {
        "details": "function that performs all access control. It verifies that the relay request passes in an address that has been set as a target address and is approved for a gasless transaction"
      },
      "proxiableUUID()": {
        "details": "Implementation of the ERC1822 {proxiableUUID} function. This returns the storage slot used by the implementation. It is used to validate that the this implementation remains valid after an upgrade. IMPORTANT: A proxy pointing at a proxiable contract should not be considered proxiable itself, because this risks bricking a proxy that upgrades to it, by delegating to itself until out of gas. Thus it is critical that this function revert if invoked through a proxy. This is guaranteed by the `notDelegated` modifier."
      },
      "removeTarget(address)": {
        "details": "updates the mapping of target addresses to disapprove the passed in address"
      },
      "renounceOwnership()": {
        "details": "Leaves the contract without owner. It will not be possible to call `onlyOwner` functions anymore. Can only be called by the current owner. NOTE: Renouncing ownership will leave the contract without an owner, thereby removing any functionality that is only available to the owner."
      },
      "renounceRole(bytes32,address)": {
        "details": "Revokes `role` from the calling account. Roles are often managed via {grantRole} and {revokeRole}: this function's purpose is to provide a mechanism for accounts to lose their privileges if they are compromised (such as when a trusted device is misplaced). If the calling account had been revoked `role`, emits a {RoleRevoked} event. Requirements: - the caller must be `account`. May emit a {RoleRevoked} event."
      },
      "revokeRole(bytes32,address)": {
        "details": "Revokes `role` from `account`. If `account` had been granted `role`, emits a {RoleRevoked} event. Requirements: - the caller must have ``role``'s admin role. May emit a {RoleRevoked} event."
      },
      "setTarget(address)": {
        "details": "updates the mapping of target addresses to approve the passed in address"
      },
      "supportsInterface(bytes4)": {
        "details": "See {IERC165-supportsInterface}."
      },
      "transferOwnership(address)": {
        "details": "Transfers ownership of the contract to a new account (`newOwner`). Can only be called by the current owner."
      },
      "upgradeTo(address)": {
        "details": "Upgrade the implementation of the proxy to `newImplementation`. Calls {_authorizeUpgrade}. Emits an {Upgraded} event."
      },
      "upgradeToAndCall(address,bytes)": {
        "details": "Upgrade the implementation of the proxy to `newImplementation`, and subsequently execute the function call encoded in `data`. Calls {_authorizeUpgrade}. Emits an {Upgraded} event."
      },
      "versionPaymaster()": {
        "details": "function that is required for open GSN paymasters"
      }
    },
    "version": 1
  },
  "userdoc": {
    "kind": "user",
    "methods": {
      "getGasAndDataLimits()": {
        "notice": "Return the Gas Limits and msg.data max size constants used by the Paymaster."
      },
      "getHubAddr()": {
        "notice": "return the relayHub of this contract."
      },
      "getRelayHubDeposit()": {
        "notice": "check current deposit on relay hub."
      },
      "grantRouter(address)": {
        "notice": "Must have owner role"
      },
      "isTrustedForwarder(address)": {
        "notice": "**REQUIRED FOR GSN**"
      },
      "withdrawRelayHubDepositTo(uint256,address)": {
        "notice": "withdraw deposit from relayHub"
      }
    },
    "version": 1
  },
  "storageLayout": {
    "storage": [
      {
        "astId": 3091,
        "contract": "contracts/paymasters/NaivePaymaster.sol:NaivePaymaster",
        "label": "_initialized",
        "offset": 0,
        "slot": "0",
        "type": "t_uint8"
      },
      {
        "astId": 3094,
        "contract": "contracts/paymasters/NaivePaymaster.sol:NaivePaymaster",
        "label": "_initializing",
        "offset": 1,
        "slot": "0",
        "type": "t_bool"
      },
      {
        "astId": 3073,
        "contract": "contracts/paymasters/NaivePaymaster.sol:NaivePaymaster",
        "label": "__gap",
        "offset": 0,
        "slot": "1",
        "type": "t_array(t_uint256)50_storage"
      },
      {
        "astId": 3370,
        "contract": "contracts/paymasters/NaivePaymaster.sol:NaivePaymaster",
        "label": "__gap",
        "offset": 0,
        "slot": "51",
        "type": "t_array(t_uint256)50_storage"
      },
      {
        "astId": 7537,
        "contract": "contracts/paymasters/NaivePaymaster.sol:NaivePaymaster",
        "label": "__gap",
        "offset": 0,
        "slot": "101",
        "type": "t_array(t_uint256)50_storage"
      },
      {
        "astId": 7941,
        "contract": "contracts/paymasters/NaivePaymaster.sol:NaivePaymaster",
        "label": "__gap",
        "offset": 0,
        "slot": "151",
        "type": "t_array(t_uint256)50_storage"
      },
      {
        "astId": 2110,
        "contract": "contracts/paymasters/NaivePaymaster.sol:NaivePaymaster",
        "label": "_roles",
        "offset": 0,
        "slot": "201",
        "type": "t_mapping(t_bytes32,t_struct(RoleData)2105_storage)"
      },
      {
        "astId": 2409,
        "contract": "contracts/paymasters/NaivePaymaster.sol:NaivePaymaster",
        "label": "__gap",
        "offset": 0,
        "slot": "202",
        "type": "t_array(t_uint256)49_storage"
      },
      {
        "astId": 7962,
        "contract": "contracts/paymasters/NaivePaymaster.sol:NaivePaymaster",
        "label": "_owner",
        "offset": 0,
        "slot": "251",
        "type": "t_address"
      },
      {
        "astId": 590,
        "contract": "contracts/paymasters/NaivePaymaster.sol:NaivePaymaster",
        "label": "relayHub",
        "offset": 0,
        "slot": "252",
        "type": "t_contract(IRelayHub)1311"
      },
      {
        "astId": 592,
        "contract": "contracts/paymasters/NaivePaymaster.sol:NaivePaymaster",
        "label": "_trustedForwarder",
        "offset": 0,
        "slot": "253",
        "type": "t_address"
      },
      {
        "astId": 17321,
        "contract": "contracts/paymasters/NaivePaymaster.sol:NaivePaymaster",
        "label": "targets",
        "offset": 0,
        "slot": "254",
        "type": "t_mapping(t_address,t_bool)"
      }
    ],
    "types": {
      "t_address": {
        "encoding": "inplace",
        "label": "address",
        "numberOfBytes": "20"
      },
      "t_array(t_uint256)49_storage": {
        "base": "t_uint256",
        "encoding": "inplace",
        "label": "uint256[49]",
        "numberOfBytes": "1568"
      },
      "t_array(t_uint256)50_storage": {
        "base": "t_uint256",
        "encoding": "inplace",
        "label": "uint256[50]",
        "numberOfBytes": "1600"
      },
      "t_bool": {
        "encoding": "inplace",
        "label": "bool",
        "numberOfBytes": "1"
      },
      "t_bytes32": {
        "encoding": "inplace",
        "label": "bytes32",
        "numberOfBytes": "32"
      },
      "t_contract(IRelayHub)1311": {
        "encoding": "inplace",
        "label": "contract IRelayHub",
        "numberOfBytes": "20"
      },
      "t_mapping(t_address,t_bool)": {
        "encoding": "mapping",
        "key": "t_address",
        "label": "mapping(address => bool)",
        "numberOfBytes": "32",
        "value": "t_bool"
      },
      "t_mapping(t_bytes32,t_struct(RoleData)2105_storage)": {
        "encoding": "mapping",
        "key": "t_bytes32",
        "label": "mapping(bytes32 => struct AccessControlUpgradeable.RoleData)",
        "numberOfBytes": "32",
        "value": "t_struct(RoleData)2105_storage"
      },
      "t_struct(RoleData)2105_storage": {
        "encoding": "inplace",
        "label": "struct AccessControlUpgradeable.RoleData",
        "members": [
          {
            "astId": 2102,
            "contract": "contracts/paymasters/NaivePaymaster.sol:NaivePaymaster",
            "label": "members",
            "offset": 0,
            "slot": "0",
            "type": "t_mapping(t_address,t_bool)"
          },
          {
            "astId": 2104,
            "contract": "contracts/paymasters/NaivePaymaster.sol:NaivePaymaster",
            "label": "adminRole",
            "offset": 0,
            "slot": "1",
            "type": "t_bytes32"
          }
        ],
        "numberOfBytes": "64"
      },
      "t_uint256": {
        "encoding": "inplace",
        "label": "uint256",
        "numberOfBytes": "32"
      },
      "t_uint8": {
        "encoding": "inplace",
        "label": "uint8",
        "numberOfBytes": "1"
      }
    }
  }
}