{
  "address": "0x44E218aAa529e1d435A31EB7Aa31dA850E1FA443",
  "abi": [
    {
      "anonymous": false,
      "inputs": [
        {
          "indexed": false,
          "internalType": "address",
          "name": "previousAdmin",
          "type": "address"
        },
        {
          "indexed": false,
          "internalType": "address",
          "name": "newAdmin",
          "type": "address"
        }
      ],
      "name": "AdminChanged",
      "type": "event"
    },
    {
      "anonymous": false,
      "inputs": [
        {
          "indexed": true,
          "internalType": "address",
          "name": "beacon",
          "type": "address"
        }
      ],
      "name": "BeaconUpgraded",
      "type": "event"
    },
    {
      "anonymous": false,
      "inputs": [
        {
          "indexed": false,
          "internalType": "uint8",
          "name": "version",
          "type": "uint8"
        }
      ],
      "name": "Initialized",
      "type": "event"
    },
    {
      "anonymous": false,
      "inputs": [
        {
          "indexed": true,
          "internalType": "address",
          "name": "previousOwner",
          "type": "address"
        },
        {
          "indexed": true,
          "internalType": "address",
          "name": "newOwner",
          "type": "address"
        }
      ],
      "name": "OwnershipTransferred",
      "type": "event"
    },
    {
      "anonymous": false,
      "inputs": [],
      "name": "PostRelayed",
      "type": "event"
    },
    {
      "anonymous": false,
      "inputs": [],
      "name": "PreRelayed",
      "type": "event"
    },
    {
      "anonymous": false,
      "inputs": [
        {
          "indexed": true,
          "internalType": "bytes32",
          "name": "role",
          "type": "bytes32"
        },
        {
          "indexed": true,
          "internalType": "bytes32",
          "name": "previousAdminRole",
          "type": "bytes32"
        },
        {
          "indexed": true,
          "internalType": "bytes32",
          "name": "newAdminRole",
          "type": "bytes32"
        }
      ],
      "name": "RoleAdminChanged",
      "type": "event"
    },
    {
      "anonymous": false,
      "inputs": [
        {
          "indexed": true,
          "internalType": "bytes32",
          "name": "role",
          "type": "bytes32"
        },
        {
          "indexed": true,
          "internalType": "address",
          "name": "account",
          "type": "address"
        },
        {
          "indexed": true,
          "internalType": "address",
          "name": "sender",
          "type": "address"
        }
      ],
      "name": "RoleGranted",
      "type": "event"
    },
    {
      "anonymous": false,
      "inputs": [
        {
          "indexed": true,
          "internalType": "bytes32",
          "name": "role",
          "type": "bytes32"
        },
        {
          "indexed": true,
          "internalType": "address",
          "name": "account",
          "type": "address"
        },
        {
          "indexed": true,
          "internalType": "address",
          "name": "sender",
          "type": "address"
        }
      ],
      "name": "RoleRevoked",
      "type": "event"
    },
    {
      "anonymous": false,
      "inputs": [
        {
          "indexed": true,
          "internalType": "address",
          "name": "implementation",
          "type": "address"
        }
      ],
      "name": "Upgraded",
      "type": "event"
    },
    {
      "inputs": [],
      "name": "CALLDATA_SIZE_LIMIT",
      "outputs": [
        {
          "internalType": "uint256",
          "name": "",
          "type": "uint256"
        }
      ],
      "stateMutability": "view",
      "type": "function"
    },
    {
      "inputs": [],
      "name": "DEFAULT_ADMIN_ROLE",
      "outputs": [
        {
          "internalType": "bytes32",
          "name": "",
          "type": "bytes32"
        }
      ],
      "stateMutability": "view",
      "type": "function"
    },
    {
      "inputs": [],
      "name": "FORWARDER_HUB_OVERHEAD",
      "outputs": [
        {
          "internalType": "uint256",
          "name": "",
          "type": "uint256"
        }
      ],
      "stateMutability": "view",
      "type": "function"
    },
    {
      "inputs": [],
      "name": "PAYMASTER_ACCEPTANCE_BUDGET",
      "outputs": [
        {
          "internalType": "uint256",
          "name": "",
          "type": "uint256"
        }
      ],
      "stateMutability": "view",
      "type": "function"
    },
    {
      "inputs": [],
      "name": "POST_RELAYED_CALL_GAS_LIMIT",
      "outputs": [
        {
          "internalType": "uint256",
          "name": "",
          "type": "uint256"
        }
      ],
      "stateMutability": "view",
      "type": "function"
    },
    {
      "inputs": [],
      "name": "PRE_RELAYED_CALL_GAS_LIMIT",
      "outputs": [
        {
          "internalType": "uint256",
          "name": "",
          "type": "uint256"
        }
      ],
      "stateMutability": "view",
      "type": "function"
    },
    {
      "inputs": [
        {
          "components": [
            {
              "components": [
                {
                  "internalType": "address",
                  "name": "from",
                  "type": "address"
                },
                {
                  "internalType": "address",
                  "name": "to",
                  "type": "address"
                },
                {
                  "internalType": "uint256",
                  "name": "value",
                  "type": "uint256"
                },
                {
                  "internalType": "uint256",
                  "name": "gas",
                  "type": "uint256"
                },
                {
                  "internalType": "uint256",
                  "name": "nonce",
                  "type": "uint256"
                },
                {
                  "internalType": "bytes",
                  "name": "data",
                  "type": "bytes"
                },
                {
                  "internalType": "uint256",
                  "name": "validUntil",
                  "type": "uint256"
                }
              ],
              "internalType": "struct IForwarder.ForwardRequest",
              "name": "request",
              "type": "tuple"
            },
            {
              "components": [
                {
                  "internalType": "uint256",
                  "name": "gasPrice",
                  "type": "uint256"
                },
                {
                  "internalType": "uint256",
                  "name": "pctRelayFee",
                  "type": "uint256"
                },
                {
                  "internalType": "uint256",
                  "name": "baseRelayFee",
                  "type": "uint256"
                },
                {
                  "internalType": "address",
                  "name": "relayWorker",
                  "type": "address"
                },
                {
                  "internalType": "address",
                  "name": "paymaster",
                  "type": "address"
                },
                {
                  "internalType": "address",
                  "name": "forwarder",
                  "type": "address"
                },
                {
                  "internalType": "bytes",
                  "name": "paymasterData",
                  "type": "bytes"
                },
                {
                  "internalType": "uint256",
                  "name": "clientId",
                  "type": "uint256"
                }
              ],
              "internalType": "struct GsnTypes.RelayData",
              "name": "relayData",
              "type": "tuple"
            }
          ],
          "internalType": "struct GsnTypes.RelayRequest",
          "name": "relayRequest",
          "type": "tuple"
        }
      ],
      "name": "_verifyForwarder",
      "outputs": [],
      "stateMutability": "view",
      "type": "function"
    },
    {
      "inputs": [],
      "name": "acceptableToken",
      "outputs": [
        {
          "internalType": "contract IERC721Upgradeable",
          "name": "",
          "type": "address"
        }
      ],
      "stateMutability": "view",
      "type": "function"
    },
    {
      "inputs": [],
      "name": "getGasAndDataLimits",
      "outputs": [
        {
          "components": [
            {
              "internalType": "uint256",
              "name": "acceptanceBudget",
              "type": "uint256"
            },
            {
              "internalType": "uint256",
              "name": "preRelayedCallGasLimit",
              "type": "uint256"
            },
            {
              "internalType": "uint256",
              "name": "postRelayedCallGasLimit",
              "type": "uint256"
            },
            {
              "internalType": "uint256",
              "name": "calldataSizeLimit",
              "type": "uint256"
            }
          ],
          "internalType": "struct IPaymaster.GasAndDataLimits",
          "name": "limits",
          "type": "tuple"
        }
      ],
      "stateMutability": "view",
      "type": "function"
    },
    {
      "inputs": [
        {
          "internalType": "address",
          "name": "user",
          "type": "address"
        }
      ],
      "name": "getGasSpent",
      "outputs": [
        {
          "internalType": "uint256",
          "name": "",
          "type": "uint256"
        }
      ],
      "stateMutability": "view",
      "type": "function"
    },
    {
      "inputs": [],
      "name": "getHubAddr",
      "outputs": [
        {
          "internalType": "address",
          "name": "",
          "type": "address"
        }
      ],
      "stateMutability": "view",
      "type": "function"
    },
    {
      "inputs": [],
      "name": "getImplementation",
      "outputs": [
        {
          "internalType": "address",
          "name": "",
          "type": "address"
        }
      ],
      "stateMutability": "view",
      "type": "function"
    },
    {
      "inputs": [
        {
          "internalType": "uint256",
          "name": "tokenId",
          "type": "uint256"
        }
      ],
      "name": "getNumTransactions",
      "outputs": [
        {
          "internalType": "uint256",
          "name": "",
          "type": "uint256"
        }
      ],
      "stateMutability": "view",
      "type": "function"
    },
    {
      "inputs": [],
      "name": "getRelayHubDeposit",
      "outputs": [
        {
          "internalType": "uint256",
          "name": "",
          "type": "uint256"
        }
      ],
      "stateMutability": "view",
      "type": "function"
    },
    {
      "inputs": [
        {
          "internalType": "bytes32",
          "name": "role",
          "type": "bytes32"
        }
      ],
      "name": "getRoleAdmin",
      "outputs": [
        {
          "internalType": "bytes32",
          "name": "",
          "type": "bytes32"
        }
      ],
      "stateMutability": "view",
      "type": "function"
    },
    {
      "inputs": [
        {
          "internalType": "bytes32",
          "name": "role",
          "type": "bytes32"
        },
        {
          "internalType": "address",
          "name": "account",
          "type": "address"
        }
      ],
      "name": "grantRole",
      "outputs": [],
      "stateMutability": "nonpayable",
      "type": "function"
    },
    {
      "inputs": [
        {
          "internalType": "address",
          "name": "to",
          "type": "address"
        }
      ],
      "name": "grantRouter",
      "outputs": [],
      "stateMutability": "nonpayable",
      "type": "function"
    },
    {
      "inputs": [
        {
          "internalType": "bytes32",
          "name": "role",
          "type": "bytes32"
        },
        {
          "internalType": "address",
          "name": "account",
          "type": "address"
        }
      ],
      "name": "hasRole",
      "outputs": [
        {
          "internalType": "bool",
          "name": "",
          "type": "bool"
        }
      ],
      "stateMutability": "view",
      "type": "function"
    },
    {
      "inputs": [
        {
          "internalType": "address",
          "name": "_admin",
          "type": "address"
        },
        {
          "internalType": "address",
          "name": "_acceptableToken",
          "type": "address"
        },
        {
          "internalType": "uint256",
          "name": "_limit",
          "type": "uint256"
        },
        {
          "internalType": "address",
          "name": "_forwarder",
          "type": "address"
        }
      ],
      "name": "initialize",
      "outputs": [],
      "stateMutability": "nonpayable",
      "type": "function"
    },
    {
      "inputs": [
        {
          "internalType": "address",
          "name": "forwarder",
          "type": "address"
        }
      ],
      "name": "isTrustedForwarder",
      "outputs": [
        {
          "internalType": "bool",
          "name": "",
          "type": "bool"
        }
      ],
      "stateMutability": "view",
      "type": "function"
    },
    {
      "inputs": [],
      "name": "limit",
      "outputs": [
        {
          "internalType": "uint256",
          "name": "",
          "type": "uint256"
        }
      ],
      "stateMutability": "view",
      "type": "function"
    },
    {
      "inputs": [],
      "name": "owner",
      "outputs": [
        {
          "internalType": "address",
          "name": "",
          "type": "address"
        }
      ],
      "stateMutability": "view",
      "type": "function"
    },
    {
      "inputs": [],
      "name": "payer",
      "outputs": [
        {
          "internalType": "address",
          "name": "",
          "type": "address"
        }
      ],
      "stateMutability": "view",
      "type": "function"
    },
    {
      "inputs": [
        {
          "internalType": "bytes",
          "name": "context",
          "type": "bytes"
        },
        {
          "internalType": "bool",
          "name": "success",
          "type": "bool"
        },
        {
          "internalType": "uint256",
          "name": "gasUseWithoutPost",
          "type": "uint256"
        },
        {
          "components": [
            {
              "internalType": "uint256",
              "name": "gasPrice",
              "type": "uint256"
            },
            {
              "internalType": "uint256",
              "name": "pctRelayFee",
              "type": "uint256"
            },
            {
              "internalType": "uint256",
              "name": "baseRelayFee",
              "type": "uint256"
            },
            {
              "internalType": "address",
              "name": "relayWorker",
              "type": "address"
            },
            {
              "internalType": "address",
              "name": "paymaster",
              "type": "address"
            },
            {
              "internalType": "address",
              "name": "forwarder",
              "type": "address"
            },
            {
              "internalType": "bytes",
              "name": "paymasterData",
              "type": "bytes"
            },
            {
              "internalType": "uint256",
              "name": "clientId",
              "type": "uint256"
            }
          ],
          "internalType": "struct GsnTypes.RelayData",
          "name": "relayData",
          "type": "tuple"
        }
      ],
      "name": "postRelayedCall",
      "outputs": [],
      "stateMutability": "nonpayable",
      "type": "function"
    },
    {
      "inputs": [
        {
          "components": [
            {
              "components": [
                {
                  "internalType": "address",
                  "name": "from",
                  "type": "address"
                },
                {
                  "internalType": "address",
                  "name": "to",
                  "type": "address"
                },
                {
                  "internalType": "uint256",
                  "name": "value",
                  "type": "uint256"
                },
                {
                  "internalType": "uint256",
                  "name": "gas",
                  "type": "uint256"
                },
                {
                  "internalType": "uint256",
                  "name": "nonce",
                  "type": "uint256"
                },
                {
                  "internalType": "bytes",
                  "name": "data",
                  "type": "bytes"
                },
                {
                  "internalType": "uint256",
                  "name": "validUntil",
                  "type": "uint256"
                }
              ],
              "internalType": "struct IForwarder.ForwardRequest",
              "name": "request",
              "type": "tuple"
            },
            {
              "components": [
                {
                  "internalType": "uint256",
                  "name": "gasPrice",
                  "type": "uint256"
                },
                {
                  "internalType": "uint256",
                  "name": "pctRelayFee",
                  "type": "uint256"
                },
                {
                  "internalType": "uint256",
                  "name": "baseRelayFee",
                  "type": "uint256"
                },
                {
                  "internalType": "address",
                  "name": "relayWorker",
                  "type": "address"
                },
                {
                  "internalType": "address",
                  "name": "paymaster",
                  "type": "address"
                },
                {
                  "internalType": "address",
                  "name": "forwarder",
                  "type": "address"
                },
                {
                  "internalType": "bytes",
                  "name": "paymasterData",
                  "type": "bytes"
                },
                {
                  "internalType": "uint256",
                  "name": "clientId",
                  "type": "uint256"
                }
              ],
              "internalType": "struct GsnTypes.RelayData",
              "name": "relayData",
              "type": "tuple"
            }
          ],
          "internalType": "struct GsnTypes.RelayRequest",
          "name": "relayRequest",
          "type": "tuple"
        },
        {
          "internalType": "bytes",
          "name": "signature",
          "type": "bytes"
        },
        {
          "internalType": "bytes",
          "name": "approvalData",
          "type": "bytes"
        },
        {
          "internalType": "uint256",
          "name": "maxPossibleGas",
          "type": "uint256"
        }
      ],
      "name": "preRelayedCall",
      "outputs": [
        {
          "internalType": "bytes",
          "name": "context",
          "type": "bytes"
        },
        {
          "internalType": "bool",
          "name": "revertOnRecipientRevert",
          "type": "bool"
        }
      ],
      "stateMutability": "nonpayable",
      "type": "function"
    },
    {
      "inputs": [],
      "name": "proxiableUUID",
      "outputs": [
        {
          "internalType": "bytes32",
          "name": "",
          "type": "bytes32"
        }
      ],
      "stateMutability": "view",
      "type": "function"
    },
    {
      "inputs": [
        {
          "internalType": "address",
          "name": "_admin",
          "type": "address"
        },
        {
          "internalType": "address",
          "name": "_acceptableToken",
          "type": "address"
        },
        {
          "internalType": "uint256",
          "name": "_limit",
          "type": "uint256"
        },
        {
          "internalType": "address",
          "name": "_forwarder",
          "type": "address"
        }
      ],
      "name": "proxyinitialize",
      "outputs": [],
      "stateMutability": "nonpayable",
      "type": "function"
    },
    {
      "inputs": [],
      "name": "renounceOwnership",
      "outputs": [],
      "stateMutability": "nonpayable",
      "type": "function"
    },
    {
      "inputs": [
        {
          "internalType": "bytes32",
          "name": "role",
          "type": "bytes32"
        },
        {
          "internalType": "address",
          "name": "account",
          "type": "address"
        }
      ],
      "name": "renounceRole",
      "outputs": [],
      "stateMutability": "nonpayable",
      "type": "function"
    },
    {
      "inputs": [
        {
          "internalType": "bytes32",
          "name": "role",
          "type": "bytes32"
        },
        {
          "internalType": "address",
          "name": "account",
          "type": "address"
        }
      ],
      "name": "revokeRole",
      "outputs": [],
      "stateMutability": "nonpayable",
      "type": "function"
    },
    {
      "inputs": [
        {
          "internalType": "contract IRelayHub",
          "name": "hub",
          "type": "address"
        }
      ],
      "name": "setRelayHub",
      "outputs": [],
      "stateMutability": "nonpayable",
      "type": "function"
    },
    {
      "inputs": [
        {
          "internalType": "address",
          "name": "forwarder",
          "type": "address"
        }
      ],
      "name": "setTrustedForwarder",
      "outputs": [],
      "stateMutability": "nonpayable",
      "type": "function"
    },
    {
      "inputs": [
        {
          "internalType": "bytes4",
          "name": "interfaceId",
          "type": "bytes4"
        }
      ],
      "name": "supportsInterface",
      "outputs": [
        {
          "internalType": "bool",
          "name": "",
          "type": "bool"
        }
      ],
      "stateMutability": "view",
      "type": "function"
    },
    {
      "inputs": [
        {
          "internalType": "address",
          "name": "newOwner",
          "type": "address"
        }
      ],
      "name": "transferOwnership",
      "outputs": [],
      "stateMutability": "nonpayable",
      "type": "function"
    },
    {
      "inputs": [],
      "name": "trustedForwarder",
      "outputs": [
        {
          "internalType": "address",
          "name": "",
          "type": "address"
        }
      ],
      "stateMutability": "view",
      "type": "function"
    },
    {
      "inputs": [
        {
          "internalType": "address",
          "name": "newImplementation",
          "type": "address"
        }
      ],
      "name": "upgradeTo",
      "outputs": [],
      "stateMutability": "nonpayable",
      "type": "function"
    },
    {
      "inputs": [
        {
          "internalType": "address",
          "name": "newImplementation",
          "type": "address"
        },
        {
          "internalType": "bytes",
          "name": "data",
          "type": "bytes"
        }
      ],
      "name": "upgradeToAndCall",
      "outputs": [],
      "stateMutability": "payable",
      "type": "function"
    },
    {
      "inputs": [],
      "name": "versionPaymaster",
      "outputs": [
        {
          "internalType": "string",
          "name": "",
          "type": "string"
        }
      ],
      "stateMutability": "view",
      "type": "function"
    },
    {
      "inputs": [],
      "name": "versionRecipient",
      "outputs": [
        {
          "internalType": "string",
          "name": "",
          "type": "string"
        }
      ],
      "stateMutability": "pure",
      "type": "function"
    },
    {
      "inputs": [
        {
          "internalType": "uint256",
          "name": "amount",
          "type": "uint256"
        },
        {
          "internalType": "address payable",
          "name": "target",
          "type": "address"
        }
      ],
      "name": "withdrawRelayHubDepositTo",
      "outputs": [],
      "stateMutability": "nonpayable",
      "type": "function"
    },
    {
      "stateMutability": "payable",
      "type": "receive"
    }
  ],
  "transactionHash": "0xca551ff5311e88c8d4081defa8d3de87d49d306cd1b8c7d60a71baf4455ecf0e",
  "args": [],
  "numDeployments": 1,
  "solcInputHash": "28b4d2e2155903f56ed1fc988848ec0f",
  "bytecode": "0x60a0604052306080523480156200001557600080fd5b506200002a6200002462000030565b6200004c565b620000f8565b6000620000476200009e60201b6200136b1760201c565b905090565b60fb80546001600160a01b038381166001600160a01b0319831681179093556040519116919082907f8be0079c531659141344cd1fd0a4f28419497f9722a3daafe3b4186f6b6457e090600090a35050565b600060143610801590620000e057503360009081527fda8fd4968d5cdf85a357e312d49efd29ed9d8f17f8771f725a66d82a5331e31c602052604090205460ff165b15620000f3575060131936013560601c90565b503390565b6080516126306200013060003960008181610d2101528181610d6101528181610dea01528181610e2a0152610ea201526126306000f3fe60806040526004361061023e5760003560e01c80637da0a8771161012e578063b039a88f116100ab578063da7422281161006f578063da742228146107ae578063de99f2cb146107ce578063df463a66146107ee578063f2fde38b14610803578063f9c002f71461082357600080fd5b8063b039a88f146106f9578063b90b41cf14610741578063bbdaa3c914610757578063be2030941461076e578063d547741f1461078e57600080fd5b806398c76d25116100f257806398c76d2514610678578063a217fddf14610698578063a4d66daf146106ad578063a5dcd07b146106c4578063aaf10f42146106e457600080fd5b80637da0a877146105e7578063888e2218146106055780638da5cb5b1461062557806391d1485414610643578063921276ea1461066357600080fd5b8063486ff0cd116101bc57806363129e1e1161018057806363129e1e1461053d578063715018a61461057457806374e861d61461058957806376fa01c3146105a75780637bb05264146105c757600080fd5b8063486ff0cd146104a85780634f1ef286146104df57806352d1902d146104f2578063572b6c05146105075780635c5e3db11461052757600080fd5b80632afe31c1116102035780632afe31c1146104115780632d14c4b7146104265780632f2ff15d1461044857806336568abe146104685780633659cfe61461048857600080fd5b8062be5dd41461030657806301ffc9a71461033d578063123119cd1461036d578063248a9ca3146103a5578063251461c1146103e357600080fd5b366103015760fc546001600160a01b03166102a05760405162461bcd60e51b815260206004820152601960248201527f72656c6179206875622061646472657373206e6f74207365740000000000000060448201526064015b60405180910390fd5b60fc5460405163aa67c91960e01b81523060048201526001600160a01b039091169063aa67c9199034906024016000604051808303818588803b1580156102e657600080fd5b505af11580156102fa573d6000803e3d6000fd5b5050505050005b600080fd5b34801561031257600080fd5b50610326610321366004611eb9565b61083a565b604051610334929190611fae565b60405180910390f35b34801561034957600080fd5b5061035d610358366004611fd2565b610b36565b6040519015158152602001610334565b34801561037957600080fd5b5060ff5461038d906001600160a01b031681565b6040516001600160a01b039091168152602001610334565b3480156103b157600080fd5b506103d56103c0366004611ffc565b600090815260c9602052604090206001015490565b604051908152602001610334565b3480156103ef57600080fd5b506103d56103fe366004611ffc565b6000908152610101602052604090205490565b34801561041d57600080fd5b506103d5610b6d565b34801561043257600080fd5b5061044661044136600461202a565b610bee565b005b34801561045457600080fd5b5061044661046336600461202a565b610c5e565b34801561047457600080fd5b5061044661048336600461202a565b610c88565b34801561049457600080fd5b506104466104a336600461205a565b610d16565b3480156104b457600080fd5b50604080518082019091526005815264191719171b60d91b60208201525b6040516103349190612077565b6104466104ed3660046120a0565b610ddf565b3480156104fe57600080fd5b506103d5610e95565b34801561051357600080fd5b5061035d61052236600461205a565b610f48565b34801561053357600080fd5b506103d561290481565b34801561054957600080fd5b506103d561055836600461205a565b6001600160a01b03166000908152610102602052604090205490565b34801561058057600080fd5b50610446610f62565b34801561059557600080fd5b5060fc546001600160a01b031661038d565b3480156105b357600080fd5b506104466105c2366004612172565b610f76565b3480156105d357600080fd5b506104466105e236600461205a565b610fb4565b3480156105f357600080fd5b5060fd546001600160a01b031661038d565b34801561061157600080fd5b50610446610620366004612202565b610fde565b34801561063157600080fd5b5060fb546001600160a01b031661038d565b34801561064f57600080fd5b5061035d61065e36600461202a565b611017565b34801561066f57600080fd5b506104d2611042565b34801561068457600080fd5b5061044661069336600461205a565b611062565b3480156106a457600080fd5b506103d5600081565b3480156106b957600080fd5b506103d56101005481565b3480156106d057600080fd5b506104466106df366004612255565b611085565b3480156106f057600080fd5b5061038d611109565b34801561070557600080fd5b5061070e611113565b60405161033491908151815260208083015190820152604080830151908201526060918201519181019190915260800190565b34801561074d57600080fd5b506103d561c35081565b34801561076357600080fd5b506103d56201adb081565b34801561077a57600080fd5b50610446610789366004612202565b61117c565b34801561079a57600080fd5b506104466107a936600461202a565b611294565b3480156107ba57600080fd5b506104466107c936600461205a565b6112b9565b3480156107da57600080fd5b5060fe5461038d906001600160a01b031681565b3480156107fa57600080fd5b506103d56112e3565b34801561080f57600080fd5b5061044661081e36600461205a565b6112f5565b34801561082f57600080fd5b506103d5620186a081565b6060600061084b6020890189612292565b6108599060c08101906122b2565b1590506108a85760405162461bcd60e51b815260206004820152601d60248201527f7061796d6173746572446174613a20696e76616c6964206c656e6774680000006044820152606401610297565b6108b288806122f9565b6108c090602081019061205a565b60ff80546001600160a01b0319166001600160a01b039290921691909117905560006108ee86860187611ffc565b9050306001600160a01b031663df463a666040518163ffffffff1660e01b815260040160206040518083038186803b15801561092957600080fd5b505afa15801561093d573d6000803e3d6000fd5b505050506040513d601f19601f82011682018060405250810190610961919061230f565b60ff546001600160a01b03166000908152610102602052604090205411156109c45760405162461bcd60e51b8152602060048201526016602482015275155cd95c881c995858da19590819d85cc81b1a5b5a5d60521b6044820152606401610297565b610100546000828152610101602052604090205410610a255760405162461bcd60e51b815260206004820152601d60248201527f546f6b656e49642072656163686564206d696e74696e67206c696d69740000006044820152606401610297565b600081815261010160205260408120805491610a408361233e565b909155505060ff5460fe546040516331a9108f60e11b8152600481018490526001600160a01b039283169290911690636352211e9060240160206040518083038186803b158015610a9057600080fd5b505afa158015610aa4573d6000803e3d6000fd5b505050506040513d601f19601f82011682018060405250810190610ac89190612359565b6001600160a01b031614610b165760405162461bcd60e51b8152602060048201526015602482015274155cd95c88191bd95cc81b9bdd081bdddb88139195605a1b6044820152606401610297565b505060408051602081019091526000808252909150965096945050505050565b60006001600160e01b03198216637965db0b60e01b1480610b6757506301ffc9a760e01b6001600160e01b03198316145b92915050565b60fc546040516370a0823160e01b81523060048201526000916001600160a01b0316906370a082319060240160206040518083038186803b158015610bb157600080fd5b505afa158015610bc5573d6000803e3d6000fd5b505050506040513d601f19601f82011682018060405250810190610be9919061230f565b905090565b610bf66113a8565b60fc54604051627b8a6760e11b8152600481018490526001600160a01b0383811660248301529091169062f714ce90604401600060405180830381600087803b158015610c4257600080fd5b505af1158015610c56573d6000803e3d6000fd5b505050505050565b600082815260c96020526040902060010154610c7981611421565b610c838383611432565b505050565b610c906114b9565b6001600160a01b0316816001600160a01b031614610d085760405162461bcd60e51b815260206004820152602f60248201527f416363657373436f6e74726f6c3a2063616e206f6e6c792072656e6f756e636560448201526e103937b632b9903337b91039b2b63360891b6064820152608401610297565b610d1282826114c3565b5050565b306001600160a01b037f0000000000000000000000000000000000000000000000000000000000000000161415610d5f5760405162461bcd60e51b815260040161029790612376565b7f00000000000000000000000000000000000000000000000000000000000000006001600160a01b0316610d91611548565b6001600160a01b031614610db75760405162461bcd60e51b8152600401610297906123c2565b610dc081611564565b60408051600080825260208201909252610ddc9183919061156f565b50565b306001600160a01b037f0000000000000000000000000000000000000000000000000000000000000000161415610e285760405162461bcd60e51b815260040161029790612376565b7f00000000000000000000000000000000000000000000000000000000000000006001600160a01b0316610e5a611548565b6001600160a01b031614610e805760405162461bcd60e51b8152600401610297906123c2565b610e8982611564565b610d128282600161156f565b6000306001600160a01b037f00000000000000000000000000000000000000000000000000000000000000001614610f355760405162461bcd60e51b815260206004820152603860248201527f555550535570677261646561626c653a206d757374206e6f742062652063616c60448201527f6c6564207468726f7567682064656c656761746563616c6c00000000000000006064820152608401610297565b5060008051602061256283398151915290565b6000610b676000805160206125db83398151915283611017565b610f6a6113a8565b610f7460006116e9565b565b8215610fad5760ff546001600160a01b03166000908152610102602052604081208054849290610fa790849061240e565b90915550505b5050505050565b610fbc6113a8565b60fc80546001600160a01b0319166001600160a01b0392909216919091179055565b600054610100900460ff166110055760405162461bcd60e51b815260040161029790612426565b6110118484848461173b565b50505050565b600091825260c9602090815260408084206001600160a01b0393909316845291905290205460ff1690565b606060405180606001604052806032815260200161258260329139905090565b600061106d81611421565b610d126000805160206125db83398151915283611432565b6110926020820182612292565b6110a39060c081019060a00161205a565b60fd546001600160a01b039081169116146111005760405162461bcd60e51b815260206004820152601860248201527f466f72776172646572206973206e6f74207472757374656400000000000000006044820152606401610297565b610ddc81611776565b6000610be9611548565b61113e6040518060800160405280600081526020016000815260200160008152602001600081525090565b604051806080016040528061c350620186a061115a919061240e565b8152602001620186a081526020016201adb08152602001612904815250905090565b600054610100900460ff161580801561119c5750600054600160ff909116105b806111b65750303b1580156111b6575060005460ff166001145b6112195760405162461bcd60e51b815260206004820152602e60248201527f496e697469616c697a61626c653a20636f6e747261637420697320616c72656160448201526d191e481a5b9a5d1a585b1a5e995960921b6064820152608401610297565b6000805460ff19166001179055801561123c576000805461ff0019166101001790555b6112488585858561173b565b8015610fad576000805461ff0019169055604051600181527f7f26b83ff96e1f2b6a682f133852f6798a09c465da95921460cefb38474024989060200160405180910390a15050505050565b600082815260c960205260409020600101546112af81611421565b610c8383836114c3565b6112c16113a8565b60fd80546001600160a01b0319166001600160a01b0392909216919091179055565b6112f261c350620186a061240e565b81565b6112fd6113a8565b6001600160a01b0381166113625760405162461bcd60e51b815260206004820152602660248201527f4f776e61626c653a206e6577206f776e657220697320746865207a65726f206160448201526564647265737360d01b6064820152608401610297565b610ddc816116e9565b60006014361080159061139157506113916000805160206125db83398151915233611017565b156113a3575060131936013560601c90565b503390565b6113b06114b9565b6001600160a01b03166113cb60fb546001600160a01b031690565b6001600160a01b031614610f745760405162461bcd60e51b815260206004820181905260248201527f4f776e61626c653a2063616c6c6572206973206e6f7420746865206f776e65726044820152606401610297565b610ddc8161142d6114b9565b61195a565b61143c8282611017565b610d1257600082815260c9602090815260408083206001600160a01b03851684529091529020805460ff191660011790556114756114b9565b6001600160a01b0316816001600160a01b0316837f2f8788117e7eff1d82e926ec794901d17c78024a50270940304540a733656f0d60405160405180910390a45050565b6000610be961136b565b6114cd8282611017565b15610d1257600082815260c9602090815260408083206001600160a01b03851684529091529020805460ff191690556115046114b9565b6001600160a01b0316816001600160a01b0316837ff6391f5c32d9c69d2a47ea670b442974b53935d1edc7fd64eb21e047a839171b60405160405180910390a45050565b600080516020612562833981519152546001600160a01b031690565b6000610d1281611421565b7f4910fdfa16fed3260ed0e7147f7cc6da11a60208b5b9406d12a635614ffd91435460ff16156115a257610c83836119be565b826001600160a01b03166352d1902d6040518163ffffffff1660e01b815260040160206040518083038186803b1580156115db57600080fd5b505afa92505050801561160b575060408051601f3d908101601f191682019092526116089181019061230f565b60015b61166e5760405162461bcd60e51b815260206004820152602e60248201527f45524331393637557067726164653a206e657720696d706c656d656e7461746960448201526d6f6e206973206e6f74205555505360901b6064820152608401610297565b60008051602061256283398151915281146116dd5760405162461bcd60e51b815260206004820152602960248201527f45524331393637557067726164653a20756e737570706f727465642070726f786044820152681a58589b195555525160ba1b6064820152608401610297565b50610c83838383611a5a565b60fb80546001600160a01b038381166001600160a01b0319831681179093556040519116919082907f8be0079c531659141344cd1fd0a4f28419497f9722a3daafe3b4186f6b6457e090600090a35050565b600054610100900460ff166117625760405162461bcd60e51b815260040161029790612426565b61176c8482611a7f565b6110118383611ad3565b60008061178383806122f9565b61179490604081019060200161205a565b6001600160a01b031663572b6c0560e01b6117b26020860186612292565b6117c39060c081019060a00161205a565b6040516001600160a01b03909116602482015260440160408051601f198184030181529181526020820180516001600160e01b03166001600160e01b03199094169390931790925290516118179190612471565b600060405180830381855afa9150503d8060008114611852576040519150601f19603f3d011682016040523d82523d6000602084013e611857565b606091505b5091509150816118a95760405162461bcd60e51b815260206004820152601c60248201527f697354727573746564466f727761726465723a207265766572746564000000006044820152606401610297565b80516020146118fa5760405162461bcd60e51b815260206004820181905260248201527f697354727573746564466f727761726465723a2062616420726573706f6e73656044820152606401610297565b8080602001905181019061190e9190612483565b610c835760405162461bcd60e51b815260206004820152601f60248201527f696e76616c696420666f7277617264657220666f7220726563697069656e74006044820152606401610297565b6119648282611017565b610d125761197c816001600160a01b03166014611b21565b611987836020611b21565b6040516020016119989291906124a0565b60408051601f198184030181529082905262461bcd60e51b825261029791600401612077565b6001600160a01b0381163b611a2b5760405162461bcd60e51b815260206004820152602d60248201527f455243313936373a206e657720696d706c656d656e746174696f6e206973206e60448201526c1bdd08184818dbdb9d1c9858dd609a1b6064820152608401610297565b60008051602061256283398151915280546001600160a01b0319166001600160a01b0392909216919091179055565b611a6383611cc4565b600082511180611a705750805b15610c83576110118383611d04565b600054610100900460ff16611aa65760405162461bcd60e51b815260040161029790612426565b611ab08282611df8565b611abb600083611432565b610d126000805160206125db83398151915282611432565b600054610100900460ff16611afa5760405162461bcd60e51b815260040161029790612426565b60fe80546001600160a01b0319166001600160a01b03939093169290921790915561010055565b60606000611b30836002612515565b611b3b90600261240e565b67ffffffffffffffff811115611b5357611b5361208a565b6040519080825280601f01601f191660200182016040528015611b7d576020820181803683370190505b509050600360fc1b81600081518110611b9857611b98612534565b60200101906001600160f81b031916908160001a905350600f60fb1b81600181518110611bc757611bc7612534565b60200101906001600160f81b031916908160001a9053506000611beb846002612515565b611bf690600161240e565b90505b6001811115611c6e576f181899199a1a9b1b9c1cb0b131b232b360811b85600f1660108110611c2a57611c2a612534565b1a60f81b828281518110611c4057611c40612534565b60200101906001600160f81b031916908160001a90535060049490941c93611c678161254a565b9050611bf9565b508315611cbd5760405162461bcd60e51b815260206004820181905260248201527f537472696e67733a20686578206c656e67746820696e73756666696369656e746044820152606401610297565b9392505050565b611ccd816119be565b6040516001600160a01b038216907fbc7cd75a20ee27fd9adebab32041f755214dbc6bffa90cc0225b39da2e5c2d3b90600090a250565b60606001600160a01b0383163b611d6c5760405162461bcd60e51b815260206004820152602660248201527f416464726573733a2064656c65676174652063616c6c20746f206e6f6e2d636f6044820152651b9d1c9858dd60d21b6064820152608401610297565b600080846001600160a01b031684604051611d879190612471565b600060405180830381855af49150503d8060008114611dc2576040519150601f19603f3d011682016040523d82523d6000602084013e611dc7565b606091505b5091509150611def82826040518060600160405280602781526020016125b460279139611e1f565b95945050505050565b600054610100900460ff16610d125760405162461bcd60e51b815260040161029790612426565b60608315611e2e575081611cbd565b825115611e3e5782518084602001fd5b8160405162461bcd60e51b81526004016102979190612077565b600060408284031215611e6a57600080fd5b50919050565b60008083601f840112611e8257600080fd5b50813567ffffffffffffffff811115611e9a57600080fd5b602083019150836020828501011115611eb257600080fd5b9250929050565b60008060008060008060808789031215611ed257600080fd5b863567ffffffffffffffff80821115611eea57600080fd5b611ef68a838b01611e58565b97506020890135915080821115611f0c57600080fd5b611f188a838b01611e70565b90975095506040890135915080821115611f3157600080fd5b50611f3e89828a01611e70565b979a9699509497949695606090950135949350505050565b60005b83811015611f71578181015183820152602001611f59565b838111156110115750506000910152565b60008151808452611f9a816020860160208601611f56565b601f01601f19169290920160200192915050565b604081526000611fc16040830185611f82565b905082151560208301529392505050565b600060208284031215611fe457600080fd5b81356001600160e01b031981168114611cbd57600080fd5b60006020828403121561200e57600080fd5b5035919050565b6001600160a01b0381168114610ddc57600080fd5b6000806040838503121561203d57600080fd5b82359150602083013561204f81612015565b809150509250929050565b60006020828403121561206c57600080fd5b8135611cbd81612015565b602081526000611cbd6020830184611f82565b634e487b7160e01b600052604160045260246000fd5b600080604083850312156120b357600080fd5b82356120be81612015565b9150602083013567ffffffffffffffff808211156120db57600080fd5b818501915085601f8301126120ef57600080fd5b8135818111156121015761210161208a565b604051601f8201601f19908116603f011681019083821181831017156121295761212961208a565b8160405282815288602084870101111561214257600080fd5b8260208601602083013760006020848301015280955050505050509250929050565b8015158114610ddc57600080fd5b60008060008060006080868803121561218a57600080fd5b853567ffffffffffffffff808211156121a257600080fd5b6121ae89838a01611e70565b9097509550602088013591506121c382612164565b90935060408701359250606087013590808211156121e057600080fd5b50860161010081890312156121f457600080fd5b809150509295509295909350565b6000806000806080858703121561221857600080fd5b843561222381612015565b9350602085013561223381612015565b925060408501359150606085013561224a81612015565b939692955090935050565b60006020828403121561226757600080fd5b813567ffffffffffffffff81111561227e57600080fd5b61228a84828501611e58565b949350505050565b6000823560fe198336030181126122a857600080fd5b9190910192915050565b6000808335601e198436030181126122c957600080fd5b83018035915067ffffffffffffffff8211156122e457600080fd5b602001915036819003821315611eb257600080fd5b6000823560de198336030181126122a857600080fd5b60006020828403121561232157600080fd5b5051919050565b634e487b7160e01b600052601160045260246000fd5b600060001982141561235257612352612328565b5060010190565b60006020828403121561236b57600080fd5b8151611cbd81612015565b6020808252602c908201527f46756e6374696f6e206d7573742062652063616c6c6564207468726f7567682060408201526b19195b1959d85d1958d85b1b60a21b606082015260800190565b6020808252602c908201527f46756e6374696f6e206d7573742062652063616c6c6564207468726f7567682060408201526b6163746976652070726f787960a01b606082015260800190565b6000821982111561242157612421612328565b500190565b6020808252602b908201527f496e697469616c697a61626c653a20636f6e7472616374206973206e6f74206960408201526a6e697469616c697a696e6760a81b606082015260800190565b600082516122a8818460208701611f56565b60006020828403121561249557600080fd5b8151611cbd81612164565b7f416363657373436f6e74726f6c3a206163636f756e74200000000000000000008152600083516124d8816017850160208801611f56565b7001034b99036b4b9b9b4b733903937b6329607d1b6017918401918201528351612509816028840160208801611f56565b01602801949350505050565b600081600019048311821515161561252f5761252f612328565b500290565b634e487b7160e01b600052603260045260246000fd5b60008161255957612559612328565b50600019019056fe360894a13ba1a3210667c828492db98dca3e2076cc3735a920a3ca505d382bbc322e322e302b6f776c70726f746f636f6c2e7061796d6173746572732e6e66746f776e6572736869707061796d6173746572416464726573733a206c6f772d6c6576656c2064656c65676174652063616c6c206661696c65647a05a596cb0ce7fdea8a1e1ec73be300bdb35097c944ce1897202f7a13122eb2a2646970667358221220924d432676ae31104279285c9e7faf8afea583e73ebe8faaf0eee067749e3e6964736f6c63430008090033",
  "devdoc": {
    "details": "This paymaster will approve transactions sent through a relay provider if the client owns an approved ERC721 token in a collection. The paymaster takes in an address of a collection of acceptable tokenIds that a client can own to be able to complete a gasless transaction. A mapping also keeps track of how many times a specific tokenId is used to get approved, and there is a limit on how many times each tokenId can be used.",
    "kind": "dev",
    "methods": {
      "getRoleAdmin(bytes32)": {
        "details": "Returns the admin role that controls `role`. See {grantRole} and {revokeRole}. To change a role's admin, use {_setRoleAdmin}."
      },
      "grantRole(bytes32,address)": {
        "details": "Grants `role` to `account`. If `account` had not been already granted `role`, emits a {RoleGranted} event. Requirements: - the caller must have ``role``'s admin role. May emit a {RoleGranted} event."
      },
      "grantRouter(address)": {
        "details": "Grants ROUTER_ROLE to {a}",
        "params": {
          "to": "address to"
        }
      },
      "hasRole(bytes32,address)": {
        "details": "Returns `true` if `account` has been granted `role`."
      },
      "initialize(address,address,uint256,address)": {
        "details": "initializes a paymaster contract",
        "params": {
          "_acceptableToken": "address for acceptable token contract for approving transactions",
          "_admin": "admin of the paymaster",
          "_forwarder": "address for the trusted forwarder for open GSN",
          "_limit": "the maximum number of times a tokenId can be used to approve a transaction"
        }
      },
      "isTrustedForwarder(address)": {
        "details": "Return trusted forwarder status."
      },
      "owner()": {
        "details": "Returns the address of the current owner."
      },
      "postRelayedCall(bytes,bool,uint256,(uint256,uint256,uint256,address,address,address,bytes,uint256))": {
        "details": "function that performs all bookkeeping after a function call has been made."
      },
      "preRelayedCall(((address,address,uint256,uint256,uint256,bytes,uint256),(uint256,uint256,uint256,address,address,address,bytes,uint256)),bytes,bytes,uint256)": {
        "details": "function that performs all access control. It verifies that the client owns an acceptable token in the approved collection. it also ensures that the tokenId usage has not reached it's limit"
      },
      "proxiableUUID()": {
        "details": "Implementation of the ERC1822 {proxiableUUID} function. This returns the storage slot used by the implementation. It is used to validate that the this implementation remains valid after an upgrade. IMPORTANT: A proxy pointing at a proxiable contract should not be considered proxiable itself, because this risks bricking a proxy that upgrades to it, by delegating to itself until out of gas. Thus it is critical that this function revert if invoked through a proxy. This is guaranteed by the `notDelegated` modifier."
      },
      "renounceOwnership()": {
        "details": "Leaves the contract without owner. It will not be possible to call `onlyOwner` functions anymore. Can only be called by the current owner. NOTE: Renouncing ownership will leave the contract without an owner, thereby removing any functionality that is only available to the owner."
      },
      "renounceRole(bytes32,address)": {
        "details": "Revokes `role` from the calling account. Roles are often managed via {grantRole} and {revokeRole}: this function's purpose is to provide a mechanism for accounts to lose their privileges if they are compromised (such as when a trusted device is misplaced). If the calling account had been revoked `role`, emits a {RoleRevoked} event. Requirements: - the caller must be `account`. May emit a {RoleRevoked} event."
      },
      "revokeRole(bytes32,address)": {
        "details": "Revokes `role` from `account`. If `account` had been granted `role`, emits a {RoleRevoked} event. Requirements: - the caller must have ``role``'s admin role. May emit a {RoleRevoked} event."
      },
      "supportsInterface(bytes4)": {
        "details": "See {IERC165-supportsInterface}."
      },
      "transferOwnership(address)": {
        "details": "Transfers ownership of the contract to a new account (`newOwner`). Can only be called by the current owner."
      },
      "upgradeTo(address)": {
        "details": "Upgrade the implementation of the proxy to `newImplementation`. Calls {_authorizeUpgrade}. Emits an {Upgraded} event."
      },
      "upgradeToAndCall(address,bytes)": {
        "details": "Upgrade the implementation of the proxy to `newImplementation`, and subsequently execute the function call encoded in `data`. Calls {_authorizeUpgrade}. Emits an {Upgraded} event."
      },
      "versionPaymaster()": {
        "details": "function that is required for open GSN paymasters"
      }
    },
    "version": 1
  },
  "userdoc": {
    "kind": "user",
    "methods": {
      "getGasAndDataLimits()": {
        "notice": "Return the Gas Limits and msg.data max size constants used by the Paymaster."
      },
      "getHubAddr()": {
        "notice": "return the relayHub of this contract."
      },
      "getRelayHubDeposit()": {
        "notice": "check current deposit on relay hub."
      },
      "grantRouter(address)": {
        "notice": "Must have owner role"
      },
      "isTrustedForwarder(address)": {
        "notice": "**REQUIRED FOR GSN**"
      },
      "withdrawRelayHubDepositTo(uint256,address)": {
        "notice": "withdraw deposit from relayHub"
      }
    },
    "version": 1
  },
  "storageLayout": {
    "storage": [
      {
        "astId": 3091,
        "contract": "contracts/paymasters/NFTOwnershipPaymaster.sol:NFTOwnershipPaymaster",
        "label": "_initialized",
        "offset": 0,
        "slot": "0",
        "type": "t_uint8"
      },
      {
        "astId": 3094,
        "contract": "contracts/paymasters/NFTOwnershipPaymaster.sol:NFTOwnershipPaymaster",
        "label": "_initializing",
        "offset": 1,
        "slot": "0",
        "type": "t_bool"
      },
      {
        "astId": 3073,
        "contract": "contracts/paymasters/NFTOwnershipPaymaster.sol:NFTOwnershipPaymaster",
        "label": "__gap",
        "offset": 0,
        "slot": "1",
        "type": "t_array(t_uint256)50_storage"
      },
      {
        "astId": 3370,
        "contract": "contracts/paymasters/NFTOwnershipPaymaster.sol:NFTOwnershipPaymaster",
        "label": "__gap",
        "offset": 0,
        "slot": "51",
        "type": "t_array(t_uint256)50_storage"
      },
      {
        "astId": 7537,
        "contract": "contracts/paymasters/NFTOwnershipPaymaster.sol:NFTOwnershipPaymaster",
        "label": "__gap",
        "offset": 0,
        "slot": "101",
        "type": "t_array(t_uint256)50_storage"
      },
      {
        "astId": 7941,
        "contract": "contracts/paymasters/NFTOwnershipPaymaster.sol:NFTOwnershipPaymaster",
        "label": "__gap",
        "offset": 0,
        "slot": "151",
        "type": "t_array(t_uint256)50_storage"
      },
      {
        "astId": 2110,
        "contract": "contracts/paymasters/NFTOwnershipPaymaster.sol:NFTOwnershipPaymaster",
        "label": "_roles",
        "offset": 0,
        "slot": "201",
        "type": "t_mapping(t_bytes32,t_struct(RoleData)2105_storage)"
      },
      {
        "astId": 2409,
        "contract": "contracts/paymasters/NFTOwnershipPaymaster.sol:NFTOwnershipPaymaster",
        "label": "__gap",
        "offset": 0,
        "slot": "202",
        "type": "t_array(t_uint256)49_storage"
      },
      {
        "astId": 7962,
        "contract": "contracts/paymasters/NFTOwnershipPaymaster.sol:NFTOwnershipPaymaster",
        "label": "_owner",
        "offset": 0,
        "slot": "251",
        "type": "t_address"
      },
      {
        "astId": 590,
        "contract": "contracts/paymasters/NFTOwnershipPaymaster.sol:NFTOwnershipPaymaster",
        "label": "relayHub",
        "offset": 0,
        "slot": "252",
        "type": "t_contract(IRelayHub)1311"
      },
      {
        "astId": 592,
        "contract": "contracts/paymasters/NFTOwnershipPaymaster.sol:NFTOwnershipPaymaster",
        "label": "_trustedForwarder",
        "offset": 0,
        "slot": "253",
        "type": "t_address"
      },
      {
        "astId": 17056,
        "contract": "contracts/paymasters/NFTOwnershipPaymaster.sol:NFTOwnershipPaymaster",
        "label": "acceptableToken",
        "offset": 0,
        "slot": "254",
        "type": "t_contract(IERC721Upgradeable)7129"
      },
      {
        "astId": 17058,
        "contract": "contracts/paymasters/NFTOwnershipPaymaster.sol:NFTOwnershipPaymaster",
        "label": "payer",
        "offset": 0,
        "slot": "255",
        "type": "t_address"
      },
      {
        "astId": 17060,
        "contract": "contracts/paymasters/NFTOwnershipPaymaster.sol:NFTOwnershipPaymaster",
        "label": "limit",
        "offset": 0,
        "slot": "256",
        "type": "t_uint256"
      },
      {
        "astId": 17064,
        "contract": "contracts/paymasters/NFTOwnershipPaymaster.sol:NFTOwnershipPaymaster",
        "label": "numTimes",
        "offset": 0,
        "slot": "257",
        "type": "t_mapping(t_uint256,t_uint256)"
      },
      {
        "astId": 17068,
        "contract": "contracts/paymasters/NFTOwnershipPaymaster.sol:NFTOwnershipPaymaster",
        "label": "gasSpent",
        "offset": 0,
        "slot": "258",
        "type": "t_mapping(t_address,t_uint256)"
      }
    ],
    "types": {
      "t_address": {
        "encoding": "inplace",
        "label": "address",
        "numberOfBytes": "20"
      },
      "t_array(t_uint256)49_storage": {
        "base": "t_uint256",
        "encoding": "inplace",
        "label": "uint256[49]",
        "numberOfBytes": "1568"
      },
      "t_array(t_uint256)50_storage": {
        "base": "t_uint256",
        "encoding": "inplace",
        "label": "uint256[50]",
        "numberOfBytes": "1600"
      },
      "t_bool": {
        "encoding": "inplace",
        "label": "bool",
        "numberOfBytes": "1"
      },
      "t_bytes32": {
        "encoding": "inplace",
        "label": "bytes32",
        "numberOfBytes": "32"
      },
      "t_contract(IERC721Upgradeable)7129": {
        "encoding": "inplace",
        "label": "contract IERC721Upgradeable",
        "numberOfBytes": "20"
      },
      "t_contract(IRelayHub)1311": {
        "encoding": "inplace",
        "label": "contract IRelayHub",
        "numberOfBytes": "20"
      },
      "t_mapping(t_address,t_bool)": {
        "encoding": "mapping",
        "key": "t_address",
        "label": "mapping(address => bool)",
        "numberOfBytes": "32",
        "value": "t_bool"
      },
      "t_mapping(t_address,t_uint256)": {
        "encoding": "mapping",
        "key": "t_address",
        "label": "mapping(address => uint256)",
        "numberOfBytes": "32",
        "value": "t_uint256"
      },
      "t_mapping(t_bytes32,t_struct(RoleData)2105_storage)": {
        "encoding": "mapping",
        "key": "t_bytes32",
        "label": "mapping(bytes32 => struct AccessControlUpgradeable.RoleData)",
        "numberOfBytes": "32",
        "value": "t_struct(RoleData)2105_storage"
      },
      "t_mapping(t_uint256,t_uint256)": {
        "encoding": "mapping",
        "key": "t_uint256",
        "label": "mapping(uint256 => uint256)",
        "numberOfBytes": "32",
        "value": "t_uint256"
      },
      "t_struct(RoleData)2105_storage": {
        "encoding": "inplace",
        "label": "struct AccessControlUpgradeable.RoleData",
        "members": [
          {
            "astId": 2102,
            "contract": "contracts/paymasters/NFTOwnershipPaymaster.sol:NFTOwnershipPaymaster",
            "label": "members",
            "offset": 0,
            "slot": "0",
            "type": "t_mapping(t_address,t_bool)"
          },
          {
            "astId": 2104,
            "contract": "contracts/paymasters/NFTOwnershipPaymaster.sol:NFTOwnershipPaymaster",
            "label": "adminRole",
            "offset": 0,
            "slot": "1",
            "type": "t_bytes32"
          }
        ],
        "numberOfBytes": "64"
      },
      "t_uint256": {
        "encoding": "inplace",
        "label": "uint256",
        "numberOfBytes": "32"
      },
      "t_uint8": {
        "encoding": "inplace",
        "label": "uint8",
        "numberOfBytes": "1"
      }
    }
  }
}