{
  "address": "0x4397484C2Fb33fa02119A89CC4F7F6Cbd55FF01f",
  "abi": [
    {
      "inputs": [
        {
          "internalType": "uint64",
          "name": "_subscriptionId",
          "type": "uint64"
        },
        {
          "internalType": "address",
          "name": "_vrf",
          "type": "address"
        },
        {
          "internalType": "bytes32",
          "name": "_keyHash",
          "type": "bytes32"
        },
        {
          "internalType": "uint32",
          "name": "_callbackGasLimit",
          "type": "uint32"
        },
        {
          "internalType": "uint8",
          "name": "_epochPeriod",
          "type": "uint8"
        }
      ],
      "stateMutability": "nonpayable",
      "type": "constructor"
    },
    {
      "inputs": [
        {
          "internalType": "address",
          "name": "have",
          "type": "address"
        },
        {
          "internalType": "address",
          "name": "want",
          "type": "address"
        }
      ],
      "name": "OnlyCoordinatorCanFulfill",
      "type": "error"
    },
    {
      "anonymous": false,
      "inputs": [
        {
          "indexed": true,
          "internalType": "uint256",
          "name": "requestId",
          "type": "uint256"
        },
        {
          "indexed": true,
          "internalType": "uint256",
          "name": "randomNumber",
          "type": "uint256"
        }
      ],
      "name": "Fulfilled",
      "type": "event"
    },
    {
      "anonymous": false,
      "inputs": [
        {
          "indexed": true,
          "internalType": "uint256",
          "name": "requestId",
          "type": "uint256"
        }
      ],
      "name": "Requested",
      "type": "event"
    },
    {
      "anonymous": false,
      "inputs": [
        {
          "indexed": false,
          "internalType": "uint256",
          "name": "blockNumber",
          "type": "uint256"
        },
        {
          "indexed": false,
          "internalType": "uint256",
          "name": "value",
          "type": "uint256"
        }
      ],
      "name": "Update",
      "type": "event"
    },
    {
      "inputs": [],
      "name": "EPOCH_PERIOD",
      "outputs": [
        {
          "internalType": "uint8",
          "name": "",
          "type": "uint8"
        }
      ],
      "stateMutability": "view",
      "type": "function"
    },
    {
      "inputs": [
        {
          "internalType": "uint256",
          "name": "",
          "type": "uint256"
        }
      ],
      "name": "blockNumberToRequestId",
      "outputs": [
        {
          "internalType": "uint256",
          "name": "",
          "type": "uint256"
        }
      ],
      "stateMutability": "view",
      "type": "function"
    },
    {
      "inputs": [
        {
          "internalType": "uint256",
          "name": "blockNumber",
          "type": "uint256"
        }
      ],
      "name": "epochBlock",
      "outputs": [
        {
          "internalType": "uint256",
          "name": "",
          "type": "uint256"
        }
      ],
      "stateMutability": "view",
      "type": "function"
    },
    {
      "inputs": [],
      "name": "epochBlockLatest",
      "outputs": [
        {
          "internalType": "uint256",
          "name": "currEpochBlock",
          "type": "uint256"
        }
      ],
      "stateMutability": "view",
      "type": "function"
    },
    {
      "inputs": [
        {
          "internalType": "uint256",
          "name": "blockNumber",
          "type": "uint256"
        }
      ],
      "name": "getRandomness",
      "outputs": [
        {
          "internalType": "uint256",
          "name": "randomness",
          "type": "uint256"
        }
      ],
      "stateMutability": "view",
      "type": "function"
    },
    {
      "inputs": [
        {
          "internalType": "uint256",
          "name": "blockNumber",
          "type": "uint256"
        }
      ],
      "name": "getRequestId",
      "outputs": [
        {
          "internalType": "uint256",
          "name": "requestId",
          "type": "uint256"
        }
      ],
      "stateMutability": "view",
      "type": "function"
    },
    {
      "inputs": [
        {
          "internalType": "uint256",
          "name": "requestId",
          "type": "uint256"
        },
        {
          "internalType": "uint256[]",
          "name": "randomWords",
          "type": "uint256[]"
        }
      ],
      "name": "rawFulfillRandomWords",
      "outputs": [],
      "stateMutability": "nonpayable",
      "type": "function"
    },
    {
      "inputs": [
        {
          "internalType": "uint256",
          "name": "",
          "type": "uint256"
        }
      ],
      "name": "requestIdToRandomness",
      "outputs": [
        {
          "internalType": "uint256",
          "name": "",
          "type": "uint256"
        }
      ],
      "stateMutability": "view",
      "type": "function"
    },
    {
      "inputs": [],
      "name": "requestRandomness",
      "outputs": [
        {
          "internalType": "uint256",
          "name": "",
          "type": "uint256"
        },
        {
          "internalType": "uint256",
          "name": "",
          "type": "uint256"
        }
      ],
      "stateMutability": "nonpayable",
      "type": "function"
    }
  ],
  "transactionHash": "0x99c940ac6802f6fa534b7326fbf8b31de543e71cc9ec71498bc6a1b2d76d3377",
  "args": [
    8001,
    "0x6168499c0cFfCaCD319c818142124B7A15E857ab",
    "0xd89b2bf150e3b9e13446986e571fb9cab24b13cea0a43ea20a6049a85cc807cc",
    50000,
    10
  ],
  "numDeployments": 1,
  "solcInputHash": "28b4d2e2155903f56ed1fc988848ec0f",
  "bytecode": "0x60a06040526002805463ffffffff60601b19166c0100000000000000000000000017905534801561002f57600080fd5b5060405161088d38038061088d83398101604081905261004e91610156565b6001600160a01b0384166080526000805460ff191660ff8316908117909155606411801561007f575060038160ff16115b6100e35760405162461bcd60e51b815260206004820152602b60248201527f565246426561636f6e3a20696e76616c6964206e756d62657220666f72205f6560448201526a1c1bd8da081c195c9a5bd960aa1b606482015260840160405180910390fd5b600280546000805460019690965563ffffffff90941668010000000000000000026001600160601b03199091166001600160401b03909716969096179590951790945560ff90931660ff196001600160a01b0390931661010002929092166001600160a81b0319909116171790556101e8565b600080600080600060a0868803121561016e57600080fd5b85516001600160401b038116811461018557600080fd5b60208701519095506001600160a01b03811681146101a257600080fd5b60408701516060880151919550935063ffffffff811681146101c357600080fd5b608087015190925060ff811681146101da57600080fd5b809150509295509295909350565b60805161068361020a6000396000818161018801526101ca01526106836000f3fe608060405234801561001057600080fd5b50600436106100935760003560e01c8063733fa21911610066578063733fa219146100f95780638067c82314610119578063873a2bdd146101215780639c511ad414610141578063f8413b071461016057600080fd5b80631fe543e314610098578063453f4f62146100ad5780634b194cbb146100d357806368814af8146100e6575b600080fd5b6100ab6100a63660046104d4565b61017d565b005b6100c06100bb36600461059e565b610209565b6040519081526020015b60405180910390f35b6100c06100e136600461059e565b610249565b6100c06100f436600461059e565b610274565b6100c061010736600461059e565b60046020526000908152604090205481565b6100c06102a7565b6100c061012f36600461059e565b60036020526000908152604090205481565b60005461014e9060ff1681565b60405160ff90911681526020016100ca565b6101686102b7565b604080519283526020830191909152016100ca565b336001600160a01b037f000000000000000000000000000000000000000000000000000000000000000016146101fb5760405163073e64fd60e21b81523360048201526001600160a01b037f000000000000000000000000000000000000000000000000000000000000000016602482015260440160405180910390fd5b6102058282610440565b5050565b60008054819061021c9060ff16846105b7565b61022690846105ef565b600090815260036020908152604080832054835260049091529020549392505050565b6000805460ff1661025a81846105b7565b61026490846105ef565b61026e9190610606565b92915050565b6000805481906102879060ff16846105b7565b61029190846105ef565b6000908152600360205260409020549392505050565b60006102b243610249565b905090565b60008054819081906102cc9060ff16436105b7565b6102d690436105ef565b60008181526003602052604090205490915080156102f657939092509050565b600080546103079060ff16436105b7565b600054610317919060ff166105ef565b6000805460015460025493945091926101009091046001600160a01b031691635d3b1d309167ffffffffffffffff16600361ffff87161061036b5760c88661ffff1611610364578561036e565b60c861036e565b60035b60025460405160e086901b6001600160e01b0319168152600481019490945267ffffffffffffffff909216602484015261ffff16604483015268010000000000000000810463ffffffff9081166064840152600160601b90910416608482015260a401602060405180830381600087803b1580156103eb57600080fd5b505af11580156103ff573d6000803e3d6000fd5b505050506040513d601f19601f82011682018060405250810190610423919061061e565b600085815260036020526040902081905596939550929350505050565b8060008151811061045357610453610637565b602002602001015160046000848152602001908152602001600020819055508060008151811061048557610485610637565b6020026020010151827f03552feb4c9d8257f4955f6774479763e41183eebda15fc1c082baff4453859860405160405180910390a35050565b634e487b7160e01b600052604160045260246000fd5b600080604083850312156104e757600080fd5b8235915060208084013567ffffffffffffffff8082111561050757600080fd5b818601915086601f83011261051b57600080fd5b81358181111561052d5761052d6104be565b8060051b604051601f19603f83011681018181108582111715610552576105526104be565b60405291825284820192508381018501918983111561057057600080fd5b938501935b8285101561058e57843584529385019392850192610575565b8096505050505050509250929050565b6000602082840312156105b057600080fd5b5035919050565b6000826105d457634e487b7160e01b600052601260045260246000fd5b500690565b634e487b7160e01b600052601160045260246000fd5b600082821015610601576106016105d9565b500390565b60008219821115610619576106196105d9565b500190565b60006020828403121561063057600080fd5b5051919050565b634e487b7160e01b600052603260045260246000fdfea264697066735822122048f72dc7b115767557a565ad25581d5648561c2643afea1c8558ec1a0f512ada64736f6c63430008090033",
  "devdoc": {
    "details": "A contract that acts as a central beacon for fetching random numbers from Chainlink VRF. Multiple requests within an `EPOCH_PERIOD` (as defined by VRFBeacon deployer) will be coupled into one request to `VRFCoordiantorV2`. An `EPOCH_PERIOD` is simply a block range. Consumers of `VRFBeacon` will use the one random number as a seed to generate another random number for the contract's own use case.",
    "kind": "dev",
    "methods": {
      "constructor": {
        "details": "Constructor inherits VRFConsumerBase"
      },
      "epochBlock(uint256)": {
        "details": "Return when epoch expires. Eg. blockNumber=0-99, period=100 => 100"
      },
      "epochBlockLatest()": {
        "returns": {
          "currEpochBlock": "when current block expires"
        }
      },
      "getRandomness(uint256)": {
        "params": {
          "blockNumber": "in which request was made"
        },
        "returns": {
          "randomness": "if not fulfilled yet returns 0"
        }
      },
      "getRequestId(uint256)": {
        "params": {
          "blockNumber": "in which request was made"
        },
        "returns": {
          "requestId": "of the EPOCH_PERIOD that `blockNumber` is in"
        }
      },
      "requestRandomness()": {
        "details": "Requests randomness from a block hash"
      }
    },
    "version": 1
  },
  "userdoc": {
    "kind": "user",
    "methods": {},
    "version": 1
  },
  "storageLayout": {
    "storage": [
      {
        "astId": 24058,
        "contract": "contracts/random/VRFBeacon.sol:VRFBeacon",
        "label": "EPOCH_PERIOD",
        "offset": 0,
        "slot": "0",
        "type": "t_uint8"
      },
      {
        "astId": 24136,
        "contract": "contracts/random/VRFBeacon.sol:VRFBeacon",
        "label": "COORDINATOR",
        "offset": 1,
        "slot": "0",
        "type": "t_contract(VRFCoordinatorV2Interface)573"
      },
      {
        "astId": 24138,
        "contract": "contracts/random/VRFBeacon.sol:VRFBeacon",
        "label": "keyHash",
        "offset": 0,
        "slot": "1",
        "type": "t_bytes32"
      },
      {
        "astId": 24140,
        "contract": "contracts/random/VRFBeacon.sol:VRFBeacon",
        "label": "s_subscriptionId",
        "offset": 0,
        "slot": "2",
        "type": "t_uint64"
      },
      {
        "astId": 24142,
        "contract": "contracts/random/VRFBeacon.sol:VRFBeacon",
        "label": "callbackGasLimit",
        "offset": 8,
        "slot": "2",
        "type": "t_uint32"
      },
      {
        "astId": 24145,
        "contract": "contracts/random/VRFBeacon.sol:VRFBeacon",
        "label": "numWords",
        "offset": 12,
        "slot": "2",
        "type": "t_uint32"
      },
      {
        "astId": 24149,
        "contract": "contracts/random/VRFBeacon.sol:VRFBeacon",
        "label": "blockNumberToRequestId",
        "offset": 0,
        "slot": "3",
        "type": "t_mapping(t_uint256,t_uint256)"
      },
      {
        "astId": 24153,
        "contract": "contracts/random/VRFBeacon.sol:VRFBeacon",
        "label": "requestIdToRandomness",
        "offset": 0,
        "slot": "4",
        "type": "t_mapping(t_uint256,t_uint256)"
      }
    ],
    "types": {
      "t_bytes32": {
        "encoding": "inplace",
        "label": "bytes32",
        "numberOfBytes": "32"
      },
      "t_contract(VRFCoordinatorV2Interface)573": {
        "encoding": "inplace",
        "label": "contract VRFCoordinatorV2Interface",
        "numberOfBytes": "20"
      },
      "t_mapping(t_uint256,t_uint256)": {
        "encoding": "mapping",
        "key": "t_uint256",
        "label": "mapping(uint256 => uint256)",
        "numberOfBytes": "32",
        "value": "t_uint256"
      },
      "t_uint256": {
        "encoding": "inplace",
        "label": "uint256",
        "numberOfBytes": "32"
      },
      "t_uint32": {
        "encoding": "inplace",
        "label": "uint32",
        "numberOfBytes": "4"
      },
      "t_uint64": {
        "encoding": "inplace",
        "label": "uint64",
        "numberOfBytes": "8"
      },
      "t_uint8": {
        "encoding": "inplace",
        "label": "uint8",
        "numberOfBytes": "1"
      }
    }
  }
}