{
  "_format": "hh-sol-artifact-1",
  "contractName": "InterfaceIds",
  "sourceName": "contracts/Testing/InterfaceIds.sol",
  "abi": [
    {
      "inputs": [],
      "name": "minterAutoIdInterfaceId",
      "outputs": [
        {
          "internalType": "bytes4",
          "name": "",
          "type": "bytes4"
        }
      ],
      "stateMutability": "pure",
      "type": "function"
    },
    {
      "inputs": [],
      "name": "minterBreedingInterfaceId",
      "outputs": [
        {
          "internalType": "bytes4",
          "name": "",
          "type": "bytes4"
        }
      ],
      "stateMutability": "pure",
      "type": "function"
    },
    {
      "inputs": [],
      "name": "minterCoreInterfaceId",
      "outputs": [
        {
          "internalType": "bytes4",
          "name": "",
          "type": "bytes4"
        }
      ],
      "stateMutability": "pure",
      "type": "function"
    },
    {
      "inputs": [],
      "name": "minterRandomInterfaceId",
      "outputs": [
        {
          "internalType": "bytes4",
          "name": "",
          "type": "bytes4"
        }
      ],
      "stateMutability": "pure",
      "type": "function"
    },
    {
      "inputs": [],
      "name": "minterSimpleInterfaceId",
      "outputs": [
        {
          "internalType": "bytes4",
          "name": "",
          "type": "bytes4"
        }
      ],
      "stateMutability": "pure",
      "type": "function"
    }
  ],
  "bytecode": "0x608060405234801561001057600080fd5b50610246806100206000396000f3fe608060405234801561001057600080fd5b50600436106100575760003560e01c80630da8bb1f1461005c57806342959b7e1461007a5780635a427f53146100985780636dc9c11e146100b6578063b5707170146100d4575b600080fd5b6100646100f2565b60405161007191906101c9565b60405180910390f35b61008261011a565b60405161008f91906101c9565b60405180910390f35b6100a0610142565b6040516100ad91906101c9565b60405180910390f35b6100be61016a565b6040516100cb91906101c9565b60405180910390f35b6100dc610192565b6040516100e991906101c9565b60405180910390f35b60007ff5b8312700000000000000000000000000000000000000000000000000000000905090565b60007f9ec8dc4000000000000000000000000000000000000000000000000000000000905090565b60007f91b9498000000000000000000000000000000000000000000000000000000000905090565b60007f1f3a5ae100000000000000000000000000000000000000000000000000000000905090565b60007fdbe00cca00000000000000000000000000000000000000000000000000000000905090565b6101c3816101e4565b82525050565b60006020820190506101de60008301846101ba565b92915050565b60007fffffffff000000000000000000000000000000000000000000000000000000008216905091905056fea264697066735822122060d50f70ddb226ea5e154e21d82bf08812c663521c3deb5787133ce1eff771f364736f6c63430008040033",
  "linkReferences": {},
  "deployedLinkReferences": {}
}