{
  "_format": "hh-sol-artifact-1",
  "contractName": "MintGuardLimitedMints",
  "sourceName": "contracts/Minter/modules/MintGuard/builds/MintGuardLimitedMints.sol",
  "abi": [
    {
      "anonymous": false,
      "inputs": [
        {
          "indexed": false,
          "internalType": "address",
          "name": "minterContract",
          "type": "address"
        },
        {
          "indexed": false,
          "internalType": "uint256",
          "name": "speciesId",
          "type": "uint256"
        },
        {
          "indexed": false,
          "internalType": "address",
          "name": "user",
          "type": "address"
        },
        {
          "indexed": false,
          "internalType": "uint64",
          "name": "mintsAllowed",
          "type": "uint64"
        }
      ],
      "name": "SetAllowedMints",
      "type": "event"
    },
    {
      "inputs": [
        {
          "internalType": "uint256",
          "name": "speciesId",
          "type": "uint256"
        },
        {
          "internalType": "address",
          "name": "user",
          "type": "address"
        }
      ],
      "name": "allowMint",
      "outputs": [
        {
          "internalType": "bool",
          "name": "",
          "type": "bool"
        }
      ],
      "stateMutability": "nonpayable",
      "type": "function"
    },
    {
      "inputs": [
        {
          "internalType": "address",
          "name": "minterContract",
          "type": "address"
        },
        {
          "internalType": "uint256",
          "name": "speciesId",
          "type": "uint256"
        },
        {
          "internalType": "address",
          "name": "user",
          "type": "address"
        },
        {
          "internalType": "uint64",
          "name": "mintsAllowed",
          "type": "uint64"
        }
      ],
      "name": "setUserMints",
      "outputs": [],
      "stateMutability": "nonpayable",
      "type": "function"
    },
    {
      "inputs": [
        {
          "internalType": "bytes4",
          "name": "interfaceId",
          "type": "bytes4"
        }
      ],
      "name": "supportsInterface",
      "outputs": [
        {
          "internalType": "bool",
          "name": "",
          "type": "bool"
        }
      ],
      "stateMutability": "view",
      "type": "function"
    }
  ],
  "bytecode": "0x608060405234801561001057600080fd5b50610863806100206000396000f3fe608060405234801561001057600080fd5b50600436106100415760003560e01c806301ffc9a7146100465780631f22011b14610076578063a643fc9b146100a6575b600080fd5b610060600480360381019061005b9190610520565b6100c2565b60405161006d9190610660565b60405180910390f35b610090600480360381019061008b9190610549565b61012c565b60405161009d9190610660565b60405180910390f35b6100c060048036038101906100bb91906104bd565b61020f565b005b60007f01ffc9a7000000000000000000000000000000000000000000000000000000007bffffffffffffffffffffffffffffffffffffffffffffffffffffffff1916827bffffffffffffffffffffffffffffffffffffffffffffffffffffffff1916149050919050565b600080338484604051602001610144939291906105e4565b604051602081830303815290604052805190602001209050600080600083815260200190815260200160002060009054906101000a900467ffffffffffffffff16905060008167ffffffffffffffff16111561020257600080838152602001908152602001600020600081819054906101000a900467ffffffffffffffff16809291906101d09061074f565b91906101000a81548167ffffffffffffffff021916908367ffffffffffffffff16021790555050600192505050610209565b6000925050505b92915050565b838360008273ffffffffffffffffffffffffffffffffffffffff16632be6a2a9836040518263ffffffff1660e01b815260040161024c919061069b565b60a06040518083038186803b15801561026457600080fd5b505afa158015610278573d6000803e3d6000fd5b505050506040513d601f19601f8201168201806040525081019061029c9190610446565b9091929350909150905050809150503373ffffffffffffffffffffffffffffffffffffffff168173ffffffffffffffffffffffffffffffffffffffff1614610319576040517f08c379a00000000000000000000000000000000000000000000000000000000081526004016103109061067b565b60405180910390fd5b6000878787604051602001610330939291906105e4565b6040516020818303038152906040528051906020012090508460008083815260200190815260200160002060006101000a81548167ffffffffffffffff021916908367ffffffffffffffff1602179055507f7f0ccb3683082d637581589eeae68287ccd770094d6080c6db0c78327f8ca983888888886040516103b6949392919061061b565b60405180910390a15050505050505050565b6000813590506103d7816107d1565b92915050565b6000815190506103ec816107d1565b92915050565b600081359050610401816107e8565b92915050565b600081359050610416816107ff565b92915050565b60008151905061042b816107ff565b92915050565b60008135905061044081610816565b92915050565b600080600080600060a0868803121561045e57600080fd5b600061046c888289016103dd565b955050602061047d888289016103dd565b945050604061048e888289016103dd565b935050606061049f8882890161041c565b92505060806104b0888289016103dd565b9150509295509295909350565b600080600080608085870312156104d357600080fd5b60006104e1878288016103c8565b94505060206104f287828801610407565b9350506040610503878288016103c8565b925050606061051487828801610431565b91505092959194509250565b60006020828403121561053257600080fd5b6000610540848285016103f2565b91505092915050565b6000806040838503121561055c57600080fd5b600061056a85828601610407565b925050602061057b858286016103c8565b9150509250929050565b61058e816106c7565b82525050565b61059d816106d9565b82525050565b60006105b0600e836106b6565b91506105bb826107a8565b602082019050919050565b6105cf81610731565b82525050565b6105de8161073b565b82525050565b60006060820190506105f96000830186610585565b61060660208301856105c6565b6106136040830184610585565b949350505050565b60006080820190506106306000830187610585565b61063d60208301866105c6565b61064a6040830185610585565b61065760608301846105d5565b95945050505050565b60006020820190506106756000830184610594565b92915050565b60006020820190508181036000830152610694816105a3565b9050919050565b60006020820190506106b060008301846105c6565b92915050565b600082825260208201905092915050565b60006106d282610711565b9050919050565b60008115159050919050565b60007fffffffff0000000000000000000000000000000000000000000000000000000082169050919050565b600073ffffffffffffffffffffffffffffffffffffffff82169050919050565b6000819050919050565b600067ffffffffffffffff82169050919050565b600061075a8261073b565b9150600082141561076e5761076d610779565b5b600182039050919050565b7f4e487b7100000000000000000000000000000000000000000000000000000000600052601160045260246000fd5b7f4e6f7420746865206f776e657221000000000000000000000000000000000000600082015250565b6107da816106c7565b81146107e557600080fd5b50565b6107f1816106e5565b81146107fc57600080fd5b50565b61080881610731565b811461081357600080fd5b50565b61081f8161073b565b811461082a57600080fd5b5056fea2646970667358221220038e95c7a2450ee5ecb6b0a323b561829bea108f499d3a3ed0462ae47af6599a64736f6c63430008040033",
  "linkReferences": {},
  "deployedLinkReferences": {}
}