{
  "_format": "hh-sol-artifact-1",
  "contractName": "OZClonesFactory",
  "sourceName": "contracts/Utils/OZCloneFactory.sol",
  "abi": [
    {
      "anonymous": false,
      "inputs": [
        {
          "indexed": false,
          "internalType": "address",
          "name": "instance",
          "type": "address"
        },
        {
          "indexed": false,
          "internalType": "address",
          "name": "implementation",
          "type": "address"
        },
        {
          "indexed": false,
          "internalType": "bytes32",
          "name": "salt",
          "type": "bytes32"
        }
      ],
      "name": "NewClone",
      "type": "event"
    },
    {
      "inputs": [
        {
          "internalType": "address",
          "name": "implementation",
          "type": "address"
        },
        {
          "internalType": "bytes",
          "name": "data",
          "type": "bytes"
        }
      ],
      "name": "clone",
      "outputs": [
        {
          "internalType": "address",
          "name": "instance",
          "type": "address"
        }
      ],
      "stateMutability": "nonpayable",
      "type": "function"
    },
    {
      "inputs": [
        {
          "internalType": "address",
          "name": "implementation",
          "type": "address"
        },
        {
          "internalType": "bytes32",
          "name": "salt",
          "type": "bytes32"
        },
        {
          "internalType": "bytes",
          "name": "data",
          "type": "bytes"
        }
      ],
      "name": "cloneDeterministic",
      "outputs": [
        {
          "internalType": "address",
          "name": "instance",
          "type": "address"
        }
      ],
      "stateMutability": "nonpayable",
      "type": "function"
    },
    {
      "inputs": [
        {
          "internalType": "address",
          "name": "implementation",
          "type": "address"
        },
        {
          "internalType": "bytes32",
          "name": "salt",
          "type": "bytes32"
        }
      ],
      "name": "predictDeterministicAddress",
      "outputs": [
        {
          "internalType": "address",
          "name": "predicted",
          "type": "address"
        }
      ],
      "stateMutability": "view",
      "type": "function"
    }
  ],
  "bytecode": "0x608060405234801561001057600080fd5b50610a23806100206000396000f3fe608060405234801561001057600080fd5b50600436106100415760003560e01c80630fbe133c14610046578063360d0fad146100765780636e9ebc81146100a6575b600080fd5b610060600480360381019061005b91906105dd565b6100d6565b60405161006d9190610700565b60405180910390f35b610090600480360381019061008b919061053a565b61013c565b60405161009d9190610700565b60405180910390f35b6100c060048036038101906100bb9190610576565b610150565b6040516100cd9190610700565b60405180910390f35b60006100e1836101b5565b90506000825111156100f8576100f7818361028a565b5b7fa8bf987e8fd20c4aae6fff1ca892ea748b539cf0164aefab56c83340007485df81846000801b60405161012e9392919061071b565b60405180910390a192915050565b6000610148838361033c565b905092915050565b600061015c8484610351565b905060008251111561017357610172818361028a565b5b7fa8bf987e8fd20c4aae6fff1ca892ea748b539cf0164aefab56c83340007485df8185856040516101a69392919061071b565b60405180910390a19392505050565b60006040517f3d602d80600a3d3981f3363d3d373d3d3d363d7300000000000000000000000081528260601b60148201527f5af43d82803e903d91602b57fd5bf3000000000000000000000000000000000060288201526037816000f0915050600073ffffffffffffffffffffffffffffffffffffffff168173ffffffffffffffffffffffffffffffffffffffff161415610285576040517f08c379a000000000000000000000000000000000000000000000000000000000815260040161027c90610792565b60405180910390fd5b919050565b60008273ffffffffffffffffffffffffffffffffffffffff16826040516102b191906106e9565b6000604051808303816000865af19150503d80600081146102ee576040519150601f19603f3d011682016040523d82523d6000602084013e6102f3565b606091505b5050905080610337576040517f08c379a000000000000000000000000000000000000000000000000000000000815260040161032e90610752565b60405180910390fd5b505050565b6000610349838330610428565b905092915050565b60006040517f3d602d80600a3d3981f3363d3d373d3d3d363d7300000000000000000000000081528360601b60148201527f5af43d82803e903d91602b57fd5bf300000000000000000000000000000000006028820152826037826000f5915050600073ffffffffffffffffffffffffffffffffffffffff168173ffffffffffffffffffffffffffffffffffffffff161415610422576040517f08c379a000000000000000000000000000000000000000000000000000000000815260040161041990610772565b60405180910390fd5b92915050565b60006040517f3d602d80600a3d3981f3363d3d373d3d3d363d7300000000000000000000000081528460601b60148201527f5af43d82803e903d91602b57fd5bf3ff0000000000000000000000000000000060288201528260601b603882015283604c82015260378120606c820152605560378201209150509392505050565b60006104bb6104b6846107d7565b6107b2565b9050828152602081018484840111156104d357600080fd5b6104de84828561086b565b509392505050565b6000813590506104f5816109bf565b92915050565b60008135905061050a816109d6565b92915050565b600082601f83011261052157600080fd5b81356105318482602086016104a8565b91505092915050565b6000806040838503121561054d57600080fd5b600061055b858286016104e6565b925050602061056c858286016104fb565b9150509250929050565b60008060006060848603121561058b57600080fd5b6000610599868287016104e6565b93505060206105aa868287016104fb565b925050604084013567ffffffffffffffff8111156105c757600080fd5b6105d386828701610510565b9150509250925092565b600080604083850312156105f057600080fd5b60006105fe858286016104e6565b925050602083013567ffffffffffffffff81111561061b57600080fd5b61062785828601610510565b9150509250929050565b61063a8161082f565b82525050565b61064981610841565b82525050565b600061065a82610808565b6106648185610813565b935061067481856020860161087a565b80840191505092915050565b600061068d602d8361081e565b91506106988261091e565b604082019050919050565b60006106b060178361081e565b91506106bb8261096d565b602082019050919050565b60006106d360168361081e565b91506106de82610996565b602082019050919050565b60006106f5828461064f565b915081905092915050565b60006020820190506107156000830184610631565b92915050565b60006060820190506107306000830186610631565b61073d6020830185610631565b61074a6040830184610640565b949350505050565b6000602082019050818103600083015261076b81610680565b9050919050565b6000602082019050818103600083015261078b816106a3565b9050919050565b600060208201905081810360008301526107ab816106c6565b9050919050565b60006107bc6107cd565b90506107c882826108ad565b919050565b6000604051905090565b600067ffffffffffffffff8211156107f2576107f16108de565b5b6107fb8261090d565b9050602081019050919050565b600081519050919050565b600081905092915050565b600082825260208201905092915050565b600061083a8261084b565b9050919050565b6000819050919050565b600073ffffffffffffffffffffffffffffffffffffffff82169050919050565b82818337600083830152505050565b60005b8381101561089857808201518184015260208101905061087d565b838111156108a7576000848401525b50505050565b6108b68261090d565b810181811067ffffffffffffffff821117156108d5576108d46108de565b5b80604052505050565b7f4e487b7100000000000000000000000000000000000000000000000000000000600052604160045260246000fd5b6000601f19601f8301169050919050565b7f43726561746532436c6f6e65466163746f72793a204661696c656420746f206360008201527f616c6c207468652070726f787900000000000000000000000000000000000000602082015250565b7f455243313136373a2063726561746532206661696c6564000000000000000000600082015250565b7f455243313136373a20637265617465206661696c656400000000000000000000600082015250565b6109c88161082f565b81146109d357600080fd5b50565b6109df81610841565b81146109ea57600080fd5b5056fea2646970667358221220d2d8c81332711a732b8f68e387f0a23a50aab7796d93e4b75f1d333532a30daa64736f6c63430008040033",
  "linkReferences": {},
  "deployedLinkReferences": {}
}