{
  "address": "0x37B6fcd5a2715590dB7F77Fe58a9ba578BE31198",
  "abi": [
    {
      "inputs": [],
      "stateMutability": "payable",
      "type": "constructor"
    },
    {
      "anonymous": false,
      "inputs": [
        {
          "indexed": false,
          "internalType": "address",
          "name": "previousAdmin",
          "type": "address"
        },
        {
          "indexed": false,
          "internalType": "address",
          "name": "newAdmin",
          "type": "address"
        }
      ],
      "name": "AdminChanged",
      "type": "event"
    },
    {
      "anonymous": false,
      "inputs": [
        {
          "indexed": true,
          "internalType": "address",
          "name": "beacon",
          "type": "address"
        }
      ],
      "name": "BeaconUpgraded",
      "type": "event"
    },
    {
      "anonymous": false,
      "inputs": [
        {
          "indexed": false,
          "internalType": "uint8",
          "name": "version",
          "type": "uint8"
        }
      ],
      "name": "Initialized",
      "type": "event"
    },
    {
      "anonymous": false,
      "inputs": [
        {
          "indexed": true,
          "internalType": "address",
          "name": "previousOwner",
          "type": "address"
        },
        {
          "indexed": true,
          "internalType": "address",
          "name": "newOwner",
          "type": "address"
        }
      ],
      "name": "OwnershipTransferred",
      "type": "event"
    },
    {
      "anonymous": false,
      "inputs": [
        {
          "indexed": true,
          "internalType": "address",
          "name": "implementation",
          "type": "address"
        }
      ],
      "name": "Upgraded",
      "type": "event"
    },
    {
      "stateMutability": "payable",
      "type": "fallback"
    },
    {
      "inputs": [
        {
          "internalType": "address",
          "name": "_admin",
          "type": "address"
        },
        {
          "internalType": "address",
          "name": "beacon",
          "type": "address"
        },
        {
          "internalType": "bytes",
          "name": "data",
          "type": "bytes"
        }
      ],
      "name": "initialize",
      "outputs": [],
      "stateMutability": "payable",
      "type": "function"
    },
    {
      "inputs": [],
      "name": "owner",
      "outputs": [
        {
          "internalType": "address",
          "name": "",
          "type": "address"
        }
      ],
      "stateMutability": "view",
      "type": "function"
    },
    {
      "inputs": [],
      "name": "renounceOwnership",
      "outputs": [],
      "stateMutability": "nonpayable",
      "type": "function"
    },
    {
      "inputs": [
        {
          "internalType": "address",
          "name": "beacon",
          "type": "address"
        },
        {
          "internalType": "bytes",
          "name": "data",
          "type": "bytes"
        }
      ],
      "name": "setBeacon",
      "outputs": [],
      "stateMutability": "nonpayable",
      "type": "function"
    },
    {
      "inputs": [
        {
          "internalType": "address",
          "name": "newOwner",
          "type": "address"
        }
      ],
      "name": "transferOwnership",
      "outputs": [],
      "stateMutability": "nonpayable",
      "type": "function"
    },
    {
      "stateMutability": "payable",
      "type": "receive"
    }
  ],
  "transactionHash": "0x85ce014143143aa4e8c274dcc9011a9bbd51a46395be67233cc84cb638126d91",
  "args": [],
  "numDeployments": 1,
  "solcInputHash": "2d4e71ad5a30e357ffb69c5f11fb36ca",
  "bytecode": "0x608060405261000c610011565b610135565b61001b60ff61001e565b50565b60008054610100900460ff16156100b0578160ff16600114801561005257506100503061012660201b6103011760201c565b155b6100a85760405162461bcd60e51b815260206004820152602e6024820152600080516020610d7983398151915260448201526d191e481a5b9a5d1a585b1a5e995960921b60648201526084015b60405180910390fd5b506000919050565b60005460ff80841691161061010c5760405162461bcd60e51b815260206004820152602e6024820152600080516020610d7983398151915260448201526d191e481a5b9a5d1a585b1a5e995960921b606482015260840161009f565b506000805460ff191660ff92909216919091179055600190565b6001600160a01b03163b151590565b610c35806101446000396000f3fe60806040526004361061004e5760003560e01c8063099af0e914610065578063715018a6146100855780638da5cb5b1461009a578063cf7a1d77146100c6578063f2fde38b146100d95761005d565b3661005d5761005b6100f9565b005b61005b6100f9565b34801561007157600080fd5b5061005b610080366004610968565b61010b565b34801561009157600080fd5b5061005b61014c565b3480156100a657600080fd5b50603354604080516001600160a01b039092168252519081900360200190f35b61005b6100d43660046109b8565b610180565b3480156100e557600080fd5b5061005b6100f4366004610a1a565b610266565b610109610104610310565b6103b8565b565b6033546001600160a01b0316331461013e5760405162461bcd60e51b815260040161013590610a37565b60405180910390fd5b61014882826103e1565b5050565b6033546001600160a01b031633146101765760405162461bcd60e51b815260040161013590610a37565b61010960006103ed565b600061018c600161043f565b905080156101a4576000805461ff0019166101001790555b6101cf60017fa3f0ad74e5423aebfd80d3ef4346578335a9a72aeaee59ff6cb3582b35133d51610a6c565b7fa3f0ad74e5423aebfd80d3ef4346578335a9a72aeaee59ff6cb3582b35133d50146101fd576101fd610a91565b610209838360006104c7565b610211610590565b61021a846103ed565b8015610260576000805461ff0019169055604051600181527f7f26b83ff96e1f2b6a682f133852f6798a09c465da95921460cefb38474024989060200160405180910390a15b50505050565b6033546001600160a01b031633146102905760405162461bcd60e51b815260040161013590610a37565b6001600160a01b0381166102f55760405162461bcd60e51b815260206004820152602660248201527f4f776e61626c653a206e6577206f776e657220697320746865207a65726f206160448201526564647265737360d01b6064820152608401610135565b6102fe816103ed565b50565b6001600160a01b03163b151590565b60006103437fa3f0ad74e5423aebfd80d3ef4346578335a9a72aeaee59ff6cb3582b35133d50546001600160a01b031690565b6001600160a01b0316635c60da1b6040518163ffffffff1660e01b815260040160206040518083038186803b15801561037b57600080fd5b505afa15801561038f573d6000803e3d6000fd5b505050506040513d601f19601f820116820180604052508101906103b39190610aa7565b905090565b3660008037600080366000845af43d6000803e8080156103d7573d6000f35b3d6000fd5b505050565b610148828260006104c7565b603380546001600160a01b038381166001600160a01b0319831681179093556040519116919082907f8be0079c531659141344cd1fd0a4f28419497f9722a3daafe3b4186f6b6457e090600090a35050565b60008054610100900460ff1615610486578160ff1660011480156104625750303b155b61047e5760405162461bcd60e51b815260040161013590610ac4565b506000919050565b60005460ff8084169116106104ad5760405162461bcd60e51b815260040161013590610ac4565b506000805460ff191660ff92909216919091179055600190565b6104d0836105bf565b6040516001600160a01b038416907f1cf3b03a6cf19fa2baba4df148e9dcabedea7f8a5c07840e207e5c089be95d3e90600090a26000825111806105115750805b156103dc57610260836001600160a01b0316635c60da1b6040518163ffffffff1660e01b815260040160206040518083038186803b15801561055257600080fd5b505afa158015610566573d6000803e3d6000fd5b505050506040513d601f19601f8201168201806040525081019061058a9190610aa7565b8361073e565b600054610100900460ff166105b75760405162461bcd60e51b815260040161013590610b12565b61010961076a565b6001600160a01b0381163b6106245760405162461bcd60e51b815260206004820152602560248201527f455243313936373a206e657720626561636f6e206973206e6f74206120636f6e6044820152641d1c9858dd60da1b6064820152608401610135565b610698816001600160a01b0316635c60da1b6040518163ffffffff1660e01b815260040160206040518083038186803b15801561066057600080fd5b505afa158015610674573d6000803e3d6000fd5b505050506040513d601f19601f820116820180604052508101906103019190610aa7565b6106fd5760405162461bcd60e51b815260206004820152603060248201527f455243313936373a20626561636f6e20696d706c656d656e746174696f6e206960448201526f1cc81b9bdd08184818dbdb9d1c9858dd60821b6064820152608401610135565b7fa3f0ad74e5423aebfd80d3ef4346578335a9a72aeaee59ff6cb3582b35133d5080546001600160a01b0319166001600160a01b0392909216919091179055565b60606107638383604051806060016040528060278152602001610bd96027913961079a565b9392505050565b600054610100900460ff166107915760405162461bcd60e51b815260040161013590610b12565b610109336103ed565b60606001600160a01b0384163b6108025760405162461bcd60e51b815260206004820152602660248201527f416464726573733a2064656c65676174652063616c6c20746f206e6f6e2d636f6044820152651b9d1c9858dd60d21b6064820152608401610135565b600080856001600160a01b03168560405161081d9190610b89565b600060405180830381855af49150503d8060008114610858576040519150601f19603f3d011682016040523d82523d6000602084013e61085d565b606091505b509150915061086d828286610877565b9695505050505050565b60608315610886575081610763565b8251156108965782518084602001fd5b8160405162461bcd60e51b81526004016101359190610ba5565b6001600160a01b03811681146102fe57600080fd5b634e487b7160e01b600052604160045260246000fd5b600082601f8301126108ec57600080fd5b813567ffffffffffffffff80821115610907576109076108c5565b604051601f8301601f19908116603f0116810190828211818310171561092f5761092f6108c5565b8160405283815286602085880101111561094857600080fd5b836020870160208301376000602085830101528094505050505092915050565b6000806040838503121561097b57600080fd5b8235610986816108b0565b9150602083013567ffffffffffffffff8111156109a257600080fd5b6109ae858286016108db565b9150509250929050565b6000806000606084860312156109cd57600080fd5b83356109d8816108b0565b925060208401356109e8816108b0565b9150604084013567ffffffffffffffff811115610a0457600080fd5b610a10868287016108db565b9150509250925092565b600060208284031215610a2c57600080fd5b8135610763816108b0565b6020808252818101527f4f776e61626c653a2063616c6c6572206973206e6f7420746865206f776e6572604082015260600190565b600082821015610a8c57634e487b7160e01b600052601160045260246000fd5b500390565b634e487b7160e01b600052600160045260246000fd5b600060208284031215610ab957600080fd5b8151610763816108b0565b6020808252602e908201527f496e697469616c697a61626c653a20636f6e747261637420697320616c72656160408201526d191e481a5b9a5d1a585b1a5e995960921b606082015260800190565b6020808252602b908201527f496e697469616c697a61626c653a20636f6e7472616374206973206e6f74206960408201526a6e697469616c697a696e6760a81b606082015260800190565b60005b83811015610b78578181015183820152602001610b60565b838111156102605750506000910152565b60008251610b9b818460208701610b5d565b9190910192915050565b6020815260008251806020840152610bc4816040850160208701610b5d565b601f01601f1916919091016040019291505056fe416464726573733a206c6f772d6c6576656c2064656c65676174652063616c6c206661696c6564a2646970667358221220a8f29e1d0cb941fb9eade6ff20a0bc28172f1c38a3997fe0fac7aae85e44f40c64736f6c63430008090033496e697469616c697a61626c653a20636f6e747261637420697320616c726561",
  "devdoc": {
    "details": "This contract implements a proxy that gets the implementation address for each call from an {UpgradeableBeacon}. The beacon address is stored in storage slot `uint256(keccak256('eip1967.proxy.beacon')) - 1`, so that it doesn't conflict with the storage layout of the implementation behind the proxy. _Available since v3.4._",
    "kind": "dev",
    "methods": {
      "constructor": {
        "details": "Initializes the proxy with `beacon`. If `data` is nonempty, it's used as data in a delegate call to the implementation returned by the beacon. This will typically be an encoded function call, and allows initializing the storage of the proxy like a Solidity constructor. Requirements: - `beacon` must be a contract with the interface {IBeacon}."
      },
      "owner()": {
        "details": "Returns the address of the current owner."
      },
      "renounceOwnership()": {
        "details": "Leaves the contract without owner. It will not be possible to call `onlyOwner` functions anymore. Can only be called by the current owner. NOTE: Renouncing ownership will leave the contract without an owner, thereby removing any functionality that is only available to the owner."
      },
      "transferOwnership(address)": {
        "details": "Transfers ownership of the contract to a new account (`newOwner`). Can only be called by the current owner."
      }
    },
    "version": 1
  },
  "userdoc": {
    "kind": "user",
    "methods": {},
    "version": 1
  },
  "storageLayout": {
    "storage": [
      {
        "astId": 1012,
        "contract": "contracts/proxy/Beacon/BeaconProxyInitializable.sol:BeaconProxyInitializable",
        "label": "_initialized",
        "offset": 0,
        "slot": "0",
        "type": "t_uint8"
      },
      {
        "astId": 1015,
        "contract": "contracts/proxy/Beacon/BeaconProxyInitializable.sol:BeaconProxyInitializable",
        "label": "_initializing",
        "offset": 1,
        "slot": "0",
        "type": "t_bool"
      },
      {
        "astId": 5355,
        "contract": "contracts/proxy/Beacon/BeaconProxyInitializable.sol:BeaconProxyInitializable",
        "label": "__gap",
        "offset": 0,
        "slot": "1",
        "type": "t_array(t_uint256)50_storage"
      },
      {
        "astId": 423,
        "contract": "contracts/proxy/Beacon/BeaconProxyInitializable.sol:BeaconProxyInitializable",
        "label": "_owner",
        "offset": 0,
        "slot": "51",
        "type": "t_address"
      },
      {
        "astId": 535,
        "contract": "contracts/proxy/Beacon/BeaconProxyInitializable.sol:BeaconProxyInitializable",
        "label": "__gap",
        "offset": 0,
        "slot": "52",
        "type": "t_array(t_uint256)49_storage"
      }
    ],
    "types": {
      "t_address": {
        "encoding": "inplace",
        "label": "address",
        "numberOfBytes": "20"
      },
      "t_array(t_uint256)49_storage": {
        "base": "t_uint256",
        "encoding": "inplace",
        "label": "uint256[49]",
        "numberOfBytes": "1568"
      },
      "t_array(t_uint256)50_storage": {
        "base": "t_uint256",
        "encoding": "inplace",
        "label": "uint256[50]",
        "numberOfBytes": "1600"
      },
      "t_bool": {
        "encoding": "inplace",
        "label": "bool",
        "numberOfBytes": "1"
      },
      "t_uint256": {
        "encoding": "inplace",
        "label": "uint256",
        "numberOfBytes": "32"
      },
      "t_uint8": {
        "encoding": "inplace",
        "label": "uint8",
        "numberOfBytes": "1"
      }
    }
  }
}