{
  "address": "0x9375400526B841C045BF40C799ABB8e6fAcA4148",
  "abi": [
    {
      "inputs": [],
      "stateMutability": "nonpayable",
      "type": "constructor"
    },
    {
      "anonymous": false,
      "inputs": [
        {
          "indexed": false,
          "internalType": "address",
          "name": "previousAdmin",
          "type": "address"
        },
        {
          "indexed": false,
          "internalType": "address",
          "name": "newAdmin",
          "type": "address"
        }
      ],
      "name": "AdminChanged",
      "type": "event"
    },
    {
      "anonymous": false,
      "inputs": [
        {
          "indexed": true,
          "internalType": "address",
          "name": "beacon",
          "type": "address"
        }
      ],
      "name": "BeaconUpgraded",
      "type": "event"
    },
    {
      "anonymous": false,
      "inputs": [
        {
          "indexed": true,
          "internalType": "address",
          "name": "creator",
          "type": "address"
        },
        {
          "components": [
            {
              "internalType": "enum CraftLib.TokenType",
              "name": "token",
              "type": "uint8"
            },
            {
              "internalType": "enum CraftLib.ConsumableType",
              "name": "consumableType",
              "type": "uint8"
            },
            {
              "internalType": "address",
              "name": "contractAddr",
              "type": "address"
            },
            {
              "internalType": "uint256[]",
              "name": "amounts",
              "type": "uint256[]"
            },
            {
              "internalType": "uint256[]",
              "name": "tokenIds",
              "type": "uint256[]"
            }
          ],
          "indexed": false,
          "internalType": "struct CraftLib.Ingredient[]",
          "name": "inputs",
          "type": "tuple[]"
        },
        {
          "components": [
            {
              "internalType": "enum CraftLib.TokenType",
              "name": "token",
              "type": "uint8"
            },
            {
              "internalType": "enum CraftLib.ConsumableType",
              "name": "consumableType",
              "type": "uint8"
            },
            {
              "internalType": "address",
              "name": "contractAddr",
              "type": "address"
            },
            {
              "internalType": "uint256[]",
              "name": "amounts",
              "type": "uint256[]"
            },
            {
              "internalType": "uint256[]",
              "name": "tokenIds",
              "type": "uint256[]"
            }
          ],
          "indexed": false,
          "internalType": "struct CraftLib.Ingredient[]",
          "name": "outputs",
          "type": "tuple[]"
        }
      ],
      "name": "CreateRecipe",
      "type": "event"
    },
    {
      "anonymous": false,
      "inputs": [
        {
          "indexed": false,
          "internalType": "uint8",
          "name": "version",
          "type": "uint8"
        }
      ],
      "name": "Initialized",
      "type": "event"
    },
    {
      "anonymous": false,
      "inputs": [
        {
          "indexed": true,
          "internalType": "address",
          "name": "previousOwner",
          "type": "address"
        },
        {
          "indexed": true,
          "internalType": "address",
          "name": "newOwner",
          "type": "address"
        }
      ],
      "name": "OwnershipTransferred",
      "type": "event"
    },
    {
      "anonymous": false,
      "inputs": [
        {
          "indexed": false,
          "internalType": "uint256",
          "name": "craftedAmount",
          "type": "uint256"
        },
        {
          "indexed": false,
          "internalType": "uint256",
          "name": "craftableAmount",
          "type": "uint256"
        },
        {
          "indexed": true,
          "internalType": "address",
          "name": "user",
          "type": "address"
        }
      ],
      "name": "RecipeCraft",
      "type": "event"
    },
    {
      "anonymous": false,
      "inputs": [
        {
          "indexed": false,
          "internalType": "uint256",
          "name": "craftableAmount",
          "type": "uint256"
        }
      ],
      "name": "RecipeUpdate",
      "type": "event"
    },
    {
      "anonymous": false,
      "inputs": [
        {
          "indexed": true,
          "internalType": "address",
          "name": "implementation",
          "type": "address"
        }
      ],
      "name": "Upgraded",
      "type": "event"
    },
    {
      "inputs": [],
      "name": "burnAddress",
      "outputs": [
        {
          "internalType": "address",
          "name": "",
          "type": "address"
        }
      ],
      "stateMutability": "view",
      "type": "function"
    },
    {
      "inputs": [
        {
          "internalType": "uint96",
          "name": "craftAmount",
          "type": "uint96"
        },
        {
          "internalType": "uint256[][]",
          "name": "_inputERC721Ids",
          "type": "uint256[][]"
        }
      ],
      "name": "craft",
      "outputs": [],
      "stateMutability": "nonpayable",
      "type": "function"
    },
    {
      "inputs": [],
      "name": "craftableAmount",
      "outputs": [
        {
          "internalType": "uint96",
          "name": "",
          "type": "uint96"
        }
      ],
      "stateMutability": "view",
      "type": "function"
    },
    {
      "inputs": [
        {
          "internalType": "uint96",
          "name": "depositAmount",
          "type": "uint96"
        },
        {
          "internalType": "uint256[][]",
          "name": "_outputsERC721Ids",
          "type": "uint256[][]"
        }
      ],
      "name": "deposit",
      "outputs": [],
      "stateMutability": "nonpayable",
      "type": "function"
    },
    {
      "inputs": [],
      "name": "getImplementation",
      "outputs": [
        {
          "internalType": "address",
          "name": "",
          "type": "address"
        }
      ],
      "stateMutability": "view",
      "type": "function"
    },
    {
      "inputs": [
        {
          "internalType": "uint256",
          "name": "index",
          "type": "uint256"
        }
      ],
      "name": "getInputIngredient",
      "outputs": [
        {
          "internalType": "enum CraftLib.TokenType",
          "name": "token",
          "type": "uint8"
        },
        {
          "internalType": "enum CraftLib.ConsumableType",
          "name": "consumableType",
          "type": "uint8"
        },
        {
          "internalType": "address",
          "name": "contractAddr",
          "type": "address"
        },
        {
          "internalType": "uint256[]",
          "name": "amounts",
          "type": "uint256[]"
        },
        {
          "internalType": "uint256[]",
          "name": "tokenIds",
          "type": "uint256[]"
        }
      ],
      "stateMutability": "view",
      "type": "function"
    },
    {
      "inputs": [],
      "name": "getInputs",
      "outputs": [
        {
          "components": [
            {
              "internalType": "enum CraftLib.TokenType",
              "name": "token",
              "type": "uint8"
            },
            {
              "internalType": "enum CraftLib.ConsumableType",
              "name": "consumableType",
              "type": "uint8"
            },
            {
              "internalType": "address",
              "name": "contractAddr",
              "type": "address"
            },
            {
              "internalType": "uint256[]",
              "name": "amounts",
              "type": "uint256[]"
            },
            {
              "internalType": "uint256[]",
              "name": "tokenIds",
              "type": "uint256[]"
            }
          ],
          "internalType": "struct CraftLib.Ingredient[]",
          "name": "_inputs",
          "type": "tuple[]"
        }
      ],
      "stateMutability": "view",
      "type": "function"
    },
    {
      "inputs": [
        {
          "internalType": "uint256",
          "name": "index",
          "type": "uint256"
        }
      ],
      "name": "getOutputIngredient",
      "outputs": [
        {
          "internalType": "enum CraftLib.TokenType",
          "name": "token",
          "type": "uint8"
        },
        {
          "internalType": "enum CraftLib.ConsumableType",
          "name": "consumableType",
          "type": "uint8"
        },
        {
          "internalType": "address",
          "name": "contractAddr",
          "type": "address"
        },
        {
          "internalType": "uint256[]",
          "name": "amounts",
          "type": "uint256[]"
        },
        {
          "internalType": "uint256[]",
          "name": "tokenIds",
          "type": "uint256[]"
        }
      ],
      "stateMutability": "view",
      "type": "function"
    },
    {
      "inputs": [],
      "name": "getOutputs",
      "outputs": [
        {
          "components": [
            {
              "internalType": "enum CraftLib.TokenType",
              "name": "token",
              "type": "uint8"
            },
            {
              "internalType": "enum CraftLib.ConsumableType",
              "name": "consumableType",
              "type": "uint8"
            },
            {
              "internalType": "address",
              "name": "contractAddr",
              "type": "address"
            },
            {
              "internalType": "uint256[]",
              "name": "amounts",
              "type": "uint256[]"
            },
            {
              "internalType": "uint256[]",
              "name": "tokenIds",
              "type": "uint256[]"
            }
          ],
          "internalType": "struct CraftLib.Ingredient[]",
          "name": "_outputs",
          "type": "tuple[]"
        }
      ],
      "stateMutability": "view",
      "type": "function"
    },
    {
      "inputs": [
        {
          "internalType": "address",
          "name": "_admin",
          "type": "address"
        },
        {
          "internalType": "address",
          "name": "_burnAddress",
          "type": "address"
        },
        {
          "internalType": "uint96",
          "name": "_craftableAmount",
          "type": "uint96"
        },
        {
          "components": [
            {
              "internalType": "enum CraftLib.TokenType",
              "name": "token",
              "type": "uint8"
            },
            {
              "internalType": "enum CraftLib.ConsumableType",
              "name": "consumableType",
              "type": "uint8"
            },
            {
              "internalType": "address",
              "name": "contractAddr",
              "type": "address"
            },
            {
              "internalType": "uint256[]",
              "name": "amounts",
              "type": "uint256[]"
            },
            {
              "internalType": "uint256[]",
              "name": "tokenIds",
              "type": "uint256[]"
            }
          ],
          "internalType": "struct CraftLib.Ingredient[]",
          "name": "_inputs",
          "type": "tuple[]"
        },
        {
          "components": [
            {
              "internalType": "enum CraftLib.TokenType",
              "name": "token",
              "type": "uint8"
            },
            {
              "internalType": "enum CraftLib.ConsumableType",
              "name": "consumableType",
              "type": "uint8"
            },
            {
              "internalType": "address",
              "name": "contractAddr",
              "type": "address"
            },
            {
              "internalType": "uint256[]",
              "name": "amounts",
              "type": "uint256[]"
            },
            {
              "internalType": "uint256[]",
              "name": "tokenIds",
              "type": "uint256[]"
            }
          ],
          "internalType": "struct CraftLib.Ingredient[]",
          "name": "_outputs",
          "type": "tuple[]"
        }
      ],
      "name": "initialize",
      "outputs": [],
      "stateMutability": "nonpayable",
      "type": "function"
    },
    {
      "inputs": [
        {
          "internalType": "address",
          "name": "",
          "type": "address"
        },
        {
          "internalType": "address",
          "name": "",
          "type": "address"
        },
        {
          "internalType": "uint256[]",
          "name": "",
          "type": "uint256[]"
        },
        {
          "internalType": "uint256[]",
          "name": "",
          "type": "uint256[]"
        },
        {
          "internalType": "bytes",
          "name": "",
          "type": "bytes"
        }
      ],
      "name": "onERC1155BatchReceived",
      "outputs": [
        {
          "internalType": "bytes4",
          "name": "",
          "type": "bytes4"
        }
      ],
      "stateMutability": "nonpayable",
      "type": "function"
    },
    {
      "inputs": [
        {
          "internalType": "address",
          "name": "",
          "type": "address"
        },
        {
          "internalType": "address",
          "name": "",
          "type": "address"
        },
        {
          "internalType": "uint256",
          "name": "",
          "type": "uint256"
        },
        {
          "internalType": "uint256",
          "name": "",
          "type": "uint256"
        },
        {
          "internalType": "bytes",
          "name": "",
          "type": "bytes"
        }
      ],
      "name": "onERC1155Received",
      "outputs": [
        {
          "internalType": "bytes4",
          "name": "",
          "type": "bytes4"
        }
      ],
      "stateMutability": "nonpayable",
      "type": "function"
    },
    {
      "inputs": [
        {
          "internalType": "address",
          "name": "",
          "type": "address"
        },
        {
          "internalType": "address",
          "name": "",
          "type": "address"
        },
        {
          "internalType": "uint256",
          "name": "",
          "type": "uint256"
        },
        {
          "internalType": "bytes",
          "name": "",
          "type": "bytes"
        }
      ],
      "name": "onERC721Received",
      "outputs": [
        {
          "internalType": "bytes4",
          "name": "",
          "type": "bytes4"
        }
      ],
      "stateMutability": "nonpayable",
      "type": "function"
    },
    {
      "inputs": [],
      "name": "owner",
      "outputs": [
        {
          "internalType": "address",
          "name": "",
          "type": "address"
        }
      ],
      "stateMutability": "view",
      "type": "function"
    },
    {
      "inputs": [],
      "name": "proxiableUUID",
      "outputs": [
        {
          "internalType": "bytes32",
          "name": "",
          "type": "bytes32"
        }
      ],
      "stateMutability": "view",
      "type": "function"
    },
    {
      "inputs": [],
      "name": "renounceOwnership",
      "outputs": [],
      "stateMutability": "nonpayable",
      "type": "function"
    },
    {
      "inputs": [
        {
          "internalType": "bytes4",
          "name": "interfaceId",
          "type": "bytes4"
        }
      ],
      "name": "supportsInterface",
      "outputs": [
        {
          "internalType": "bool",
          "name": "",
          "type": "bool"
        }
      ],
      "stateMutability": "view",
      "type": "function"
    },
    {
      "inputs": [
        {
          "internalType": "address",
          "name": "newOwner",
          "type": "address"
        }
      ],
      "name": "transferOwnership",
      "outputs": [],
      "stateMutability": "nonpayable",
      "type": "function"
    },
    {
      "inputs": [
        {
          "internalType": "address",
          "name": "newImplementation",
          "type": "address"
        }
      ],
      "name": "upgradeTo",
      "outputs": [],
      "stateMutability": "nonpayable",
      "type": "function"
    },
    {
      "inputs": [
        {
          "internalType": "address",
          "name": "newImplementation",
          "type": "address"
        },
        {
          "internalType": "bytes",
          "name": "data",
          "type": "bytes"
        }
      ],
      "name": "upgradeToAndCall",
      "outputs": [],
      "stateMutability": "payable",
      "type": "function"
    },
    {
      "inputs": [
        {
          "internalType": "uint96",
          "name": "withdrawAmount",
          "type": "uint96"
        }
      ],
      "name": "withdraw",
      "outputs": [],
      "stateMutability": "nonpayable",
      "type": "function"
    }
  ],
  "transactionHash": "0x6aa0ba6a78de2c5b3502941822939f2d4724827e7986c10a675c7fb84bfcc751",
  "args": [],
  "numDeployments": 1,
  "solcInputHash": "2d4e71ad5a30e357ffb69c5f11fb36ca",
  "bytecode": "0x60a0604052306080523480156200001557600080fd5b506200002062000026565b62000156565b6200003260ff62000035565b50565b60008054610100900460ff1615620000ce578160ff1660011480156200006e57506200006c306200014760201b62002f521760201c565b155b620000c65760405162461bcd60e51b815260206004820152602e602482015260008051602062004fbe83398151915260448201526d191e481a5b9a5d1a585b1a5e995960921b60648201526084015b60405180910390fd5b506000919050565b60005460ff8084169116106200012d5760405162461bcd60e51b815260206004820152602e602482015260008051602062004fbe83398151915260448201526d191e481a5b9a5d1a585b1a5e995960921b6064820152608401620000bd565b506000805460ff191660ff92909216919091179055600190565b6001600160a01b03163b151590565b608051614e306200018e60003960008181610595015281816105de01528181610667015281816106a701526108e90152614e306000f3fe60806040526004361061012a5760003560e01c8063715018a6116100ab578063d2cad82a1161006f578063d2cad82a14610375578063dee4dea014610395578063df5081d6146103b5578063f23a6e61146103d5578063f2fde38b14610401578063f4a3e96d1461042157600080fd5b8063715018a6146102ec5780638da5cb5b14610301578063aaf10f421461031f578063bbe9e39b14610334578063bc197c811461034957600080fd5b8063505c9f27116100f2578063505c9f271461020e57806351776d931461023057806352d1902d146102505780635739a0d41461027357806370d5ae05146102b357600080fd5b806301ffc9a71461012f578063150b7a02146101645780632c4e328d146101a85780633659cfe6146101d95780634f1ef286146101fb575b600080fd5b34801561013b57600080fd5b5061014f61014a366004613ca1565b610441565b60405190151581526020015b60405180910390f35b34801561017057600080fd5b5061018f61017f366004613d95565b630a85bd0160e11b949350505050565b6040516001600160e01b0319909116815260200161015b565b3480156101b457600080fd5b506101c86101c3366004613e00565b610478565b60405161015b959493929190613e8e565b3480156101e557600080fd5b506101f96101f4366004613eea565b61058a565b005b6101f9610209366004613f07565b61065c565b34801561021a57600080fd5b50610223610716565b60405161015b9190613f56565b34801561023c57600080fd5b506101f961024b366004614079565b610899565b34801561025c57600080fd5b506102656108dc565b60405190815260200161015b565b34801561027f57600080fd5b506101915461029b90600160a01b90046001600160601b031681565b6040516001600160601b03909116815260200161015b565b3480156102bf57600080fd5b50610191546102d4906001600160a01b031681565b6040516001600160a01b03909116815260200161015b565b3480156102f857600080fd5b506101f961098f565b34801561030d57600080fd5b5060fb546001600160a01b03166102d4565b34801561032b57600080fd5b506102d46109c5565b34801561034057600080fd5b506102236109d4565b34801561035557600080fd5b5061018f610364366004614159565b63bc197c8160e01b95945050505050565b34801561038157600080fd5b506101c8610390366004613e00565b610b4e565b3480156103a157600080fd5b506101f96103b0366004614206565b610b6c565b3480156103c157600080fd5b506101f96103d0366004614079565b61102c565b3480156103e157600080fd5b5061018f6103f0366004614221565b63f23a6e6160e01b95945050505050565b34801561040d57600080fd5b506101f961041c366004613eea565b611fca565b34801561042d57600080fd5b506101f961043c366004614289565b612062565b60006001600160e01b03198216630271189760e51b148061047257506301ffc9a760e01b6001600160e01b03198316145b92915050565b6000806000606080600061019287815481106104965761049661432e565b6000918252602091829020600391909102018054600182018054604080518287028101870190915281815293955060ff80841695610100850490911694620100009094046001600160a01b0316936002880192909184919083018282801561051d57602002820191906000526020600020905b815481526020019060010190808311610509575b505050505091508080548060200260200160405190810160405280929190818152602001828054801561056f57602002820191906000526020600020905b81548152602001906001019080831161055b575b50505050509050955095509550955095505091939590929450565b306001600160a01b037f00000000000000000000000000000000000000000000000000000000000000001614156105dc5760405162461bcd60e51b81526004016105d390614344565b60405180910390fd5b7f00000000000000000000000000000000000000000000000000000000000000006001600160a01b031661060e612f61565b6001600160a01b0316146106345760405162461bcd60e51b81526004016105d390614390565b61063d81612f7d565b6040805160008082526020820190925261065991839190612fa7565b50565b306001600160a01b037f00000000000000000000000000000000000000000000000000000000000000001614156106a55760405162461bcd60e51b81526004016105d390614344565b7f00000000000000000000000000000000000000000000000000000000000000006001600160a01b03166106d7612f61565b6001600160a01b0316146106fd5760405162461bcd60e51b81526004016105d390614390565b61070682612f7d565b61071282826001612fa7565b5050565b6060610193805480602002602001604051908101604052809291908181526020016000905b82821015610890576000848152602090206040805160a08101909152600384029091018054829060ff16600281111561077657610776613e19565b600281111561078757610787613e19565b81528154602090910190610100900460ff1660038111156107aa576107aa613e19565b60038111156107bb576107bb613e19565b815281546201000090046001600160a01b0316602080830191909152600183018054604080518285028101850182528281529401939283018282801561082057602002820191906000526020600020905b81548152602001906001019080831161080c575b505050505081526020016002820180548060200260200160405190810160405280929190818152602001828054801561087857602002820191906000526020600020905b815481526020019060010190808311610864575b5050505050815250508152602001906001019061073b565b50505050905090565b60fb546001600160a01b031633146108c35760405162461bcd60e51b81526004016105d3906143dc565b6108d7836108d18385614411565b33613121565b505050565b6000306001600160a01b037f0000000000000000000000000000000000000000000000000000000000000000161461097c5760405162461bcd60e51b815260206004820152603860248201527f555550535570677261646561626c653a206d757374206e6f742062652063616c60448201527f6c6564207468726f7567682064656c656761746563616c6c000000000000000060648201526084016105d3565b50600080516020614d9483398151915290565b60fb546001600160a01b031633146109b95760405162461bcd60e51b81526004016105d3906143dc565b6109c3600061362f565b565b60006109cf612f61565b905090565b6060610192805480602002602001604051908101604052809291908181526020016000905b82821015610890576000848152602090206040805160a08101909152600384029091018054829060ff166002811115610a3457610a34613e19565b6002811115610a4557610a45613e19565b81528154602090910190610100900460ff166003811115610a6857610a68613e19565b6003811115610a7957610a79613e19565b815281546201000090046001600160a01b03166020808301919091526001830180546040805182850281018501825282815294019392830182828015610ade57602002820191906000526020600020905b815481526020019060010190808311610aca575b5050505050815260200160028201805480602002602001604051908101604052809291908181526020018280548015610b3657602002820191906000526020600020905b815481526020019060010190808311610b22575b505050505081525050815260200190600101906109f9565b6000806000606080600061019387815481106104965761049661432e565b60fb546001600160a01b03163314610b965760405162461bcd60e51b81526004016105d3906143dc565b6000816001600160601b031611610c045760405162461bcd60e51b815260206004820152602c60248201527f437261667465725472616e736665723a207769746864726177416d6f756e742060448201526b63616e6e6f7420626520302160a01b60648201526084016105d3565b610191546001600160601b03600160a01b90910481169082161115610c7a5760405162461bcd60e51b815260206004820152602660248201527f437261667465725472616e736665723a204e6f7420656e6f756768207265736f60448201526575726365732160d01b60648201526084016105d3565b8061019160148282829054906101000a90046001600160601b0316610c9f919061449a565b92506101000a8154816001600160601b0302191690836001600160601b0316021790555060005b61019354811015610fe15760006101938281548110610ce757610ce761432e565b6000918252602082206003909102019150815460ff166002811115610d0e57610d0e613e19565b1415610d69578054610d64906201000090046001600160a01b031633856001600160601b031684600101600081548110610d4a57610d4a61432e565b9060005260206000200154610d5f91906144c2565b613681565b610fce565b6001815460ff166002811115610d8157610d81613e19565b1415610e725760005b836001600160601b0316811015610e6c5781546201000090046001600160a01b03166342842e0e3033600286018054610dc5906001906144e1565b81548110610dd557610dd561432e565b90600052602060002001546040518463ffffffff1660e01b8152600401610dfe939291906144f8565b600060405180830381600087803b158015610e1857600080fd5b505af1158015610e2c573d6000803e3d6000fd5b5050505081600201805480610e4357610e4361451c565b600190038181906000526020600020016000905590558080610e6490614532565b915050610d8a565b50610fce565b6002815460ff166002811115610e8a57610e8a613e19565b1415610fce5760018101546000906001600160401b03811115610eaf57610eaf613ce0565b604051908082528060200260200182016040528015610ed8578160200160208202803683370190505b50905060005b6001830154811015610f4d57846001600160601b0316836001018281548110610f0957610f0961432e565b9060005260206000200154610f1e91906144c2565b828281518110610f3057610f3061432e565b602090810291909101015280610f4581614532565b915050610ede565b50815460408051600081526020810191829052631759616b60e11b909152620100009091046001600160a01b031690632eb2c2d690610f9a903090339060028801908790602481016145da565b600060405180830381600087803b158015610fb457600080fd5b505af1158015610fc8573d6000803e3d6000fd5b50505050505b5080610fd981614532565b915050610cc6565b5061019154604051600160a01b9091046001600160601b031681527f36ca321cf0c7fde128087be822283a7ca898c8a5ef818e4e079d29ab777319ff9060200160405180910390a150565b6000836001600160601b0316116110975760405162461bcd60e51b815260206004820152602960248201527f437261667465725472616e736665723a206372616674416d6f756e742063616e6044820152686e6f7420626520302160b81b60648201526084016105d3565b610191546001600160601b03600160a01b909104811690841611156111165760405162461bcd60e51b815260206004820152602f60248201527f437261667465725472616e736665723a204e6f7420656e6f756768207265736f60448201526e757263657320746f2063726166742160881b60648201526084016105d3565b8261019160148282829054906101000a90046001600160601b031661113b919061449a565b92506101000a8154816001600160601b0302191690836001600160601b031602179055506000805b61019254811015611c6c57600061019282815481106111845761118461432e565b6000918252602082206003909102019150815460ff1660028111156111ab576111ab613e19565b141561133e5760018154610100900460ff1660038111156111ce576111ce613e19565b141561123a578054611235906201000090046001600160a01b031633610191546001850180546001600160a01b03909216916001600160601b038c16919060009061121b5761121b61432e565b906000526020600020015461123091906144c2565b6136e4565b611c59565b60008154610100900460ff16600381111561125757611257613e19565b141561123557856001600160601b03168160010160008154811061127d5761127d61432e565b906000526020600020015461129291906144c2565b81546201000090046001600160a01b03166370a08231336040516001600160e01b031960e084901b1681526001600160a01b03909116600482015260240160206040518083038186803b1580156112e857600080fd5b505afa1580156112fc573d6000803e3d6000fd5b505050506040513d601f19601f82011682018060405250810190611320919061462c565b10156112355760405162461bcd60e51b81526004016105d390614645565b6001815460ff16600281111561135657611356613e19565b141561187157856001600160601b03168585858181106113785761137861432e565b905060200281019061138a91906146a2565b9050146113f45760405162461bcd60e51b815260206004820152603260248201527f437261667465725472616e736665723a205f696e70757445524337323149647360448201527116da5748084f4818dc98599d105b5bdd5b9d60721b60648201526084016105d3565b60008585858181106114085761140861432e565b905060200281019061141a91906146a2565b8080602002602001604051908101604052809392919081815260200183836020028082843760009201919091525092935060019250611457915050565b8254610100900460ff16600381111561147257611472613e19565b141561154c5760005b81518110156115465782546201000090046001600160a01b03166342842e0e33610191546001600160a01b03168a8a8a8181106114ba576114ba61432e565b90506020028101906114cc91906146a2565b868181106114dc576114dc61432e565b905060200201356040518463ffffffff1660e01b8152600401611501939291906144f8565b600060405180830381600087803b15801561151b57600080fd5b505af115801561152f573d6000803e3d6000fd5b50505050808061153e90614532565b91505061147b565b5061185e565b60008254610100900460ff16600381111561156957611569613e19565b14156116575760005b8151811015611546578254825133916201000090046001600160a01b031690636352211e908590859081106115a9576115a961432e565b60200260200101516040518263ffffffff1660e01b81526004016115cf91815260200190565b60206040518083038186803b1580156115e757600080fd5b505afa1580156115fb573d6000803e3d6000fd5b505050506040513d601f19601f8201168201806040525081019061161f91906146eb565b6001600160a01b0316146116455760405162461bcd60e51b81526004016105d390614708565b8061164f81614532565b915050611572565b60038254610100900460ff16600381111561167457611674613e19565b141561185e5760005b815181101561185c578254825133916201000090046001600160a01b031690636352211e908590859081106116b4576116b461432e565b60200260200101516040518263ffffffff1660e01b81526004016116da91815260200190565b60206040518083038186803b1580156116f257600080fd5b505afa158015611706573d6000803e3d6000fd5b505050506040513d601f19601f8201168201806040525081019061172a91906146eb565b6001600160a01b0316146117505760405162461bcd60e51b81526004016105d390614708565b60008282815181106117645761176461432e565b6020908102919091018101516000878152610194835260408082205488546201000090046001600160a01b031683526101958552818320848452909452902054909250106118065760405162461bcd60e51b815260206004820152602960248201527f437261667465725472616e736665723a2055736564206f76657220746865206c60448201526834b6b4ba1037b3103760b91b60648201526084016105d3565b83546201000090046001600160a01b03166000908152610195602090815260408083208484529091528120805460019290611842908490614754565b90915550829150611854905081614532565b91505061167d565b505b611869600185614754565b935050611c59565b6002815460ff16600281111561188957611889613e19565b1415611c595760018154610100900460ff1660038111156118ac576118ac613e19565b14156119fb5760018101546000906001600160401b038111156118d1576118d1613ce0565b6040519080825280602002602001820160405280156118fa578160200160208202803683370190505b50905060005b600183015481101561196f57876001600160601b031683600101828154811061192b5761192b61432e565b906000526020600020015461194091906144c2565b8282815181106119525761195261432e565b60209081029190910101528061196781614532565b915050611900565b5081546101915460408051600081526020810191829052631759616b60e11b909152620100009092046001600160a01b0390811692632eb2c2d6926119c392339291169060028801908790602481016145da565b600060405180830381600087803b1580156119dd57600080fd5b505af11580156119f1573d6000803e3d6000fd5b5050505050611c59565b60008154610100900460ff166003811115611a1857611a18613e19565b1415611c595760018101546000906001600160401b03811115611a3d57611a3d613ce0565b604051908082528060200260200182016040528015611a66578160200160208202803683370190505b5060018301549091506000906001600160401b03811115611a8957611a89613ce0565b604051908082528060200260200182016040528015611ab2578160200160208202803683370190505b50905060005b6001840154811015611b5257886001600160601b0316846001018281548110611ae357611ae361432e565b9060005260206000200154611af891906144c2565b838281518110611b0a57611b0a61432e565b602090810291909101015233828281518110611b2857611b2861432e565b6001600160a01b039092166020928302919091019091015280611b4a81614532565b915050611ab8565b5082546040516313849cfd60e21b81526000916201000090046001600160a01b031690634e1273f490611b8e908590600289019060040161476c565b60006040518083038186803b158015611ba657600080fd5b505afa158015611bba573d6000803e3d6000fd5b505050506040513d6000823e601f3d908101601f19168201604052611be291908101906147cc565b905060005b8151811015611c5457838181518110611c0257611c0261432e565b6020026020010151828281518110611c1c57611c1c61432e565b60200260200101511015611c425760405162461bcd60e51b81526004016105d390614645565b80611c4c81614532565b915050611be7565b505050505b5080611c6481614532565b915050611163565b5060005b61019354811015611f715760006101938281548110611c9157611c9161432e565b6000918252602082206003909102019150815460ff166002811115611cb857611cb8613e19565b1415611cf9578054611cf4906201000090046001600160a01b031633886001600160601b031684600101600081548110610d4a57610d4a61432e565b611f5e565b6001815460ff166002811115611d1157611d11613e19565b1415611e025760005b866001600160601b0316811015611dfc5781546201000090046001600160a01b03166342842e0e3033600286018054611d55906001906144e1565b81548110611d6557611d6561432e565b90600052602060002001546040518463ffffffff1660e01b8152600401611d8e939291906144f8565b600060405180830381600087803b158015611da857600080fd5b505af1158015611dbc573d6000803e3d6000fd5b5050505081600201805480611dd357611dd361451c565b600190038181906000526020600020016000905590558080611df490614532565b915050611d1a565b50611f5e565b6002815460ff166002811115611e1a57611e1a613e19565b1415611f5e5760018101546000906001600160401b03811115611e3f57611e3f613ce0565b604051908082528060200260200182016040528015611e68578160200160208202803683370190505b50905060005b6001830154811015611edd57876001600160601b0316836001018281548110611e9957611e9961432e565b9060005260206000200154611eae91906144c2565b828281518110611ec057611ec061432e565b602090810291909101015280611ed581614532565b915050611e6e565b50815460408051600081526020810191829052631759616b60e11b909152620100009091046001600160a01b031690632eb2c2d690611f2a903090339060028801908790602481016145da565b600060405180830381600087803b158015611f4457600080fd5b505af1158015611f58573d6000803e3d6000fd5b50505050505b5080611f6981614532565b915050611c70565b5061019154604080516001600160601b038781168252600160a01b9093049092166020830152805133927fd9b4399bff946a8ce8115e149514e628dbd773a7a931de96f81236602311314c92908290030190a250505050565b60fb546001600160a01b03163314611ff45760405162461bcd60e51b81526004016105d3906143dc565b6001600160a01b0381166120595760405162461bcd60e51b815260206004820152602660248201527f4f776e61626c653a206e6577206f776e657220697320746865207a65726f206160448201526564647265737360d01b60648201526084016105d3565b6106598161362f565b600061206e600161370b565b90508015612086576000805461ff0019166101001790555b6001600160a01b0387166120f05760405162461bcd60e51b815260206004820152602b60248201527f437261667465725472616e736665723a206275726e2061646472657373206d7560448201526a07374206e6f7420626520360ac1b60648201526084016105d3565b836121565760405162461bcd60e51b815260206004820152603060248201527f437261667465725472616e736665723a2041206372616674696e6720696e707560448201526f74206d75737420626520676976656e2160801b60648201526084016105d3565b816121bd5760405162461bcd60e51b815260206004820152603160248201527f437261667465725472616e736665723a2041206372616674696e67206f7574706044820152707574206d75737420626520676976656e2160781b60648201526084016105d3565b6121c5613798565b6121ce8861362f565b61019180546001600160a01b0319166001600160a01b03891617905560005b848110156126ce5760008686838181106122095761220961432e565b905060200281019061221b9190614851565b61222990602081019061487e565b600281111561223a5761223a613e19565b14156122e9578585828181106122525761225261432e565b90506020028101906122649190614851565b6122729060808101906146a2565b1590506122915760405162461bcd60e51b81526004016105d39061489b565b8585828181106122a3576122a361432e565b90506020028101906122b59190614851565b6122c39060608101906146a2565b90506001146122e45760405162461bcd60e51b81526004016105d3906148e0565b612670565b60018686838181106122fd576122fd61432e565b905060200281019061230f9190614851565b61231d90602081019061487e565b600281111561232e5761232e613e19565b14156125a0578585828181106123465761234661432e565b90506020028101906123589190614851565b6123669060808101906146a2565b1590506123c35760405162461bcd60e51b815260206004820152602560248201527f437261667465725472616e736665723a20746f6b656e4964732e6c656e677468604482015264020213d20360dc1b60648201526084016105d3565b60038686838181106123d7576123d761432e565b90506020028101906123e99190614851565b6123fa90604081019060200161491f565b600381111561240b5761240b613e19565b141561251f578585828181106124235761242361432e565b90506020028101906124359190614851565b6124439060608101906146a2565b90506001146124b85760405162461bcd60e51b81526020600482015260476024820152600080516020614ddb83398151915260448201527f213d20313b20726571756972656420666f72204e54696d6520436f6e73756d61606482015266626c655479706560c81b608482015260a4016105d3565b8585828181106124ca576124ca61432e565b90506020028101906124dc9190614851565b6124ea9060608101906146a2565b60008181106124fb576124fb61432e565b90506020020135610194600083815260200190815260200160002081905550612670565b8585828181106125315761253161432e565b90506020028101906125439190614851565b6125519060608101906146a2565b1590506122e45760405162461bcd60e51b81526020600482015260296024820152600080516020614ddb8339815191526044820152680213d2031206f7220360bc1b60648201526084016105d3565b60028686838181106125b4576125b461432e565b90506020028101906125c69190614851565b6125d490602081019061487e565b60028111156125e5576125e5613e19565b1415612670578585828181106125fd576125fd61432e565b905060200281019061260f9190614851565b61261d9060608101906146a2565b90508686838181106126315761263161432e565b90506020028101906126439190614851565b6126519060808101906146a2565b9050146126705760405162461bcd60e51b81526004016105d39061493c565b6101928686838181106126855761268561432e565b90506020028101906126979190614851565b8154600181018355600092835260209092209091600302016126b98282614a1e565b505080806126c690614532565b9150506121ed565b506000805b83811015612cc75760008585838181106126ef576126ef61432e565b90506020028101906127019190614851565b61270f90602081019061487e565b600281111561272057612720613e19565b141561281a578484828181106127385761273861432e565b905060200281019061274a9190614851565b6127589060808101906146a2565b1590506127775760405162461bcd60e51b81526004016105d39061489b565b8484828181106127895761278961432e565b905060200281019061279b9190614851565b6127a99060608101906146a2565b90506001146127ca5760405162461bcd60e51b81526004016105d3906148e0565b6101938585838181106127df576127df61432e565b90506020028101906127f19190614851565b8154600181018355600092835260209092209091600302016128138282614a1e565b5050612cb5565b600185858381811061282e5761282e61432e565b90506020028101906128409190614851565b61284e90602081019061487e565b600281111561285f5761285f613e19565b1415612b9957876001600160601b03168585838181106128815761288161432e565b90506020028101906128939190614851565b6128a19060808101906146a2565b90501461290d5760405162461bcd60e51b815260206004820152603460248201527f437261667465725472616e736665723a20746f6b656e6964732e6c656e67746860448201527308084f4817d8dc98599d18589b19505b5bdd5b9d60621b60648201526084016105d3565b84848281811061291f5761291f61432e565b90506020028101906129319190614851565b61293f9060608101906146a2565b1590506129885760405162461bcd60e51b815260206004820152602480820152600080516020614ddb8339815191526044820152630213d20360e41b60648201526084016105d3565b8161299281614532565b92505060006040518060a00160405280600160028111156129b5576129b5613e19565b81526020018787858181106129cc576129cc61432e565b90506020028101906129de9190614851565b6129ef90604081019060200161491f565b6003811115612a0057612a00613e19565b8152602001878785818110612a1757612a1761432e565b9050602002810190612a299190614851565b612a3a906060810190604001613eea565b6001600160a01b031681526020016000604051908082528060200260200182016040528015612a73578160200160208202803683370190505b5081526020016000604051908082528060200260200182016040528015612aa4578160200160208202803683370190505b509052610193805460018181018355600092909252825160039091027ffc8af01f449989052b52093a58fc9f42d0b11f0c6dd5dca0463dab62346ccc6801805493945084939092839160ff191690836002811115612b0457612b04613e19565b021790555060208201518154829061ff001916610100836003811115612b2c57612b2c613e19565b0217905550604082015181546001600160a01b03909116620100000262010000600160b01b031990911617815560608201518051612b74916001840191602090910190613c41565b5060808201518051612b90916002840191602090910190613c41565b50505050612cb5565b6002858583818110612bad57612bad61432e565b9050602002810190612bbf9190614851565b612bcd90602081019061487e565b6002811115612bde57612bde613e19565b1415612cb557848482818110612bf657612bf661432e565b9050602002810190612c089190614851565b612c169060608101906146a2565b9050858583818110612c2a57612c2a61432e565b9050602002810190612c3c9190614851565b612c4a9060808101906146a2565b905014612c695760405162461bcd60e51b81526004016105d39061493c565b610193858583818110612c7e57612c7e61432e565b9050602002810190612c909190614851565b815460018101835560009283526020909220909160030201612cb28282614a1e565b50505b80612cbf81614532565b9150506126d3565b506000816001600160401b03811115612ce257612ce2613ce0565b604051908082528060200260200182016040528015612d1557816020015b6060815260200190600190039081612d005790505b5090506000805b85811015612e9d576001878783818110612d3857612d3861432e565b9050602002810190612d4a9190614851565b612d5890602081019061487e565b6002811115612d6957612d69613e19565b1415612e8b57896001600160601b03166001600160401b03811115612d9057612d90613ce0565b604051908082528060200260200182016040528015612db9578160200160208202803683370190505b50838381518110612dcc57612dcc61432e565b602002602001018190525060005b8a6001600160601b0316811015612e7c57878783818110612dfd57612dfd61432e565b9050602002810190612e0f9190614851565b612e1d9060808101906146a2565b82818110612e2d57612e2d61432e565b90506020020135848481518110612e4657612e4661432e565b60200260200101518281518110612e5f57612e5f61432e565b602090810291909101015280612e7481614532565b915050612dda565b5081612e8781614532565b9250505b80612e9581614532565b915050612d1c565b506001600160601b03891615612eb857612eb889838d613121565b336001600160a01b03167fa0debf7c9ca45a90f258771b745e3ecfedce2c567503855e392d93e1c7a734b589898989604051612ef79493929190614c61565b60405180910390a25050508015612f48576000805461ff0019169055604051600181527f7f26b83ff96e1f2b6a682f133852f6798a09c465da95921460cefb38474024989060200160405180910390a15b5050505050505050565b6001600160a01b03163b151590565b600080516020614d94833981519152546001600160a01b031690565b60fb546001600160a01b031633146106595760405162461bcd60e51b81526004016105d3906143dc565b7f4910fdfa16fed3260ed0e7147f7cc6da11a60208b5b9406d12a635614ffd91435460ff1615612fda576108d7836137c7565b826001600160a01b03166352d1902d6040518163ffffffff1660e01b815260040160206040518083038186803b15801561301357600080fd5b505afa925050508015613043575060408051601f3d908101601f191682019092526130409181019061462c565b60015b6130a65760405162461bcd60e51b815260206004820152602e60248201527f45524331393637557067726164653a206e657720696d706c656d656e7461746960448201526d6f6e206973206e6f74205555505360901b60648201526084016105d3565b600080516020614d9483398151915281146131155760405162461bcd60e51b815260206004820152602960248201527f45524331393637557067726164653a20756e737570706f727465642070726f786044820152681a58589b195555525160ba1b60648201526084016105d3565b506108d7838383613863565b6000836001600160601b03161161318e5760405162461bcd60e51b815260206004820152602b60248201527f437261667465725472616e736665723a206465706f736974416d6f756e74206360448201526a616e6e6f7420626520302160a81b60648201526084016105d3565b6000805b610193548110156135a157600061019382815481106131b3576131b361432e565b6000918252602082206003909102019150815460ff1660028111156131da576131da613e19565b14156132225761321d8160000160029054906101000a90046001600160a01b03168530896001600160601b03168560010160008154811061121b5761121b61432e565b61358e565b6001815460ff16600281111561323a5761323a613e19565b141561341457856001600160601b031685848151811061325c5761325c61432e565b602002602001015151146132d15760405162461bcd60e51b815260206004820152603660248201527f437261667465725472616e736665723a205f6f75747075747345524337323149604482015275191cd6da5748084f4819195c1bdcda5d105b5bdd5b9d60521b60648201526084016105d3565b60005b8584815181106132e6576132e661432e565b602002602001015151811015613401578160000160029054906101000a90046001600160a01b03166001600160a01b03166342842e0e86308988815181106133305761333061432e565b602002602001015185815181106133495761334961432e565b60200260200101516040518463ffffffff1660e01b815260040161336f939291906144f8565b600060405180830381600087803b15801561338957600080fd5b505af115801561339d573d6000803e3d6000fd5b50505050816002018685815181106133b7576133b761432e565b602002602001015182815181106133d0576133d061432e565b60209081029190910181015182546001810184556000938452919092200155806133f981614532565b9150506132d4565b5061340d600184614754565b925061358e565b6002815460ff16600281111561342c5761342c613e19565b141561358e5760018101546000906001600160401b0381111561345157613451613ce0565b60405190808252806020026020018201604052801561347a578160200160208202803683370190505b50905060005b60018301548110156134ef57876001600160601b03168360010182815481106134ab576134ab61432e565b90600052602060002001546134c091906144c2565b8282815181106134d2576134d261432e565b6020908102919091010152806134e781614532565b915050613480565b5081546201000090046001600160a01b0316632eb2c2d68630600286018560006040519080825280601f01601f191660200182016040528015613539576020820181803683370190505b506040518663ffffffff1660e01b815260040161355a9594939291906145da565b600060405180830381600087803b15801561357457600080fd5b505af1158015613588573d6000803e3d6000fd5b50505050505b508061359981614532565b915050613192565b508361019160148282829054906101000a90046001600160601b03166135c79190614c88565b82546101009290920a6001600160601b0381810219909316918316021790915561019154604051600160a01b90910490911681527f36ca321cf0c7fde128087be822283a7ca898c8a5ef818e4e079d29ab777319ff915060200160405180910390a150505050565b60fb80546001600160a01b038381166001600160a01b0319831681179093556040519116919082907f8be0079c531659141344cd1fd0a4f28419497f9722a3daafe3b4186f6b6457e090600090a35050565b6040516001600160a01b0383166024820152604481018290526108d790849063a9059cbb60e01b906064015b60408051601f198184030181529190526020810180516001600160e01b03166001600160e01b031990931692909217909152613888565b613705846323b872dd60e01b8585856040516024016136ad939291906144f8565b50505050565b60008054610100900460ff1615613752578160ff16600114801561372e5750303b155b61374a5760405162461bcd60e51b81526004016105d390614cb3565b506000919050565b60005460ff8084169116106137795760405162461bcd60e51b81526004016105d390614cb3565b506000805460ff191660ff92909216919091179055600190565b919050565b600054610100900460ff166137bf5760405162461bcd60e51b81526004016105d390614d01565b6109c361395a565b6001600160a01b0381163b6138345760405162461bcd60e51b815260206004820152602d60248201527f455243313936373a206e657720696d706c656d656e746174696f6e206973206e60448201526c1bdd08184818dbdb9d1c9858dd609a1b60648201526084016105d3565b600080516020614d9483398151915280546001600160a01b0319166001600160a01b0392909216919091179055565b61386c8361398a565b6000825111806138795750805b156108d75761370583836139ca565b60006138dd826040518060400160405280602081526020017f5361666545524332303a206c6f772d6c6576656c2063616c6c206661696c6564815250856001600160a01b0316613abe9092919063ffffffff16565b8051909150156108d757808060200190518101906138fb9190614d4c565b6108d75760405162461bcd60e51b815260206004820152602a60248201527f5361666545524332303a204552433230206f7065726174696f6e20646964206e6044820152691bdd081cdd58d8d9595960b21b60648201526084016105d3565b600054610100900460ff166139815760405162461bcd60e51b81526004016105d390614d01565b6109c33361362f565b613993816137c7565b6040516001600160a01b038216907fbc7cd75a20ee27fd9adebab32041f755214dbc6bffa90cc0225b39da2e5c2d3b90600090a250565b60606001600160a01b0383163b613a325760405162461bcd60e51b815260206004820152602660248201527f416464726573733a2064656c65676174652063616c6c20746f206e6f6e2d636f6044820152651b9d1c9858dd60d21b60648201526084016105d3565b600080846001600160a01b031684604051613a4d9190614d6e565b600060405180830381855af49150503d8060008114613a88576040519150601f19603f3d011682016040523d82523d6000602084013e613a8d565b606091505b5091509150613ab58282604051806060016040528060278152602001614db460279139613ad7565b95945050505050565b6060613acd8484600085613b10565b90505b9392505050565b60608315613ae6575081613ad0565b825115613af65782518084602001fd5b8160405162461bcd60e51b81526004016105d39190614d80565b606082471015613b715760405162461bcd60e51b815260206004820152602660248201527f416464726573733a20696e73756666696369656e742062616c616e636520666f6044820152651c8818d85b1b60d21b60648201526084016105d3565b6001600160a01b0385163b613bc85760405162461bcd60e51b815260206004820152601d60248201527f416464726573733a2063616c6c20746f206e6f6e2d636f6e747261637400000060448201526064016105d3565b600080866001600160a01b03168587604051613be49190614d6e565b60006040518083038185875af1925050503d8060008114613c21576040519150601f19603f3d011682016040523d82523d6000602084013e613c26565b606091505b5091509150613c36828286613ad7565b979650505050505050565b828054828255906000526020600020908101928215613c7c579160200282015b82811115613c7c578251825591602001919060010190613c61565b50613c88929150613c8c565b5090565b5b80821115613c885760008155600101613c8d565b600060208284031215613cb357600080fd5b81356001600160e01b031981168114613ad057600080fd5b6001600160a01b038116811461065957600080fd5b634e487b7160e01b600052604160045260246000fd5b604051601f8201601f191681016001600160401b0381118282101715613d1e57613d1e613ce0565b604052919050565b600082601f830112613d3757600080fd5b81356001600160401b03811115613d5057613d50613ce0565b613d63601f8201601f1916602001613cf6565b818152846020838601011115613d7857600080fd5b816020850160208301376000918101602001919091529392505050565b60008060008060808587031215613dab57600080fd5b8435613db681613ccb565b93506020850135613dc681613ccb565b92506040850135915060608501356001600160401b03811115613de857600080fd5b613df487828801613d26565b91505092959194509250565b600060208284031215613e1257600080fd5b5035919050565b634e487b7160e01b600052602160045260246000fd5b60038110613e3f57613e3f613e19565b9052565b60048110613e3f57613e3f613e19565b600081518084526020808501945080840160005b83811015613e8357815187529582019590820190600101613e67565b509495945050505050565b613e988187613e2f565b613ea56020820186613e43565b6001600160a01b038416604082015260a060608201819052600090613ecc90830185613e53565b8281036080840152613ede8185613e53565b98975050505050505050565b600060208284031215613efc57600080fd5b8135613ad081613ccb565b60008060408385031215613f1a57600080fd5b8235613f2581613ccb565b915060208301356001600160401b03811115613f4057600080fd5b613f4c85828601613d26565b9150509250929050565b60006020808301818452808551808352604092508286019150828160051b87010184880160005b8381101561400957603f19898403018552815160a0613f9d858351613e2f565b88820151613fad8a870182613e43565b50818801516001600160a01b031685890152606080830151818701839052613fd783880182613e53565b9250505060808083015192508582038187015250613ff58183613e53565b968901969450505090860190600101613f7d565b509098975050505050505050565b80356001600160601b038116811461379357600080fd5b60008083601f84011261404057600080fd5b5081356001600160401b0381111561405757600080fd5b6020830191508360208260051b850101111561407257600080fd5b9250929050565b60008060006040848603121561408e57600080fd5b61409784614017565b925060208401356001600160401b038111156140b257600080fd5b6140be8682870161402e565b9497909650939450505050565b60006001600160401b038211156140e4576140e4613ce0565b5060051b60200190565b600082601f8301126140ff57600080fd5b8135602061411461410f836140cb565b613cf6565b82815260059290921b8401810191818101908684111561413357600080fd5b8286015b8481101561414e5780358352918301918301614137565b509695505050505050565b600080600080600060a0868803121561417157600080fd5b853561417c81613ccb565b9450602086013561418c81613ccb565b935060408601356001600160401b03808211156141a857600080fd5b6141b489838a016140ee565b945060608801359150808211156141ca57600080fd5b6141d689838a016140ee565b935060808801359150808211156141ec57600080fd5b506141f988828901613d26565b9150509295509295909350565b60006020828403121561421857600080fd5b613ad082614017565b600080600080600060a0868803121561423957600080fd5b853561424481613ccb565b9450602086013561425481613ccb565b9350604086013592506060860135915060808601356001600160401b0381111561427d57600080fd5b6141f988828901613d26565b600080600080600080600060a0888a0312156142a457600080fd5b87356142af81613ccb565b965060208801356142bf81613ccb565b95506142cd60408901614017565b945060608801356001600160401b03808211156142e957600080fd5b6142f58b838c0161402e565b909650945060808a013591508082111561430e57600080fd5b5061431b8a828b0161402e565b989b979a50959850939692959293505050565b634e487b7160e01b600052603260045260246000fd5b6020808252602c908201527f46756e6374696f6e206d7573742062652063616c6c6564207468726f7567682060408201526b19195b1959d85d1958d85b1b60a21b606082015260800190565b6020808252602c908201527f46756e6374696f6e206d7573742062652063616c6c6564207468726f7567682060408201526b6163746976652070726f787960a01b606082015260800190565b6020808252818101527f4f776e61626c653a2063616c6c6572206973206e6f7420746865206f776e6572604082015260600190565b600061441f61410f846140cb565b80848252602080830192508560051b85013681111561443d57600080fd5b855b818110156144785780356001600160401b0381111561445e5760008081fd5b61446a36828a016140ee565b86525093820193820161443f565b50919695505050505050565b634e487b7160e01b600052601160045260246000fd5b60006001600160601b03838116908316818110156144ba576144ba614484565b039392505050565b60008160001904831182151516156144dc576144dc614484565b500290565b6000828210156144f3576144f3614484565b500390565b6001600160a01b039384168152919092166020820152604081019190915260600190565b634e487b7160e01b600052603160045260246000fd5b600060001982141561454657614546614484565b5060010190565b6000815480845260208085019450836000528060002060005b83811015613e8357815487529582019560019182019101614566565b60005b8381101561459d578181015183820152602001614585565b838111156137055750506000910152565b600081518084526145c6816020860160208601614582565b601f01601f19169290920160200192915050565b6001600160a01b0386811682528516602082015260a0604082018190526000906146069083018661454d565b82810360608401526146188186613e53565b90508281036080840152613ede81856145ae565b60006020828403121561463e57600080fd5b5051919050565b60208082526037908201527f437261667465725472616e736665723a2055736572206d697373696e67206d6960408201527f6e696d756d20746f6b656e2062616c616e636528732921000000000000000000606082015260800190565b6000808335601e198436030181126146b957600080fd5b8301803591506001600160401b038211156146d357600080fd5b6020019150600581901b360382131561407257600080fd5b6000602082840312156146fd57600080fd5b8151613ad081613ccb565b6020808252602c908201527f437261667465725472616e736665723a205573657220646f6573206e6f74206f60408201526b776e20746f6b656e2873292160a01b606082015260800190565b6000821982111561476757614767614484565b500190565b604080825283519082018190526000906020906060840190828701845b828110156147ae5781516001600160a01b031684529284019290840190600101614789565b505050838103828501526147c2818661454d565b9695505050505050565b600060208083850312156147df57600080fd5b82516001600160401b038111156147f557600080fd5b8301601f8101851361480657600080fd5b805161481461410f826140cb565b81815260059190911b8201830190838101908783111561483357600080fd5b928401925b82841015613c3657835182529284019290840190614838565b60008235609e1983360301811261486757600080fd5b9190910192915050565b6003811061065957600080fd5b60006020828403121561489057600080fd5b8135613ad081614871565b60208082526025908201527f437261667465725472616e736665723a20746f6b656e6964732e6c656e677468604082015264020213d20360dc1b606082015260800190565b6020808252602490820152600080516020614ddb833981519152604082015263213d203160e01b606082015260800190565b6004811061065957600080fd5b60006020828403121561493157600080fd5b8135613ad081614912565b60208082526032908201527f437261667465725472616e736665723a20746f6b656e6964732e6c656e677468604082015271040427a40c2dadeeadce8e65cd8cadccee8d60731b606082015260800190565b6000813561047281613ccb565b680100000000000000008311156149b4576149b4613ce0565b8054838255808410156149eb576000828152602081208581019083015b808210156149e7578282556001820191506149d1565b5050505b5060008181526020812083915b85811015614a165782358255602090920191600191820191016149f8565b505050505050565b8135614a2981614871565b60038110614a3957614a39613e19565b815460ff821691508160ff1982161783556020840135614a5881614912565b60048110614a6857614a68613e19565b61ff008160081b168361ffff19841617178455505050614ab5614a8d6040840161498e565b82805462010000600160b01b03191660109290921b62010000600160b01b0316919091179055565b614ac260608301836146a2565b614ad081836001860161499b565b5050614adf60808301836146a2565b61370581836002860161499b565b6000808335601e19843603018112614b0457600080fd5b83016020810192503590506001600160401b03811115614b2357600080fd5b8060051b360383131561407257600080fd5b81835260006001600160fb1b03831115614b4e57600080fd5b8260051b8083602087013760009401602001938452509192915050565b81835260006020808501808196508560051b81019150846000805b88811015614c53578385038a528235609e19893603018112614ba6578283fd5b880160a08135614bb581614871565b614bbf8882613e2f565b5087820135614bcd81614912565b614bd989890182613e43565b50604080830135614be981613ccb565b6001600160a01b0316908801526060614c0483820184614aed565b83838b0152614c16848b018284614b35565b93505050506080614c2981840184614aed565b9350888303828a0152614c3d838583614b35565b9d8a019d98505050938701935050600101614b86565b509298975050505050505050565b604081526000614c75604083018688614b6b565b8281036020840152613c36818587614b6b565b60006001600160601b03808316818516808303821115614caa57614caa614484565b01949350505050565b6020808252602e908201527f496e697469616c697a61626c653a20636f6e747261637420697320616c72656160408201526d191e481a5b9a5d1a585b1a5e995960921b606082015260800190565b6020808252602b908201527f496e697469616c697a61626c653a20636f6e7472616374206973206e6f74206960408201526a6e697469616c697a696e6760a81b606082015260800190565b600060208284031215614d5e57600080fd5b81518015158114613ad057600080fd5b60008251614867818460208701614582565b602081526000613ad060208301846145ae56fe360894a13ba1a3210667c828492db98dca3e2076cc3735a920a3ca505d382bbc416464726573733a206c6f772d6c6576656c2064656c65676174652063616c6c206661696c6564437261667465725472616e736665723a20616d6f756e74732e6c656e67746820a2646970667358221220c9aa7b75f1d56a3157fba99a7fa27e9968902dd7d9cd071de8d7bf659b23c23c64736f6c63430008090033496e697469616c697a61626c653a20636f6e747261637420697320616c726561",
  "devdoc": {
    "details": "Pluggable Crafting Contract.",
    "kind": "dev",
    "methods": {
      "constructor": {
        "custom:oz-upgrades-unsafe-allow": "constructor"
      },
      "craft(uint96,uint256[][])": {
        "details": "Used to craft. Consumes inputs and transfers outputs.",
        "params": {
          "_inputERC721Ids": "Array of pre-approved NFTs for crafting usage.",
          "craftAmount": "How many times to craft"
        }
      },
      "deposit(uint96,uint256[][])": {
        "details": "Used to deposit recipe outputs.",
        "params": {
          "_outputsERC721Ids": "2D-array of ERC721 tokens used in crafting",
          "depositAmount": "How many times the recipe should be craftable"
        }
      },
      "getInputIngredient(uint256)": {
        "details": "Returns all details for a specific ingredient (including amounts/tokenIds)",
        "params": {
          "index": "ingredient index to return details for"
        },
        "returns": {
          "amounts": "amount of each token",
          "consumableType": "consumable type",
          "contractAddr": "token contract address",
          "token": "token type",
          "tokenIds": "token ids"
        }
      },
      "getInputs()": {
        "details": "Returns all inputs (without `amounts` or `tokenIds`)"
      },
      "getOutputIngredient(uint256)": {
        "details": "Returns all details for a specific ingredient (including amounts/tokenIds)",
        "params": {
          "index": "ingredient index to return details for"
        },
        "returns": {
          "amounts": "amount of each token",
          "consumableType": "consumable type",
          "contractAddr": "token contract address",
          "token": "token type",
          "tokenIds": "token ids"
        }
      },
      "getOutputs()": {
        "details": "Returns all outputs (without `amounts` or `tokenIds`)"
      },
      "initialize(address,address,uint96,(uint8,uint8,address,uint256[],uint256[])[],(uint8,uint8,address,uint256[],uint256[])[])": {
        "details": "Configures crafting recipe with inputs/outputs",
        "params": {
          "_burnAddress": "Burn address for burn inputs",
          "_inputs": "inputs for recipe",
          "_outputs": "outputs for recipe"
        }
      },
      "onERC721Received(address,address,uint256,bytes)": {
        "details": "See {IERC721Receiver-onERC721Received}. Always returns `IERC721Receiver.onERC721Received.selector`."
      },
      "owner()": {
        "details": "Returns the address of the current owner."
      },
      "proxiableUUID()": {
        "details": "Implementation of the ERC1822 {proxiableUUID} function. This returns the storage slot used by the implementation. It is used to validate that the this implementation remains valid after an upgrade. IMPORTANT: A proxy pointing at a proxiable contract should not be considered proxiable itself, because this risks bricking a proxy that upgrades to it, by delegating to itself until out of gas. Thus it is critical that this function revert if invoked through a proxy. This is guaranteed by the `notDelegated` modifier."
      },
      "renounceOwnership()": {
        "details": "Leaves the contract without owner. It will not be possible to call `onlyOwner` functions anymore. Can only be called by the current owner. NOTE: Renouncing ownership will leave the contract without an owner, thereby removing any functionality that is only available to the owner."
      },
      "supportsInterface(bytes4)": {
        "details": "See {IERC165-supportsInterface}."
      },
      "transferOwnership(address)": {
        "details": "Transfers ownership of the contract to a new account (`newOwner`). Can only be called by the current owner."
      },
      "upgradeTo(address)": {
        "details": "Upgrade the implementation of the proxy to `newImplementation`. Calls {_authorizeUpgrade}. Emits an {Upgraded} event."
      },
      "upgradeToAndCall(address,bytes)": {
        "details": "Upgrade the implementation of the proxy to `newImplementation`, and subsequently execute the function call encoded in `data`. Calls {_authorizeUpgrade}. Emits an {Upgraded} event."
      },
      "withdraw(uint96)": {
        "details": "Used to withdraw recipe outputs. Reverse logic as deposit().",
        "params": {
          "withdrawAmount": "How many times the craft outputs should be withdrawn"
        }
      }
    },
    "version": 1
  },
  "userdoc": {
    "kind": "user",
    "methods": {
      "craft(uint96,uint256[][])": {
        "notice": "Craft {craftAmount}"
      },
      "deposit(uint96,uint256[][])": {
        "notice": "Must be recipe creator. Automatically sends from `msg.sender`"
      },
      "initialize(address,address,uint96,(uint8,uint8,address,uint256[],uint256[])[],(uint8,uint8,address,uint256[],uint256[])[])": {
        "notice": "Create recipe"
      },
      "withdraw(uint96)": {
        "notice": "Must be recipe creator"
      }
    },
    "version": 1
  },
  "storageLayout": {
    "storage": [
      {
        "astId": 1012,
        "contract": "contracts/plugins/Crafter/CrafterTransfer.sol:CrafterTransfer",
        "label": "_initialized",
        "offset": 0,
        "slot": "0",
        "type": "t_uint8"
      },
      {
        "astId": 1015,
        "contract": "contracts/plugins/Crafter/CrafterTransfer.sol:CrafterTransfer",
        "label": "_initializing",
        "offset": 1,
        "slot": "0",
        "type": "t_bool"
      },
      {
        "astId": 5070,
        "contract": "contracts/plugins/Crafter/CrafterTransfer.sol:CrafterTransfer",
        "label": "__gap",
        "offset": 0,
        "slot": "1",
        "type": "t_array(t_uint256)50_storage"
      },
      {
        "astId": 5662,
        "contract": "contracts/plugins/Crafter/CrafterTransfer.sol:CrafterTransfer",
        "label": "__gap",
        "offset": 0,
        "slot": "51",
        "type": "t_array(t_uint256)50_storage"
      },
      {
        "astId": 2919,
        "contract": "contracts/plugins/Crafter/CrafterTransfer.sol:CrafterTransfer",
        "label": "__gap",
        "offset": 0,
        "slot": "101",
        "type": "t_array(t_uint256)50_storage"
      },
      {
        "astId": 2865,
        "contract": "contracts/plugins/Crafter/CrafterTransfer.sol:CrafterTransfer",
        "label": "__gap",
        "offset": 0,
        "slot": "151",
        "type": "t_array(t_uint256)50_storage"
      },
      {
        "astId": 5355,
        "contract": "contracts/plugins/Crafter/CrafterTransfer.sol:CrafterTransfer",
        "label": "__gap",
        "offset": 0,
        "slot": "201",
        "type": "t_array(t_uint256)50_storage"
      },
      {
        "astId": 423,
        "contract": "contracts/plugins/Crafter/CrafterTransfer.sol:CrafterTransfer",
        "label": "_owner",
        "offset": 0,
        "slot": "251",
        "type": "t_address"
      },
      {
        "astId": 535,
        "contract": "contracts/plugins/Crafter/CrafterTransfer.sol:CrafterTransfer",
        "label": "__gap",
        "offset": 0,
        "slot": "252",
        "type": "t_array(t_uint256)49_storage"
      },
      {
        "astId": 994,
        "contract": "contracts/plugins/Crafter/CrafterTransfer.sol:CrafterTransfer",
        "label": "__gap",
        "offset": 0,
        "slot": "301",
        "type": "t_array(t_uint256)50_storage"
      },
      {
        "astId": 1282,
        "contract": "contracts/plugins/Crafter/CrafterTransfer.sol:CrafterTransfer",
        "label": "__gap",
        "offset": 0,
        "slot": "351",
        "type": "t_array(t_uint256)50_storage"
      },
      {
        "astId": 11483,
        "contract": "contracts/plugins/Crafter/CrafterTransfer.sol:CrafterTransfer",
        "label": "burnAddress",
        "offset": 0,
        "slot": "401",
        "type": "t_address"
      },
      {
        "astId": 11485,
        "contract": "contracts/plugins/Crafter/CrafterTransfer.sol:CrafterTransfer",
        "label": "craftableAmount",
        "offset": 20,
        "slot": "401",
        "type": "t_uint96"
      },
      {
        "astId": 11489,
        "contract": "contracts/plugins/Crafter/CrafterTransfer.sol:CrafterTransfer",
        "label": "inputs",
        "offset": 0,
        "slot": "402",
        "type": "t_array(t_struct(Ingredient)9931_storage)dyn_storage"
      },
      {
        "astId": 11493,
        "contract": "contracts/plugins/Crafter/CrafterTransfer.sol:CrafterTransfer",
        "label": "outputs",
        "offset": 0,
        "slot": "403",
        "type": "t_array(t_struct(Ingredient)9931_storage)dyn_storage"
      },
      {
        "astId": 11497,
        "contract": "contracts/plugins/Crafter/CrafterTransfer.sol:CrafterTransfer",
        "label": "nUse",
        "offset": 0,
        "slot": "404",
        "type": "t_mapping(t_uint256,t_uint256)"
      },
      {
        "astId": 11503,
        "contract": "contracts/plugins/Crafter/CrafterTransfer.sol:CrafterTransfer",
        "label": "usedERC721Inputs",
        "offset": 0,
        "slot": "405",
        "type": "t_mapping(t_address,t_mapping(t_uint256,t_uint256))"
      }
    ],
    "types": {
      "t_address": {
        "encoding": "inplace",
        "label": "address",
        "numberOfBytes": "20"
      },
      "t_array(t_struct(Ingredient)9931_storage)dyn_storage": {
        "base": "t_struct(Ingredient)9931_storage",
        "encoding": "dynamic_array",
        "label": "struct CraftLib.Ingredient[]",
        "numberOfBytes": "32"
      },
      "t_array(t_uint256)49_storage": {
        "base": "t_uint256",
        "encoding": "inplace",
        "label": "uint256[49]",
        "numberOfBytes": "1568"
      },
      "t_array(t_uint256)50_storage": {
        "base": "t_uint256",
        "encoding": "inplace",
        "label": "uint256[50]",
        "numberOfBytes": "1600"
      },
      "t_array(t_uint256)dyn_storage": {
        "base": "t_uint256",
        "encoding": "dynamic_array",
        "label": "uint256[]",
        "numberOfBytes": "32"
      },
      "t_bool": {
        "encoding": "inplace",
        "label": "bool",
        "numberOfBytes": "1"
      },
      "t_enum(ConsumableType)9912": {
        "encoding": "inplace",
        "label": "enum CraftLib.ConsumableType",
        "numberOfBytes": "1"
      },
      "t_enum(TokenType)9916": {
        "encoding": "inplace",
        "label": "enum CraftLib.TokenType",
        "numberOfBytes": "1"
      },
      "t_mapping(t_address,t_mapping(t_uint256,t_uint256))": {
        "encoding": "mapping",
        "key": "t_address",
        "label": "mapping(address => mapping(uint256 => uint256))",
        "numberOfBytes": "32",
        "value": "t_mapping(t_uint256,t_uint256)"
      },
      "t_mapping(t_uint256,t_uint256)": {
        "encoding": "mapping",
        "key": "t_uint256",
        "label": "mapping(uint256 => uint256)",
        "numberOfBytes": "32",
        "value": "t_uint256"
      },
      "t_struct(Ingredient)9931_storage": {
        "encoding": "inplace",
        "label": "struct CraftLib.Ingredient",
        "members": [
          {
            "astId": 9919,
            "contract": "contracts/plugins/Crafter/CrafterTransfer.sol:CrafterTransfer",
            "label": "token",
            "offset": 0,
            "slot": "0",
            "type": "t_enum(TokenType)9916"
          },
          {
            "astId": 9922,
            "contract": "contracts/plugins/Crafter/CrafterTransfer.sol:CrafterTransfer",
            "label": "consumableType",
            "offset": 1,
            "slot": "0",
            "type": "t_enum(ConsumableType)9912"
          },
          {
            "astId": 9924,
            "contract": "contracts/plugins/Crafter/CrafterTransfer.sol:CrafterTransfer",
            "label": "contractAddr",
            "offset": 2,
            "slot": "0",
            "type": "t_address"
          },
          {
            "astId": 9927,
            "contract": "contracts/plugins/Crafter/CrafterTransfer.sol:CrafterTransfer",
            "label": "amounts",
            "offset": 0,
            "slot": "1",
            "type": "t_array(t_uint256)dyn_storage"
          },
          {
            "astId": 9930,
            "contract": "contracts/plugins/Crafter/CrafterTransfer.sol:CrafterTransfer",
            "label": "tokenIds",
            "offset": 0,
            "slot": "2",
            "type": "t_array(t_uint256)dyn_storage"
          }
        ],
        "numberOfBytes": "96"
      },
      "t_uint256": {
        "encoding": "inplace",
        "label": "uint256",
        "numberOfBytes": "32"
      },
      "t_uint8": {
        "encoding": "inplace",
        "label": "uint8",
        "numberOfBytes": "1"
      },
      "t_uint96": {
        "encoding": "inplace",
        "label": "uint96",
        "numberOfBytes": "12"
      }
    }
  }
}