{
  "address": "0xacDC0755137Bd4B1b148802a927CEA137e08B45b",
  "abi": [
    {
      "inputs": [],
      "stateMutability": "nonpayable",
      "type": "constructor"
    },
    {
      "anonymous": false,
      "inputs": [
        {
          "indexed": false,
          "internalType": "address",
          "name": "previousAdmin",
          "type": "address"
        },
        {
          "indexed": false,
          "internalType": "address",
          "name": "newAdmin",
          "type": "address"
        }
      ],
      "name": "AdminChanged",
      "type": "event"
    },
    {
      "anonymous": false,
      "inputs": [
        {
          "indexed": true,
          "internalType": "address",
          "name": "beacon",
          "type": "address"
        }
      ],
      "name": "BeaconUpgraded",
      "type": "event"
    },
    {
      "anonymous": false,
      "inputs": [
        {
          "indexed": true,
          "internalType": "address",
          "name": "creator",
          "type": "address"
        },
        {
          "components": [
            {
              "internalType": "enum CraftLib.TokenType",
              "name": "token",
              "type": "uint8"
            },
            {
              "internalType": "enum CraftLib.ConsumableType",
              "name": "consumableType",
              "type": "uint8"
            },
            {
              "internalType": "address",
              "name": "contractAddr",
              "type": "address"
            },
            {
              "internalType": "uint256[]",
              "name": "amounts",
              "type": "uint256[]"
            },
            {
              "internalType": "uint256[]",
              "name": "tokenIds",
              "type": "uint256[]"
            }
          ],
          "indexed": false,
          "internalType": "struct CraftLib.Ingredient[]",
          "name": "inputs",
          "type": "tuple[]"
        },
        {
          "components": [
            {
              "internalType": "enum CraftLib.TokenType",
              "name": "token",
              "type": "uint8"
            },
            {
              "internalType": "enum CraftLib.ConsumableType",
              "name": "consumableType",
              "type": "uint8"
            },
            {
              "internalType": "address",
              "name": "contractAddr",
              "type": "address"
            },
            {
              "internalType": "uint256[]",
              "name": "amounts",
              "type": "uint256[]"
            },
            {
              "internalType": "uint256[]",
              "name": "tokenIds",
              "type": "uint256[]"
            }
          ],
          "indexed": false,
          "internalType": "struct CraftLib.Ingredient[]",
          "name": "outputs",
          "type": "tuple[]"
        }
      ],
      "name": "CreateRecipe",
      "type": "event"
    },
    {
      "anonymous": false,
      "inputs": [
        {
          "indexed": false,
          "internalType": "uint8",
          "name": "version",
          "type": "uint8"
        }
      ],
      "name": "Initialized",
      "type": "event"
    },
    {
      "anonymous": false,
      "inputs": [
        {
          "indexed": true,
          "internalType": "address",
          "name": "previousOwner",
          "type": "address"
        },
        {
          "indexed": true,
          "internalType": "address",
          "name": "newOwner",
          "type": "address"
        }
      ],
      "name": "OwnershipTransferred",
      "type": "event"
    },
    {
      "anonymous": false,
      "inputs": [
        {
          "indexed": false,
          "internalType": "uint256",
          "name": "craftedAmount",
          "type": "uint256"
        },
        {
          "indexed": false,
          "internalType": "uint256",
          "name": "craftableAmount",
          "type": "uint256"
        },
        {
          "indexed": true,
          "internalType": "address",
          "name": "user",
          "type": "address"
        }
      ],
      "name": "RecipeCraft",
      "type": "event"
    },
    {
      "anonymous": false,
      "inputs": [
        {
          "indexed": false,
          "internalType": "uint256",
          "name": "craftableAmount",
          "type": "uint256"
        }
      ],
      "name": "RecipeUpdate",
      "type": "event"
    },
    {
      "anonymous": false,
      "inputs": [
        {
          "indexed": true,
          "internalType": "address",
          "name": "implementation",
          "type": "address"
        }
      ],
      "name": "Upgraded",
      "type": "event"
    },
    {
      "inputs": [],
      "name": "burnAddress",
      "outputs": [
        {
          "internalType": "address",
          "name": "",
          "type": "address"
        }
      ],
      "stateMutability": "view",
      "type": "function"
    },
    {
      "inputs": [
        {
          "internalType": "uint96",
          "name": "craftAmount",
          "type": "uint96"
        },
        {
          "internalType": "uint256[][]",
          "name": "_inputERC721Ids",
          "type": "uint256[][]"
        }
      ],
      "name": "craft",
      "outputs": [],
      "stateMutability": "nonpayable",
      "type": "function"
    },
    {
      "inputs": [],
      "name": "craftableAmount",
      "outputs": [
        {
          "internalType": "uint96",
          "name": "",
          "type": "uint96"
        }
      ],
      "stateMutability": "view",
      "type": "function"
    },
    {
      "inputs": [
        {
          "internalType": "uint96",
          "name": "depositAmount",
          "type": "uint96"
        },
        {
          "internalType": "uint256[][]",
          "name": "_outputsERC721Ids",
          "type": "uint256[][]"
        }
      ],
      "name": "deposit",
      "outputs": [],
      "stateMutability": "nonpayable",
      "type": "function"
    },
    {
      "inputs": [],
      "name": "getImplementation",
      "outputs": [
        {
          "internalType": "address",
          "name": "",
          "type": "address"
        }
      ],
      "stateMutability": "view",
      "type": "function"
    },
    {
      "inputs": [
        {
          "internalType": "uint256",
          "name": "index",
          "type": "uint256"
        }
      ],
      "name": "getInputIngredient",
      "outputs": [
        {
          "internalType": "enum CraftLib.TokenType",
          "name": "token",
          "type": "uint8"
        },
        {
          "internalType": "enum CraftLib.ConsumableType",
          "name": "consumableType",
          "type": "uint8"
        },
        {
          "internalType": "address",
          "name": "contractAddr",
          "type": "address"
        },
        {
          "internalType": "uint256[]",
          "name": "amounts",
          "type": "uint256[]"
        },
        {
          "internalType": "uint256[]",
          "name": "tokenIds",
          "type": "uint256[]"
        }
      ],
      "stateMutability": "view",
      "type": "function"
    },
    {
      "inputs": [],
      "name": "getInputs",
      "outputs": [
        {
          "components": [
            {
              "internalType": "enum CraftLib.TokenType",
              "name": "token",
              "type": "uint8"
            },
            {
              "internalType": "enum CraftLib.ConsumableType",
              "name": "consumableType",
              "type": "uint8"
            },
            {
              "internalType": "address",
              "name": "contractAddr",
              "type": "address"
            },
            {
              "internalType": "uint256[]",
              "name": "amounts",
              "type": "uint256[]"
            },
            {
              "internalType": "uint256[]",
              "name": "tokenIds",
              "type": "uint256[]"
            }
          ],
          "internalType": "struct CraftLib.Ingredient[]",
          "name": "_inputs",
          "type": "tuple[]"
        }
      ],
      "stateMutability": "view",
      "type": "function"
    },
    {
      "inputs": [
        {
          "internalType": "uint256",
          "name": "index",
          "type": "uint256"
        }
      ],
      "name": "getOutputIngredient",
      "outputs": [
        {
          "internalType": "enum CraftLib.TokenType",
          "name": "token",
          "type": "uint8"
        },
        {
          "internalType": "enum CraftLib.ConsumableType",
          "name": "consumableType",
          "type": "uint8"
        },
        {
          "internalType": "address",
          "name": "contractAddr",
          "type": "address"
        },
        {
          "internalType": "uint256[]",
          "name": "amounts",
          "type": "uint256[]"
        },
        {
          "internalType": "uint256[]",
          "name": "tokenIds",
          "type": "uint256[]"
        }
      ],
      "stateMutability": "view",
      "type": "function"
    },
    {
      "inputs": [],
      "name": "getOutputs",
      "outputs": [
        {
          "components": [
            {
              "internalType": "enum CraftLib.TokenType",
              "name": "token",
              "type": "uint8"
            },
            {
              "internalType": "enum CraftLib.ConsumableType",
              "name": "consumableType",
              "type": "uint8"
            },
            {
              "internalType": "address",
              "name": "contractAddr",
              "type": "address"
            },
            {
              "internalType": "uint256[]",
              "name": "amounts",
              "type": "uint256[]"
            },
            {
              "internalType": "uint256[]",
              "name": "tokenIds",
              "type": "uint256[]"
            }
          ],
          "internalType": "struct CraftLib.Ingredient[]",
          "name": "_outputs",
          "type": "tuple[]"
        }
      ],
      "stateMutability": "view",
      "type": "function"
    },
    {
      "inputs": [
        {
          "internalType": "address",
          "name": "_admin",
          "type": "address"
        },
        {
          "internalType": "address",
          "name": "_burnAddress",
          "type": "address"
        },
        {
          "internalType": "uint96",
          "name": "_craftableAmount",
          "type": "uint96"
        },
        {
          "components": [
            {
              "internalType": "enum CraftLib.TokenType",
              "name": "token",
              "type": "uint8"
            },
            {
              "internalType": "enum CraftLib.ConsumableType",
              "name": "consumableType",
              "type": "uint8"
            },
            {
              "internalType": "address",
              "name": "contractAddr",
              "type": "address"
            },
            {
              "internalType": "uint256[]",
              "name": "amounts",
              "type": "uint256[]"
            },
            {
              "internalType": "uint256[]",
              "name": "tokenIds",
              "type": "uint256[]"
            }
          ],
          "internalType": "struct CraftLib.Ingredient[]",
          "name": "_inputs",
          "type": "tuple[]"
        },
        {
          "components": [
            {
              "internalType": "enum CraftLib.TokenType",
              "name": "token",
              "type": "uint8"
            },
            {
              "internalType": "enum CraftLib.ConsumableType",
              "name": "consumableType",
              "type": "uint8"
            },
            {
              "internalType": "address",
              "name": "contractAddr",
              "type": "address"
            },
            {
              "internalType": "uint256[]",
              "name": "amounts",
              "type": "uint256[]"
            },
            {
              "internalType": "uint256[]",
              "name": "tokenIds",
              "type": "uint256[]"
            }
          ],
          "internalType": "struct CraftLib.Ingredient[]",
          "name": "_outputs",
          "type": "tuple[]"
        }
      ],
      "name": "initialize",
      "outputs": [],
      "stateMutability": "nonpayable",
      "type": "function"
    },
    {
      "inputs": [
        {
          "internalType": "address",
          "name": "",
          "type": "address"
        },
        {
          "internalType": "address",
          "name": "",
          "type": "address"
        },
        {
          "internalType": "uint256[]",
          "name": "",
          "type": "uint256[]"
        },
        {
          "internalType": "uint256[]",
          "name": "",
          "type": "uint256[]"
        },
        {
          "internalType": "bytes",
          "name": "",
          "type": "bytes"
        }
      ],
      "name": "onERC1155BatchReceived",
      "outputs": [
        {
          "internalType": "bytes4",
          "name": "",
          "type": "bytes4"
        }
      ],
      "stateMutability": "nonpayable",
      "type": "function"
    },
    {
      "inputs": [
        {
          "internalType": "address",
          "name": "",
          "type": "address"
        },
        {
          "internalType": "address",
          "name": "",
          "type": "address"
        },
        {
          "internalType": "uint256",
          "name": "",
          "type": "uint256"
        },
        {
          "internalType": "uint256",
          "name": "",
          "type": "uint256"
        },
        {
          "internalType": "bytes",
          "name": "",
          "type": "bytes"
        }
      ],
      "name": "onERC1155Received",
      "outputs": [
        {
          "internalType": "bytes4",
          "name": "",
          "type": "bytes4"
        }
      ],
      "stateMutability": "nonpayable",
      "type": "function"
    },
    {
      "inputs": [
        {
          "internalType": "address",
          "name": "",
          "type": "address"
        },
        {
          "internalType": "address",
          "name": "",
          "type": "address"
        },
        {
          "internalType": "uint256",
          "name": "",
          "type": "uint256"
        },
        {
          "internalType": "bytes",
          "name": "",
          "type": "bytes"
        }
      ],
      "name": "onERC721Received",
      "outputs": [
        {
          "internalType": "bytes4",
          "name": "",
          "type": "bytes4"
        }
      ],
      "stateMutability": "nonpayable",
      "type": "function"
    },
    {
      "inputs": [],
      "name": "owner",
      "outputs": [
        {
          "internalType": "address",
          "name": "",
          "type": "address"
        }
      ],
      "stateMutability": "view",
      "type": "function"
    },
    {
      "inputs": [],
      "name": "proxiableUUID",
      "outputs": [
        {
          "internalType": "bytes32",
          "name": "",
          "type": "bytes32"
        }
      ],
      "stateMutability": "view",
      "type": "function"
    },
    {
      "inputs": [],
      "name": "renounceOwnership",
      "outputs": [],
      "stateMutability": "nonpayable",
      "type": "function"
    },
    {
      "inputs": [
        {
          "internalType": "bytes4",
          "name": "interfaceId",
          "type": "bytes4"
        }
      ],
      "name": "supportsInterface",
      "outputs": [
        {
          "internalType": "bool",
          "name": "",
          "type": "bool"
        }
      ],
      "stateMutability": "view",
      "type": "function"
    },
    {
      "inputs": [
        {
          "internalType": "address",
          "name": "newOwner",
          "type": "address"
        }
      ],
      "name": "transferOwnership",
      "outputs": [],
      "stateMutability": "nonpayable",
      "type": "function"
    },
    {
      "inputs": [
        {
          "internalType": "address",
          "name": "newImplementation",
          "type": "address"
        }
      ],
      "name": "upgradeTo",
      "outputs": [],
      "stateMutability": "nonpayable",
      "type": "function"
    },
    {
      "inputs": [
        {
          "internalType": "address",
          "name": "newImplementation",
          "type": "address"
        },
        {
          "internalType": "bytes",
          "name": "data",
          "type": "bytes"
        }
      ],
      "name": "upgradeToAndCall",
      "outputs": [],
      "stateMutability": "payable",
      "type": "function"
    },
    {
      "inputs": [
        {
          "internalType": "uint96",
          "name": "withdrawAmount",
          "type": "uint96"
        }
      ],
      "name": "withdraw",
      "outputs": [],
      "stateMutability": "nonpayable",
      "type": "function"
    }
  ],
  "transactionHash": "0x435f1da75d862379dbaf90ddd336f1d6ea53227a14997d09034c171ed65e2789",
  "args": [],
  "numDeployments": 1,
  "solcInputHash": "2d4e71ad5a30e357ffb69c5f11fb36ca",
  "bytecode": "0x60a0604052306080523480156200001557600080fd5b506200002062000026565b62000156565b6200003260ff62000035565b50565b60008054610100900460ff1615620000ce578160ff1660011480156200006e57506200006c306200014760201b62002d921760201c565b155b620000c65760405162461bcd60e51b815260206004820152602e602482015260008051602062004c8683398151915260448201526d191e481a5b9a5d1a585b1a5e995960921b60648201526084015b60405180910390fd5b506000919050565b60005460ff8084169116106200012d5760405162461bcd60e51b815260206004820152602e602482015260008051602062004c8683398151915260448201526d191e481a5b9a5d1a585b1a5e995960921b6064820152608401620000bd565b506000805460ff191660ff92909216919091179055600190565b6001600160a01b03163b151590565b608051614af86200018e60003960008181610595015281816105de01528181610667015281816106a701526108e80152614af86000f3fe60806040526004361061012a5760003560e01c8063715018a6116100ab578063d2cad82a1161006f578063d2cad82a14610375578063dee4dea014610395578063df5081d6146103b5578063f23a6e61146103d5578063f2fde38b14610401578063f4a3e96d1461042157600080fd5b8063715018a6146102ec5780638da5cb5b14610301578063aaf10f421461031f578063bbe9e39b14610334578063bc197c811461034957600080fd5b8063505c9f27116100f2578063505c9f271461020e57806351776d931461023057806352d1902d146102505780635739a0d41461027357806370d5ae05146102b357600080fd5b806301ffc9a71461012f578063150b7a02146101645780632c4e328d146101a85780633659cfe6146101d95780634f1ef286146101fb575b600080fd5b34801561013b57600080fd5b5061014f61014a36600461392c565b610441565b60405190151581526020015b60405180910390f35b34801561017057600080fd5b5061018f61017f366004613a20565b630a85bd0160e11b949350505050565b6040516001600160e01b0319909116815260200161015b565b3480156101b457600080fd5b506101c86101c3366004613a8b565b610478565b60405161015b959493929190613b19565b3480156101e557600080fd5b506101f96101f4366004613b75565b61058a565b005b6101f9610209366004613b92565b61065c565b34801561021a57600080fd5b50610223610716565b60405161015b9190613be1565b34801561023c57600080fd5b506101f961024b366004613d04565b610899565b34801561025c57600080fd5b506102656108db565b60405190815260200161015b565b34801561027f57600080fd5b506101915461029b90600160a01b90046001600160601b031681565b6040516001600160601b03909116815260200161015b565b3480156102bf57600080fd5b50610191546102d4906001600160a01b031681565b6040516001600160a01b03909116815260200161015b565b3480156102f857600080fd5b506101f961098e565b34801561030d57600080fd5b5060fb546001600160a01b03166102d4565b34801561032b57600080fd5b506102d46109c4565b34801561034057600080fd5b506102236109d3565b34801561035557600080fd5b5061018f610364366004613de4565b63bc197c8160e01b95945050505050565b34801561038157600080fd5b506101c8610390366004613a8b565b610b4d565b3480156103a157600080fd5b506101f96103b0366004613e91565b610b6b565b3480156103c157600080fd5b506101f96103d0366004613d04565b610dc6565b3480156103e157600080fd5b5061018f6103f0366004613eac565b63f23a6e6160e01b95945050505050565b34801561040d57600080fd5b506101f961041c366004613b75565b611e0b565b34801561042d57600080fd5b506101f961043c366004613f14565b611ea3565b60006001600160e01b03198216630271189760e51b148061047257506301ffc9a760e01b6001600160e01b03198316145b92915050565b60008060006060806000610192878154811061049657610496613fb9565b6000918252602091829020600391909102018054600182018054604080518287028101870190915281815293955060ff80841695610100850490911694620100009094046001600160a01b0316936002880192909184919083018282801561051d57602002820191906000526020600020905b815481526020019060010190808311610509575b505050505091508080548060200260200160405190810160405280929190818152602001828054801561056f57602002820191906000526020600020905b81548152602001906001019080831161055b575b50505050509050955095509550955095505091939590929450565b306001600160a01b037f00000000000000000000000000000000000000000000000000000000000000001614156105dc5760405162461bcd60e51b81526004016105d390613fcf565b60405180910390fd5b7f00000000000000000000000000000000000000000000000000000000000000006001600160a01b031661060e612da1565b6001600160a01b0316146106345760405162461bcd60e51b81526004016105d39061401b565b61063d81612dbd565b6040805160008082526020820190925261065991839190612de7565b50565b306001600160a01b037f00000000000000000000000000000000000000000000000000000000000000001614156106a55760405162461bcd60e51b81526004016105d390613fcf565b7f00000000000000000000000000000000000000000000000000000000000000006001600160a01b03166106d7612da1565b6001600160a01b0316146106fd5760405162461bcd60e51b81526004016105d39061401b565b61070682612dbd565b61071282826001612de7565b5050565b6060610193805480602002602001604051908101604052809291908181526020016000905b82821015610890576000848152602090206040805160a08101909152600384029091018054829060ff16600281111561077657610776613aa4565b600281111561078757610787613aa4565b81528154602090910190610100900460ff1660038111156107aa576107aa613aa4565b60038111156107bb576107bb613aa4565b815281546201000090046001600160a01b0316602080830191909152600183018054604080518285028101850182528281529401939283018282801561082057602002820191906000526020600020905b81548152602001906001019080831161080c575b505050505081526020016002820180548060200260200160405190810160405280929190818152602001828054801561087857602002820191906000526020600020905b815481526020019060010190808311610864575b5050505050815250508152602001906001019061073b565b50505050905090565b60fb546001600160a01b031633146108c35760405162461bcd60e51b81526004016105d390614067565b6108d6836108d1838561409c565b612f61565b505050565b6000306001600160a01b037f0000000000000000000000000000000000000000000000000000000000000000161461097b5760405162461bcd60e51b815260206004820152603860248201527f555550535570677261646561626c653a206d757374206e6f742062652063616c60448201527f6c6564207468726f7567682064656c656761746563616c6c000000000000000060648201526084016105d3565b50600080516020614a5c83398151915290565b60fb546001600160a01b031633146109b85760405162461bcd60e51b81526004016105d390614067565b6109c260006132e4565b565b60006109ce612da1565b905090565b6060610192805480602002602001604051908101604052809291908181526020016000905b82821015610890576000848152602090206040805160a08101909152600384029091018054829060ff166002811115610a3357610a33613aa4565b6002811115610a4457610a44613aa4565b81528154602090910190610100900460ff166003811115610a6757610a67613aa4565b6003811115610a7857610a78613aa4565b815281546201000090046001600160a01b03166020808301919091526001830180546040805182850281018501825282815294019392830182828015610add57602002820191906000526020600020905b815481526020019060010190808311610ac9575b5050505050815260200160028201805480602002602001604051908101604052809291908181526020018280548015610b3557602002820191906000526020600020905b815481526020019060010190808311610b21575b505050505081525050815260200190600101906109f8565b60008060006060806000610193878154811061049657610496613fb9565b60fb546001600160a01b03163314610b955760405162461bcd60e51b81526004016105d390614067565b6000816001600160601b031611610c035760405162461bcd60e51b815260206004820152602c60248201527f437261667465725472616e736665723a207769746864726177416d6f756e742060448201526b63616e6e6f7420626520302160a01b60648201526084016105d3565b610191546001600160601b03600160a01b90910481169082161115610c795760405162461bcd60e51b815260206004820152602660248201527f437261667465725472616e736665723a204e6f7420656e6f756768207265736f60448201526575726365732160d01b60648201526084016105d3565b8061019160148282829054906101000a90046001600160601b0316610c9e9190614125565b92506101000a8154816001600160601b0302191690836001600160601b0316021790555060005b61019354811015610d7b5760006101938281548110610ce657610ce6613fb9565b6000918252602090912060039091020190506001815460ff166002811115610d1057610d10613aa4565b1415610d685760005b836001600160601b0316811015610d665781600201805480610d3d57610d3d61414d565b600190038181906000526020600020016000905590558080610d5e90614163565b915050610d19565b505b5080610d7381614163565b915050610cc5565b5061019154604051600160a01b9091046001600160601b031681527f36ca321cf0c7fde128087be822283a7ca898c8a5ef818e4e079d29ab777319ff9060200160405180910390a150565b6000836001600160601b031611610e315760405162461bcd60e51b815260206004820152602960248201527f437261667465725472616e736665723a206372616674416d6f756e742063616e6044820152686e6f7420626520302160b81b60648201526084016105d3565b610191546001600160601b03600160a01b90910481169084161115610eb05760405162461bcd60e51b815260206004820152602f60248201527f437261667465725472616e736665723a204e6f7420656e6f756768207265736f60448201526e757263657320746f2063726166742160881b60648201526084016105d3565b8261019160148282829054906101000a90046001600160601b0316610ed59190614125565b92506101000a8154816001600160601b0302191690836001600160601b031602179055506000805b61019254811015611a1e5760006101928281548110610f1e57610f1e613fb9565b6000918252602082206003909102019150815460ff166002811115610f4557610f45613aa4565b14156110d85760018154610100900460ff166003811115610f6857610f68613aa4565b1415610fd4578054610fcf906201000090046001600160a01b031633610191546001850180546001600160a01b03909216916001600160601b038c169190600090610fb557610fb5613fb9565b9060005260206000200154610fca919061417e565b613336565b611a0b565b60008154610100900460ff166003811115610ff157610ff1613aa4565b1415610fcf57856001600160601b03168160010160008154811061101757611017613fb9565b906000526020600020015461102c919061417e565b81546201000090046001600160a01b03166370a08231336040516001600160e01b031960e084901b1681526001600160a01b03909116600482015260240160206040518083038186803b15801561108257600080fd5b505afa158015611096573d6000803e3d6000fd5b505050506040513d601f19601f820116820180604052508101906110ba919061419d565b1015610fcf5760405162461bcd60e51b81526004016105d3906141b6565b6001815460ff1660028111156110f0576110f0613aa4565b141561162357856001600160601b031685858581811061111257611112613fb9565b90506020028101906111249190614213565b90501461118e5760405162461bcd60e51b815260206004820152603260248201527f437261667465725472616e736665723a205f696e70757445524337323149647360448201527116da5748084f4818dc98599d105b5bdd5b9d60721b60648201526084016105d3565b60008585858181106111a2576111a2613fb9565b90506020028101906111b49190614213565b80806020026020016040519081016040528093929190818152602001838360200280828437600092019190915250929350600192506111f1915050565b8254610100900460ff16600381111561120c5761120c613aa4565b14156112fe5760005b81518110156112f85782546201000090046001600160a01b03166342842e0e33610191546001600160a01b03168a8a8a81811061125457611254613fb9565b90506020028101906112669190614213565b8681811061127657611276613fb9565b6040516001600160e01b031960e088901b1681526001600160a01b03958616600482015294909316602485015250602090910201356044820152606401600060405180830381600087803b1580156112cd57600080fd5b505af11580156112e1573d6000803e3d6000fd5b5050505080806112f090614163565b915050611215565b50611610565b60008254610100900460ff16600381111561131b5761131b613aa4565b14156114095760005b81518110156112f8578254825133916201000090046001600160a01b031690636352211e9085908590811061135b5761135b613fb9565b60200260200101516040518263ffffffff1660e01b815260040161138191815260200190565b60206040518083038186803b15801561139957600080fd5b505afa1580156113ad573d6000803e3d6000fd5b505050506040513d601f19601f820116820180604052508101906113d1919061425c565b6001600160a01b0316146113f75760405162461bcd60e51b81526004016105d390614279565b8061140181614163565b915050611324565b60038254610100900460ff16600381111561142657611426613aa4565b14156116105760005b815181101561160e578254825133916201000090046001600160a01b031690636352211e9085908590811061146657611466613fb9565b60200260200101516040518263ffffffff1660e01b815260040161148c91815260200190565b60206040518083038186803b1580156114a457600080fd5b505afa1580156114b8573d6000803e3d6000fd5b505050506040513d601f19601f820116820180604052508101906114dc919061425c565b6001600160a01b0316146115025760405162461bcd60e51b81526004016105d390614279565b600082828151811061151657611516613fb9565b6020908102919091018101516000878152610194835260408082205488546201000090046001600160a01b031683526101958552818320848452909452902054909250106115b85760405162461bcd60e51b815260206004820152602960248201527f437261667465725472616e736665723a2055736564206f76657220746865206c60448201526834b6b4ba1037b3103760b91b60648201526084016105d3565b83546201000090046001600160a01b031660009081526101956020908152604080832084845290915281208054600192906115f49084906142c5565b90915550829150611606905081614163565b91505061142f565b505b61161b6001856142c5565b935050611a0b565b6002815460ff16600281111561163b5761163b613aa4565b1415611a0b5760018154610100900460ff16600381111561165e5761165e613aa4565b14156117ad5760018101546000906001600160401b038111156116835761168361396b565b6040519080825280602002602001820160405280156116ac578160200160208202803683370190505b50905060005b600183015481101561172157876001600160601b03168360010182815481106116dd576116dd613fb9565b90600052602060002001546116f2919061417e565b82828151811061170457611704613fb9565b60209081029190910101528061171981614163565b9150506116b2565b5081546101915460408051600081526020810191829052631759616b60e11b909152620100009092046001600160a01b0390811692632eb2c2d692611775923392911690600288019087906024810161436a565b600060405180830381600087803b15801561178f57600080fd5b505af11580156117a3573d6000803e3d6000fd5b5050505050611a0b565b60008154610100900460ff1660038111156117ca576117ca613aa4565b1415611a0b5760018101546000906001600160401b038111156117ef576117ef61396b565b604051908082528060200260200182016040528015611818578160200160208202803683370190505b5060018301549091506000906001600160401b0381111561183b5761183b61396b565b604051908082528060200260200182016040528015611864578160200160208202803683370190505b50905060005b600184015481101561190457886001600160601b031684600101828154811061189557611895613fb9565b90600052602060002001546118aa919061417e565b8382815181106118bc576118bc613fb9565b6020908102919091010152338282815181106118da576118da613fb9565b6001600160a01b0390921660209283029190910190910152806118fc81614163565b91505061186a565b5082546040516313849cfd60e21b81526000916201000090046001600160a01b031690634e1273f49061194090859060028901906004016143bc565b60006040518083038186803b15801561195857600080fd5b505afa15801561196c573d6000803e3d6000fd5b505050506040513d6000823e601f3d908101601f19168201604052611994919081019061441c565b905060005b8151811015611a06578381815181106119b4576119b4613fb9565b60200260200101518282815181106119ce576119ce613fb9565b602002602001015110156119f45760405162461bcd60e51b81526004016105d3906141b6565b806119fe81614163565b915050611999565b505050505b5080611a1681614163565b915050610efd565b5060005b61019354811015611db25760006101938281548110611a4357611a43613fb9565b6000918252602082206003909102019150815460ff166002811115611a6a57611a6a613aa4565b1415611b1f5780546201000090046001600160a01b03166340c10f1933886001600160601b031684600101600081548110611aa757611aa7613fb9565b9060005260206000200154611abc919061417e565b6040516001600160e01b031960e085901b1681526001600160a01b0390921660048301526024820152604401600060405180830381600087803b158015611b0257600080fd5b505af1158015611b16573d6000803e3d6000fd5b50505050611d9f565b6001815460ff166002811115611b3757611b37613aa4565b1415611c455760028101545b6002820154611b5c906001600160601b038916906144a1565b811115611c165781546201000090046001600160a01b03166340c10f193360028501611b896001866144a1565b81548110611b9957611b99613fb9565b6000918252602090912001546040516001600160e01b031960e085901b1681526001600160a01b0390921660048301526024820152604401600060405180830381600087803b158015611beb57600080fd5b505af1158015611bff573d6000803e3d6000fd5b505050508080611c0e906144b8565b915050611b43565b5080600201805480611c2a57611c2a61414d565b60019003818190600052602060002001600090559055611d9f565b6002815460ff166002811115611c5d57611c5d613aa4565b1415611d9f5760018101546000906001600160401b03811115611c8257611c8261396b565b604051908082528060200260200182016040528015611cab578160200160208202803683370190505b50905060005b6001830154811015611d2057876001600160601b0316836001018281548110611cdc57611cdc613fb9565b9060005260206000200154611cf1919061417e565b828281518110611d0357611d03613fb9565b602090810291909101015280611d1881614163565b915050611cb1565b50815460408051600081526020810191829052630fbfeffd60e11b909152620100009091046001600160a01b031690631f7fdffa90611d6b90339060028701908690602481016144cf565b600060405180830381600087803b158015611d8557600080fd5b505af1158015611d99573d6000803e3d6000fd5b50505050505b5080611daa81614163565b915050611a22565b5061019154604080516001600160601b038781168252600160a01b9093049092166020830152805133927fd9b4399bff946a8ce8115e149514e628dbd773a7a931de96f81236602311314c92908290030190a250505050565b60fb546001600160a01b03163314611e355760405162461bcd60e51b81526004016105d390614067565b6001600160a01b038116611e9a5760405162461bcd60e51b815260206004820152602660248201527f4f776e61626c653a206e6577206f776e657220697320746865207a65726f206160448201526564647265737360d01b60648201526084016105d3565b610659816132e4565b6000611eaf6001613396565b90508015611ec7576000805461ff0019166101001790555b6001600160a01b038716611f315760405162461bcd60e51b815260206004820152602b60248201527f437261667465725472616e736665723a206275726e2061646472657373206d7560448201526a07374206e6f7420626520360ac1b60648201526084016105d3565b83611f975760405162461bcd60e51b815260206004820152603060248201527f437261667465725472616e736665723a2041206372616674696e6720696e707560448201526f74206d75737420626520676976656e2160801b60648201526084016105d3565b81611ffe5760405162461bcd60e51b815260206004820152603160248201527f437261667465725472616e736665723a2041206372616674696e67206f7574706044820152707574206d75737420626520676976656e2160781b60648201526084016105d3565b612006613423565b61200f886132e4565b61019180546001600160a01b0319166001600160a01b03891617905560005b8481101561250f57600086868381811061204a5761204a613fb9565b905060200281019061205c9190614519565b61206a906020810190614546565b600281111561207b5761207b613aa4565b141561212a5785858281811061209357612093613fb9565b90506020028101906120a59190614519565b6120b3906080810190614213565b1590506120d25760405162461bcd60e51b81526004016105d390614563565b8585828181106120e4576120e4613fb9565b90506020028101906120f69190614519565b612104906060810190614213565b90506001146121255760405162461bcd60e51b81526004016105d3906145a8565b6124b1565b600186868381811061213e5761213e613fb9565b90506020028101906121509190614519565b61215e906020810190614546565b600281111561216f5761216f613aa4565b14156123e15785858281811061218757612187613fb9565b90506020028101906121999190614519565b6121a7906080810190614213565b1590506122045760405162461bcd60e51b815260206004820152602560248201527f437261667465725472616e736665723a20746f6b656e4964732e6c656e677468604482015264020213d20360dc1b60648201526084016105d3565b600386868381811061221857612218613fb9565b905060200281019061222a9190614519565b61223b9060408101906020016145e7565b600381111561224c5761224c613aa4565b14156123605785858281811061226457612264613fb9565b90506020028101906122769190614519565b612284906060810190614213565b90506001146122f95760405162461bcd60e51b81526020600482015260476024820152600080516020614aa383398151915260448201527f213d20313b20726571756972656420666f72204e54696d6520436f6e73756d61606482015266626c655479706560c81b608482015260a4016105d3565b85858281811061230b5761230b613fb9565b905060200281019061231d9190614519565b61232b906060810190614213565b600081811061233c5761233c613fb9565b905060200201356101946000838152602001908152602001600020819055506124b1565b85858281811061237257612372613fb9565b90506020028101906123849190614519565b612392906060810190614213565b1590506121255760405162461bcd60e51b81526020600482015260296024820152600080516020614aa38339815191526044820152680213d2031206f7220360bc1b60648201526084016105d3565b60028686838181106123f5576123f5613fb9565b90506020028101906124079190614519565b612415906020810190614546565b600281111561242657612426613aa4565b14156124b15785858281811061243e5761243e613fb9565b90506020028101906124509190614519565b61245e906060810190614213565b905086868381811061247257612472613fb9565b90506020028101906124849190614519565b612492906080810190614213565b9050146124b15760405162461bcd60e51b81526004016105d390614604565b6101928686838181106124c6576124c6613fb9565b90506020028101906124d89190614519565b8154600181018355600092835260209092209091600302016124fa82826146e6565b5050808061250790614163565b91505061202e565b506000805b83811015612b0857600085858381811061253057612530613fb9565b90506020028101906125429190614519565b612550906020810190614546565b600281111561256157612561613aa4565b141561265b5784848281811061257957612579613fb9565b905060200281019061258b9190614519565b612599906080810190614213565b1590506125b85760405162461bcd60e51b81526004016105d390614563565b8484828181106125ca576125ca613fb9565b90506020028101906125dc9190614519565b6125ea906060810190614213565b905060011461260b5760405162461bcd60e51b81526004016105d3906145a8565b61019385858381811061262057612620613fb9565b90506020028101906126329190614519565b81546001810183556000928352602090922090916003020161265482826146e6565b5050612af6565b600185858381811061266f5761266f613fb9565b90506020028101906126819190614519565b61268f906020810190614546565b60028111156126a0576126a0613aa4565b14156129da57876001600160601b03168585838181106126c2576126c2613fb9565b90506020028101906126d49190614519565b6126e2906080810190614213565b90501461274e5760405162461bcd60e51b815260206004820152603460248201527f437261667465725472616e736665723a20746f6b656e6964732e6c656e67746860448201527308084f4817d8dc98599d18589b19505b5bdd5b9d60621b60648201526084016105d3565b84848281811061276057612760613fb9565b90506020028101906127729190614519565b612780906060810190614213565b1590506127c95760405162461bcd60e51b815260206004820152602480820152600080516020614aa38339815191526044820152630213d20360e41b60648201526084016105d3565b816127d381614163565b92505060006040518060a00160405280600160028111156127f6576127f6613aa4565b815260200187878581811061280d5761280d613fb9565b905060200281019061281f9190614519565b6128309060408101906020016145e7565b600381111561284157612841613aa4565b815260200187878581811061285857612858613fb9565b905060200281019061286a9190614519565b61287b906060810190604001613b75565b6001600160a01b0316815260200160006040519080825280602002602001820160405280156128b4578160200160208202803683370190505b50815260200160006040519080825280602002602001820160405280156128e5578160200160208202803683370190505b509052610193805460018181018355600092909252825160039091027ffc8af01f449989052b52093a58fc9f42d0b11f0c6dd5dca0463dab62346ccc6801805493945084939092839160ff19169083600281111561294557612945613aa4565b021790555060208201518154829061ff00191661010083600381111561296d5761296d613aa4565b0217905550604082015181546001600160a01b03909116620100000262010000600160b01b0319909116178155606082015180516129b59160018401916020909101906138cc565b50608082015180516129d19160028401916020909101906138cc565b50505050612af6565b60028585838181106129ee576129ee613fb9565b9050602002810190612a009190614519565b612a0e906020810190614546565b6002811115612a1f57612a1f613aa4565b1415612af657848482818110612a3757612a37613fb9565b9050602002810190612a499190614519565b612a57906060810190614213565b9050858583818110612a6b57612a6b613fb9565b9050602002810190612a7d9190614519565b612a8b906080810190614213565b905014612aaa5760405162461bcd60e51b81526004016105d390614604565b610193858583818110612abf57612abf613fb9565b9050602002810190612ad19190614519565b815460018101835560009283526020909220909160030201612af382826146e6565b50505b80612b0081614163565b915050612514565b506000816001600160401b03811115612b2357612b2361396b565b604051908082528060200260200182016040528015612b5657816020015b6060815260200190600190039081612b415790505b5090506000805b85811015612cde576001878783818110612b7957612b79613fb9565b9050602002810190612b8b9190614519565b612b99906020810190614546565b6002811115612baa57612baa613aa4565b1415612ccc57896001600160601b03166001600160401b03811115612bd157612bd161396b565b604051908082528060200260200182016040528015612bfa578160200160208202803683370190505b50838381518110612c0d57612c0d613fb9565b602002602001018190525060005b8a6001600160601b0316811015612cbd57878783818110612c3e57612c3e613fb9565b9050602002810190612c509190614519565b612c5e906080810190614213565b82818110612c6e57612c6e613fb9565b90506020020135848481518110612c8757612c87613fb9565b60200260200101518281518110612ca057612ca0613fb9565b602090810291909101015280612cb581614163565b915050612c1b565b5081612cc881614163565b9250505b80612cd681614163565b915050612b5d565b506001600160601b03891615612cf857612cf88983612f61565b336001600160a01b03167fa0debf7c9ca45a90f258771b745e3ecfedce2c567503855e392d93e1c7a734b589898989604051612d379493929190614929565b60405180910390a25050508015612d88576000805461ff0019169055604051600181527f7f26b83ff96e1f2b6a682f133852f6798a09c465da95921460cefb38474024989060200160405180910390a15b5050505050505050565b6001600160a01b03163b151590565b600080516020614a5c833981519152546001600160a01b031690565b60fb546001600160a01b031633146106595760405162461bcd60e51b81526004016105d390614067565b7f4910fdfa16fed3260ed0e7147f7cc6da11a60208b5b9406d12a635614ffd91435460ff1615612e1a576108d683613452565b826001600160a01b03166352d1902d6040518163ffffffff1660e01b815260040160206040518083038186803b158015612e5357600080fd5b505afa925050508015612e83575060408051601f3d908101601f19168201909252612e809181019061419d565b60015b612ee65760405162461bcd60e51b815260206004820152602e60248201527f45524331393637557067726164653a206e657720696d706c656d656e7461746960448201526d6f6e206973206e6f74205555505360901b60648201526084016105d3565b600080516020614a5c8339815191528114612f555760405162461bcd60e51b815260206004820152602960248201527f45524331393637557067726164653a20756e737570706f727465642070726f786044820152681a58589b195555525160ba1b60648201526084016105d3565b506108d68383836134ee565b6000826001600160601b031611612fce5760405162461bcd60e51b815260206004820152602b60248201527f437261667465725472616e736665723a206465706f736974416d6f756e74206360448201526a616e6e6f7420626520302160a81b60648201526084016105d3565b6000805b610193548110156132575760006101938281548110612ff357612ff3613fb9565b6000918252602090912060039091020190506001815460ff16600281111561301d5761301d613aa4565b141561324457846001600160601b031684848151811061303f5761303f613fb9565b602002602001015151146130a35760405162461bcd60e51b815260206004820152602560248201527f5f6f7574707574734552433732314964735b695d20213d206465706f736974416044820152641b5bdd5b9d60da1b60648201526084016105d3565b60005b8484815181106130b8576130b8613fb9565b602002602001015151811015613235578160000160029054906101000a90046001600160a01b03166001600160a01b0316634f558e7986868151811061310057613100613fb9565b6020026020010151838151811061311957613119613fb9565b60200260200101516040518263ffffffff1660e01b815260040161313f91815260200190565b60206040518083038186803b15801561315757600080fd5b505afa15801561316b573d6000803e3d6000fd5b505050506040513d601f19601f8201168201806040525081019061318f9190614950565b156131d55760405162461bcd60e51b81526020600482015260166024820152751d1bdad95b925908185b1c9958591e481b5a5b9d195960521b60448201526064016105d3565b816002018585815181106131eb576131eb613fb9565b6020026020010151828151811061320457613204613fb9565b602090810291909101810151825460018101845560009384529190922001558061322d81614163565b9150506130a6565b506132416001846142c5565b92505b508061324f81614163565b915050612fd2565b508261019160148282829054906101000a90046001600160601b031661327d9190614972565b82546101009290920a6001600160601b0381810219909316918316021790915561019154604051600160a01b90910490911681527f36ca321cf0c7fde128087be822283a7ca898c8a5ef818e4e079d29ab777319ff915060200160405180910390a1505050565b60fb80546001600160a01b038381166001600160a01b0319831681179093556040519116919082907f8be0079c531659141344cd1fd0a4f28419497f9722a3daafe3b4186f6b6457e090600090a35050565b604080516001600160a01b0385811660248301528416604482015260648082018490528251808303909101815260849091019091526020810180516001600160e01b03166323b872dd60e01b179052613390908590613513565b50505050565b60008054610100900460ff16156133dd578160ff1660011480156133b95750303b155b6133d55760405162461bcd60e51b81526004016105d39061499d565b506000919050565b60005460ff8084169116106134045760405162461bcd60e51b81526004016105d39061499d565b506000805460ff191660ff92909216919091179055600190565b919050565b600054610100900460ff1661344a5760405162461bcd60e51b81526004016105d3906149eb565b6109c26135e5565b6001600160a01b0381163b6134bf5760405162461bcd60e51b815260206004820152602d60248201527f455243313936373a206e657720696d706c656d656e746174696f6e206973206e60448201526c1bdd08184818dbdb9d1c9858dd609a1b60648201526084016105d3565b600080516020614a5c83398151915280546001600160a01b0319166001600160a01b0392909216919091179055565b6134f783613615565b6000825111806135045750805b156108d6576133908383613655565b6000613568826040518060400160405280602081526020017f5361666545524332303a206c6f772d6c6576656c2063616c6c206661696c6564815250856001600160a01b03166137499092919063ffffffff16565b8051909150156108d657808060200190518101906135869190614950565b6108d65760405162461bcd60e51b815260206004820152602a60248201527f5361666545524332303a204552433230206f7065726174696f6e20646964206e6044820152691bdd081cdd58d8d9595960b21b60648201526084016105d3565b600054610100900460ff1661360c5760405162461bcd60e51b81526004016105d3906149eb565b6109c2336132e4565b61361e81613452565b6040516001600160a01b038216907fbc7cd75a20ee27fd9adebab32041f755214dbc6bffa90cc0225b39da2e5c2d3b90600090a250565b60606001600160a01b0383163b6136bd5760405162461bcd60e51b815260206004820152602660248201527f416464726573733a2064656c65676174652063616c6c20746f206e6f6e2d636f6044820152651b9d1c9858dd60d21b60648201526084016105d3565b600080846001600160a01b0316846040516136d89190614a36565b600060405180830381855af49150503d8060008114613713576040519150601f19603f3d011682016040523d82523d6000602084013e613718565b606091505b50915091506137408282604051806060016040528060278152602001614a7c60279139613762565b95945050505050565b6060613758848460008561379b565b90505b9392505050565b6060831561377157508161375b565b8251156137815782518084602001fd5b8160405162461bcd60e51b81526004016105d39190614a48565b6060824710156137fc5760405162461bcd60e51b815260206004820152602660248201527f416464726573733a20696e73756666696369656e742062616c616e636520666f6044820152651c8818d85b1b60d21b60648201526084016105d3565b6001600160a01b0385163b6138535760405162461bcd60e51b815260206004820152601d60248201527f416464726573733a2063616c6c20746f206e6f6e2d636f6e747261637400000060448201526064016105d3565b600080866001600160a01b0316858760405161386f9190614a36565b60006040518083038185875af1925050503d80600081146138ac576040519150601f19603f3d011682016040523d82523d6000602084013e6138b1565b606091505b50915091506138c1828286613762565b979650505050505050565b828054828255906000526020600020908101928215613907579160200282015b828111156139075782518255916020019190600101906138ec565b50613913929150613917565b5090565b5b808211156139135760008155600101613918565b60006020828403121561393e57600080fd5b81356001600160e01b03198116811461375b57600080fd5b6001600160a01b038116811461065957600080fd5b634e487b7160e01b600052604160045260246000fd5b604051601f8201601f191681016001600160401b03811182821017156139a9576139a961396b565b604052919050565b600082601f8301126139c257600080fd5b81356001600160401b038111156139db576139db61396b565b6139ee601f8201601f1916602001613981565b818152846020838601011115613a0357600080fd5b816020850160208301376000918101602001919091529392505050565b60008060008060808587031215613a3657600080fd5b8435613a4181613956565b93506020850135613a5181613956565b92506040850135915060608501356001600160401b03811115613a7357600080fd5b613a7f878288016139b1565b91505092959194509250565b600060208284031215613a9d57600080fd5b5035919050565b634e487b7160e01b600052602160045260246000fd5b60038110613aca57613aca613aa4565b9052565b60048110613aca57613aca613aa4565b600081518084526020808501945080840160005b83811015613b0e57815187529582019590820190600101613af2565b509495945050505050565b613b238187613aba565b613b306020820186613ace565b6001600160a01b038416604082015260a060608201819052600090613b5790830185613ade565b8281036080840152613b698185613ade565b98975050505050505050565b600060208284031215613b8757600080fd5b813561375b81613956565b60008060408385031215613ba557600080fd5b8235613bb081613956565b915060208301356001600160401b03811115613bcb57600080fd5b613bd7858286016139b1565b9150509250929050565b60006020808301818452808551808352604092508286019150828160051b87010184880160005b83811015613c9457603f19898403018552815160a0613c28858351613aba565b88820151613c388a870182613ace565b50818801516001600160a01b031685890152606080830151818701839052613c6283880182613ade565b9250505060808083015192508582038187015250613c808183613ade565b968901969450505090860190600101613c08565b509098975050505050505050565b80356001600160601b038116811461341e57600080fd5b60008083601f840112613ccb57600080fd5b5081356001600160401b03811115613ce257600080fd5b6020830191508360208260051b8501011115613cfd57600080fd5b9250929050565b600080600060408486031215613d1957600080fd5b613d2284613ca2565b925060208401356001600160401b03811115613d3d57600080fd5b613d4986828701613cb9565b9497909650939450505050565b60006001600160401b03821115613d6f57613d6f61396b565b5060051b60200190565b600082601f830112613d8a57600080fd5b81356020613d9f613d9a83613d56565b613981565b82815260059290921b84018101918181019086841115613dbe57600080fd5b8286015b84811015613dd95780358352918301918301613dc2565b509695505050505050565b600080600080600060a08688031215613dfc57600080fd5b8535613e0781613956565b94506020860135613e1781613956565b935060408601356001600160401b0380821115613e3357600080fd5b613e3f89838a01613d79565b94506060880135915080821115613e5557600080fd5b613e6189838a01613d79565b93506080880135915080821115613e7757600080fd5b50613e84888289016139b1565b9150509295509295909350565b600060208284031215613ea357600080fd5b61375b82613ca2565b600080600080600060a08688031215613ec457600080fd5b8535613ecf81613956565b94506020860135613edf81613956565b9350604086013592506060860135915060808601356001600160401b03811115613f0857600080fd5b613e84888289016139b1565b600080600080600080600060a0888a031215613f2f57600080fd5b8735613f3a81613956565b96506020880135613f4a81613956565b9550613f5860408901613ca2565b945060608801356001600160401b0380821115613f7457600080fd5b613f808b838c01613cb9565b909650945060808a0135915080821115613f9957600080fd5b50613fa68a828b01613cb9565b989b979a50959850939692959293505050565b634e487b7160e01b600052603260045260246000fd5b6020808252602c908201527f46756e6374696f6e206d7573742062652063616c6c6564207468726f7567682060408201526b19195b1959d85d1958d85b1b60a21b606082015260800190565b6020808252602c908201527f46756e6374696f6e206d7573742062652063616c6c6564207468726f7567682060408201526b6163746976652070726f787960a01b606082015260800190565b6020808252818101527f4f776e61626c653a2063616c6c6572206973206e6f7420746865206f776e6572604082015260600190565b60006140aa613d9a84613d56565b80848252602080830192508560051b8501368111156140c857600080fd5b855b818110156141035780356001600160401b038111156140e95760008081fd5b6140f536828a01613d79565b8652509382019382016140ca565b50919695505050505050565b634e487b7160e01b600052601160045260246000fd5b60006001600160601b03838116908316818110156141455761414561410f565b039392505050565b634e487b7160e01b600052603160045260246000fd5b60006000198214156141775761417761410f565b5060010190565b60008160001904831182151516156141985761419861410f565b500290565b6000602082840312156141af57600080fd5b5051919050565b60208082526037908201527f437261667465725472616e736665723a2055736572206d697373696e67206d6960408201527f6e696d756d20746f6b656e2062616c616e636528732921000000000000000000606082015260800190565b6000808335601e1984360301811261422a57600080fd5b8301803591506001600160401b0382111561424457600080fd5b6020019150600581901b3603821315613cfd57600080fd5b60006020828403121561426e57600080fd5b815161375b81613956565b6020808252602c908201527f437261667465725472616e736665723a205573657220646f6573206e6f74206f60408201526b776e20746f6b656e2873292160a01b606082015260800190565b600082198211156142d8576142d861410f565b500190565b6000815480845260208085019450836000528060002060005b83811015613b0e578154875295820195600191820191016142f6565b60005b8381101561432d578181015183820152602001614315565b838111156133905750506000910152565b60008151808452614356816020860160208601614312565b601f01601f19169290920160200192915050565b6001600160a01b0386811682528516602082015260a060408201819052600090614396908301866142dd565b82810360608401526143a88186613ade565b90508281036080840152613b69818561433e565b604080825283519082018190526000906020906060840190828701845b828110156143fe5781516001600160a01b0316845292840192908401906001016143d9565b5050508381038285015261441281866142dd565b9695505050505050565b6000602080838503121561442f57600080fd5b82516001600160401b0381111561444557600080fd5b8301601f8101851361445657600080fd5b8051614464613d9a82613d56565b81815260059190911b8201830190838101908783111561448357600080fd5b928401925b828410156138c157835182529284019290840190614488565b6000828210156144b3576144b361410f565b500390565b6000816144c7576144c761410f565b506000190190565b6001600160a01b03851681526080602082018190526000906144f3908301866142dd565b82810360408401526145058186613ade565b905082810360608401526138c1818561433e565b60008235609e1983360301811261452f57600080fd5b9190910192915050565b6003811061065957600080fd5b60006020828403121561455857600080fd5b813561375b81614539565b60208082526025908201527f437261667465725472616e736665723a20746f6b656e6964732e6c656e677468604082015264020213d20360dc1b606082015260800190565b6020808252602490820152600080516020614aa3833981519152604082015263213d203160e01b606082015260800190565b6004811061065957600080fd5b6000602082840312156145f957600080fd5b813561375b816145da565b60208082526032908201527f437261667465725472616e736665723a20746f6b656e6964732e6c656e677468604082015271040427a40c2dadeeadce8e65cd8cadccee8d60731b606082015260800190565b6000813561047281613956565b6801000000000000000083111561467c5761467c61396b565b8054838255808410156146b3576000828152602081208581019083015b808210156146af57828255600182019150614699565b5050505b5060008181526020812083915b858110156146de5782358255602090920191600191820191016146c0565b505050505050565b81356146f181614539565b6003811061470157614701613aa4565b815460ff821691508160ff1982161783556020840135614720816145da565b6004811061473057614730613aa4565b61ff008160081b168361ffff1984161717845550505061477d61475560408401614656565b82805462010000600160b01b03191660109290921b62010000600160b01b0316919091179055565b61478a6060830183614213565b614798818360018601614663565b50506147a76080830183614213565b613390818360028601614663565b6000808335601e198436030181126147cc57600080fd5b83016020810192503590506001600160401b038111156147eb57600080fd5b8060051b3603831315613cfd57600080fd5b81835260006001600160fb1b0383111561481657600080fd5b8260051b8083602087013760009401602001938452509192915050565b81835260006020808501808196508560051b81019150846000805b8881101561491b578385038a528235609e1989360301811261486e578283fd5b880160a0813561487d81614539565b6148878882613aba565b5087820135614895816145da565b6148a189890182613ace565b506040808301356148b181613956565b6001600160a01b03169088015260606148cc838201846147b5565b83838b01526148de848b0182846147fd565b935050505060806148f1818401846147b5565b9350888303828a01526149058385836147fd565b9d8a019d9850505093870193505060010161484e565b509298975050505050505050565b60408152600061493d604083018688614833565b82810360208401526138c1818587614833565b60006020828403121561496257600080fd5b8151801515811461375b57600080fd5b60006001600160601b038083168185168083038211156149945761499461410f565b01949350505050565b6020808252602e908201527f496e697469616c697a61626c653a20636f6e747261637420697320616c72656160408201526d191e481a5b9a5d1a585b1a5e995960921b606082015260800190565b6020808252602b908201527f496e697469616c697a61626c653a20636f6e7472616374206973206e6f74206960408201526a6e697469616c697a696e6760a81b606082015260800190565b6000825161452f818460208701614312565b60208152600061375b602083018461433e56fe360894a13ba1a3210667c828492db98dca3e2076cc3735a920a3ca505d382bbc416464726573733a206c6f772d6c6576656c2064656c65676174652063616c6c206661696c6564437261667465725472616e736665723a20616d6f756e74732e6c656e67746820a2646970667358221220aed6b108c167db229a04f39065e8a906eed34a19061011319f48561e0975239364736f6c63430008090033496e697469616c697a61626c653a20636f6e747261637420697320616c726561",
  "devdoc": {
    "details": "Pluggable Crafting Contract.",
    "kind": "dev",
    "methods": {
      "constructor": {
        "custom:oz-upgrades-unsafe-allow": "constructor"
      },
      "craft(uint96,uint256[][])": {
        "details": "Used to craft. Consumes inputs and transfers outputs.",
        "params": {
          "_inputERC721Ids": "Array of pre-approved NFTs for crafting usage.",
          "craftAmount": "How many times to craft"
        }
      },
      "deposit(uint96,uint256[][])": {
        "details": "Used to deposit recipe outputs.",
        "params": {
          "_outputsERC721Ids": "2D-array of ERC721 tokens used in crafting",
          "depositAmount": "How many times the recipe should be craftable"
        }
      },
      "getInputIngredient(uint256)": {
        "details": "Returns all details for a specific ingredient (including amounts/tokenIds)",
        "params": {
          "index": "ingredient index to return details for"
        },
        "returns": {
          "amounts": "amount of each token",
          "consumableType": "consumable type",
          "contractAddr": "token contract address",
          "token": "token type",
          "tokenIds": "token ids"
        }
      },
      "getInputs()": {
        "details": "Returns all inputs (without `amounts` or `tokenIds`)"
      },
      "getOutputIngredient(uint256)": {
        "details": "Returns all details for a specific ingredient (including amounts/tokenIds)",
        "params": {
          "index": "ingredient index to return details for"
        },
        "returns": {
          "amounts": "amount of each token",
          "consumableType": "consumable type",
          "contractAddr": "token contract address",
          "token": "token type",
          "tokenIds": "token ids"
        }
      },
      "getOutputs()": {
        "details": "Returns all outputs (without `amounts` or `tokenIds`)"
      },
      "initialize(address,address,uint96,(uint8,uint8,address,uint256[],uint256[])[],(uint8,uint8,address,uint256[],uint256[])[])": {
        "details": "Configures crafting recipe with inputs/outputs",
        "params": {
          "_burnAddress": "Burn address for burn inputs",
          "_inputs": "inputs for recipe",
          "_outputs": "outputs for recipe"
        }
      },
      "onERC721Received(address,address,uint256,bytes)": {
        "details": "See {IERC721Receiver-onERC721Received}. Always returns `IERC721Receiver.onERC721Received.selector`."
      },
      "owner()": {
        "details": "Returns the address of the current owner."
      },
      "proxiableUUID()": {
        "details": "Implementation of the ERC1822 {proxiableUUID} function. This returns the storage slot used by the implementation. It is used to validate that the this implementation remains valid after an upgrade. IMPORTANT: A proxy pointing at a proxiable contract should not be considered proxiable itself, because this risks bricking a proxy that upgrades to it, by delegating to itself until out of gas. Thus it is critical that this function revert if invoked through a proxy. This is guaranteed by the `notDelegated` modifier."
      },
      "renounceOwnership()": {
        "details": "Leaves the contract without owner. It will not be possible to call `onlyOwner` functions anymore. Can only be called by the current owner. NOTE: Renouncing ownership will leave the contract without an owner, thereby removing any functionality that is only available to the owner."
      },
      "supportsInterface(bytes4)": {
        "details": "See {IERC165-supportsInterface}."
      },
      "transferOwnership(address)": {
        "details": "Transfers ownership of the contract to a new account (`newOwner`). Can only be called by the current owner."
      },
      "upgradeTo(address)": {
        "details": "Upgrade the implementation of the proxy to `newImplementation`. Calls {_authorizeUpgrade}. Emits an {Upgraded} event."
      },
      "upgradeToAndCall(address,bytes)": {
        "details": "Upgrade the implementation of the proxy to `newImplementation`, and subsequently execute the function call encoded in `data`. Calls {_authorizeUpgrade}. Emits an {Upgraded} event."
      },
      "withdraw(uint96)": {
        "details": "Used to withdraw recipe outputs. Reverse logic as deposit().",
        "params": {
          "withdrawAmount": "How many times the craft outputs should be withdrawn"
        }
      }
    },
    "version": 1
  },
  "userdoc": {
    "kind": "user",
    "methods": {
      "craft(uint96,uint256[][])": {
        "notice": "Craft {craftAmount}"
      },
      "deposit(uint96,uint256[][])": {
        "notice": "Must be recipe creator. Automatically sends from `msg.sender`"
      },
      "initialize(address,address,uint96,(uint8,uint8,address,uint256[],uint256[])[],(uint8,uint8,address,uint256[],uint256[])[])": {
        "notice": "Create recipe"
      },
      "withdraw(uint96)": {
        "notice": "Must be recipe creator"
      }
    },
    "version": 1
  },
  "storageLayout": {
    "storage": [
      {
        "astId": 1012,
        "contract": "contracts/plugins/Crafter/CrafterMint.sol:CrafterMint",
        "label": "_initialized",
        "offset": 0,
        "slot": "0",
        "type": "t_uint8"
      },
      {
        "astId": 1015,
        "contract": "contracts/plugins/Crafter/CrafterMint.sol:CrafterMint",
        "label": "_initializing",
        "offset": 1,
        "slot": "0",
        "type": "t_bool"
      },
      {
        "astId": 5070,
        "contract": "contracts/plugins/Crafter/CrafterMint.sol:CrafterMint",
        "label": "__gap",
        "offset": 0,
        "slot": "1",
        "type": "t_array(t_uint256)50_storage"
      },
      {
        "astId": 5662,
        "contract": "contracts/plugins/Crafter/CrafterMint.sol:CrafterMint",
        "label": "__gap",
        "offset": 0,
        "slot": "51",
        "type": "t_array(t_uint256)50_storage"
      },
      {
        "astId": 2919,
        "contract": "contracts/plugins/Crafter/CrafterMint.sol:CrafterMint",
        "label": "__gap",
        "offset": 0,
        "slot": "101",
        "type": "t_array(t_uint256)50_storage"
      },
      {
        "astId": 2865,
        "contract": "contracts/plugins/Crafter/CrafterMint.sol:CrafterMint",
        "label": "__gap",
        "offset": 0,
        "slot": "151",
        "type": "t_array(t_uint256)50_storage"
      },
      {
        "astId": 5355,
        "contract": "contracts/plugins/Crafter/CrafterMint.sol:CrafterMint",
        "label": "__gap",
        "offset": 0,
        "slot": "201",
        "type": "t_array(t_uint256)50_storage"
      },
      {
        "astId": 423,
        "contract": "contracts/plugins/Crafter/CrafterMint.sol:CrafterMint",
        "label": "_owner",
        "offset": 0,
        "slot": "251",
        "type": "t_address"
      },
      {
        "astId": 535,
        "contract": "contracts/plugins/Crafter/CrafterMint.sol:CrafterMint",
        "label": "__gap",
        "offset": 0,
        "slot": "252",
        "type": "t_array(t_uint256)49_storage"
      },
      {
        "astId": 994,
        "contract": "contracts/plugins/Crafter/CrafterMint.sol:CrafterMint",
        "label": "__gap",
        "offset": 0,
        "slot": "301",
        "type": "t_array(t_uint256)50_storage"
      },
      {
        "astId": 1282,
        "contract": "contracts/plugins/Crafter/CrafterMint.sol:CrafterMint",
        "label": "__gap",
        "offset": 0,
        "slot": "351",
        "type": "t_array(t_uint256)50_storage"
      },
      {
        "astId": 9985,
        "contract": "contracts/plugins/Crafter/CrafterMint.sol:CrafterMint",
        "label": "burnAddress",
        "offset": 0,
        "slot": "401",
        "type": "t_address"
      },
      {
        "astId": 9987,
        "contract": "contracts/plugins/Crafter/CrafterMint.sol:CrafterMint",
        "label": "craftableAmount",
        "offset": 20,
        "slot": "401",
        "type": "t_uint96"
      },
      {
        "astId": 9991,
        "contract": "contracts/plugins/Crafter/CrafterMint.sol:CrafterMint",
        "label": "inputs",
        "offset": 0,
        "slot": "402",
        "type": "t_array(t_struct(Ingredient)9931_storage)dyn_storage"
      },
      {
        "astId": 9995,
        "contract": "contracts/plugins/Crafter/CrafterMint.sol:CrafterMint",
        "label": "outputs",
        "offset": 0,
        "slot": "403",
        "type": "t_array(t_struct(Ingredient)9931_storage)dyn_storage"
      },
      {
        "astId": 9999,
        "contract": "contracts/plugins/Crafter/CrafterMint.sol:CrafterMint",
        "label": "nUse",
        "offset": 0,
        "slot": "404",
        "type": "t_mapping(t_uint256,t_uint256)"
      },
      {
        "astId": 10005,
        "contract": "contracts/plugins/Crafter/CrafterMint.sol:CrafterMint",
        "label": "usedERC721Inputs",
        "offset": 0,
        "slot": "405",
        "type": "t_mapping(t_address,t_mapping(t_uint256,t_uint256))"
      }
    ],
    "types": {
      "t_address": {
        "encoding": "inplace",
        "label": "address",
        "numberOfBytes": "20"
      },
      "t_array(t_struct(Ingredient)9931_storage)dyn_storage": {
        "base": "t_struct(Ingredient)9931_storage",
        "encoding": "dynamic_array",
        "label": "struct CraftLib.Ingredient[]",
        "numberOfBytes": "32"
      },
      "t_array(t_uint256)49_storage": {
        "base": "t_uint256",
        "encoding": "inplace",
        "label": "uint256[49]",
        "numberOfBytes": "1568"
      },
      "t_array(t_uint256)50_storage": {
        "base": "t_uint256",
        "encoding": "inplace",
        "label": "uint256[50]",
        "numberOfBytes": "1600"
      },
      "t_array(t_uint256)dyn_storage": {
        "base": "t_uint256",
        "encoding": "dynamic_array",
        "label": "uint256[]",
        "numberOfBytes": "32"
      },
      "t_bool": {
        "encoding": "inplace",
        "label": "bool",
        "numberOfBytes": "1"
      },
      "t_enum(ConsumableType)9912": {
        "encoding": "inplace",
        "label": "enum CraftLib.ConsumableType",
        "numberOfBytes": "1"
      },
      "t_enum(TokenType)9916": {
        "encoding": "inplace",
        "label": "enum CraftLib.TokenType",
        "numberOfBytes": "1"
      },
      "t_mapping(t_address,t_mapping(t_uint256,t_uint256))": {
        "encoding": "mapping",
        "key": "t_address",
        "label": "mapping(address => mapping(uint256 => uint256))",
        "numberOfBytes": "32",
        "value": "t_mapping(t_uint256,t_uint256)"
      },
      "t_mapping(t_uint256,t_uint256)": {
        "encoding": "mapping",
        "key": "t_uint256",
        "label": "mapping(uint256 => uint256)",
        "numberOfBytes": "32",
        "value": "t_uint256"
      },
      "t_struct(Ingredient)9931_storage": {
        "encoding": "inplace",
        "label": "struct CraftLib.Ingredient",
        "members": [
          {
            "astId": 9919,
            "contract": "contracts/plugins/Crafter/CrafterMint.sol:CrafterMint",
            "label": "token",
            "offset": 0,
            "slot": "0",
            "type": "t_enum(TokenType)9916"
          },
          {
            "astId": 9922,
            "contract": "contracts/plugins/Crafter/CrafterMint.sol:CrafterMint",
            "label": "consumableType",
            "offset": 1,
            "slot": "0",
            "type": "t_enum(ConsumableType)9912"
          },
          {
            "astId": 9924,
            "contract": "contracts/plugins/Crafter/CrafterMint.sol:CrafterMint",
            "label": "contractAddr",
            "offset": 2,
            "slot": "0",
            "type": "t_address"
          },
          {
            "astId": 9927,
            "contract": "contracts/plugins/Crafter/CrafterMint.sol:CrafterMint",
            "label": "amounts",
            "offset": 0,
            "slot": "1",
            "type": "t_array(t_uint256)dyn_storage"
          },
          {
            "astId": 9930,
            "contract": "contracts/plugins/Crafter/CrafterMint.sol:CrafterMint",
            "label": "tokenIds",
            "offset": 0,
            "slot": "2",
            "type": "t_array(t_uint256)dyn_storage"
          }
        ],
        "numberOfBytes": "96"
      },
      "t_uint256": {
        "encoding": "inplace",
        "label": "uint256",
        "numberOfBytes": "32"
      },
      "t_uint8": {
        "encoding": "inplace",
        "label": "uint8",
        "numberOfBytes": "1"
      },
      "t_uint96": {
        "encoding": "inplace",
        "label": "uint96",
        "numberOfBytes": "12"
      }
    }
  }
}