{
  "_format": "hh-sol-artifact-1",
  "contractName": "FactoryERC721",
  "sourceName": "contracts/Testing/FactoryERC721.sol",
  "abi": [
    {
      "inputs": [
        {
          "internalType": "string",
          "name": "nftName",
          "type": "string"
        },
        {
          "internalType": "string",
          "name": "nftSymbol",
          "type": "string"
        }
      ],
      "stateMutability": "nonpayable",
      "type": "constructor"
    },
    {
      "anonymous": false,
      "inputs": [
        {
          "indexed": true,
          "internalType": "address",
          "name": "owner",
          "type": "address"
        },
        {
          "indexed": true,
          "internalType": "address",
          "name": "approved",
          "type": "address"
        },
        {
          "indexed": true,
          "internalType": "uint256",
          "name": "tokenId",
          "type": "uint256"
        }
      ],
      "name": "Approval",
      "type": "event"
    },
    {
      "anonymous": false,
      "inputs": [
        {
          "indexed": true,
          "internalType": "address",
          "name": "owner",
          "type": "address"
        },
        {
          "indexed": true,
          "internalType": "address",
          "name": "operator",
          "type": "address"
        },
        {
          "indexed": false,
          "internalType": "bool",
          "name": "approved",
          "type": "bool"
        }
      ],
      "name": "ApprovalForAll",
      "type": "event"
    },
    {
      "anonymous": false,
      "inputs": [
        {
          "indexed": true,
          "internalType": "address",
          "name": "from",
          "type": "address"
        },
        {
          "indexed": true,
          "internalType": "address",
          "name": "to",
          "type": "address"
        },
        {
          "indexed": true,
          "internalType": "uint256",
          "name": "tokenId",
          "type": "uint256"
        }
      ],
      "name": "Transfer",
      "type": "event"
    },
    {
      "inputs": [
        {
          "internalType": "address",
          "name": "to",
          "type": "address"
        },
        {
          "internalType": "uint256",
          "name": "tokenId",
          "type": "uint256"
        }
      ],
      "name": "approve",
      "outputs": [],
      "stateMutability": "nonpayable",
      "type": "function"
    },
    {
      "inputs": [
        {
          "internalType": "address",
          "name": "owner",
          "type": "address"
        }
      ],
      "name": "balanceOf",
      "outputs": [
        {
          "internalType": "uint256",
          "name": "",
          "type": "uint256"
        }
      ],
      "stateMutability": "view",
      "type": "function"
    },
    {
      "inputs": [
        {
          "internalType": "uint256",
          "name": "tokenId",
          "type": "uint256"
        }
      ],
      "name": "getApproved",
      "outputs": [
        {
          "internalType": "address",
          "name": "",
          "type": "address"
        }
      ],
      "stateMutability": "view",
      "type": "function"
    },
    {
      "inputs": [
        {
          "internalType": "address",
          "name": "owner",
          "type": "address"
        },
        {
          "internalType": "address",
          "name": "operator",
          "type": "address"
        }
      ],
      "name": "isApprovedForAll",
      "outputs": [
        {
          "internalType": "bool",
          "name": "",
          "type": "bool"
        }
      ],
      "stateMutability": "view",
      "type": "function"
    },
    {
      "inputs": [
        {
          "internalType": "address",
          "name": "to",
          "type": "address"
        },
        {
          "internalType": "uint256",
          "name": "tokenId",
          "type": "uint256"
        }
      ],
      "name": "mint",
      "outputs": [],
      "stateMutability": "nonpayable",
      "type": "function"
    },
    {
      "inputs": [
        {
          "internalType": "uint256",
          "name": "count",
          "type": "uint256"
        }
      ],
      "name": "mintTokens",
      "outputs": [],
      "stateMutability": "nonpayable",
      "type": "function"
    },
    {
      "inputs": [],
      "name": "name",
      "outputs": [
        {
          "internalType": "string",
          "name": "",
          "type": "string"
        }
      ],
      "stateMutability": "view",
      "type": "function"
    },
    {
      "inputs": [
        {
          "internalType": "uint256",
          "name": "tokenId",
          "type": "uint256"
        }
      ],
      "name": "ownerOf",
      "outputs": [
        {
          "internalType": "address",
          "name": "",
          "type": "address"
        }
      ],
      "stateMutability": "view",
      "type": "function"
    },
    {
      "inputs": [
        {
          "internalType": "address",
          "name": "to",
          "type": "address"
        },
        {
          "internalType": "uint256",
          "name": "tokenId",
          "type": "uint256"
        }
      ],
      "name": "safeMint",
      "outputs": [],
      "stateMutability": "nonpayable",
      "type": "function"
    },
    {
      "inputs": [
        {
          "internalType": "address",
          "name": "from",
          "type": "address"
        },
        {
          "internalType": "address",
          "name": "to",
          "type": "address"
        },
        {
          "internalType": "uint256",
          "name": "tokenId",
          "type": "uint256"
        }
      ],
      "name": "safeTransferFrom",
      "outputs": [],
      "stateMutability": "nonpayable",
      "type": "function"
    },
    {
      "inputs": [
        {
          "internalType": "address",
          "name": "from",
          "type": "address"
        },
        {
          "internalType": "address",
          "name": "to",
          "type": "address"
        },
        {
          "internalType": "uint256",
          "name": "tokenId",
          "type": "uint256"
        },
        {
          "internalType": "bytes",
          "name": "_data",
          "type": "bytes"
        }
      ],
      "name": "safeTransferFrom",
      "outputs": [],
      "stateMutability": "nonpayable",
      "type": "function"
    },
    {
      "inputs": [
        {
          "internalType": "address",
          "name": "operator",
          "type": "address"
        },
        {
          "internalType": "bool",
          "name": "approved",
          "type": "bool"
        }
      ],
      "name": "setApprovalForAll",
      "outputs": [],
      "stateMutability": "nonpayable",
      "type": "function"
    },
    {
      "inputs": [
        {
          "internalType": "bytes4",
          "name": "interfaceId",
          "type": "bytes4"
        }
      ],
      "name": "supportsInterface",
      "outputs": [
        {
          "internalType": "bool",
          "name": "",
          "type": "bool"
        }
      ],
      "stateMutability": "view",
      "type": "function"
    },
    {
      "inputs": [],
      "name": "symbol",
      "outputs": [
        {
          "internalType": "string",
          "name": "",
          "type": "string"
        }
      ],
      "stateMutability": "view",
      "type": "function"
    },
    {
      "inputs": [
        {
          "internalType": "uint256",
          "name": "tokenId",
          "type": "uint256"
        }
      ],
      "name": "tokenURI",
      "outputs": [
        {
          "internalType": "string",
          "name": "",
          "type": "string"
        }
      ],
      "stateMutability": "view",
      "type": "function"
    },
    {
      "inputs": [
        {
          "internalType": "address",
          "name": "from",
          "type": "address"
        },
        {
          "internalType": "address",
          "name": "to",
          "type": "address"
        },
        {
          "internalType": "uint256",
          "name": "tokenId",
          "type": "uint256"
        }
      ],
      "name": "transferFrom",
      "outputs": [],
      "stateMutability": "nonpayable",
      "type": "function"
    }
  ],
  "bytecode": "0x608060405260006006553480156200001657600080fd5b5060405162002b6238038062002b6283398181016040528101906200003c91906200019c565b81818160009080519060200190620000569291906200007a565b5080600190805190602001906200006f9291906200007a565b50505050506200037f565b8280546200008890620002a4565b90600052602060002090601f016020900481019282620000ac5760008555620000f8565b82601f10620000c757805160ff1916838001178555620000f8565b82800160010185558215620000f8579182015b82811115620000f7578251825591602001919060010190620000da565b5b5090506200010791906200010b565b5090565b5b80821115620001265760008160009055506001016200010c565b5090565b6000620001416200013b8462000238565b6200020f565b9050828152602081018484840111156200015a57600080fd5b620001678482856200026e565b509392505050565b600082601f8301126200018157600080fd5b8151620001938482602086016200012a565b91505092915050565b60008060408385031215620001b057600080fd5b600083015167ffffffffffffffff811115620001cb57600080fd5b620001d9858286016200016f565b925050602083015167ffffffffffffffff811115620001f757600080fd5b62000205858286016200016f565b9150509250929050565b60006200021b6200022e565b9050620002298282620002da565b919050565b6000604051905090565b600067ffffffffffffffff8211156200025657620002556200033f565b5b62000261826200036e565b9050602081019050919050565b60005b838110156200028e57808201518184015260208101905062000271565b838111156200029e576000848401525b50505050565b60006002820490506001821680620002bd57607f821691505b60208210811415620002d457620002d362000310565b5b50919050565b620002e5826200036e565b810181811067ffffffffffffffff821117156200030757620003066200033f565b5b80604052505050565b7f4e487b7100000000000000000000000000000000000000000000000000000000600052602260045260246000fd5b7f4e487b7100000000000000000000000000000000000000000000000000000000600052604160045260246000fd5b6000601f19601f8301169050919050565b6127d3806200038f6000396000f3fe608060405234801561001057600080fd5b50600436106101005760003560e01c806370a0823111610097578063a22cb46511610066578063a22cb465146102a9578063b88d4fde146102c5578063c87b56dd146102e1578063e985e9c51461031157610100565b806370a082311461022357806395d89b411461025357806397304ced14610271578063a14481941461028d57610100565b806323b872dd116100d357806323b872dd1461019f57806340c10f19146101bb57806342842e0e146101d75780636352211e146101f357610100565b806301ffc9a71461010557806306fdde0314610135578063081812fc14610153578063095ea7b314610183575b600080fd5b61011f600480360381019061011a91906119d5565b610341565b60405161012c9190611d95565b60405180910390f35b61013d610423565b60405161014a9190611db0565b60405180910390f35b61016d60048036038101906101689190611a27565b6104b5565b60405161017a9190611d2e565b60405180910390f35b61019d60048036038101906101989190611999565b61053a565b005b6101b960048036038101906101b49190611893565b610652565b005b6101d560048036038101906101d09190611999565b6106b2565b005b6101f160048036038101906101ec9190611893565b6106c0565b005b61020d60048036038101906102089190611a27565b6106e0565b60405161021a9190611d2e565b60405180910390f35b61023d6004803603810190610238919061182e565b610792565b60405161024a9190611f92565b60405180910390f35b61025b61084a565b6040516102689190611db0565b60405180910390f35b61028b60048036038101906102869190611a27565b6108dc565b005b6102a760048036038101906102a29190611999565b61091c565b005b6102c360048036038101906102be919061195d565b61092a565b005b6102df60048036038101906102da91906118e2565b610940565b005b6102fb60048036038101906102f69190611a27565b6109a2565b6040516103089190611db0565b60405180910390f35b61032b60048036038101906103269190611857565b610a49565b6040516103389190611d95565b60405180910390f35b60007f80ac58cd000000000000000000000000000000000000000000000000000000007bffffffffffffffffffffffffffffffffffffffffffffffffffffffff1916827bffffffffffffffffffffffffffffffffffffffffffffffffffffffff1916148061040c57507f5b5e139f000000000000000000000000000000000000000000000000000000007bffffffffffffffffffffffffffffffffffffffffffffffffffffffff1916827bffffffffffffffffffffffffffffffffffffffffffffffffffffffff1916145b8061041c575061041b82610add565b5b9050919050565b606060008054610432906121b7565b80601f016020809104026020016040519081016040528092919081815260200182805461045e906121b7565b80156104ab5780601f10610480576101008083540402835291602001916104ab565b820191906000526020600020905b81548152906001019060200180831161048e57829003601f168201915b5050505050905090565b60006104c082610b47565b6104ff576040517f08c379a00000000000000000000000000000000000000000000000000000000081526004016104f690611f12565b60405180910390fd5b6004600083815260200190815260200160002060009054906101000a900473ffffffffffffffffffffffffffffffffffffffff169050919050565b6000610545826106e0565b90508073ffffffffffffffffffffffffffffffffffffffff168373ffffffffffffffffffffffffffffffffffffffff1614156105b6576040517f08c379a00000000000000000000000000000000000000000000000000000000081526004016105ad90611f52565b60405180910390fd5b8073ffffffffffffffffffffffffffffffffffffffff166105d5610bb3565b73ffffffffffffffffffffffffffffffffffffffff1614806106045750610603816105fe610bb3565b610a49565b5b610643576040517f08c379a000000000000000000000000000000000000000000000000000000000815260040161063a90611e92565b60405180910390fd5b61064d8383610bbb565b505050565b61066361065d610bb3565b82610c74565b6106a2576040517f08c379a000000000000000000000000000000000000000000000000000000000815260040161069990611f72565b60405180910390fd5b6106ad838383610d52565b505050565b6106bc8282610fb9565b5050565b6106db83838360405180602001604052806000815250610940565b505050565b6000806002600084815260200190815260200160002060009054906101000a900473ffffffffffffffffffffffffffffffffffffffff169050600073ffffffffffffffffffffffffffffffffffffffff168173ffffffffffffffffffffffffffffffffffffffff161415610789576040517f08c379a000000000000000000000000000000000000000000000000000000000815260040161078090611ed2565b60405180910390fd5b80915050919050565b60008073ffffffffffffffffffffffffffffffffffffffff168273ffffffffffffffffffffffffffffffffffffffff161415610803576040517f08c379a00000000000000000000000000000000000000000000000000000000081526004016107fa90611eb2565b60405180910390fd5b600360008373ffffffffffffffffffffffffffffffffffffffff1673ffffffffffffffffffffffffffffffffffffffff168152602001908152602001600020549050919050565b606060018054610859906121b7565b80601f0160208091040260200160405190810160405280929190818152602001828054610885906121b7565b80156108d25780601f106108a7576101008083540402835291602001916108d2565b820191906000526020600020905b8154815290600101906020018083116108b557829003601f168201915b5050505050905090565b60005b8181101561091857610905336006600081546108fa9061221a565b919050819055610fb9565b80806109109061221a565b9150506108df565b5050565b6109268282611193565b5050565b61093c610935610bb3565b83836111b1565b5050565b61095161094b610bb3565b83610c74565b610990576040517f08c379a000000000000000000000000000000000000000000000000000000000815260040161098790611f72565b60405180910390fd5b61099c8484848461131e565b50505050565b60606109ad82610b47565b6109ec576040517f08c379a00000000000000000000000000000000000000000000000000000000081526004016109e390611f32565b60405180910390fd5b60006109f661137a565b90506000815111610a165760405180602001604052806000815250610a41565b80610a2084611391565b604051602001610a31929190611d0a565b6040516020818303038152906040525b915050919050565b6000600560008473ffffffffffffffffffffffffffffffffffffffff1673ffffffffffffffffffffffffffffffffffffffff16815260200190815260200160002060008373ffffffffffffffffffffffffffffffffffffffff1673ffffffffffffffffffffffffffffffffffffffff16815260200190815260200160002060009054906101000a900460ff16905092915050565b60007f01ffc9a7000000000000000000000000000000000000000000000000000000007bffffffffffffffffffffffffffffffffffffffffffffffffffffffff1916827bffffffffffffffffffffffffffffffffffffffffffffffffffffffff1916149050919050565b60008073ffffffffffffffffffffffffffffffffffffffff166002600084815260200190815260200160002060009054906101000a900473ffffffffffffffffffffffffffffffffffffffff1673ffffffffffffffffffffffffffffffffffffffff1614159050919050565b600033905090565b816004600083815260200190815260200160002060006101000a81548173ffffffffffffffffffffffffffffffffffffffff021916908373ffffffffffffffffffffffffffffffffffffffff160217905550808273ffffffffffffffffffffffffffffffffffffffff16610c2e836106e0565b73ffffffffffffffffffffffffffffffffffffffff167f8c5be1e5ebec7d5bd14f71427d1e84f3dd0314c0f7b2291e5b200ac8c7c3b92560405160405180910390a45050565b6000610c7f82610b47565b610cbe576040517f08c379a0000000000000000000000000000000000000000000000000000000008152600401610cb590611e72565b60405180910390fd5b6000610cc9836106e0565b90508073ffffffffffffffffffffffffffffffffffffffff168473ffffffffffffffffffffffffffffffffffffffff161480610d3857508373ffffffffffffffffffffffffffffffffffffffff16610d20846104b5565b73ffffffffffffffffffffffffffffffffffffffff16145b80610d495750610d488185610a49565b5b91505092915050565b8273ffffffffffffffffffffffffffffffffffffffff16610d72826106e0565b73ffffffffffffffffffffffffffffffffffffffff1614610dc8576040517f08c379a0000000000000000000000000000000000000000000000000000000008152600401610dbf90611df2565b60405180910390fd5b600073ffffffffffffffffffffffffffffffffffffffff168273ffffffffffffffffffffffffffffffffffffffff161415610e38576040517f08c379a0000000000000000000000000000000000000000000000000000000008152600401610e2f90611e32565b60405180910390fd5b610e4383838361153e565b610e4e600082610bbb565b6001600360008573ffffffffffffffffffffffffffffffffffffffff1673ffffffffffffffffffffffffffffffffffffffff1681526020019081526020016000206000828254610e9e91906120cd565b925050819055506001600360008473ffffffffffffffffffffffffffffffffffffffff1673ffffffffffffffffffffffffffffffffffffffff1681526020019081526020016000206000828254610ef59190612046565b92505081905550816002600083815260200190815260200160002060006101000a81548173ffffffffffffffffffffffffffffffffffffffff021916908373ffffffffffffffffffffffffffffffffffffffff160217905550808273ffffffffffffffffffffffffffffffffffffffff168473ffffffffffffffffffffffffffffffffffffffff167fddf252ad1be2c89b69c2b068fc378daa952ba7f163c4a11628f55a4df523b3ef60405160405180910390a4610fb4838383611543565b505050565b600073ffffffffffffffffffffffffffffffffffffffff168273ffffffffffffffffffffffffffffffffffffffff161415611029576040517f08c379a000000000000000000000000000000000000000000000000000000000815260040161102090611ef2565b60405180910390fd5b61103281610b47565b15611072576040517f08c379a000000000000000000000000000000000000000000000000000000000815260040161106990611e12565b60405180910390fd5b61107e6000838361153e565b6001600360008473ffffffffffffffffffffffffffffffffffffffff1673ffffffffffffffffffffffffffffffffffffffff16815260200190815260200160002060008282546110ce9190612046565b92505081905550816002600083815260200190815260200160002060006101000a81548173ffffffffffffffffffffffffffffffffffffffff021916908373ffffffffffffffffffffffffffffffffffffffff160217905550808273ffffffffffffffffffffffffffffffffffffffff16600073ffffffffffffffffffffffffffffffffffffffff167fddf252ad1be2c89b69c2b068fc378daa952ba7f163c4a11628f55a4df523b3ef60405160405180910390a461118f60008383611543565b5050565b6111ad828260405180602001604052806000815250611548565b5050565b8173ffffffffffffffffffffffffffffffffffffffff168373ffffffffffffffffffffffffffffffffffffffff161415611220576040517f08c379a000000000000000000000000000000000000000000000000000000000815260040161121790611e52565b60405180910390fd5b80600560008573ffffffffffffffffffffffffffffffffffffffff1673ffffffffffffffffffffffffffffffffffffffff16815260200190815260200160002060008473ffffffffffffffffffffffffffffffffffffffff1673ffffffffffffffffffffffffffffffffffffffff16815260200190815260200160002060006101000a81548160ff0219169083151502179055508173ffffffffffffffffffffffffffffffffffffffff168373ffffffffffffffffffffffffffffffffffffffff167f17307eab39ab6107e8899845ad3d59bd9653f200f220920489ca2b5937696c31836040516113119190611d95565b60405180910390a3505050565b611329848484610d52565b611335848484846115a3565b611374576040517f08c379a000000000000000000000000000000000000000000000000000000000815260040161136b90611dd2565b60405180910390fd5b50505050565b606060405180602001604052806000815250905090565b606060008214156113d9576040518060400160405280600181526020017f30000000000000000000000000000000000000000000000000000000000000008152509050611539565b600082905060005b6000821461140b5780806113f49061221a565b915050600a82611404919061209c565b91506113e1565b60008167ffffffffffffffff81111561144d577f4e487b7100000000000000000000000000000000000000000000000000000000600052604160045260246000fd5b6040519080825280601f01601f19166020018201604052801561147f5781602001600182028036833780820191505090505b5090505b600085146115325760018261149891906120cd565b9150600a856114a79190612263565b60306114b39190612046565b60f81b8183815181106114ef577f4e487b7100000000000000000000000000000000000000000000000000000000600052603260045260246000fd5b60200101907effffffffffffffffffffffffffffffffffffffffffffffffffffffffffffff1916908160001a905350600a8561152b919061209c565b9450611483565b8093505050505b919050565b505050565b505050565b6115528383610fb9565b61155f60008484846115a3565b61159e576040517f08c379a000000000000000000000000000000000000000000000000000000000815260040161159590611dd2565b60405180910390fd5b505050565b60006115c48473ffffffffffffffffffffffffffffffffffffffff1661173a565b1561172d578373ffffffffffffffffffffffffffffffffffffffff1663150b7a026115ed610bb3565b8786866040518563ffffffff1660e01b815260040161160f9493929190611d49565b602060405180830381600087803b15801561162957600080fd5b505af192505050801561165a57506040513d601f19601f8201168201806040525081019061165791906119fe565b60015b6116dd573d806000811461168a576040519150601f19603f3d011682016040523d82523d6000602084013e61168f565b606091505b506000815114156116d5576040517f08c379a00000000000000000000000000000000000000000000000000000000081526004016116cc90611dd2565b60405180910390fd5b805181602001fd5b63150b7a0260e01b7bffffffffffffffffffffffffffffffffffffffffffffffffffffffff1916817bffffffffffffffffffffffffffffffffffffffffffffffffffffffff191614915050611732565b600190505b949350505050565b6000808273ffffffffffffffffffffffffffffffffffffffff163b119050919050565b600061177061176b84611fd2565b611fad565b90508281526020810184848401111561178857600080fd5b611793848285612175565b509392505050565b6000813590506117aa81612741565b92915050565b6000813590506117bf81612758565b92915050565b6000813590506117d48161276f565b92915050565b6000815190506117e98161276f565b92915050565b600082601f83011261180057600080fd5b813561181084826020860161175d565b91505092915050565b60008135905061182881612786565b92915050565b60006020828403121561184057600080fd5b600061184e8482850161179b565b91505092915050565b6000806040838503121561186a57600080fd5b60006118788582860161179b565b92505060206118898582860161179b565b9150509250929050565b6000806000606084860312156118a857600080fd5b60006118b68682870161179b565b93505060206118c78682870161179b565b92505060406118d886828701611819565b9150509250925092565b600080600080608085870312156118f857600080fd5b60006119068782880161179b565b94505060206119178782880161179b565b935050604061192887828801611819565b925050606085013567ffffffffffffffff81111561194557600080fd5b611951878288016117ef565b91505092959194509250565b6000806040838503121561197057600080fd5b600061197e8582860161179b565b925050602061198f858286016117b0565b9150509250929050565b600080604083850312156119ac57600080fd5b60006119ba8582860161179b565b92505060206119cb85828601611819565b9150509250929050565b6000602082840312156119e757600080fd5b60006119f5848285016117c5565b91505092915050565b600060208284031215611a1057600080fd5b6000611a1e848285016117da565b91505092915050565b600060208284031215611a3957600080fd5b6000611a4784828501611819565b91505092915050565b611a5981612101565b82525050565b611a6881612113565b82525050565b6000611a7982612003565b611a838185612019565b9350611a93818560208601612184565b611a9c81612350565b840191505092915050565b6000611ab28261200e565b611abc818561202a565b9350611acc818560208601612184565b611ad581612350565b840191505092915050565b6000611aeb8261200e565b611af5818561203b565b9350611b05818560208601612184565b80840191505092915050565b6000611b1e60328361202a565b9150611b2982612361565b604082019050919050565b6000611b4160258361202a565b9150611b4c826123b0565b604082019050919050565b6000611b64601c8361202a565b9150611b6f826123ff565b602082019050919050565b6000611b8760248361202a565b9150611b9282612428565b604082019050919050565b6000611baa60198361202a565b9150611bb582612477565b602082019050919050565b6000611bcd602c8361202a565b9150611bd8826124a0565b604082019050919050565b6000611bf060388361202a565b9150611bfb826124ef565b604082019050919050565b6000611c13602a8361202a565b9150611c1e8261253e565b604082019050919050565b6000611c3660298361202a565b9150611c418261258d565b604082019050919050565b6000611c5960208361202a565b9150611c64826125dc565b602082019050919050565b6000611c7c602c8361202a565b9150611c8782612605565b604082019050919050565b6000611c9f602f8361202a565b9150611caa82612654565b604082019050919050565b6000611cc260218361202a565b9150611ccd826126a3565b604082019050919050565b6000611ce560318361202a565b9150611cf0826126f2565b604082019050919050565b611d048161216b565b82525050565b6000611d168285611ae0565b9150611d228284611ae0565b91508190509392505050565b6000602082019050611d436000830184611a50565b92915050565b6000608082019050611d5e6000830187611a50565b611d6b6020830186611a50565b611d786040830185611cfb565b8181036060830152611d8a8184611a6e565b905095945050505050565b6000602082019050611daa6000830184611a5f565b92915050565b60006020820190508181036000830152611dca8184611aa7565b905092915050565b60006020820190508181036000830152611deb81611b11565b9050919050565b60006020820190508181036000830152611e0b81611b34565b9050919050565b60006020820190508181036000830152611e2b81611b57565b9050919050565b60006020820190508181036000830152611e4b81611b7a565b9050919050565b60006020820190508181036000830152611e6b81611b9d565b9050919050565b60006020820190508181036000830152611e8b81611bc0565b9050919050565b60006020820190508181036000830152611eab81611be3565b9050919050565b60006020820190508181036000830152611ecb81611c06565b9050919050565b60006020820190508181036000830152611eeb81611c29565b9050919050565b60006020820190508181036000830152611f0b81611c4c565b9050919050565b60006020820190508181036000830152611f2b81611c6f565b9050919050565b60006020820190508181036000830152611f4b81611c92565b9050919050565b60006020820190508181036000830152611f6b81611cb5565b9050919050565b60006020820190508181036000830152611f8b81611cd8565b9050919050565b6000602082019050611fa76000830184611cfb565b92915050565b6000611fb7611fc8565b9050611fc382826121e9565b919050565b6000604051905090565b600067ffffffffffffffff821115611fed57611fec612321565b5b611ff682612350565b9050602081019050919050565b600081519050919050565b600081519050919050565b600082825260208201905092915050565b600082825260208201905092915050565b600081905092915050565b60006120518261216b565b915061205c8361216b565b9250827fffffffffffffffffffffffffffffffffffffffffffffffffffffffffffffffff0382111561209157612090612294565b5b828201905092915050565b60006120a78261216b565b91506120b28361216b565b9250826120c2576120c16122c3565b5b828204905092915050565b60006120d88261216b565b91506120e38361216b565b9250828210156120f6576120f5612294565b5b828203905092915050565b600061210c8261214b565b9050919050565b60008115159050919050565b60007fffffffff0000000000000000000000000000000000000000000000000000000082169050919050565b600073ffffffffffffffffffffffffffffffffffffffff82169050919050565b6000819050919050565b82818337600083830152505050565b60005b838110156121a2578082015181840152602081019050612187565b838111156121b1576000848401525b50505050565b600060028204905060018216806121cf57607f821691505b602082108114156121e3576121e26122f2565b5b50919050565b6121f282612350565b810181811067ffffffffffffffff8211171561221157612210612321565b5b80604052505050565b60006122258261216b565b91507fffffffffffffffffffffffffffffffffffffffffffffffffffffffffffffffff82141561225857612257612294565b5b600182019050919050565b600061226e8261216b565b91506122798361216b565b925082612289576122886122c3565b5b828206905092915050565b7f4e487b7100000000000000000000000000000000000000000000000000000000600052601160045260246000fd5b7f4e487b7100000000000000000000000000000000000000000000000000000000600052601260045260246000fd5b7f4e487b7100000000000000000000000000000000000000000000000000000000600052602260045260246000fd5b7f4e487b7100000000000000000000000000000000000000000000000000000000600052604160045260246000fd5b6000601f19601f8301169050919050565b7f4552433732313a207472616e7366657220746f206e6f6e20455243373231526560008201527f63656976657220696d706c656d656e7465720000000000000000000000000000602082015250565b7f4552433732313a207472616e736665722066726f6d20696e636f72726563742060008201527f6f776e6572000000000000000000000000000000000000000000000000000000602082015250565b7f4552433732313a20746f6b656e20616c7265616479206d696e74656400000000600082015250565b7f4552433732313a207472616e7366657220746f20746865207a65726f2061646460008201527f7265737300000000000000000000000000000000000000000000000000000000602082015250565b7f4552433732313a20617070726f766520746f2063616c6c657200000000000000600082015250565b7f4552433732313a206f70657261746f7220717565727920666f72206e6f6e657860008201527f697374656e7420746f6b656e0000000000000000000000000000000000000000602082015250565b7f4552433732313a20617070726f76652063616c6c6572206973206e6f74206f7760008201527f6e6572206e6f7220617070726f76656420666f7220616c6c0000000000000000602082015250565b7f4552433732313a2062616c616e636520717565727920666f7220746865207a6560008201527f726f206164647265737300000000000000000000000000000000000000000000602082015250565b7f4552433732313a206f776e657220717565727920666f72206e6f6e657869737460008201527f656e7420746f6b656e0000000000000000000000000000000000000000000000602082015250565b7f4552433732313a206d696e7420746f20746865207a65726f2061646472657373600082015250565b7f4552433732313a20617070726f76656420717565727920666f72206e6f6e657860008201527f697374656e7420746f6b656e0000000000000000000000000000000000000000602082015250565b7f4552433732314d657461646174613a2055524920717565727920666f72206e6f60008201527f6e6578697374656e7420746f6b656e0000000000000000000000000000000000602082015250565b7f4552433732313a20617070726f76616c20746f2063757272656e74206f776e6560008201527f7200000000000000000000000000000000000000000000000000000000000000602082015250565b7f4552433732313a207472616e736665722063616c6c6572206973206e6f74206f60008201527f776e6572206e6f7220617070726f766564000000000000000000000000000000602082015250565b61274a81612101565b811461275557600080fd5b50565b61276181612113565b811461276c57600080fd5b50565b6127788161211f565b811461278357600080fd5b50565b61278f8161216b565b811461279a57600080fd5b5056fea26469706673582212208a38c2a57224574b960b525af715be25c221e16f7d5b6829d0853f088fb0819f64736f6c63430008040033",
  "linkReferences": {},
  "deployedLinkReferences": {}
}