{
  "_format": "hh-sol-artifact-1",
  "contractName": "RosalindTestLab",
  "sourceName": "contracts/Testing/RosalindTestLab.sol",
  "abi": [
    {
      "inputs": [
        {
          "internalType": "uint256[]",
          "name": "parents",
          "type": "uint256[]"
        },
        {
          "internalType": "uint8[]",
          "name": "genes",
          "type": "uint8[]"
        },
        {
          "internalType": "uint256",
          "name": "randomSeed",
          "type": "uint256"
        }
      ],
      "name": "breedDNASimple",
      "outputs": [
        {
          "internalType": "uint256",
          "name": "",
          "type": "uint256"
        }
      ],
      "stateMutability": "pure",
      "type": "function"
    },
    {
      "inputs": [
        {
          "internalType": "uint256[]",
          "name": "parents",
          "type": "uint256[]"
        },
        {
          "internalType": "uint8[]",
          "name": "genes",
          "type": "uint8[]"
        },
        {
          "internalType": "uint256",
          "name": "randomSeed",
          "type": "uint256"
        },
        {
          "internalType": "uint256[]",
          "name": "mutationRates",
          "type": "uint256[]"
        }
      ],
      "name": "breedDNAWithMutations",
      "outputs": [
        {
          "internalType": "uint256",
          "name": "childDNA",
          "type": "uint256"
        }
      ],
      "stateMutability": "pure",
      "type": "function"
    },
    {
      "inputs": [
        {
          "internalType": "uint256",
          "name": "dna",
          "type": "uint256"
        },
        {
          "internalType": "uint8[]",
          "name": "genes",
          "type": "uint8[]"
        },
        {
          "internalType": "uint256",
          "name": "randomSeed",
          "type": "uint256"
        },
        {
          "internalType": "uint256[]",
          "name": "mutationRates",
          "type": "uint256[]"
        }
      ],
      "name": "generateMutations",
      "outputs": [
        {
          "internalType": "uint256",
          "name": "mutatedDNA",
          "type": "uint256"
        }
      ],
      "stateMutability": "pure",
      "type": "function"
    }
  ],
  "bytecode": "0x608060405234801561001057600080fd5b50610c21806100206000396000f3fe608060405234801561001057600080fd5b50600436106100415760003560e01c80631b1273bf14610046578063ea8ac08014610076578063f6d56051146100a6575b600080fd5b610060600480360381019061005b91906107cb565b6100d6565b60405161006d919061086d565b60405180910390f35b610090600480360381019061008b919061071b565b6100ee565b60405161009d919061086d565b60405180910390f35b6100c060048036038101906100bb9190610697565b610108565b6040516100cd919061086d565b60405180910390f35b60006100e485858585610120565b9050949350505050565b60006100fd8686868686610297565b905095945050505050565b6000610116858585856102be565b9050949350505050565b60008060005b855181101561026e57600061013b868361043b565b9050848281518110610176577f4e487b7100000000000000000000000000000000000000000000000000000000600052603260045260246000fd5b602002602001015181111561018b575061025b565b60008783815181106101c6577f4e487b7100000000000000000000000000000000000000000000000000000000600052603260045260246000fd5b602002602001015160ff1690506000600189516101e391906109f0565b84106101f05760ff61023e565b886001856101fe9190610966565b81518110610235577f4e487b7100000000000000000000000000000000000000000000000000000000600052603260045260246000fd5b60200260200101515b60ff169050600061024f8383610484565b90508086179550505050505b808061026690610aa5565b915050610126565b50600061027b878661043b565b9050818116925081198716965082871792505050949350505050565b60006102a5868686866102be565b90506102b381858585610120565b905095945050505050565b600080600090505b83518161ffff161015610432576000848261ffff1681518110610312577f4e487b7100000000000000000000000000000000000000000000000000000000600052603260045260246000fd5b602002602001015160ff16905060006001865161032f91906109f0565b8361ffff161061034157610100610396565b8560018461034f919061092e565b61ffff168151811061038a577f4e487b7100000000000000000000000000000000000000000000000000000000600052603260045260246000fd5b602002602001015160ff165b90506000888890506103ac878661ffff1661043b565b6103b69190610aee565b9050600089898360ff168181106103f6577f4e487b7100000000000000000000000000000000000000000000000000000000600052603260045260246000fd5b905060200201359050600061040b8585610484565b9050600081831690508088179750505050505050808061042a90610a7a565b9150506102c6565b50949350505050565b6000808383604051602001610451929190610888565b6040516020818303038152906040528051906020012060001c9050600081141561047a57600080fd5b8091505092915050565b6000808361ffff167fffffffffffffffffffffffffffffffffffffffffffffffffffffffffffffffff901b90506000836101006104c191906109bc565b61ffff167fffffffffffffffffffffffffffffffffffffffffffffffffffffffffffffffff901c90508082169250505092915050565b600061050a610505846108d6565b6108b1565b9050808382526020820190508285602086028201111561052957600080fd5b60005b85811015610559578161053f888261066d565b84526020840193506020830192505060018101905061052c565b5050509392505050565b600061057661057184610902565b6108b1565b9050808382526020820190508285602086028201111561059557600080fd5b60005b858110156105c557816105ab8882610682565b845260208401935060208301925050600181019050610598565b5050509392505050565b60008083601f8401126105e157600080fd5b8235905067ffffffffffffffff8111156105fa57600080fd5b60208301915083602082028301111561061257600080fd5b9250929050565b600082601f83011261062a57600080fd5b813561063a8482602086016104f7565b91505092915050565b600082601f83011261065457600080fd5b8135610664848260208601610563565b91505092915050565b60008135905061067c81610bbd565b92915050565b60008135905061069181610bd4565b92915050565b600080600080606085870312156106ad57600080fd5b600085013567ffffffffffffffff8111156106c757600080fd5b6106d3878288016105cf565b9450945050602085013567ffffffffffffffff8111156106f257600080fd5b6106fe87828801610643565b925050604061070f8782880161066d565b91505092959194509250565b60008060008060006080868803121561073357600080fd5b600086013567ffffffffffffffff81111561074d57600080fd5b610759888289016105cf565b9550955050602086013567ffffffffffffffff81111561077857600080fd5b61078488828901610643565b93505060406107958882890161066d565b925050606086013567ffffffffffffffff8111156107b257600080fd5b6107be88828901610619565b9150509295509295909350565b600080600080608085870312156107e157600080fd5b60006107ef8782880161066d565b945050602085013567ffffffffffffffff81111561080c57600080fd5b61081887828801610643565b93505060406108298782880161066d565b925050606085013567ffffffffffffffff81111561084657600080fd5b61085287828801610619565b91505092959194509250565b61086781610a32565b82525050565b6000602082019050610882600083018461085e565b92915050565b600060408201905061089d600083018561085e565b6108aa602083018461085e565b9392505050565b60006108bb6108cc565b90506108c78282610a49565b919050565b6000604051905090565b600067ffffffffffffffff8211156108f1576108f0610b7d565b5b602082029050602081019050919050565b600067ffffffffffffffff82111561091d5761091c610b7d565b5b602082029050602081019050919050565b600061093982610a24565b915061094483610a24565b92508261ffff0382111561095b5761095a610b1f565b5b828201905092915050565b600061097182610a32565b915061097c83610a32565b9250827fffffffffffffffffffffffffffffffffffffffffffffffffffffffffffffffff038211156109b1576109b0610b1f565b5b828201905092915050565b60006109c782610a24565b91506109d283610a24565b9250828210156109e5576109e4610b1f565b5b828203905092915050565b60006109fb82610a32565b9150610a0683610a32565b925082821015610a1957610a18610b1f565b5b828203905092915050565b600061ffff82169050919050565b6000819050919050565b600060ff82169050919050565b610a5282610bac565b810181811067ffffffffffffffff82111715610a7157610a70610b7d565b5b80604052505050565b6000610a8582610a24565b915061ffff821415610a9a57610a99610b1f565b5b600182019050919050565b6000610ab082610a32565b91507fffffffffffffffffffffffffffffffffffffffffffffffffffffffffffffffff821415610ae357610ae2610b1f565b5b600182019050919050565b6000610af982610a32565b9150610b0483610a32565b925082610b1457610b13610b4e565b5b828206905092915050565b7f4e487b7100000000000000000000000000000000000000000000000000000000600052601160045260246000fd5b7f4e487b7100000000000000000000000000000000000000000000000000000000600052601260045260246000fd5b7f4e487b7100000000000000000000000000000000000000000000000000000000600052604160045260246000fd5b6000601f19601f8301169050919050565b610bc681610a32565b8114610bd157600080fd5b50565b610bdd81610a3c565b8114610be857600080fd5b5056fea2646970667358221220e2494c821c8aa97fef40eb44933010807926a3326abb5cf6ddbe684730b3e7ba64736f6c63430008040033",
  "linkReferences": {},
  "deployedLinkReferences": {}
}